{
  "address": "0xFDF50FEa3527FaD31Fa840B748FD3694aE8a47cc",
  "abi": [
    {
      "inputs": [
        {
          "internalType": "string",
          "name": "_nativeSymbol",
          "type": "string"
        }
      ],
      "payable": false,
      "stateMutability": "nonpayable",
      "type": "constructor"
    },
    {
      "constant": false,
      "inputs": [
        {
          "internalType": "contract Joetroller",
          "name": "joetroller",
          "type": "address"
        },
        {
          "internalType": "address",
          "name": "account",
          "type": "address"
        }
      ],
      "name": "getAccountLimits",
      "outputs": [
        {
          "components": [
            {
              "internalType": "contract JToken[]",
              "name": "markets",
              "type": "address[]"
            },
            {
              "internalType": "uint256",
              "name": "liquidity",
              "type": "uint256"
            },
            {
              "internalType": "uint256",
              "name": "shortfall",
              "type": "uint256"
            },
            {
              "internalType": "uint256",
              "name": "totalCollateralValueUSD",
              "type": "uint256"
            },
            {
              "internalType": "uint256",
              "name": "totalBorrowValueUSD",
              "type": "uint256"
            },
            {
              "internalType": "uint256",
              "name": "healthFactor",
              "type": "uint256"
            }
          ],
          "internalType": "struct JoeLens.AccountLimits",
          "name": "",
          "type": "tuple"
        }
      ],
      "payable": false,
      "stateMutability": "nonpayable",
      "type": "function"
    },
    {
      "constant": false,
      "inputs": [
        {
          "internalType": "uint8",
          "name": "rewardType",
          "type": "uint8"
        },
        {
          "internalType": "address",
          "name": "joetroller",
          "type": "address"
        },
        {
          "internalType": "address",
          "name": "joe",
          "type": "address"
        },
        {
          "internalType": "address payable",
          "name": "account",
          "type": "address"
        }
      ],
      "name": "getClaimableRewards",
      "outputs": [
        {
          "internalType": "uint256",
          "name": "",
          "type": "uint256"
        }
      ],
      "payable": false,
      "stateMutability": "nonpayable",
      "type": "function"
    },
    {
      "constant": false,
      "inputs": [
        {
          "internalType": "contract JToken",
          "name": "jToken",
          "type": "address"
        },
        {
          "internalType": "address",
          "name": "account",
          "type": "address"
        }
      ],
      "name": "jTokenBalances",
      "outputs": [
        {
          "components": [
            {
              "internalType": "address",
              "name": "jToken",
              "type": "address"
            },
            {
              "internalType": "uint256",
              "name": "jTokenBalance",
              "type": "uint256"
            },
            {
              "internalType": "uint256",
              "name": "balanceOfUnderlyingCurrent",
              "type": "uint256"
            },
            {
              "internalType": "uint256",
              "name": "supplyValueUSD",
              "type": "uint256"
            },
            {
              "internalType": "uint256",
              "name": "collateralValueUSD",
              "type": "uint256"
            },
            {
              "internalType": "uint256",
              "name": "borrowBalanceCurrent",
              "type": "uint256"
            },
            {
              "internalType": "uint256",
              "name": "borrowValueUSD",
              "type": "uint256"
            },
            {
              "internalType": "uint256",
              "name": "underlyingTokenBalance",
              "type": "uint256"
            },
            {
              "internalType": "uint256",
              "name": "underlyingTokenAllowance",
              "type": "uint256"
            },
            {
              "internalType": "bool",
              "name": "collateralEnabled",
              "type": "bool"
            }
          ],
          "internalType": "struct JoeLens.JTokenBalances",
          "name": "",
          "type": "tuple"
        }
      ],
      "payable": false,
      "stateMutability": "nonpayable",
      "type": "function"
    },
    {
      "constant": false,
      "inputs": [
        {
          "internalType": "contract JToken[]",
          "name": "jTokens",
          "type": "address[]"
        },
        {
          "internalType": "address",
          "name": "account",
          "type": "address"
        }
      ],
      "name": "jTokenBalancesAll",
      "outputs": [
        {
          "components": [
            {
              "internalType": "address",
              "name": "jToken",
              "type": "address"
            },
            {
              "internalType": "uint256",
              "name": "jTokenBalance",
              "type": "uint256"
            },
            {
              "internalType": "uint256",
              "name": "balanceOfUnderlyingCurrent",
              "type": "uint256"
            },
            {
              "internalType": "uint256",
              "name": "supplyValueUSD",
              "type": "uint256"
            },
            {
              "internalType": "uint256",
              "name": "collateralValueUSD",
              "type": "uint256"
            },
            {
              "internalType": "uint256",
              "name": "borrowBalanceCurrent",
              "type": "uint256"
            },
            {
              "internalType": "uint256",
              "name": "borrowValueUSD",
              "type": "uint256"
            },
            {
              "internalType": "uint256",
              "name": "underlyingTokenBalance",
              "type": "uint256"
            },
            {
              "internalType": "uint256",
              "name": "underlyingTokenAllowance",
              "type": "uint256"
            },
            {
              "internalType": "bool",
              "name": "collateralEnabled",
              "type": "bool"
            }
          ],
          "internalType": "struct JoeLens.JTokenBalances[]",
          "name": "",
          "type": "tuple[]"
        }
      ],
      "payable": false,
      "stateMutability": "nonpayable",
      "type": "function"
    },
    {
      "constant": false,
      "inputs": [
        {
          "internalType": "contract JToken",
          "name": "jToken",
          "type": "address"
        }
      ],
      "name": "jTokenMetadata",
      "outputs": [
        {
          "components": [
            {
              "internalType": "address",
              "name": "jToken",
              "type": "address"
            },
            {
              "internalType": "uint256",
              "name": "exchangeRateCurrent",
              "type": "uint256"
            },
            {
              "internalType": "uint256",
              "name": "supplyRatePerSecond",
              "type": "uint256"
            },
            {
              "internalType": "uint256",
              "name": "borrowRatePerSecond",
              "type": "uint256"
            },
            {
              "internalType": "uint256",
              "name": "reserveFactorMantissa",
              "type": "uint256"
            },
            {
              "internalType": "uint256",
              "name": "totalBorrows",
              "type": "uint256"
            },
            {
              "internalType": "uint256",
              "name": "totalReserves",
              "type": "uint256"
            },
            {
              "internalType": "uint256",
              "name": "totalSupply",
              "type": "uint256"
            },
            {
              "internalType": "uint256",
              "name": "totalCash",
              "type": "uint256"
            },
            {
              "internalType": "uint256",
              "name": "totalCollateralTokens",
              "type": "uint256"
            },
            {
              "internalType": "bool",
              "name": "isListed",
              "type": "bool"
            },
            {
              "internalType": "uint256",
              "name": "collateralFactorMantissa",
              "type": "uint256"
            },
            {
              "internalType": "address",
              "name": "underlyingAssetAddress",
              "type": "address"
            },
            {
              "internalType": "uint256",
              "name": "jTokenDecimals",
              "type": "uint256"
            },
            {
              "internalType": "uint256",
              "name": "underlyingDecimals",
              "type": "uint256"
            },
            {
              "internalType": "enum JoetrollerV1Storage.Version",
              "name": "version",
              "type": "uint8"
            },
            {
              "internalType": "uint256",
              "name": "collateralCap",
              "type": "uint256"
            },
            {
              "internalType": "uint256",
              "name": "underlyingPrice",
              "type": "uint256"
            },
            {
              "internalType": "bool",
              "name": "supplyPaused",
              "type": "bool"
            },
            {
              "internalType": "bool",
              "name": "borrowPaused",
              "type": "bool"
            },
            {
              "internalType": "uint256",
              "name": "supplyCap",
              "type": "uint256"
            },
            {
              "internalType": "uint256",
              "name": "borrowCap",
              "type": "uint256"
            }
          ],
          "internalType": "struct JoeLens.JTokenMetadata",
          "name": "",
          "type": "tuple"
        }
      ],
      "payable": false,
      "stateMutability": "nonpayable",
      "type": "function"
    },
    {
      "constant": false,
      "inputs": [
        {
          "internalType": "contract JToken[]",
          "name": "jTokens",
          "type": "address[]"
        }
      ],
      "name": "jTokenMetadataAll",
      "outputs": [
        {
          "components": [
            {
              "internalType": "address",
              "name": "jToken",
              "type": "address"
            },
            {
              "internalType": "uint256",
              "name": "exchangeRateCurrent",
              "type": "uint256"
            },
            {
              "internalType": "uint256",
              "name": "supplyRatePerSecond",
              "type": "uint256"
            },
            {
              "internalType": "uint256",
              "name": "borrowRatePerSecond",
              "type": "uint256"
            },
            {
              "internalType": "uint256",
              "name": "reserveFactorMantissa",
              "type": "uint256"
            },
            {
              "internalType": "uint256",
              "name": "totalBorrows",
              "type": "uint256"
            },
            {
              "internalType": "uint256",
              "name": "totalReserves",
              "type": "uint256"
            },
            {
              "internalType": "uint256",
              "name": "totalSupply",
              "type": "uint256"
            },
            {
              "internalType": "uint256",
              "name": "totalCash",
              "type": "uint256"
            },
            {
              "internalType": "uint256",
              "name": "totalCollateralTokens",
              "type": "uint256"
            },
            {
              "internalType": "bool",
              "name": "isListed",
              "type": "bool"
            },
            {
              "internalType": "uint256",
              "name": "collateralFactorMantissa",
              "type": "uint256"
            },
            {
              "internalType": "address",
              "name": "underlyingAssetAddress",
              "type": "address"
            },
            {
              "internalType": "uint256",
              "name": "jTokenDecimals",
              "type": "uint256"
            },
            {
              "internalType": "uint256",
              "name": "underlyingDecimals",
              "type": "uint256"
            },
            {
              "internalType": "enum JoetrollerV1Storage.Version",
              "name": "version",
              "type": "uint8"
            },
            {
              "internalType": "uint256",
              "name": "collateralCap",
              "type": "uint256"
            },
            {
              "internalType": "uint256",
              "name": "underlyingPrice",
              "type": "uint256"
            },
            {
              "internalType": "bool",
              "name": "supplyPaused",
              "type": "bool"
            },
            {
              "internalType": "bool",
              "name": "borrowPaused",
              "type": "bool"
            },
            {
              "internalType": "uint256",
              "name": "supplyCap",
              "type": "uint256"
            },
            {
              "internalType": "uint256",
              "name": "borrowCap",
              "type": "uint256"
            }
          ],
          "internalType": "struct JoeLens.JTokenMetadata[]",
          "name": "",
          "type": "tuple[]"
        }
      ],
      "payable": false,
      "stateMutability": "nonpayable",
      "type": "function"
    },
    {
      "constant": true,
      "inputs": [],
      "name": "nativeSymbol",
      "outputs": [
        {
          "internalType": "string",
          "name": "",
          "type": "string"
        }
      ],
      "payable": false,
      "stateMutability": "view",
      "type": "function"
    }
  ],
  "transactionHash": "0x4fb78fd9ffe37a1d5d4e7671d9fa3845fa167f7df962af9a8d2820d57fe43383",
  "args": [
    "jAVAX"
  ],
  "solcInputHash": "57021528ca194e7ebe5a8306f27ce312",
  "bytecode": "0x60806040523480156200001157600080fd5b5060405162002f6938038062002f69833981016040819052620000349162000152565b80516200004990600090602084019062000051565b505062000214565b828054600181600116156101000203166002900490600052602060002090601f016020900481019282601f106200009457805160ff1916838001178555620000c4565b82800160010185558215620000c4579182015b82811115620000c4578251825591602001919060010190620000a7565b50620000d2929150620000d6565b5090565b620000f391905b80821115620000d25760008155600101620000dd565b90565b600082601f8301126200010857600080fd5b81516200011f6200011982620001b9565b62000192565b915080825260208301602083018583830111156200013c57600080fd5b62000149838284620001e1565b50505092915050565b6000602082840312156200016557600080fd5b81516001600160401b038111156200017c57600080fd5b6200018a84828501620000f6565b949350505050565b6040518181016001600160401b0381118282101715620001b157600080fd5b604052919050565b60006001600160401b03821115620001d057600080fd5b506020601f91909101601f19160190565b60005b83811015620001fe578181015183820152602001620001e4565b838111156200020e576000848401525b50505050565b612d4580620002246000396000f3fe608060405234801561001057600080fd5b506004361061007c5760003560e01c80637dd8f6d91161005b5780637dd8f6d9146100ea5780637fedad551461010a578063886131111461011f578063d9ca3c9c1461013f5761007c565b8062673b0c1461008157806354781336146100aa57806357553afb146100ca575b600080fd5b61009461008f3660046122a4565b61015f565b6040516100a19190612ad0565b60405180910390f35b6100bd6100b836600461246f565b6101f8565b6040516100a19190612b8e565b6100dd6100d836600461237e565b610436565b6040516100a19190612b70565b6100fd6100f836600461237e565b610b8b565b6040516100a19190612b5f565b610112610da1565b6040516100a19190612b0e565b61013261012d36600461222d565b610e2f565b6040516100a19190612ae1565b61015261014d366004612360565b6110bb565b6040516100a19190612b7f565b60606000835190506060816040519080825280602002602001820160405280156101a357816020015b610190611eb4565b8152602001906001900390816101885790505b50905060005b828110156101ed576101ce8682815181106101c057fe5b602002602001015186610436565b8282815181106101da57fe5b60209081029190910101526001016101a9565b509150505b92915050565b600060018560ff1611156102275760405162461bcd60e51b815260040161021e90612b2f565b60405180910390fd5b60ff85166103a6576040516370a0823160e01b81526000906001600160a01b038516906370a082319061025e908690600401612a8c565b60206040518083038186803b15801561027657600080fd5b505afa15801561028a573d6000803e3d6000fd5b505050506040513d601f19601f820116820180604052506102ae91908101906123f0565b604051630952c56360e01b81529091506001600160a01b03861690630952c563906102e0906000908790600401612b00565b600060405180830381600087803b1580156102fa57600080fd5b505af115801561030e573d6000803e3d6000fd5b50506040516370a0823160e01b8152600092506001600160a01b03871691506370a0823190610341908790600401612a8c565b60206040518083038186803b15801561035957600080fd5b505afa15801561036d573d6000803e3d6000fd5b505050506040513d601f19601f8201168201806040525061039191908101906123f0565b905061039d81836111c2565b9250505061042e565b8460ff166001141561042e57604051630952c56360e01b81526001600160a01b03808416319190861690630952c563906103e7906001908790600401612b00565b600060405180830381600087803b15801561040157600080fd5b505af1158015610415573d6000803e3d6000fd5b505050506001600160a01b0383163161039d81836111c2565b949350505050565b61043e611eb4565b610446611eb4565b6000846001600160a01b0316636330533c6040518163ffffffff1660e01b815260040160206040518083038186803b15801561048157600080fd5b505afa158015610495573d6000803e3d6000fd5b505050506040513d601f19601f820116820180604052506104b9919081019061239d565b6001600160a01b03808716845260405163929fe9a160e01b815291925082169063929fe9a1906104ef9087908990600401612ab5565b60206040518083038186803b15801561050757600080fd5b505afa15801561051b573d6000803e3d6000fd5b505050506040513d601f19601f8201168201806040525061053f91908101906122f5565b82610120019015159081151581525050610657856001600160a01b03166395d89b416040518163ffffffff1660e01b815260040160006040518083038186803b15801561058b57600080fd5b505afa15801561059f573d6000803e3d6000fd5b505050506040513d6000823e601f3d908101601f191682016040526105c791908101906123bb565b6000805460408051602060026001851615610100026000190190941693909304601f8101849004840282018401909252818152929183018282801561064d5780601f106106225761010080835404028352916020019161064d565b820191906000526020600020905b81548152906001019060200180831161063057829003601f168201915b5050505050611203565b15610679576001600160a01b038416803160e0840152316101008301526107fc565b60008590506000816001600160a01b0316636f307dc36040518163ffffffff1660e01b815260040160206040518083038186803b1580156106b957600080fd5b505afa1580156106cd573d6000803e3d6000fd5b505050506040513d601f19601f820116820180604052506106f1919081019061220f565b6040516370a0823160e01b81529091506001600160a01b038216906370a0823190610720908990600401612a7e565b60206040518083038186803b15801561073857600080fd5b505afa15801561074c573d6000803e3d6000fd5b505050506040513d601f19601f8201168201806040525061077091908101906123f0565b60e0850152604051636eb1769f60e11b81526001600160a01b0382169063dd62ed3e906107a39089908b90600401612a9a565b60206040518083038186803b1580156107bb57600080fd5b505afa1580156107cf573d6000803e3d6000fd5b505050506040513d601f19601f820116820180604052506107f391908101906123f0565b61010085015250505b6040516370a0823160e01b81526001600160a01b038616906370a0823190610828908790600401612a7e565b60206040518083038186803b15801561084057600080fd5b505afa158015610854573d6000803e3d6000fd5b505050506040513d601f19601f8201168201806040525061087891908101906123f0565b60208301526040516305eff7ef60e21b81526001600160a01b038616906317bfdfbc906108a9908790600401612a7e565b602060405180830381600087803b1580156108c357600080fd5b505af11580156108d7573d6000803e3d6000fd5b505050506040513d601f19601f820116820180604052506108fb91908101906123f0565b60a0830152604051633af9e66960e01b81526001600160a01b03861690633af9e6699061092c908790600401612a7e565b602060405180830381600087803b15801561094657600080fd5b505af115801561095a573d6000803e3d6000fd5b505050506040513d601f19601f8201168201806040525061097e91908101906123f0565b8260400181815250506000816001600160a01b0316637dc0d1d06040518163ffffffff1660e01b815260040160206040518083038186803b1580156109c257600080fd5b505afa1580156109d6573d6000803e3d6000fd5b505050506040513d601f19601f820116820180604052506109fa919081019061239d565b90506000816001600160a01b031663fc57d4df886040518263ffffffff1660e01b8152600401610a2a9190612af2565b60206040518083038186803b158015610a4257600080fd5b505afa158015610a56573d6000803e3d6000fd5b505050506040513d601f19601f82011682018060405250610a7a91908101906123f0565b90506000836001600160a01b0316638e8f294b896040518263ffffffff1660e01b8152600401610aaa9190612a7e565b60606040518083038186803b158015610ac257600080fd5b505afa158015610ad6573d6000803e3d6000fd5b505050506040513d601f19601f82011682018060405250610afa9190810190612313565b50915050610b06611f12565b5060408051602081018252908601518152610b21818461125c565b6060870152610b2e611f12565b6040518060200160405280848152509050610b4d81886060015161125c565b6080880152610b5a611f12565b50604080516020810190915260a08801518152610b77818661125c565b60c089015250959998505050505050505050565b610b93611f25565b610b9b611f25565b604051635ec88c7960e01b81526000906001600160a01b03861690635ec88c7990610bca908790600401612a7e565b60606040518083038186803b158015610be257600080fd5b505afa158015610bf6573d6000803e3d6000fd5b505050506040513d601f19601f82011682018060405250610c1a919081019061240e565b6040850152602084015290508015610c445760405162461bcd60e51b815260040161021e90612b3f565b604051632aff3bff60e21b81526001600160a01b0386169063abfceffc90610c70908790600401612a7e565b60006040518083038186803b158015610c8857600080fd5b505afa158015610c9c573d6000803e3d6000fd5b505050506040513d6000823e601f3d908101601f19168201604052610cc4919081019061226f565b808352606090610cd4908661015f565b905060005b8151811015610d4257610d078460600151838381518110610cf657fe5b60200260200101516080015161127b565b846060018181525050610d358460800151838381518110610d2457fe5b602002602001015160c0015161127b565b6080850152600101610cd9565b50610d4b611f12565b50604080516020810190915260808401518152606084015115610d8e576000846080015111610d7b576064610d89565b610d898460600151826112b1565b610d91565b60005b60a0850152509195945050505050565b6000805460408051602060026001851615610100026000190190941693909304601f81018490048402820184019092528181529291830182828015610e275780601f10610dfc57610100808354040283529160200191610e27565b820191906000526020600020905b815481529060010190602001808311610e0a57829003601f168201915b505050505081565b60608180610e4f5760405162461bcd60e51b815260040161021e90612b4f565b606081604051908082528060200260200182016040528015610e8b57816020015b610e78611f5b565b815260200190600190039081610e705790505b509050600085856000818110610e9d57fe5b9050602002016020610eb29190810190612360565b6001600160a01b0316636330533c6040518163ffffffff1660e01b815260040160206040518083038186803b158015610eea57600080fd5b505afa158015610efe573d6000803e3d6000fd5b505050506040513d601f19601f82011682018060405250610f22919081019061239d565b90506000816001600160a01b0316637dc0d1d06040518163ffffffff1660e01b815260040160206040518083038186803b158015610f5f57600080fd5b505afa158015610f73573d6000803e3d6000fd5b505050506040513d601f19601f82011682018060405250610f97919081019061239d565b905060005b848110156110af57878782818110610fb057fe5b9050602002016020610fc59190810190612360565b6001600160a01b0316636330533c6040518163ffffffff1660e01b815260040160206040518083038186803b158015610ffd57600080fd5b505afa158015611011573d6000803e3d6000fd5b505050506040513d601f19601f82011682018060405250611035919081019061239d565b6001600160a01b0316836001600160a01b0316146110655760405162461bcd60e51b815260040161021e90612b1f565b61109088888381811061107457fe5b90506020020160206110899190810190612360565b84846112cf565b84828151811061109c57fe5b6020908102919091010152600101610f9c565b50919695505050505050565b6110c3611f5b565b6000826001600160a01b0316636330533c6040518163ffffffff1660e01b815260040160206040518083038186803b1580156110fe57600080fd5b505afa158015611112573d6000803e3d6000fd5b505050506040513d601f19601f82011682018060405250611136919081019061239d565b90506000816001600160a01b0316637dc0d1d06040518163ffffffff1660e01b815260040160206040518083038186803b15801561117357600080fd5b505afa158015611187573d6000803e3d6000fd5b505050506040513d601f19601f820116820180604052506111ab919081019061239d565b90506111b88483836112cf565b925050505b919050565b60006111fc8383604051806040016040528060158152602001747375627472616374696f6e20756e646572666c6f7760581b815250611d2e565b9392505050565b6000816040516020016112169190612a72565b604051602081830303815290604052805190602001208360405160200161123d9190612a72565b6040516020818303038152906040528051906020012014905092915050565b6000611266611f12565b6112708484611d5a565b905061042e81611d84565b60006111fc8383604051806040016040528060118152602001706164646974696f6e206f766572666c6f7760781b815250611d93565b60006111fc6112c884670de0b6b3a7640000611dc3565b8351611e05565b6112d7611f5b565b6000846001600160a01b031663bd6d894d6040518163ffffffff1660e01b8152600401602060405180830381600087803b15801561131457600080fd5b505af1158015611328573d6000803e3d6000fd5b505050506040513d601f19601f8201168201806040525061134c91908101906123f0565b90506000806000866001600160a01b0316638e8f294b896040518263ffffffff1660e01b815260040161137f9190612a7e565b60606040518083038186803b15801561139757600080fd5b505afa1580156113ab573d6000803e3d6000fd5b505050506040513d601f19601f820116820180604052506113cf9190810190612313565b9250925092506000806000806114178c6001600160a01b03166395d89b416040518163ffffffff1660e01b815260040160006040518083038186803b15801561058b57600080fd5b15611429576000935060129250611589565b60008c9050806001600160a01b0316636f307dc36040518163ffffffff1660e01b815260040160206040518083038186803b15801561146757600080fd5b505afa15801561147b573d6000803e3d6000fd5b505050506040513d601f19601f8201168201806040525061149f919081019061220f565b9450806001600160a01b0316636f307dc36040518163ffffffff1660e01b815260040160206040518083038186803b1580156114da57600080fd5b505afa1580156114ee573d6000803e3d6000fd5b505050506040513d601f19601f82011682018060405250611512919081019061220f565b6001600160a01b031663313ce5676040518163ffffffff1660e01b815260040160206040518083038186803b15801561154a57600080fd5b505afa15801561155e573d6000803e3d6000fd5b505050506040513d601f19601f820116820180604052506115829190810190612451565b60ff169350505b600185600281111561159757fe5b1415611684578b6001600160a01b031663d2bb18e96040518163ffffffff1660e01b815260040160206040518083038186803b1580156115d657600080fd5b505afa1580156115ea573d6000803e3d6000fd5b505050506040513d601f19601f8201168201806040525061160e91908101906123f0565b91508b6001600160a01b03166319a4dd3c6040518163ffffffff1660e01b815260040160206040518083038186803b15801561164957600080fd5b505afa15801561165d573d6000803e3d6000fd5b505050506040513d601f19601f8201168201806040525061168191908101906123f0565b90505b604051806102c001604052808d6001600160a01b031681526020018981526020018d6001600160a01b031663b1d389746040518163ffffffff1660e01b815260040160206040518083038186803b1580156116de57600080fd5b505afa1580156116f2573d6000803e3d6000fd5b505050506040513d601f19601f8201168201806040525061171691908101906123f0565b81526020018d6001600160a01b031663526097506040518163ffffffff1660e01b815260040160206040518083038186803b15801561175457600080fd5b505afa158015611768573d6000803e3d6000fd5b505050506040513d601f19601f8201168201806040525061178c91908101906123f0565b81526020018d6001600160a01b031663173b99046040518163ffffffff1660e01b815260040160206040518083038186803b1580156117ca57600080fd5b505afa1580156117de573d6000803e3d6000fd5b505050506040513d601f19601f8201168201806040525061180291908101906123f0565b81526020018d6001600160a01b03166347bd37186040518163ffffffff1660e01b815260040160206040518083038186803b15801561184057600080fd5b505afa158015611854573d6000803e3d6000fd5b505050506040513d601f19601f8201168201806040525061187891908101906123f0565b81526020018d6001600160a01b0316638f840ddd6040518163ffffffff1660e01b815260040160206040518083038186803b1580156118b657600080fd5b505afa1580156118ca573d6000803e3d6000fd5b505050506040513d601f19601f820116820180604052506118ee91908101906123f0565b81526020018d6001600160a01b03166318160ddd6040518163ffffffff1660e01b815260040160206040518083038186803b15801561192c57600080fd5b505afa158015611940573d6000803e3d6000fd5b505050506040513d601f19601f8201168201806040525061196491908101906123f0565b81526020018d6001600160a01b0316633b1d21a26040518163ffffffff1660e01b815260040160206040518083038186803b1580156119a257600080fd5b505afa1580156119b6573d6000803e3d6000fd5b505050506040513d601f19601f820116820180604052506119da91908101906123f0565b81526020018281526020018815158152602001878152602001856001600160a01b031681526020018d6001600160a01b031663313ce5676040518163ffffffff1660e01b815260040160206040518083038186803b158015611a3b57600080fd5b505afa158015611a4f573d6000803e3d6000fd5b505050506040513d601f19601f82011682018060405250611a739190810190612451565b60ff168152602001848152602001866002811115611a8d57fe5b81526020018381526020018b6001600160a01b031663fc57d4df8f6040518263ffffffff1660e01b8152600401611ac49190612af2565b60206040518083038186803b158015611adc57600080fd5b505afa158015611af0573d6000803e3d6000fd5b505050506040513d601f19601f82011682018060405250611b1491908101906123f0565b81526020018c6001600160a01b031663731f0c2b8f6040518263ffffffff1660e01b8152600401611b459190612a7e565b60206040518083038186803b158015611b5d57600080fd5b505afa158015611b71573d6000803e3d6000fd5b505050506040513d601f19601f82011682018060405250611b9591908101906122f5565b151581526020018c6001600160a01b0316636d154ea58f6040518263ffffffff1660e01b8152600401611bc89190612a7e565b60206040518083038186803b158015611be057600080fd5b505afa158015611bf4573d6000803e3d6000fd5b505050506040513d601f19601f82011682018060405250611c1891908101906122f5565b151581526020018c6001600160a01b03166302c3bcbb8f6040518263ffffffff1660e01b8152600401611c4b9190612a7e565b60206040518083038186803b158015611c6357600080fd5b505afa158015611c77573d6000803e3d6000fd5b505050506040513d601f19601f82011682018060405250611c9b91908101906123f0565b81526020018c6001600160a01b0316634a5844328f6040518263ffffffff1660e01b8152600401611ccc9190612a7e565b60206040518083038186803b158015611ce457600080fd5b505afa158015611cf8573d6000803e3d6000fd5b505050506040513d601f19601f82011682018060405250611d1c91908101906123f0565b90529c9b505050505050505050505050565b60008184841115611d525760405162461bcd60e51b815260040161021e9190612b0e565b505050900390565b611d62611f12565b6040518060200160405280611d7b856000015185611dc3565b90529392505050565b51670de0b6b3a7640000900490565b60008383018285821015611dba5760405162461bcd60e51b815260040161021e9190612b0e565b50949350505050565b60006111fc83836040518060400160405280601781526020017f6d756c7469706c69636174696f6e206f766572666c6f77000000000000000000815250611e38565b60006111fc83836040518060400160405280600e81526020016d646976696465206279207a65726f60901b815250611e80565b6000831580611e45575082155b15611e52575060006111fc565b83830283858281611e5f57fe5b04148390611dba5760405162461bcd60e51b815260040161021e9190612b0e565b60008183611ea15760405162461bcd60e51b815260040161021e9190612b0e565b50828481611eab57fe5b04949350505050565b60405180610140016040528060006001600160a01b0316815260200160008152602001600081526020016000815260200160008152602001600081526020016000815260200160008152602001600081526020016000151581525090565b6040518060200160405280600081525090565b6040518060c001604052806060815260200160008152602001600081526020016000815260200160008152602001600081525090565b604051806102c0016040528060006001600160a01b031681526020016000815260200160008152602001600081526020016000815260200160008152602001600081526020016000815260200160008152602001600081526020016000151581526020016000815260200160006001600160a01b03168152602001600081526020016000815260200160006002811115611ff157fe5b8152602001600081526020016000815260200160001515815260200160001515815260200160008152602001600081525090565b80356101f281612cbd565b80516101f281612cbd565b60008083601f84011261204d57600080fd5b50813567ffffffffffffffff81111561206557600080fd5b60208301915083602082028301111561207d57600080fd5b9250929050565b600082601f83011261209557600080fd5b81356120a86120a382612bc3565b612b9c565b915081818352602084019350602081019050838560208402820111156120cd57600080fd5b60005b838110156120f957816120e3888261217e565b84525060209283019291909101906001016120d0565b5050505092915050565b600082601f83011261211457600080fd5b81516121226120a382612bc3565b9150818183526020840193506020810190508385602084028201111561214757600080fd5b60005b838110156120f9578161215d8882612189565b845250602092830192919091019060010161214a565b80516101f281612cd1565b80356101f281612cda565b80516101f281612cda565b80516101f281612ce3565b600082601f8301126121b057600080fd5b81516121be6120a382612be4565b915080825260208301602083018583830111156121da57600080fd5b6121e5838284612c7a565b50505092915050565b80516101f281612cf0565b80356101f281612cf9565b80516101f281612cf9565b60006020828403121561222157600080fd5b600061042e8484612030565b6000806020838503121561224057600080fd5b823567ffffffffffffffff81111561225757600080fd5b6122638582860161203b565b92509250509250929050565b60006020828403121561228157600080fd5b815167ffffffffffffffff81111561229857600080fd5b61042e84828501612103565b600080604083850312156122b757600080fd5b823567ffffffffffffffff8111156122ce57600080fd5b6122da85828601612084565b92505060206122eb85828601612025565b9150509250929050565b60006020828403121561230757600080fd5b600061042e8484612173565b60008060006060848603121561232857600080fd5b60006123348686612173565b9350506020612345868287016121ee565b925050604061235686828701612194565b9150509250925092565b60006020828403121561237257600080fd5b600061042e848461217e565b6000806040838503121561239157600080fd5b60006122da858561217e565b6000602082840312156123af57600080fd5b600061042e8484612189565b6000602082840312156123cd57600080fd5b815167ffffffffffffffff8111156123e457600080fd5b61042e8482850161219f565b60006020828403121561240257600080fd5b600061042e84846121ee565b60008060006060848603121561242357600080fd5b600061242f86866121ee565b9350506020612440868287016121ee565b9250506040612356868287016121ee565b60006020828403121561246357600080fd5b600061042e8484612204565b6000806000806080858703121561248557600080fd5b600061249187876121f9565b94505060206124a287828801612025565b93505060406124b387828801612025565b92505060606124c487828801612025565b91505092959194509250565b60006124dc8383612624565b505060200190565b60006124f083836127e9565b50506101400190565b600061250583836128b0565b50506102c00190565b61251781612c59565b82525050565b61251781612c1f565b600061253182612c12565b61253b8185612c16565b935061254683612c0c565b8060005b8381101561257457815161255e88826124d0565b975061256983612c0c565b92505060010161254a565b509495945050505050565b600061258a82612c12565b6125948185612c16565b935061259f83612c0c565b8060005b838110156125745781516125b788826124e4565b97506125c283612c0c565b9250506001016125a3565b60006125d882612c12565b6125e28185612c16565b93506125ed83612c0c565b8060005b8381101561257457815161260588826124f9565b975061261083612c0c565b9250506001016125f1565b61251781612c2a565b61251781612c2f565b61251781612c64565b61251781612c6f565b600061264a82612c12565b6126548185612c16565b9350612664818560208601612c7a565b61266d81612ca6565b9093019392505050565b600061268282612c12565b61268c81856111bd565b935061269c818560208601612c7a565b9290920192915050565b60006126b3601383612c16565b7236b4b9b6b0ba31b4103537b2ba3937b63632b960691b815260200192915050565b60006126e2601583612c16565b741c995dd85c99151e5c19481a5cc81a5b9d985b1a59605a1b815260200192915050565b6000612713601b83612c16565b7f43616e277420676574206163636f756e74206c69717569646974790000000000815260200192915050565b600061274c600d83612c16565b6c1a5b9d985b1a59081a5b9c1d5d609a1b815260200192915050565b805160c0808452600091908401906127808282612526565b91505060208301516127956020860182612a69565b5060408301516127a86040860182612a69565b5060608301516127bb6060860182612a69565b5060808301516127ce6080860182612a69565b5060a08301516127e160a0860182612a69565b509392505050565b80516101408301906127fb848261251d565b50602082015161280e6020850182612a69565b5060408201516128216040850182612a69565b5060608201516128346060850182612a69565b5060808201516128476080850182612a69565b5060a082015161285a60a0850182612a69565b5060c082015161286d60c0850182612a69565b5060e082015161288060e0850182612a69565b50610100820151612895610100850182612a69565b506101208201516128aa61012085018261261b565b50505050565b80516102c08301906128c2848261251d565b5060208201516128d56020850182612a69565b5060408201516128e86040850182612a69565b5060608201516128fb6060850182612a69565b50608082015161290e6080850182612a69565b5060a082015161292160a0850182612a69565b5060c082015161293460c0850182612a69565b5060e082015161294760e0850182612a69565b5061010082015161295c610100850182612a69565b50610120820151612971610120850182612a69565b5061014082015161298661014085018261261b565b5061016082015161299b610160850182612a69565b506101808201516129b061018085018261251d565b506101a08201516129c56101a0850182612a69565b506101c08201516129da6101c0850182612a69565b506101e08201516129ef6101e085018261262d565b50610200820151612a04610200850182612a69565b50610220820151612a19610220850182612a69565b50610240820151612a2e61024085018261261b565b50610260820151612a4361026085018261261b565b50610280820151612a58610280850182612a69565b506102a08201516128aa6102a08501825b61251781612c50565b60006111fc8284612677565b602081016101f2828461251d565b602081016101f2828461250e565b60408101612aa8828561251d565b6111fc602083018461251d565b60408101612ac3828561251d565b6111fc6020830184612624565b602080825281016111fc818461257f565b602080825281016111fc81846125cd565b602081016101f28284612624565b60408101612aa88285612636565b602080825281016111fc818461263f565b602080825281016101f2816126a6565b602080825281016101f2816126d5565b602080825281016101f281612706565b602080825281016101f28161273f565b602080825281016111fc8184612768565b61014081016101f282846127e9565b6102c081016101f282846128b0565b602081016101f28284612a69565b60405181810167ffffffffffffffff81118282101715612bbb57600080fd5b604052919050565b600067ffffffffffffffff821115612bda57600080fd5b5060209081020190565b600067ffffffffffffffff821115612bfb57600080fd5b506020601f91909101601f19160190565b60200190565b5190565b90815260200190565b60006101f282612c44565b151590565b60006101f282612c1f565b806111bd81612cb0565b6001600160a01b031690565b90565b60ff1690565b60006101f282612c2f565b60006101f282612c3a565b60006101f282612c53565b60005b83811015612c95578181015183820152602001612c7d565b838111156128aa5750506000910152565b601f01601f191690565b60038110612cba57fe5b50565b612cc681612c1f565b8114612cba57600080fd5b612cc681612c2a565b612cc681612c2f565b60038110612cba57600080fd5b612cc681612c50565b612cc681612c5356fea365627a7a72315820b0c5901c60d5b093fda775abd125e6a934f17b0ab1c5821794874ad977816a166c6578706572696d656e74616cf564736f6c63430005100040",
  "devdoc": {
    "details": "Call these functions as dry-run transactions for the frontend.",
    "methods": {}
  },
  "userdoc": {
    "methods": {},
    "notice": "This is a version of JoeLens that contains write transactions."
  },
  "storageLayout": {
    "storage": [
      {
        "astId": 21501,
        "contract": "contracts/Lens/JoeLens.sol:JoeLens",
        "label": "nativeSymbol",
        "offset": 0,
        "slot": "0",
        "type": "t_string_storage"
      }
    ],
    "types": {
      "t_string_storage": {
        "encoding": "bytes",
        "label": "string",
        "numberOfBytes": "32"
      }
    }
  }
}