{
  "address": "0x2ED5cdA38f295A50f59974eD75a6b46269Ff11Bd",
  "abi": [
    {
      "inputs": [],
      "payable": false,
      "stateMutability": "nonpayable",
      "type": "constructor"
    },
    {
      "anonymous": false,
      "inputs": [
        {
          "indexed": false,
          "internalType": "uint256",
          "name": "cashPrior",
          "type": "uint256"
        },
        {
          "indexed": false,
          "internalType": "uint256",
          "name": "interestAccumulated",
          "type": "uint256"
        },
        {
          "indexed": false,
          "internalType": "uint256",
          "name": "borrowIndex",
          "type": "uint256"
        },
        {
          "indexed": false,
          "internalType": "uint256",
          "name": "totalBorrows",
          "type": "uint256"
        }
      ],
      "name": "AccrueInterest",
      "type": "event"
    },
    {
      "anonymous": false,
      "inputs": [
        {
          "indexed": true,
          "internalType": "address",
          "name": "owner",
          "type": "address"
        },
        {
          "indexed": true,
          "internalType": "address",
          "name": "spender",
          "type": "address"
        },
        {
          "indexed": false,
          "internalType": "uint256",
          "name": "amount",
          "type": "uint256"
        }
      ],
      "name": "Approval",
      "type": "event"
    },
    {
      "anonymous": false,
      "inputs": [
        {
          "indexed": false,
          "internalType": "address",
          "name": "borrower",
          "type": "address"
        },
        {
          "indexed": false,
          "internalType": "uint256",
          "name": "borrowAmount",
          "type": "uint256"
        },
        {
          "indexed": false,
          "internalType": "uint256",
          "name": "accountBorrows",
          "type": "uint256"
        },
        {
          "indexed": false,
          "internalType": "uint256",
          "name": "totalBorrows",
          "type": "uint256"
        }
      ],
      "name": "Borrow",
      "type": "event"
    },
    {
      "anonymous": false,
      "inputs": [
        {
          "indexed": false,
          "internalType": "uint256",
          "name": "error",
          "type": "uint256"
        },
        {
          "indexed": false,
          "internalType": "uint256",
          "name": "info",
          "type": "uint256"
        },
        {
          "indexed": false,
          "internalType": "uint256",
          "name": "detail",
          "type": "uint256"
        }
      ],
      "name": "Failure",
      "type": "event"
    },
    {
      "anonymous": false,
      "inputs": [
        {
          "indexed": true,
          "internalType": "address",
          "name": "receiver",
          "type": "address"
        },
        {
          "indexed": false,
          "internalType": "uint256",
          "name": "amount",
          "type": "uint256"
        },
        {
          "indexed": false,
          "internalType": "uint256",
          "name": "totalFee",
          "type": "uint256"
        },
        {
          "indexed": false,
          "internalType": "uint256",
          "name": "reservesFee",
          "type": "uint256"
        }
      ],
      "name": "Flashloan",
      "type": "event"
    },
    {
      "anonymous": false,
      "inputs": [
        {
          "indexed": false,
          "internalType": "address",
          "name": "liquidator",
          "type": "address"
        },
        {
          "indexed": false,
          "internalType": "address",
          "name": "borrower",
          "type": "address"
        },
        {
          "indexed": false,
          "internalType": "uint256",
          "name": "repayAmount",
          "type": "uint256"
        },
        {
          "indexed": false,
          "internalType": "address",
          "name": "jTokenCollateral",
          "type": "address"
        },
        {
          "indexed": false,
          "internalType": "uint256",
          "name": "seizeTokens",
          "type": "uint256"
        }
      ],
      "name": "LiquidateBorrow",
      "type": "event"
    },
    {
      "anonymous": false,
      "inputs": [
        {
          "indexed": false,
          "internalType": "address",
          "name": "minter",
          "type": "address"
        },
        {
          "indexed": false,
          "internalType": "uint256",
          "name": "mintAmount",
          "type": "uint256"
        },
        {
          "indexed": false,
          "internalType": "uint256",
          "name": "mintTokens",
          "type": "uint256"
        }
      ],
      "name": "Mint",
      "type": "event"
    },
    {
      "anonymous": false,
      "inputs": [
        {
          "indexed": false,
          "internalType": "address",
          "name": "oldAdmin",
          "type": "address"
        },
        {
          "indexed": false,
          "internalType": "address",
          "name": "newAdmin",
          "type": "address"
        }
      ],
      "name": "NewAdmin",
      "type": "event"
    },
    {
      "anonymous": false,
      "inputs": [
        {
          "indexed": false,
          "internalType": "address",
          "name": "token",
          "type": "address"
        },
        {
          "indexed": false,
          "internalType": "uint256",
          "name": "newCap",
          "type": "uint256"
        }
      ],
      "name": "NewCollateralCap",
      "type": "event"
    },
    {
      "anonymous": false,
      "inputs": [
        {
          "indexed": false,
          "internalType": "contract JoetrollerInterface",
          "name": "oldJoetroller",
          "type": "address"
        },
        {
          "indexed": false,
          "internalType": "contract JoetrollerInterface",
          "name": "newJoetroller",
          "type": "address"
        }
      ],
      "name": "NewJoetroller",
      "type": "event"
    },
    {
      "anonymous": false,
      "inputs": [
        {
          "indexed": false,
          "internalType": "contract InterestRateModel",
          "name": "oldInterestRateModel",
          "type": "address"
        },
        {
          "indexed": false,
          "internalType": "contract InterestRateModel",
          "name": "newInterestRateModel",
          "type": "address"
        }
      ],
      "name": "NewMarketInterestRateModel",
      "type": "event"
    },
    {
      "anonymous": false,
      "inputs": [
        {
          "indexed": false,
          "internalType": "address",
          "name": "oldPendingAdmin",
          "type": "address"
        },
        {
          "indexed": false,
          "internalType": "address",
          "name": "newPendingAdmin",
          "type": "address"
        }
      ],
      "name": "NewPendingAdmin",
      "type": "event"
    },
    {
      "anonymous": false,
      "inputs": [
        {
          "indexed": false,
          "internalType": "uint256",
          "name": "oldProtocolSeizeShareMantissa",
          "type": "uint256"
        },
        {
          "indexed": false,
          "internalType": "uint256",
          "name": "newProtocolSeizeShareMantissa",
          "type": "uint256"
        }
      ],
      "name": "NewProtocolSeizeShare",
      "type": "event"
    },
    {
      "anonymous": false,
      "inputs": [
        {
          "indexed": false,
          "internalType": "uint256",
          "name": "oldReserveFactorMantissa",
          "type": "uint256"
        },
        {
          "indexed": false,
          "internalType": "uint256",
          "name": "newReserveFactorMantissa",
          "type": "uint256"
        }
      ],
      "name": "NewReserveFactor",
      "type": "event"
    },
    {
      "anonymous": false,
      "inputs": [
        {
          "indexed": false,
          "internalType": "address",
          "name": "redeemer",
          "type": "address"
        },
        {
          "indexed": false,
          "internalType": "uint256",
          "name": "redeemAmount",
          "type": "uint256"
        },
        {
          "indexed": false,
          "internalType": "uint256",
          "name": "redeemTokens",
          "type": "uint256"
        }
      ],
      "name": "Redeem",
      "type": "event"
    },
    {
      "anonymous": false,
      "inputs": [
        {
          "indexed": false,
          "internalType": "address",
          "name": "payer",
          "type": "address"
        },
        {
          "indexed": false,
          "internalType": "address",
          "name": "borrower",
          "type": "address"
        },
        {
          "indexed": false,
          "internalType": "uint256",
          "name": "repayAmount",
          "type": "uint256"
        },
        {
          "indexed": false,
          "internalType": "uint256",
          "name": "accountBorrows",
          "type": "uint256"
        },
        {
          "indexed": false,
          "internalType": "uint256",
          "name": "totalBorrows",
          "type": "uint256"
        }
      ],
      "name": "RepayBorrow",
      "type": "event"
    },
    {
      "anonymous": false,
      "inputs": [
        {
          "indexed": false,
          "internalType": "address",
          "name": "benefactor",
          "type": "address"
        },
        {
          "indexed": false,
          "internalType": "uint256",
          "name": "addAmount",
          "type": "uint256"
        },
        {
          "indexed": false,
          "internalType": "uint256",
          "name": "newTotalReserves",
          "type": "uint256"
        }
      ],
      "name": "ReservesAdded",
      "type": "event"
    },
    {
      "anonymous": false,
      "inputs": [
        {
          "indexed": false,
          "internalType": "address",
          "name": "admin",
          "type": "address"
        },
        {
          "indexed": false,
          "internalType": "uint256",
          "name": "reduceAmount",
          "type": "uint256"
        },
        {
          "indexed": false,
          "internalType": "uint256",
          "name": "newTotalReserves",
          "type": "uint256"
        }
      ],
      "name": "ReservesReduced",
      "type": "event"
    },
    {
      "anonymous": false,
      "inputs": [
        {
          "indexed": true,
          "internalType": "address",
          "name": "from",
          "type": "address"
        },
        {
          "indexed": true,
          "internalType": "address",
          "name": "to",
          "type": "address"
        },
        {
          "indexed": false,
          "internalType": "uint256",
          "name": "amount",
          "type": "uint256"
        }
      ],
      "name": "Transfer",
      "type": "event"
    },
    {
      "anonymous": false,
      "inputs": [
        {
          "indexed": false,
          "internalType": "address",
          "name": "account",
          "type": "address"
        },
        {
          "indexed": false,
          "internalType": "uint256",
          "name": "newCollateralTokens",
          "type": "uint256"
        }
      ],
      "name": "UserCollateralChanged",
      "type": "event"
    },
    {
      "constant": false,
      "inputs": [],
      "name": "_acceptAdmin",
      "outputs": [
        {
          "internalType": "uint256",
          "name": "",
          "type": "uint256"
        }
      ],
      "payable": false,
      "stateMutability": "nonpayable",
      "type": "function"
    },
    {
      "constant": false,
      "inputs": [
        {
          "internalType": "uint256",
          "name": "addAmount",
          "type": "uint256"
        }
      ],
      "name": "_addReserves",
      "outputs": [
        {
          "internalType": "uint256",
          "name": "",
          "type": "uint256"
        }
      ],
      "payable": false,
      "stateMutability": "nonpayable",
      "type": "function"
    },
    {
      "constant": false,
      "inputs": [
        {
          "internalType": "bytes",
          "name": "data",
          "type": "bytes"
        }
      ],
      "name": "_becomeImplementation",
      "outputs": [],
      "payable": false,
      "stateMutability": "nonpayable",
      "type": "function"
    },
    {
      "constant": false,
      "inputs": [
        {
          "internalType": "uint256",
          "name": "reduceAmount",
          "type": "uint256"
        }
      ],
      "name": "_reduceReserves",
      "outputs": [
        {
          "internalType": "uint256",
          "name": "",
          "type": "uint256"
        }
      ],
      "payable": false,
      "stateMutability": "nonpayable",
      "type": "function"
    },
    {
      "constant": false,
      "inputs": [],
      "name": "_resignImplementation",
      "outputs": [],
      "payable": false,
      "stateMutability": "nonpayable",
      "type": "function"
    },
    {
      "constant": false,
      "inputs": [
        {
          "internalType": "uint256",
          "name": "newCollateralCap",
          "type": "uint256"
        }
      ],
      "name": "_setCollateralCap",
      "outputs": [],
      "payable": false,
      "stateMutability": "nonpayable",
      "type": "function"
    },
    {
      "constant": false,
      "inputs": [
        {
          "internalType": "contract InterestRateModel",
          "name": "newInterestRateModel",
          "type": "address"
        }
      ],
      "name": "_setInterestRateModel",
      "outputs": [
        {
          "internalType": "uint256",
          "name": "",
          "type": "uint256"
        }
      ],
      "payable": false,
      "stateMutability": "nonpayable",
      "type": "function"
    },
    {
      "constant": false,
      "inputs": [
        {
          "internalType": "contract JoetrollerInterface",
          "name": "newJoetroller",
          "type": "address"
        }
      ],
      "name": "_setJoetroller",
      "outputs": [
        {
          "internalType": "uint256",
          "name": "",
          "type": "uint256"
        }
      ],
      "payable": false,
      "stateMutability": "nonpayable",
      "type": "function"
    },
    {
      "constant": false,
      "inputs": [
        {
          "internalType": "address payable",
          "name": "newPendingAdmin",
          "type": "address"
        }
      ],
      "name": "_setPendingAdmin",
      "outputs": [
        {
          "internalType": "uint256",
          "name": "",
          "type": "uint256"
        }
      ],
      "payable": false,
      "stateMutability": "nonpayable",
      "type": "function"
    },
    {
      "constant": false,
      "inputs": [
        {
          "internalType": "uint256",
          "name": "newProtocolSeizeShareMantissa",
          "type": "uint256"
        }
      ],
      "name": "_setProtocolSeizeShare",
      "outputs": [
        {
          "internalType": "uint256",
          "name": "",
          "type": "uint256"
        }
      ],
      "payable": false,
      "stateMutability": "nonpayable",
      "type": "function"
    },
    {
      "constant": false,
      "inputs": [
        {
          "internalType": "uint256",
          "name": "newReserveFactorMantissa",
          "type": "uint256"
        }
      ],
      "name": "_setReserveFactor",
      "outputs": [
        {
          "internalType": "uint256",
          "name": "",
          "type": "uint256"
        }
      ],
      "payable": false,
      "stateMutability": "nonpayable",
      "type": "function"
    },
    {
      "constant": true,
      "inputs": [
        {
          "internalType": "address",
          "name": "",
          "type": "address"
        }
      ],
      "name": "accountCollateralTokens",
      "outputs": [
        {
          "internalType": "uint256",
          "name": "",
          "type": "uint256"
        }
      ],
      "payable": false,
      "stateMutability": "view",
      "type": "function"
    },
    {
      "constant": true,
      "inputs": [],
      "name": "accrualBlockTimestamp",
      "outputs": [
        {
          "internalType": "uint256",
          "name": "",
          "type": "uint256"
        }
      ],
      "payable": false,
      "stateMutability": "view",
      "type": "function"
    },
    {
      "constant": false,
      "inputs": [],
      "name": "accrueInterest",
      "outputs": [
        {
          "internalType": "uint256",
          "name": "",
          "type": "uint256"
        }
      ],
      "payable": false,
      "stateMutability": "nonpayable",
      "type": "function"
    },
    {
      "constant": true,
      "inputs": [],
      "name": "admin",
      "outputs": [
        {
          "internalType": "address payable",
          "name": "",
          "type": "address"
        }
      ],
      "payable": false,
      "stateMutability": "view",
      "type": "function"
    },
    {
      "constant": true,
      "inputs": [
        {
          "internalType": "address",
          "name": "owner",
          "type": "address"
        },
        {
          "internalType": "address",
          "name": "spender",
          "type": "address"
        }
      ],
      "name": "allowance",
      "outputs": [
        {
          "internalType": "uint256",
          "name": "",
          "type": "uint256"
        }
      ],
      "payable": false,
      "stateMutability": "view",
      "type": "function"
    },
    {
      "constant": false,
      "inputs": [
        {
          "internalType": "address",
          "name": "spender",
          "type": "address"
        },
        {
          "internalType": "uint256",
          "name": "amount",
          "type": "uint256"
        }
      ],
      "name": "approve",
      "outputs": [
        {
          "internalType": "bool",
          "name": "",
          "type": "bool"
        }
      ],
      "payable": false,
      "stateMutability": "nonpayable",
      "type": "function"
    },
    {
      "constant": true,
      "inputs": [
        {
          "internalType": "address",
          "name": "owner",
          "type": "address"
        }
      ],
      "name": "balanceOf",
      "outputs": [
        {
          "internalType": "uint256",
          "name": "",
          "type": "uint256"
        }
      ],
      "payable": false,
      "stateMutability": "view",
      "type": "function"
    },
    {
      "constant": false,
      "inputs": [
        {
          "internalType": "address",
          "name": "owner",
          "type": "address"
        }
      ],
      "name": "balanceOfUnderlying",
      "outputs": [
        {
          "internalType": "uint256",
          "name": "",
          "type": "uint256"
        }
      ],
      "payable": false,
      "stateMutability": "nonpayable",
      "type": "function"
    },
    {
      "constant": false,
      "inputs": [
        {
          "internalType": "uint256",
          "name": "borrowAmount",
          "type": "uint256"
        }
      ],
      "name": "borrow",
      "outputs": [
        {
          "internalType": "uint256",
          "name": "",
          "type": "uint256"
        }
      ],
      "payable": false,
      "stateMutability": "nonpayable",
      "type": "function"
    },
    {
      "constant": false,
      "inputs": [
        {
          "internalType": "address",
          "name": "account",
          "type": "address"
        }
      ],
      "name": "borrowBalanceCurrent",
      "outputs": [
        {
          "internalType": "uint256",
          "name": "",
          "type": "uint256"
        }
      ],
      "payable": false,
      "stateMutability": "nonpayable",
      "type": "function"
    },
    {
      "constant": true,
      "inputs": [
        {
          "internalType": "address",
          "name": "account",
          "type": "address"
        }
      ],
      "name": "borrowBalanceStored",
      "outputs": [
        {
          "internalType": "uint256",
          "name": "",
          "type": "uint256"
        }
      ],
      "payable": false,
      "stateMutability": "view",
      "type": "function"
    },
    {
      "constant": true,
      "inputs": [],
      "name": "borrowIndex",
      "outputs": [
        {
          "internalType": "uint256",
          "name": "",
          "type": "uint256"
        }
      ],
      "payable": false,
      "stateMutability": "view",
      "type": "function"
    },
    {
      "constant": true,
      "inputs": [],
      "name": "borrowRatePerSecond",
      "outputs": [
        {
          "internalType": "uint256",
          "name": "",
          "type": "uint256"
        }
      ],
      "payable": false,
      "stateMutability": "view",
      "type": "function"
    },
    {
      "constant": true,
      "inputs": [],
      "name": "collateralCap",
      "outputs": [
        {
          "internalType": "uint256",
          "name": "",
          "type": "uint256"
        }
      ],
      "payable": false,
      "stateMutability": "view",
      "type": "function"
    },
    {
      "constant": true,
      "inputs": [],
      "name": "decimals",
      "outputs": [
        {
          "internalType": "uint8",
          "name": "",
          "type": "uint8"
        }
      ],
      "payable": false,
      "stateMutability": "view",
      "type": "function"
    },
    {
      "constant": true,
      "inputs": [
        {
          "internalType": "uint256",
          "name": "change",
          "type": "uint256"
        },
        {
          "internalType": "bool",
          "name": "repay",
          "type": "bool"
        }
      ],
      "name": "estimateBorrowRatePerSecondAfterChange",
      "outputs": [
        {
          "internalType": "uint256",
          "name": "",
          "type": "uint256"
        }
      ],
      "payable": false,
      "stateMutability": "view",
      "type": "function"
    },
    {
      "constant": true,
      "inputs": [
        {
          "internalType": "uint256",
          "name": "change",
          "type": "uint256"
        },
        {
          "internalType": "bool",
          "name": "repay",
          "type": "bool"
        }
      ],
      "name": "estimateSupplyRatePerSecondAfterChange",
      "outputs": [
        {
          "internalType": "uint256",
          "name": "",
          "type": "uint256"
        }
      ],
      "payable": false,
      "stateMutability": "view",
      "type": "function"
    },
    {
      "constant": false,
      "inputs": [],
      "name": "exchangeRateCurrent",
      "outputs": [
        {
          "internalType": "uint256",
          "name": "",
          "type": "uint256"
        }
      ],
      "payable": false,
      "stateMutability": "nonpayable",
      "type": "function"
    },
    {
      "constant": true,
      "inputs": [],
      "name": "exchangeRateStored",
      "outputs": [
        {
          "internalType": "uint256",
          "name": "",
          "type": "uint256"
        }
      ],
      "payable": false,
      "stateMutability": "view",
      "type": "function"
    },
    {
      "constant": true,
      "inputs": [
        {
          "internalType": "uint256",
          "name": "amount",
          "type": "uint256"
        }
      ],
      "name": "flashFee",
      "outputs": [
        {
          "internalType": "uint256",
          "name": "",
          "type": "uint256"
        }
      ],
      "payable": false,
      "stateMutability": "view",
      "type": "function"
    },
    {
      "constant": true,
      "inputs": [],
      "name": "flashFeeBips",
      "outputs": [
        {
          "internalType": "uint256",
          "name": "",
          "type": "uint256"
        }
      ],
      "payable": false,
      "stateMutability": "view",
      "type": "function"
    },
    {
      "constant": false,
      "inputs": [
        {
          "internalType": "contract ERC3156FlashBorrowerInterface",
          "name": "receiver",
          "type": "address"
        },
        {
          "internalType": "address",
          "name": "initiator",
          "type": "address"
        },
        {
          "internalType": "uint256",
          "name": "amount",
          "type": "uint256"
        },
        {
          "internalType": "bytes",
          "name": "data",
          "type": "bytes"
        }
      ],
      "name": "flashLoan",
      "outputs": [
        {
          "internalType": "bool",
          "name": "",
          "type": "bool"
        }
      ],
      "payable": false,
      "stateMutability": "nonpayable",
      "type": "function"
    },
    {
      "constant": true,
      "inputs": [
        {
          "internalType": "address",
          "name": "account",
          "type": "address"
        }
      ],
      "name": "getAccountSnapshot",
      "outputs": [
        {
          "internalType": "uint256",
          "name": "",
          "type": "uint256"
        },
        {
          "internalType": "uint256",
          "name": "",
          "type": "uint256"
        },
        {
          "internalType": "uint256",
          "name": "",
          "type": "uint256"
        },
        {
          "internalType": "uint256",
          "name": "",
          "type": "uint256"
        }
      ],
      "payable": false,
      "stateMutability": "view",
      "type": "function"
    },
    {
      "constant": true,
      "inputs": [],
      "name": "getCash",
      "outputs": [
        {
          "internalType": "uint256",
          "name": "",
          "type": "uint256"
        }
      ],
      "payable": false,
      "stateMutability": "view",
      "type": "function"
    },
    {
      "constant": false,
      "inputs": [],
      "name": "gulp",
      "outputs": [],
      "payable": false,
      "stateMutability": "nonpayable",
      "type": "function"
    },
    {
      "constant": true,
      "inputs": [],
      "name": "implementation",
      "outputs": [
        {
          "internalType": "address",
          "name": "",
          "type": "address"
        }
      ],
      "payable": false,
      "stateMutability": "view",
      "type": "function"
    },
    {
      "constant": false,
      "inputs": [
        {
          "internalType": "address",
          "name": "underlying_",
          "type": "address"
        },
        {
          "internalType": "contract JoetrollerInterface",
          "name": "joetroller_",
          "type": "address"
        },
        {
          "internalType": "contract InterestRateModel",
          "name": "interestRateModel_",
          "type": "address"
        },
        {
          "internalType": "uint256",
          "name": "initialExchangeRateMantissa_",
          "type": "uint256"
        },
        {
          "internalType": "string",
          "name": "name_",
          "type": "string"
        },
        {
          "internalType": "string",
          "name": "symbol_",
          "type": "string"
        },
        {
          "internalType": "uint8",
          "name": "decimals_",
          "type": "uint8"
        }
      ],
      "name": "initialize",
      "outputs": [],
      "payable": false,
      "stateMutability": "nonpayable",
      "type": "function"
    },
    {
      "constant": false,
      "inputs": [
        {
          "internalType": "contract JoetrollerInterface",
          "name": "joetroller_",
          "type": "address"
        },
        {
          "internalType": "contract InterestRateModel",
          "name": "interestRateModel_",
          "type": "address"
        },
        {
          "internalType": "uint256",
          "name": "initialExchangeRateMantissa_",
          "type": "uint256"
        },
        {
          "internalType": "string",
          "name": "name_",
          "type": "string"
        },
        {
          "internalType": "string",
          "name": "symbol_",
          "type": "string"
        },
        {
          "internalType": "uint8",
          "name": "decimals_",
          "type": "uint8"
        }
      ],
      "name": "initialize",
      "outputs": [],
      "payable": false,
      "stateMutability": "nonpayable",
      "type": "function"
    },
    {
      "constant": true,
      "inputs": [],
      "name": "interestRateModel",
      "outputs": [
        {
          "internalType": "contract InterestRateModel",
          "name": "",
          "type": "address"
        }
      ],
      "payable": false,
      "stateMutability": "view",
      "type": "function"
    },
    {
      "constant": true,
      "inputs": [],
      "name": "internalCash",
      "outputs": [
        {
          "internalType": "uint256",
          "name": "",
          "type": "uint256"
        }
      ],
      "payable": false,
      "stateMutability": "view",
      "type": "function"
    },
    {
      "constant": true,
      "inputs": [
        {
          "internalType": "address",
          "name": "",
          "type": "address"
        }
      ],
      "name": "isCollateralTokenInit",
      "outputs": [
        {
          "internalType": "bool",
          "name": "",
          "type": "bool"
        }
      ],
      "payable": false,
      "stateMutability": "view",
      "type": "function"
    },
    {
      "constant": true,
      "inputs": [],
      "name": "isJToken",
      "outputs": [
        {
          "internalType": "bool",
          "name": "",
          "type": "bool"
        }
      ],
      "payable": false,
      "stateMutability": "view",
      "type": "function"
    },
    {
      "constant": true,
      "inputs": [],
      "name": "joetroller",
      "outputs": [
        {
          "internalType": "contract JoetrollerInterface",
          "name": "",
          "type": "address"
        }
      ],
      "payable": false,
      "stateMutability": "view",
      "type": "function"
    },
    {
      "constant": false,
      "inputs": [
        {
          "internalType": "address",
          "name": "borrower",
          "type": "address"
        },
        {
          "internalType": "uint256",
          "name": "repayAmount",
          "type": "uint256"
        },
        {
          "internalType": "contract JTokenInterface",
          "name": "jTokenCollateral",
          "type": "address"
        }
      ],
      "name": "liquidateBorrow",
      "outputs": [
        {
          "internalType": "uint256",
          "name": "",
          "type": "uint256"
        }
      ],
      "payable": false,
      "stateMutability": "nonpayable",
      "type": "function"
    },
    {
      "constant": true,
      "inputs": [],
      "name": "maxFlashLoan",
      "outputs": [
        {
          "internalType": "uint256",
          "name": "",
          "type": "uint256"
        }
      ],
      "payable": false,
      "stateMutability": "view",
      "type": "function"
    },
    {
      "constant": false,
      "inputs": [
        {
          "internalType": "uint256",
          "name": "mintAmount",
          "type": "uint256"
        }
      ],
      "name": "mint",
      "outputs": [
        {
          "internalType": "uint256",
          "name": "",
          "type": "uint256"
        }
      ],
      "payable": false,
      "stateMutability": "nonpayable",
      "type": "function"
    },
    {
      "constant": true,
      "inputs": [],
      "name": "name",
      "outputs": [
        {
          "internalType": "string",
          "name": "",
          "type": "string"
        }
      ],
      "payable": false,
      "stateMutability": "view",
      "type": "function"
    },
    {
      "constant": true,
      "inputs": [],
      "name": "pendingAdmin",
      "outputs": [
        {
          "internalType": "address payable",
          "name": "",
          "type": "address"
        }
      ],
      "payable": false,
      "stateMutability": "view",
      "type": "function"
    },
    {
      "constant": true,
      "inputs": [],
      "name": "protocolSeizeShareMantissa",
      "outputs": [
        {
          "internalType": "uint256",
          "name": "",
          "type": "uint256"
        }
      ],
      "payable": false,
      "stateMutability": "view",
      "type": "function"
    },
    {
      "constant": false,
      "inputs": [
        {
          "internalType": "uint256",
          "name": "redeemTokens",
          "type": "uint256"
        }
      ],
      "name": "redeem",
      "outputs": [
        {
          "internalType": "uint256",
          "name": "",
          "type": "uint256"
        }
      ],
      "payable": false,
      "stateMutability": "nonpayable",
      "type": "function"
    },
    {
      "constant": false,
      "inputs": [
        {
          "internalType": "uint256",
          "name": "redeemAmount",
          "type": "uint256"
        }
      ],
      "name": "redeemUnderlying",
      "outputs": [
        {
          "internalType": "uint256",
          "name": "",
          "type": "uint256"
        }
      ],
      "payable": false,
      "stateMutability": "nonpayable",
      "type": "function"
    },
    {
      "constant": false,
      "inputs": [
        {
          "internalType": "address",
          "name": "account",
          "type": "address"
        }
      ],
      "name": "registerCollateral",
      "outputs": [
        {
          "internalType": "uint256",
          "name": "",
          "type": "uint256"
        }
      ],
      "payable": false,
      "stateMutability": "nonpayable",
      "type": "function"
    },
    {
      "constant": false,
      "inputs": [
        {
          "internalType": "uint256",
          "name": "repayAmount",
          "type": "uint256"
        }
      ],
      "name": "repayBorrow",
      "outputs": [
        {
          "internalType": "uint256",
          "name": "",
          "type": "uint256"
        }
      ],
      "payable": false,
      "stateMutability": "nonpayable",
      "type": "function"
    },
    {
      "constant": false,
      "inputs": [
        {
          "internalType": "address",
          "name": "borrower",
          "type": "address"
        },
        {
          "internalType": "uint256",
          "name": "repayAmount",
          "type": "uint256"
        }
      ],
      "name": "repayBorrowBehalf",
      "outputs": [
        {
          "internalType": "uint256",
          "name": "",
          "type": "uint256"
        }
      ],
      "payable": false,
      "stateMutability": "nonpayable",
      "type": "function"
    },
    {
      "constant": true,
      "inputs": [],
      "name": "reserveFactorMantissa",
      "outputs": [
        {
          "internalType": "uint256",
          "name": "",
          "type": "uint256"
        }
      ],
      "payable": false,
      "stateMutability": "view",
      "type": "function"
    },
    {
      "constant": false,
      "inputs": [
        {
          "internalType": "uint256",
          "name": "amount",
          "type": "uint256"
        }
      ],
      "name": "reset",
      "outputs": [],
      "payable": false,
      "stateMutability": "nonpayable",
      "type": "function"
    },
    {
      "constant": false,
      "inputs": [
        {
          "internalType": "address",
          "name": "liquidator",
          "type": "address"
        },
        {
          "internalType": "address",
          "name": "borrower",
          "type": "address"
        },
        {
          "internalType": "uint256",
          "name": "seizeTokens",
          "type": "uint256"
        }
      ],
      "name": "seize",
      "outputs": [
        {
          "internalType": "uint256",
          "name": "",
          "type": "uint256"
        }
      ],
      "payable": false,
      "stateMutability": "nonpayable",
      "type": "function"
    },
    {
      "constant": true,
      "inputs": [],
      "name": "supplyRatePerSecond",
      "outputs": [
        {
          "internalType": "uint256",
          "name": "",
          "type": "uint256"
        }
      ],
      "payable": false,
      "stateMutability": "view",
      "type": "function"
    },
    {
      "constant": true,
      "inputs": [],
      "name": "symbol",
      "outputs": [
        {
          "internalType": "string",
          "name": "",
          "type": "string"
        }
      ],
      "payable": false,
      "stateMutability": "view",
      "type": "function"
    },
    {
      "constant": true,
      "inputs": [],
      "name": "totalBorrows",
      "outputs": [
        {
          "internalType": "uint256",
          "name": "",
          "type": "uint256"
        }
      ],
      "payable": false,
      "stateMutability": "view",
      "type": "function"
    },
    {
      "constant": false,
      "inputs": [],
      "name": "totalBorrowsCurrent",
      "outputs": [
        {
          "internalType": "uint256",
          "name": "",
          "type": "uint256"
        }
      ],
      "payable": false,
      "stateMutability": "nonpayable",
      "type": "function"
    },
    {
      "constant": true,
      "inputs": [],
      "name": "totalCollateralTokens",
      "outputs": [
        {
          "internalType": "uint256",
          "name": "",
          "type": "uint256"
        }
      ],
      "payable": false,
      "stateMutability": "view",
      "type": "function"
    },
    {
      "constant": true,
      "inputs": [],
      "name": "totalReserves",
      "outputs": [
        {
          "internalType": "uint256",
          "name": "",
          "type": "uint256"
        }
      ],
      "payable": false,
      "stateMutability": "view",
      "type": "function"
    },
    {
      "constant": true,
      "inputs": [],
      "name": "totalSupply",
      "outputs": [
        {
          "internalType": "uint256",
          "name": "",
          "type": "uint256"
        }
      ],
      "payable": false,
      "stateMutability": "view",
      "type": "function"
    },
    {
      "constant": false,
      "inputs": [
        {
          "internalType": "address",
          "name": "dst",
          "type": "address"
        },
        {
          "internalType": "uint256",
          "name": "amount",
          "type": "uint256"
        }
      ],
      "name": "transfer",
      "outputs": [
        {
          "internalType": "bool",
          "name": "",
          "type": "bool"
        }
      ],
      "payable": false,
      "stateMutability": "nonpayable",
      "type": "function"
    },
    {
      "constant": false,
      "inputs": [
        {
          "internalType": "address",
          "name": "src",
          "type": "address"
        },
        {
          "internalType": "address",
          "name": "dst",
          "type": "address"
        },
        {
          "internalType": "uint256",
          "name": "amount",
          "type": "uint256"
        }
      ],
      "name": "transferFrom",
      "outputs": [
        {
          "internalType": "bool",
          "name": "",
          "type": "bool"
        }
      ],
      "payable": false,
      "stateMutability": "nonpayable",
      "type": "function"
    },
    {
      "constant": true,
      "inputs": [],
      "name": "underlying",
      "outputs": [
        {
          "internalType": "address",
          "name": "",
          "type": "address"
        }
      ],
      "payable": false,
      "stateMutability": "view",
      "type": "function"
    },
    {
      "constant": false,
      "inputs": [
        {
          "internalType": "address",
          "name": "account",
          "type": "address"
        }
      ],
      "name": "unregisterCollateral",
      "outputs": [],
      "payable": false,
      "stateMutability": "nonpayable",
      "type": "function"
    }
  ],
  "transactionHash": "0x6ce2b2ef4a02ed8b63f65e1e16857ae3833527c8028dc43a14843179534bead5",
  "args": [],
  "solcInputHash": "7039535bc1481e291b5d4fc9c89f8c47",
  "bytecode": "0x608060405234801561001057600080fd5b50615c9e80620000216000396000f3fe608060405234801561001057600080fd5b50600436106104075760003560e01c806373acee9811610220578063b1d3897411610130578063db006a75116100b8578063f2b3abbd11610087578063f2b3abbd14610e10578063f3fdb15a14610e36578063f5e3c46214610e3e578063f851a44014610e74578063fca7820b14610e7c57610407565b8063db006a7514610db5578063dd62ed3e14610dd2578063e9c714f214610e00578063ea11eea414610e0857610407565b8063c37f68e2116100ff578063c37f68e214610d16578063c5ebeaec14610d62578063cfa9920114610d7f578063d240d64a14610d87578063d2bb18e914610dad57610407565b8063b1d3897414610caa578063b2a02ff114610cb2578063b71d1a0c14610ce8578063bd6d894d14610d0e57610407565b806394909e62116101b3578063a0712d6811610182578063a0712d6814610c34578063a6afed9514610c51578063a7af467a14610c59578063a9059cbb14610c76578063aa5af0fd14610ca257610407565b806394909e6214610ab057806395d89b4114610ab857806395dd919314610ac057806399d8c1b414610ae657610407565b806385d8a2e6116101ef57806385d8a2e614610a365780638897bd8514610a5c5780638b35776b14610a825780638f840ddd14610aa857610407565b806373acee98146109d757806381cf00eb146109df57806383030846146109fc578063852a12e314610a1957610407565b8063313ce5671161031b57806352609750116102ae578063601a0bf11161027d578063601a0bf11461097c5780636330533c146109995780636752e702146109a15780636f307dc3146109a957806370a08231146109b157610407565b8063526097501461083a57806356e67728146108425780635c60da1b146108e65780635cffe9de146108ee57610407565b8063406de0b6116102ea578063406de0b6146107df578063432f4b2d146107e757806347bd37181461080d57806350f6e0821461081557610407565b8063313ce567146107765780633af9e669146107945780633b1d21a2146107ba5780633e941010146107c257610407565b8063182df0f51161039e57806323b872dd1161036d57806323b872dd146106cb578063242c127c146107015780632608f818146107095780632678224714610735578063310bd74b1461075957610407565b8063182df0f51461055d57806319a4dd3c146105655780631a31d4651461056d57806322abdbf5146106c357610407565b8063153ab505116103da578063153ab5051461051d578063173b99041461052757806317bfdfbc1461052f57806318160ddd1461055557610407565b806306fdde031461040c578063095ea7b3146104895780630e752702146104c95780630f3e4e11146104f8575b600080fd5b610414610e99565b6040805160208082528351818301528351919283929083019185019080838360005b8381101561044e578181015183820152602001610436565b50505050905090810190601f16801561047b5780820380516001836020036101000a031916815260200191505b509250505060405180910390f35b6104b56004803603604081101561049f57600080fd5b506001600160a01b038135169060200135610f26565b604080519115158252519081900360200190f35b6104e6600480360360208110156104df57600080fd5b5035610f93565b60408051918252519081900360200190f35b6104e66004803603604081101561050e57600080fd5b50803590602001351515610fab565b610525611090565b005b6104e66110e0565b6104e66004803603602081101561054557600080fd5b50356001600160a01b03166110e6565b6104e66111a6565b6104e66111ac565b6104e66111bc565b610525600480360360e081101561058357600080fd5b6001600160a01b03823581169260208101358216926040820135909216916060820135919081019060a081016080820135600160201b8111156105c557600080fd5b8201836020820111156105d757600080fd5b803590602001918460018302840111600160201b831117156105f857600080fd5b91908080601f0160208091040260200160405190810160405280939291908181526020018383808284376000920191909152509295949360208101935035915050600160201b81111561064a57600080fd5b82018360208201111561065c57600080fd5b803590602001918460018302840111600160201b8311171561067d57600080fd5b91908080601f0160208091040260200160405190810160405280939291908181526020018383808284376000920191909152509295505050903560ff1691506111c29050565b6104e6611261565b6104b5600480360360608110156106e157600080fd5b506001600160a01b03813581169160208101359091169060400135611267565b6104e66112d9565b6104e66004803603604081101561071f57600080fd5b506001600160a01b03813516906020013561137e565b61073d611396565b604080516001600160a01b039092168252519081900360200190f35b6105256004803603602081101561076f57600080fd5b50356113a5565b61077e611403565b6040805160ff9092168252519081900360200190f35b6104e6600480360360208110156107aa57600080fd5b50356001600160a01b031661140c565b6104e6611459565b6104e6600480360360208110156107d857600080fd5b5035611463565b6104b5611470565b6104e6600480360360208110156107fd57600080fd5b50356001600160a01b0316611475565b6104e66115c9565b6104e66004803603604081101561082b57600080fd5b508035906020013515156115cf565b6104e661167e565b6105256004803603602081101561085857600080fd5b810190602081018135600160201b81111561087257600080fd5b82018360208201111561088457600080fd5b803590602001918460018302840111600160201b831117156108a557600080fd5b91908080601f016020809104026020016040519081016040528093929190818152602001838380828437600092019190915250929550611713945050505050565b61073d6117da565b6104b56004803603608081101561090457600080fd5b6001600160a01b03823581169260208101359091169160408201359190810190608081016060820135600160201b81111561093e57600080fd5b82018360208201111561095057600080fd5b803590602001918460018302840111600160201b8311171561097157600080fd5b5090925090506117e9565b6104e66004803603602081101561099257600080fd5b5035611d2d565b61073d611dc8565b6104e6611dd7565b61073d611ddd565b6104e6600480360360208110156109c757600080fd5b50356001600160a01b0316611dec565b6104e6611e07565b610525600480360360208110156109f557600080fd5b5035611ebd565b6104e660048036036020811015610a1257600080fd5b5035611f4e565b6104e660048036036020811015610a2f57600080fd5b5035611fcc565b6104b560048036036020811015610a4c57600080fd5b50356001600160a01b0316611fd9565b6104e660048036036020811015610a7257600080fd5b50356001600160a01b0316611fee565b61052560048036036020811015610a9857600080fd5b50356001600160a01b031661207c565b6104e66120f5565b6105256120fb565b610414612190565b6104e660048036036020811015610ad657600080fd5b50356001600160a01b03166121e8565b610525600480360360c0811015610afc57600080fd5b6001600160a01b03823581169260208101359091169160408201359190810190608081016060820135600160201b811115610b3657600080fd5b820183602082011115610b4857600080fd5b803590602001918460018302840111600160201b83111715610b6957600080fd5b91908080601f0160208091040260200160405190810160405280939291908181526020018383808284376000920191909152509295949360208101935035915050600160201b811115610bbb57600080fd5b820183602082011115610bcd57600080fd5b803590602001918460018302840111600160201b83111715610bee57600080fd5b91908080601f0160208091040260200160405190810160405280939291908181526020018383808284376000920191909152509295505050903560ff1691506121f39050565b6104e660048036036020811015610c4a57600080fd5b50356123da565b6104e66123e8565b6104e660048036036020811015610c6f57600080fd5b50356125f8565b6104b560048036036040811015610c8c57600080fd5b506001600160a01b0381351690602001356126ea565b6104e661275c565b6104e6612762565b6104e660048036036060811015610cc857600080fd5b506001600160a01b038135811691602081013590911690604001356127d0565b6104e660048036036020811015610cfe57600080fd5b50356001600160a01b0316612841565b6104e66128cd565b610d3c60048036036020811015610d2c57600080fd5b50356001600160a01b0316612989565b604080519485526020850193909352838301919091526060830152519081900360800190f35b6104e660048036036020811015610d7857600080fd5b50356129c5565b6104e66129d2565b6104e660048036036020811015610d9d57600080fd5b50356001600160a01b03166129d8565b6104e66129ea565b6104e660048036036020811015610dcb57600080fd5b50356129f0565b6104e660048036036040811015610de857600080fd5b506001600160a01b03813581169160200135166129fd565b6104e6612a28565b6104e6612b2b565b6104e660048036036020811015610e2657600080fd5b50356001600160a01b0316612b30565b61073d612b6a565b6104e660048036036060811015610e5457600080fd5b506001600160a01b03813581169160208101359160409091013516612b79565b61073d612b93565b6104e660048036036020811015610e9257600080fd5b5035612ba7565b60018054604080516020600284861615610100026000190190941693909304601f81018490048402820184019092528181529291830182828015610f1e5780601f10610ef357610100808354040283529160200191610f1e565b820191906000526020600020905b815481529060010190602001808311610f0157829003601f168201915b505050505081565b336000818152600f602090815260408083206001600160a01b03871680855290835281842086905581518681529151939493909284927f8c5be1e5ebec7d5bd14f71427d1e84f3dd0314c0f7b2291e5b200ac8c7c3b925929081900390910190a360019150505b92915050565b600080610fa1836000612c25565b509150505b919050565b60008060008315610fdc57610fc7610fc1612cd1565b86612cd7565b9150610fd5600b5486612d0d565b9050610ffe565b610fed610fe7612cd1565b86612d0d565b9150610ffb600b5486612cd7565b90505b600654600c54604080516315f2405360e01b815260048101869052602481018590526044810192909252516001600160a01b03909216916315f2405391606480820192602092909190829003018186803b15801561105b57600080fd5b505afa15801561106f573d6000803e3d6000fd5b505050506040513d602081101561108557600080fd5b505195945050505050565b60035461010090046001600160a01b031633146110de5760405162461bcd60e51b815260040180806020018281038252602d815260200180615b15602d913960400191505060405180910390fd5b565b60085481565b6000805460ff1661112b576040805162461bcd60e51b815260206004820152600a6024820152691c994b595b9d195c995960b21b604482015290519081900360640190fd5b6000805460ff1916815561113d6123e8565b14611188576040805162461bcd60e51b81526020600482015260166024820152751858d8dc9d59481a5b9d195c995cdd0819985a5b195960521b604482015290519081900360640190fd5b611191826121e8565b90505b6000805460ff19166001179055919050565b600d5481565b60006111b6612d47565b90505b90565b60145481565b6111d08686868686866121f3565b601180546001600160a01b0319166001600160a01b038981169190911791829055604080516318160ddd60e01b8152905192909116916318160ddd91600480820192602092909190829003018186803b15801561122c57600080fd5b505afa158015611240573d6000803e3d6000fd5b505050506040513d602081101561125657600080fd5b505050505050505050565b60135481565b6000805460ff166112ac576040805162461bcd60e51b815260206004820152600a6024820152691c994b595b9d195c995960b21b604482015290519081900360640190fd5b6000805460ff191681556112c233868686612dad565b1490506000805460ff191660011790559392505050565b600554604080516358d5bc7360e11b81523060048201526000602482018190526044820181905260806064830152608482018190529151919283926001600160a01b039091169163b1ab78e69160c4808301926020929190829003018186803b15801561134557600080fd5b505afa158015611359573d6000803e3d6000fd5b505050506040513d602081101561136f57600080fd5b5051156111b657610f8d612cd1565b60008061138d848460006130f9565b50949350505050565b6004546001600160a01b031681565b60035461010090046001600160a01b031633146113f8576040805162461bcd60e51b815260206004820152600c60248201526b3737ba1030b71030b236b4b760a11b604482015290519081900360640190fd5b601480549091019055565b60035460ff1681565b60006114166158c1565b60405180602001604052806114296128cd565b90526001600160a01b0384166000908152600e60205260409020549091506114529082906131a6565b9392505050565b60006111b6612cd1565b6000610f8d8260006131c5565b600181565b60035460009061010090046001600160a01b031633146114a25761149b60016029613263565b9050610fa6565b600554604080516340e6dcc560e01b815290516001600160a01b03928316928516916340e6dcc5916004808301926020929190829003018186803b1580156114e957600080fd5b505afa1580156114fd573d6000803e3d6000fd5b505050506040513d602081101561151357600080fd5b5051611566576040805162461bcd60e51b815260206004820152601c60248201527f6d61726b6572206d6574686f642072657475726e65642066616c736500000000604482015290519081900360640190fd5b600580546001600160a01b0319166001600160a01b03858116918217909255604080519284168352602083019190915280517f17d6db5ffe5a3d1c3d7a98194dca4f7d808d621e6ff9077ed574513d553a2a859281900390910190a16000611452565b600b5481565b600080600083156115fa576115e5610fc1612cd1565b91506115f3600b5486612d0d565b9050611616565b611605610fe7612cd1565b9150611613600b5486612cd7565b90505b600654600c5460085460408051635c0b440b60e11b8152600481018790526024810186905260448101939093526064830191909152516001600160a01b039092169163b816881691608480820192602092909190829003018186803b15801561105b57600080fd5b6006546000906001600160a01b03166315f2405361169a612cd1565b600b54600c546040518463ffffffff1660e01b815260040180848152602001838152602001828152602001935050505060206040518083038186803b1580156116e257600080fd5b505afa1580156116f6573d6000803e3d6000fd5b505050506040513d602081101561170c57600080fd5b5051905090565b60035461010090046001600160a01b031633146117615760405162461bcd60e51b815260040180806020018281038252602d815260200180615bf1602d913960400191505060405180910390fd5b6117696132c9565b601355600554604080516303c03f0f60e01b81523060048201526001602482015290516001600160a01b03909216916303c03f0f9160448082019260009290919082900301818387803b1580156117bf57600080fd5b505af11580156117d3573d6000803e3d6000fd5b5050505050565b6012546001600160a01b031681565b6000805460ff1661182e576040805162461bcd60e51b815260206004820152600a6024820152691c994b595b9d195c995960b21b604482015290519081900360640190fd5b6000805460ff19169055836118745760405162461bcd60e51b815260040180806020018281038252602c815260200180615c3e602c913960400191505060405180910390fd5b600061187e6123e8565b146118c9576040805162461bcd60e51b81526020600482015260166024820152751858d8dc9d59481a5b9d195c995cdd0819985a5b195960521b604482015290519081900360640190fd5b6005546040516358d5bc7360e11b815230600482018181526001600160a01b038a81166024850152604484018990526080606485019081526084850188905294169363b1ab78e6938b928a928a928a92919060a401848480828437600081840152601f19601f820116905080830192505050965050505050505060206040518083038186803b15801561195b57600080fd5b505afa15801561196f573d6000803e3d6000fd5b505050506040513d602081101561198557600080fd5b50516119ce576040805162461bcd60e51b8152602060048201526013602482015272199b185cda1b1bd85b881a5cc81c185d5cd959606a1b604482015290519081900360640190fd5b60006119d86132c9565b905060006119e4612cd1565b905085811015611a34576040805162461bcd60e51b8152602060048201526016602482015275494e53554646494349454e545f4c495155494449545960501b604482015290519081900360640190fd5b6000306001600160a01b031663a7af467a886040518263ffffffff1660e01b81526004018082815260200191505060206040518083038186803b158015611a7a57600080fd5b505afa158015611a8e573d6000803e3d6000fd5b505050506040513d6020811015611aa457600080fd5b50519050611ab489886000613349565b611ac0600b5488612cd7565b600b55604051806029615b4282396040519081900360290181206011546323e30c8b60e01b83526001600160a01b038c81166004850190815291811660248501819052604485018d90526064850187905260a06084860190815260a486018c9052939550908e16936323e30c8b938e938e9289928f928f9290919060c401848480828437600081840152601f19601f820116905080830192505050975050505050505050602060405180830381600087803b158015611b7e57600080fd5b505af1158015611b92573d6000803e3d6000fd5b505050506040513d6020811015611ba857600080fd5b505114611bfc576040805162461bcd60e51b815260206004820152601960248201527f49455243333135363a2043616c6c6261636b206661696c656400000000000000604482015290519081900360640190fd5b6000611c088883612cd7565b9050611c168a826000613450565b506000611c216132c9565b9050611c2d8584612cd7565b8114611c77576040805162461bcd60e51b8152602060048201526014602482015273109053105390d157d25390d3d394d254d511539560621b604482015290519081900360640190fd5b6000611c936040518060200160405280600854815250856131a6565b9050611ca1600c5482612cd7565b600c55611cae8585612cd7565b601355600b54611cbe908b612d0d565b600b55604080518b81526020810186905280820183905290516001600160a01b038e16917f33c8e097c526683cbdb29adf782fac95e9d0fbe0ed635c13d8c75fdf726557d9919081900360600190a2600196505050505050506000805460ff1916600117905595945050505050565b6000805460ff16611d72576040805162461bcd60e51b815260206004820152600a6024820152691c994b595b9d195c995960b21b604482015290519081900360640190fd5b6000805460ff19168155611d846123e8565b90508015611daa57611da2816010811115611d9b57fe5b601d613263565b915050611194565b611db383613661565b9150506000805460ff19166001179055919050565b6005546001600160a01b031681565b60185481565b6011546001600160a01b031681565b6001600160a01b03166000908152600e602052604090205490565b6000805460ff16611e4c576040805162461bcd60e51b815260206004820152600a6024820152691c994b595b9d195c995960b21b604482015290519081900360640190fd5b6000805460ff19168155611e5e6123e8565b14611ea9576040805162461bcd60e51b81526020600482015260166024820152751858d8dc9d59481a5b9d195c995cdd0819985a5b195960521b604482015290519081900360640190fd5b50600b546000805460ff1916600117905590565b60035461010090046001600160a01b03163314611f0b5760405162461bcd60e51b8152600401808060200182810382526021815260200180615aa26021913960400191505060405180910390fd5b6017819055604080513081526020810183905281517f01b7c780e0f385803fe80cbe0efc086d13b8eb443a2ce43e2061fd92bc0e34f1929181900390910190a150565b6000805460ff16611f93576040805162461bcd60e51b815260206004820152600a6024820152691c994b595b9d195c995960b21b604482015290519081900360640190fd5b6000805460ff19168155611fa56123e8565b90508015611fc357611da2816010811115611fbc57fe5b6039613263565b611db38361375f565b6000610f8d826000613807565b60166020526000908152604090205460ff1681565b6000611ff98261389f565b6005546001600160a01b031633146120425760405162461bcd60e51b8152600401808060200182810382526030815260200180615ae56030913960400191505060405180910390fd5b6001600160a01b0382166000908152600e602090815260408083205460159092528220546120709190612d0d565b905061145283826139e1565b6120858161389f565b6005546001600160a01b031633146120ce5760405162461bcd60e51b8152600401808060200182810382526032815260200180615b8b6032913960400191505060405180910390fd5b6001600160a01b0381166000908152601560205260409020546120f2908290613b2c565b50565b600c5481565b60005460ff1661213f576040805162461bcd60e51b815260206004820152600a6024820152691c994b595b9d195c995960b21b604482015290519081900360640190fd5b6000805460ff191681556121516132c9565b9050600061215d612cd1565b9050600061216b8383612d0d565b9050612179600c5482612cd7565b600c5550506013556000805460ff19166001179055565b6002805460408051602060018416156101000260001901909316849004601f81018490048402820184019092528181529291830182828015610f1e5780601f10610ef357610100808354040283529160200191610f1e565b6000610f8d82613c83565b60035461010090046001600160a01b031633146122415760405162461bcd60e51b81526004018080602001828103825260248152602001806159f96024913960400191505060405180910390fd5b6009541580156122515750600a54155b61228c5760405162461bcd60e51b8152600401808060200182810382526023815260200180615a4f6023913960400191505060405180910390fd5b6007849055836122cd5760405162461bcd60e51b8152600401808060200182810382526030815260200180615a726030913960400191505060405180910390fd5b60006122d887611475565b9050801561232d576040805162461bcd60e51b815260206004820152601960248201527f73657474696e67206a6f6574726f6c6c6572206661696c656400000000000000604482015290519081900360640190fd5b612335613cd8565b600955670de0b6b3a7640000600a5561234d86613cdc565b9050801561238c5760405162461bcd60e51b8152600401808060200182810382526022815260200180615ac36022913960400191505060405180910390fd5b835161239f9060019060208701906158d4565b5082516123b39060029060208601906158d4565b50506003805460ff90921660ff199283161790556000805490911660011790555050505050565b600080610fa1836000613e51565b6000806123f3613cd8565b6009549091508082141561240c576000925050506111b9565b6000612416612cd1565b600b54600c54600a54600654604080516315f2405360e01b815260048101879052602481018690526044810185905290519596509394929391926000926001600160a01b03909216916315f24053916064808301926020929190829003018186803b15801561248457600080fd5b505afa158015612498573d6000803e3d6000fd5b505050506040513d60208110156124ae57600080fd5b5051905065048c2739500081111561250d576040805162461bcd60e51b815260206004820152601c60248201527f626f72726f772072617465206973206162737572646c79206869676800000000604482015290519081900360640190fd5b60006125198888612d0d565b90506125236158c1565b61253b60405180602001604052808581525083613ed3565b9050600061254982886131a6565b905060006125578289612cd7565b905060006125766040518060200160405280600854815250848a613efd565b9050600061258585898a613efd565b60098e9055600a819055600b849055600c839055604080518d8152602081018790528082018390526060810186905290519192507f4dec04e750ca11537cabcd8a9eab06494de08da3735bc8871cd41250e190bc04919081900360800190a160009d505050505050505050505050505090565b600554604080516358d5bc7360e11b8152306004820152600060248201819052604482018590526080606483015260848201819052915191926001600160a01b03169163b1ab78e69160c480820192602092909190829003018186803b15801561266157600080fd5b505afa158015612675573d6000803e3d6000fd5b505050506040513d602081101561268b57600080fd5b50516126d4576040805162461bcd60e51b8152602060048201526013602482015272199b185cda1b1bd85b881a5cc81c185d5cd959606a1b604482015290519081900360640190fd5b610f8d6126e2836008613f25565b612710613f67565b6000805460ff1661272f576040805162461bcd60e51b815260206004820152600a6024820152691c994b595b9d195c995960b21b604482015290519081900360640190fd5b6000805460ff1916815561274533338686612dad565b1490505b6000805460ff1916600117905592915050565b600a5481565b6006546000906001600160a01b031663b816881661277e612cd1565b600b54600c546008546040518563ffffffff1660e01b81526004018085815260200184815260200183815260200182815260200194505050505060206040518083038186803b1580156116e257600080fd5b6000805460ff16612815576040805162461bcd60e51b815260206004820152600a6024820152691c994b595b9d195c995960b21b604482015290519081900360640190fd5b6000805460ff1916905561282b33858585613f9a565b90506000805460ff191660011790559392505050565b60035460009061010090046001600160a01b031633146128675761149b6001602f613263565b600480546001600160a01b038481166001600160a01b0319831681179093556040805191909216808252602082019390935281517fca4f2f25d0898edd99413412fb94012f9e54ec8142f9b093e7720646a95b16a9929181900390910190a16000611452565b6000805460ff16612912576040805162461bcd60e51b815260206004820152600a6024820152691c994b595b9d195c995960b21b604482015290519081900360640190fd5b6000805460ff191681556129246123e8565b1461296f576040805162461bcd60e51b81526020600482015260166024820152751858d8dc9d59481a5b9d195c995cdd0819985a5b195960521b604482015290519081900360640190fd5b6129776111ac565b90506000805460ff1916600117905590565b600080600080600061299a866142e1565b905060006129a787613c83565b905060006129b3612d47565b90506000989297509095509350915050565b6000610f8d826000614340565b60095481565b60156020526000908152604090205481565b60175481565b6000610f8d8260006143c0565b6001600160a01b039182166000908152600f6020908152604080832093909416825291909152205490565b6004546000906001600160a01b031633141580612a43575033155b15612a5b57612a5460016000613263565b90506111b9565b60038054600480546001600160a01b03818116610100818102610100600160a81b0319871617968790556001600160a01b031990931690935560408051948390048216808652929095041660208401528351909391927ff9ffabca9c8276e99321725bcb43fb076a6c66a54b7f21c4e8146d8519b417dc92908290030190a1600454604080516001600160a01b038085168252909216602083015280517fca4f2f25d0898edd99413412fb94012f9e54ec8142f9b093e7720646a95b16a99281900390910190a160009250505090565b600881565b600080612b3b6123e8565b90508015612b6157612b59816010811115612b5257fe5b602a613263565b915050610fa6565b61145283613cdc565b6006546001600160a01b031681565b600080612b89858585600061443b565b5095945050505050565b60035461010090046001600160a01b031681565b6000805460ff16612bec576040805162461bcd60e51b815260206004820152600a6024820152691c994b595b9d195c995960b21b604482015290519081900360640190fd5b6000805460ff19168155612bfe6123e8565b90508015612c1c57611da2816010811115612c1557fe5b6030613263565b611db38361456f565b60008054819060ff16612c6c576040805162461bcd60e51b815260206004820152600a6024820152691c994b595b9d195c995960b21b604482015290519081900360640190fd5b6000805460ff19168155612c7e6123e8565b90508015612ca957612c9c816010811115612c9557fe5b6023613263565b925060009150612cbb9050565b612cb533338787614617565b92509250505b6000805460ff1916600117905590939092509050565b60135490565b60006114528383604051806040016040528060118152602001706164646974696f6e206f766572666c6f7760781b8152506148c7565b60006114528383604051806040016040528060158152602001747375627472616374696f6e20756e646572666c6f7760581b815250614959565b600d5460009080612d5c5750506007546111b9565b6000612d66612cd1565b90506000612d81612d7983600b54612cd7565b600c54612d0d565b90506000612d9d826040518060200160405280878152506149b3565b94506111b99350505050565b5090565b6000612db88461389f565b612dc18361389f565b6001600160a01b0384166000908152600e60209081526040808320546015909252822054612def9190612d0d565b9050600081841115612e0057508083035b600554604080516317b9b84b60e31b81523060048201526001600160a01b0389811660248301528881166044830152606482018590529151600093929092169163bdcdc2589160848082019260209290919082900301818787803b158015612e6757600080fd5b505af1158015612e7b573d6000803e3d6000fd5b505050506040513d6020811015612e9157600080fd5b505190508015612eb257612ea860036034836149d1565b93505050506130f1565b856001600160a01b0316876001600160a01b03161415612ed857612ea860026035613263565b60006001600160a01b038981169089161415612ef75750600019612f1f565b506001600160a01b038088166000908152600f60209081526040808320938c16835292905220545b6001600160a01b0388166000908152600e6020526040902054612f429087612d0d565b6001600160a01b03808a166000908152600e60205260408082209390935590891681522054612f719087612cd7565b6001600160a01b0388166000908152600e60205260409020558215613075576001600160a01b038816600090815260156020526040902054612fb39084612d0d565b6001600160a01b03808a166000908152601560205260408082209390935590891681522054612fe29084612cd7565b6001600160a01b03808916600090815260156020908152604080832094909455918b1680825290839020548351918252918101919091528151600080516020615c1e833981519152929181900390910190a16001600160a01b038716600081815260156020908152604091829020548251938452908301528051600080516020615c1e8339815191529281900390910190a15b60001981146130af576130888187612d0d565b6001600160a01b03808a166000908152600f60209081526040808320938e16835292905220555b866001600160a01b0316886001600160a01b0316600080516020615b6b833981519152886040518082815260200191505060405180910390a360009450505050505b949350505050565b60008054819060ff16613140576040805162461bcd60e51b815260206004820152600a6024820152691c994b595b9d195c995960b21b604482015290519081900360640190fd5b6000805460ff191681556131526123e8565b9050801561317d5761317081601081111561316957fe5b6022613263565b92506000915061318f9050565b61318933878787614617565b92509250505b6000805460ff191660011790559094909350915050565b60006131b06158c1565b6131ba8484613ed3565b90506130f181614a37565b6000805460ff1661320a576040805162461bcd60e51b815260206004820152600a6024820152691c994b595b9d195c995960b21b604482015290519081900360640190fd5b6000805460ff1916815561321c6123e8565b905080156132425761323a81601081111561323357fe5b6036613263565b915050612749565b61324c8484614a46565b509150506000805460ff1916600117905592915050565b60007f45b96fe442630264581b197e84bbada861235052c5a1aadfff9ea4e40a969aa083601081111561329257fe5b83603c81111561329e57fe5b604080519283526020830191909152600082820152519081900360600190a182601081111561145257fe5b601154604080516370a0823160e01b815230600482015290516000926001600160a01b03169182916370a0823191602480820192602092909190829003018186803b15801561331757600080fd5b505afa15801561332b573d6000803e3d6000fd5b505050506040513d602081101561334157600080fd5b505191505090565b6011546040805163a9059cbb60e01b81526001600160a01b0386811660048301526024820186905291519190921691829163a9059cbb9160448082019260009290919082900301818387803b1580156133a157600080fd5b505af11580156133b5573d6000803e3d6000fd5b5050505060003d600081146133d157602081146133db57600080fd5b60001991506133e7565b60206000803e60005191505b508061343a576040805162461bcd60e51b815260206004820152601960248201527f544f4b454e5f5452414e534645525f4f55545f4641494c454400000000000000604482015290519081900360640190fd5b61344660135485612d0d565b6013555050505050565b601154604080516370a0823160e01b815230600482015290516000926001600160a01b031691839183916370a08231916024808301926020929190829003018186803b15801561349f57600080fd5b505afa1580156134b3573d6000803e3d6000fd5b505050506040513d60208110156134c957600080fd5b5051604080516323b872dd60e01b81526001600160a01b038981166004830152306024830152604482018990529151929350908416916323b872dd9160648082019260009290919082900301818387803b15801561352657600080fd5b505af115801561353a573d6000803e3d6000fd5b5050505060003d60008114613556576020811461356057600080fd5b600019915061356c565b60206000803e60005191505b50806135bf576040805162461bcd60e51b815260206004820152601860248201527f544f4b454e5f5452414e534645525f494e5f4641494c45440000000000000000604482015290519081900360640190fd5b601154604080516370a0823160e01b815230600482015290516000926001600160a01b0316916370a08231916024808301926020929190829003018186803b15801561360a57600080fd5b505afa15801561361e573d6000803e3d6000fd5b505050506040513d602081101561363457600080fd5b5051905060006136448285612d0d565b905061365260135482612cd7565b60135598975050505050505050565b600354600090819061010090046001600160a01b0316331461368957612b596001601e613263565b613691613cd8565b600954146136a557612b59600a6020613263565b826136ae612cd1565b10156136c057612b59600e601f613263565b600c548311156136d657612b5960026021613263565b6136e2600c5484612d0d565b600c8190556003549091506137079061010090046001600160a01b0316846001613349565b600354604080516101009092046001600160a01b0316825260208201859052818101839052517f3bad0c59cf2f06e7314077049f48a93578cd16f5ef92329f1dab1420a99c177e916060908290030190a16000611452565b60035460009061010090046001600160a01b031633146137855761149b6001603a613263565b61378d613cd8565b600954146137a15761149b600a603b613263565b670de0b6b3a76400008211156137bd5761149b6002603c613263565b6018805490839055604080518281526020810185905281517ff5815f353a60e815cce7553e4f60c533a59d26b1b5504ea4b6db8d60da3e4da2929181900390910190a16000611452565b6000805460ff1661384c576040805162461bcd60e51b815260206004820152600a6024820152691c994b595b9d195c995960b21b604482015290519081900360640190fd5b6000805460ff1916815561385e6123e8565b9050801561387c5761323a81601081111561387557fe5b6019613263565b6138893360008686614ae4565b9150506000805460ff1916600117905592915050565b6001600160a01b03811660009081526016602052604090205460ff166120f2576005546040805163929fe9a160e01b81526001600160a01b0384811660048301523060248301529151919092169163929fe9a1916044808301926020929190829003018186803b15801561391257600080fd5b505afa158015613926573d6000803e3d6000fd5b505050506040513d602081101561393c57600080fd5b5051156139bb576001600160a01b0381166000908152600e602081815260408084205460158352932083905560145491905261397791612cd7565b6014556001600160a01b038116600081815260156020908152604091829020548251938452908301528051600080516020615c1e8339815191529281900390910190a15b6001600160a01b0381166000908152601660205260409020805460ff1916600117905550565b6000806139f060145484612cd7565b905060175460001480613a11575060175415801590613a1157506017548111155b15613a8c5760148190556001600160a01b038416600090815260156020526040902054613a3e9084612cd7565b6001600160a01b03851660008181526015602090815260409182902084905581519283528201929092528151600080516020615c1e833981519152929181900390910190a182915050610f8d565b6014546017541115613b22576000613aa8601754601454612d0d565b6017546014556001600160a01b038616600090815260156020526040902054909150613ad49082612cd7565b6001600160a01b03861660008181526015602090815260409182902084905581519283528201929092528151600080516020615c1e833981519152929181900390910190a19150610f8d9050565b5060009392505050565b6005546040805163eabe7d9160e01b81523060048201526001600160a01b038581166024830152604482018590529151919092169163eabe7d919160648083019260209291908290030181600087803b158015613b8857600080fd5b505af1158015613b9c573d6000803e3d6000fd5b505050506040513d6020811015613bb257600080fd5b505115613bfd576040805162461bcd60e51b81526020600482015260146024820152733537b2ba3937b63632b9103932b532b1ba34b7b760611b604482015290519081900360640190fd5b80613c0757613c7f565b613c1360145482612d0d565b6014556001600160a01b038216600090815260156020526040902054613c399082612d0d565b6001600160a01b03831660008181526015602090815260409182902084905581519283528201929092528151600080516020615c1e833981519152929181900390910190a15b5050565b6001600160a01b03811660009081526010602052604081208054613cab576000915050610fa6565b6000613cbd8260000154600a54613f25565b90506000613ccf828460010154613f67565b95945050505050565b4290565b600354600090819061010090046001600160a01b03163314613d0457612b596001602c613263565b613d0c613cd8565b60095414613d2057612b59600a602b613263565b600660009054906101000a90046001600160a01b03169050826001600160a01b0316632191f92a6040518163ffffffff1660e01b815260040160206040518083038186803b158015613d7157600080fd5b505afa158015613d85573d6000803e3d6000fd5b505050506040513d6020811015613d9b57600080fd5b5051613dee576040805162461bcd60e51b815260206004820152601c60248201527f6d61726b6572206d6574686f642072657475726e65642066616c736500000000604482015290519081900360640190fd5b600680546001600160a01b0319166001600160a01b03858116918217909255604080519284168352602083019190915280517fedffc32e068c7c95dfd4bdfd5c4d939a084d6b11c4199eac8436ed234d72f9269281900390910190a16000611452565b60008054819060ff16613e98576040805162461bcd60e51b815260206004820152600a6024820152691c994b595b9d195c995960b21b604482015290519081900360640190fd5b6000805460ff19168155613eaa6123e8565b90508015613ec857612c9c816010811115613ec157fe5b6014613263565b612cb5338686614dbe565b613edb6158c1565b6040518060200160405280613ef4856000015185613f25565b90529392505050565b6000613f076158c1565b613f118585613ed3565b9050613ccf613f1f82614a37565b84612cd7565b600061145283836040518060400160405280601781526020017f6d756c7469706c69636174696f6e206f766572666c6f77000000000000000000815250615064565b600061145283836040518060400160405280600e81526020016d646976696465206279207a65726f60901b8152506150da565b6000613fa58461389f565b613fae8361389f565b6005546040805163d02f735160e01b81523060048201526001600160a01b03888116602483015287811660448301528681166064830152608482018690529151600093929092169163d02f73519160a48082019260209290919082900301818787803b15801561401d57600080fd5b505af1158015614031573d6000803e3d6000fd5b505050506040513d602081101561404757600080fd5b5051905080156140665761405e60036011836149d1565b9150506130f1565b8261407257600061405e565b846001600160a01b0316846001600160a01b031614156140985761405e60066012613263565b60006140b484604051806020016040528060185481525061513c565b905060006140c28583612d0d565b905060006140ce612d47565b905060006140ea604051806020016040528084815250856131a6565b6001600160a01b0389166000908152600e60205260409020549091506141109088612d0d565b6001600160a01b03808a166000908152600e602052604080822093909355908b168152205461413f9084612cd7565b6001600160a01b03808b166000908152600e6020908152604080832094909455918b168152601590915220546141759088612d0d565b6001600160a01b03808a1660009081526015602052604080822093909355908b16815220546141a49084612cd7565b6001600160a01b038a16600090815260156020526040902055600c546141ca9082612cd7565b600c55600d546141da9085612d0d565b600d556040805188815290516001600160a01b03808c1692908b1691600080516020615b6b8339815191529181900360200190a36001600160a01b038816600081815260156020908152604091829020548251938452908301528051600080516020615c1e8339815191529281900390910190a16001600160a01b038916600081815260156020908152604091829020548251938452908301528051600080516020615c1e8339815191529281900390910190a1600c54604080513081526020810184905280820192909252517fa91e67c5ea634cd43a12c5a482724b03de01e85ca68702a53d0c2f45cb7c1dc59181900360600190a160009a9950505050505050505050565b6001600160a01b03811660009081526016602052604081205460ff161561432157506001600160a01b038116600090815260156020526040902054610fa6565b506001600160a01b0381166000908152600e6020526040902054610fa6565b6000805460ff16614385576040805162461bcd60e51b815260206004820152600a6024820152691c994b595b9d195c995960b21b604482015290519081900360640190fd5b6000805460ff191681556143976123e8565b905080156143b55761323a8160108111156143ae57fe5b6002613263565b613889338585615164565b6000805460ff16614405576040805162461bcd60e51b815260206004820152600a6024820152691c994b595b9d195c995960b21b604482015290519081900360640190fd5b6000805460ff191681556144176123e8565b9050801561442e5761323a81601081111561387557fe5b6138893385600086614ae4565b60008054819060ff16614482576040805162461bcd60e51b815260206004820152600a6024820152691c994b595b9d195c995960b21b604482015290519081900360640190fd5b6000805460ff191681556144946123e8565b905080156144bf576144b28160108111156144ab57fe5b6007613263565b9250600091506145579050565b846001600160a01b031663a6afed956040518163ffffffff1660e01b8152600401602060405180830381600087803b1580156144fa57600080fd5b505af115801561450e573d6000803e3d6000fd5b505050506040513d602081101561452457600080fd5b505190508015614544576144b281601081111561453d57fe5b6008613263565b614551338888888861534d565b92509250505b6000805460ff19166001179055909590945092505050565b60035460009061010090046001600160a01b031633146145955761149b60016031613263565b61459d613cd8565b600954146145b15761149b600a6032613263565b670de0b6b3a76400008211156145cd5761149b60026033613263565b6008805490839055604080518281526020810185905281517faaa68312e2ea9d50e16af5068410ab56e1a1fd06037b1a35664812c30f821460929181900390910190a16000611452565b60055460408051631200453160e11b81523060048201526001600160a01b0387811660248301528681166044830152606482018690529151600093849384939116916324008a629160848082019260209290919082900301818787803b15801561468057600080fd5b505af1158015614694573d6000803e3d6000fd5b505050506040513d60208110156146aa57600080fd5b5051905080156146ce576146c160036024836149d1565b9250600091506148be9050565b84614708576146dc86613c83565b6001600160a01b0387166000908152601060205260408120918255600a546001909201919091556146c1565b614710613cd8565b60095414614724576146c1600a6025613263565b61472c61594e565b6001600160a01b038716600090815260106020526040902060010154606082015261475687613c83565b6080820152600019861415614774576080810151604082015261477c565b604081018690525b61478b88826040015187613450565b60e0820181905260808201516147a091612d0d565b60a0820152600b5460e08201516147b79190612d0d565b8160c00181815250508060a0015160106000896001600160a01b03166001600160a01b0316815260200190815260200160002060000181905550600a5460106000896001600160a01b03166001600160a01b03168152602001908152602001600020600101819055508060c00151600b819055507f1a2a22cb034d26d1854bdc6666a5b91fe25efbbb5dcad3b0355478d6f5c362a188888360e001518460a001518560c0015160405180866001600160a01b03166001600160a01b03168152602001856001600160a01b03166001600160a01b031681526020018481526020018381526020018281526020019550505050505060405180910390a160e00151600093509150505b94509492505050565b6000838301828582101561138d5760405162461bcd60e51b81526004018080602001828103825283818151815260200191508051906020019080838360005b8381101561491e578181015183820152602001614906565b50505050905090810190601f16801561494b5780820380516001836020036101000a031916815260200191505b509250505060405180910390fd5b600081848411156149ab5760405162461bcd60e51b815260206004820181815283516024840152835190928392604490910191908501908083836000831561491e578181015183820152602001614906565b505050900390565b60006114526149ca84670de0b6b3a7640000613f25565b8351613f67565b60007f45b96fe442630264581b197e84bbada861235052c5a1aadfff9ea4e40a969aa0846010811115614a0057fe5b84603c811115614a0c57fe5b604080519283526020830191909152818101859052519081900360600190a18360108111156130f157fe5b51670de0b6b3a7640000900490565b600080600080614a54613cd8565b60095414614a7357614a68600a6037613263565b93509150614add9050565b614a7e338787613450565b9050614a8c600c5482612cd7565b600c819055604080513381526020810184905280820183905290519193507fa91e67c5ea634cd43a12c5a482724b03de01e85ca68702a53d0c2f45cb7c1dc5919081900360600190a1600093509150505b9250929050565b6000614aef8561389f565b831580614afa575082155b614b355760405162461bcd60e51b8152600401808060200182810382526034815260200180615bbd6034913960400191505060405180910390fd5b614b3d615994565b614b45612d47565b81528415614b7657602080820186905260408051918201905281518152614b6c90866131a6565b6040820152614b9f565b614b928460405180602001604052808460000151815250615875565b6020820152604081018490525b6001600160a01b0386166000908152600e60209081526040808320546015909252822054614bcd9190612d0d565b905060008090508183602001511115614bea578183602001510390505b614bf2613cd8565b60095414614c0657612ea8600a601b613263565b8260400151614c13612cd1565b1015614c2557612ea8600e601c613263565b614c3488846040015187613349565b614c44600d548460200151612d0d565b600d556001600160a01b0388166000908152600e602090815260409091205490840151614c719190612d0d565b6001600160a01b0389166000908152600e6020526040902055614c948882613b2c565b306001600160a01b0316886001600160a01b0316600080516020615b6b83398151915285602001516040518082815260200191505060405180910390a360408084015160208086015183516001600160a01b038d168152918201929092528083019190915290517fe5b754fb1abb7f01b499791d0b820ae3b6af3424ac1c59768edb53f4ec31a9299181900360600190a1600554604080850151602086015182516351dff98960e01b81523060048201526001600160a01b038d811660248301526044820193909352606481019190915291519216916351dff9899160848082019260009290919082900301818387803b158015614d9157600080fd5b505af1158015614da5573d6000803e3d6000fd5b5060009250614db2915050565b98975050505050505050565b600080614dca8561389f565b60055460408051634ef4c3e160e01b81523060048201526001600160a01b0388811660248301526044820188905291516000939290921691634ef4c3e19160648082019260209290919082900301818787803b158015614e2957600080fd5b505af1158015614e3d573d6000803e3d6000fd5b505050506040513d6020811015614e5357600080fd5b505190508015614e7757614e6a60036015836149d1565b92506000915061505c9050565b84614e83576000614e6a565b614e8b613cd8565b60095414614e9f57614e6a600a6016613263565b614ea7615994565b614eaf612d47565b8152614ebc878787613450565b604080830182905280516020810190915282518152614edb9190615875565b60208201819052600d54614eee91612cd7565b600d556001600160a01b0387166000908152600e602090815260409091205490820151614f1b9190612cd7565b6001600160a01b038089166000818152600e602090815260409182902094909455600554815163929fe9a160e01b81526004810193909352306024840152905192169263929fe9a192604480840193829003018186803b158015614f7e57600080fd5b505afa158015614f92573d6000803e3d6000fd5b505050506040513d6020811015614fa857600080fd5b505115614fbf57614fbd8782602001516139e1565b505b60408082015160208084015183516001600160a01b038c168152918201929092528083019190915290517f4c209b5fc8ad50758f13e2e1088ba56a560dff690a1c6fef26394f4c03821c4f9181900360600190a1866001600160a01b0316306001600160a01b0316600080516020615b6b83398151915283602001516040518082815260200191505060405180910390a360400151600093509150505b935093915050565b6000831580615071575082155b1561507e57506000611452565b8383028385828161508b57fe5b0414839061138d5760405162461bcd60e51b815260206004820181815283516024840152835190928392604490910191908501908083836000831561491e578181015183820152602001614906565b600081836151295760405162461bcd60e51b815260206004820181815283516024840152835190928392604490910191908501908083836000831561491e578181015183820152602001614906565b5082848161513357fe5b04949350505050565b6000670de0b6b3a7640000615155848460000151613f25565b8161515c57fe5b049392505050565b6005546040805163368f515360e21b81523060048201526001600160a01b0386811660248301526044820186905291516000938493169163da3d454c91606480830192602092919082900301818787803b1580156151c157600080fd5b505af11580156151d5573d6000803e3d6000fd5b505050506040513d60208110156151eb57600080fd5b50519050801561520a5761520260036006836149d1565b915050611452565b836152445761521885613c83565b6001600160a01b0386166000908152601060205260408120918255600a54600190920191909155615202565b61524c613cd8565b6009541461526057615202600a6004613263565b83615269612cd1565b101561527b57615202600e6003613263565b6152836159b5565b61528c86613c83565b6020820181905261529d9086612cd7565b6040820152600b546152af9086612cd7565b60608201526152bf868686613349565b604080820180516001600160a01b03891660008181526010602090815290859020928355600a54600190930192909255606080860151600b819055935185519283529282018a9052818501929092529081019190915290517f13ed6866d4e1ee6da46f845c46d7e54120883d75c5ea9a2dacc1c4ca8984ab809181900360800190a160009695505050505050565b60055460408051632fe3f38f60e11b81523060048201526001600160a01b0385811660248301528881166044830152878116606483015260848201879052915160009384938493911691635fc7e71e9160a48082019260209290919082900301818787803b1580156153be57600080fd5b505af11580156153d2573d6000803e3d6000fd5b505050506040513d60208110156153e857600080fd5b50519050801561540c576153ff6003600a836149d1565b92506000915061586b9050565b615414613cd8565b60095414615428576153ff600a600e613263565b615430613cd8565b856001600160a01b031663cfa992016040518163ffffffff1660e01b815260040160206040518083038186803b15801561546957600080fd5b505afa15801561547d573d6000803e3d6000fd5b505050506040513d602081101561549357600080fd5b5051146154a6576153ff600a6009613263565b876001600160a01b0316876001600160a01b031614156154cc576153ff6006600f613263565b856154dd576153ff6007600d613263565b6000198614156154f3576153ff6007600c613263565b6000806155028a8a8a89614617565b909250905081156155325761552382601081111561551c57fe5b6010613263565b94506000935061586b92505050565b6005546040805163c488847b60e01b81523060048201526001600160a01b038a81166024830152604482018590528251600094859492169263c488847b926064808301939192829003018186803b15801561558c57600080fd5b505afa1580156155a0573d6000803e3d6000fd5b505050506040513d60408110156155b657600080fd5b508051602090910151909250905081156156015760405162461bcd60e51b8152600401808060200182810382526032815260200180615a1d6032913960400191505060405180910390fd5b80896001600160a01b03166370a082318d6040518263ffffffff1660e01b815260040180826001600160a01b03166001600160a01b0316815260200191505060206040518083038186803b15801561565857600080fd5b505afa15801561566c573d6000803e3d6000fd5b505050506040513d602081101561568257600080fd5b505110156156d7576040805162461bcd60e51b815260206004820152601860248201527f4c49515549444154455f5345495a455f544f4f5f4d5543480000000000000000604482015290519081900360640190fd5b60006001600160a01b038a163014156156fd576156f6308e8e85613f9a565b9050615787565b6040805163b2a02ff160e01b81526001600160a01b038f811660048301528e81166024830152604482018590529151918c169163b2a02ff1916064808201926020929091908290030181600087803b15801561575857600080fd5b505af115801561576c573d6000803e3d6000fd5b505050506040513d602081101561578257600080fd5b505190505b80156157d1576040805162461bcd60e51b81526020600482015260146024820152731d1bdad95b881cd95a5e9d5c994819985a5b195960621b604482015290519081900360640190fd5b7f298637f684da70674f26509b10f07ec2fbc77a335ab1e7d6215a4b2484d8bb528d8d868d8660405180866001600160a01b03166001600160a01b03168152602001856001600160a01b03166001600160a01b03168152602001848152602001836001600160a01b03166001600160a01b031681526020018281526020019550505050505060405180910390a16000975092955050505050505b9550959350505050565b600061587f6158c1565b6131ba848461588c6158c1565b60006158a0670de0b6b3a764000085613f25565b905060405180602001604052806158b783866149b3565b9052949350505050565b6040518060200160405280600081525090565b828054600181600116156101000203166002900490600052602060002090601f016020900481019282601f1061591557805160ff1916838001178555615942565b82800160010185558215615942579182015b82811115615942578251825591602001919060010190615927565b50612da99291506159de565b6040805161010081019091528060008152602001600081526020016000815260200160008152602001600081526020016000815260200160008152602001600081525090565b60405180606001604052806000815260200160008152602001600081525090565b604080516080810190915280600081526020016000815260200160008152602001600081525090565b6111b991905b80821115612da957600081556001016159e456fe6f6e6c792061646d696e206d617920696e697469616c697a6520746865206d61726b65744c49515549444154455f4a4f4554524f4c4c45525f43414c43554c4154455f414d4f554e545f5345495a455f4641494c45446d61726b6574206d6179206f6e6c7920626520696e697469616c697a6564206f6e6365696e697469616c2065786368616e67652072617465206d7573742062652067726561746572207468616e207a65726f2e6f6e6c792061646d696e2063616e2073657420636f6c6c61746572616c2063617073657474696e6720696e7465726573742072617465206d6f64656c206661696c65646f6e6c79206a6f6574726f6c6c6572206d617920726567697374657220636f6c6c61746572616c20666f7220757365726f6e6c79207468652061646d696e206d61792063616c6c205f72657369676e496d706c656d656e746174696f6e45524333313536466c617368426f72726f776572496e746572666163652e6f6e466c6173684c6f616eddf252ad1be2c89b69c2b068fc378daa952ba7f163c4a11628f55a4df523b3ef6f6e6c79206a6f6574726f6c6c6572206d617920756e726567697374657220636f6c6c61746572616c20666f7220757365726f6e65206f662072656465656d546f6b656e73496e206f722072656465656d416d6f756e74496e206d757374206265207a65726f6f6e6c79207468652061646d696e206d61792063616c6c205f6265636f6d65496d706c656d656e746174696f6e1d22042d9eb89f2620572acbf8d85b66fba5a2ca19d166d8659574440175c964666c6173684c6f616e20616d6f756e742073686f756c642062652067726561746572207468616e207a65726fa265627a7a723158208fa0b1eed7d257250af3f67d674f380c24e2110dc1131f3050e1019c5f58a20b64736f6c63430005100032",
  "devdoc": {
    "author": "Cream",
    "methods": {
      "_acceptAdmin()": {
        "details": "Admin function for pending admin to accept role and update admin",
        "return": "uint 0=success, otherwise a failure (see ErrorReporter.sol for details)"
      },
      "_addReserves(uint256)": {
        "params": {
          "addAmount": "The amount fo underlying token to add as reserves"
        },
        "return": "uint 0=success, otherwise a failure (see ErrorReporter.sol for details)"
      },
      "_becomeImplementation(bytes)": {
        "params": {
          "data": "The encoded bytes data for any initialization"
        }
      },
      "_reduceReserves(uint256)": {
        "params": {
          "reduceAmount": "Amount of reduction to reserves"
        },
        "return": "uint 0=success, otherwise a failure (see ErrorReporter.sol for details)"
      },
      "_setCollateralCap(uint256)": {
        "params": {
          "newCollateralCap": "New collateral cap for this market. A value of 0 corresponds to no cap."
        }
      },
      "_setInterestRateModel(address)": {
        "details": "Admin function to accrue interest and update the interest rate model",
        "params": {
          "newInterestRateModel": "the new interest rate model to use"
        },
        "return": "uint 0=success, otherwise a failure (see ErrorReporter.sol for details)"
      },
      "_setJoetroller(address)": {
        "details": "Admin function to set a new joetroller",
        "return": "uint 0=success, otherwise a failure (see ErrorReporter.sol for details)"
      },
      "_setPendingAdmin(address)": {
        "details": "Admin function to begin change of admin. The newPendingAdmin must call `_acceptAdmin` to finalize the transfer.",
        "params": {
          "newPendingAdmin": "New pending admin."
        },
        "return": "uint 0=success, otherwise a failure (see ErrorReporter.sol for details)"
      },
      "_setProtocolSeizeShare(uint256)": {
        "details": "Admin function to accrue interest and set a new collateral seize share",
        "return": "uint256 0=success, otherwise a failure (see ErrorReport.sol for details)"
      },
      "_setReserveFactor(uint256)": {
        "details": "Admin function to accrue interest and set a new reserve factor",
        "return": "uint 0=success, otherwise a failure (see ErrorReporter.sol for details)"
      },
      "accrueInterest()": {
        "details": "This calculates interest accrued from the last checkpointed timestamp  up to the current timestamp and writes new checkpoint to storage."
      },
      "allowance(address,address)": {
        "params": {
          "owner": "The address of the account which owns the tokens to be spent",
          "spender": "The address of the account which may transfer tokens"
        },
        "return": "The number of tokens allowed to be spent (-1 means infinite)"
      },
      "approve(address,uint256)": {
        "details": "This will overwrite the approval amount for `spender` and is subject to issues noted [here](https://eips.ethereum.org/EIPS/eip-20#approve)",
        "params": {
          "amount": "The number of tokens that are approved (-1 means infinite)",
          "spender": "The address of the account which may transfer tokens"
        },
        "return": "Whether or not the approval succeeded"
      },
      "balanceOf(address)": {
        "params": {
          "owner": "The address of the account to query"
        },
        "return": "The number of tokens owned by `owner`"
      },
      "balanceOfUnderlying(address)": {
        "details": "This also accrues interest in a transaction",
        "params": {
          "owner": "The address of the account to query"
        },
        "return": "The amount of underlying owned by `owner`"
      },
      "borrow(uint256)": {
        "params": {
          "borrowAmount": "The amount of the underlying asset to borrow"
        },
        "return": "uint 0=success, otherwise a failure (see ErrorReporter.sol for details)"
      },
      "borrowBalanceCurrent(address)": {
        "params": {
          "account": "The address whose balance should be calculated after updating borrowIndex"
        },
        "return": "The calculated balance"
      },
      "borrowBalanceStored(address)": {
        "params": {
          "account": "The address whose balance should be calculated"
        },
        "return": "The calculated balance"
      },
      "borrowRatePerSecond()": {
        "return": "The borrow interest rate per sec, scaled by 1e18"
      },
      "estimateBorrowRatePerSecondAfterChange(uint256,bool)": {
        "return": "The borrow interest rate per sec, scaled by 1e18"
      },
      "estimateSupplyRatePerSecondAfterChange(uint256,bool)": {
        "return": "The supply interest rate per sec, scaled by 1e18"
      },
      "exchangeRateCurrent()": {
        "return": "Calculated exchange rate scaled by 1e18"
      },
      "exchangeRateStored()": {
        "details": "This function does not accrue interest before calculating the exchange rate",
        "return": "Calculated exchange rate scaled by 1e18"
      },
      "flashFee(uint256)": {
        "params": {
          "amount": "amount of token to borrow"
        }
      },
      "flashLoan(address,address,uint256,bytes)": {
        "params": {
          "amount": "The amount of the funds to be loaned",
          "data": "The other data",
          "initiator": "flash loan initiator",
          "receiver": "The receiver address for the funds"
        },
        "return": "uint 0=success, otherwise a failure (see ErrorReporter.sol for details)"
      },
      "getAccountSnapshot(address)": {
        "details": "This is used by joetroller to more efficiently perform liquidity checks.",
        "params": {
          "account": "Address of the account to snapshot"
        },
        "return": "(possible error, token balance, borrow balance, exchange rate mantissa)"
      },
      "getCash()": {
        "return": "The quantity of underlying asset owned by this contract"
      },
      "initialize(address,address,address,uint256,string,string,uint8)": {
        "params": {
          "decimals_": "ERC-20 decimal precision of this token",
          "initialExchangeRateMantissa_": "The initial exchange rate, scaled by 1e18",
          "interestRateModel_": "The address of the interest rate model",
          "joetroller_": "The address of the Joetroller",
          "name_": "ERC-20 name of this token",
          "symbol_": "ERC-20 symbol of this token",
          "underlying_": "The address of the underlying asset"
        }
      },
      "initialize(address,address,uint256,string,string,uint8)": {
        "params": {
          "decimals_": "EIP-20 decimal precision of this token",
          "initialExchangeRateMantissa_": "The initial exchange rate, scaled by 1e18",
          "interestRateModel_": "The address of the interest rate model",
          "joetroller_": "The address of the Joetroller",
          "name_": "EIP-20 name of this token",
          "symbol_": "EIP-20 symbol of this token"
        }
      },
      "liquidateBorrow(address,uint256,address)": {
        "params": {
          "borrower": "The borrower of this jToken to be liquidated",
          "jTokenCollateral": "The market in which to seize collateral from the borrower",
          "repayAmount": "The amount of the underlying borrowed asset to repay"
        },
        "return": "uint 0=success, otherwise a failure (see ErrorReporter.sol for details)"
      },
      "mint(uint256)": {
        "details": "Accrues interest whether or not the operation succeeds, unless reverted",
        "params": {
          "mintAmount": "The amount of the underlying asset to supply"
        },
        "return": "uint 0=success, otherwise a failure (see ErrorReporter.sol for details)"
      },
      "redeem(uint256)": {
        "details": "Accrues interest whether or not the operation succeeds, unless reverted",
        "params": {
          "redeemTokens": "The number of jTokens to redeem into underlying"
        },
        "return": "uint 0=success, otherwise a failure (see ErrorReporter.sol for details)"
      },
      "redeemUnderlying(uint256)": {
        "details": "Accrues interest whether or not the operation succeeds, unless reverted",
        "params": {
          "redeemAmount": "The amount of underlying to redeem"
        },
        "return": "uint 0=success, otherwise a failure (see ErrorReporter.sol for details)"
      },
      "registerCollateral(address)": {
        "details": "This function could only be called by joetroller.",
        "params": {
          "account": "The account to register"
        },
        "return": "The actual registered amount of collateral"
      },
      "repayBorrow(uint256)": {
        "params": {
          "repayAmount": "The amount to repay"
        },
        "return": "uint 0=success, otherwise a failure (see ErrorReporter.sol for details)"
      },
      "repayBorrowBehalf(address,uint256)": {
        "params": {
          "borrower": "the account with the debt being payed off",
          "repayAmount": "The amount to repay"
        },
        "return": "uint 0=success, otherwise a failure (see ErrorReporter.sol for details)"
      },
      "seize(address,address,uint256)": {
        "details": "Will fail unless called by another jToken during the process of liquidation. Its absolutely critical to use msg.sender as the borrowed jToken and not a parameter.",
        "params": {
          "borrower": "The account having collateral seized",
          "liquidator": "The account receiving seized collateral",
          "seizeTokens": "The number of jTokens to seize"
        },
        "return": "uint 0=success, otherwise a failure (see ErrorReporter.sol for details)"
      },
      "supplyRatePerSecond()": {
        "return": "The supply interest rate per sec, scaled by 1e18"
      },
      "totalBorrowsCurrent()": {
        "return": "The total borrows with interest"
      },
      "transfer(address,uint256)": {
        "params": {
          "amount": "The number of tokens to transfer",
          "dst": "The address of the destination account"
        },
        "return": "Whether or not the transfer succeeded"
      },
      "transferFrom(address,address,uint256)": {
        "params": {
          "amount": "The number of tokens to transfer",
          "dst": "The address of the destination account",
          "src": "The address of the source account"
        },
        "return": "Whether or not the transfer succeeded"
      },
      "unregisterCollateral(address)": {
        "details": "This function could only be called by joetroller.",
        "params": {
          "account": "The account to unregister"
        }
      }
    },
    "title": "Cream's JCollateralCapErc20Delegate Contract"
  },
  "userdoc": {
    "methods": {
      "_acceptAdmin()": {
        "notice": "Accepts transfer of admin rights. msg.sender must be pendingAdmin"
      },
      "_addReserves(uint256)": {
        "notice": "The sender adds to reserves."
      },
      "_becomeImplementation(bytes)": {
        "notice": "Called by the delegator on a delegate to initialize it for duty"
      },
      "_reduceReserves(uint256)": {
        "notice": "Accrues interest and reduces reserves by transferring to admin"
      },
      "_resignImplementation()": {
        "notice": "Called by the delegator on a delegate to forfeit its responsibility"
      },
      "_setCollateralCap(uint256)": {
        "notice": "Set the given collateral cap for the market."
      },
      "_setInterestRateModel(address)": {
        "notice": "accrues interest and updates the interest rate model using _setInterestRateModelFresh"
      },
      "_setJoetroller(address)": {
        "notice": "Sets a new joetroller for the market"
      },
      "_setPendingAdmin(address)": {
        "notice": "Begins transfer of admin rights. The newPendingAdmin must call `_acceptAdmin` to finalize the transfer."
      },
      "_setProtocolSeizeShare(uint256)": {
        "notice": "Accrues interest and sets a new collateral seize share for the protocol using _setProtocolSeizeShareFresh"
      },
      "_setReserveFactor(uint256)": {
        "notice": "Accrues interest and sets a new reserve factor for the protocol using _setReserveFactorFresh"
      },
      "accrueInterest()": {
        "notice": "Applies accrued interest to total borrows and reserves"
      },
      "allowance(address,address)": {
        "notice": "Get the current allowance from `owner` for `spender`"
      },
      "approve(address,uint256)": {
        "notice": "Approve `spender` to transfer up to `amount` from `src`"
      },
      "balanceOf(address)": {
        "notice": "Get the token balance of the `owner`"
      },
      "balanceOfUnderlying(address)": {
        "notice": "Get the underlying balance of the `owner`"
      },
      "borrow(uint256)": {
        "notice": "Sender borrows assets from the protocol to their own address"
      },
      "borrowBalanceCurrent(address)": {
        "notice": "Accrue interest to updated borrowIndex and then calculate account's borrow balance using the updated borrowIndex"
      },
      "borrowBalanceStored(address)": {
        "notice": "Return the borrow balance of account based on stored data"
      },
      "borrowRatePerSecond()": {
        "notice": "Returns the current per-sec borrow interest rate for this jToken"
      },
      "constructor": "Construct an empty delegate",
      "estimateBorrowRatePerSecondAfterChange(uint256,bool)": {
        "notice": "Returns the estimated per-sec borrow interest rate for this jToken after some change"
      },
      "estimateSupplyRatePerSecondAfterChange(uint256,bool)": {
        "notice": "Returns the estimated per-sec supply interest rate for this jToken after some change"
      },
      "exchangeRateCurrent()": {
        "notice": "Accrue interest then return the up-to-date exchange rate"
      },
      "exchangeRateStored()": {
        "notice": "Calculates the exchange rate from the underlying to the JToken"
      },
      "flashFee(uint256)": {
        "notice": "Get the flash loan fees"
      },
      "flashLoan(address,address,uint256,bytes)": {
        "notice": "Flash loan funds to a given account."
      },
      "getAccountSnapshot(address)": {
        "notice": "Get a snapshot of the account's balances, and the cached exchange rate"
      },
      "getCash()": {
        "notice": "Get cash balance of this jToken in the underlying asset"
      },
      "gulp()": {
        "notice": "Absorb excess cash into reserves."
      },
      "initialize(address,address,address,uint256,string,string,uint8)": {
        "notice": "Initialize the new money market"
      },
      "initialize(address,address,uint256,string,string,uint8)": {
        "notice": "Initialize the money market"
      },
      "liquidateBorrow(address,uint256,address)": {
        "notice": "The sender liquidates the borrowers collateral. The collateral seized is transferred to the liquidator."
      },
      "maxFlashLoan()": {
        "notice": "Get the max flash loan amount"
      },
      "mint(uint256)": {
        "notice": "Sender supplies assets into the market and receives jTokens in exchange"
      },
      "redeem(uint256)": {
        "notice": "Sender redeems jTokens in exchange for the underlying asset"
      },
      "redeemUnderlying(uint256)": {
        "notice": "Sender redeems jTokens in exchange for a specified amount of underlying asset"
      },
      "registerCollateral(address)": {
        "notice": "Register account collateral tokens if there is space."
      },
      "repayBorrow(uint256)": {
        "notice": "Sender repays their own borrow"
      },
      "repayBorrowBehalf(address,uint256)": {
        "notice": "Sender repays a borrow belonging to borrower"
      },
      "seize(address,address,uint256)": {
        "notice": "Transfers collateral tokens (this market) to the liquidator."
      },
      "supplyRatePerSecond()": {
        "notice": "Returns the current per-sec supply interest rate for this jToken"
      },
      "totalBorrowsCurrent()": {
        "notice": "Returns the current total borrows plus accrued interest"
      },
      "transfer(address,uint256)": {
        "notice": "Transfer `amount` tokens from `msg.sender` to `dst`"
      },
      "transferFrom(address,address,uint256)": {
        "notice": "Transfer `amount` tokens from `src` to `dst`"
      },
      "unregisterCollateral(address)": {
        "notice": "Unregister account collateral tokens if the account still has enough collateral."
      }
    },
    "notice": "JTokens which wrap an EIP-20 underlying and are delegated to"
  },
  "storageLayout": {
    "storage": [
      {
        "astId": 15042,
        "contract": "contracts/JCollateralCapErc20Delegate.sol:JCollateralCapErc20Delegate",
        "label": "_notEntered",
        "offset": 0,
        "slot": "0",
        "type": "t_bool"
      },
      {
        "astId": 15044,
        "contract": "contracts/JCollateralCapErc20Delegate.sol:JCollateralCapErc20Delegate",
        "label": "name",
        "offset": 0,
        "slot": "1",
        "type": "t_string_storage"
      },
      {
        "astId": 15046,
        "contract": "contracts/JCollateralCapErc20Delegate.sol:JCollateralCapErc20Delegate",
        "label": "symbol",
        "offset": 0,
        "slot": "2",
        "type": "t_string_storage"
      },
      {
        "astId": 15048,
        "contract": "contracts/JCollateralCapErc20Delegate.sol:JCollateralCapErc20Delegate",
        "label": "decimals",
        "offset": 0,
        "slot": "3",
        "type": "t_uint8"
      },
      {
        "astId": 15056,
        "contract": "contracts/JCollateralCapErc20Delegate.sol:JCollateralCapErc20Delegate",
        "label": "admin",
        "offset": 1,
        "slot": "3",
        "type": "t_address_payable"
      },
      {
        "astId": 15058,
        "contract": "contracts/JCollateralCapErc20Delegate.sol:JCollateralCapErc20Delegate",
        "label": "pendingAdmin",
        "offset": 0,
        "slot": "4",
        "type": "t_address_payable"
      },
      {
        "astId": 15060,
        "contract": "contracts/JCollateralCapErc20Delegate.sol:JCollateralCapErc20Delegate",
        "label": "joetroller",
        "offset": 0,
        "slot": "5",
        "type": "t_contract(JoetrollerInterface)21484"
      },
      {
        "astId": 15062,
        "contract": "contracts/JCollateralCapErc20Delegate.sol:JCollateralCapErc20Delegate",
        "label": "interestRateModel",
        "offset": 0,
        "slot": "6",
        "type": "t_contract(InterestRateModel)2453"
      },
      {
        "astId": 15064,
        "contract": "contracts/JCollateralCapErc20Delegate.sol:JCollateralCapErc20Delegate",
        "label": "initialExchangeRateMantissa",
        "offset": 0,
        "slot": "7",
        "type": "t_uint256"
      },
      {
        "astId": 15066,
        "contract": "contracts/JCollateralCapErc20Delegate.sol:JCollateralCapErc20Delegate",
        "label": "reserveFactorMantissa",
        "offset": 0,
        "slot": "8",
        "type": "t_uint256"
      },
      {
        "astId": 15068,
        "contract": "contracts/JCollateralCapErc20Delegate.sol:JCollateralCapErc20Delegate",
        "label": "accrualBlockTimestamp",
        "offset": 0,
        "slot": "9",
        "type": "t_uint256"
      },
      {
        "astId": 15070,
        "contract": "contracts/JCollateralCapErc20Delegate.sol:JCollateralCapErc20Delegate",
        "label": "borrowIndex",
        "offset": 0,
        "slot": "10",
        "type": "t_uint256"
      },
      {
        "astId": 15072,
        "contract": "contracts/JCollateralCapErc20Delegate.sol:JCollateralCapErc20Delegate",
        "label": "totalBorrows",
        "offset": 0,
        "slot": "11",
        "type": "t_uint256"
      },
      {
        "astId": 15074,
        "contract": "contracts/JCollateralCapErc20Delegate.sol:JCollateralCapErc20Delegate",
        "label": "totalReserves",
        "offset": 0,
        "slot": "12",
        "type": "t_uint256"
      },
      {
        "astId": 15076,
        "contract": "contracts/JCollateralCapErc20Delegate.sol:JCollateralCapErc20Delegate",
        "label": "totalSupply",
        "offset": 0,
        "slot": "13",
        "type": "t_uint256"
      },
      {
        "astId": 15080,
        "contract": "contracts/JCollateralCapErc20Delegate.sol:JCollateralCapErc20Delegate",
        "label": "accountTokens",
        "offset": 0,
        "slot": "14",
        "type": "t_mapping(t_address,t_uint256)"
      },
      {
        "astId": 15086,
        "contract": "contracts/JCollateralCapErc20Delegate.sol:JCollateralCapErc20Delegate",
        "label": "transferAllowances",
        "offset": 0,
        "slot": "15",
        "type": "t_mapping(t_address,t_mapping(t_address,t_uint256))"
      },
      {
        "astId": 15095,
        "contract": "contracts/JCollateralCapErc20Delegate.sol:JCollateralCapErc20Delegate",
        "label": "accountBorrows",
        "offset": 0,
        "slot": "16",
        "type": "t_mapping(t_address,t_struct(BorrowSnapshot)15091_storage)"
      },
      {
        "astId": 15098,
        "contract": "contracts/JCollateralCapErc20Delegate.sol:JCollateralCapErc20Delegate",
        "label": "underlying",
        "offset": 0,
        "slot": "17",
        "type": "t_address"
      },
      {
        "astId": 15100,
        "contract": "contracts/JCollateralCapErc20Delegate.sol:JCollateralCapErc20Delegate",
        "label": "implementation",
        "offset": 0,
        "slot": "18",
        "type": "t_address"
      },
      {
        "astId": 15103,
        "contract": "contracts/JCollateralCapErc20Delegate.sol:JCollateralCapErc20Delegate",
        "label": "internalCash",
        "offset": 0,
        "slot": "19",
        "type": "t_uint256"
      },
      {
        "astId": 15106,
        "contract": "contracts/JCollateralCapErc20Delegate.sol:JCollateralCapErc20Delegate",
        "label": "totalCollateralTokens",
        "offset": 0,
        "slot": "20",
        "type": "t_uint256"
      },
      {
        "astId": 15110,
        "contract": "contracts/JCollateralCapErc20Delegate.sol:JCollateralCapErc20Delegate",
        "label": "accountCollateralTokens",
        "offset": 0,
        "slot": "21",
        "type": "t_mapping(t_address,t_uint256)"
      },
      {
        "astId": 15114,
        "contract": "contracts/JCollateralCapErc20Delegate.sol:JCollateralCapErc20Delegate",
        "label": "isCollateralTokenInit",
        "offset": 0,
        "slot": "22",
        "type": "t_mapping(t_address,t_bool)"
      },
      {
        "astId": 15116,
        "contract": "contracts/JCollateralCapErc20Delegate.sol:JCollateralCapErc20Delegate",
        "label": "collateralCap",
        "offset": 0,
        "slot": "23",
        "type": "t_uint256"
      },
      {
        "astId": 15679,
        "contract": "contracts/JCollateralCapErc20Delegate.sol:JCollateralCapErc20Delegate",
        "label": "protocolSeizeShareMantissa",
        "offset": 0,
        "slot": "24",
        "type": "t_uint256"
      }
    ],
    "types": {
      "t_address": {
        "encoding": "inplace",
        "label": "address",
        "numberOfBytes": "20"
      },
      "t_address_payable": {
        "encoding": "inplace",
        "label": "address payable",
        "numberOfBytes": "20"
      },
      "t_bool": {
        "encoding": "inplace",
        "label": "bool",
        "numberOfBytes": "1"
      },
      "t_contract(InterestRateModel)2453": {
        "encoding": "inplace",
        "label": "contract InterestRateModel",
        "numberOfBytes": "20"
      },
      "t_contract(JoetrollerInterface)21484": {
        "encoding": "inplace",
        "label": "contract JoetrollerInterface",
        "numberOfBytes": "20"
      },
      "t_mapping(t_address,t_bool)": {
        "encoding": "mapping",
        "key": "t_address",
        "label": "mapping(address => bool)",
        "numberOfBytes": "32",
        "value": "t_bool"
      },
      "t_mapping(t_address,t_mapping(t_address,t_uint256))": {
        "encoding": "mapping",
        "key": "t_address",
        "label": "mapping(address => mapping(address => uint256))",
        "numberOfBytes": "32",
        "value": "t_mapping(t_address,t_uint256)"
      },
      "t_mapping(t_address,t_struct(BorrowSnapshot)15091_storage)": {
        "encoding": "mapping",
        "key": "t_address",
        "label": "mapping(address => struct JTokenStorage.BorrowSnapshot)",
        "numberOfBytes": "32",
        "value": "t_struct(BorrowSnapshot)15091_storage"
      },
      "t_mapping(t_address,t_uint256)": {
        "encoding": "mapping",
        "key": "t_address",
        "label": "mapping(address => uint256)",
        "numberOfBytes": "32",
        "value": "t_uint256"
      },
      "t_string_storage": {
        "encoding": "bytes",
        "label": "string",
        "numberOfBytes": "32"
      },
      "t_struct(BorrowSnapshot)15091_storage": {
        "encoding": "inplace",
        "label": "struct JTokenStorage.BorrowSnapshot",
        "members": [
          {
            "astId": 15088,
            "contract": "contracts/JCollateralCapErc20Delegate.sol:JCollateralCapErc20Delegate",
            "label": "principal",
            "offset": 0,
            "slot": "0",
            "type": "t_uint256"
          },
          {
            "astId": 15090,
            "contract": "contracts/JCollateralCapErc20Delegate.sol:JCollateralCapErc20Delegate",
            "label": "interestIndex",
            "offset": 0,
            "slot": "1",
            "type": "t_uint256"
          }
        ],
        "numberOfBytes": "64"
      },
      "t_uint256": {
        "encoding": "inplace",
        "label": "uint256",
        "numberOfBytes": "32"
      },
      "t_uint8": {
        "encoding": "inplace",
        "label": "uint8",
        "numberOfBytes": "1"
      }
    }
  }
}