{
  "address": "0xe5cDdAFd0f7Af3DEAf4bd213bBaee7A5927AB7E7",
  "abi": [
    {
      "inputs": [
        {
          "internalType": "contract JWrappedNative",
          "name": "jAvax_",
          "type": "address"
        }
      ],
      "payable": false,
      "stateMutability": "nonpayable",
      "type": "constructor"
    },
    {
      "constant": true,
      "inputs": [],
      "name": "jAvax",
      "outputs": [
        {
          "internalType": "contract JWrappedNative",
          "name": "",
          "type": "address"
        }
      ],
      "payable": false,
      "stateMutability": "view",
      "type": "function"
    },
    {
      "constant": false,
      "inputs": [
        {
          "internalType": "address",
          "name": "borrower",
          "type": "address"
        }
      ],
      "name": "repayBehalf",
      "outputs": [],
      "payable": true,
      "stateMutability": "payable",
      "type": "function"
    },
    {
      "constant": false,
      "inputs": [
        {
          "internalType": "address",
          "name": "borrower",
          "type": "address"
        },
        {
          "internalType": "contract JWrappedNative",
          "name": "jAvax_",
          "type": "address"
        }
      ],
      "name": "repayBehalfExplicit",
      "outputs": [],
      "payable": true,
      "stateMutability": "payable",
      "type": "function"
    }
  ],
  "transactionHash": "0x4e216d6ad4fabe3185a219e8979e0613f5e55337b923d32b02f3e0fd7031ac13",
  "args": [
    "0xC22F01ddc8010Ee05574028528614634684EC29e"
  ],
  "solcInputHash": "c440a949314987df51e16ffd601dd0e9",
  "bytecode": "0x608060405234801561001057600080fd5b5060405161035d38038061035d8339818101604052602081101561003357600080fd5b5051600080546001600160a01b039092166001600160a01b03199092169190911790556102f8806100656000396000f3fe6080604052600436106100345760003560e01c80631fa5cbb614610039578063367b7f051461006a5780639f35c3d51461009a575b600080fd5b34801561004557600080fd5b5061004e6100c0565b604080516001600160a01b039092168252519081900360200190f35b6100986004803603604081101561008057600080fd5b506001600160a01b03813581169160200135166100cf565b005b610098600480360360208110156100b057600080fd5b50356001600160a01b03166102a9565b6000546001600160a01b031681565b60003490506000826001600160a01b03166317bfdfbc856040518263ffffffff1660e01b815260040180826001600160a01b03166001600160a01b03168152602001915050602060405180830381600087803b15801561012e57600080fd5b505af1158015610142573d6000803e3d6000fd5b505050506040513d602081101561015857600080fd5b505190508082111561021d57826001600160a01b031663dbf7692982866040518363ffffffff1660e01b815260040180826001600160a01b03166001600160a01b031681526020019150506020604051808303818588803b1580156101bc57600080fd5b505af11580156101d0573d6000803e3d6000fd5b50505050506040513d60208110156101e757600080fd5b5050604051339082840380156108fc02916000818181858888f19350505050158015610217573d6000803e3d6000fd5b506102a3565b826001600160a01b031663dbf7692983866040518363ffffffff1660e01b815260040180826001600160a01b03166001600160a01b031681526020019150506020604051808303818588803b15801561027557600080fd5b505af1158015610289573d6000803e3d6000fd5b50505050506040513d60208110156102a057600080fd5b50505b50505050565b6000546102c09082906001600160a01b03166100cf565b5056fea265627a7a72315820bb0f5a94fdbbfd0631655df3ec0954ba26fffb6336549c91b671186993f5123164736f6c63430005100032",
  "devdoc": {
    "author": "Compound",
    "methods": {
      "repayBehalf(address)": {
        "details": "The provided Ether is applied towards the borrow balance, any excess is refunded",
        "params": {
          "borrower": "The address of the borrower account to repay on behalf of"
        }
      },
      "repayBehalfExplicit(address,address)": {
        "details": "The provided Ether is applied towards the borrow balance, any excess is refunded",
        "params": {
          "borrower": "The address of the borrower account to repay on behalf of",
          "jAvax_": "The address of the jAvax contract to repay in"
        }
      }
    },
    "title": "Compound's Maximillion Contract"
  },
  "userdoc": {
    "methods": {
      "constructor": "Construct a Maximillion to repay max in a JWrappedNative market",
      "repayBehalf(address)": {
        "notice": "msg.sender sends Ether to repay an account's borrow in the jAvax market"
      },
      "repayBehalfExplicit(address,address)": {
        "notice": "msg.sender sends Ether to repay an account's borrow in a jAvax market"
      }
    }
  },
  "storageLayout": {
    "storage": [
      {
        "astId": 23214,
        "contract": "contracts/Maximillion.sol:Maximillion",
        "label": "jAvax",
        "offset": 0,
        "slot": "0",
        "type": "t_contract(JWrappedNative)16802"
      }
    ],
    "types": {
      "t_contract(JWrappedNative)16802": {
        "encoding": "inplace",
        "label": "contract JWrappedNative",
        "numberOfBytes": "20"
      }
    }
  }
}