{
  "address": "0xA2008A8C6A0F8F5CC6ca59b38d5dD90455a840D8",
  "abi": [
    {
      "inputs": [],
      "payable": false,
      "stateMutability": "nonpayable",
      "type": "constructor"
    },
    {
      "anonymous": false,
      "inputs": [
        {
          "indexed": false,
          "internalType": "uint8",
          "name": "rewardType",
          "type": "uint8"
        },
        {
          "indexed": true,
          "internalType": "contract JToken",
          "name": "jToken",
          "type": "address"
        },
        {
          "indexed": true,
          "internalType": "address",
          "name": "borrower",
          "type": "address"
        },
        {
          "indexed": false,
          "internalType": "uint256",
          "name": "rewardDelta",
          "type": "uint256"
        },
        {
          "indexed": false,
          "internalType": "uint256",
          "name": "rewardBorrowIndex",
          "type": "uint256"
        }
      ],
      "name": "DistributedBorrowerReward",
      "type": "event"
    },
    {
      "anonymous": false,
      "inputs": [
        {
          "indexed": false,
          "internalType": "uint8",
          "name": "rewardType",
          "type": "uint8"
        },
        {
          "indexed": true,
          "internalType": "contract JToken",
          "name": "jToken",
          "type": "address"
        },
        {
          "indexed": true,
          "internalType": "address",
          "name": "supplier",
          "type": "address"
        },
        {
          "indexed": false,
          "internalType": "uint256",
          "name": "rewardDelta",
          "type": "uint256"
        },
        {
          "indexed": false,
          "internalType": "uint256",
          "name": "rewardSupplyIndex",
          "type": "uint256"
        }
      ],
      "name": "DistributedSupplierReward",
      "type": "event"
    },
    {
      "anonymous": false,
      "inputs": [
        {
          "indexed": false,
          "internalType": "uint8",
          "name": "rewardType",
          "type": "uint8"
        },
        {
          "indexed": false,
          "internalType": "address",
          "name": "recipient",
          "type": "address"
        },
        {
          "indexed": false,
          "internalType": "uint256",
          "name": "amount",
          "type": "uint256"
        }
      ],
      "name": "RewardGranted",
      "type": "event"
    },
    {
      "anonymous": false,
      "inputs": [
        {
          "indexed": false,
          "internalType": "uint8",
          "name": "rewardType",
          "type": "uint8"
        },
        {
          "indexed": true,
          "internalType": "contract JToken",
          "name": "jToken",
          "type": "address"
        },
        {
          "indexed": false,
          "internalType": "uint256",
          "name": "newSpeed",
          "type": "uint256"
        }
      ],
      "name": "RewardSpeedUpdated",
      "type": "event"
    },
    {
      "payable": true,
      "stateMutability": "payable",
      "type": "fallback"
    },
    {
      "constant": false,
      "inputs": [
        {
          "internalType": "uint8",
          "name": "rewardType",
          "type": "uint8"
        },
        {
          "internalType": "address payable",
          "name": "recipient",
          "type": "address"
        },
        {
          "internalType": "uint256",
          "name": "amount",
          "type": "uint256"
        }
      ],
      "name": "_grantReward",
      "outputs": [],
      "payable": false,
      "stateMutability": "nonpayable",
      "type": "function"
    },
    {
      "constant": false,
      "inputs": [
        {
          "internalType": "uint8",
          "name": "rewardType",
          "type": "uint8"
        },
        {
          "internalType": "contract JToken",
          "name": "jToken",
          "type": "address"
        },
        {
          "internalType": "uint256",
          "name": "rewardSpeed",
          "type": "uint256"
        }
      ],
      "name": "_setRewardSpeed",
      "outputs": [],
      "payable": false,
      "stateMutability": "nonpayable",
      "type": "function"
    },
    {
      "constant": true,
      "inputs": [],
      "name": "admin",
      "outputs": [
        {
          "internalType": "address",
          "name": "",
          "type": "address"
        }
      ],
      "payable": false,
      "stateMutability": "view",
      "type": "function"
    },
    {
      "constant": false,
      "inputs": [
        {
          "internalType": "uint8",
          "name": "rewardType",
          "type": "uint8"
        },
        {
          "internalType": "address payable",
          "name": "holder",
          "type": "address"
        }
      ],
      "name": "claimReward",
      "outputs": [],
      "payable": false,
      "stateMutability": "nonpayable",
      "type": "function"
    },
    {
      "constant": false,
      "inputs": [
        {
          "internalType": "uint8",
          "name": "rewardType",
          "type": "uint8"
        },
        {
          "internalType": "address payable",
          "name": "holder",
          "type": "address"
        },
        {
          "internalType": "contract JToken[]",
          "name": "jTokens",
          "type": "address[]"
        }
      ],
      "name": "claimReward",
      "outputs": [],
      "payable": false,
      "stateMutability": "nonpayable",
      "type": "function"
    },
    {
      "constant": false,
      "inputs": [
        {
          "internalType": "uint8",
          "name": "rewardType",
          "type": "uint8"
        },
        {
          "internalType": "address payable[]",
          "name": "holders",
          "type": "address[]"
        },
        {
          "internalType": "contract JToken[]",
          "name": "jTokens",
          "type": "address[]"
        },
        {
          "internalType": "bool",
          "name": "borrowers",
          "type": "bool"
        },
        {
          "internalType": "bool",
          "name": "suppliers",
          "type": "bool"
        }
      ],
      "name": "claimReward",
      "outputs": [],
      "payable": true,
      "stateMutability": "payable",
      "type": "function"
    },
    {
      "constant": true,
      "inputs": [],
      "name": "getBlockTimestamp",
      "outputs": [
        {
          "internalType": "uint256",
          "name": "",
          "type": "uint256"
        }
      ],
      "payable": false,
      "stateMutability": "view",
      "type": "function"
    },
    {
      "constant": false,
      "inputs": [],
      "name": "initialize",
      "outputs": [],
      "payable": false,
      "stateMutability": "nonpayable",
      "type": "function"
    },
    {
      "constant": true,
      "inputs": [],
      "name": "joeAddress",
      "outputs": [
        {
          "internalType": "address",
          "name": "",
          "type": "address"
        }
      ],
      "payable": false,
      "stateMutability": "view",
      "type": "function"
    },
    {
      "constant": true,
      "inputs": [],
      "name": "joetroller",
      "outputs": [
        {
          "internalType": "contract Joetroller",
          "name": "",
          "type": "address"
        }
      ],
      "payable": false,
      "stateMutability": "view",
      "type": "function"
    },
    {
      "constant": true,
      "inputs": [
        {
          "internalType": "uint8",
          "name": "",
          "type": "uint8"
        },
        {
          "internalType": "address",
          "name": "",
          "type": "address"
        }
      ],
      "name": "rewardAccrued",
      "outputs": [
        {
          "internalType": "uint256",
          "name": "",
          "type": "uint256"
        }
      ],
      "payable": false,
      "stateMutability": "view",
      "type": "function"
    },
    {
      "constant": true,
      "inputs": [
        {
          "internalType": "uint8",
          "name": "",
          "type": "uint8"
        },
        {
          "internalType": "address",
          "name": "",
          "type": "address"
        }
      ],
      "name": "rewardBorrowState",
      "outputs": [
        {
          "internalType": "uint224",
          "name": "index",
          "type": "uint224"
        },
        {
          "internalType": "uint32",
          "name": "timestamp",
          "type": "uint32"
        }
      ],
      "payable": false,
      "stateMutability": "view",
      "type": "function"
    },
    {
      "constant": true,
      "inputs": [
        {
          "internalType": "uint8",
          "name": "",
          "type": "uint8"
        },
        {
          "internalType": "address",
          "name": "",
          "type": "address"
        },
        {
          "internalType": "address",
          "name": "",
          "type": "address"
        }
      ],
      "name": "rewardBorrowerIndex",
      "outputs": [
        {
          "internalType": "uint256",
          "name": "",
          "type": "uint256"
        }
      ],
      "payable": false,
      "stateMutability": "view",
      "type": "function"
    },
    {
      "constant": true,
      "inputs": [],
      "name": "rewardInitialIndex",
      "outputs": [
        {
          "internalType": "uint224",
          "name": "",
          "type": "uint224"
        }
      ],
      "payable": false,
      "stateMutability": "view",
      "type": "function"
    },
    {
      "constant": true,
      "inputs": [
        {
          "internalType": "uint8",
          "name": "",
          "type": "uint8"
        },
        {
          "internalType": "address",
          "name": "",
          "type": "address"
        }
      ],
      "name": "rewardSpeeds",
      "outputs": [
        {
          "internalType": "uint256",
          "name": "",
          "type": "uint256"
        }
      ],
      "payable": false,
      "stateMutability": "view",
      "type": "function"
    },
    {
      "constant": true,
      "inputs": [
        {
          "internalType": "uint8",
          "name": "",
          "type": "uint8"
        },
        {
          "internalType": "address",
          "name": "",
          "type": "address"
        },
        {
          "internalType": "address",
          "name": "",
          "type": "address"
        }
      ],
      "name": "rewardSupplierIndex",
      "outputs": [
        {
          "internalType": "uint256",
          "name": "",
          "type": "uint256"
        }
      ],
      "payable": false,
      "stateMutability": "view",
      "type": "function"
    },
    {
      "constant": true,
      "inputs": [
        {
          "internalType": "uint8",
          "name": "",
          "type": "uint8"
        },
        {
          "internalType": "address",
          "name": "",
          "type": "address"
        }
      ],
      "name": "rewardSupplyState",
      "outputs": [
        {
          "internalType": "uint224",
          "name": "index",
          "type": "uint224"
        },
        {
          "internalType": "uint32",
          "name": "timestamp",
          "type": "uint32"
        }
      ],
      "payable": false,
      "stateMutability": "view",
      "type": "function"
    },
    {
      "constant": false,
      "inputs": [
        {
          "internalType": "address",
          "name": "_newAdmin",
          "type": "address"
        }
      ],
      "name": "setAdmin",
      "outputs": [],
      "payable": false,
      "stateMutability": "nonpayable",
      "type": "function"
    },
    {
      "constant": false,
      "inputs": [
        {
          "internalType": "address",
          "name": "newJoeAddress",
          "type": "address"
        }
      ],
      "name": "setJoeAddress",
      "outputs": [],
      "payable": false,
      "stateMutability": "nonpayable",
      "type": "function"
    },
    {
      "constant": false,
      "inputs": [
        {
          "internalType": "address",
          "name": "_joetroller",
          "type": "address"
        }
      ],
      "name": "setJoetroller",
      "outputs": [],
      "payable": false,
      "stateMutability": "nonpayable",
      "type": "function"
    },
    {
      "constant": false,
      "inputs": [
        {
          "internalType": "address",
          "name": "jToken",
          "type": "address"
        },
        {
          "internalType": "address",
          "name": "borrower",
          "type": "address"
        },
        {
          "components": [
            {
              "internalType": "uint256",
              "name": "mantissa",
              "type": "uint256"
            }
          ],
          "internalType": "struct Exponential.Exp",
          "name": "marketBorrowIndex",
          "type": "tuple"
        }
      ],
      "name": "updateAndDistributeBorrowerRewardsForToken",
      "outputs": [],
      "payable": false,
      "stateMutability": "nonpayable",
      "type": "function"
    },
    {
      "constant": false,
      "inputs": [
        {
          "internalType": "address",
          "name": "jToken",
          "type": "address"
        },
        {
          "internalType": "address",
          "name": "supplier",
          "type": "address"
        }
      ],
      "name": "updateAndDistributeSupplierRewardsForToken",
      "outputs": [],
      "payable": false,
      "stateMutability": "nonpayable",
      "type": "function"
    }
  ],
  "transactionHash": "0xbbea5548aea1461889328139c561e2eb07e9bd4c7719686d973f65395892fb99",
  "args": [],
  "solcInputHash": "1067d9f9d8b5a4587870380858c72082",
  "bytecode": "0x608060405234801561001057600080fd5b50600080546001600160a01b03191633179055612af6806100326000396000f3fe6080604052600436106101355760003560e01c80637937969d116100ab5780639c39e2931161006f5780639c39e2931461033c578063cb15d8e21461035c578063d81c5e451461037e578063f06639831461039e578063f851a440146103be578063fcc4cfd1146103d357610135565b80637937969d146102bf578063796b89b9146102df5780638129fc1c146102f45780638805714b1461030957806388e972b81461031c57610135565b80634b3a0a74116100fd5780634b3a0a74146101ed5780636330533c1461021b57806366f91a241461023d578063670e8afd1461025f578063704b6c021461027f578063744532ae1461029f57610135565b806305b9783d146101375780630952c5631461016d5780631f9f35111461018d5780632b7e3434146101ad5780632f32b11f146101cd575b005b34801561014357600080fd5b506101576101523660046122ac565b6103f3565b604051610164919061291e565b60405180910390f35b34801561017957600080fd5b506101356101883660046122ac565b610410565b34801561019957600080fd5b506101356101a8366004612170565b6104a3565b3480156101b957600080fd5b506101576101c83660046122ac565b6104f8565b3480156101d957600080fd5b506101356101e8366004612326565b610515565b3480156101f957600080fd5b5061020d6102083660046122ac565b6105aa565b604051610164929190612903565b34801561022757600080fd5b506102306105df565b6040516101649190612816565b34801561024957600080fd5b506102526105ee565b60405161016491906128f5565b34801561026b57600080fd5b5061013561027a366004612196565b610601565b34801561028b57600080fd5b5061013561029a366004612170565b610655565b3480156102ab57600080fd5b506101356102ba3660046122cb565b6106a1565b3480156102cb57600080fd5b506101576102da366004612369565b610705565b3480156102eb57600080fd5b50610157610728565b34801561030057600080fd5b5061013561072c565b6101356103173660046123ac565b61077d565b34801561032857600080fd5b50610157610337366004612369565b610ad1565b34801561034857600080fd5b506101356103573660046121d0565b610af4565b34801561036857600080fd5b50610371610b61565b60405161016491906127df565b34801561038a57600080fd5b5061020d6103993660046122ac565b610b70565b3480156103aa57600080fd5b506101356103b9366004612451565b610ba5565b3480156103ca57600080fd5b50610371610bf8565b3480156103df57600080fd5b506101356103ee366004612170565b610c07565b600760209081526000928352604080842090915290825290205481565b61049f8282600160009054906101000a90046001600160a01b03166001600160a01b031663b0772d0b6040518163ffffffff1660e01b815260040160006040518083038186803b15801561046357600080fd5b505afa158015610477573d6000803e3d6000fd5b505050506040513d6000823e601f3d908101601f191682016040526102ba919081019061221d565b5050565b6000546001600160a01b031633146104d65760405162461bcd60e51b81526004016104cd90612835565b60405180910390fd5b600180546001600160a01b0319166001600160a01b0392909216919091179055565b600260209081526000928352604080842090915290825290205481565b61051d610c53565b6105395760405162461bcd60e51b81526004016104cd90612885565b60006105498460ff168484610c7c565b905080156105695760405162461bcd60e51b81526004016104cd906128b5565b7fc6d3bad890aa15362e90611f8643bfafcf5b09a9d4781295bd7ba8adffa0371184848460405161059c9392919061292c565b60405180910390a150505050565b60046020908152600092835260408084209091529082529020546001600160e01b03811690600160e01b900463ffffffff1682565b6001546001600160a01b031681565b6ec097ce7bc90715b34b9f100000000081565b610609610c53565b6106255760405162461bcd60e51b81526004016104cd90612895565b60005b60018160ff16116106505761063d8184610e1d565b6106488184846110ee565b600101610628565b505050565b6000546001600160a01b0316331461067f5760405162461bcd60e51b81526004016104cd906128d5565b600080546001600160a01b0319166001600160a01b0392909216919091179055565b6040805160018082528183019092526060916020808301908038833901905050905082816000815181106106d157fe5b60200260200101906001600160a01b031690816001600160a01b0316815250506106ff84828460018061077d565b50505050565b600660209081526000938452604080852082529284528284209052825290205481565b4290565b600854600160a01b900460ff16156107565760405162461bcd60e51b81526004016104cd906128c5565b600180546001600160a01b031916331790556008805460ff60a01b1916600160a01b179055565b60018560ff1611156107a15760405162461bcd60e51b81526004016104cd906128a5565b60005b8351811015610ac95760008482815181106107bb57fe5b6020908102919091010151600154604051633d98a1e560e01b81529192506001600160a01b031690633d98a1e5906107f79084906004016127df565b60206040518083038186803b15801561080f57600080fd5b505afa158015610823573d6000803e3d6000fd5b505050506040513d601f19601f820116820180604052506108479190810190612252565b6108635760405162461bcd60e51b81526004016104cd90612875565b600184151514156109ee57610876611f5b565b6040518060200160405280836001600160a01b031663aa5af0fd6040518163ffffffff1660e01b815260040160206040518083038186803b1580156108ba57600080fd5b505afa1580156108ce573d6000803e3d6000fd5b505050506040513d601f19601f820116820180604052506108f2919081019061228e565b90529050610901888383611328565b60005b87518110156109eb5761092c89848a848151811061091e57fe5b60200260200101518561163a565b61099c8960ff1689838151811061093f57fe5b6020026020010151600760008d60ff1660ff16815260200190815260200160002060008c868151811061096e57fe5b60200260200101516001600160a01b03166001600160a01b0316815260200190815260200160002054610c7c565b60ff8a1660009081526007602052604081208a519091908b90859081106109bf57fe5b6020908102919091018101516001600160a01b0316825281019190915260400160002055600101610904565b50505b60018315151415610ac057610a038782610e1d565b60005b8651811015610abe57610a2d8883898481518110610a2057fe5b60200260200101516110ee565b610a6f8860ff16888381518110610a4057fe5b6020026020010151600760008c60ff1660ff16815260200190815260200160002060008b868151811061096e57fe5b60ff8916600090815260076020526040812089519091908a9085908110610a9257fe5b6020908102919091018101516001600160a01b0316825281019190915260400160002055600101610a06565b505b506001016107a4565b505050505050565b600560209081526000938452604080852082529284528284209052825290205481565b610afc610c53565b610b185760405162461bcd60e51b81526004016104cd90612855565b60005b60018160ff16116106ff57610b3f8185610b3a36869003860186612270565b611328565b610b59818585610b5436879003870187612270565b61163a565b600101610b1b565b6008546001600160a01b031681565b60036020908152600092835260408084209091529082529020546001600160e01b03811690600160e01b900463ffffffff1682565b60018360ff161115610bc95760405162461bcd60e51b81526004016104cd906128a5565b610bd1610c53565b610bed5760405162461bcd60e51b81526004016104cd906128e5565b610650838383611843565b6000546001600160a01b031681565b6000546001600160a01b03163314610c315760405162461bcd60e51b81526004016104cd90612845565b600880546001600160a01b0319166001600160a01b0392909216919091179055565b600080546001600160a01b0316331480610c7757506001546001600160a01b031633145b905090565b600083610db2576008546040516370a0823160e01b81526001600160a01b039091169060009082906370a0823190610cb89030906004016127ed565b60206040518083038186803b158015610cd057600080fd5b505afa158015610ce4573d6000803e3d6000fd5b505050506040513d601f19601f82011682018060405250610d08919081019061228e565b9050600084118015610d1a5750808411155b15610dab5760405163a9059cbb60e01b81526001600160a01b0383169063a9059cbb90610d4d90889088906004016127fb565b602060405180830381600087803b158015610d6757600080fd5b505af1158015610d7b573d6000803e3d6000fd5b505050506040513d601f19601f82011682018060405250610d9f9190810190612252565b50600092505050610e16565b5050610e13565b8360011415610e1357478215801590610dcb5750808311155b15610e11576040516001600160a01b0385169084156108fc029085906000818181858888f19350505050158015610e06573d6000803e3d6000fd5b506000915050610e16565b505b50805b9392505050565b60018260ff161115610e415760405162461bcd60e51b81526004016104cd906128a5565b60ff821660008181526003602090815260408083206001600160a01b0386168085529083528184209484526002835281842090845290915281205490610e85610728565b8354909150600090610ea5908390600160e01b900463ffffffff16611c69565b9050600081118015610eb75750600083115b15611094576000856001600160a01b03166318160ddd6040518163ffffffff1660e01b815260040160206040518083038186803b158015610ef757600080fd5b505afa158015610f0b573d6000803e3d6000fd5b505050506040513d601f19601f82011682018060405250610f2f919081019061228e565b90506000610f3d8386611cac565b9050610f47611f5b565b60008311610f645760405180602001604052806000815250610f6e565b610f6e8284611cee565b9050610f78611f5b565b604080516020810190915288546001600160e01b03168152610f9a9083611d2c565b90506040518060400160405280610fea83600001516040518060400160405280601a81526020017f6e657720696e6465782065786365656473203232342062697473000000000000815250611d51565b6001600160e01b03168152602001611025886040518060400160405280601f8152602001600080516020612a94833981519152815250611d80565b63ffffffff90811690915260ff8c1660009081526003602090815260408083206001600160a01b038f1684528252909120835181549490920151909216600160e01b026001600160e01b039182166001600160e01b0319909416939093171691909117905550610ac992505050565b8015610ac9576110c7826040518060400160405280601f8152602001600080516020612a94833981519152815250611d80565b845463ffffffff91909116600160e01b026001600160e01b03909116178455505050505050565b60018360ff1611156111125760405162461bcd60e51b81526004016104cd906128a5565b60ff831660009081526003602090815260408083206001600160a01b03861684529091529020611140611f5b565b50604080516020810190915281546001600160e01b03168152611161611f5b565b50604080516020808201835260ff88166000908152600582528381206001600160a01b03808a168352908352848220908816808352818452948220805485528651959092529091529190915580511580156111bc5750815115155b156111d4576ec097ce7bc90715b34b9f100000000081525b6111dc611f5b565b6111e68383611da8565b90506000866001600160a01b03166370a08231876040518263ffffffff1660e01b815260040161121691906127df565b60206040518083038186803b15801561122e57600080fd5b505afa158015611242573d6000803e3d6000fd5b505050506040513d601f19601f82011682018060405250611266919081019061228e565b905060006112748284611dcd565b60ff8a1660009081526007602090815260408083206001600160a01b038c168452909152812054919250906112a99083611dfc565b60ff8b1660009081526007602090815260408083206001600160a01b03808e168086529190935292819020849055895190519394509192908c16917faccd035d02c456be35306aecd5a5fe62320713dde09ccd68b0a5e8ed9303999991611314918f91889190612962565b60405180910390a350505050505050505050565b60018360ff16111561134c5760405162461bcd60e51b81526004016104cd906128a5565b60ff831660008181526004602090815260408083206001600160a01b0387168085529083528184209484526002835281842090845290915281205490611390610728565b83549091506000906113b0908390600160e01b900463ffffffff16611c69565b90506000811180156113c25750600083115b156115de576000611443876001600160a01b03166347bd37186040518163ffffffff1660e01b815260040160206040518083038186803b15801561140557600080fd5b505afa158015611419573d6000803e3d6000fd5b505050506040513d601f19601f8201168201806040525061143d919081019061228e565b87611e32565b905060006114518386611cac565b905061145b611f5b565b600083116114785760405180602001604052806000815250611482565b6114828284611cee565b905061148c611f5b565b604080516020810190915288546001600160e01b031681526114ae9083611d2c565b905060405180604001604052806114fe83600001516040518060400160405280601a81526020017f6e657720696e6465782065786365656473203232342062697473000000000000815250611d51565b6001600160e01b03168152602001611539886040518060400160405280601f8152602001600080516020612a94833981519152815250611d80565b63ffffffff16815250600460008d60ff1660ff16815260200190815260200160002060008c6001600160a01b03166001600160a01b0316815260200190815260200160002060008201518160000160006101000a8154816001600160e01b0302191690836001600160e01b03160217905550602082015181600001601c6101000a81548163ffffffff021916908363ffffffff16021790555090505050505050611631565b801561163157611611826040518060400160405280601f8152602001600080516020612a94833981519152815250611d80565b845463ffffffff91909116600160e01b026001600160e01b039091161784555b50505050505050565b60018460ff16111561165e5760405162461bcd60e51b81526004016104cd906128a5565b60ff841660009081526004602090815260408083206001600160a01b0387168452909152902061168c611f5b565b50604080516020810190915281546001600160e01b031681526116ad611f5b565b50604080516020808201835260ff89166000908152600682528381206001600160a01b03808b168352908352848220908916808352818452948220805485528651959092529091529190915580511561163157611708611f5b565b6117128383611da8565b9050600061175d886001600160a01b03166395dd9193896040518263ffffffff1660e01b815260040161174591906127df565b60206040518083038186803b15801561140557600080fd5b9050600061176b8284611dcd565b60ff8b1660009081526007602090815260408083206001600160a01b038d168452909152812054919250906117a09083611dfc565b905080600760008d60ff1660ff16815260200190815260200160002060008b6001600160a01b03166001600160a01b0316815260200190815260200160002081905550886001600160a01b03168a6001600160a01b03167fa1b6a046664a0ecf068059f26de56878f8d0e799907ca2e42d9148ccbdc717a78d858a6000015160405161182e93929190612962565b60405180910390a35050505050505050505050565b60ff831660009081526002602090815260408083206001600160a01b0386168452909152902054801561191357611878611f5b565b6040518060200160405280856001600160a01b031663aa5af0fd6040518163ffffffff1660e01b815260040160206040518083038186803b1580156118bc57600080fd5b505afa1580156118d0573d6000803e3d6000fd5b505050506040513d601f19601f820116820180604052506118f4919081019061228e565b905290506119028585610e1d565b61190d858583611328565b50611bf8565b8115611bf857600154604051633d98a1e560e01b81526001600160a01b0390911690633d98a1e5906119499086906004016127df565b60206040518083038186803b15801561196157600080fd5b505afa158015611975573d6000803e3d6000fd5b505050506040513d601f19601f820116820180604052506119999190810190612252565b6119b55760405162461bcd60e51b81526004016104cd90612865565b60ff841660009081526003602090815260408083206001600160a01b03871684529091529020546001600160e01b0316158015611a23575060ff841660009081526003602090815260408083206001600160a01b0387168452909152902054600160e01b900463ffffffff16155b15611aeb5760405180604001604052806ec097ce7bc90715b34b9f10000000006001600160e01b03168152602001611a85611a5c610728565b6040518060400160405280601f8152602001600080516020612a94833981519152815250611d80565b63ffffffff90811690915260ff861660009081526003602090815260408083206001600160a01b03891684528252909120835181549490920151909216600160e01b026001600160e01b039182166001600160e01b031990941693909317169190911790555b60ff841660009081526004602090815260408083206001600160a01b03871684529091529020546001600160e01b0316158015611b59575060ff841660009081526004602090815260408083206001600160a01b0387168452909152902054600160e01b900463ffffffff16155b15611bf85760405180604001604052806ec097ce7bc90715b34b9f10000000006001600160e01b03168152602001611b92611a5c610728565b63ffffffff90811690915260ff861660009081526004602090815260408083206001600160a01b03891684528252909120835181549490920151909216600160e01b026001600160e01b039182166001600160e01b031990941693909317169190911790555b8181146106ff5760ff841660009081526002602090815260408083206001600160a01b03871680855292529182902084905590517fbcd6f688f6b32a7abece90e35e19187f0d25af4d6661fe99791a3b69a2defded90611c5b9087908690612954565b60405180910390a250505050565b6000611ca38383604051806040016040528060158152602001747375627472616374696f6e20756e646572666c6f7760581b815250611e50565b90505b92915050565b6000611ca383836040518060400160405280601781526020017f6d756c7469706c69636174696f6e206f766572666c6f77000000000000000000815250611e7c565b611cf6611f5b565b6040518060200160405280611d23611d1d866ec097ce7bc90715b34b9f1000000000611cac565b85611ecd565b90529392505050565b611d34611f5b565b6040518060200160405280611d2385600001518560000151611dfc565b600081600160e01b8410611d785760405162461bcd60e51b81526004016104cd9190612824565b509192915050565b6000816401000000008410611d785760405162461bcd60e51b81526004016104cd9190612824565b611db0611f5b565b6040518060200160405280611d2385600001518560000151611c69565b60006ec097ce7bc90715b34b9f1000000000611ded848460000151611cac565b81611df457fe5b049392505050565b6000611ca38383604051806040016040528060118152602001706164646974696f6e206f766572666c6f7760781b815250611f00565b6000611ca3611e4984670de0b6b3a7640000611cac565b8351611ecd565b60008184841115611e745760405162461bcd60e51b81526004016104cd9190612824565b505050900390565b6000831580611e89575082155b15611e9657506000610e16565b83830283858281611ea357fe5b04148390611ec45760405162461bcd60e51b81526004016104cd9190612824565b50949350505050565b6000611ca383836040518060400160405280600e81526020016d646976696465206279207a65726f60901b815250611f27565b60008383018285821015611ec45760405162461bcd60e51b81526004016104cd9190612824565b60008183611f485760405162461bcd60e51b81526004016104cd9190612824565b50828481611f5257fe5b04949350505050565b6040518060200160405280600081525090565b8035611ca681612a58565b600082601f830112611f8a57600080fd5b8135611f9d611f98826129a4565b61297d565b91508181835260208401935060208101905083856020840282011115611fc257600080fd5b60005b83811015611fee5781611fd88882611f6e565b8452506020928301929190910190600101611fc5565b5050505092915050565b600082601f83011261200957600080fd5b8135612017611f98826129a4565b9150818183526020840193506020810190508385602084028201111561203c57600080fd5b60005b83811015611fee578161205288826120ee565b845250602092830192919091019060010161203f565b600082601f83011261207957600080fd5b8151612087611f98826129a4565b915081818352602084019350602081019050838560208402820111156120ac57600080fd5b60005b83811015611fee57816120c288826120f9565b84525060209283019291909101906001016120af565b8035611ca681612a6f565b8051611ca681612a6f565b8035611ca681612a78565b8051611ca681612a78565b60006020828403121561211657600080fd5b50919050565b60006020828403121561212e57600080fd5b612138602061297d565b90506000612146848461214f565b82525092915050565b8035611ca681612a81565b8051611ca681612a81565b8035611ca681612a8a565b60006020828403121561218257600080fd5b600061218e8484611f6e565b949350505050565b600080604083850312156121a957600080fd5b60006121b58585611f6e565b92505060206121c685828601611f6e565b9150509250929050565b6000806000606084860312156121e557600080fd5b60006121f18686611f6e565b935050602061220286828701611f6e565b925050604061221386828701612104565b9150509250925092565b60006020828403121561222f57600080fd5b815167ffffffffffffffff81111561224657600080fd5b61218e84828501612068565b60006020828403121561226457600080fd5b600061218e84846120e3565b60006020828403121561228257600080fd5b600061218e848461211c565b6000602082840312156122a057600080fd5b600061218e848461215a565b600080604083850312156122bf57600080fd5b60006121b58585612165565b6000806000606084860312156122e057600080fd5b60006122ec8686612165565b93505060206122fd86828701611f6e565b925050604084013567ffffffffffffffff81111561231a57600080fd5b61221386828701611ff8565b60008060006060848603121561233b57600080fd5b60006123478686612165565b935050602061235886828701611f6e565b92505060406122138682870161214f565b60008060006060848603121561237e57600080fd5b600061238a8686612165565b935050602061239b86828701611f6e565b925050604061221386828701611f6e565b600080600080600060a086880312156123c457600080fd5b60006123d08888612165565b955050602086013567ffffffffffffffff8111156123ed57600080fd5b6123f988828901611f79565b945050604086013567ffffffffffffffff81111561241657600080fd5b61242288828901611ff8565b9350506060612433888289016120d8565b9250506080612444888289016120d8565b9150509295509295909350565b60008060006060848603121561246657600080fd5b60006124728686612165565b9350506020612358868287016120ee565b61248c81612a17565b82525050565b61248c816129d2565b61248c816129e2565b60006124af826129c5565b6124b981856129c9565b93506124c9818560208601612a22565b6124d281612a4e565b9093019392505050565b60006124e9601d836129c9565b7f6f6e6c792061646d696e2063616e20736574204a6f6574726f6c6c6572000000815260200192915050565b60006125226016836129c9565b756f6e6c792061646d696e2063616e20736574204a4f4560501b815260200192915050565b60006125546035836129c9565b7f6f6e6c792061646d696e2063616e2075706461746520616e64206469737472698152746275746520626f72726f776572207265776172647360581b602082015260400192915050565b60006125ab601b836129c9565b7f726577617264206d61726b6574206973206e6f74206c69737465640000000000815260200192915050565b60006125e46015836129c9565b741b585c9ad95d081b5d5cdd081899481b1a5cdd1959605a1b815260200192915050565b60006126156018836129c9565b7f6f6e6c792061646d696e2063616e206772616e74206a6f650000000000000000815260200192915050565b600061264e6035836129c9565b7f6f6e6c792061646d696e2063616e2075706461746520616e64206469737472698152746275746520737570706c696572207265776172647360581b602082015260400192915050565b60006126a56015836129c9565b741c995dd85c99151e5c19481a5cc81a5b9d985b1a59605a1b815260200192915050565b60006126d6601a836129c9565b7f696e73756666696369656e74206a6f6520666f72206772616e74000000000000815260200192915050565b600061270f6025836129c9565b7f5265776172644469737472696275746f7220616c726561647920696e697469618152641b1a5e995960da1b602082015260400192915050565b60006127566018836129c9565b7f6f6e6c792061646d696e2063616e207365742061646d696e0000000000000000815260200192915050565b600061278f601f836129c9565b7f6f6e6c792061646d696e2063616e207365742072657761726420737065656400815260200192915050565b61248c816129f9565b61248c81612a05565b61248c81612a08565b61248c81612a11565b60208101611ca68284612492565b60208101611ca68284612483565b604081016128098285612483565b610e1660208301846127c4565b60208101611ca6828461249b565b60208082528101611ca381846124a4565b60208082528101611ca6816124dc565b60208082528101611ca681612515565b60208082528101611ca681612547565b60208082528101611ca68161259e565b60208082528101611ca6816125d7565b60208082528101611ca681612608565b60208082528101611ca681612641565b60208082528101611ca681612698565b60208082528101611ca6816126c9565b60208082528101611ca681612702565b60208082528101611ca681612749565b60208082528101611ca681612782565b60208101611ca682846127bb565b6040810161291182856127bb565b610e1660208301846127cd565b60208101611ca682846127c4565b6060810161293a82866127d6565b6129476020830185612483565b61218e60408301846127c4565b6040810161280982856127d6565b6060810161297082866127d6565b61294760208301856127c4565b60405181810167ffffffffffffffff8111828210171561299c57600080fd5b604052919050565b600067ffffffffffffffff8211156129bb57600080fd5b5060209081020190565b5190565b90815260200190565b6000611ca6826129ed565b151590565b6000611ca6826129d2565b6001600160a01b031690565b6001600160e01b031690565b90565b63ffffffff1690565b60ff1690565b6000611ca6826129e2565b60005b83811015612a3d578181015183820152602001612a25565b838111156106ff5750506000910152565b601f01601f191690565b612a61816129d2565b8114612a6c57600080fd5b50565b612a61816129dd565b612a61816129e2565b612a6181612a05565b612a6181612a1156fe626c6f636b2074696d657374616d702065786365656473203332206269747300a365627a7a723158202a20ae0040d2d9fecbc0add9b009ece287f2caa9edec19baa6eb970c5e0322406c6578706572696d656e74616cf564736f6c63430005100040",
  "devdoc": {
    "methods": {
      "_grantReward(uint8,address,uint256)": {
        "details": "Note: If there is not enough JOE, we do not perform the transfer all.",
        "params": {
          "amount": "The amount of JOE to (possibly) transfer",
          "recipient": "The address of the recipient to transfer JOE to"
        }
      },
      "_setRewardSpeed(uint8,address,uint256)": {
        "params": {
          "jToken": "The market whose reward speed to update",
          "rewardSpeed": "New reward speed for market",
          "rewardType": "0 = QI, 1 = AVAX"
        }
      },
      "claimReward(uint8,address)": {
        "params": {
          "holder": "The address to claim JOE/AVAX for"
        }
      },
      "claimReward(uint8,address,address[])": {
        "params": {
          "holder": "The address to claim JOE/AVAX for",
          "jTokens": "The list of markets to claim JOE/AVAX in"
        }
      },
      "claimReward(uint8,address[],address[],bool,bool)": {
        "params": {
          "borrowers": "Whether or not to claim JOE/AVAX earned by borrowing",
          "holders": "The addresses to claim JOE/AVAX for",
          "jTokens": "The list of markets to claim JOE/AVAX in",
          "rewardType": "0 = JOE, 1 = AVAX",
          "suppliers": "Whether or not to claim JOE/AVAX earned by supplying"
        }
      },
      "updateAndDistributeBorrowerRewardsForToken(address,address,(uint256))": {
        "params": {
          "borrower": "Borrower to be rewarded",
          "jToken": "The market to verify the mint against"
        }
      },
      "updateAndDistributeSupplierRewardsForToken(address,address)": {
        "params": {
          "jToken": "The market to verify the mint against",
          "supplier": "The supplier to be rewarded"
        }
      }
    }
  },
  "userdoc": {
    "methods": {
      "_grantReward(uint8,address,uint256)": {
        "notice": "Transfer JOE to the recipient"
      },
      "_setRewardSpeed(uint8,address,uint256)": {
        "notice": "Set JOE/AVAX speed for a single market"
      },
      "claimReward(uint8,address)": {
        "notice": "Claim all the JOE/AVAX accrued by holder in all markets"
      },
      "claimReward(uint8,address,address[])": {
        "notice": "Claim all the JOE/AVAX accrued by holder in the specified markets"
      },
      "claimReward(uint8,address[],address[],bool,bool)": {
        "notice": "Claim all JOE/AVAX  accrued by the holders"
      },
      "setAdmin(address)": {
        "notice": "Set the admin"
      },
      "setJoeAddress(address)": {
        "notice": "Set the JOE token address"
      },
      "setJoetroller(address)": {
        "notice": "Set the Joetroller address"
      },
      "updateAndDistributeBorrowerRewardsForToken(address,address,(uint256))": {
        "notice": "Refactored function to calc and rewards accounts supplier rewards"
      },
      "updateAndDistributeSupplierRewardsForToken(address,address)": {
        "notice": "Refactored function to calc and rewards accounts supplier rewards"
      }
    }
  },
  "storageLayout": {
    "storage": [
      {
        "astId": 24054,
        "contract": "contracts/RewardDistributor.sol:RewardDistributor",
        "label": "admin",
        "offset": 0,
        "slot": "0",
        "type": "t_address"
      },
      {
        "astId": 24056,
        "contract": "contracts/RewardDistributor.sol:RewardDistributor",
        "label": "joetroller",
        "offset": 0,
        "slot": "1",
        "type": "t_contract(Joetroller)21149"
      },
      {
        "astId": 24067,
        "contract": "contracts/RewardDistributor.sol:RewardDistributor",
        "label": "rewardSpeeds",
        "offset": 0,
        "slot": "2",
        "type": "t_mapping(t_uint8,t_mapping(t_address,t_uint256))"
      },
      {
        "astId": 24073,
        "contract": "contracts/RewardDistributor.sol:RewardDistributor",
        "label": "rewardSupplyState",
        "offset": 0,
        "slot": "3",
        "type": "t_mapping(t_uint8,t_mapping(t_address,t_struct(RewardMarketState)24061_storage))"
      },
      {
        "astId": 24079,
        "contract": "contracts/RewardDistributor.sol:RewardDistributor",
        "label": "rewardBorrowState",
        "offset": 0,
        "slot": "4",
        "type": "t_mapping(t_uint8,t_mapping(t_address,t_struct(RewardMarketState)24061_storage))"
      },
      {
        "astId": 24087,
        "contract": "contracts/RewardDistributor.sol:RewardDistributor",
        "label": "rewardSupplierIndex",
        "offset": 0,
        "slot": "5",
        "type": "t_mapping(t_uint8,t_mapping(t_address,t_mapping(t_address,t_uint256)))"
      },
      {
        "astId": 24095,
        "contract": "contracts/RewardDistributor.sol:RewardDistributor",
        "label": "rewardBorrowerIndex",
        "offset": 0,
        "slot": "6",
        "type": "t_mapping(t_uint8,t_mapping(t_address,t_mapping(t_address,t_uint256)))"
      },
      {
        "astId": 24101,
        "contract": "contracts/RewardDistributor.sol:RewardDistributor",
        "label": "rewardAccrued",
        "offset": 0,
        "slot": "7",
        "type": "t_mapping(t_uint8,t_mapping(t_address,t_uint256))"
      },
      {
        "astId": 24106,
        "contract": "contracts/RewardDistributor.sol:RewardDistributor",
        "label": "joeAddress",
        "offset": 0,
        "slot": "8",
        "type": "t_address"
      },
      {
        "astId": 24153,
        "contract": "contracts/RewardDistributor.sol:RewardDistributor",
        "label": "initialized",
        "offset": 20,
        "slot": "8",
        "type": "t_bool"
      }
    ],
    "types": {
      "t_address": {
        "encoding": "inplace",
        "label": "address",
        "numberOfBytes": "20"
      },
      "t_bool": {
        "encoding": "inplace",
        "label": "bool",
        "numberOfBytes": "1"
      },
      "t_contract(Joetroller)21149": {
        "encoding": "inplace",
        "label": "contract Joetroller",
        "numberOfBytes": "20"
      },
      "t_mapping(t_address,t_mapping(t_address,t_uint256))": {
        "encoding": "mapping",
        "key": "t_address",
        "label": "mapping(address => mapping(address => uint256))",
        "numberOfBytes": "32",
        "value": "t_mapping(t_address,t_uint256)"
      },
      "t_mapping(t_address,t_struct(RewardMarketState)24061_storage)": {
        "encoding": "mapping",
        "key": "t_address",
        "label": "mapping(address => struct RewardDistributorStorage.RewardMarketState)",
        "numberOfBytes": "32",
        "value": "t_struct(RewardMarketState)24061_storage"
      },
      "t_mapping(t_address,t_uint256)": {
        "encoding": "mapping",
        "key": "t_address",
        "label": "mapping(address => uint256)",
        "numberOfBytes": "32",
        "value": "t_uint256"
      },
      "t_mapping(t_uint8,t_mapping(t_address,t_mapping(t_address,t_uint256)))": {
        "encoding": "mapping",
        "key": "t_uint8",
        "label": "mapping(uint8 => mapping(address => mapping(address => uint256)))",
        "numberOfBytes": "32",
        "value": "t_mapping(t_address,t_mapping(t_address,t_uint256))"
      },
      "t_mapping(t_uint8,t_mapping(t_address,t_struct(RewardMarketState)24061_storage))": {
        "encoding": "mapping",
        "key": "t_uint8",
        "label": "mapping(uint8 => mapping(address => struct RewardDistributorStorage.RewardMarketState))",
        "numberOfBytes": "32",
        "value": "t_mapping(t_address,t_struct(RewardMarketState)24061_storage)"
      },
      "t_mapping(t_uint8,t_mapping(t_address,t_uint256))": {
        "encoding": "mapping",
        "key": "t_uint8",
        "label": "mapping(uint8 => mapping(address => uint256))",
        "numberOfBytes": "32",
        "value": "t_mapping(t_address,t_uint256)"
      },
      "t_struct(RewardMarketState)24061_storage": {
        "encoding": "inplace",
        "label": "struct RewardDistributorStorage.RewardMarketState",
        "members": [
          {
            "astId": 24058,
            "contract": "contracts/RewardDistributor.sol:RewardDistributor",
            "label": "index",
            "offset": 0,
            "slot": "0",
            "type": "t_uint224"
          },
          {
            "astId": 24060,
            "contract": "contracts/RewardDistributor.sol:RewardDistributor",
            "label": "timestamp",
            "offset": 28,
            "slot": "0",
            "type": "t_uint32"
          }
        ],
        "numberOfBytes": "32"
      },
      "t_uint224": {
        "encoding": "inplace",
        "label": "uint224",
        "numberOfBytes": "28"
      },
      "t_uint256": {
        "encoding": "inplace",
        "label": "uint256",
        "numberOfBytes": "32"
      },
      "t_uint32": {
        "encoding": "inplace",
        "label": "uint32",
        "numberOfBytes": "4"
      },
      "t_uint8": {
        "encoding": "inplace",
        "label": "uint8",
        "numberOfBytes": "1"
      }
    }
  }
}