{
  "address": "0xd7571Dc75B322a9297e5a799f7E6E94Ce672d6f8",
  "abi": [
    {
      "anonymous": false,
      "inputs": [
        {
          "indexed": false,
          "internalType": "uint8",
          "name": "rewardType",
          "type": "uint8"
        },
        {
          "indexed": true,
          "internalType": "address",
          "name": "user",
          "type": "address"
        },
        {
          "indexed": false,
          "internalType": "uint256",
          "name": "amount",
          "type": "uint256"
        }
      ],
      "name": "AccruedRewardsSet",
      "type": "event"
    },
    {
      "anonymous": false,
      "inputs": [
        {
          "indexed": false,
          "internalType": "address",
          "name": "oldAdmin",
          "type": "address"
        },
        {
          "indexed": false,
          "internalType": "address",
          "name": "newAdmin",
          "type": "address"
        }
      ],
      "name": "AdminTransferred",
      "type": "event"
    },
    {
      "anonymous": false,
      "inputs": [
        {
          "indexed": false,
          "internalType": "uint8",
          "name": "rewardType",
          "type": "uint8"
        },
        {
          "indexed": true,
          "internalType": "contract IJToken",
          "name": "jToken",
          "type": "address"
        },
        {
          "indexed": true,
          "internalType": "address",
          "name": "borrower",
          "type": "address"
        },
        {
          "indexed": false,
          "internalType": "uint256",
          "name": "rewardDelta",
          "type": "uint256"
        },
        {
          "indexed": false,
          "internalType": "uint256",
          "name": "rewardBorrowIndex",
          "type": "uint256"
        }
      ],
      "name": "DistributedBorrowerReward",
      "type": "event"
    },
    {
      "anonymous": false,
      "inputs": [
        {
          "indexed": false,
          "internalType": "uint8",
          "name": "rewardType",
          "type": "uint8"
        },
        {
          "indexed": true,
          "internalType": "contract IJToken",
          "name": "jToken",
          "type": "address"
        },
        {
          "indexed": true,
          "internalType": "address",
          "name": "supplier",
          "type": "address"
        },
        {
          "indexed": false,
          "internalType": "uint256",
          "name": "rewardDelta",
          "type": "uint256"
        },
        {
          "indexed": false,
          "internalType": "uint256",
          "name": "rewardSupplyIndex",
          "type": "uint256"
        }
      ],
      "name": "DistributedSupplierReward",
      "type": "event"
    },
    {
      "anonymous": false,
      "inputs": [],
      "name": "InitializeRewardAccruedLocked",
      "type": "event"
    },
    {
      "anonymous": false,
      "inputs": [
        {
          "indexed": true,
          "internalType": "contract EIP20Interface",
          "name": "joe",
          "type": "address"
        }
      ],
      "name": "JoeSet",
      "type": "event"
    },
    {
      "anonymous": false,
      "inputs": [
        {
          "indexed": true,
          "internalType": "contract IJoetroller",
          "name": "newJoetroller",
          "type": "address"
        }
      ],
      "name": "JoetrollerSet",
      "type": "event"
    },
    {
      "anonymous": false,
      "inputs": [
        {
          "indexed": false,
          "internalType": "uint8",
          "name": "rewardType",
          "type": "uint8"
        },
        {
          "indexed": true,
          "internalType": "contract IJToken",
          "name": "jToken",
          "type": "address"
        },
        {
          "indexed": false,
          "internalType": "uint256",
          "name": "newSpeed",
          "type": "uint256"
        }
      ],
      "name": "RewardBorrowSpeedUpdated",
      "type": "event"
    },
    {
      "anonymous": false,
      "inputs": [
        {
          "indexed": false,
          "internalType": "uint8",
          "name": "rewardType",
          "type": "uint8"
        },
        {
          "indexed": false,
          "internalType": "address",
          "name": "recipient",
          "type": "address"
        },
        {
          "indexed": false,
          "internalType": "uint256",
          "name": "amount",
          "type": "uint256"
        }
      ],
      "name": "RewardGranted",
      "type": "event"
    },
    {
      "anonymous": false,
      "inputs": [
        {
          "indexed": false,
          "internalType": "uint8",
          "name": "rewardType",
          "type": "uint8"
        },
        {
          "indexed": true,
          "internalType": "contract IJToken",
          "name": "jToken",
          "type": "address"
        },
        {
          "indexed": false,
          "internalType": "uint256",
          "name": "newSpeed",
          "type": "uint256"
        }
      ],
      "name": "RewardSupplySpeedUpdated",
      "type": "event"
    },
    {
      "payable": true,
      "stateMutability": "payable",
      "type": "fallback"
    },
    {
      "constant": true,
      "inputs": [],
      "name": "admin",
      "outputs": [
        {
          "internalType": "address",
          "name": "",
          "type": "address"
        }
      ],
      "payable": false,
      "stateMutability": "view",
      "type": "function"
    },
    {
      "constant": false,
      "inputs": [
        {
          "internalType": "uint8",
          "name": "rewardType",
          "type": "uint8"
        },
        {
          "internalType": "address payable",
          "name": "holder",
          "type": "address"
        }
      ],
      "name": "claimReward",
      "outputs": [],
      "payable": false,
      "stateMutability": "nonpayable",
      "type": "function"
    },
    {
      "constant": false,
      "inputs": [
        {
          "internalType": "uint8",
          "name": "rewardType",
          "type": "uint8"
        },
        {
          "internalType": "address payable",
          "name": "holder",
          "type": "address"
        },
        {
          "internalType": "contract IJToken[]",
          "name": "jTokens",
          "type": "address[]"
        }
      ],
      "name": "claimReward",
      "outputs": [],
      "payable": false,
      "stateMutability": "nonpayable",
      "type": "function"
    },
    {
      "constant": false,
      "inputs": [
        {
          "internalType": "uint8",
          "name": "rewardType",
          "type": "uint8"
        },
        {
          "internalType": "address payable[]",
          "name": "holders",
          "type": "address[]"
        },
        {
          "internalType": "contract IJToken[]",
          "name": "jTokens",
          "type": "address[]"
        },
        {
          "internalType": "bool",
          "name": "borrowers",
          "type": "bool"
        },
        {
          "internalType": "bool",
          "name": "suppliers",
          "type": "bool"
        }
      ],
      "name": "claimReward",
      "outputs": [],
      "payable": false,
      "stateMutability": "nonpayable",
      "type": "function"
    },
    {
      "constant": false,
      "inputs": [
        {
          "internalType": "uint8",
          "name": "rewardType",
          "type": "uint8"
        },
        {
          "internalType": "address payable",
          "name": "recipient",
          "type": "address"
        },
        {
          "internalType": "uint256",
          "name": "amount",
          "type": "uint256"
        }
      ],
      "name": "grantReward",
      "outputs": [],
      "payable": false,
      "stateMutability": "nonpayable",
      "type": "function"
    },
    {
      "constant": false,
      "inputs": [],
      "name": "initialize",
      "outputs": [],
      "payable": false,
      "stateMutability": "nonpayable",
      "type": "function"
    },
    {
      "constant": false,
      "inputs": [
        {
          "internalType": "uint8",
          "name": "rewardType",
          "type": "uint8"
        },
        {
          "internalType": "address[]",
          "name": "users",
          "type": "address[]"
        },
        {
          "internalType": "uint256[]",
          "name": "amounts",
          "type": "uint256[]"
        }
      ],
      "name": "initializeRewardAccrued",
      "outputs": [],
      "payable": false,
      "stateMutability": "nonpayable",
      "type": "function"
    },
    {
      "constant": true,
      "inputs": [],
      "name": "isInitializeRewardAccruedLocked",
      "outputs": [
        {
          "internalType": "bool",
          "name": "",
          "type": "bool"
        }
      ],
      "payable": false,
      "stateMutability": "view",
      "type": "function"
    },
    {
      "constant": true,
      "inputs": [],
      "name": "joe",
      "outputs": [
        {
          "internalType": "contract EIP20Interface",
          "name": "",
          "type": "address"
        }
      ],
      "payable": false,
      "stateMutability": "view",
      "type": "function"
    },
    {
      "constant": true,
      "inputs": [],
      "name": "joetroller",
      "outputs": [
        {
          "internalType": "contract IJoetroller",
          "name": "",
          "type": "address"
        }
      ],
      "payable": false,
      "stateMutability": "view",
      "type": "function"
    },
    {
      "constant": false,
      "inputs": [],
      "name": "lockInitializeRewardAccrued",
      "outputs": [],
      "payable": false,
      "stateMutability": "nonpayable",
      "type": "function"
    },
    {
      "constant": true,
      "inputs": [
        {
          "internalType": "uint8",
          "name": "rewardType",
          "type": "uint8"
        },
        {
          "internalType": "address",
          "name": "holder",
          "type": "address"
        }
      ],
      "name": "pendingReward",
      "outputs": [
        {
          "internalType": "uint256",
          "name": "",
          "type": "uint256"
        }
      ],
      "payable": false,
      "stateMutability": "view",
      "type": "function"
    },
    {
      "constant": true,
      "inputs": [
        {
          "internalType": "uint8",
          "name": "",
          "type": "uint8"
        },
        {
          "internalType": "address",
          "name": "",
          "type": "address"
        }
      ],
      "name": "rewardAccrued",
      "outputs": [
        {
          "internalType": "uint256",
          "name": "",
          "type": "uint256"
        }
      ],
      "payable": false,
      "stateMutability": "view",
      "type": "function"
    },
    {
      "constant": true,
      "inputs": [
        {
          "internalType": "uint8",
          "name": "",
          "type": "uint8"
        },
        {
          "internalType": "address",
          "name": "",
          "type": "address"
        }
      ],
      "name": "rewardBorrowSpeeds",
      "outputs": [
        {
          "internalType": "uint256",
          "name": "",
          "type": "uint256"
        }
      ],
      "payable": false,
      "stateMutability": "view",
      "type": "function"
    },
    {
      "constant": true,
      "inputs": [
        {
          "internalType": "uint8",
          "name": "",
          "type": "uint8"
        },
        {
          "internalType": "address",
          "name": "",
          "type": "address"
        }
      ],
      "name": "rewardBorrowState",
      "outputs": [
        {
          "internalType": "uint208",
          "name": "index",
          "type": "uint208"
        },
        {
          "internalType": "uint48",
          "name": "timestamp",
          "type": "uint48"
        }
      ],
      "payable": false,
      "stateMutability": "view",
      "type": "function"
    },
    {
      "constant": true,
      "inputs": [
        {
          "internalType": "uint8",
          "name": "",
          "type": "uint8"
        },
        {
          "internalType": "address",
          "name": "",
          "type": "address"
        },
        {
          "internalType": "address",
          "name": "",
          "type": "address"
        }
      ],
      "name": "rewardBorrowerIndex",
      "outputs": [
        {
          "internalType": "uint256",
          "name": "",
          "type": "uint256"
        }
      ],
      "payable": false,
      "stateMutability": "view",
      "type": "function"
    },
    {
      "constant": true,
      "inputs": [
        {
          "internalType": "uint8",
          "name": "",
          "type": "uint8"
        },
        {
          "internalType": "address",
          "name": "",
          "type": "address"
        },
        {
          "internalType": "address",
          "name": "",
          "type": "address"
        }
      ],
      "name": "rewardSupplierIndex",
      "outputs": [
        {
          "internalType": "uint256",
          "name": "",
          "type": "uint256"
        }
      ],
      "payable": false,
      "stateMutability": "view",
      "type": "function"
    },
    {
      "constant": true,
      "inputs": [
        {
          "internalType": "uint8",
          "name": "",
          "type": "uint8"
        },
        {
          "internalType": "address",
          "name": "",
          "type": "address"
        }
      ],
      "name": "rewardSupplySpeeds",
      "outputs": [
        {
          "internalType": "uint256",
          "name": "",
          "type": "uint256"
        }
      ],
      "payable": false,
      "stateMutability": "view",
      "type": "function"
    },
    {
      "constant": true,
      "inputs": [
        {
          "internalType": "uint8",
          "name": "",
          "type": "uint8"
        },
        {
          "internalType": "address",
          "name": "",
          "type": "address"
        }
      ],
      "name": "rewardSupplyState",
      "outputs": [
        {
          "internalType": "uint208",
          "name": "index",
          "type": "uint208"
        },
        {
          "internalType": "uint48",
          "name": "timestamp",
          "type": "uint48"
        }
      ],
      "payable": false,
      "stateMutability": "view",
      "type": "function"
    },
    {
      "constant": false,
      "inputs": [
        {
          "internalType": "address",
          "name": "newAdmin",
          "type": "address"
        }
      ],
      "name": "setAdmin",
      "outputs": [],
      "payable": false,
      "stateMutability": "nonpayable",
      "type": "function"
    },
    {
      "constant": false,
      "inputs": [
        {
          "internalType": "contract EIP20Interface",
          "name": "_joe",
          "type": "address"
        }
      ],
      "name": "setJoe",
      "outputs": [],
      "payable": false,
      "stateMutability": "nonpayable",
      "type": "function"
    },
    {
      "constant": false,
      "inputs": [
        {
          "internalType": "contract IJoetroller",
          "name": "_joetroller",
          "type": "address"
        }
      ],
      "name": "setJoetroller",
      "outputs": [],
      "payable": false,
      "stateMutability": "nonpayable",
      "type": "function"
    },
    {
      "constant": false,
      "inputs": [
        {
          "internalType": "uint8",
          "name": "rewardType",
          "type": "uint8"
        },
        {
          "internalType": "contract IJToken",
          "name": "jToken",
          "type": "address"
        },
        {
          "internalType": "uint256",
          "name": "rewardSupplySpeed",
          "type": "uint256"
        },
        {
          "internalType": "uint256",
          "name": "rewardBorrowSpeed",
          "type": "uint256"
        }
      ],
      "name": "setRewardSpeed",
      "outputs": [],
      "payable": false,
      "stateMutability": "nonpayable",
      "type": "function"
    },
    {
      "constant": false,
      "inputs": [
        {
          "internalType": "contract IJToken",
          "name": "jToken",
          "type": "address"
        },
        {
          "internalType": "address",
          "name": "borrower",
          "type": "address"
        },
        {
          "components": [
            {
              "internalType": "uint256",
              "name": "mantissa",
              "type": "uint256"
            }
          ],
          "internalType": "struct Exponential.Exp",
          "name": "marketBorrowIndex",
          "type": "tuple"
        }
      ],
      "name": "updateAndDistributeBorrowerRewardsForToken",
      "outputs": [],
      "payable": false,
      "stateMutability": "nonpayable",
      "type": "function"
    },
    {
      "constant": false,
      "inputs": [
        {
          "internalType": "contract IJToken",
          "name": "jToken",
          "type": "address"
        },
        {
          "internalType": "address",
          "name": "supplier",
          "type": "address"
        }
      ],
      "name": "updateAndDistributeSupplierRewardsForToken",
      "outputs": [],
      "payable": false,
      "stateMutability": "nonpayable",
      "type": "function"
    }
  ],
  "transactionHash": "0x22ce9051c00489eb77c57d5002903c10321dc72e4df78ae195926646ab9dbf5f",
  "args": [],
  "solcInputHash": "abde82950aaaa588b96a92c276e64209",
  "bytecode": "0x608060405234801561001057600080fd5b50612f1f806100206000396000f3fe6080604052600436106101665760003560e01c80637e9bedee116100d1578063b985a3a01161008a578063c4792f9b11610064578063c4792f9b1461040d578063cff42ff61461042d578063d81c5e451461044f578063f851a4401461046f57610166565b8063b985a3a0146103b8578063be615335146103cd578063bf095955146103ed57610166565b80637e9bedee146103035780638129fc1c1461032357806387946d53146103385780638805714b1461035857806388e972b8146103785780639c39e2931461039857610166565b80636330533c116101235780636330533c14610241578063670e8afd146102635780636fbd61d014610283578063704b6c02146102a3578063744532ae146102c35780637937969d146102e357610166565b8063030ce6381461016857806305b9783d1461019e5780630952c563146101be5780631f9f3511146101de5780634b3a0a74146101fe5780635b7278691461022c575b005b34801561017457600080fd5b5061018861018336600461261b565b610491565b6040516101959190612d5a565b60405180910390f35b3480156101aa57600080fd5b506101886101b936600461261b565b6104ae565b3480156101ca57600080fd5b506101666101d936600461261b565b6104cb565b3480156101ea57600080fd5b506101666101f9366004612558565b610566565b34801561020a57600080fd5b5061021e61021936600461261b565b6105e3565b604051610195929190612d3f565b34801561023857600080fd5b5061016661061a565b34801561024d57600080fd5b50610256610682565b6040516101959190612c50565b34801561026f57600080fd5b5061016661027e366004612576565b610691565b34801561028f57600080fd5b5061016661029e36600461285d565b61076f565b3480156102af57600080fd5b506101666102be3660046124e7565b6107db565b3480156102cf57600080fd5b506101666102de36600461263a565b610864565b3480156102ef57600080fd5b506101886102fe3660046126e5565b6108ad565b34801561030f57600080fd5b5061016661031e366004612558565b6108d0565b34801561032f57600080fd5b50610166610944565b34801561034457600080fd5b50610166610353366004612728565b6109a9565b34801561036457600080fd5b506101666103733660046127af565b610b07565b34801561038457600080fd5b506101886103933660046126e5565b610b88565b3480156103a457600080fd5b506101666103b33660046125b0565b610bab565b3480156103c457600080fd5b50610256610c88565b3480156103d957600080fd5b506101886103e836600461261b565b610c97565b3480156103f957600080fd5b5061018861040836600461261b565b610d36565b34801561041957600080fd5b506101666104283660046126a2565b610d53565b34801561043957600080fd5b50610442610e11565b6040516101959190612c42565b34801561045b57600080fd5b5061021e61046a36600461261b565b610e21565b34801561047b57600080fd5b50610484610e58565b6040516101959190612bf0565b600260209081526000928352604080842090915290825290205481565b600860209081526000928352604080842090915290825290205481565b6105628282600160009054906101000a90046001600160a01b03166001600160a01b031663b0772d0b6040518163ffffffff1660e01b815260040160006040518083038186803b15801561051e57600080fd5b505afa158015610532573d6000803e3d6000fd5b505050506040513d6000823e601f3d908101601f1916820160405261055a9190810190612505565b600180610e67565b5050565b6000546001600160a01b031633146105995760405162461bcd60e51b815260040161059090612c8f565b60405180910390fd5b600180546001600160a01b0319166001600160a01b0383169081179091556040517ffe2b17b6226b7ce137113c82497e9ceeb0533b68ade15f805a6ba4415d9a1e1890600090a250565b60056020908152600092835260408084209091529082529020546001600160d01b03811690600160d01b900465ffffffffffff1682565b6000546001600160a01b031633146106445760405162461bcd60e51b815260040161059090612c8f565b6009805460ff60a01b1916600160a01b1790556040517f2914becc1610c384981e33fd758dea566b16bf386b11f25bfc4927fb4456772790600090a1565b6001546001600160a01b031681565b6001546001600160a01b03163314806106b457506000546001600160a01b031633145b6106d05760405162461bcd60e51b815260040161059090612d1f565b60005b60018160ff161161076a576106e881846110b2565b60006106f5828585611192565b60ff831660009081526008602090815260408083206001600160a01b03881684529091529020546001600160d01b0391909116915061073a908263ffffffff61137416565b60ff831660009081526008602090815260408083206001600160a01b0388168452909152902055506001016106d3565b505050565b6000546001600160a01b031633146107995760405162461bcd60e51b815260040161059090612c8f565b8360018160ff1611156107be5760405162461bcd60e51b815260040161059090612cef565b6107c9858585611399565b6107d485858461153e565b5050505050565b6000546001600160a01b031633146108055760405162461bcd60e51b815260040161059090612c8f565b600080546001600160a01b038381166001600160a01b03198316179092556040519116907ff8ccb027dfcd135e000e9d45e6cc2d662578a8825d4c45b5e32e0adf67e79ec6906108589083908590612c27565b60405180910390a15050565b6108a7848484848080602002602001604051908101604052809392919081815260200183836020028082843760009201919091525060019250829150610e679050565b50505050565b600760209081526000938452604080852082529284528284209052825290205481565b6000546001600160a01b031633146108fa5760405162461bcd60e51b815260040161059090612c8f565b600980546001600160a01b0319166001600160a01b0383169081179091556040517f5f8510a8d2e5071ff8272f0ed89cccbdfbf276bcbc735b1261e806d885f6d3e690600090a250565b6001546001600160a01b03161561096d5760405162461bcd60e51b815260040161059090612caf565b6000546001600160a01b031661099457600080546001600160a01b031916331790556109a7565b600180546001600160a01b031916331790555b565b6000546001600160a01b031633146109d35760405162461bcd60e51b815260040161059090612c8f565b8460018160ff1611156109f85760405162461bcd60e51b815260040161059090612cef565b600954600160a01b900460ff1615610a225760405162461bcd60e51b815260040161059090612d2f565b83828114610a425760405162461bcd60e51b815260040161059090612c6f565b60005b81811015610afd576000878783818110610a5b57fe5b9050602002016020610a7091908101906124e7565b90506000868684818110610a8057fe5b60ff8d1660009081526008602090815260408083206001600160a01b038916808552908352928190209390910294909401359182905592519093507f88d8eb57a4c3a231f2bcd7397528950212e9894bed8fdf3e48be4655662ad66f9150610aeb908d908590612dab565b60405180910390a25050600101610a45565b5050505050505050565b8460005b81811015610b7d57610b7589898984818110610b2357fe5b9050602002016020610b3891908101906124e7565b8888808060200260200160405190810160405280939291908181526020018383602002808284376000920191909152508a9250899150610e679050565b600101610b0b565b505050505050505050565b600660209081526000938452604080852082529284528284209052825290205481565b6001546001600160a01b0316331480610bce57506000546001600160a01b031633145b610bea5760405162461bcd60e51b815260040161059090612d1f565b60005b60018160ff16116108a757610c0481858435611746565b6000610c138286868635611823565b60ff831660009081526008602090815260408083206001600160a01b03891684529091529020546001600160d01b03919091169150610c58908263ffffffff61137416565b60ff831660009081526008602090815260408083206001600160a01b038916845290915290205550600101610bed565b6009546001600160a01b031681565b6000610d2d8383600160009054906101000a90046001600160a01b03166001600160a01b031663b0772d0b6040518163ffffffff1660e01b815260040160006040518083038186803b158015610cec57600080fd5b505afa158015610d00573d6000803e3d6000fd5b505050506040513d6000823e601f3d908101601f19168201604052610d289190810190612505565b611a11565b90505b92915050565b600360209081526000928352604080842090915290825290205481565b6000546001600160a01b03163314610d7d5760405162461bcd60e51b815260040161059090612c8f565b8260018160ff161115610da25760405162461bcd60e51b815260040161059090612cef565b6000610daf858585611b50565b90508015610dcf5760405162461bcd60e51b815260040161059090612cff565b7fc6d3bad890aa15362e90611f8643bfafcf5b09a9d4781295bd7ba8adffa03711858585604051610e0293929190612d68565b60405180910390a15050505050565b600954600160a01b900460ff1681565b60046020908152600092835260408084209091529082529020546001600160d01b03811690600160d01b900465ffffffffffff1682565b6000546001600160a01b031681565b8460018160ff161115610e8c5760405162461bcd60e51b815260040161059090612cef565b60ff861660009081526008602090815260408083206001600160a01b0389168452909152812054855190915b8181101561106f576000878281518110610ece57fe5b6020908102919091010151600154604051633d98a1e560e01b81529192506001600160a01b031690633d98a1e590610f0a908490600401612bf0565b60206040518083038186803b158015610f2257600080fd5b505afa158015610f36573d6000803e3d6000fd5b505050506040513d601f19601f82011682018060405250610f5a919081019061253a565b610f765760405162461bcd60e51b815260040161059090612ccf565b861561102a576000816001600160a01b031663aa5af0fd6040518163ffffffff1660e01b815260040160206040518083038186803b158015610fb757600080fd5b505afa158015610fcb573d6000803e3d6000fd5b505050506040513d601f19601f82011682018060405250610fef91908101906125fd565b9050610ffc8b8383611746565b600061100a8c848d85611823565b6001600160d01b03169050611025868263ffffffff61137416565b955050505b85156110665761103a8a826110b2565b60006110478b838c611192565b6001600160d01b03169050611062858263ffffffff61137416565b9450505b50600101610eb8565b508115610afd57611081888884611b50565b60ff891660009081526008602090815260408083206001600160a01b038c1684529091529020555050505050505050565b8160018160ff1611156110d75760405162461bcd60e51b815260040161059090612cef565b6000806110e48585611cdc565b91509150801561112e5760ff851660009081526004602090815260408083206001600160a01b0388168452909152902080546001600160d01b0319166001600160d01b0384161790555b61113e611139611e85565b611e89565b60ff90951660009081526004602090815260408083206001600160a01b03909716835295905293909320805465ffffffffffff95909516600160d01b026001600160d01b0390951694909417909355505050565b60008360018160ff1611156111b95760405162461bcd60e51b815260040161059090612cef565b60ff851660008181526004602090815260408083206001600160a01b03808a16808652918452828520549585526006845282852091855290835281842090881684529091528120546001600160d01b03909216919061121e838363ffffffff611eb516565b90506000876001600160a01b03166370a08231886040518263ffffffff1660e01b815260040161124e9190612bf0565b60206040518083038186803b15801561126657600080fd5b505afa15801561127a573d6000803e3d6000fd5b505050506040513d601f19601f8201168201806040525061129e91908101906125fd565b905060006112d96112d46ec097ce7bc90715b34b9f10000000006112c8858763ffffffff611ef716565b9063ffffffff611f3116565b611f73565b90508385146113185760ff8a1660009081526006602090815260408083206001600160a01b03808e168552908352818420908c16845290915290208590555b876001600160a01b0316896001600160a01b03167faccd035d02c456be35306aecd5a5fe62320713dde09ccd68b0a5e8ed930399998c848960405161135f93929190612d90565b60405180910390a39998505050505050505050565b600082820183811015610d2d5760405162461bcd60e51b815260040161059090612c7f565b60ff831660009081526002602090815260408083206001600160a01b038616845290915290205480156113d5576113d084846110b2565b6114cd565b81156114cd57600154604051633d98a1e560e01b81526001600160a01b0390911690633d98a1e59061140b908690600401612bf0565b60206040518083038186803b15801561142357600080fd5b505afa158015611437573d6000803e3d6000fd5b505050506040513d601f19601f8201168201806040525061145b919081019061253a565b6114775760405162461bcd60e51b815260040161059090612c9f565b611482611139611e85565b60ff851660009081526004602090815260408083206001600160a01b03881684529091529020805465ffffffffffff92909216600160d01b026001600160d01b039092169190911790555b8181146108a75760ff841660009081526002602090815260408083206001600160a01b03871680855292529182902084905590517f71975117d0c353e131b030f9cf69eecfded777f5ba2a036b066b90da4c89ab42906115309087908690612dab565b60405180910390a250505050565b60ff831660009081526003602090815260408083206001600160a01b038616845290915290205480156115eb576115e68484856001600160a01b031663aa5af0fd6040518163ffffffff1660e01b815260040160206040518083038186803b1580156115a957600080fd5b505afa1580156115bd573d6000803e3d6000fd5b505050506040513d601f19601f820116820180604052506115e191908101906125fd565b611746565b6116e3565b81156116e357600154604051633d98a1e560e01b81526001600160a01b0390911690633d98a1e590611621908690600401612bf0565b60206040518083038186803b15801561163957600080fd5b505afa15801561164d573d6000803e3d6000fd5b505050506040513d601f19601f82011682018060405250611671919081019061253a565b61168d5760405162461bcd60e51b815260040161059090612c9f565b611698611139611e85565b60ff851660009081526005602090815260408083206001600160a01b03881684529091529020805465ffffffffffff92909216600160d01b026001600160d01b039092169190911790555b8181146108a75760ff841660009081526003602090815260408083206001600160a01b03871680855292529182902084905590517ffc4f93ddd4a06ca99d4cd58e8f2a3eaec8f2f3795f127d83e0c203e08f8997e1906115309087908690612dab565b8260018160ff16111561176b5760405162461bcd60e51b815260040161059090612cef565b600080611779868686611f98565b9150915080156117c35760ff861660009081526005602090815260408083206001600160a01b0389168452909152902080546001600160d01b0319166001600160d01b0384161790555b6117ce611139611e85565b60ff90961660009081526005602090815260408083206001600160a01b03909816835296905294909420805465ffffffffffff96909616600160d01b026001600160d01b039096169590951790945550505050565b60008460018160ff16111561184a5760405162461bcd60e51b815260040161059090612cef565b60ff861660008181526005602090815260408083206001600160a01b03808b16808652918452828520549585526007845282852091855290835281842090891684529091528120546001600160d01b0390921691906118af838363ffffffff611eb516565b9050600061194b876112c8670de0b6b3a76400008c6001600160a01b03166395dd91938d6040518263ffffffff1660e01b81526004016118ef9190612bf0565b60206040518083038186803b15801561190757600080fd5b505afa15801561191b573d6000803e3d6000fd5b505050506040513d601f19601f8201168201806040525061193f91908101906125fd565b9063ffffffff611ef716565b905060006119756112d46ec097ce7bc90715b34b9f10000000006112c8858763ffffffff611ef716565b90508385146119b45760ff8b1660009081526007602090815260408083206001600160a01b03808f168552908352818420908d16845290915290208590555b886001600160a01b03168a6001600160a01b03167fa1b6a046664a0ecf068059f26de56878f8d0e799907ca2e42d9148ccbdc717a78d84896040516119fb93929190612d90565b60405180910390a39a9950505050505050505050565b60008360018160ff161115611a385760405162461bcd60e51b815260040161059090612cef565b60ff851660009081526008602090815260408083206001600160a01b0388168452909152812054845190915b81811015611b44576000868281518110611a7a57fe5b602002602001015190506000611a918a838b612158565b90506000611b118b848c866001600160a01b031663aa5af0fd6040518163ffffffff1660e01b815260040160206040518083038186803b158015611ad457600080fd5b505afa158015611ae8573d6000803e3d6000fd5b505050506040513d601f19601f82011682018060405250611b0c91908101906125fd565b612268565b9050611b3381611b27888563ffffffff61137416565b9063ffffffff61137416565b95505060019092019150611a649050565b50909695505050505050565b600081611b5f57506000611cd5565b60ff8416611c86576009546040516370a0823160e01b81526000916001600160a01b0316906370a0823190611b98903090600401612bfe565b60206040518083038186803b158015611bb057600080fd5b505afa158015611bc4573d6000803e3d6000fd5b505050506040513d601f19601f82011682018060405250611be891908101906125fd565b9050808311611c805760095460405163a9059cbb60e01b81526001600160a01b039091169063a9059cbb90611c239087908790600401612c0c565b602060405180830381600087803b158015611c3d57600080fd5b505af1158015611c51573d6000803e3d6000fd5b505050506040513d601f19601f82011682018060405250611c75919081019061253a565b506000915050611cd5565b50611cd2565b8360ff1660011415611cd25747808311611cd0576040516001600160a01b0385169084156108fc029085906000818181858888f19350505050158015611c75573d6000803e3d6000fd5b505b50805b9392505050565b600080611ce761239f565b5060ff841660008181526004602090815260408083206001600160a01b0388168085529083528184208251808401845290546001600160d01b038116825265ffffffffffff600160d01b9091048116828601908152968652600285528386209286529190935290832054935191939291611d709116611d64611e85565b9063ffffffff611eb516565b90508015801590611d8057508115155b15611e74576000866001600160a01b03166318160ddd6040518163ffffffff1660e01b815260040160206040518083038186803b158015611dc057600080fd5b505afa158015611dd4573d6000803e3d6000fd5b505050506040513d601f19601f82011682018060405250611df891908101906125fd565b90508015611e72576000611e12838563ffffffff611ef716565b9050611e546112d4611e3d846112c8856ec097ce7bc90715b34b9f100000000063ffffffff611ef716565b87516001600160d01b03169063ffffffff61137416565b6001600160d01b0316948590525092945060019350611e7e92505050565b505b5050519150600090505b9250929050565b4290565b600066010000000000008210611eb15760405162461bcd60e51b815260040161059090612cbf565b5090565b6000610d2d83836040518060400160405280601f81526020017f536166654d6174683a207375627472616374696f6e20756e646572666c6f770081525061233c565b600082611f0657506000610d30565b82820282848281611f1357fe5b0414610d2d5760405162461bcd60e51b815260040161059090612cdf565b6000610d2d83836040518060400160405280601a81526020017f536166654d6174683a206469766973696f6e206279207a65726f000000000000815250612368565b6000600160d01b8210611eb15760405162461bcd60e51b815260040161059090612d0f565b600080611fa361239f565b5060ff851660008181526005602090815260408083206001600160a01b0389168085529083528184208251808401845290546001600160d01b038116825265ffffffffffff600160d01b90910481168286019081529686526003855283862092865291909352908320549351919392916120209116611d64611e85565b9050801580159061203057508115155b15612146576000876001600160a01b03166347bd37186040518163ffffffff1660e01b815260040160206040518083038186803b15801561207057600080fd5b505afa158015612084573d6000803e3d6000fd5b505050506040513d601f19601f820116820180604052506120a891908101906125fd565b905060006120c8886112c884670de0b6b3a764000063ffffffff611ef716565b905080156121435760006120e2848663ffffffff611ef716565b90506121246112d461210d846112c8856ec097ce7bc90715b34b9f100000000063ffffffff611ef716565b88516001600160d01b03169063ffffffff61137416565b6001600160d01b03169586905250939550600194506121509350505050565b50505b5050519150600090505b935093915050565b6000806121658585611cdc565b5060ff861660009081526006602090815260408083206001600160a01b03808a16855290835281842090881684529091528120546001600160d01b039290921692506121b7838363ffffffff611eb516565b90506000866001600160a01b03166370a08231876040518263ffffffff1660e01b81526004016121e79190612bf0565b60206040518083038186803b1580156121ff57600080fd5b505afa158015612213573d6000803e3d6000fd5b505050506040513d601f19601f8201168201806040525061223791908101906125fd565b905061225c6ec097ce7bc90715b34b9f10000000006112c8838563ffffffff611ef716565b98975050505050505050565b600080612276868685611f98565b5060ff871660009081526007602090815260408083206001600160a01b03808b16855290835281842090891684529091528120546001600160d01b039290921692506122c8838363ffffffff611eb516565b90506000612308866112c8670de0b6b3a76400008b6001600160a01b03166395dd91938c6040518263ffffffff1660e01b81526004016118ef9190612bf0565b905061232d6ec097ce7bc90715b34b9f10000000006112c8838563ffffffff611ef716565b9450505050505b949350505050565b600081848411156123605760405162461bcd60e51b81526004016105909190612c5e565b505050900390565b600081836123895760405162461bcd60e51b81526004016105909190612c5e565b50600083858161239557fe5b0495945050505050565b604080518082019091526000808252602082015290565b8035610d3081612ea1565b60008083601f8401126123d357600080fd5b50813567ffffffffffffffff8111156123eb57600080fd5b602083019150836020820283011115611e7e57600080fd5b600082601f83011261241457600080fd5b815161242761242282612de0565b612db9565b9150818183526020840193506020810190508385602084028201111561244c57600080fd5b60005b83811015612478578161246288826124a3565b845250602092830192919091019060010161244f565b5050505092915050565b8035610d3081612eb8565b8051610d3081612eb8565b8035610d3081612ec1565b8051610d3081612ec1565b6000602082840312156124c057600080fd5b50919050565b8035610d3081612eca565b8051610d3081612eca565b8035610d3081612ed3565b6000602082840312156124f957600080fd5b600061233484846123b6565b60006020828403121561251757600080fd5b815167ffffffffffffffff81111561252e57600080fd5b61233484828501612403565b60006020828403121561254c57600080fd5b6000612334848461248d565b60006020828403121561256a57600080fd5b60006123348484612498565b6000806040838503121561258957600080fd5b60006125958585612498565b92505060206125a6858286016123b6565b9150509250929050565b6000806000606084860312156125c557600080fd5b60006125d18686612498565b93505060206125e2868287016123b6565b92505060406125f3868287016124ae565b9150509250925092565b60006020828403121561260f57600080fd5b600061233484846124d1565b6000806040838503121561262e57600080fd5b600061259585856124dc565b6000806000806060858703121561265057600080fd5b600061265c87876124dc565b945050602061266d878288016123b6565b935050604085013567ffffffffffffffff81111561268a57600080fd5b612696878288016123c1565b95989497509550505050565b6000806000606084860312156126b757600080fd5b60006126c386866124dc565b93505060206126d4868287016123b6565b92505060406125f3868287016124c6565b6000806000606084860312156126fa57600080fd5b600061270686866124dc565b9350506020612717868287016123b6565b92505060406125f3868287016123b6565b60008060008060006060868803121561274057600080fd5b600061274c88886124dc565b955050602086013567ffffffffffffffff81111561276957600080fd5b612775888289016123c1565b9450945050604086013567ffffffffffffffff81111561279457600080fd5b6127a0888289016123c1565b92509250509295509295909350565b600080600080600080600060a0888a0312156127ca57600080fd5b60006127d68a8a6124dc565b975050602088013567ffffffffffffffff8111156127f357600080fd5b6127ff8a828b016123c1565b9650965050604088013567ffffffffffffffff81111561281e57600080fd5b61282a8a828b016123c1565b9450945050606061283d8a828b01612482565b925050608061284e8a828b01612482565b91505092959891949750929550565b6000806000806080858703121561287357600080fd5b600061287f87876124dc565b945050602061289087828801612498565b93505060406128a1878288016124c6565b92505060606128b2878288016124c6565b91505092959194509250565b6128c781612e55565b82525050565b6128c781612e0e565b6128c781612e19565b6128c781612e1e565b60006128f382612e01565b6128fd8185612e05565b935061290d818560208601612e6b565b61291681612e97565b9093019392505050565b600061292d600f83612e05565b6e0d8cadccee8d040dad2e6dac2e8c6d608b1b815260200192915050565b6000612958601b83612e05565b7f536166654d6174683a206164646974696f6e206f766572666c6f770000000000815260200192915050565b6000612991600a83612e05565b6937b7363c9030b236b4b760b11b815260200192915050565b60006129b7601b83612e05565b7f726577617264206d61726b6574206973206e6f74206c69737465640000000000815260200192915050565b60006129f0601383612e05565b72185b1c9958591e481a5b9a5d1a585b1a5e9959606a1b815260200192915050565b6000612a1f600f83612e05565b6e65786365656473203438206269747360881b815260200192915050565b6000612a4a601583612e05565b741b585c9ad95d081b5d5cdd081899481b1a5cdd1959605a1b815260200192915050565b6000612a7b602183612e05565b7f536166654d6174683a206d756c7469706c69636174696f6e206f766572666c6f8152607760f81b602082015260400192915050565b6000612abe601583612e05565b741c995dd85c99151e5c19481a5cc81a5b9d985b1a59605a1b815260200192915050565b6000612aef601a83612e05565b7f696e73756666696369656e74206a6f6520666f72206772616e74000000000000815260200192915050565b6000612b28601083612e05565b6f6578636565647320323038206269747360801b815260200192915050565b6000612b54601883612e05565b7f6f6e6c79206a6f6574726f6c6c6572206f722061646d696e0000000000000000815260200192915050565b6000612b8d602183612e05565b7f696e697469616c697a6552657761726441636372756564206973206c6f636b658152601960fa1b602082015260400192915050565b6128c781612e35565b6128c781612e60565b6128c781612e41565b6128c781612e44565b6128c781612e4f565b60208101610d3082846128cd565b60208101610d3082846128be565b60408101612c1a82856128be565b611cd56020830184612bd5565b60408101612c3582856128cd565b611cd560208301846128cd565b60208101610d3082846128d6565b60208101610d3082846128df565b60208082528101610d2d81846128e8565b60208082528101610d3081612920565b60208082528101610d308161294b565b60208082528101610d3081612984565b60208082528101610d30816129aa565b60208082528101610d30816129e3565b60208082528101610d3081612a12565b60208082528101610d3081612a3d565b60208082528101610d3081612a6e565b60208082528101610d3081612ab1565b60208082528101610d3081612ae2565b60208082528101610d3081612b1b565b60208082528101610d3081612b47565b60208082528101610d3081612b80565b60408101612d4d8285612bc3565b611cd56020830184612bde565b60208101610d308284612bd5565b60608101612d768286612be7565b612d8360208301856128be565b6123346040830184612bd5565b60608101612d9e8286612be7565b612d836020830185612bcc565b60408101612c1a8285612be7565b60405181810167ffffffffffffffff81118282101715612dd857600080fd5b604052919050565b600067ffffffffffffffff821115612df757600080fd5b5060209081020190565b5190565b90815260200190565b6000610d3082612e29565b151590565b6000610d3082612e0e565b6001600160a01b031690565b6001600160d01b031690565b90565b65ffffffffffff1690565b60ff1690565b6000610d3082612e1e565b6000610d3082612e35565b60005b83811015612e86578181015183820152602001612e6e565b838111156108a75750506000910152565b601f01601f191690565b612eaa81612e0e565b8114612eb557600080fd5b50565b612eaa81612e19565b612eaa81612e1e565b612eaa81612e41565b612eaa81612e4f56fea365627a7a723158202e7f938b7c9d8ebb092d94d9b47380876e292783ee0e97157e78d36c6f5bc27c6c6578706572696d656e74616cf564736f6c63430005100040",
  "devdoc": {
    "methods": {
      "claimReward(uint8,address)": {
        "params": {
          "holder": "The address to claim JOE/AVAX for",
          "rewardType": "0 = JOE, 1 = AVAX"
        }
      },
      "claimReward(uint8,address,address[])": {
        "params": {
          "holder": "The address to claim JOE/AVAX for",
          "jTokens": "The list of markets to claim JOE/AVAX in",
          "rewardType": "0 = JOE, 1 = AVAX"
        }
      },
      "claimReward(uint8,address[],address[],bool,bool)": {
        "params": {
          "borrowers": "Whether or not to claim JOE/AVAX earned by borrowing",
          "holders": "The addresses to claim JOE/AVAX for",
          "jTokens": "The list of markets to claim JOE/AVAX in",
          "rewardType": "0 = JOE, 1 = AVAX",
          "suppliers": "Whether or not to claim JOE/AVAX earned by supplying"
        }
      },
      "grantReward(uint8,address,uint256)": {
        "details": "Note: If there is not enough JOE, we do not perform the transfer at all.",
        "params": {
          "amount": "The amount of JOE to (possibly) transfer",
          "recipient": "The address of the recipient to transfer JOE to",
          "rewardType": "0 = JOE, 1 = AVAX"
        }
      },
      "initialize()": {
        "details": "first call is made by the deploy script, the second one by joeTroller when calling `_setRewardDistributor`"
      },
      "initializeRewardAccrued(uint8,address[],uint256[])": {
        "details": "We initialize rewardAccrued to transfer pending rewards from previous rewarder to this one. Must call lockInitializeRewardAccrued() after initialization.",
        "params": {
          "amounts": "The list of amounts of unclaimed rewards",
          "rewardType": "0 = JOE, 1 = AVAX",
          "users": "The list of addresses of users that did not claim their rewards"
        }
      },
      "pendingReward(uint8,address)": {
        "params": {
          "holder": "The address to check pending JOE/AVAX for",
          "rewardType": "0 = JOE, 1 = AVAX"
        },
        "return": "pendingReward The pending JOE/AVAX reward of that holder"
      },
      "setAdmin(address)": {
        "params": {
          "newAdmin": "The address of the new admin"
        }
      },
      "setJoe(address)": {
        "params": {
          "_joe": "The JOE token address"
        }
      },
      "setJoetroller(address)": {
        "params": {
          "_joetroller": "The Joetroller address"
        }
      },
      "setRewardSpeed(uint8,address,uint256,uint256)": {
        "params": {
          "jToken": "The market whose reward speed to update",
          "rewardBorrowSpeed": "New reward borrow speed for market",
          "rewardSupplySpeed": "New reward supply speed for market",
          "rewardType": "0 = JOE, 1 = AVAX"
        }
      },
      "updateAndDistributeBorrowerRewardsForToken(address,address,(uint256))": {
        "params": {
          "borrower": "Borrower to be rewarded",
          "jToken": "The market to verify the mint against",
          "marketBorrowIndex": "Current index of the borrow market"
        }
      },
      "updateAndDistributeSupplierRewardsForToken(address,address)": {
        "params": {
          "jToken": "The market to verify the mint against",
          "supplier": "The supplier to be rewarded"
        }
      }
    }
  },
  "userdoc": {
    "methods": {
      "claimReward(uint8,address)": {
        "notice": "Claim all the JOE/AVAX accrued by holder in all markets"
      },
      "claimReward(uint8,address,address[])": {
        "notice": "Claim all the JOE/AVAX accrued by holder in the specified markets"
      },
      "claimReward(uint8,address[],address[],bool,bool)": {
        "notice": "Claim all JOE/AVAX accrued by the holders"
      },
      "grantReward(uint8,address,uint256)": {
        "notice": "Transfer JOE/AVAX to the recipient"
      },
      "initialize()": {
        "notice": "Initialize function, in 2 times to avoid redeploying joetroller"
      },
      "initializeRewardAccrued(uint8,address[],uint256[])": {
        "notice": "Initialize rewardAccrued of users for the first time"
      },
      "lockInitializeRewardAccrued()": {
        "notice": "Lock the initializeRewardAccrued function"
      },
      "pendingReward(uint8,address)": {
        "notice": "Returns the pending JOE/AVAX reward accrued by the holder"
      },
      "setAdmin(address)": {
        "notice": "Set the admin"
      },
      "setJoe(address)": {
        "notice": "Set the JOE token address"
      },
      "setJoetroller(address)": {
        "notice": "Set the Joetroller address"
      },
      "setRewardSpeed(uint8,address,uint256,uint256)": {
        "notice": "Set JOE/AVAX speed for a single market"
      },
      "updateAndDistributeBorrowerRewardsForToken(address,address,(uint256))": {
        "notice": "Refactored function to calc and rewards accounts borrower rewards"
      },
      "updateAndDistributeSupplierRewardsForToken(address,address)": {
        "notice": "Refactored function to calc and rewards accounts supplier rewards"
      }
    }
  },
  "storageLayout": {
    "storage": [
      {
        "astId": 25903,
        "contract": "contracts/RewardDistributorV2.sol:RewardDistributorV2",
        "label": "admin",
        "offset": 0,
        "slot": "0",
        "type": "t_address"
      },
      {
        "astId": 25905,
        "contract": "contracts/RewardDistributorV2.sol:RewardDistributorV2",
        "label": "joetroller",
        "offset": 0,
        "slot": "1",
        "type": "t_contract(IJoetroller)25901"
      },
      {
        "astId": 25916,
        "contract": "contracts/RewardDistributorV2.sol:RewardDistributorV2",
        "label": "rewardSupplySpeeds",
        "offset": 0,
        "slot": "2",
        "type": "t_mapping(t_uint8,t_mapping(t_address,t_uint256))"
      },
      {
        "astId": 25922,
        "contract": "contracts/RewardDistributorV2.sol:RewardDistributorV2",
        "label": "rewardBorrowSpeeds",
        "offset": 0,
        "slot": "3",
        "type": "t_mapping(t_uint8,t_mapping(t_address,t_uint256))"
      },
      {
        "astId": 25928,
        "contract": "contracts/RewardDistributorV2.sol:RewardDistributorV2",
        "label": "rewardSupplyState",
        "offset": 0,
        "slot": "4",
        "type": "t_mapping(t_uint8,t_mapping(t_address,t_struct(RewardMarketState)25910_storage))"
      },
      {
        "astId": 25934,
        "contract": "contracts/RewardDistributorV2.sol:RewardDistributorV2",
        "label": "rewardBorrowState",
        "offset": 0,
        "slot": "5",
        "type": "t_mapping(t_uint8,t_mapping(t_address,t_struct(RewardMarketState)25910_storage))"
      },
      {
        "astId": 25942,
        "contract": "contracts/RewardDistributorV2.sol:RewardDistributorV2",
        "label": "rewardSupplierIndex",
        "offset": 0,
        "slot": "6",
        "type": "t_mapping(t_uint8,t_mapping(t_address,t_mapping(t_address,t_uint256)))"
      },
      {
        "astId": 25950,
        "contract": "contracts/RewardDistributorV2.sol:RewardDistributorV2",
        "label": "rewardBorrowerIndex",
        "offset": 0,
        "slot": "7",
        "type": "t_mapping(t_uint8,t_mapping(t_address,t_mapping(t_address,t_uint256)))"
      },
      {
        "astId": 25956,
        "contract": "contracts/RewardDistributorV2.sol:RewardDistributorV2",
        "label": "rewardAccrued",
        "offset": 0,
        "slot": "8",
        "type": "t_mapping(t_uint8,t_mapping(t_address,t_uint256))"
      },
      {
        "astId": 25958,
        "contract": "contracts/RewardDistributorV2.sol:RewardDistributorV2",
        "label": "joe",
        "offset": 0,
        "slot": "9",
        "type": "t_contract(EIP20Interface)268"
      },
      {
        "astId": 25960,
        "contract": "contracts/RewardDistributorV2.sol:RewardDistributorV2",
        "label": "isInitializeRewardAccruedLocked",
        "offset": 20,
        "slot": "9",
        "type": "t_bool"
      }
    ],
    "types": {
      "t_address": {
        "encoding": "inplace",
        "label": "address",
        "numberOfBytes": "20"
      },
      "t_bool": {
        "encoding": "inplace",
        "label": "bool",
        "numberOfBytes": "1"
      },
      "t_contract(EIP20Interface)268": {
        "encoding": "inplace",
        "label": "contract EIP20Interface",
        "numberOfBytes": "20"
      },
      "t_contract(IJoetroller)25901": {
        "encoding": "inplace",
        "label": "contract IJoetroller",
        "numberOfBytes": "20"
      },
      "t_mapping(t_address,t_mapping(t_address,t_uint256))": {
        "encoding": "mapping",
        "key": "t_address",
        "label": "mapping(address => mapping(address => uint256))",
        "numberOfBytes": "32",
        "value": "t_mapping(t_address,t_uint256)"
      },
      "t_mapping(t_address,t_struct(RewardMarketState)25910_storage)": {
        "encoding": "mapping",
        "key": "t_address",
        "label": "mapping(address => struct RewardDistributorStorageV2.RewardMarketState)",
        "numberOfBytes": "32",
        "value": "t_struct(RewardMarketState)25910_storage"
      },
      "t_mapping(t_address,t_uint256)": {
        "encoding": "mapping",
        "key": "t_address",
        "label": "mapping(address => uint256)",
        "numberOfBytes": "32",
        "value": "t_uint256"
      },
      "t_mapping(t_uint8,t_mapping(t_address,t_mapping(t_address,t_uint256)))": {
        "encoding": "mapping",
        "key": "t_uint8",
        "label": "mapping(uint8 => mapping(address => mapping(address => uint256)))",
        "numberOfBytes": "32",
        "value": "t_mapping(t_address,t_mapping(t_address,t_uint256))"
      },
      "t_mapping(t_uint8,t_mapping(t_address,t_struct(RewardMarketState)25910_storage))": {
        "encoding": "mapping",
        "key": "t_uint8",
        "label": "mapping(uint8 => mapping(address => struct RewardDistributorStorageV2.RewardMarketState))",
        "numberOfBytes": "32",
        "value": "t_mapping(t_address,t_struct(RewardMarketState)25910_storage)"
      },
      "t_mapping(t_uint8,t_mapping(t_address,t_uint256))": {
        "encoding": "mapping",
        "key": "t_uint8",
        "label": "mapping(uint8 => mapping(address => uint256))",
        "numberOfBytes": "32",
        "value": "t_mapping(t_address,t_uint256)"
      },
      "t_struct(RewardMarketState)25910_storage": {
        "encoding": "inplace",
        "label": "struct RewardDistributorStorageV2.RewardMarketState",
        "members": [
          {
            "astId": 25907,
            "contract": "contracts/RewardDistributorV2.sol:RewardDistributorV2",
            "label": "index",
            "offset": 0,
            "slot": "0",
            "type": "t_uint208"
          },
          {
            "astId": 25909,
            "contract": "contracts/RewardDistributorV2.sol:RewardDistributorV2",
            "label": "timestamp",
            "offset": 26,
            "slot": "0",
            "type": "t_uint48"
          }
        ],
        "numberOfBytes": "32"
      },
      "t_uint208": {
        "encoding": "inplace",
        "label": "uint208",
        "numberOfBytes": "26"
      },
      "t_uint256": {
        "encoding": "inplace",
        "label": "uint256",
        "numberOfBytes": "32"
      },
      "t_uint48": {
        "encoding": "inplace",
        "label": "uint48",
        "numberOfBytes": "6"
      },
      "t_uint8": {
        "encoding": "inplace",
        "label": "uint8",
        "numberOfBytes": "1"
      }
    }
  }
}