{
  "address": "0xd915Fdb10530eF2A8337B4b0bb33F1B0Bc015531",
  "abi": [
    {
      "inputs": [],
      "payable": false,
      "stateMutability": "nonpayable",
      "type": "constructor"
    },
    {
      "anonymous": false,
      "inputs": [
        {
          "indexed": false,
          "internalType": "uint256",
          "name": "cashPrior",
          "type": "uint256"
        },
        {
          "indexed": false,
          "internalType": "uint256",
          "name": "interestAccumulated",
          "type": "uint256"
        },
        {
          "indexed": false,
          "internalType": "uint256",
          "name": "borrowIndex",
          "type": "uint256"
        },
        {
          "indexed": false,
          "internalType": "uint256",
          "name": "totalBorrows",
          "type": "uint256"
        }
      ],
      "name": "AccrueInterest",
      "type": "event"
    },
    {
      "anonymous": false,
      "inputs": [
        {
          "indexed": true,
          "internalType": "address",
          "name": "owner",
          "type": "address"
        },
        {
          "indexed": true,
          "internalType": "address",
          "name": "spender",
          "type": "address"
        },
        {
          "indexed": false,
          "internalType": "uint256",
          "name": "amount",
          "type": "uint256"
        }
      ],
      "name": "Approval",
      "type": "event"
    },
    {
      "anonymous": false,
      "inputs": [
        {
          "indexed": false,
          "internalType": "address",
          "name": "borrower",
          "type": "address"
        },
        {
          "indexed": false,
          "internalType": "uint256",
          "name": "borrowAmount",
          "type": "uint256"
        },
        {
          "indexed": false,
          "internalType": "uint256",
          "name": "accountBorrows",
          "type": "uint256"
        },
        {
          "indexed": false,
          "internalType": "uint256",
          "name": "totalBorrows",
          "type": "uint256"
        }
      ],
      "name": "Borrow",
      "type": "event"
    },
    {
      "anonymous": false,
      "inputs": [
        {
          "indexed": false,
          "internalType": "uint256",
          "name": "error",
          "type": "uint256"
        },
        {
          "indexed": false,
          "internalType": "uint256",
          "name": "info",
          "type": "uint256"
        },
        {
          "indexed": false,
          "internalType": "uint256",
          "name": "detail",
          "type": "uint256"
        }
      ],
      "name": "Failure",
      "type": "event"
    },
    {
      "anonymous": false,
      "inputs": [
        {
          "indexed": true,
          "internalType": "address",
          "name": "receiver",
          "type": "address"
        },
        {
          "indexed": false,
          "internalType": "uint256",
          "name": "amount",
          "type": "uint256"
        },
        {
          "indexed": false,
          "internalType": "uint256",
          "name": "totalFee",
          "type": "uint256"
        },
        {
          "indexed": false,
          "internalType": "uint256",
          "name": "reservesFee",
          "type": "uint256"
        }
      ],
      "name": "Flashloan",
      "type": "event"
    },
    {
      "anonymous": false,
      "inputs": [
        {
          "indexed": false,
          "internalType": "address",
          "name": "liquidator",
          "type": "address"
        },
        {
          "indexed": false,
          "internalType": "address",
          "name": "borrower",
          "type": "address"
        },
        {
          "indexed": false,
          "internalType": "uint256",
          "name": "repayAmount",
          "type": "uint256"
        },
        {
          "indexed": false,
          "internalType": "address",
          "name": "jTokenCollateral",
          "type": "address"
        },
        {
          "indexed": false,
          "internalType": "uint256",
          "name": "seizeTokens",
          "type": "uint256"
        }
      ],
      "name": "LiquidateBorrow",
      "type": "event"
    },
    {
      "anonymous": false,
      "inputs": [
        {
          "indexed": false,
          "internalType": "address",
          "name": "minter",
          "type": "address"
        },
        {
          "indexed": false,
          "internalType": "uint256",
          "name": "mintAmount",
          "type": "uint256"
        },
        {
          "indexed": false,
          "internalType": "uint256",
          "name": "mintTokens",
          "type": "uint256"
        }
      ],
      "name": "Mint",
      "type": "event"
    },
    {
      "anonymous": false,
      "inputs": [
        {
          "indexed": false,
          "internalType": "address",
          "name": "oldAdmin",
          "type": "address"
        },
        {
          "indexed": false,
          "internalType": "address",
          "name": "newAdmin",
          "type": "address"
        }
      ],
      "name": "NewAdmin",
      "type": "event"
    },
    {
      "anonymous": false,
      "inputs": [
        {
          "indexed": false,
          "internalType": "contract JoetrollerInterface",
          "name": "oldJoetroller",
          "type": "address"
        },
        {
          "indexed": false,
          "internalType": "contract JoetrollerInterface",
          "name": "newJoetroller",
          "type": "address"
        }
      ],
      "name": "NewJoetroller",
      "type": "event"
    },
    {
      "anonymous": false,
      "inputs": [
        {
          "indexed": false,
          "internalType": "contract InterestRateModel",
          "name": "oldInterestRateModel",
          "type": "address"
        },
        {
          "indexed": false,
          "internalType": "contract InterestRateModel",
          "name": "newInterestRateModel",
          "type": "address"
        }
      ],
      "name": "NewMarketInterestRateModel",
      "type": "event"
    },
    {
      "anonymous": false,
      "inputs": [
        {
          "indexed": false,
          "internalType": "address",
          "name": "oldPendingAdmin",
          "type": "address"
        },
        {
          "indexed": false,
          "internalType": "address",
          "name": "newPendingAdmin",
          "type": "address"
        }
      ],
      "name": "NewPendingAdmin",
      "type": "event"
    },
    {
      "anonymous": false,
      "inputs": [
        {
          "indexed": false,
          "internalType": "uint256",
          "name": "oldReserveFactorMantissa",
          "type": "uint256"
        },
        {
          "indexed": false,
          "internalType": "uint256",
          "name": "newReserveFactorMantissa",
          "type": "uint256"
        }
      ],
      "name": "NewReserveFactor",
      "type": "event"
    },
    {
      "anonymous": false,
      "inputs": [
        {
          "indexed": false,
          "internalType": "address",
          "name": "redeemer",
          "type": "address"
        },
        {
          "indexed": false,
          "internalType": "uint256",
          "name": "redeemAmount",
          "type": "uint256"
        },
        {
          "indexed": false,
          "internalType": "uint256",
          "name": "redeemTokens",
          "type": "uint256"
        }
      ],
      "name": "Redeem",
      "type": "event"
    },
    {
      "anonymous": false,
      "inputs": [
        {
          "indexed": false,
          "internalType": "address",
          "name": "payer",
          "type": "address"
        },
        {
          "indexed": false,
          "internalType": "address",
          "name": "borrower",
          "type": "address"
        },
        {
          "indexed": false,
          "internalType": "uint256",
          "name": "repayAmount",
          "type": "uint256"
        },
        {
          "indexed": false,
          "internalType": "uint256",
          "name": "accountBorrows",
          "type": "uint256"
        },
        {
          "indexed": false,
          "internalType": "uint256",
          "name": "totalBorrows",
          "type": "uint256"
        }
      ],
      "name": "RepayBorrow",
      "type": "event"
    },
    {
      "anonymous": false,
      "inputs": [
        {
          "indexed": false,
          "internalType": "address",
          "name": "benefactor",
          "type": "address"
        },
        {
          "indexed": false,
          "internalType": "uint256",
          "name": "addAmount",
          "type": "uint256"
        },
        {
          "indexed": false,
          "internalType": "uint256",
          "name": "newTotalReserves",
          "type": "uint256"
        }
      ],
      "name": "ReservesAdded",
      "type": "event"
    },
    {
      "anonymous": false,
      "inputs": [
        {
          "indexed": false,
          "internalType": "address",
          "name": "admin",
          "type": "address"
        },
        {
          "indexed": false,
          "internalType": "uint256",
          "name": "reduceAmount",
          "type": "uint256"
        },
        {
          "indexed": false,
          "internalType": "uint256",
          "name": "newTotalReserves",
          "type": "uint256"
        }
      ],
      "name": "ReservesReduced",
      "type": "event"
    },
    {
      "anonymous": false,
      "inputs": [
        {
          "indexed": true,
          "internalType": "address",
          "name": "from",
          "type": "address"
        },
        {
          "indexed": true,
          "internalType": "address",
          "name": "to",
          "type": "address"
        },
        {
          "indexed": false,
          "internalType": "uint256",
          "name": "amount",
          "type": "uint256"
        }
      ],
      "name": "Transfer",
      "type": "event"
    },
    {
      "payable": true,
      "stateMutability": "payable",
      "type": "fallback"
    },
    {
      "constant": false,
      "inputs": [],
      "name": "_acceptAdmin",
      "outputs": [
        {
          "internalType": "uint256",
          "name": "",
          "type": "uint256"
        }
      ],
      "payable": false,
      "stateMutability": "nonpayable",
      "type": "function"
    },
    {
      "constant": false,
      "inputs": [
        {
          "internalType": "uint256",
          "name": "addAmount",
          "type": "uint256"
        }
      ],
      "name": "_addReserves",
      "outputs": [
        {
          "internalType": "uint256",
          "name": "",
          "type": "uint256"
        }
      ],
      "payable": false,
      "stateMutability": "nonpayable",
      "type": "function"
    },
    {
      "constant": false,
      "inputs": [],
      "name": "_addReservesNative",
      "outputs": [
        {
          "internalType": "uint256",
          "name": "",
          "type": "uint256"
        }
      ],
      "payable": true,
      "stateMutability": "payable",
      "type": "function"
    },
    {
      "constant": false,
      "inputs": [
        {
          "internalType": "bytes",
          "name": "data",
          "type": "bytes"
        }
      ],
      "name": "_becomeImplementation",
      "outputs": [],
      "payable": false,
      "stateMutability": "nonpayable",
      "type": "function"
    },
    {
      "constant": false,
      "inputs": [
        {
          "internalType": "uint256",
          "name": "reduceAmount",
          "type": "uint256"
        }
      ],
      "name": "_reduceReserves",
      "outputs": [
        {
          "internalType": "uint256",
          "name": "",
          "type": "uint256"
        }
      ],
      "payable": false,
      "stateMutability": "nonpayable",
      "type": "function"
    },
    {
      "constant": false,
      "inputs": [],
      "name": "_resignImplementation",
      "outputs": [],
      "payable": false,
      "stateMutability": "nonpayable",
      "type": "function"
    },
    {
      "constant": false,
      "inputs": [
        {
          "internalType": "contract InterestRateModel",
          "name": "newInterestRateModel",
          "type": "address"
        }
      ],
      "name": "_setInterestRateModel",
      "outputs": [
        {
          "internalType": "uint256",
          "name": "",
          "type": "uint256"
        }
      ],
      "payable": false,
      "stateMutability": "nonpayable",
      "type": "function"
    },
    {
      "constant": false,
      "inputs": [
        {
          "internalType": "contract JoetrollerInterface",
          "name": "newJoetroller",
          "type": "address"
        }
      ],
      "name": "_setJoetroller",
      "outputs": [
        {
          "internalType": "uint256",
          "name": "",
          "type": "uint256"
        }
      ],
      "payable": false,
      "stateMutability": "nonpayable",
      "type": "function"
    },
    {
      "constant": false,
      "inputs": [
        {
          "internalType": "address payable",
          "name": "newPendingAdmin",
          "type": "address"
        }
      ],
      "name": "_setPendingAdmin",
      "outputs": [
        {
          "internalType": "uint256",
          "name": "",
          "type": "uint256"
        }
      ],
      "payable": false,
      "stateMutability": "nonpayable",
      "type": "function"
    },
    {
      "constant": false,
      "inputs": [
        {
          "internalType": "uint256",
          "name": "newReserveFactorMantissa",
          "type": "uint256"
        }
      ],
      "name": "_setReserveFactor",
      "outputs": [
        {
          "internalType": "uint256",
          "name": "",
          "type": "uint256"
        }
      ],
      "payable": false,
      "stateMutability": "nonpayable",
      "type": "function"
    },
    {
      "constant": true,
      "inputs": [],
      "name": "accrualBlockTimestamp",
      "outputs": [
        {
          "internalType": "uint256",
          "name": "",
          "type": "uint256"
        }
      ],
      "payable": false,
      "stateMutability": "view",
      "type": "function"
    },
    {
      "constant": false,
      "inputs": [],
      "name": "accrueInterest",
      "outputs": [
        {
          "internalType": "uint256",
          "name": "",
          "type": "uint256"
        }
      ],
      "payable": false,
      "stateMutability": "nonpayable",
      "type": "function"
    },
    {
      "constant": true,
      "inputs": [],
      "name": "admin",
      "outputs": [
        {
          "internalType": "address payable",
          "name": "",
          "type": "address"
        }
      ],
      "payable": false,
      "stateMutability": "view",
      "type": "function"
    },
    {
      "constant": true,
      "inputs": [
        {
          "internalType": "address",
          "name": "owner",
          "type": "address"
        },
        {
          "internalType": "address",
          "name": "spender",
          "type": "address"
        }
      ],
      "name": "allowance",
      "outputs": [
        {
          "internalType": "uint256",
          "name": "",
          "type": "uint256"
        }
      ],
      "payable": false,
      "stateMutability": "view",
      "type": "function"
    },
    {
      "constant": false,
      "inputs": [
        {
          "internalType": "address",
          "name": "spender",
          "type": "address"
        },
        {
          "internalType": "uint256",
          "name": "amount",
          "type": "uint256"
        }
      ],
      "name": "approve",
      "outputs": [
        {
          "internalType": "bool",
          "name": "",
          "type": "bool"
        }
      ],
      "payable": false,
      "stateMutability": "nonpayable",
      "type": "function"
    },
    {
      "constant": true,
      "inputs": [
        {
          "internalType": "address",
          "name": "owner",
          "type": "address"
        }
      ],
      "name": "balanceOf",
      "outputs": [
        {
          "internalType": "uint256",
          "name": "",
          "type": "uint256"
        }
      ],
      "payable": false,
      "stateMutability": "view",
      "type": "function"
    },
    {
      "constant": false,
      "inputs": [
        {
          "internalType": "address",
          "name": "owner",
          "type": "address"
        }
      ],
      "name": "balanceOfUnderlying",
      "outputs": [
        {
          "internalType": "uint256",
          "name": "",
          "type": "uint256"
        }
      ],
      "payable": false,
      "stateMutability": "nonpayable",
      "type": "function"
    },
    {
      "constant": false,
      "inputs": [
        {
          "internalType": "uint256",
          "name": "borrowAmount",
          "type": "uint256"
        }
      ],
      "name": "borrow",
      "outputs": [
        {
          "internalType": "uint256",
          "name": "",
          "type": "uint256"
        }
      ],
      "payable": false,
      "stateMutability": "nonpayable",
      "type": "function"
    },
    {
      "constant": false,
      "inputs": [
        {
          "internalType": "address",
          "name": "account",
          "type": "address"
        }
      ],
      "name": "borrowBalanceCurrent",
      "outputs": [
        {
          "internalType": "uint256",
          "name": "",
          "type": "uint256"
        }
      ],
      "payable": false,
      "stateMutability": "nonpayable",
      "type": "function"
    },
    {
      "constant": true,
      "inputs": [
        {
          "internalType": "address",
          "name": "account",
          "type": "address"
        }
      ],
      "name": "borrowBalanceStored",
      "outputs": [
        {
          "internalType": "uint256",
          "name": "",
          "type": "uint256"
        }
      ],
      "payable": false,
      "stateMutability": "view",
      "type": "function"
    },
    {
      "constant": true,
      "inputs": [],
      "name": "borrowIndex",
      "outputs": [
        {
          "internalType": "uint256",
          "name": "",
          "type": "uint256"
        }
      ],
      "payable": false,
      "stateMutability": "view",
      "type": "function"
    },
    {
      "constant": false,
      "inputs": [
        {
          "internalType": "uint256",
          "name": "borrowAmount",
          "type": "uint256"
        }
      ],
      "name": "borrowNative",
      "outputs": [
        {
          "internalType": "uint256",
          "name": "",
          "type": "uint256"
        }
      ],
      "payable": false,
      "stateMutability": "nonpayable",
      "type": "function"
    },
    {
      "constant": true,
      "inputs": [],
      "name": "borrowRatePerSecond",
      "outputs": [
        {
          "internalType": "uint256",
          "name": "",
          "type": "uint256"
        }
      ],
      "payable": false,
      "stateMutability": "view",
      "type": "function"
    },
    {
      "constant": true,
      "inputs": [],
      "name": "decimals",
      "outputs": [
        {
          "internalType": "uint8",
          "name": "",
          "type": "uint8"
        }
      ],
      "payable": false,
      "stateMutability": "view",
      "type": "function"
    },
    {
      "constant": true,
      "inputs": [
        {
          "internalType": "uint256",
          "name": "change",
          "type": "uint256"
        },
        {
          "internalType": "bool",
          "name": "repay",
          "type": "bool"
        }
      ],
      "name": "estimateBorrowRatePerSecondAfterChange",
      "outputs": [
        {
          "internalType": "uint256",
          "name": "",
          "type": "uint256"
        }
      ],
      "payable": false,
      "stateMutability": "view",
      "type": "function"
    },
    {
      "constant": true,
      "inputs": [
        {
          "internalType": "uint256",
          "name": "change",
          "type": "uint256"
        },
        {
          "internalType": "bool",
          "name": "repay",
          "type": "bool"
        }
      ],
      "name": "estimateSupplyRatePerSecondAfterChange",
      "outputs": [
        {
          "internalType": "uint256",
          "name": "",
          "type": "uint256"
        }
      ],
      "payable": false,
      "stateMutability": "view",
      "type": "function"
    },
    {
      "constant": false,
      "inputs": [],
      "name": "exchangeRateCurrent",
      "outputs": [
        {
          "internalType": "uint256",
          "name": "",
          "type": "uint256"
        }
      ],
      "payable": false,
      "stateMutability": "nonpayable",
      "type": "function"
    },
    {
      "constant": true,
      "inputs": [],
      "name": "exchangeRateStored",
      "outputs": [
        {
          "internalType": "uint256",
          "name": "",
          "type": "uint256"
        }
      ],
      "payable": false,
      "stateMutability": "view",
      "type": "function"
    },
    {
      "constant": true,
      "inputs": [
        {
          "internalType": "uint256",
          "name": "amount",
          "type": "uint256"
        }
      ],
      "name": "flashFee",
      "outputs": [
        {
          "internalType": "uint256",
          "name": "",
          "type": "uint256"
        }
      ],
      "payable": false,
      "stateMutability": "view",
      "type": "function"
    },
    {
      "constant": true,
      "inputs": [],
      "name": "flashFeeBips",
      "outputs": [
        {
          "internalType": "uint256",
          "name": "",
          "type": "uint256"
        }
      ],
      "payable": false,
      "stateMutability": "view",
      "type": "function"
    },
    {
      "constant": false,
      "inputs": [
        {
          "internalType": "contract ERC3156FlashBorrowerInterface",
          "name": "receiver",
          "type": "address"
        },
        {
          "internalType": "address",
          "name": "initiator",
          "type": "address"
        },
        {
          "internalType": "uint256",
          "name": "amount",
          "type": "uint256"
        },
        {
          "internalType": "bytes",
          "name": "data",
          "type": "bytes"
        }
      ],
      "name": "flashLoan",
      "outputs": [
        {
          "internalType": "bool",
          "name": "",
          "type": "bool"
        }
      ],
      "payable": false,
      "stateMutability": "nonpayable",
      "type": "function"
    },
    {
      "constant": true,
      "inputs": [
        {
          "internalType": "address",
          "name": "account",
          "type": "address"
        }
      ],
      "name": "getAccountSnapshot",
      "outputs": [
        {
          "internalType": "uint256",
          "name": "",
          "type": "uint256"
        },
        {
          "internalType": "uint256",
          "name": "",
          "type": "uint256"
        },
        {
          "internalType": "uint256",
          "name": "",
          "type": "uint256"
        },
        {
          "internalType": "uint256",
          "name": "",
          "type": "uint256"
        }
      ],
      "payable": false,
      "stateMutability": "view",
      "type": "function"
    },
    {
      "constant": true,
      "inputs": [],
      "name": "getCash",
      "outputs": [
        {
          "internalType": "uint256",
          "name": "",
          "type": "uint256"
        }
      ],
      "payable": false,
      "stateMutability": "view",
      "type": "function"
    },
    {
      "constant": true,
      "inputs": [],
      "name": "implementation",
      "outputs": [
        {
          "internalType": "address",
          "name": "",
          "type": "address"
        }
      ],
      "payable": false,
      "stateMutability": "view",
      "type": "function"
    },
    {
      "constant": false,
      "inputs": [
        {
          "internalType": "address",
          "name": "underlying_",
          "type": "address"
        },
        {
          "internalType": "contract JoetrollerInterface",
          "name": "joetroller_",
          "type": "address"
        },
        {
          "internalType": "contract InterestRateModel",
          "name": "interestRateModel_",
          "type": "address"
        },
        {
          "internalType": "uint256",
          "name": "initialExchangeRateMantissa_",
          "type": "uint256"
        },
        {
          "internalType": "string",
          "name": "name_",
          "type": "string"
        },
        {
          "internalType": "string",
          "name": "symbol_",
          "type": "string"
        },
        {
          "internalType": "uint8",
          "name": "decimals_",
          "type": "uint8"
        }
      ],
      "name": "initialize",
      "outputs": [],
      "payable": false,
      "stateMutability": "nonpayable",
      "type": "function"
    },
    {
      "constant": false,
      "inputs": [
        {
          "internalType": "contract JoetrollerInterface",
          "name": "joetroller_",
          "type": "address"
        },
        {
          "internalType": "contract InterestRateModel",
          "name": "interestRateModel_",
          "type": "address"
        },
        {
          "internalType": "uint256",
          "name": "initialExchangeRateMantissa_",
          "type": "uint256"
        },
        {
          "internalType": "string",
          "name": "name_",
          "type": "string"
        },
        {
          "internalType": "string",
          "name": "symbol_",
          "type": "string"
        },
        {
          "internalType": "uint8",
          "name": "decimals_",
          "type": "uint8"
        }
      ],
      "name": "initialize",
      "outputs": [],
      "payable": false,
      "stateMutability": "nonpayable",
      "type": "function"
    },
    {
      "constant": true,
      "inputs": [],
      "name": "interestRateModel",
      "outputs": [
        {
          "internalType": "contract InterestRateModel",
          "name": "",
          "type": "address"
        }
      ],
      "payable": false,
      "stateMutability": "view",
      "type": "function"
    },
    {
      "constant": true,
      "inputs": [],
      "name": "isJToken",
      "outputs": [
        {
          "internalType": "bool",
          "name": "",
          "type": "bool"
        }
      ],
      "payable": false,
      "stateMutability": "view",
      "type": "function"
    },
    {
      "constant": true,
      "inputs": [],
      "name": "joetroller",
      "outputs": [
        {
          "internalType": "contract JoetrollerInterface",
          "name": "",
          "type": "address"
        }
      ],
      "payable": false,
      "stateMutability": "view",
      "type": "function"
    },
    {
      "constant": false,
      "inputs": [
        {
          "internalType": "address",
          "name": "borrower",
          "type": "address"
        },
        {
          "internalType": "uint256",
          "name": "repayAmount",
          "type": "uint256"
        },
        {
          "internalType": "contract JTokenInterface",
          "name": "jTokenCollateral",
          "type": "address"
        }
      ],
      "name": "liquidateBorrow",
      "outputs": [
        {
          "internalType": "uint256",
          "name": "",
          "type": "uint256"
        }
      ],
      "payable": false,
      "stateMutability": "nonpayable",
      "type": "function"
    },
    {
      "constant": false,
      "inputs": [
        {
          "internalType": "address",
          "name": "borrower",
          "type": "address"
        },
        {
          "internalType": "contract JTokenInterface",
          "name": "jTokenCollateral",
          "type": "address"
        }
      ],
      "name": "liquidateBorrowNative",
      "outputs": [
        {
          "internalType": "uint256",
          "name": "",
          "type": "uint256"
        }
      ],
      "payable": true,
      "stateMutability": "payable",
      "type": "function"
    },
    {
      "constant": true,
      "inputs": [],
      "name": "maxFlashLoan",
      "outputs": [
        {
          "internalType": "uint256",
          "name": "",
          "type": "uint256"
        }
      ],
      "payable": false,
      "stateMutability": "view",
      "type": "function"
    },
    {
      "constant": false,
      "inputs": [
        {
          "internalType": "uint256",
          "name": "mintAmount",
          "type": "uint256"
        }
      ],
      "name": "mint",
      "outputs": [
        {
          "internalType": "uint256",
          "name": "",
          "type": "uint256"
        }
      ],
      "payable": false,
      "stateMutability": "nonpayable",
      "type": "function"
    },
    {
      "constant": false,
      "inputs": [],
      "name": "mintNative",
      "outputs": [
        {
          "internalType": "uint256",
          "name": "",
          "type": "uint256"
        }
      ],
      "payable": true,
      "stateMutability": "payable",
      "type": "function"
    },
    {
      "constant": true,
      "inputs": [],
      "name": "name",
      "outputs": [
        {
          "internalType": "string",
          "name": "",
          "type": "string"
        }
      ],
      "payable": false,
      "stateMutability": "view",
      "type": "function"
    },
    {
      "constant": true,
      "inputs": [],
      "name": "pendingAdmin",
      "outputs": [
        {
          "internalType": "address payable",
          "name": "",
          "type": "address"
        }
      ],
      "payable": false,
      "stateMutability": "view",
      "type": "function"
    },
    {
      "constant": false,
      "inputs": [
        {
          "internalType": "uint256",
          "name": "redeemTokens",
          "type": "uint256"
        }
      ],
      "name": "redeem",
      "outputs": [
        {
          "internalType": "uint256",
          "name": "",
          "type": "uint256"
        }
      ],
      "payable": false,
      "stateMutability": "nonpayable",
      "type": "function"
    },
    {
      "constant": false,
      "inputs": [
        {
          "internalType": "uint256",
          "name": "redeemTokens",
          "type": "uint256"
        }
      ],
      "name": "redeemNative",
      "outputs": [
        {
          "internalType": "uint256",
          "name": "",
          "type": "uint256"
        }
      ],
      "payable": false,
      "stateMutability": "nonpayable",
      "type": "function"
    },
    {
      "constant": false,
      "inputs": [
        {
          "internalType": "uint256",
          "name": "redeemAmount",
          "type": "uint256"
        }
      ],
      "name": "redeemUnderlying",
      "outputs": [
        {
          "internalType": "uint256",
          "name": "",
          "type": "uint256"
        }
      ],
      "payable": false,
      "stateMutability": "nonpayable",
      "type": "function"
    },
    {
      "constant": false,
      "inputs": [
        {
          "internalType": "uint256",
          "name": "redeemAmount",
          "type": "uint256"
        }
      ],
      "name": "redeemUnderlyingNative",
      "outputs": [
        {
          "internalType": "uint256",
          "name": "",
          "type": "uint256"
        }
      ],
      "payable": false,
      "stateMutability": "nonpayable",
      "type": "function"
    },
    {
      "constant": false,
      "inputs": [
        {
          "internalType": "uint256",
          "name": "repayAmount",
          "type": "uint256"
        }
      ],
      "name": "repayBorrow",
      "outputs": [
        {
          "internalType": "uint256",
          "name": "",
          "type": "uint256"
        }
      ],
      "payable": false,
      "stateMutability": "nonpayable",
      "type": "function"
    },
    {
      "constant": false,
      "inputs": [
        {
          "internalType": "address",
          "name": "borrower",
          "type": "address"
        },
        {
          "internalType": "uint256",
          "name": "repayAmount",
          "type": "uint256"
        }
      ],
      "name": "repayBorrowBehalf",
      "outputs": [
        {
          "internalType": "uint256",
          "name": "",
          "type": "uint256"
        }
      ],
      "payable": false,
      "stateMutability": "nonpayable",
      "type": "function"
    },
    {
      "constant": false,
      "inputs": [
        {
          "internalType": "address",
          "name": "borrower",
          "type": "address"
        }
      ],
      "name": "repayBorrowBehalfNative",
      "outputs": [
        {
          "internalType": "uint256",
          "name": "",
          "type": "uint256"
        }
      ],
      "payable": true,
      "stateMutability": "payable",
      "type": "function"
    },
    {
      "constant": false,
      "inputs": [],
      "name": "repayBorrowNative",
      "outputs": [
        {
          "internalType": "uint256",
          "name": "",
          "type": "uint256"
        }
      ],
      "payable": true,
      "stateMutability": "payable",
      "type": "function"
    },
    {
      "constant": true,
      "inputs": [],
      "name": "reserveFactorMantissa",
      "outputs": [
        {
          "internalType": "uint256",
          "name": "",
          "type": "uint256"
        }
      ],
      "payable": false,
      "stateMutability": "view",
      "type": "function"
    },
    {
      "constant": false,
      "inputs": [
        {
          "internalType": "address",
          "name": "liquidator",
          "type": "address"
        },
        {
          "internalType": "address",
          "name": "borrower",
          "type": "address"
        },
        {
          "internalType": "uint256",
          "name": "seizeTokens",
          "type": "uint256"
        }
      ],
      "name": "seize",
      "outputs": [
        {
          "internalType": "uint256",
          "name": "",
          "type": "uint256"
        }
      ],
      "payable": false,
      "stateMutability": "nonpayable",
      "type": "function"
    },
    {
      "constant": true,
      "inputs": [],
      "name": "supplyRatePerSecond",
      "outputs": [
        {
          "internalType": "uint256",
          "name": "",
          "type": "uint256"
        }
      ],
      "payable": false,
      "stateMutability": "view",
      "type": "function"
    },
    {
      "constant": true,
      "inputs": [],
      "name": "symbol",
      "outputs": [
        {
          "internalType": "string",
          "name": "",
          "type": "string"
        }
      ],
      "payable": false,
      "stateMutability": "view",
      "type": "function"
    },
    {
      "constant": true,
      "inputs": [],
      "name": "totalBorrows",
      "outputs": [
        {
          "internalType": "uint256",
          "name": "",
          "type": "uint256"
        }
      ],
      "payable": false,
      "stateMutability": "view",
      "type": "function"
    },
    {
      "constant": false,
      "inputs": [],
      "name": "totalBorrowsCurrent",
      "outputs": [
        {
          "internalType": "uint256",
          "name": "",
          "type": "uint256"
        }
      ],
      "payable": false,
      "stateMutability": "nonpayable",
      "type": "function"
    },
    {
      "constant": true,
      "inputs": [],
      "name": "totalReserves",
      "outputs": [
        {
          "internalType": "uint256",
          "name": "",
          "type": "uint256"
        }
      ],
      "payable": false,
      "stateMutability": "view",
      "type": "function"
    },
    {
      "constant": true,
      "inputs": [],
      "name": "totalSupply",
      "outputs": [
        {
          "internalType": "uint256",
          "name": "",
          "type": "uint256"
        }
      ],
      "payable": false,
      "stateMutability": "view",
      "type": "function"
    },
    {
      "constant": false,
      "inputs": [
        {
          "internalType": "address",
          "name": "dst",
          "type": "address"
        },
        {
          "internalType": "uint256",
          "name": "amount",
          "type": "uint256"
        }
      ],
      "name": "transfer",
      "outputs": [
        {
          "internalType": "bool",
          "name": "",
          "type": "bool"
        }
      ],
      "payable": false,
      "stateMutability": "nonpayable",
      "type": "function"
    },
    {
      "constant": false,
      "inputs": [
        {
          "internalType": "address",
          "name": "src",
          "type": "address"
        },
        {
          "internalType": "address",
          "name": "dst",
          "type": "address"
        },
        {
          "internalType": "uint256",
          "name": "amount",
          "type": "uint256"
        }
      ],
      "name": "transferFrom",
      "outputs": [
        {
          "internalType": "bool",
          "name": "",
          "type": "bool"
        }
      ],
      "payable": false,
      "stateMutability": "nonpayable",
      "type": "function"
    },
    {
      "constant": true,
      "inputs": [],
      "name": "underlying",
      "outputs": [
        {
          "internalType": "address",
          "name": "",
          "type": "address"
        }
      ],
      "payable": false,
      "stateMutability": "view",
      "type": "function"
    }
  ],
  "transactionHash": "0xc0b8aae5fb5454e7ddc0e9f1e2182b0b0dc892555445cd2a06757eaab30b87ea",
  "args": [],
  "solcInputHash": "c440a949314987df51e16ffd601dd0e9",
  "bytecode": "0x608060405234801561001057600080fd5b50615a7080620000216000396000f3fe6080604052600436106103ce5760003560e01c806370a08231116101fd578063b71d1a0c11610118578063dd62ed3e116100ab578063f2b3abbd1161007a578063f2b3abbd14611092578063f3fdb15a146110c5578063f5e3c462146110da578063f851a4401461111d578063fca7820b14611132576103ce565b8063dd62ed3e14611003578063dff764841461103e578063e9c714f214611068578063ea11eea41461107d576103ce565b8063cfa99201116100e7578063cfa9920114610f96578063d3c5715114610fab578063db006a7514610fb3578063dbf7692914610fdd576103ce565b8063b71d1a0c14610ecb578063bd6d894d14610efe578063c37f68e214610f13578063c5ebeaec14610f6c576103ce565b806399d8c1b411610190578063a9059cbb1161015f578063a9059cbb14610e25578063aa5af0fd14610e5e578063b1d3897414610e73578063b2a02ff114610e88576103ce565b806399d8c1b414610c61578063a0712d6814610dbc578063a6afed9514610de6578063a7af467a14610dfb576103ce565b80638d3f9c62116101cc5780638d3f9c6214610bfc5780638f840ddd14610c0457806395d89b4114610c1957806395dd919314610c2e576103ce565b806370a0823114610b6057806373acee9814610b93578063852a12e314610ba8578063884b934314610bd2576103ce565b8063313ce567116102ed57806350f6e082116102805780635cffe9de1161024f5780635cffe9de14610a71578063601a0bf114610b0c5780636330533c14610b365780636f307dc314610b4b576103ce565b806350f6e08214610964578063526097501461099657806356e67728146109ab5780635c60da1b14610a5c576103ce565b8063406de0b6116102bc578063406de0b6146108dd578063432f4b2d146108f257806347bd3718146109255780634bf03edf1461093a576103ce565b8063313ce567146108405780633af9e6691461086b5780633b1d21a21461089e5780633e941010146108b3576103ce565b8063182df0f511610365578063242c127c11610334578063242c127c146107935780632608f818146107a857806326782247146107e1578063291727a414610812576103ce565b8063182df0f5146105d05780631a31d465146105e5578063219f2fe71461074857806323b872dd14610750576103ce565b8063153ab505116103a1578063153ab5051461055e578063173b99041461057357806317bfdfbc1461058857806318160ddd146105bb576103ce565b806306fdde0314610419578063095ea7b3146104a35780630e752702146104f05780630f3e4e111461052c575b6011546001600160a01b031633146104175760405162461bcd60e51b81526004018080602001828103825260348152602001806159326034913960400191505060405180910390fd5b005b34801561042557600080fd5b5061042e61115c565b6040805160208082528351818301528351919283929083019185019080838360005b83811015610468578181015183820152602001610450565b50505050905090810190601f1680156104955780820380516001836020036101000a031916815260200191505b509250505060405180910390f35b3480156104af57600080fd5b506104dc600480360360408110156104c657600080fd5b506001600160a01b0381351690602001356111e9565b604080519115158252519081900360200190f35b3480156104fc57600080fd5b5061051a6004803603602081101561051357600080fd5b5035611254565b60408051918252519081900360200190f35b34801561053857600080fd5b5061051a6004803603604081101561054f57600080fd5b508035906020013515156112ad565b34801561056a57600080fd5b50610417611392565b34801561057f57600080fd5b5061051a6113e2565b34801561059457600080fd5b5061051a600480360360208110156105ab57600080fd5b50356001600160a01b03166113e8565b3480156105c757600080fd5b5061051a6114a8565b3480156105dc57600080fd5b5061051a6114ae565b3480156105f157600080fd5b50610417600480360360e081101561060857600080fd5b6001600160a01b03823581169260208101358216926040820135909216916060820135919081019060a081016080820135600160201b81111561064a57600080fd5b82018360208201111561065c57600080fd5b803590602001918460018302840111600160201b8311171561067d57600080fd5b91908080601f0160208091040260200160405190810160405280939291908181526020018383808284376000920191909152509295949360208101935035915050600160201b8111156106cf57600080fd5b8201836020820111156106e157600080fd5b803590602001918460018302840111600160201b8311171561070257600080fd5b91908080601f0160208091040260200160405190810160405280939291908181526020018383808284376000920191909152509295505050903560ff1691506114be9050565b61051a61155d565b34801561075c57600080fd5b506104dc6004803603606081101561077357600080fd5b506001600160a01b038135811691602081013590911690604001356115ba565b34801561079f57600080fd5b5061051a61162c565b3480156107b457600080fd5b5061051a600480360360408110156107cb57600080fd5b506001600160a01b0381351690602001356116d7565b3480156107ed57600080fd5b506107f6611739565b604080516001600160a01b039092168252519081900360200190f35b61051a6004803603604081101561082857600080fd5b506001600160a01b0381358116916020013516611748565b34801561084c57600080fd5b506108556117ae565b6040805160ff9092168252519081900360200190f35b34801561087757600080fd5b5061051a6004803603602081101561088e57600080fd5b50356001600160a01b03166117b7565b3480156108aa57600080fd5b5061051a611806565b3480156108bf57600080fd5b5061051a600480360360208110156108d657600080fd5b5035611810565b3480156108e957600080fd5b506104dc611865565b3480156108fe57600080fd5b5061051a6004803603602081101561091557600080fd5b50356001600160a01b031661186a565b34801561093157600080fd5b5061051a6119be565b34801561094657600080fd5b5061051a6004803603602081101561095d57600080fd5b50356119c4565b34801561097057600080fd5b5061051a6004803603604081101561098757600080fd5b50803590602001351515611a1a565b3480156109a257600080fd5b5061051a611ac9565b3480156109b757600080fd5b50610417600480360360208110156109ce57600080fd5b810190602081018135600160201b8111156109e857600080fd5b8201836020820111156109fa57600080fd5b803590602001918460018302840111600160201b83111715610a1b57600080fd5b91908080601f016020809104026020016040519081016040528093929190818152602001838380828437600092019190915250929550611b5e945050505050565b348015610a6857600080fd5b506107f6611c8e565b348015610a7d57600080fd5b506104dc60048036036080811015610a9457600080fd5b6001600160a01b03823581169260208101359091169160408201359190810190608081016060820135600160201b811115610ace57600080fd5b820183602082011115610ae057600080fd5b803590602001918460018302840111600160201b83111715610b0157600080fd5b509092509050611c9d565b348015610b1857600080fd5b5061051a60048036036020811015610b2f57600080fd5b50356121c7565b348015610b4257600080fd5b506107f6612262565b348015610b5757600080fd5b506107f6612271565b348015610b6c57600080fd5b5061051a60048036036020811015610b8357600080fd5b50356001600160a01b0316612280565b348015610b9f57600080fd5b5061051a61229b565b348015610bb457600080fd5b5061051a60048036036020811015610bcb57600080fd5b5035612351565b348015610bde57600080fd5b5061051a60048036036020811015610bf557600080fd5b50356123b0565b61051a612406565b348015610c1057600080fd5b5061051a612460565b348015610c2557600080fd5b5061042e612466565b348015610c3a57600080fd5b5061051a60048036036020811015610c5157600080fd5b50356001600160a01b03166124be565b348015610c6d57600080fd5b50610417600480360360c0811015610c8457600080fd5b6001600160a01b03823581169260208101359091169160408201359190810190608081016060820135600160201b811115610cbe57600080fd5b820183602082011115610cd057600080fd5b803590602001918460018302840111600160201b83111715610cf157600080fd5b91908080601f0160208091040260200160405190810160405280939291908181526020018383808284376000920191909152509295949360208101935035915050600160201b811115610d4357600080fd5b820183602082011115610d5557600080fd5b803590602001918460018302840111600160201b83111715610d7657600080fd5b91908080601f0160208091040260200160405190810160405280939291908181526020018383808284376000920191909152509295505050903560ff1691506124c99050565b348015610dc857600080fd5b5061051a60048036036020811015610ddf57600080fd5b50356126b0565b348015610df257600080fd5b5061051a612702565b348015610e0757600080fd5b5061051a60048036036020811015610e1e57600080fd5b5035612912565b348015610e3157600080fd5b506104dc60048036036040811015610e4857600080fd5b506001600160a01b038135169060200135612a04565b348015610e6a57600080fd5b5061051a612a76565b348015610e7f57600080fd5b5061051a612a7c565b348015610e9457600080fd5b5061051a60048036036060811015610eab57600080fd5b506001600160a01b03813581169160208101359091169060400135612aea565b348015610ed757600080fd5b5061051a60048036036020811015610eee57600080fd5b50356001600160a01b0316612b5b565b348015610f0a57600080fd5b5061051a612be7565b348015610f1f57600080fd5b50610f4660048036036020811015610f3657600080fd5b50356001600160a01b0316612ca3565b604080519485526020850193909352838301919091526060830152519081900360800190f35b348015610f7857600080fd5b5061051a60048036036020811015610f8f57600080fd5b5035612cdf565b348015610fa257600080fd5b5061051a612d2e565b61051a612d34565b348015610fbf57600080fd5b5061051a60048036036020811015610fd657600080fd5b5035612d89565b61051a60048036036020811015610ff357600080fd5b50356001600160a01b0316612dd8565b34801561100f57600080fd5b5061051a6004803603604081101561102657600080fd5b506001600160a01b0381358116916020013516612e3d565b34801561104a57600080fd5b5061051a6004803603602081101561106157600080fd5b5035612e68565b34801561107457600080fd5b5061051a612ec7565b34801561108957600080fd5b5061051a612fca565b34801561109e57600080fd5b5061051a600480360360208110156110b557600080fd5b50356001600160a01b0316612fcf565b3480156110d157600080fd5b506107f6613009565b3480156110e657600080fd5b5061051a600480360360608110156110fd57600080fd5b506001600160a01b03813581169160208101359160409091013516613018565b34801561112957600080fd5b506107f6613086565b34801561113e57600080fd5b5061051a6004803603602081101561115557600080fd5b503561309a565b60018054604080516020600284861615610100026000190190941693909304601f810184900484028201840190925281815292918301828280156111e15780601f106111b6576101008083540402835291602001916111e1565b820191906000526020600020905b8154815290600101906020018083116111c457829003601f168201915b505050505081565b336000818152600f602090815260408083206001600160a01b03871680855290835281842086905581518681529151939493909284927f8c5be1e5ebec7d5bd14f71427d1e84f3dd0314c0f7b2291e5b200ac8c7c3b925929081900390910190a35060019392505050565b600080611262836000613118565b50905080156112a7576040805162461bcd60e51b815260206004820152600c60248201526b1c995c185e4819985a5b195960a21b604482015290519081900360640190fd5b50919050565b600080600083156112de576112c96112c36131c4565b86613244565b91506112d7600b5486613281565b9050611300565b6112ef6112e96131c4565b86613281565b91506112fd600b5486613244565b90505b600654600c54604080516315f2405360e01b815260048101869052602481018590526044810192909252516001600160a01b03909216916315f2405391606480820192602092909190829003018186803b15801561135d57600080fd5b505afa158015611371573d6000803e3d6000fd5b505050506040513d602081101561138757600080fd5b505195945050505050565b60035461010090046001600160a01b031633146113e05760405162461bcd60e51b815260040180806020018281038252602d815260200180615905602d913960400191505060405180910390fd5b565b60085481565b6000805460ff1661142d576040805162461bcd60e51b815260206004820152600a6024820152691c994b595b9d195c995960b21b604482015290519081900360640190fd5b6000805460ff1916815561143f612702565b1461148a576040805162461bcd60e51b81526020600482015260166024820152751858d8dc9d59481a5b9d195c995cdd0819985a5b195960521b604482015290519081900360640190fd5b611493826124be565b90505b6000805460ff19166001179055919050565b600d5481565b60006114b86132bb565b90505b90565b6114cc8686868686866124c9565b601180546001600160a01b0319166001600160a01b038981169190911791829055604080516318160ddd60e01b8152905192909116916318160ddd91600480820192602092909190829003018186803b15801561152857600080fd5b505afa15801561153c573d6000803e3d6000fd5b505050506040513d602081101561155257600080fd5b505050505050505050565b60008061156b34600161331d565b50905080156115b6576040805162461bcd60e51b81526020600482015260126024820152711b5a5b9d081b985d1a5d994819985a5b195960721b604482015290519081900360640190fd5b5090565b6000805460ff166115ff576040805162461bcd60e51b815260206004820152600a6024820152691c994b595b9d195c995960b21b604482015290519081900360640190fd5b6000805460ff191681556116153386868661339f565b1490506000805460ff191660011790559392505050565b600554604080516358d5bc7360e11b81523060048201526000602482018190526044820181905260806064830152608482018190529151919283926001600160a01b039091169163b1ab78e69160c4808301926020929190829003018186803b15801561169857600080fd5b505afa1580156116ac573d6000803e3d6000fd5b505050506040513d60208110156116c257600080fd5b5051156114b8576116d16131c4565b92915050565b6000806116e6848460006135a8565b5090508015611732576040805162461bcd60e51b81526020600482015260136024820152721c995c185e4818995a185b198819985a5b1959606a1b604482015290519081900360640190fd5b5092915050565b6004546001600160a01b031681565b6000806117588434856001613655565b5090508015611732576040805162461bcd60e51b815260206004820152601e60248201527f6c697175696461746520626f72726f77206e6174697665206661696c65640000604482015290519081900360640190fd5b60035460ff1681565b60006117c16156d3565b60405180602001604052806117d4612be7565b90526001600160a01b0384166000908152600e60205260409020549091506117fd908290613789565b9150505b919050565b60006114b86131c4565b600061181d8260006137a8565b15611801576040805162461bcd60e51b8152602060048201526013602482015272185919081c995cd95c9d995cc819985a5b1959606a1b604482015290519081900360640190fd5b600181565b60035460009061010090046001600160a01b031633146118975761189060016029613846565b9050611801565b600554604080516340e6dcc560e01b815290516001600160a01b03928316928516916340e6dcc5916004808301926020929190829003018186803b1580156118de57600080fd5b505afa1580156118f2573d6000803e3d6000fd5b505050506040513d602081101561190857600080fd5b505161195b576040805162461bcd60e51b815260206004820152601c60248201527f6d61726b6572206d6574686f642072657475726e65642066616c736500000000604482015290519081900360640190fd5b600580546001600160a01b0319166001600160a01b03858116918217909255604080519284168352602083019190915280517f17d6db5ffe5a3d1c3d7a98194dca4f7d808d621e6ff9077ed574513d553a2a859281900390910190a160006117fd565b600b5481565b60006119d18260016138ac565b15611801576040805162461bcd60e51b81526020600482015260146024820152731c995919595b481b985d1a5d994819985a5b195960621b604482015290519081900360640190fd5b60008060008315611a4557611a306112c36131c4565b9150611a3e600b5486613281565b9050611a61565b611a506112e96131c4565b9150611a5e600b5486613244565b90505b600654600c5460085460408051635c0b440b60e11b8152600481018790526024810186905260448101939093526064830191909152516001600160a01b039092169163b816881691608480820192602092909190829003018186803b15801561135d57600080fd5b6006546000906001600160a01b03166315f24053611ae56131c4565b600b54600c546040518463ffffffff1660e01b815260040180848152602001838152602001828152602001935050505060206040518083038186803b158015611b2d57600080fd5b505afa158015611b41573d6000803e3d6000fd5b505050506040513d6020811015611b5757600080fd5b5051905090565b60035461010090046001600160a01b03163314611bac5760405162461bcd60e51b815260040180806020018281038252602d8152602001806159e3602d913960400191505060405180910390fd5b600554604080516303c03f0f60e01b81523060048201526002602482015290516001600160a01b03909216916303c03f0f9160448082019260009290919082900301818387803b158015611bff57600080fd5b505af1158015611c13573d6000803e3d6000fd5b504792505081159050611c8a57601160009054906101000a90046001600160a01b03166001600160a01b031663d0e30db0826040518263ffffffff1660e01b81526004016000604051808303818588803b158015611c7057600080fd5b505af1158015611c84573d6000803e3d6000fd5b50505050505b5050565b6012546001600160a01b031681565b6000805460ff16611ce2576040805162461bcd60e51b815260206004820152600a6024820152691c994b595b9d195c995960b21b604482015290519081900360640190fd5b6000805460ff1916905583611d285760405162461bcd60e51b815260040180806020018281038252602c815260200180615a10602c913960400191505060405180910390fd5b6000611d32612702565b14611d7d576040805162461bcd60e51b81526020600482015260166024820152751858d8dc9d59481a5b9d195c995cdd0819985a5b195960521b604482015290519081900360640190fd5b6005546040516358d5bc7360e11b815230600482018181526001600160a01b038a81166024850152604484018990526080606485019081526084850188905294169363b1ab78e6938b928a928a928a92919060a401848480828437600081840152601f19601f820116905080830192505050965050505050505060206040518083038186803b158015611e0f57600080fd5b505afa158015611e23573d6000803e3d6000fd5b505050506040513d6020811015611e3957600080fd5b5051611e82576040805162461bcd60e51b8152602060048201526013602482015272199b185cda1b1bd85b881a5cc81c185d5cd959606a1b604482015290519081900360640190fd5b6000611e8c6131c4565b905084811015611edc576040805162461bcd60e51b8152602060048201526016602482015275494e53554646494349454e545f4c495155494449545960501b604482015290519081900360640190fd5b6000306001600160a01b031663a7af467a876040518263ffffffff1660e01b81526004018082815260200191505060206040518083038186803b158015611f2257600080fd5b505afa158015611f36573d6000803e3d6000fd5b505050506040513d6020811015611f4c57600080fd5b50519050611f5c88876000613944565b611f68600b5487613244565b600b5560405180602961596682396040519081900360290181206011546323e30c8b60e01b83526001600160a01b038b81166004850190815291811660248501819052604485018c90526064850187905260a06084860190815260a486018b9052939550908d16936323e30c8b938d938d9289928e928e9290919060c401848480828437600081840152601f19601f820116905080830192505050975050505050505050602060405180830381600087803b15801561202657600080fd5b505af115801561203a573d6000803e3d6000fd5b505050506040513d602081101561205057600080fd5b5051146120a4576040805162461bcd60e51b815260206004820152601960248201527f49455243333135363a2043616c6c6261636b206661696c656400000000000000604482015290519081900360640190fd5b60006120b08783613244565b90506120be89826000613ae4565b5060006120c96131c4565b90506120d58484613244565b811461211f576040805162461bcd60e51b8152602060048201526014602482015273109053105390d157d25390d3d394d254d511539560621b604482015290519081900360640190fd5b600061213b604051806020016040528060085481525085613789565b9050612149600c5482613244565b600c55600b54612159908a613281565b600b55604080518a81526020810186905280820183905290516001600160a01b038d16917f33c8e097c526683cbdb29adf782fac95e9d0fbe0ed635c13d8c75fdf726557d9919081900360600190a26001955050505050506000805460ff1916600117905595945050505050565b6000805460ff1661220c576040805162461bcd60e51b815260206004820152600a6024820152691c994b595b9d195c995960b21b604482015290519081900360640190fd5b6000805460ff1916815561221e612702565b905080156122445761223c81601081111561223557fe5b601d613846565b915050611496565b61224d83613df0565b9150506000805460ff19166001179055919050565b6005546001600160a01b031681565b6011546001600160a01b031681565b6001600160a01b03166000908152600e602052604090205490565b6000805460ff166122e0576040805162461bcd60e51b815260206004820152600a6024820152691c994b595b9d195c995960b21b604482015290519081900360640190fd5b6000805460ff191681556122f2612702565b1461233d576040805162461bcd60e51b81526020600482015260166024820152751858d8dc9d59481a5b9d195c995cdd0819985a5b195960521b604482015290519081900360640190fd5b50600b546000805460ff1916600117905590565b600061235e826000613eee565b15611801576040805162461bcd60e51b815260206004820152601860248201527f72656465656d20756e6465726c79696e67206661696c65640000000000000000604482015290519081900360640190fd5b60006123bd826001613f69565b15611801576040805162461bcd60e51b8152602060048201526014602482015273189bdc9c9bddc81b985d1a5d994819985a5b195960621b604482015290519081900360640190fd5b600080612414346001613118565b50905080156115b6576040805162461bcd60e51b81526020600482015260136024820152721c995c185e481b985d1a5d994819985a5b1959606a1b604482015290519081900360640190fd5b600c5481565b6002805460408051602060018416156101000260001901909316849004601f810184900484028201840190925281815292918301828280156111e15780601f106111b6576101008083540402835291602001916111e1565b60006116d182613fe9565b60035461010090046001600160a01b031633146125175760405162461bcd60e51b815260040180806020018281038252602481526020018061583a6024913960400191505060405180910390fd5b6009541580156125275750600a54155b6125625760405162461bcd60e51b81526004018080602001828103825260238152602001806158906023913960400191505060405180910390fd5b6007849055836125a35760405162461bcd60e51b81526004018080602001828103825260308152602001806158b36030913960400191505060405180910390fd5b60006125ae8761186a565b90508015612603576040805162461bcd60e51b815260206004820152601960248201527f73657474696e67206a6f6574726f6c6c6572206661696c656400000000000000604482015290519081900360640190fd5b61260b61403e565b600955670de0b6b3a7640000600a5561262386614042565b905080156126625760405162461bcd60e51b81526004018080602001828103825260228152602001806158e36022913960400191505060405180910390fd5b83516126759060019060208701906156e6565b5082516126899060029060208601906156e6565b50506003805460ff90921660ff199283161790556000805490911660011790555050505050565b6000806126be83600061331d565b50905080156112a7576040805162461bcd60e51b815260206004820152600b60248201526a1b5a5b9d0819985a5b195960aa1b604482015290519081900360640190fd5b60008061270d61403e565b60095490915080821415612726576000925050506114bb565b60006127306131c4565b600b54600c54600a54600654604080516315f2405360e01b815260048101879052602481018690526044810185905290519596509394929391926000926001600160a01b03909216916315f24053916064808301926020929190829003018186803b15801561279e57600080fd5b505afa1580156127b2573d6000803e3d6000fd5b505050506040513d60208110156127c857600080fd5b5051905065048c27395000811115612827576040805162461bcd60e51b815260206004820152601c60248201527f626f72726f772072617465206973206162737572646c79206869676800000000604482015290519081900360640190fd5b60006128338888613281565b905061283d6156d3565b612855604051806020016040528085815250836141b7565b905060006128638288613789565b905060006128718289613244565b905060006128906040518060200160405280600854815250848a6141e1565b9050600061289f85898a6141e1565b60098e9055600a819055600b849055600c839055604080518d8152602081018790528082018390526060810186905290519192507f4dec04e750ca11537cabcd8a9eab06494de08da3735bc8871cd41250e190bc04919081900360800190a160009d505050505050505050505050505090565b600554604080516358d5bc7360e11b8152306004820152600060248201819052604482018590526080606483015260848201819052915191926001600160a01b03169163b1ab78e69160c480820192602092909190829003018186803b15801561297b57600080fd5b505afa15801561298f573d6000803e3d6000fd5b505050506040513d60208110156129a557600080fd5b50516129ee576040805162461bcd60e51b8152602060048201526013602482015272199b185cda1b1bd85b881a5cc81c185d5cd959606a1b604482015290519081900360640190fd5b6116d16129fc836008614209565b61271061424b565b6000805460ff16612a49576040805162461bcd60e51b815260206004820152600a6024820152691c994b595b9d195c995960b21b604482015290519081900360640190fd5b6000805460ff19168155612a5f3333868661339f565b1490505b6000805460ff1916600117905592915050565b600a5481565b6006546000906001600160a01b031663b8168816612a986131c4565b600b54600c546008546040518563ffffffff1660e01b81526004018085815260200184815260200183815260200182815260200194505050505060206040518083038186803b158015611b2d57600080fd5b6000805460ff16612b2f576040805162461bcd60e51b815260206004820152600a6024820152691c994b595b9d195c995960b21b604482015290519081900360640190fd5b6000805460ff19169055612b453385858561427e565b90506000805460ff191660011790559392505050565b60035460009061010090046001600160a01b03163314612b81576118906001602f613846565b600480546001600160a01b038481166001600160a01b0319831681179093556040805191909216808252602082019390935281517fca4f2f25d0898edd99413412fb94012f9e54ec8142f9b093e7720646a95b16a9929181900390910190a160006117fd565b6000805460ff16612c2c576040805162461bcd60e51b815260206004820152600a6024820152691c994b595b9d195c995960b21b604482015290519081900360640190fd5b6000805460ff19168155612c3e612702565b14612c89576040805162461bcd60e51b81526020600482015260166024820152751858d8dc9d59481a5b9d195c995cdd0819985a5b195960521b604482015290519081900360640190fd5b612c916114ae565b90506000805460ff1916600117905590565b6000806000806000612cb486612280565b90506000612cc187613fe9565b90506000612ccd6132bb565b90506000989297509095509350915050565b6000612cec826000613f69565b15611801576040805162461bcd60e51b815260206004820152600d60248201526c189bdc9c9bddc819985a5b1959609a1b604482015290519081900360640190fd5b60095481565b6000612d413460016137a8565b156114bb576040805162461bcd60e51b8152602060048201526013602482015272185919081c995cd95c9d995cc819985a5b1959606a1b604482015290519081900360640190fd5b6000612d968260006138ac565b15611801576040805162461bcd60e51b815260206004820152600d60248201526c1c995919595b4819985a5b1959609a1b604482015290519081900360640190fd5b600080612de7833460016135a8565b50905080156112a7576040805162461bcd60e51b815260206004820152601a60248201527f726570617920626568616c66206e6174697665206661696c6564000000000000604482015290519081900360640190fd5b6001600160a01b039182166000908152600f6020908152604080832093909416825291909152205490565b6000612e75826001613eee565b15611801576040805162461bcd60e51b815260206004820152601f60248201527f72656465656d20756e6465726c79696e67206e6174697665206661696c656400604482015290519081900360640190fd5b6004546000906001600160a01b031633141580612ee2575033155b15612efa57612ef360016000613846565b90506114bb565b60038054600480546001600160a01b03818116610100818102610100600160a81b0319871617968790556001600160a01b031990931690935560408051948390048216808652929095041660208401528351909391927ff9ffabca9c8276e99321725bcb43fb076a6c66a54b7f21c4e8146d8519b417dc92908290030190a1600454604080516001600160a01b038085168252909216602083015280517fca4f2f25d0898edd99413412fb94012f9e54ec8142f9b093e7720646a95b16a99281900390910190a160009250505090565b600881565b600080612fda612702565b9050801561300057612ff8816010811115612ff157fe5b602a613846565b915050611801565b6117fd83614042565b6006546001600160a01b031681565b6000806130288585856000613655565b509050801561307e576040805162461bcd60e51b815260206004820152601760248201527f6c697175696461746520626f72726f77206661696c6564000000000000000000604482015290519081900360640190fd5b509392505050565b60035461010090046001600160a01b031681565b6000805460ff166130df576040805162461bcd60e51b815260206004820152600a6024820152691c994b595b9d195c995960b21b604482015290519081900360640190fd5b6000805460ff191681556130f1612702565b9050801561310f5761223c81601081111561310857fe5b6030613846565b61224d83614401565b60008054819060ff1661315f576040805162461bcd60e51b815260206004820152600a6024820152691c994b595b9d195c995960b21b604482015290519081900360640190fd5b6000805460ff19168155613171612702565b9050801561319c5761318f81601081111561318857fe5b6023613846565b9250600091506131ae9050565b6131a8333387876144a9565b92509250505b6000805460ff1916600117905590939092509050565b601154604080516370a0823160e01b815230600482015290516000926001600160a01b03169182916370a0823191602480820192602092909190829003018186803b15801561321257600080fd5b505afa158015613226573d6000803e3d6000fd5b505050506040513d602081101561323c57600080fd5b505191505090565b600061327a8383604051806040016040528060118152602001706164646974696f6e206f766572666c6f7760781b81525061474b565b9392505050565b600061327a8383604051806040016040528060158152602001747375627472616374696f6e20756e646572666c6f7760581b8152506147e6565b600d54600090806132d05750506007546114bb565b60006132da6131c4565b905060006132f56132ed83600b54613244565b600c54613281565b9050600061331182604051806020016040528087815250614840565b94506114bb9350505050565b60008054819060ff16613364576040805162461bcd60e51b815260206004820152600a6024820152691c994b595b9d195c995960b21b604482015290519081900360640190fd5b6000805460ff19168155613376612702565b905080156133945761318f81601081111561338d57fe5b6014613846565b6131a833868661485e565b600554604080516317b9b84b60e31b81523060048201526001600160a01b03868116602483015285811660448301526064820185905291516000938493169163bdcdc25891608480830192602092919082900301818787803b15801561340457600080fd5b505af1158015613418573d6000803e3d6000fd5b505050506040513d602081101561342e57600080fd5b50519050801561344d576134456003603483614a66565b9150506135a0565b836001600160a01b0316856001600160a01b031614156134735761344560026035613846565b60006001600160a01b03878116908716141561349257506000196134ba565b506001600160a01b038086166000908152600f60209081526040808320938a16835292905220545b6001600160a01b0386166000908152600e60205260409020546134dd9085613281565b6001600160a01b038088166000908152600e6020526040808220939093559087168152205461350c9085613244565b6001600160a01b0386166000908152600e6020526040902055600019811461355f576135388185613281565b6001600160a01b038088166000908152600f60209081526040808320938c16835292905220555b846001600160a01b0316866001600160a01b031660008051602061598f833981519152866040518082815260200191505060405180910390a360005b925050505b949350505050565b60008054819060ff166135ef576040805162461bcd60e51b815260206004820152600a6024820152691c994b595b9d195c995960b21b604482015290519081900360640190fd5b6000805460ff19168155613601612702565b9050801561362c5761361f81601081111561361857fe5b6022613846565b92506000915061363e9050565b613638338787876144a9565b92509250505b6000805460ff191660011790559094909350915050565b60008054819060ff1661369c576040805162461bcd60e51b815260206004820152600a6024820152691c994b595b9d195c995960b21b604482015290519081900360640190fd5b6000805460ff191681556136ae612702565b905080156136d9576136cc8160108111156136c557fe5b6007613846565b9250600091506137719050565b846001600160a01b031663a6afed956040518163ffffffff1660e01b8152600401602060405180830381600087803b15801561371457600080fd5b505af1158015613728573d6000803e3d6000fd5b505050506040513d602081101561373e57600080fd5b50519050801561375e576136cc81601081111561375757fe5b6008613846565b61376b3388888888614acc565b92509250505b6000805460ff19166001179055909590945092505050565b60006137936156d3565b61379d84846141b7565b90506135a081614ff4565b6000805460ff166137ed576040805162461bcd60e51b815260206004820152600a6024820152691c994b595b9d195c995960b21b604482015290519081900360640190fd5b6000805460ff191681556137ff612702565b905080156138255761381d81601081111561381657fe5b6036613846565b915050612a63565b61382f8484615003565b509150506000805460ff1916600117905592915050565b60007f45b96fe442630264581b197e84bbada861235052c5a1aadfff9ea4e40a969aa083601081111561387557fe5b83603881111561388157fe5b604080519283526020830191909152600082820152519081900360600190a182601081111561327a57fe5b6000805460ff166138f1576040805162461bcd60e51b815260206004820152600a6024820152691c994b595b9d195c995960b21b604482015290519081900360640190fd5b6000805460ff19168155613903612702565b905080156139215761381d81601081111561391a57fe5b6019613846565b61392e33856000866150a1565b9150506000805460ff1916600117905592915050565b80156139eb5760115460408051632e1a7d4d60e01b81526004810185905290516001600160a01b0390921691632e1a7d4d9160248082019260009290919082900301818387803b15801561399757600080fd5b505af11580156139ab573d6000803e3d6000fd5b50506040516001600160a01b038616925084156108fc02915084906000818181858888f193505050501580156139e5573d6000803e3d6000fd5b50613adf565b6011546040805163a9059cbb60e01b81526001600160a01b0386811660048301526024820186905291519190921691829163a9059cbb9160448082019260009290919082900301818387803b158015613a4357600080fd5b505af1158015613a57573d6000803e3d6000fd5b5050505060003d60008114613a735760208114613a7d57600080fd5b6000199150613a89565b60206000803e60005191505b5080613adc576040805162461bcd60e51b815260206004820152601960248201527f544f4b454e5f5452414e534645525f4f55545f4641494c454400000000000000604482015290519081900360640190fd5b50505b505050565b60008115613bf157336001600160a01b03851614613b3b576040805162461bcd60e51b815260206004820152600f60248201526e0e6cadcc8cae440dad2e6dac2e8c6d608b1b604482015290519081900360640190fd5b823414613b80576040805162461bcd60e51b815260206004820152600e60248201526d0ecc2d8eaca40dad2e6dac2e8c6d60931b604482015290519081900360640190fd5b601160009054906101000a90046001600160a01b03166001600160a01b031663d0e30db0846040518263ffffffff1660e01b81526004016000604051808303818588803b158015613bd057600080fd5b505af1158015613be4573d6000803e3d6000fd5b505050505082905061327a565b601154604080516370a0823160e01b815230600482015290516001600160a01b039092169160009183916370a0823191602480820192602092909190829003018186803b158015613c4157600080fd5b505afa158015613c55573d6000803e3d6000fd5b505050506040513d6020811015613c6b57600080fd5b5051604080516323b872dd60e01b81526001600160a01b038981166004830152306024830152604482018990529151929350908416916323b872dd9160648082019260009290919082900301818387803b158015613cc857600080fd5b505af1158015613cdc573d6000803e3d6000fd5b5050505060003d60008114613cf85760208114613d0257600080fd5b6000199150613d0e565b60206000803e60005191505b5080613d61576040805162461bcd60e51b815260206004820152601860248201527f544f4b454e5f5452414e534645525f494e5f4641494c45440000000000000000604482015290519081900360640190fd5b601154604080516370a0823160e01b815230600482015290516000926001600160a01b0316916370a08231916024808301926020929190829003018186803b158015613dac57600080fd5b505afa158015613dc0573d6000803e3d6000fd5b505050506040513d6020811015613dd657600080fd5b50519050613de48184613281565b98975050505050505050565b600354600090819061010090046001600160a01b03163314613e1857612ff86001601e613846565b613e2061403e565b60095414613e3457612ff8600a6020613846565b82613e3d6131c4565b1015613e4f57612ff8600e601f613846565b600c54831115613e6557612ff860026021613846565b613e71600c5484613281565b600c819055600354909150613e969061010090046001600160a01b0316846001613944565b600354604080516101009092046001600160a01b0316825260208201859052818101839052517f3bad0c59cf2f06e7314077049f48a93578cd16f5ef92329f1dab1420a99c177e916060908290030190a160006117fd565b6000805460ff16613f33576040805162461bcd60e51b815260206004820152600a6024820152691c994b595b9d195c995960b21b604482015290519081900360640190fd5b6000805460ff19168155613f45612702565b90508015613f5c5761381d81601081111561391a57fe5b61392e33600086866150a1565b6000805460ff16613fae576040805162461bcd60e51b815260206004820152600a6024820152691c994b595b9d195c995960b21b604482015290519081900360640190fd5b6000805460ff19168155613fc0612702565b90508015613fde5761381d816010811115613fd757fe5b6002613846565b61392e3385856153d4565b6001600160a01b03811660009081526010602052604081208054614011576000915050611801565b60006140238260000154600a54614209565b9050600061403582846001015461424b565b95945050505050565b4290565b600354600090819061010090046001600160a01b0316331461406a57612ff86001602c613846565b61407261403e565b6009541461408657612ff8600a602b613846565b600660009054906101000a90046001600160a01b03169050826001600160a01b0316632191f92a6040518163ffffffff1660e01b815260040160206040518083038186803b1580156140d757600080fd5b505afa1580156140eb573d6000803e3d6000fd5b505050506040513d602081101561410157600080fd5b5051614154576040805162461bcd60e51b815260206004820152601c60248201527f6d61726b6572206d6574686f642072657475726e65642066616c736500000000604482015290519081900360640190fd5b600680546001600160a01b0319166001600160a01b03858116918217909255604080519284168352602083019190915280517fedffc32e068c7c95dfd4bdfd5c4d939a084d6b11c4199eac8436ed234d72f9269281900390910190a160006117fd565b6141bf6156d3565b60405180602001604052806141d8856000015185614209565b90529392505050565b60006141eb6156d3565b6141f585856141b7565b905061403561420382614ff4565b84613244565b600061327a83836040518060400160405280601781526020017f6d756c7469706c69636174696f6e206f766572666c6f770000000000000000008152506155af565b600061327a83836040518060400160405280600e81526020016d646976696465206279207a65726f60901b815250615625565b6005546040805163d02f735160e01b81523060048201526001600160a01b038781166024830152868116604483015285811660648301526084820185905291516000938493169163d02f73519160a480830192602092919082900301818787803b1580156142eb57600080fd5b505af11580156142ff573d6000803e3d6000fd5b505050506040513d602081101561431557600080fd5b50519050801561432c576134456003601183614a66565b82614338576000613445565b846001600160a01b0316846001600160a01b0316141561435e5761344560066012613846565b6001600160a01b0384166000908152600e60205260409020546143819084613281565b6001600160a01b038086166000908152600e602052604080822093909355908716815220546143b09084613244565b6001600160a01b038087166000818152600e6020908152604091829020949094558051878152905191939288169260008051602061598f83398151915292918290030190a360009695505050505050565b60035460009061010090046001600160a01b031633146144275761189060016031613846565b61442f61403e565b6009541461444357611890600a6032613846565b670de0b6b3a764000082111561445f5761189060026033613846565b6008805490839055604080518281526020810185905281517faaa68312e2ea9d50e16af5068410ab56e1a1fd06037b1a35664812c30f821460929181900390910190a160006117fd565b60055460408051631200453160e11b81523060048201526001600160a01b0387811660248301528681166044830152606482018690529151600093849384939116916324008a629160848082019260209290919082900301818787803b15801561451257600080fd5b505af1158015614526573d6000803e3d6000fd5b505050506040513d602081101561453c57600080fd5b505190508015614560576145536003602483614a66565b9250600091506147429050565b8461458c57600a546001600160a01b038716600090815260106020526040812060010191909155614553565b61459461403e565b600954146145a857614553600a6025613846565b6145b0615760565b6001600160a01b03871660009081526010602052604090206001015460608201526145da87613fe9565b60808201526000198614156145f85760808101516040820152614600565b604081018690525b61460f88826040015187613ae4565b60e08201819052608082015161462491613281565b60a0820152600b5460e082015161463b9190613281565b8160c00181815250508060a0015160106000896001600160a01b03166001600160a01b0316815260200190815260200160002060000181905550600a5460106000896001600160a01b03166001600160a01b03168152602001908152602001600020600101819055508060c00151600b819055507f1a2a22cb034d26d1854bdc6666a5b91fe25efbbb5dcad3b0355478d6f5c362a188888360e001518460a001518560c0015160405180866001600160a01b03166001600160a01b03168152602001856001600160a01b03166001600160a01b031681526020018481526020018381526020018281526020019550505050505060405180910390a160e00151600093509150505b94509492505050565b600083830182858210156147dd5760405162461bcd60e51b81526004018080602001828103825283818151815260200191508051906020019080838360005b838110156147a257818101518382015260200161478a565b50505050905090810190601f1680156147cf5780820380516001836020036101000a031916815260200191505b509250505060405180910390fd5b50949350505050565b600081848411156148385760405162461bcd60e51b81526020600482018181528351602484015283519092839260449091019190850190808383600083156147a257818101518382015260200161478a565b505050900390565b600061327a61485784670de0b6b3a7640000614209565b835161424b565b60055460408051634ef4c3e160e01b81523060048201526001600160a01b03868116602483015260448201869052915160009384938493911691634ef4c3e19160648082019260209290919082900301818787803b1580156148bf57600080fd5b505af11580156148d3573d6000803e3d6000fd5b505050506040513d60208110156148e957600080fd5b50519050801561490d576149006003601583614a66565b925060009150614a5e9050565b84614919576000614900565b61492161403e565b6009541461493557614900600a6016613846565b61493d6157a6565b6149456132bb565b8152614952878787613ae4565b6040808301829052805160208101909152825181526149719190615687565b60208201819052600d5461498491613244565b600d556001600160a01b0387166000908152600e6020908152604090912054908201516149b19190613244565b6001600160a01b0388166000818152600e60209081526040918290209390935583810151848401518251938452938301528181019290925290517f4c209b5fc8ad50758f13e2e1088ba56a560dff690a1c6fef26394f4c03821c4f9181900360600190a1866001600160a01b0316306001600160a01b031660008051602061598f83398151915283602001516040518082815260200191505060405180910390a360400151600093509150505b935093915050565b60007f45b96fe442630264581b197e84bbada861235052c5a1aadfff9ea4e40a969aa0846010811115614a9557fe5b846038811115614aa157fe5b604080519283526020830191909152818101859052519081900360600190a18360108111156135a057fe5b60055460408051632fe3f38f60e11b81523060048201526001600160a01b0385811660248301528881166044830152878116606483015260848201879052915160009384938493911691635fc7e71e9160a48082019260209290919082900301818787803b158015614b3d57600080fd5b505af1158015614b51573d6000803e3d6000fd5b505050506040513d6020811015614b6757600080fd5b505190508015614b8b57614b7e6003600a83614a66565b925060009150614fea9050565b614b9361403e565b60095414614ba757614b7e600a600e613846565b614baf61403e565b856001600160a01b031663cfa992016040518163ffffffff1660e01b815260040160206040518083038186803b158015614be857600080fd5b505afa158015614bfc573d6000803e3d6000fd5b505050506040513d6020811015614c1257600080fd5b505114614c2557614b7e600a6009613846565b876001600160a01b0316876001600160a01b03161415614c4b57614b7e6006600f613846565b85614c5c57614b7e6007600d613846565b600019861415614c7257614b7e6007600c613846565b600080614c818a8a8a896144a9565b90925090508115614cb157614ca2826010811115614c9b57fe5b6010613846565b945060009350614fea92505050565b6005546040805163c488847b60e01b81523060048201526001600160a01b038a81166024830152604482018590528251600094859492169263c488847b926064808301939192829003018186803b158015614d0b57600080fd5b505afa158015614d1f573d6000803e3d6000fd5b505050506040513d6040811015614d3557600080fd5b50805160209091015190925090508115614d805760405162461bcd60e51b815260040180806020018281038252603281526020018061585e6032913960400191505060405180910390fd5b80896001600160a01b03166370a082318d6040518263ffffffff1660e01b815260040180826001600160a01b03166001600160a01b0316815260200191505060206040518083038186803b158015614dd757600080fd5b505afa158015614deb573d6000803e3d6000fd5b505050506040513d6020811015614e0157600080fd5b50511015614e56576040805162461bcd60e51b815260206004820152601860248201527f4c49515549444154455f5345495a455f544f4f5f4d5543480000000000000000604482015290519081900360640190fd5b60006001600160a01b038a16301415614e7c57614e75308e8e8561427e565b9050614f06565b6040805163b2a02ff160e01b81526001600160a01b038f811660048301528e81166024830152604482018590529151918c169163b2a02ff1916064808201926020929091908290030181600087803b158015614ed757600080fd5b505af1158015614eeb573d6000803e3d6000fd5b505050506040513d6020811015614f0157600080fd5b505190505b8015614f50576040805162461bcd60e51b81526020600482015260146024820152731d1bdad95b881cd95a5e9d5c994819985a5b195960621b604482015290519081900360640190fd5b7f298637f684da70674f26509b10f07ec2fbc77a335ab1e7d6215a4b2484d8bb528d8d868d8660405180866001600160a01b03166001600160a01b03168152602001856001600160a01b03166001600160a01b03168152602001848152602001836001600160a01b03166001600160a01b031681526020018281526020019550505050505060405180910390a16000975092955050505050505b9550959350505050565b51670de0b6b3a7640000900490565b60008060008061501161403e565b6009541461503057615025600a6037613846565b9350915061509a9050565b61503b338787613ae4565b9050615049600c5482613244565b600c819055604080513381526020810184905280820183905290519193507fa91e67c5ea634cd43a12c5a482724b03de01e85ca68702a53d0c2f45cb7c1dc5919081900360600190a1600093509150505b9250929050565b60008315806150ae575082155b6150e95760405162461bcd60e51b81526004018080602001828103825260348152602001806159af6034913960400191505060405180910390fd5b6150f16157c7565b6150f96132bb565b8152841561512a576020808201869052604080519182019052815181526151209086613789565b6040820152615153565b6151468460405180602001604052808460000151815250615687565b6020820152604081018490525b6005546020808301516040805163eabe7d9160e01b81523060048201526001600160a01b038b8116602483015260448201939093529051600094929092169263eabe7d919260648084019382900301818787803b1580156151b357600080fd5b505af11580156151c7573d6000803e3d6000fd5b505050506040513d60208110156151dd57600080fd5b5051905080156151fd576151f46003601a83614a66565b925050506135a0565b85158015615209575084155b156152155760006151f4565b61521d61403e565b60095414615231576151f4600a601b613846565b615241600d548360200151613281565b60608301526001600160a01b0387166000908152600e6020908152604090912054908301516152709190613281565b608083015260408201516152826131c4565b1015615294576151f4600e601c613846565b6152a387836040015186613944565b6060820151600d5560808201516001600160a01b0388166000818152600e6020908152604091829020939093558285015181519081529051309360008051602061598f833981519152928290030190a360408083015160208085015183516001600160a01b038c168152918201929092528083019190915290517fe5b754fb1abb7f01b499791d0b820ae3b6af3424ac1c59768edb53f4ec31a9299181900360600190a1600554604080840151602085015182516351dff98960e01b81523060048201526001600160a01b038c811660248301526044820193909352606481019190915291519216916351dff9899160848082019260009290919082900301818387803b1580156153b357600080fd5b505af11580156153c7573d6000803e3d6000fd5b506000925061359b915050565b6005546040805163368f515360e21b81523060048201526001600160a01b0386811660248301526044820186905291516000938493169163da3d454c91606480830192602092919082900301818787803b15801561543157600080fd5b505af1158015615445573d6000803e3d6000fd5b505050506040513d602081101561545b57600080fd5b50519050801561547a576154726003600683614a66565b91505061327a565b836154a657600a546001600160a01b038616600090815260106020526040812060010191909155615472565b6154ae61403e565b600954146154c257615472600a6004613846565b836154cb6131c4565b10156154dd57615472600e6003613846565b6154e56157f6565b6154ee86613fe9565b602082018190526154ff9086613244565b6040820152600b546155119086613244565b6060820152615521868686613944565b604080820180516001600160a01b03891660008181526010602090815290859020928355600a54600190930192909255606080860151600b819055935185519283529282018a9052818501929092529081019190915290517f13ed6866d4e1ee6da46f845c46d7e54120883d75c5ea9a2dacc1c4ca8984ab809181900360800190a160009695505050505050565b60008315806155bc575082155b156155c95750600061327a565b838302838582816155d657fe5b041483906147dd5760405162461bcd60e51b81526020600482018181528351602484015283519092839260449091019190850190808383600083156147a257818101518382015260200161478a565b600081836156745760405162461bcd60e51b81526020600482018181528351602484015283519092839260449091019190850190808383600083156147a257818101518382015260200161478a565b5082848161567e57fe5b04949350505050565b60006156916156d3565b61379d848461569e6156d3565b60006156b2670de0b6b3a764000085614209565b905060405180602001604052806156c98386614840565b9052949350505050565b6040518060200160405280600081525090565b828054600181600116156101000203166002900490600052602060002090601f016020900481019282601f1061572757805160ff1916838001178555615754565b82800160010185558215615754579182015b82811115615754578251825591602001919060010190615739565b506115b692915061581f565b6040805161010081019091528060008152602001600081526020016000815260200160008152602001600081526020016000815260200160008152602001600081525090565b60405180606001604052806000815260200160008152602001600081525090565b6040518060a0016040528060008152602001600081526020016000815260200160008152602001600081525090565b604080516080810190915280600081526020016000815260200160008152602001600081525090565b6114bb91905b808211156115b6576000815560010161582556fe6f6e6c792061646d696e206d617920696e697469616c697a6520746865206d61726b65744c49515549444154455f4a4f4554524f4c4c45525f43414c43554c4154455f414d4f554e545f5345495a455f4641494c45446d61726b6574206d6179206f6e6c7920626520696e697469616c697a6564206f6e6365696e697469616c2065786368616e67652072617465206d7573742062652067726561746572207468616e207a65726f2e73657474696e6720696e7465726573742072617465206d6f64656c206661696c65646f6e6c79207468652061646d696e206d61792063616c6c205f72657369676e496d706c656d656e746174696f6e6f6e6c792077726170706564206e617469766520636f6e747261637420636f756c642073656e64206e617469766520746f6b656e45524333313536466c617368426f72726f776572496e746572666163652e6f6e466c6173684c6f616eddf252ad1be2c89b69c2b068fc378daa952ba7f163c4a11628f55a4df523b3ef6f6e65206f662072656465656d546f6b656e73496e206f722072656465656d416d6f756e74496e206d757374206265207a65726f6f6e6c79207468652061646d696e206d61792063616c6c205f6265636f6d65496d706c656d656e746174696f6e666c6173684c6f616e20616d6f756e742073686f756c642062652067726561746572207468616e207a65726fa265627a7a7231582016e9d1b7844f9fc86367fbd96fc9a4a036d377918a3e7cf1f26ddcc51722c67764736f6c63430005100032",
  "devdoc": {
    "author": "Cream",
    "methods": {
      "_acceptAdmin()": {
        "details": "Admin function for pending admin to accept role and update admin",
        "return": "uint 0=success, otherwise a failure (see ErrorReporter.sol for details)"
      },
      "_addReserves(uint256)": {
        "details": "Accrues interest whether or not the operation succeeds, unless reverted Keep return in the function signature for backward joeatibility",
        "params": {
          "addAmount": "The amount fo underlying token to add as reserves"
        },
        "return": "uint 0=success, otherwise a failure (see ErrorReporter.sol for details)"
      },
      "_addReservesNative()": {
        "details": "Accrues interest whether or not the operation succeeds, unless reverted Keep return in the function signature for consistency",
        "return": "uint 0=success, otherwise a failure (see ErrorReporter.sol for details)"
      },
      "_becomeImplementation(bytes)": {
        "params": {
          "data": "The encoded bytes data for any initialization"
        }
      },
      "_reduceReserves(uint256)": {
        "params": {
          "reduceAmount": "Amount of reduction to reserves"
        },
        "return": "uint 0=success, otherwise a failure (see ErrorReporter.sol for details)"
      },
      "_setInterestRateModel(address)": {
        "details": "Admin function to accrue interest and update the interest rate model",
        "params": {
          "newInterestRateModel": "the new interest rate model to use"
        },
        "return": "uint 0=success, otherwise a failure (see ErrorReporter.sol for details)"
      },
      "_setJoetroller(address)": {
        "details": "Admin function to set a new joetroller",
        "return": "uint 0=success, otherwise a failure (see ErrorReporter.sol for details)"
      },
      "_setPendingAdmin(address)": {
        "details": "Admin function to begin change of admin. The newPendingAdmin must call `_acceptAdmin` to finalize the transfer.",
        "params": {
          "newPendingAdmin": "New pending admin."
        },
        "return": "uint 0=success, otherwise a failure (see ErrorReporter.sol for details)"
      },
      "_setReserveFactor(uint256)": {
        "details": "Admin function to accrue interest and set a new reserve factor",
        "return": "uint 0=success, otherwise a failure (see ErrorReporter.sol for details)"
      },
      "accrueInterest()": {
        "details": "This calculates interest accrued from the last checkpointed timestamp  up to the current timestamp and writes new checkpoint to storage."
      },
      "allowance(address,address)": {
        "params": {
          "owner": "The address of the account which owns the tokens to be spent",
          "spender": "The address of the account which may transfer tokens"
        },
        "return": "The number of tokens allowed to be spent (-1 means infinite)"
      },
      "approve(address,uint256)": {
        "details": "This will overwrite the approval amount for `spender` and is subject to issues noted [here](https://eips.ethereum.org/EIPS/eip-20#approve)",
        "params": {
          "amount": "The number of tokens that are approved (-1 means infinite)",
          "spender": "The address of the account which may transfer tokens"
        },
        "return": "Whether or not the approval succeeded"
      },
      "balanceOf(address)": {
        "params": {
          "owner": "The address of the account to query"
        },
        "return": "The number of tokens owned by `owner`"
      },
      "balanceOfUnderlying(address)": {
        "details": "This also accrues interest in a transaction",
        "params": {
          "owner": "The address of the account to query"
        },
        "return": "The amount of underlying owned by `owner`"
      },
      "borrow(uint256)": {
        "details": "Accrues interest whether or not the operation succeeds, unless reverted Keep return in the function signature for backward joeatibility",
        "params": {
          "borrowAmount": "The amount of the underlying asset to borrow"
        },
        "return": "uint 0=success, otherwise a failure (see ErrorReporter.sol for details)"
      },
      "borrowBalanceCurrent(address)": {
        "params": {
          "account": "The address whose balance should be calculated after updating borrowIndex"
        },
        "return": "The calculated balance"
      },
      "borrowBalanceStored(address)": {
        "params": {
          "account": "The address whose balance should be calculated"
        },
        "return": "The calculated balance"
      },
      "borrowNative(uint256)": {
        "details": "Accrues interest whether or not the operation succeeds, unless reverted Keep return in the function signature for consistency",
        "params": {
          "borrowAmount": "The amount of the underlying asset to borrow"
        },
        "return": "uint 0=success, otherwise a failure (see ErrorReporter.sol for details)"
      },
      "borrowRatePerSecond()": {
        "return": "The borrow interest rate per sec, scaled by 1e18"
      },
      "estimateBorrowRatePerSecondAfterChange(uint256,bool)": {
        "return": "The borrow interest rate per sec, scaled by 1e18"
      },
      "estimateSupplyRatePerSecondAfterChange(uint256,bool)": {
        "return": "The supply interest rate per sec, scaled by 1e18"
      },
      "exchangeRateCurrent()": {
        "return": "Calculated exchange rate scaled by 1e18"
      },
      "exchangeRateStored()": {
        "details": "This function does not accrue interest before calculating the exchange rate",
        "return": "Calculated exchange rate scaled by 1e18"
      },
      "flashFee(uint256)": {
        "params": {
          "amount": "amount of token to borrow"
        }
      },
      "flashLoan(address,address,uint256,bytes)": {
        "params": {
          "amount": "The amount of the funds to be loaned",
          "data": "The other data",
          "initiator": "flash loan initiator",
          "receiver": "The receiver address for the funds"
        },
        "return": "uint 0=success, otherwise a failure (see ErrorReporter.sol for details)"
      },
      "getAccountSnapshot(address)": {
        "details": "This is used by joetroller to more efficiently perform liquidity checks.",
        "params": {
          "account": "Address of the account to snapshot"
        },
        "return": "(possible error, token balance, borrow balance, exchange rate mantissa)"
      },
      "getCash()": {
        "return": "The quantity of underlying asset owned by this contract"
      },
      "initialize(address,address,address,uint256,string,string,uint8)": {
        "params": {
          "decimals_": "ERC-20 decimal precision of this token",
          "initialExchangeRateMantissa_": "The initial exchange rate, scaled by 1e18",
          "interestRateModel_": "The address of the interest rate model",
          "joetroller_": "The address of the Joetroller",
          "name_": "ERC-20 name of this token",
          "symbol_": "ERC-20 symbol of this token",
          "underlying_": "The address of the underlying asset"
        }
      },
      "initialize(address,address,uint256,string,string,uint8)": {
        "params": {
          "decimals_": "EIP-20 decimal precision of this token",
          "initialExchangeRateMantissa_": "The initial exchange rate, scaled by 1e18",
          "interestRateModel_": "The address of the interest rate model",
          "joetroller_": "The address of the Joetroller",
          "name_": "EIP-20 name of this token",
          "symbol_": "EIP-20 symbol of this token"
        }
      },
      "liquidateBorrow(address,uint256,address)": {
        "details": "Accrues interest whether or not the operation succeeds, unless reverted Keep return in the function signature for backward joeatibility",
        "params": {
          "borrower": "The borrower of this jToken to be liquidated",
          "jTokenCollateral": "The market in which to seize collateral from the borrower",
          "repayAmount": "The amount of the underlying borrowed asset to repay"
        },
        "return": "uint 0=success, otherwise a failure (see ErrorReporter.sol for details)"
      },
      "liquidateBorrowNative(address,address)": {
        "details": "Accrues interest whether or not the operation succeeds, unless reverted Keep return in the function signature for consistency",
        "params": {
          "borrower": "The borrower of this jToken to be liquidated",
          "jTokenCollateral": "The market in which to seize collateral from the borrower"
        },
        "return": "uint 0=success, otherwise a failure (see ErrorReporter.sol for details)"
      },
      "mint(uint256)": {
        "details": "Accrues interest whether or not the operation succeeds, unless reverted Keep return in the function signature for backward joeatibility",
        "params": {
          "mintAmount": "The amount of the underlying asset to supply"
        },
        "return": "uint 0=success, otherwise a failure (see ErrorReporter.sol for details)"
      },
      "mintNative()": {
        "details": "Accrues interest whether or not the operation succeeds, unless reverted Keep return in the function signature for consistency",
        "return": "uint 0=success, otherwise a failure (see ErrorReporter.sol for details)"
      },
      "redeem(uint256)": {
        "details": "Accrues interest whether or not the operation succeeds, unless reverted Keep return in the function signature for backward joeatibility",
        "params": {
          "redeemTokens": "The number of jTokens to redeem into underlying"
        },
        "return": "uint 0=success, otherwise a failure (see ErrorReporter.sol for details)"
      },
      "redeemNative(uint256)": {
        "details": "Accrues interest whether or not the operation succeeds, unless reverted Keep return in the function signature for consistency",
        "params": {
          "redeemTokens": "The number of jTokens to redeem into underlying"
        },
        "return": "uint 0=success, otherwise a failure (see ErrorReporter.sol for details)"
      },
      "redeemUnderlying(uint256)": {
        "details": "Accrues interest whether or not the operation succeeds, unless reverted Keep return in the function signature for backward joeatibility",
        "params": {
          "redeemAmount": "The amount of underlying to redeem"
        },
        "return": "uint 0=success, otherwise a failure (see ErrorReporter.sol for details)"
      },
      "redeemUnderlyingNative(uint256)": {
        "details": "Accrues interest whether or not the operation succeeds, unless reverted Keep return in the function signature for consistency",
        "params": {
          "redeemAmount": "The amount of underlying to redeem"
        },
        "return": "uint 0=success, otherwise a failure (see ErrorReporter.sol for details)"
      },
      "repayBorrow(uint256)": {
        "details": "Accrues interest whether or not the operation succeeds, unless reverted Keep return in the function signature for backward joeatibility",
        "params": {
          "repayAmount": "The amount to repay"
        },
        "return": "uint 0=success, otherwise a failure (see ErrorReporter.sol for details)"
      },
      "repayBorrowBehalf(address,uint256)": {
        "params": {
          "borrower": "the account with the debt being payed off",
          "repayAmount": "The amount to repay"
        },
        "return": "uint 0=success, otherwise a failure (see ErrorReporter.sol for details)"
      },
      "repayBorrowBehalfNative(address)": {
        "params": {
          "borrower": "the account with the debt being payed off"
        },
        "return": "uint 0=success, otherwise a failure (see ErrorReporter.sol for details)"
      },
      "repayBorrowNative()": {
        "details": "Accrues interest whether or not the operation succeeds, unless reverted Keep return in the function signature for consistency",
        "return": "uint 0=success, otherwise a failure (see ErrorReporter.sol for details)"
      },
      "seize(address,address,uint256)": {
        "details": "Will fail unless called by another jToken during the process of liquidation. Its absolutely critical to use msg.sender as the borrowed jToken and not a parameter.",
        "params": {
          "borrower": "The account having collateral seized",
          "liquidator": "The account receiving seized collateral",
          "seizeTokens": "The number of jTokens to seize"
        },
        "return": "uint 0=success, otherwise a failure (see ErrorReporter.sol for details)"
      },
      "supplyRatePerSecond()": {
        "return": "The supply interest rate per sec, scaled by 1e18"
      },
      "totalBorrowsCurrent()": {
        "return": "The total borrows with interest"
      },
      "transfer(address,uint256)": {
        "params": {
          "amount": "The number of tokens to transfer",
          "dst": "The address of the destination account"
        },
        "return": "Whether or not the transfer succeeded"
      },
      "transferFrom(address,address,uint256)": {
        "params": {
          "amount": "The number of tokens to transfer",
          "dst": "The address of the destination account",
          "src": "The address of the source account"
        },
        "return": "Whether or not the transfer succeeded"
      }
    },
    "title": "Cream's JWrappedNativeDelegate Contract"
  },
  "userdoc": {
    "methods": {
      "_acceptAdmin()": {
        "notice": "Accepts transfer of admin rights. msg.sender must be pendingAdmin"
      },
      "_addReserves(uint256)": {
        "notice": "The sender adds to reserves."
      },
      "_addReservesNative()": {
        "notice": "The sender adds to reserves."
      },
      "_becomeImplementation(bytes)": {
        "notice": "Called by the delegator on a delegate to initialize it for duty"
      },
      "_reduceReserves(uint256)": {
        "notice": "Accrues interest and reduces reserves by transferring to admin"
      },
      "_resignImplementation()": {
        "notice": "Called by the delegator on a delegate to forfeit its responsibility"
      },
      "_setInterestRateModel(address)": {
        "notice": "accrues interest and updates the interest rate model using _setInterestRateModelFresh"
      },
      "_setJoetroller(address)": {
        "notice": "Sets a new joetroller for the market"
      },
      "_setPendingAdmin(address)": {
        "notice": "Begins transfer of admin rights. The newPendingAdmin must call `_acceptAdmin` to finalize the transfer."
      },
      "_setReserveFactor(uint256)": {
        "notice": "accrues interest and sets a new reserve factor for the protocol using _setReserveFactorFresh"
      },
      "accrueInterest()": {
        "notice": "Applies accrued interest to total borrows and reserves"
      },
      "allowance(address,address)": {
        "notice": "Get the current allowance from `owner` for `spender`"
      },
      "approve(address,uint256)": {
        "notice": "Approve `spender` to transfer up to `amount` from `src`"
      },
      "balanceOf(address)": {
        "notice": "Get the token balance of the `owner`"
      },
      "balanceOfUnderlying(address)": {
        "notice": "Get the underlying balance of the `owner`"
      },
      "borrow(uint256)": {
        "notice": "Sender borrows assets from the protocol to their own address"
      },
      "borrowBalanceCurrent(address)": {
        "notice": "Accrue interest to updated borrowIndex and then calculate account's borrow balance using the updated borrowIndex"
      },
      "borrowBalanceStored(address)": {
        "notice": "Return the borrow balance of account based on stored data"
      },
      "borrowNative(uint256)": {
        "notice": "Sender borrows assets from the protocol to their own address"
      },
      "borrowRatePerSecond()": {
        "notice": "Returns the current per-sec borrow interest rate for this jToken"
      },
      "constructor": "Construct an empty delegate",
      "estimateBorrowRatePerSecondAfterChange(uint256,bool)": {
        "notice": "Returns the estimated per-sec borrow interest rate for this jToken after some change"
      },
      "estimateSupplyRatePerSecondAfterChange(uint256,bool)": {
        "notice": "Returns the estimated per-sec supply interest rate for this jToken after some change"
      },
      "exchangeRateCurrent()": {
        "notice": "Accrue interest then return the up-to-date exchange rate"
      },
      "exchangeRateStored()": {
        "notice": "Calculates the exchange rate from the underlying to the JToken"
      },
      "flashFee(uint256)": {
        "notice": "Get the flash loan fees"
      },
      "flashLoan(address,address,uint256,bytes)": {
        "notice": "Flash loan funds to a given account."
      },
      "getAccountSnapshot(address)": {
        "notice": "Get a snapshot of the account's balances, and the cached exchange rate"
      },
      "getCash()": {
        "notice": "Get cash balance of this jToken in the underlying asset"
      },
      "initialize(address,address,address,uint256,string,string,uint8)": {
        "notice": "Initialize the new money market"
      },
      "initialize(address,address,uint256,string,string,uint8)": {
        "notice": "Initialize the money market"
      },
      "liquidateBorrow(address,uint256,address)": {
        "notice": "The sender liquidates the borrowers collateral. The collateral seized is transferred to the liquidator."
      },
      "liquidateBorrowNative(address,address)": {
        "notice": "The sender liquidates the borrowers collateral. The collateral seized is transferred to the liquidator."
      },
      "maxFlashLoan()": {
        "notice": "Get the max flash loan amount"
      },
      "mint(uint256)": {
        "notice": "Sender supplies assets into the market and receives jTokens in exchange"
      },
      "mintNative()": {
        "notice": "Sender supplies assets into the market and receives jTokens in exchange"
      },
      "redeem(uint256)": {
        "notice": "Sender redeems jTokens in exchange for the underlying asset"
      },
      "redeemNative(uint256)": {
        "notice": "Sender redeems jTokens in exchange for the underlying asset"
      },
      "redeemUnderlying(uint256)": {
        "notice": "Sender redeems jTokens in exchange for a specified amount of underlying asset"
      },
      "redeemUnderlyingNative(uint256)": {
        "notice": "Sender redeems jTokens in exchange for a specified amount of underlying asset"
      },
      "repayBorrow(uint256)": {
        "notice": "Sender repays their own borrow"
      },
      "repayBorrowBehalf(address,uint256)": {
        "notice": "Sender repays a borrow belonging to borrower"
      },
      "repayBorrowBehalfNative(address)": {
        "notice": "Sender repays a borrow belonging to borrower"
      },
      "repayBorrowNative()": {
        "notice": "Sender repays their own borrow"
      },
      "seize(address,address,uint256)": {
        "notice": "Transfers collateral tokens (this market) to the liquidator."
      },
      "supplyRatePerSecond()": {
        "notice": "Returns the current per-sec supply interest rate for this jToken"
      },
      "totalBorrowsCurrent()": {
        "notice": "Returns the current total borrows plus accrued interest"
      },
      "transfer(address,uint256)": {
        "notice": "Transfer `amount` tokens from `msg.sender` to `dst`"
      },
      "transferFrom(address,address,uint256)": {
        "notice": "Transfer `amount` tokens from `src` to `dst`"
      }
    },
    "notice": "JTokens which wrap an EIP-20 underlying and are delegated to"
  },
  "storageLayout": {
    "storage": [
      {
        "astId": 14746,
        "contract": "contracts/JWrappedNativeDelegate.sol:JWrappedNativeDelegate",
        "label": "_notEntered",
        "offset": 0,
        "slot": "0",
        "type": "t_bool"
      },
      {
        "astId": 14748,
        "contract": "contracts/JWrappedNativeDelegate.sol:JWrappedNativeDelegate",
        "label": "name",
        "offset": 0,
        "slot": "1",
        "type": "t_string_storage"
      },
      {
        "astId": 14750,
        "contract": "contracts/JWrappedNativeDelegate.sol:JWrappedNativeDelegate",
        "label": "symbol",
        "offset": 0,
        "slot": "2",
        "type": "t_string_storage"
      },
      {
        "astId": 14752,
        "contract": "contracts/JWrappedNativeDelegate.sol:JWrappedNativeDelegate",
        "label": "decimals",
        "offset": 0,
        "slot": "3",
        "type": "t_uint8"
      },
      {
        "astId": 14760,
        "contract": "contracts/JWrappedNativeDelegate.sol:JWrappedNativeDelegate",
        "label": "admin",
        "offset": 1,
        "slot": "3",
        "type": "t_address_payable"
      },
      {
        "astId": 14762,
        "contract": "contracts/JWrappedNativeDelegate.sol:JWrappedNativeDelegate",
        "label": "pendingAdmin",
        "offset": 0,
        "slot": "4",
        "type": "t_address_payable"
      },
      {
        "astId": 14764,
        "contract": "contracts/JWrappedNativeDelegate.sol:JWrappedNativeDelegate",
        "label": "joetroller",
        "offset": 0,
        "slot": "5",
        "type": "t_contract(JoetrollerInterface)21023"
      },
      {
        "astId": 14766,
        "contract": "contracts/JWrappedNativeDelegate.sol:JWrappedNativeDelegate",
        "label": "interestRateModel",
        "offset": 0,
        "slot": "6",
        "type": "t_contract(InterestRateModel)2449"
      },
      {
        "astId": 14768,
        "contract": "contracts/JWrappedNativeDelegate.sol:JWrappedNativeDelegate",
        "label": "initialExchangeRateMantissa",
        "offset": 0,
        "slot": "7",
        "type": "t_uint256"
      },
      {
        "astId": 14770,
        "contract": "contracts/JWrappedNativeDelegate.sol:JWrappedNativeDelegate",
        "label": "reserveFactorMantissa",
        "offset": 0,
        "slot": "8",
        "type": "t_uint256"
      },
      {
        "astId": 14772,
        "contract": "contracts/JWrappedNativeDelegate.sol:JWrappedNativeDelegate",
        "label": "accrualBlockTimestamp",
        "offset": 0,
        "slot": "9",
        "type": "t_uint256"
      },
      {
        "astId": 14774,
        "contract": "contracts/JWrappedNativeDelegate.sol:JWrappedNativeDelegate",
        "label": "borrowIndex",
        "offset": 0,
        "slot": "10",
        "type": "t_uint256"
      },
      {
        "astId": 14776,
        "contract": "contracts/JWrappedNativeDelegate.sol:JWrappedNativeDelegate",
        "label": "totalBorrows",
        "offset": 0,
        "slot": "11",
        "type": "t_uint256"
      },
      {
        "astId": 14778,
        "contract": "contracts/JWrappedNativeDelegate.sol:JWrappedNativeDelegate",
        "label": "totalReserves",
        "offset": 0,
        "slot": "12",
        "type": "t_uint256"
      },
      {
        "astId": 14780,
        "contract": "contracts/JWrappedNativeDelegate.sol:JWrappedNativeDelegate",
        "label": "totalSupply",
        "offset": 0,
        "slot": "13",
        "type": "t_uint256"
      },
      {
        "astId": 14784,
        "contract": "contracts/JWrappedNativeDelegate.sol:JWrappedNativeDelegate",
        "label": "accountTokens",
        "offset": 0,
        "slot": "14",
        "type": "t_mapping(t_address,t_uint256)"
      },
      {
        "astId": 14790,
        "contract": "contracts/JWrappedNativeDelegate.sol:JWrappedNativeDelegate",
        "label": "transferAllowances",
        "offset": 0,
        "slot": "15",
        "type": "t_mapping(t_address,t_mapping(t_address,t_uint256))"
      },
      {
        "astId": 14799,
        "contract": "contracts/JWrappedNativeDelegate.sol:JWrappedNativeDelegate",
        "label": "accountBorrows",
        "offset": 0,
        "slot": "16",
        "type": "t_mapping(t_address,t_struct(BorrowSnapshot)14795_storage)"
      },
      {
        "astId": 14802,
        "contract": "contracts/JWrappedNativeDelegate.sol:JWrappedNativeDelegate",
        "label": "underlying",
        "offset": 0,
        "slot": "17",
        "type": "t_address"
      },
      {
        "astId": 14804,
        "contract": "contracts/JWrappedNativeDelegate.sol:JWrappedNativeDelegate",
        "label": "implementation",
        "offset": 0,
        "slot": "18",
        "type": "t_address"
      }
    ],
    "types": {
      "t_address": {
        "encoding": "inplace",
        "label": "address",
        "numberOfBytes": "20"
      },
      "t_address_payable": {
        "encoding": "inplace",
        "label": "address payable",
        "numberOfBytes": "20"
      },
      "t_bool": {
        "encoding": "inplace",
        "label": "bool",
        "numberOfBytes": "1"
      },
      "t_contract(InterestRateModel)2449": {
        "encoding": "inplace",
        "label": "contract InterestRateModel",
        "numberOfBytes": "20"
      },
      "t_contract(JoetrollerInterface)21023": {
        "encoding": "inplace",
        "label": "contract JoetrollerInterface",
        "numberOfBytes": "20"
      },
      "t_mapping(t_address,t_mapping(t_address,t_uint256))": {
        "encoding": "mapping",
        "key": "t_address",
        "label": "mapping(address => mapping(address => uint256))",
        "numberOfBytes": "32",
        "value": "t_mapping(t_address,t_uint256)"
      },
      "t_mapping(t_address,t_struct(BorrowSnapshot)14795_storage)": {
        "encoding": "mapping",
        "key": "t_address",
        "label": "mapping(address => struct JTokenStorage.BorrowSnapshot)",
        "numberOfBytes": "32",
        "value": "t_struct(BorrowSnapshot)14795_storage"
      },
      "t_mapping(t_address,t_uint256)": {
        "encoding": "mapping",
        "key": "t_address",
        "label": "mapping(address => uint256)",
        "numberOfBytes": "32",
        "value": "t_uint256"
      },
      "t_string_storage": {
        "encoding": "bytes",
        "label": "string",
        "numberOfBytes": "32"
      },
      "t_struct(BorrowSnapshot)14795_storage": {
        "encoding": "inplace",
        "label": "struct JTokenStorage.BorrowSnapshot",
        "members": [
          {
            "astId": 14792,
            "contract": "contracts/JWrappedNativeDelegate.sol:JWrappedNativeDelegate",
            "label": "principal",
            "offset": 0,
            "slot": "0",
            "type": "t_uint256"
          },
          {
            "astId": 14794,
            "contract": "contracts/JWrappedNativeDelegate.sol:JWrappedNativeDelegate",
            "label": "interestIndex",
            "offset": 0,
            "slot": "1",
            "type": "t_uint256"
          }
        ],
        "numberOfBytes": "64"
      },
      "t_uint256": {
        "encoding": "inplace",
        "label": "uint256",
        "numberOfBytes": "32"
      },
      "t_uint8": {
        "encoding": "inplace",
        "label": "uint8",
        "numberOfBytes": "1"
      }
    }
  }
}