{
  "address": "0x452F7cDB08024bb679Fce85ea384c68D5813D0c0",
  "abi": [
    {
      "inputs": [],
      "payable": false,
      "stateMutability": "nonpayable",
      "type": "constructor"
    },
    {
      "anonymous": false,
      "inputs": [
        {
          "indexed": false,
          "internalType": "uint256",
          "name": "cashPrior",
          "type": "uint256"
        },
        {
          "indexed": false,
          "internalType": "uint256",
          "name": "interestAccumulated",
          "type": "uint256"
        },
        {
          "indexed": false,
          "internalType": "uint256",
          "name": "borrowIndex",
          "type": "uint256"
        },
        {
          "indexed": false,
          "internalType": "uint256",
          "name": "totalBorrows",
          "type": "uint256"
        }
      ],
      "name": "AccrueInterest",
      "type": "event"
    },
    {
      "anonymous": false,
      "inputs": [
        {
          "indexed": true,
          "internalType": "address",
          "name": "owner",
          "type": "address"
        },
        {
          "indexed": true,
          "internalType": "address",
          "name": "spender",
          "type": "address"
        },
        {
          "indexed": false,
          "internalType": "uint256",
          "name": "amount",
          "type": "uint256"
        }
      ],
      "name": "Approval",
      "type": "event"
    },
    {
      "anonymous": false,
      "inputs": [
        {
          "indexed": false,
          "internalType": "address",
          "name": "borrower",
          "type": "address"
        },
        {
          "indexed": false,
          "internalType": "uint256",
          "name": "borrowAmount",
          "type": "uint256"
        },
        {
          "indexed": false,
          "internalType": "uint256",
          "name": "accountBorrows",
          "type": "uint256"
        },
        {
          "indexed": false,
          "internalType": "uint256",
          "name": "totalBorrows",
          "type": "uint256"
        }
      ],
      "name": "Borrow",
      "type": "event"
    },
    {
      "anonymous": false,
      "inputs": [
        {
          "indexed": false,
          "internalType": "uint256",
          "name": "error",
          "type": "uint256"
        },
        {
          "indexed": false,
          "internalType": "uint256",
          "name": "info",
          "type": "uint256"
        },
        {
          "indexed": false,
          "internalType": "uint256",
          "name": "detail",
          "type": "uint256"
        }
      ],
      "name": "Failure",
      "type": "event"
    },
    {
      "anonymous": false,
      "inputs": [
        {
          "indexed": true,
          "internalType": "address",
          "name": "receiver",
          "type": "address"
        },
        {
          "indexed": false,
          "internalType": "uint256",
          "name": "amount",
          "type": "uint256"
        },
        {
          "indexed": false,
          "internalType": "uint256",
          "name": "totalFee",
          "type": "uint256"
        },
        {
          "indexed": false,
          "internalType": "uint256",
          "name": "reservesFee",
          "type": "uint256"
        }
      ],
      "name": "Flashloan",
      "type": "event"
    },
    {
      "anonymous": false,
      "inputs": [
        {
          "indexed": false,
          "internalType": "address",
          "name": "liquidator",
          "type": "address"
        },
        {
          "indexed": false,
          "internalType": "address",
          "name": "borrower",
          "type": "address"
        },
        {
          "indexed": false,
          "internalType": "uint256",
          "name": "repayAmount",
          "type": "uint256"
        },
        {
          "indexed": false,
          "internalType": "address",
          "name": "jTokenCollateral",
          "type": "address"
        },
        {
          "indexed": false,
          "internalType": "uint256",
          "name": "seizeTokens",
          "type": "uint256"
        }
      ],
      "name": "LiquidateBorrow",
      "type": "event"
    },
    {
      "anonymous": false,
      "inputs": [
        {
          "indexed": false,
          "internalType": "address",
          "name": "minter",
          "type": "address"
        },
        {
          "indexed": false,
          "internalType": "uint256",
          "name": "mintAmount",
          "type": "uint256"
        },
        {
          "indexed": false,
          "internalType": "uint256",
          "name": "mintTokens",
          "type": "uint256"
        }
      ],
      "name": "Mint",
      "type": "event"
    },
    {
      "anonymous": false,
      "inputs": [
        {
          "indexed": false,
          "internalType": "address",
          "name": "oldAdmin",
          "type": "address"
        },
        {
          "indexed": false,
          "internalType": "address",
          "name": "newAdmin",
          "type": "address"
        }
      ],
      "name": "NewAdmin",
      "type": "event"
    },
    {
      "anonymous": false,
      "inputs": [
        {
          "indexed": false,
          "internalType": "contract JoetrollerInterface",
          "name": "oldJoetroller",
          "type": "address"
        },
        {
          "indexed": false,
          "internalType": "contract JoetrollerInterface",
          "name": "newJoetroller",
          "type": "address"
        }
      ],
      "name": "NewJoetroller",
      "type": "event"
    },
    {
      "anonymous": false,
      "inputs": [
        {
          "indexed": false,
          "internalType": "contract InterestRateModel",
          "name": "oldInterestRateModel",
          "type": "address"
        },
        {
          "indexed": false,
          "internalType": "contract InterestRateModel",
          "name": "newInterestRateModel",
          "type": "address"
        }
      ],
      "name": "NewMarketInterestRateModel",
      "type": "event"
    },
    {
      "anonymous": false,
      "inputs": [
        {
          "indexed": false,
          "internalType": "address",
          "name": "oldPendingAdmin",
          "type": "address"
        },
        {
          "indexed": false,
          "internalType": "address",
          "name": "newPendingAdmin",
          "type": "address"
        }
      ],
      "name": "NewPendingAdmin",
      "type": "event"
    },
    {
      "anonymous": false,
      "inputs": [
        {
          "indexed": false,
          "internalType": "uint256",
          "name": "oldProtocolSeizeShareMantissa",
          "type": "uint256"
        },
        {
          "indexed": false,
          "internalType": "uint256",
          "name": "newProtocolSeizeShareMantissa",
          "type": "uint256"
        }
      ],
      "name": "NewProtocolSeizeShare",
      "type": "event"
    },
    {
      "anonymous": false,
      "inputs": [
        {
          "indexed": false,
          "internalType": "uint256",
          "name": "oldReserveFactorMantissa",
          "type": "uint256"
        },
        {
          "indexed": false,
          "internalType": "uint256",
          "name": "newReserveFactorMantissa",
          "type": "uint256"
        }
      ],
      "name": "NewReserveFactor",
      "type": "event"
    },
    {
      "anonymous": false,
      "inputs": [
        {
          "indexed": false,
          "internalType": "address",
          "name": "redeemer",
          "type": "address"
        },
        {
          "indexed": false,
          "internalType": "uint256",
          "name": "redeemAmount",
          "type": "uint256"
        },
        {
          "indexed": false,
          "internalType": "uint256",
          "name": "redeemTokens",
          "type": "uint256"
        }
      ],
      "name": "Redeem",
      "type": "event"
    },
    {
      "anonymous": false,
      "inputs": [
        {
          "indexed": false,
          "internalType": "address",
          "name": "payer",
          "type": "address"
        },
        {
          "indexed": false,
          "internalType": "address",
          "name": "borrower",
          "type": "address"
        },
        {
          "indexed": false,
          "internalType": "uint256",
          "name": "repayAmount",
          "type": "uint256"
        },
        {
          "indexed": false,
          "internalType": "uint256",
          "name": "accountBorrows",
          "type": "uint256"
        },
        {
          "indexed": false,
          "internalType": "uint256",
          "name": "totalBorrows",
          "type": "uint256"
        }
      ],
      "name": "RepayBorrow",
      "type": "event"
    },
    {
      "anonymous": false,
      "inputs": [
        {
          "indexed": false,
          "internalType": "address",
          "name": "benefactor",
          "type": "address"
        },
        {
          "indexed": false,
          "internalType": "uint256",
          "name": "addAmount",
          "type": "uint256"
        },
        {
          "indexed": false,
          "internalType": "uint256",
          "name": "newTotalReserves",
          "type": "uint256"
        }
      ],
      "name": "ReservesAdded",
      "type": "event"
    },
    {
      "anonymous": false,
      "inputs": [
        {
          "indexed": false,
          "internalType": "address",
          "name": "admin",
          "type": "address"
        },
        {
          "indexed": false,
          "internalType": "uint256",
          "name": "reduceAmount",
          "type": "uint256"
        },
        {
          "indexed": false,
          "internalType": "uint256",
          "name": "newTotalReserves",
          "type": "uint256"
        }
      ],
      "name": "ReservesReduced",
      "type": "event"
    },
    {
      "anonymous": false,
      "inputs": [
        {
          "indexed": true,
          "internalType": "address",
          "name": "from",
          "type": "address"
        },
        {
          "indexed": true,
          "internalType": "address",
          "name": "to",
          "type": "address"
        },
        {
          "indexed": false,
          "internalType": "uint256",
          "name": "amount",
          "type": "uint256"
        }
      ],
      "name": "Transfer",
      "type": "event"
    },
    {
      "payable": true,
      "stateMutability": "payable",
      "type": "fallback"
    },
    {
      "constant": false,
      "inputs": [],
      "name": "_acceptAdmin",
      "outputs": [
        {
          "internalType": "uint256",
          "name": "",
          "type": "uint256"
        }
      ],
      "payable": false,
      "stateMutability": "nonpayable",
      "type": "function"
    },
    {
      "constant": false,
      "inputs": [
        {
          "internalType": "uint256",
          "name": "addAmount",
          "type": "uint256"
        }
      ],
      "name": "_addReserves",
      "outputs": [
        {
          "internalType": "uint256",
          "name": "",
          "type": "uint256"
        }
      ],
      "payable": false,
      "stateMutability": "nonpayable",
      "type": "function"
    },
    {
      "constant": false,
      "inputs": [],
      "name": "_addReservesNative",
      "outputs": [
        {
          "internalType": "uint256",
          "name": "",
          "type": "uint256"
        }
      ],
      "payable": true,
      "stateMutability": "payable",
      "type": "function"
    },
    {
      "constant": false,
      "inputs": [
        {
          "internalType": "bytes",
          "name": "data",
          "type": "bytes"
        }
      ],
      "name": "_becomeImplementation",
      "outputs": [],
      "payable": false,
      "stateMutability": "nonpayable",
      "type": "function"
    },
    {
      "constant": false,
      "inputs": [
        {
          "internalType": "uint256",
          "name": "reduceAmount",
          "type": "uint256"
        }
      ],
      "name": "_reduceReserves",
      "outputs": [
        {
          "internalType": "uint256",
          "name": "",
          "type": "uint256"
        }
      ],
      "payable": false,
      "stateMutability": "nonpayable",
      "type": "function"
    },
    {
      "constant": false,
      "inputs": [],
      "name": "_resignImplementation",
      "outputs": [],
      "payable": false,
      "stateMutability": "nonpayable",
      "type": "function"
    },
    {
      "constant": false,
      "inputs": [
        {
          "internalType": "contract InterestRateModel",
          "name": "newInterestRateModel",
          "type": "address"
        }
      ],
      "name": "_setInterestRateModel",
      "outputs": [
        {
          "internalType": "uint256",
          "name": "",
          "type": "uint256"
        }
      ],
      "payable": false,
      "stateMutability": "nonpayable",
      "type": "function"
    },
    {
      "constant": false,
      "inputs": [
        {
          "internalType": "contract JoetrollerInterface",
          "name": "newJoetroller",
          "type": "address"
        }
      ],
      "name": "_setJoetroller",
      "outputs": [
        {
          "internalType": "uint256",
          "name": "",
          "type": "uint256"
        }
      ],
      "payable": false,
      "stateMutability": "nonpayable",
      "type": "function"
    },
    {
      "constant": false,
      "inputs": [
        {
          "internalType": "address payable",
          "name": "newPendingAdmin",
          "type": "address"
        }
      ],
      "name": "_setPendingAdmin",
      "outputs": [
        {
          "internalType": "uint256",
          "name": "",
          "type": "uint256"
        }
      ],
      "payable": false,
      "stateMutability": "nonpayable",
      "type": "function"
    },
    {
      "constant": false,
      "inputs": [
        {
          "internalType": "uint256",
          "name": "newProtocolSeizeShareMantissa",
          "type": "uint256"
        }
      ],
      "name": "_setProtocolSeizeShare",
      "outputs": [
        {
          "internalType": "uint256",
          "name": "",
          "type": "uint256"
        }
      ],
      "payable": false,
      "stateMutability": "nonpayable",
      "type": "function"
    },
    {
      "constant": false,
      "inputs": [
        {
          "internalType": "uint256",
          "name": "newReserveFactorMantissa",
          "type": "uint256"
        }
      ],
      "name": "_setReserveFactor",
      "outputs": [
        {
          "internalType": "uint256",
          "name": "",
          "type": "uint256"
        }
      ],
      "payable": false,
      "stateMutability": "nonpayable",
      "type": "function"
    },
    {
      "constant": true,
      "inputs": [],
      "name": "accrualBlockTimestamp",
      "outputs": [
        {
          "internalType": "uint256",
          "name": "",
          "type": "uint256"
        }
      ],
      "payable": false,
      "stateMutability": "view",
      "type": "function"
    },
    {
      "constant": false,
      "inputs": [],
      "name": "accrueInterest",
      "outputs": [
        {
          "internalType": "uint256",
          "name": "",
          "type": "uint256"
        }
      ],
      "payable": false,
      "stateMutability": "nonpayable",
      "type": "function"
    },
    {
      "constant": true,
      "inputs": [],
      "name": "admin",
      "outputs": [
        {
          "internalType": "address payable",
          "name": "",
          "type": "address"
        }
      ],
      "payable": false,
      "stateMutability": "view",
      "type": "function"
    },
    {
      "constant": true,
      "inputs": [
        {
          "internalType": "address",
          "name": "owner",
          "type": "address"
        },
        {
          "internalType": "address",
          "name": "spender",
          "type": "address"
        }
      ],
      "name": "allowance",
      "outputs": [
        {
          "internalType": "uint256",
          "name": "",
          "type": "uint256"
        }
      ],
      "payable": false,
      "stateMutability": "view",
      "type": "function"
    },
    {
      "constant": false,
      "inputs": [
        {
          "internalType": "address",
          "name": "spender",
          "type": "address"
        },
        {
          "internalType": "uint256",
          "name": "amount",
          "type": "uint256"
        }
      ],
      "name": "approve",
      "outputs": [
        {
          "internalType": "bool",
          "name": "",
          "type": "bool"
        }
      ],
      "payable": false,
      "stateMutability": "nonpayable",
      "type": "function"
    },
    {
      "constant": true,
      "inputs": [
        {
          "internalType": "address",
          "name": "owner",
          "type": "address"
        }
      ],
      "name": "balanceOf",
      "outputs": [
        {
          "internalType": "uint256",
          "name": "",
          "type": "uint256"
        }
      ],
      "payable": false,
      "stateMutability": "view",
      "type": "function"
    },
    {
      "constant": false,
      "inputs": [
        {
          "internalType": "address",
          "name": "owner",
          "type": "address"
        }
      ],
      "name": "balanceOfUnderlying",
      "outputs": [
        {
          "internalType": "uint256",
          "name": "",
          "type": "uint256"
        }
      ],
      "payable": false,
      "stateMutability": "nonpayable",
      "type": "function"
    },
    {
      "constant": false,
      "inputs": [
        {
          "internalType": "uint256",
          "name": "borrowAmount",
          "type": "uint256"
        }
      ],
      "name": "borrow",
      "outputs": [
        {
          "internalType": "uint256",
          "name": "",
          "type": "uint256"
        }
      ],
      "payable": false,
      "stateMutability": "nonpayable",
      "type": "function"
    },
    {
      "constant": false,
      "inputs": [
        {
          "internalType": "address",
          "name": "account",
          "type": "address"
        }
      ],
      "name": "borrowBalanceCurrent",
      "outputs": [
        {
          "internalType": "uint256",
          "name": "",
          "type": "uint256"
        }
      ],
      "payable": false,
      "stateMutability": "nonpayable",
      "type": "function"
    },
    {
      "constant": true,
      "inputs": [
        {
          "internalType": "address",
          "name": "account",
          "type": "address"
        }
      ],
      "name": "borrowBalanceStored",
      "outputs": [
        {
          "internalType": "uint256",
          "name": "",
          "type": "uint256"
        }
      ],
      "payable": false,
      "stateMutability": "view",
      "type": "function"
    },
    {
      "constant": true,
      "inputs": [],
      "name": "borrowIndex",
      "outputs": [
        {
          "internalType": "uint256",
          "name": "",
          "type": "uint256"
        }
      ],
      "payable": false,
      "stateMutability": "view",
      "type": "function"
    },
    {
      "constant": false,
      "inputs": [
        {
          "internalType": "uint256",
          "name": "borrowAmount",
          "type": "uint256"
        }
      ],
      "name": "borrowNative",
      "outputs": [
        {
          "internalType": "uint256",
          "name": "",
          "type": "uint256"
        }
      ],
      "payable": false,
      "stateMutability": "nonpayable",
      "type": "function"
    },
    {
      "constant": true,
      "inputs": [],
      "name": "borrowRatePerSecond",
      "outputs": [
        {
          "internalType": "uint256",
          "name": "",
          "type": "uint256"
        }
      ],
      "payable": false,
      "stateMutability": "view",
      "type": "function"
    },
    {
      "constant": true,
      "inputs": [],
      "name": "decimals",
      "outputs": [
        {
          "internalType": "uint8",
          "name": "",
          "type": "uint8"
        }
      ],
      "payable": false,
      "stateMutability": "view",
      "type": "function"
    },
    {
      "constant": true,
      "inputs": [
        {
          "internalType": "uint256",
          "name": "change",
          "type": "uint256"
        },
        {
          "internalType": "bool",
          "name": "repay",
          "type": "bool"
        }
      ],
      "name": "estimateBorrowRatePerSecondAfterChange",
      "outputs": [
        {
          "internalType": "uint256",
          "name": "",
          "type": "uint256"
        }
      ],
      "payable": false,
      "stateMutability": "view",
      "type": "function"
    },
    {
      "constant": true,
      "inputs": [
        {
          "internalType": "uint256",
          "name": "change",
          "type": "uint256"
        },
        {
          "internalType": "bool",
          "name": "repay",
          "type": "bool"
        }
      ],
      "name": "estimateSupplyRatePerSecondAfterChange",
      "outputs": [
        {
          "internalType": "uint256",
          "name": "",
          "type": "uint256"
        }
      ],
      "payable": false,
      "stateMutability": "view",
      "type": "function"
    },
    {
      "constant": false,
      "inputs": [],
      "name": "exchangeRateCurrent",
      "outputs": [
        {
          "internalType": "uint256",
          "name": "",
          "type": "uint256"
        }
      ],
      "payable": false,
      "stateMutability": "nonpayable",
      "type": "function"
    },
    {
      "constant": true,
      "inputs": [],
      "name": "exchangeRateStored",
      "outputs": [
        {
          "internalType": "uint256",
          "name": "",
          "type": "uint256"
        }
      ],
      "payable": false,
      "stateMutability": "view",
      "type": "function"
    },
    {
      "constant": true,
      "inputs": [
        {
          "internalType": "uint256",
          "name": "amount",
          "type": "uint256"
        }
      ],
      "name": "flashFee",
      "outputs": [
        {
          "internalType": "uint256",
          "name": "",
          "type": "uint256"
        }
      ],
      "payable": false,
      "stateMutability": "view",
      "type": "function"
    },
    {
      "constant": true,
      "inputs": [],
      "name": "flashFeeBips",
      "outputs": [
        {
          "internalType": "uint256",
          "name": "",
          "type": "uint256"
        }
      ],
      "payable": false,
      "stateMutability": "view",
      "type": "function"
    },
    {
      "constant": false,
      "inputs": [
        {
          "internalType": "contract ERC3156FlashBorrowerInterface",
          "name": "receiver",
          "type": "address"
        },
        {
          "internalType": "address",
          "name": "initiator",
          "type": "address"
        },
        {
          "internalType": "uint256",
          "name": "amount",
          "type": "uint256"
        },
        {
          "internalType": "bytes",
          "name": "data",
          "type": "bytes"
        }
      ],
      "name": "flashLoan",
      "outputs": [
        {
          "internalType": "bool",
          "name": "",
          "type": "bool"
        }
      ],
      "payable": false,
      "stateMutability": "nonpayable",
      "type": "function"
    },
    {
      "constant": true,
      "inputs": [
        {
          "internalType": "address",
          "name": "account",
          "type": "address"
        }
      ],
      "name": "getAccountSnapshot",
      "outputs": [
        {
          "internalType": "uint256",
          "name": "",
          "type": "uint256"
        },
        {
          "internalType": "uint256",
          "name": "",
          "type": "uint256"
        },
        {
          "internalType": "uint256",
          "name": "",
          "type": "uint256"
        },
        {
          "internalType": "uint256",
          "name": "",
          "type": "uint256"
        }
      ],
      "payable": false,
      "stateMutability": "view",
      "type": "function"
    },
    {
      "constant": true,
      "inputs": [],
      "name": "getCash",
      "outputs": [
        {
          "internalType": "uint256",
          "name": "",
          "type": "uint256"
        }
      ],
      "payable": false,
      "stateMutability": "view",
      "type": "function"
    },
    {
      "constant": true,
      "inputs": [],
      "name": "implementation",
      "outputs": [
        {
          "internalType": "address",
          "name": "",
          "type": "address"
        }
      ],
      "payable": false,
      "stateMutability": "view",
      "type": "function"
    },
    {
      "constant": false,
      "inputs": [
        {
          "internalType": "address",
          "name": "underlying_",
          "type": "address"
        },
        {
          "internalType": "contract JoetrollerInterface",
          "name": "joetroller_",
          "type": "address"
        },
        {
          "internalType": "contract InterestRateModel",
          "name": "interestRateModel_",
          "type": "address"
        },
        {
          "internalType": "uint256",
          "name": "initialExchangeRateMantissa_",
          "type": "uint256"
        },
        {
          "internalType": "string",
          "name": "name_",
          "type": "string"
        },
        {
          "internalType": "string",
          "name": "symbol_",
          "type": "string"
        },
        {
          "internalType": "uint8",
          "name": "decimals_",
          "type": "uint8"
        }
      ],
      "name": "initialize",
      "outputs": [],
      "payable": false,
      "stateMutability": "nonpayable",
      "type": "function"
    },
    {
      "constant": false,
      "inputs": [
        {
          "internalType": "contract JoetrollerInterface",
          "name": "joetroller_",
          "type": "address"
        },
        {
          "internalType": "contract InterestRateModel",
          "name": "interestRateModel_",
          "type": "address"
        },
        {
          "internalType": "uint256",
          "name": "initialExchangeRateMantissa_",
          "type": "uint256"
        },
        {
          "internalType": "string",
          "name": "name_",
          "type": "string"
        },
        {
          "internalType": "string",
          "name": "symbol_",
          "type": "string"
        },
        {
          "internalType": "uint8",
          "name": "decimals_",
          "type": "uint8"
        }
      ],
      "name": "initialize",
      "outputs": [],
      "payable": false,
      "stateMutability": "nonpayable",
      "type": "function"
    },
    {
      "constant": true,
      "inputs": [],
      "name": "interestRateModel",
      "outputs": [
        {
          "internalType": "contract InterestRateModel",
          "name": "",
          "type": "address"
        }
      ],
      "payable": false,
      "stateMutability": "view",
      "type": "function"
    },
    {
      "constant": true,
      "inputs": [],
      "name": "isJToken",
      "outputs": [
        {
          "internalType": "bool",
          "name": "",
          "type": "bool"
        }
      ],
      "payable": false,
      "stateMutability": "view",
      "type": "function"
    },
    {
      "constant": true,
      "inputs": [],
      "name": "joetroller",
      "outputs": [
        {
          "internalType": "contract JoetrollerInterface",
          "name": "",
          "type": "address"
        }
      ],
      "payable": false,
      "stateMutability": "view",
      "type": "function"
    },
    {
      "constant": false,
      "inputs": [
        {
          "internalType": "address",
          "name": "borrower",
          "type": "address"
        },
        {
          "internalType": "uint256",
          "name": "repayAmount",
          "type": "uint256"
        },
        {
          "internalType": "contract JTokenInterface",
          "name": "jTokenCollateral",
          "type": "address"
        }
      ],
      "name": "liquidateBorrow",
      "outputs": [
        {
          "internalType": "uint256",
          "name": "",
          "type": "uint256"
        }
      ],
      "payable": false,
      "stateMutability": "nonpayable",
      "type": "function"
    },
    {
      "constant": false,
      "inputs": [
        {
          "internalType": "address",
          "name": "borrower",
          "type": "address"
        },
        {
          "internalType": "contract JTokenInterface",
          "name": "jTokenCollateral",
          "type": "address"
        }
      ],
      "name": "liquidateBorrowNative",
      "outputs": [
        {
          "internalType": "uint256",
          "name": "",
          "type": "uint256"
        }
      ],
      "payable": true,
      "stateMutability": "payable",
      "type": "function"
    },
    {
      "constant": true,
      "inputs": [],
      "name": "maxFlashLoan",
      "outputs": [
        {
          "internalType": "uint256",
          "name": "",
          "type": "uint256"
        }
      ],
      "payable": false,
      "stateMutability": "view",
      "type": "function"
    },
    {
      "constant": false,
      "inputs": [
        {
          "internalType": "uint256",
          "name": "mintAmount",
          "type": "uint256"
        }
      ],
      "name": "mint",
      "outputs": [
        {
          "internalType": "uint256",
          "name": "",
          "type": "uint256"
        }
      ],
      "payable": false,
      "stateMutability": "nonpayable",
      "type": "function"
    },
    {
      "constant": false,
      "inputs": [],
      "name": "mintNative",
      "outputs": [
        {
          "internalType": "uint256",
          "name": "",
          "type": "uint256"
        }
      ],
      "payable": true,
      "stateMutability": "payable",
      "type": "function"
    },
    {
      "constant": true,
      "inputs": [],
      "name": "name",
      "outputs": [
        {
          "internalType": "string",
          "name": "",
          "type": "string"
        }
      ],
      "payable": false,
      "stateMutability": "view",
      "type": "function"
    },
    {
      "constant": true,
      "inputs": [],
      "name": "pendingAdmin",
      "outputs": [
        {
          "internalType": "address payable",
          "name": "",
          "type": "address"
        }
      ],
      "payable": false,
      "stateMutability": "view",
      "type": "function"
    },
    {
      "constant": true,
      "inputs": [],
      "name": "protocolSeizeShareMantissa",
      "outputs": [
        {
          "internalType": "uint256",
          "name": "",
          "type": "uint256"
        }
      ],
      "payable": false,
      "stateMutability": "view",
      "type": "function"
    },
    {
      "constant": false,
      "inputs": [
        {
          "internalType": "uint256",
          "name": "redeemTokens",
          "type": "uint256"
        }
      ],
      "name": "redeem",
      "outputs": [
        {
          "internalType": "uint256",
          "name": "",
          "type": "uint256"
        }
      ],
      "payable": false,
      "stateMutability": "nonpayable",
      "type": "function"
    },
    {
      "constant": false,
      "inputs": [
        {
          "internalType": "uint256",
          "name": "redeemTokens",
          "type": "uint256"
        }
      ],
      "name": "redeemNative",
      "outputs": [
        {
          "internalType": "uint256",
          "name": "",
          "type": "uint256"
        }
      ],
      "payable": false,
      "stateMutability": "nonpayable",
      "type": "function"
    },
    {
      "constant": false,
      "inputs": [
        {
          "internalType": "uint256",
          "name": "redeemAmount",
          "type": "uint256"
        }
      ],
      "name": "redeemUnderlying",
      "outputs": [
        {
          "internalType": "uint256",
          "name": "",
          "type": "uint256"
        }
      ],
      "payable": false,
      "stateMutability": "nonpayable",
      "type": "function"
    },
    {
      "constant": false,
      "inputs": [
        {
          "internalType": "uint256",
          "name": "redeemAmount",
          "type": "uint256"
        }
      ],
      "name": "redeemUnderlyingNative",
      "outputs": [
        {
          "internalType": "uint256",
          "name": "",
          "type": "uint256"
        }
      ],
      "payable": false,
      "stateMutability": "nonpayable",
      "type": "function"
    },
    {
      "constant": false,
      "inputs": [
        {
          "internalType": "uint256",
          "name": "repayAmount",
          "type": "uint256"
        }
      ],
      "name": "repayBorrow",
      "outputs": [
        {
          "internalType": "uint256",
          "name": "",
          "type": "uint256"
        }
      ],
      "payable": false,
      "stateMutability": "nonpayable",
      "type": "function"
    },
    {
      "constant": false,
      "inputs": [
        {
          "internalType": "address",
          "name": "borrower",
          "type": "address"
        },
        {
          "internalType": "uint256",
          "name": "repayAmount",
          "type": "uint256"
        }
      ],
      "name": "repayBorrowBehalf",
      "outputs": [
        {
          "internalType": "uint256",
          "name": "",
          "type": "uint256"
        }
      ],
      "payable": false,
      "stateMutability": "nonpayable",
      "type": "function"
    },
    {
      "constant": false,
      "inputs": [
        {
          "internalType": "address",
          "name": "borrower",
          "type": "address"
        }
      ],
      "name": "repayBorrowBehalfNative",
      "outputs": [
        {
          "internalType": "uint256",
          "name": "",
          "type": "uint256"
        }
      ],
      "payable": true,
      "stateMutability": "payable",
      "type": "function"
    },
    {
      "constant": false,
      "inputs": [],
      "name": "repayBorrowNative",
      "outputs": [
        {
          "internalType": "uint256",
          "name": "",
          "type": "uint256"
        }
      ],
      "payable": true,
      "stateMutability": "payable",
      "type": "function"
    },
    {
      "constant": true,
      "inputs": [],
      "name": "reserveFactorMantissa",
      "outputs": [
        {
          "internalType": "uint256",
          "name": "",
          "type": "uint256"
        }
      ],
      "payable": false,
      "stateMutability": "view",
      "type": "function"
    },
    {
      "constant": false,
      "inputs": [
        {
          "internalType": "address",
          "name": "liquidator",
          "type": "address"
        },
        {
          "internalType": "address",
          "name": "borrower",
          "type": "address"
        },
        {
          "internalType": "uint256",
          "name": "seizeTokens",
          "type": "uint256"
        }
      ],
      "name": "seize",
      "outputs": [
        {
          "internalType": "uint256",
          "name": "",
          "type": "uint256"
        }
      ],
      "payable": false,
      "stateMutability": "nonpayable",
      "type": "function"
    },
    {
      "constant": true,
      "inputs": [],
      "name": "supplyRatePerSecond",
      "outputs": [
        {
          "internalType": "uint256",
          "name": "",
          "type": "uint256"
        }
      ],
      "payable": false,
      "stateMutability": "view",
      "type": "function"
    },
    {
      "constant": true,
      "inputs": [],
      "name": "symbol",
      "outputs": [
        {
          "internalType": "string",
          "name": "",
          "type": "string"
        }
      ],
      "payable": false,
      "stateMutability": "view",
      "type": "function"
    },
    {
      "constant": true,
      "inputs": [],
      "name": "totalBorrows",
      "outputs": [
        {
          "internalType": "uint256",
          "name": "",
          "type": "uint256"
        }
      ],
      "payable": false,
      "stateMutability": "view",
      "type": "function"
    },
    {
      "constant": false,
      "inputs": [],
      "name": "totalBorrowsCurrent",
      "outputs": [
        {
          "internalType": "uint256",
          "name": "",
          "type": "uint256"
        }
      ],
      "payable": false,
      "stateMutability": "nonpayable",
      "type": "function"
    },
    {
      "constant": true,
      "inputs": [],
      "name": "totalReserves",
      "outputs": [
        {
          "internalType": "uint256",
          "name": "",
          "type": "uint256"
        }
      ],
      "payable": false,
      "stateMutability": "view",
      "type": "function"
    },
    {
      "constant": true,
      "inputs": [],
      "name": "totalSupply",
      "outputs": [
        {
          "internalType": "uint256",
          "name": "",
          "type": "uint256"
        }
      ],
      "payable": false,
      "stateMutability": "view",
      "type": "function"
    },
    {
      "constant": false,
      "inputs": [
        {
          "internalType": "address",
          "name": "dst",
          "type": "address"
        },
        {
          "internalType": "uint256",
          "name": "amount",
          "type": "uint256"
        }
      ],
      "name": "transfer",
      "outputs": [
        {
          "internalType": "bool",
          "name": "",
          "type": "bool"
        }
      ],
      "payable": false,
      "stateMutability": "nonpayable",
      "type": "function"
    },
    {
      "constant": false,
      "inputs": [
        {
          "internalType": "address",
          "name": "src",
          "type": "address"
        },
        {
          "internalType": "address",
          "name": "dst",
          "type": "address"
        },
        {
          "internalType": "uint256",
          "name": "amount",
          "type": "uint256"
        }
      ],
      "name": "transferFrom",
      "outputs": [
        {
          "internalType": "bool",
          "name": "",
          "type": "bool"
        }
      ],
      "payable": false,
      "stateMutability": "nonpayable",
      "type": "function"
    },
    {
      "constant": true,
      "inputs": [],
      "name": "underlying",
      "outputs": [
        {
          "internalType": "address",
          "name": "",
          "type": "address"
        }
      ],
      "payable": false,
      "stateMutability": "view",
      "type": "function"
    }
  ],
  "transactionHash": "0x59e5992ae28d714d3db299398aba72590ce0fea786d4edea3cc152c3046e6801",
  "args": [],
  "numDeployments": 1,
  "solcInputHash": "ccba4ca4b10045ddc914074155f9db3b",
  "bytecode": "0x608060405234801561001057600080fd5b50615cf680620000216000396000f3fe6080604052600436106103e45760003560e01c806370a0823111610208578063b71d1a0c11610118578063dd62ed3e116100ab578063f2b3abbd1161007a578063f2b3abbd146110e7578063f3fdb15a1461111a578063f5e3c4621461112f578063f851a44014611172578063fca7820b14611187576103e4565b8063dd62ed3e14611058578063dff7648414611093578063e9c714f2146110bd578063ea11eea4146110d2576103e4565b8063cfa99201116100e7578063cfa9920114610feb578063d3c5715114611000578063db006a7514611008578063dbf7692914611032576103e4565b8063b71d1a0c14610f20578063bd6d894d14610f53578063c37f68e214610f68578063c5ebeaec14610fc1576103e4565b806395dd91931161019b578063a7af467a1161016a578063a7af467a14610e50578063a9059cbb14610e7a578063aa5af0fd14610eb3578063b1d3897414610ec8578063b2a02ff114610edd576103e4565b806395dd919314610c8357806399d8c1b414610cb6578063a0712d6814610e11578063a6afed9514610e3b576103e4565b8063884b9343116101d7578063884b934314610c275780638d3f9c6214610c515780638f840ddd14610c5957806395d89b4114610c6e576103e4565b806370a0823114610b8b57806373acee9814610bbe5780638303084614610bd3578063852a12e314610bfd576103e4565b8063313ce5671161030357806350f6e082116102965780635cffe9de116102655780635cffe9de14610a87578063601a0bf114610b225780636330533c14610b4c5780636752e70214610b615780636f307dc314610b76576103e4565b806350f6e0821461097a57806352609750146109ac57806356e67728146109c15780635c60da1b14610a72576103e4565b8063406de0b6116102d2578063406de0b6146108f3578063432f4b2d1461090857806347bd37181461093b5780634bf03edf14610950576103e4565b8063313ce567146108565780633af9e669146108815780633b1d21a2146108b45780633e941010146108c9576103e4565b8063182df0f51161037b578063242c127c1161034a578063242c127c146107a95780632608f818146107be57806326782247146107f7578063291727a414610828576103e4565b8063182df0f5146105e65780631a31d465146105fb578063219f2fe71461075e57806323b872dd14610766576103e4565b8063153ab505116103b7578063153ab50514610574578063173b99041461058957806317bfdfbc1461059e57806318160ddd146105d1576103e4565b806306fdde031461042f578063095ea7b3146104b95780630e752702146105065780630f3e4e1114610542575b6011546001600160a01b0316331461042d5760405162461bcd60e51b8152600401808060200182810382526034815260200180615bb86034913960400191505060405180910390fd5b005b34801561043b57600080fd5b506104446111b1565b6040805160208082528351818301528351919283929083019185019080838360005b8381101561047e578181015183820152602001610466565b50505050905090810190601f1680156104ab5780820380516001836020036101000a031916815260200191505b509250505060405180910390f35b3480156104c557600080fd5b506104f2600480360360408110156104dc57600080fd5b506001600160a01b03813516906020013561123e565b604080519115158252519081900360200190f35b34801561051257600080fd5b506105306004803603602081101561052957600080fd5b50356112a9565b60408051918252519081900360200190f35b34801561054e57600080fd5b506105306004803603604081101561056557600080fd5b50803590602001351515611302565b34801561058057600080fd5b5061042d6113e7565b34801561059557600080fd5b50610530611437565b3480156105aa57600080fd5b50610530600480360360208110156105c157600080fd5b50356001600160a01b031661143d565b3480156105dd57600080fd5b506105306114fd565b3480156105f257600080fd5b50610530611503565b34801561060757600080fd5b5061042d600480360360e081101561061e57600080fd5b6001600160a01b03823581169260208101358216926040820135909216916060820135919081019060a081016080820135600160201b81111561066057600080fd5b82018360208201111561067257600080fd5b803590602001918460018302840111600160201b8311171561069357600080fd5b91908080601f0160208091040260200160405190810160405280939291908181526020018383808284376000920191909152509295949360208101935035915050600160201b8111156106e557600080fd5b8201836020820111156106f757600080fd5b803590602001918460018302840111600160201b8311171561071857600080fd5b91908080601f0160208091040260200160405190810160405280939291908181526020018383808284376000920191909152509295505050903560ff1691506115139050565b6105306115b2565b34801561077257600080fd5b506104f26004803603606081101561078957600080fd5b506001600160a01b0381358116916020810135909116906040013561160f565b3480156107b557600080fd5b50610530611681565b3480156107ca57600080fd5b50610530600480360360408110156107e157600080fd5b506001600160a01b03813516906020013561172c565b34801561080357600080fd5b5061080c61178e565b604080516001600160a01b039092168252519081900360200190f35b6105306004803603604081101561083e57600080fd5b506001600160a01b038135811691602001351661179d565b34801561086257600080fd5b5061086b611803565b6040805160ff9092168252519081900360200190f35b34801561088d57600080fd5b50610530600480360360208110156108a457600080fd5b50356001600160a01b031661180c565b3480156108c057600080fd5b5061053061185b565b3480156108d557600080fd5b50610530600480360360208110156108ec57600080fd5b5035611865565b3480156108ff57600080fd5b506104f26118ba565b34801561091457600080fd5b506105306004803603602081101561092b57600080fd5b50356001600160a01b03166118bf565b34801561094757600080fd5b50610530611a13565b34801561095c57600080fd5b506105306004803603602081101561097357600080fd5b5035611a19565b34801561098657600080fd5b506105306004803603604081101561099d57600080fd5b50803590602001351515611a6f565b3480156109b857600080fd5b50610530611b1e565b3480156109cd57600080fd5b5061042d600480360360208110156109e457600080fd5b810190602081018135600160201b8111156109fe57600080fd5b820183602082011115610a1057600080fd5b803590602001918460018302840111600160201b83111715610a3157600080fd5b91908080601f016020809104026020016040519081016040528093929190818152602001838380828437600092019190915250929550611bb3945050505050565b348015610a7e57600080fd5b5061080c611ce3565b348015610a9357600080fd5b506104f260048036036080811015610aaa57600080fd5b6001600160a01b03823581169260208101359091169160408201359190810190608081016060820135600160201b811115610ae457600080fd5b820183602082011115610af657600080fd5b803590602001918460018302840111600160201b83111715610b1757600080fd5b509092509050611cf2565b348015610b2e57600080fd5b5061053060048036036020811015610b4557600080fd5b503561221c565b348015610b5857600080fd5b5061080c6122b7565b348015610b6d57600080fd5b506105306122c6565b348015610b8257600080fd5b5061080c6122cc565b348015610b9757600080fd5b5061053060048036036020811015610bae57600080fd5b50356001600160a01b03166122db565b348015610bca57600080fd5b506105306122f6565b348015610bdf57600080fd5b5061053060048036036020811015610bf657600080fd5b50356123ac565b348015610c0957600080fd5b5061053060048036036020811015610c2057600080fd5b503561242a565b348015610c3357600080fd5b5061053060048036036020811015610c4a57600080fd5b5035612489565b6105306124df565b348015610c6557600080fd5b50610530612539565b348015610c7a57600080fd5b5061044461253f565b348015610c8f57600080fd5b5061053060048036036020811015610ca657600080fd5b50356001600160a01b0316612597565b348015610cc257600080fd5b5061042d600480360360c0811015610cd957600080fd5b6001600160a01b03823581169260208101359091169160408201359190810190608081016060820135600160201b811115610d1357600080fd5b820183602082011115610d2557600080fd5b803590602001918460018302840111600160201b83111715610d4657600080fd5b91908080601f0160208091040260200160405190810160405280939291908181526020018383808284376000920191909152509295949360208101935035915050600160201b811115610d9857600080fd5b820183602082011115610daa57600080fd5b803590602001918460018302840111600160201b83111715610dcb57600080fd5b91908080601f0160208091040260200160405190810160405280939291908181526020018383808284376000920191909152509295505050903560ff1691506125a29050565b348015610e1d57600080fd5b5061053060048036036020811015610e3457600080fd5b5035612789565b348015610e4757600080fd5b506105306127db565b348015610e5c57600080fd5b5061053060048036036020811015610e7357600080fd5b50356129eb565b348015610e8657600080fd5b506104f260048036036040811015610e9d57600080fd5b506001600160a01b038135169060200135612add565b348015610ebf57600080fd5b50610530612b4f565b348015610ed457600080fd5b50610530612b55565b348015610ee957600080fd5b5061053060048036036060811015610f0057600080fd5b506001600160a01b03813581169160208101359091169060400135612bc3565b348015610f2c57600080fd5b5061053060048036036020811015610f4357600080fd5b50356001600160a01b0316612c34565b348015610f5f57600080fd5b50610530612cc0565b348015610f7457600080fd5b50610f9b60048036036020811015610f8b57600080fd5b50356001600160a01b0316612d7c565b604080519485526020850193909352838301919091526060830152519081900360800190f35b348015610fcd57600080fd5b5061053060048036036020811015610fe457600080fd5b5035612db8565b348015610ff757600080fd5b50610530612e07565b610530612e0d565b34801561101457600080fd5b506105306004803603602081101561102b57600080fd5b5035612e62565b6105306004803603602081101561104857600080fd5b50356001600160a01b0316612eb1565b34801561106457600080fd5b506105306004803603604081101561107b57600080fd5b506001600160a01b0381358116916020013516612f16565b34801561109f57600080fd5b50610530600480360360208110156110b657600080fd5b5035612f41565b3480156110c957600080fd5b50610530612fa0565b3480156110de57600080fd5b506105306130a3565b3480156110f357600080fd5b506105306004803603602081101561110a57600080fd5b50356001600160a01b03166130a8565b34801561112657600080fd5b5061080c6130e2565b34801561113b57600080fd5b506105306004803603606081101561115257600080fd5b506001600160a01b038135811691602081013591604090910135166130f1565b34801561117e57600080fd5b5061080c61315f565b34801561119357600080fd5b50610530600480360360208110156111aa57600080fd5b5035613173565b60018054604080516020600284861615610100026000190190941693909304601f810184900484028201840190925281815292918301828280156112365780601f1061120b57610100808354040283529160200191611236565b820191906000526020600020905b81548152906001019060200180831161121957829003601f168201915b505050505081565b336000818152600f602090815260408083206001600160a01b03871680855290835281842086905581518681529151939493909284927f8c5be1e5ebec7d5bd14f71427d1e84f3dd0314c0f7b2291e5b200ac8c7c3b925929081900390910190a35060019392505050565b6000806112b78360006131f1565b50905080156112fc576040805162461bcd60e51b815260206004820152600c60248201526b1c995c185e4819985a5b195960a21b604482015290519081900360640190fd5b50919050565b600080600083156113335761131e61131861329d565b8661331d565b915061132c600b548661335a565b9050611355565b61134461133e61329d565b8661335a565b9150611352600b548661331d565b90505b600654600c54604080516315f2405360e01b815260048101869052602481018590526044810192909252516001600160a01b03909216916315f2405391606480820192602092909190829003018186803b1580156113b257600080fd5b505afa1580156113c6573d6000803e3d6000fd5b505050506040513d60208110156113dc57600080fd5b505195945050505050565b60035461010090046001600160a01b031633146114355760405162461bcd60e51b815260040180806020018281038252602d815260200180615b8b602d913960400191505060405180910390fd5b565b60085481565b6000805460ff16611482576040805162461bcd60e51b815260206004820152600a6024820152691c994b595b9d195c995960b21b604482015290519081900360640190fd5b6000805460ff191681556114946127db565b146114df576040805162461bcd60e51b81526020600482015260166024820152751858d8dc9d59481a5b9d195c995cdd0819985a5b195960521b604482015290519081900360640190fd5b6114e882612597565b90505b6000805460ff19166001179055919050565b600d5481565b600061150d613394565b90505b90565b6115218686868686866125a2565b601180546001600160a01b0319166001600160a01b038981169190911791829055604080516318160ddd60e01b8152905192909116916318160ddd91600480820192602092909190829003018186803b15801561157d57600080fd5b505afa158015611591573d6000803e3d6000fd5b505050506040513d60208110156115a757600080fd5b505050505050505050565b6000806115c03460016133f6565b509050801561160b576040805162461bcd60e51b81526020600482015260126024820152711b5a5b9d081b985d1a5d994819985a5b195960721b604482015290519081900360640190fd5b5090565b6000805460ff16611654576040805162461bcd60e51b815260206004820152600a6024820152691c994b595b9d195c995960b21b604482015290519081900360640190fd5b6000805460ff1916815561166a33868686613478565b1490506000805460ff191660011790559392505050565b600554604080516358d5bc7360e11b81523060048201526000602482018190526044820181905260806064830152608482018190529151919283926001600160a01b039091169163b1ab78e69160c4808301926020929190829003018186803b1580156116ed57600080fd5b505afa158015611701573d6000803e3d6000fd5b505050506040513d602081101561171757600080fd5b50511561150d5761172661329d565b92915050565b60008061173b84846000613681565b5090508015611787576040805162461bcd60e51b81526020600482015260136024820152721c995c185e4818995a185b198819985a5b1959606a1b604482015290519081900360640190fd5b5092915050565b6004546001600160a01b031681565b6000806117ad843485600161372e565b5090508015611787576040805162461bcd60e51b815260206004820152601e60248201527f6c697175696461746520626f72726f77206e6174697665206661696c65640000604482015290519081900360640190fd5b60035460ff1681565b6000611816615959565b6040518060200160405280611829612cc0565b90526001600160a01b0384166000908152600e6020526040902054909150611852908290613862565b9150505b919050565b600061150d61329d565b6000611872826000613881565b15611856576040805162461bcd60e51b8152602060048201526013602482015272185919081c995cd95c9d995cc819985a5b1959606a1b604482015290519081900360640190fd5b600181565b60035460009061010090046001600160a01b031633146118ec576118e56001602961391f565b9050611856565b600554604080516340e6dcc560e01b815290516001600160a01b03928316928516916340e6dcc5916004808301926020929190829003018186803b15801561193357600080fd5b505afa158015611947573d6000803e3d6000fd5b505050506040513d602081101561195d57600080fd5b50516119b0576040805162461bcd60e51b815260206004820152601c60248201527f6d61726b6572206d6574686f642072657475726e65642066616c736500000000604482015290519081900360640190fd5b600580546001600160a01b0319166001600160a01b03858116918217909255604080519284168352602083019190915280517f17d6db5ffe5a3d1c3d7a98194dca4f7d808d621e6ff9077ed574513d553a2a859281900390910190a16000611852565b600b5481565b6000611a26826001613985565b15611856576040805162461bcd60e51b81526020600482015260146024820152731c995919595b481b985d1a5d994819985a5b195960621b604482015290519081900360640190fd5b60008060008315611a9a57611a8561131861329d565b9150611a93600b548661335a565b9050611ab6565b611aa561133e61329d565b9150611ab3600b548661331d565b90505b600654600c5460085460408051635c0b440b60e11b8152600481018790526024810186905260448101939093526064830191909152516001600160a01b039092169163b816881691608480820192602092909190829003018186803b1580156113b257600080fd5b6006546000906001600160a01b03166315f24053611b3a61329d565b600b54600c546040518463ffffffff1660e01b815260040180848152602001838152602001828152602001935050505060206040518083038186803b158015611b8257600080fd5b505afa158015611b96573d6000803e3d6000fd5b505050506040513d6020811015611bac57600080fd5b5051905090565b60035461010090046001600160a01b03163314611c015760405162461bcd60e51b815260040180806020018281038252602d815260200180615c69602d913960400191505060405180910390fd5b600554604080516303c03f0f60e01b81523060048201526002602482015290516001600160a01b03909216916303c03f0f9160448082019260009290919082900301818387803b158015611c5457600080fd5b505af1158015611c68573d6000803e3d6000fd5b504792505081159050611cdf57601160009054906101000a90046001600160a01b03166001600160a01b031663d0e30db0826040518263ffffffff1660e01b81526004016000604051808303818588803b158015611cc557600080fd5b505af1158015611cd9573d6000803e3d6000fd5b50505050505b5050565b6012546001600160a01b031681565b6000805460ff16611d37576040805162461bcd60e51b815260206004820152600a6024820152691c994b595b9d195c995960b21b604482015290519081900360640190fd5b6000805460ff1916905583611d7d5760405162461bcd60e51b815260040180806020018281038252602c815260200180615c96602c913960400191505060405180910390fd5b6000611d876127db565b14611dd2576040805162461bcd60e51b81526020600482015260166024820152751858d8dc9d59481a5b9d195c995cdd0819985a5b195960521b604482015290519081900360640190fd5b6005546040516358d5bc7360e11b815230600482018181526001600160a01b038a81166024850152604484018990526080606485019081526084850188905294169363b1ab78e6938b928a928a928a92919060a401848480828437600081840152601f19601f820116905080830192505050965050505050505060206040518083038186803b158015611e6457600080fd5b505afa158015611e78573d6000803e3d6000fd5b505050506040513d6020811015611e8e57600080fd5b5051611ed7576040805162461bcd60e51b8152602060048201526013602482015272199b185cda1b1bd85b881a5cc81c185d5cd959606a1b604482015290519081900360640190fd5b6000611ee161329d565b905084811015611f31576040805162461bcd60e51b8152602060048201526016602482015275494e53554646494349454e545f4c495155494449545960501b604482015290519081900360640190fd5b6000306001600160a01b031663a7af467a876040518263ffffffff1660e01b81526004018082815260200191505060206040518083038186803b158015611f7757600080fd5b505afa158015611f8b573d6000803e3d6000fd5b505050506040513d6020811015611fa157600080fd5b50519050611fb188876000613a1d565b611fbd600b548761331d565b600b55604051806029615bec82396040519081900360290181206011546323e30c8b60e01b83526001600160a01b038b81166004850190815291811660248501819052604485018c90526064850187905260a06084860190815260a486018b9052939550908d16936323e30c8b938d938d9289928e928e9290919060c401848480828437600081840152601f19601f820116905080830192505050975050505050505050602060405180830381600087803b15801561207b57600080fd5b505af115801561208f573d6000803e3d6000fd5b505050506040513d60208110156120a557600080fd5b5051146120f9576040805162461bcd60e51b815260206004820152601960248201527f49455243333135363a2043616c6c6261636b206661696c656400000000000000604482015290519081900360640190fd5b6000612105878361331d565b905061211389826000613bbd565b50600061211e61329d565b905061212a848461331d565b8114612174576040805162461bcd60e51b8152602060048201526014602482015273109053105390d157d25390d3d394d254d511539560621b604482015290519081900360640190fd5b6000612190604051806020016040528060085481525085613862565b905061219e600c548261331d565b600c55600b546121ae908a61335a565b600b55604080518a81526020810186905280820183905290516001600160a01b038d16917f33c8e097c526683cbdb29adf782fac95e9d0fbe0ed635c13d8c75fdf726557d9919081900360600190a26001955050505050506000805460ff1916600117905595945050505050565b6000805460ff16612261576040805162461bcd60e51b815260206004820152600a6024820152691c994b595b9d195c995960b21b604482015290519081900360640190fd5b6000805460ff191681556122736127db565b905080156122995761229181601081111561228a57fe5b601d61391f565b9150506114eb565b6122a283613ec9565b9150506000805460ff19166001179055919050565b6005546001600160a01b031681565b60135481565b6011546001600160a01b031681565b6001600160a01b03166000908152600e602052604090205490565b6000805460ff1661233b576040805162461bcd60e51b815260206004820152600a6024820152691c994b595b9d195c995960b21b604482015290519081900360640190fd5b6000805460ff1916815561234d6127db565b14612398576040805162461bcd60e51b81526020600482015260166024820152751858d8dc9d59481a5b9d195c995cdd0819985a5b195960521b604482015290519081900360640190fd5b50600b546000805460ff1916600117905590565b6000805460ff166123f1576040805162461bcd60e51b815260206004820152600a6024820152691c994b595b9d195c995960b21b604482015290519081900360640190fd5b6000805460ff191681556124036127db565b905080156124215761229181601081111561241a57fe5b603961391f565b6122a283613fc7565b600061243782600061406f565b15611856576040805162461bcd60e51b815260206004820152601860248201527f72656465656d20756e6465726c79696e67206661696c65640000000000000000604482015290519081900360640190fd5b60006124968260016140ea565b15611856576040805162461bcd60e51b8152602060048201526014602482015273189bdc9c9bddc81b985d1a5d994819985a5b195960621b604482015290519081900360640190fd5b6000806124ed3460016131f1565b509050801561160b576040805162461bcd60e51b81526020600482015260136024820152721c995c185e481b985d1a5d994819985a5b1959606a1b604482015290519081900360640190fd5b600c5481565b6002805460408051602060018416156101000260001901909316849004601f810184900484028201840190925281815292918301828280156112365780601f1061120b57610100808354040283529160200191611236565b60006117268261416a565b60035461010090046001600160a01b031633146125f05760405162461bcd60e51b8152600401808060200182810382526024815260200180615ac06024913960400191505060405180910390fd5b6009541580156126005750600a54155b61263b5760405162461bcd60e51b8152600401808060200182810382526023815260200180615b166023913960400191505060405180910390fd5b60078490558361267c5760405162461bcd60e51b8152600401808060200182810382526030815260200180615b396030913960400191505060405180910390fd5b6000612687876118bf565b905080156126dc576040805162461bcd60e51b815260206004820152601960248201527f73657474696e67206a6f6574726f6c6c6572206661696c656400000000000000604482015290519081900360640190fd5b6126e46141bf565b600955670de0b6b3a7640000600a556126fc866141c3565b9050801561273b5760405162461bcd60e51b8152600401808060200182810382526022815260200180615b696022913960400191505060405180910390fd5b835161274e90600190602087019061596c565b50825161276290600290602086019061596c565b50506003805460ff90921660ff199283161790556000805490911660011790555050505050565b6000806127978360006133f6565b50905080156112fc576040805162461bcd60e51b815260206004820152600b60248201526a1b5a5b9d0819985a5b195960aa1b604482015290519081900360640190fd5b6000806127e66141bf565b600954909150808214156127ff57600092505050611510565b600061280961329d565b600b54600c54600a54600654604080516315f2405360e01b815260048101879052602481018690526044810185905290519596509394929391926000926001600160a01b03909216916315f24053916064808301926020929190829003018186803b15801561287757600080fd5b505afa15801561288b573d6000803e3d6000fd5b505050506040513d60208110156128a157600080fd5b5051905065048c27395000811115612900576040805162461bcd60e51b815260206004820152601c60248201527f626f72726f772072617465206973206162737572646c79206869676800000000604482015290519081900360640190fd5b600061290c888861335a565b9050612916615959565b61292e60405180602001604052808581525083614338565b9050600061293c8288613862565b9050600061294a828961331d565b905060006129696040518060200160405280600854815250848a614362565b9050600061297885898a614362565b60098e9055600a819055600b849055600c839055604080518d8152602081018790528082018390526060810186905290519192507f4dec04e750ca11537cabcd8a9eab06494de08da3735bc8871cd41250e190bc04919081900360800190a160009d505050505050505050505050505090565b600554604080516358d5bc7360e11b8152306004820152600060248201819052604482018590526080606483015260848201819052915191926001600160a01b03169163b1ab78e69160c480820192602092909190829003018186803b158015612a5457600080fd5b505afa158015612a68573d6000803e3d6000fd5b505050506040513d6020811015612a7e57600080fd5b5051612ac7576040805162461bcd60e51b8152602060048201526013602482015272199b185cda1b1bd85b881a5cc81c185d5cd959606a1b604482015290519081900360640190fd5b611726612ad583600861438a565b6127106143cc565b6000805460ff16612b22576040805162461bcd60e51b815260206004820152600a6024820152691c994b595b9d195c995960b21b604482015290519081900360640190fd5b6000805460ff19168155612b3833338686613478565b1490505b6000805460ff1916600117905592915050565b600a5481565b6006546000906001600160a01b031663b8168816612b7161329d565b600b54600c546008546040518563ffffffff1660e01b81526004018085815260200184815260200183815260200182815260200194505050505060206040518083038186803b158015611b8257600080fd5b6000805460ff16612c08576040805162461bcd60e51b815260206004820152600a6024820152691c994b595b9d195c995960b21b604482015290519081900360640190fd5b6000805460ff19169055612c1e338585856143ff565b90506000805460ff191660011790559392505050565b60035460009061010090046001600160a01b03163314612c5a576118e56001602f61391f565b600480546001600160a01b038481166001600160a01b0319831681179093556040805191909216808252602082019390935281517fca4f2f25d0898edd99413412fb94012f9e54ec8142f9b093e7720646a95b16a9929181900390910190a16000611852565b6000805460ff16612d05576040805162461bcd60e51b815260206004820152600a6024820152691c994b595b9d195c995960b21b604482015290519081900360640190fd5b6000805460ff19168155612d176127db565b14612d62576040805162461bcd60e51b81526020600482015260166024820152751858d8dc9d59481a5b9d195c995cdd0819985a5b195960521b604482015290519081900360640190fd5b612d6a611503565b90506000805460ff1916600117905590565b6000806000806000612d8d866122db565b90506000612d9a8761416a565b90506000612da6613394565b90506000989297509095509350915050565b6000612dc58260006140ea565b15611856576040805162461bcd60e51b815260206004820152600d60248201526c189bdc9c9bddc819985a5b1959609a1b604482015290519081900360640190fd5b60095481565b6000612e1a346001613881565b15611510576040805162461bcd60e51b8152602060048201526013602482015272185919081c995cd95c9d995cc819985a5b1959606a1b604482015290519081900360640190fd5b6000612e6f826000613985565b15611856576040805162461bcd60e51b815260206004820152600d60248201526c1c995919595b4819985a5b1959609a1b604482015290519081900360640190fd5b600080612ec083346001613681565b50905080156112fc576040805162461bcd60e51b815260206004820152601a60248201527f726570617920626568616c66206e6174697665206661696c6564000000000000604482015290519081900360640190fd5b6001600160a01b039182166000908152600f6020908152604080832093909416825291909152205490565b6000612f4e82600161406f565b15611856576040805162461bcd60e51b815260206004820152601f60248201527f72656465656d20756e6465726c79696e67206e6174697665206661696c656400604482015290519081900360640190fd5b6004546000906001600160a01b031633141580612fbb575033155b15612fd357612fcc6001600061391f565b9050611510565b60038054600480546001600160a01b03818116610100818102610100600160a81b0319871617968790556001600160a01b031990931690935560408051948390048216808652929095041660208401528351909391927ff9ffabca9c8276e99321725bcb43fb076a6c66a54b7f21c4e8146d8519b417dc92908290030190a1600454604080516001600160a01b038085168252909216602083015280517fca4f2f25d0898edd99413412fb94012f9e54ec8142f9b093e7720646a95b16a99281900390910190a160009250505090565b600881565b6000806130b36127db565b905080156130d9576130d18160108111156130ca57fe5b602a61391f565b915050611856565b611852836141c3565b6006546001600160a01b031681565b600080613101858585600061372e565b5090508015613157576040805162461bcd60e51b815260206004820152601760248201527f6c697175696461746520626f72726f77206661696c6564000000000000000000604482015290519081900360640190fd5b509392505050565b60035461010090046001600160a01b031681565b6000805460ff166131b8576040805162461bcd60e51b815260206004820152600a6024820152691c994b595b9d195c995960b21b604482015290519081900360640190fd5b6000805460ff191681556131ca6127db565b905080156131e8576122918160108111156131e157fe5b603061391f565b6122a283614643565b60008054819060ff16613238576040805162461bcd60e51b815260206004820152600a6024820152691c994b595b9d195c995960b21b604482015290519081900360640190fd5b6000805460ff1916815561324a6127db565b905080156132755761326881601081111561326157fe5b602361391f565b9250600091506132879050565b613281333387876146eb565b92509250505b6000805460ff1916600117905590939092509050565b601154604080516370a0823160e01b815230600482015290516000926001600160a01b03169182916370a0823191602480820192602092909190829003018186803b1580156132eb57600080fd5b505afa1580156132ff573d6000803e3d6000fd5b505050506040513d602081101561331557600080fd5b505191505090565b60006133538383604051806040016040528060118152602001706164646974696f6e206f766572666c6f7760781b81525061499b565b9392505050565b60006133538383604051806040016040528060158152602001747375627472616374696f6e20756e646572666c6f7760581b815250614a36565b600d54600090806133a9575050600754611510565b60006133b361329d565b905060006133ce6133c683600b5461331d565b600c5461335a565b905060006133ea82604051806020016040528087815250614a90565b94506115109350505050565b60008054819060ff1661343d576040805162461bcd60e51b815260206004820152600a6024820152691c994b595b9d195c995960b21b604482015290519081900360640190fd5b6000805460ff1916815561344f6127db565b9050801561346d5761326881601081111561346657fe5b601461391f565b613281338686614aae565b600554604080516317b9b84b60e31b81523060048201526001600160a01b03868116602483015285811660448301526064820185905291516000938493169163bdcdc25891608480830192602092919082900301818787803b1580156134dd57600080fd5b505af11580156134f1573d6000803e3d6000fd5b505050506040513d602081101561350757600080fd5b5051905080156135265761351e6003603483614cb6565b915050613679565b836001600160a01b0316856001600160a01b0316141561354c5761351e6002603561391f565b60006001600160a01b03878116908716141561356b5750600019613593565b506001600160a01b038086166000908152600f60209081526040808320938a16835292905220545b6001600160a01b0386166000908152600e60205260409020546135b6908561335a565b6001600160a01b038088166000908152600e602052604080822093909355908716815220546135e5908561331d565b6001600160a01b0386166000908152600e6020526040902055600019811461363857613611818561335a565b6001600160a01b038088166000908152600f60209081526040808320938c16835292905220555b846001600160a01b0316866001600160a01b0316600080516020615c15833981519152866040518082815260200191505060405180910390a360005b925050505b949350505050565b60008054819060ff166136c8576040805162461bcd60e51b815260206004820152600a6024820152691c994b595b9d195c995960b21b604482015290519081900360640190fd5b6000805460ff191681556136da6127db565b90508015613705576136f88160108111156136f157fe5b602261391f565b9250600091506137179050565b613711338787876146eb565b92509250505b6000805460ff191660011790559094909350915050565b60008054819060ff16613775576040805162461bcd60e51b815260206004820152600a6024820152691c994b595b9d195c995960b21b604482015290519081900360640190fd5b6000805460ff191681556137876127db565b905080156137b2576137a581601081111561379e57fe5b600761391f565b92506000915061384a9050565b846001600160a01b031663a6afed956040518163ffffffff1660e01b8152600401602060405180830381600087803b1580156137ed57600080fd5b505af1158015613801573d6000803e3d6000fd5b505050506040513d602081101561381757600080fd5b505190508015613837576137a581601081111561383057fe5b600861391f565b6138443388888888614d1c565b92509250505b6000805460ff19166001179055909590945092505050565b600061386c615959565b6138768484614338565b905061367981615244565b6000805460ff166138c6576040805162461bcd60e51b815260206004820152600a6024820152691c994b595b9d195c995960b21b604482015290519081900360640190fd5b6000805460ff191681556138d86127db565b905080156138fe576138f68160108111156138ef57fe5b603661391f565b915050612b3c565b6139088484615253565b509150506000805460ff1916600117905592915050565b60007f45b96fe442630264581b197e84bbada861235052c5a1aadfff9ea4e40a969aa083601081111561394e57fe5b83603c81111561395a57fe5b604080519283526020830191909152600082820152519081900360600190a182601081111561335357fe5b6000805460ff166139ca576040805162461bcd60e51b815260206004820152600a6024820152691c994b595b9d195c995960b21b604482015290519081900360640190fd5b6000805460ff191681556139dc6127db565b905080156139fa576138f68160108111156139f357fe5b601961391f565b613a0733856000866152f1565b9150506000805460ff1916600117905592915050565b8015613ac45760115460408051632e1a7d4d60e01b81526004810185905290516001600160a01b0390921691632e1a7d4d9160248082019260009290919082900301818387803b158015613a7057600080fd5b505af1158015613a84573d6000803e3d6000fd5b50506040516001600160a01b038616925084156108fc02915084906000818181858888f19350505050158015613abe573d6000803e3d6000fd5b50613bb8565b6011546040805163a9059cbb60e01b81526001600160a01b0386811660048301526024820186905291519190921691829163a9059cbb9160448082019260009290919082900301818387803b158015613b1c57600080fd5b505af1158015613b30573d6000803e3d6000fd5b5050505060003d60008114613b4c5760208114613b5657600080fd5b6000199150613b62565b60206000803e60005191505b5080613bb5576040805162461bcd60e51b815260206004820152601960248201527f544f4b454e5f5452414e534645525f4f55545f4641494c454400000000000000604482015290519081900360640190fd5b50505b505050565b60008115613cca57336001600160a01b03851614613c14576040805162461bcd60e51b815260206004820152600f60248201526e0e6cadcc8cae440dad2e6dac2e8c6d608b1b604482015290519081900360640190fd5b823414613c59576040805162461bcd60e51b815260206004820152600e60248201526d0ecc2d8eaca40dad2e6dac2e8c6d60931b604482015290519081900360640190fd5b601160009054906101000a90046001600160a01b03166001600160a01b031663d0e30db0846040518263ffffffff1660e01b81526004016000604051808303818588803b158015613ca957600080fd5b505af1158015613cbd573d6000803e3d6000fd5b5050505050829050613353565b601154604080516370a0823160e01b815230600482015290516001600160a01b039092169160009183916370a0823191602480820192602092909190829003018186803b158015613d1a57600080fd5b505afa158015613d2e573d6000803e3d6000fd5b505050506040513d6020811015613d4457600080fd5b5051604080516323b872dd60e01b81526001600160a01b038981166004830152306024830152604482018990529151929350908416916323b872dd9160648082019260009290919082900301818387803b158015613da157600080fd5b505af1158015613db5573d6000803e3d6000fd5b5050505060003d60008114613dd15760208114613ddb57600080fd5b6000199150613de7565b60206000803e60005191505b5080613e3a576040805162461bcd60e51b815260206004820152601860248201527f544f4b454e5f5452414e534645525f494e5f4641494c45440000000000000000604482015290519081900360640190fd5b601154604080516370a0823160e01b815230600482015290516000926001600160a01b0316916370a08231916024808301926020929190829003018186803b158015613e8557600080fd5b505afa158015613e99573d6000803e3d6000fd5b505050506040513d6020811015613eaf57600080fd5b50519050613ebd818461335a565b98975050505050505050565b600354600090819061010090046001600160a01b03163314613ef1576130d16001601e61391f565b613ef96141bf565b60095414613f0d576130d1600a602061391f565b82613f1661329d565b1015613f28576130d1600e601f61391f565b600c54831115613f3e576130d16002602161391f565b613f4a600c548461335a565b600c819055600354909150613f6f9061010090046001600160a01b0316846001613a1d565b600354604080516101009092046001600160a01b0316825260208201859052818101839052517f3bad0c59cf2f06e7314077049f48a93578cd16f5ef92329f1dab1420a99c177e916060908290030190a16000611852565b60035460009061010090046001600160a01b03163314613fed576118e56001603a61391f565b613ff56141bf565b60095414614009576118e5600a603b61391f565b670de0b6b3a7640000821115614025576118e56002603c61391f565b6013805490839055604080518281526020810185905281517ff5815f353a60e815cce7553e4f60c533a59d26b1b5504ea4b6db8d60da3e4da2929181900390910190a16000611852565b6000805460ff166140b4576040805162461bcd60e51b815260206004820152600a6024820152691c994b595b9d195c995960b21b604482015290519081900360640190fd5b6000805460ff191681556140c66127db565b905080156140dd576138f68160108111156139f357fe5b613a0733600086866152f1565b6000805460ff1661412f576040805162461bcd60e51b815260206004820152600a6024820152691c994b595b9d195c995960b21b604482015290519081900360640190fd5b6000805460ff191681556141416127db565b9050801561415f576138f681601081111561415857fe5b600261391f565b613a07338585615624565b6001600160a01b03811660009081526010602052604081208054614192576000915050611856565b60006141a48260000154600a5461438a565b905060006141b68284600101546143cc565b95945050505050565b4290565b600354600090819061010090046001600160a01b031633146141eb576130d16001602c61391f565b6141f36141bf565b60095414614207576130d1600a602b61391f565b600660009054906101000a90046001600160a01b03169050826001600160a01b0316632191f92a6040518163ffffffff1660e01b815260040160206040518083038186803b15801561425857600080fd5b505afa15801561426c573d6000803e3d6000fd5b505050506040513d602081101561428257600080fd5b50516142d5576040805162461bcd60e51b815260206004820152601c60248201527f6d61726b6572206d6574686f642072657475726e65642066616c736500000000604482015290519081900360640190fd5b600680546001600160a01b0319166001600160a01b03858116918217909255604080519284168352602083019190915280517fedffc32e068c7c95dfd4bdfd5c4d939a084d6b11c4199eac8436ed234d72f9269281900390910190a16000611852565b614340615959565b604051806020016040528061435985600001518561438a565b90529392505050565b600061436c615959565b6143768585614338565b90506141b661438482615244565b8461331d565b600061335383836040518060400160405280601781526020017f6d756c7469706c69636174696f6e206f766572666c6f7700000000000000000081525061580d565b600061335383836040518060400160405280600e81526020016d646976696465206279207a65726f60901b815250615883565b6005546040805163d02f735160e01b81523060048201526001600160a01b038781166024830152868116604483015285811660648301526084820185905291516000938493169163d02f73519160a480830192602092919082900301818787803b15801561446c57600080fd5b505af1158015614480573d6000803e3d6000fd5b505050506040513d602081101561449657600080fd5b5051905080156144ad5761351e6003601183614cb6565b826144b957600061351e565b846001600160a01b0316846001600160a01b031614156144df5761351e6006601261391f565b60006144fb8460405180602001604052806013548152506158e5565b90506000614509858361335a565b90506000614515613394565b9050600061453160405180602001604052808481525085613862565b6001600160a01b0389166000908152600e6020526040902054909150614557908861335a565b6001600160a01b03808a166000908152600e602052604080822093909355908b1681522054614586908461331d565b6001600160a01b038a166000908152600e6020526040902055600c546145ac908261331d565b600c55600d546145bc908561335a565b600d556040805188815290516001600160a01b03808c1692908b1691600080516020615c158339815191529181900360200190a3600c54604080513081526020810184905280820192909252517fa91e67c5ea634cd43a12c5a482724b03de01e85ca68702a53d0c2f45cb7c1dc59181900360600190a160009a9950505050505050505050565b60035460009061010090046001600160a01b03163314614669576118e56001603161391f565b6146716141bf565b60095414614685576118e5600a603261391f565b670de0b6b3a76400008211156146a1576118e56002603361391f565b6008805490839055604080518281526020810185905281517faaa68312e2ea9d50e16af5068410ab56e1a1fd06037b1a35664812c30f821460929181900390910190a16000611852565b60055460408051631200453160e11b81523060048201526001600160a01b0387811660248301528681166044830152606482018690529151600093849384939116916324008a629160848082019260209290919082900301818787803b15801561475457600080fd5b505af1158015614768573d6000803e3d6000fd5b505050506040513d602081101561477e57600080fd5b5051905080156147a2576147956003602483614cb6565b9250600091506149929050565b846147dc576147b08661416a565b6001600160a01b0387166000908152601060205260408120918255600a54600190920191909155614795565b6147e46141bf565b600954146147f857614795600a602561391f565b6148006159e6565b6001600160a01b038716600090815260106020526040902060010154606082015261482a8761416a565b60808201526000198614156148485760808101516040820152614850565b604081018690525b61485f88826040015187613bbd565b60e0820181905260808201516148749161335a565b60a0820152600b5460e082015161488b919061335a565b8160c00181815250508060a0015160106000896001600160a01b03166001600160a01b0316815260200190815260200160002060000181905550600a5460106000896001600160a01b03166001600160a01b03168152602001908152602001600020600101819055508060c00151600b819055507f1a2a22cb034d26d1854bdc6666a5b91fe25efbbb5dcad3b0355478d6f5c362a188888360e001518460a001518560c0015160405180866001600160a01b03166001600160a01b03168152602001856001600160a01b03166001600160a01b031681526020018481526020018381526020018281526020019550505050505060405180910390a160e00151600093509150505b94509492505050565b60008383018285821015614a2d5760405162461bcd60e51b81526004018080602001828103825283818151815260200191508051906020019080838360005b838110156149f25781810151838201526020016149da565b50505050905090810190601f168015614a1f5780820380516001836020036101000a031916815260200191505b509250505060405180910390fd5b50949350505050565b60008184841115614a885760405162461bcd60e51b81526020600482018181528351602484015283519092839260449091019190850190808383600083156149f25781810151838201526020016149da565b505050900390565b6000613353614aa784670de0b6b3a764000061438a565b83516143cc565b60055460408051634ef4c3e160e01b81523060048201526001600160a01b03868116602483015260448201869052915160009384938493911691634ef4c3e19160648082019260209290919082900301818787803b158015614b0f57600080fd5b505af1158015614b23573d6000803e3d6000fd5b505050506040513d6020811015614b3957600080fd5b505190508015614b5d57614b506003601583614cb6565b925060009150614cae9050565b84614b69576000614b50565b614b716141bf565b60095414614b8557614b50600a601661391f565b614b8d615a2c565b614b95613394565b8152614ba2878787613bbd565b604080830182905280516020810190915282518152614bc1919061590d565b60208201819052600d54614bd49161331d565b600d556001600160a01b0387166000908152600e602090815260409091205490820151614c01919061331d565b6001600160a01b0388166000818152600e60209081526040918290209390935583810151848401518251938452938301528181019290925290517f4c209b5fc8ad50758f13e2e1088ba56a560dff690a1c6fef26394f4c03821c4f9181900360600190a1866001600160a01b0316306001600160a01b0316600080516020615c1583398151915283602001516040518082815260200191505060405180910390a360400151600093509150505b935093915050565b60007f45b96fe442630264581b197e84bbada861235052c5a1aadfff9ea4e40a969aa0846010811115614ce557fe5b84603c811115614cf157fe5b604080519283526020830191909152818101859052519081900360600190a183601081111561367957fe5b60055460408051632fe3f38f60e11b81523060048201526001600160a01b0385811660248301528881166044830152878116606483015260848201879052915160009384938493911691635fc7e71e9160a48082019260209290919082900301818787803b158015614d8d57600080fd5b505af1158015614da1573d6000803e3d6000fd5b505050506040513d6020811015614db757600080fd5b505190508015614ddb57614dce6003600a83614cb6565b92506000915061523a9050565b614de36141bf565b60095414614df757614dce600a600e61391f565b614dff6141bf565b856001600160a01b031663cfa992016040518163ffffffff1660e01b815260040160206040518083038186803b158015614e3857600080fd5b505afa158015614e4c573d6000803e3d6000fd5b505050506040513d6020811015614e6257600080fd5b505114614e7557614dce600a600961391f565b876001600160a01b0316876001600160a01b03161415614e9b57614dce6006600f61391f565b85614eac57614dce6007600d61391f565b600019861415614ec257614dce6007600c61391f565b600080614ed18a8a8a896146eb565b90925090508115614f0157614ef2826010811115614eeb57fe5b601061391f565b94506000935061523a92505050565b6005546040805163c488847b60e01b81523060048201526001600160a01b038a81166024830152604482018590528251600094859492169263c488847b926064808301939192829003018186803b158015614f5b57600080fd5b505afa158015614f6f573d6000803e3d6000fd5b505050506040513d6040811015614f8557600080fd5b50805160209091015190925090508115614fd05760405162461bcd60e51b8152600401808060200182810382526032815260200180615ae46032913960400191505060405180910390fd5b80896001600160a01b03166370a082318d6040518263ffffffff1660e01b815260040180826001600160a01b03166001600160a01b0316815260200191505060206040518083038186803b15801561502757600080fd5b505afa15801561503b573d6000803e3d6000fd5b505050506040513d602081101561505157600080fd5b505110156150a6576040805162461bcd60e51b815260206004820152601860248201527f4c49515549444154455f5345495a455f544f4f5f4d5543480000000000000000604482015290519081900360640190fd5b60006001600160a01b038a163014156150cc576150c5308e8e856143ff565b9050615156565b6040805163b2a02ff160e01b81526001600160a01b038f811660048301528e81166024830152604482018590529151918c169163b2a02ff1916064808201926020929091908290030181600087803b15801561512757600080fd5b505af115801561513b573d6000803e3d6000fd5b505050506040513d602081101561515157600080fd5b505190505b80156151a0576040805162461bcd60e51b81526020600482015260146024820152731d1bdad95b881cd95a5e9d5c994819985a5b195960621b604482015290519081900360640190fd5b7f298637f684da70674f26509b10f07ec2fbc77a335ab1e7d6215a4b2484d8bb528d8d868d8660405180866001600160a01b03166001600160a01b03168152602001856001600160a01b03166001600160a01b03168152602001848152602001836001600160a01b03166001600160a01b031681526020018281526020019550505050505060405180910390a16000975092955050505050505b9550959350505050565b51670de0b6b3a7640000900490565b6000806000806152616141bf565b6009541461528057615275600a603761391f565b935091506152ea9050565b61528b338787613bbd565b9050615299600c548261331d565b600c819055604080513381526020810184905280820183905290519193507fa91e67c5ea634cd43a12c5a482724b03de01e85ca68702a53d0c2f45cb7c1dc5919081900360600190a1600093509150505b9250929050565b60008315806152fe575082155b6153395760405162461bcd60e51b8152600401808060200182810382526034815260200180615c356034913960400191505060405180910390fd5b615341615a4d565b615349613394565b8152841561537a576020808201869052604080519182019052815181526153709086613862565b60408201526153a3565b615396846040518060200160405280846000015181525061590d565b6020820152604081018490525b6005546020808301516040805163eabe7d9160e01b81523060048201526001600160a01b038b8116602483015260448201939093529051600094929092169263eabe7d919260648084019382900301818787803b15801561540357600080fd5b505af1158015615417573d6000803e3d6000fd5b505050506040513d602081101561542d57600080fd5b50519050801561544d576154446003601a83614cb6565b92505050613679565b85158015615459575084155b15615465576000615444565b61546d6141bf565b6009541461548157615444600a601b61391f565b615491600d54836020015161335a565b60608301526001600160a01b0387166000908152600e6020908152604090912054908301516154c0919061335a565b608083015260408201516154d261329d565b10156154e457615444600e601c61391f565b6154f387836040015186613a1d565b6060820151600d5560808201516001600160a01b0388166000818152600e60209081526040918290209390935582850151815190815290513093600080516020615c15833981519152928290030190a360408083015160208085015183516001600160a01b038c168152918201929092528083019190915290517fe5b754fb1abb7f01b499791d0b820ae3b6af3424ac1c59768edb53f4ec31a9299181900360600190a1600554604080840151602085015182516351dff98960e01b81523060048201526001600160a01b038c811660248301526044820193909352606481019190915291519216916351dff9899160848082019260009290919082900301818387803b15801561560357600080fd5b505af1158015615617573d6000803e3d6000fd5b5060009250613674915050565b6005546040805163368f515360e21b81523060048201526001600160a01b0386811660248301526044820186905291516000938493169163da3d454c91606480830192602092919082900301818787803b15801561568157600080fd5b505af1158015615695573d6000803e3d6000fd5b505050506040513d60208110156156ab57600080fd5b5051905080156156ca576156c26003600683614cb6565b915050613353565b83615704576156d88561416a565b6001600160a01b0386166000908152601060205260408120918255600a546001909201919091556156c2565b61570c6141bf565b60095414615720576156c2600a600461391f565b8361572961329d565b101561573b576156c2600e600361391f565b615743615a7c565b61574c8661416a565b6020820181905261575d908661331d565b6040820152600b5461576f908661331d565b606082015261577f868686613a1d565b604080820180516001600160a01b03891660008181526010602090815290859020928355600a54600190930192909255606080860151600b819055935185519283529282018a9052818501929092529081019190915290517f13ed6866d4e1ee6da46f845c46d7e54120883d75c5ea9a2dacc1c4ca8984ab809181900360800190a160009695505050505050565b600083158061581a575082155b1561582757506000613353565b8383028385828161583457fe5b04148390614a2d5760405162461bcd60e51b81526020600482018181528351602484015283519092839260449091019190850190808383600083156149f25781810151838201526020016149da565b600081836158d25760405162461bcd60e51b81526020600482018181528351602484015283519092839260449091019190850190808383600083156149f25781810151838201526020016149da565b508284816158dc57fe5b04949350505050565b6000670de0b6b3a76400006158fe84846000015161438a565b8161590557fe5b049392505050565b6000615917615959565b6138768484615924615959565b6000615938670de0b6b3a76400008561438a565b9050604051806020016040528061594f8386614a90565b9052949350505050565b6040518060200160405280600081525090565b828054600181600116156101000203166002900490600052602060002090601f016020900481019282601f106159ad57805160ff19168380011785556159da565b828001600101855582156159da579182015b828111156159da5782518255916020019190600101906159bf565b5061160b929150615aa5565b6040805161010081019091528060008152602001600081526020016000815260200160008152602001600081526020016000815260200160008152602001600081525090565b60405180606001604052806000815260200160008152602001600081525090565b6040518060a0016040528060008152602001600081526020016000815260200160008152602001600081525090565b604080516080810190915280600081526020016000815260200160008152602001600081525090565b61151091905b8082111561160b5760008155600101615aab56fe6f6e6c792061646d696e206d617920696e697469616c697a6520746865206d61726b65744c49515549444154455f4a4f4554524f4c4c45525f43414c43554c4154455f414d4f554e545f5345495a455f4641494c45446d61726b6574206d6179206f6e6c7920626520696e697469616c697a6564206f6e6365696e697469616c2065786368616e67652072617465206d7573742062652067726561746572207468616e207a65726f2e73657474696e6720696e7465726573742072617465206d6f64656c206661696c65646f6e6c79207468652061646d696e206d61792063616c6c205f72657369676e496d706c656d656e746174696f6e6f6e6c792077726170706564206e617469766520636f6e747261637420636f756c642073656e64206e617469766520746f6b656e45524333313536466c617368426f72726f776572496e746572666163652e6f6e466c6173684c6f616eddf252ad1be2c89b69c2b068fc378daa952ba7f163c4a11628f55a4df523b3ef6f6e65206f662072656465656d546f6b656e73496e206f722072656465656d416d6f756e74496e206d757374206265207a65726f6f6e6c79207468652061646d696e206d61792063616c6c205f6265636f6d65496d706c656d656e746174696f6e666c6173684c6f616e20616d6f756e742073686f756c642062652067726561746572207468616e207a65726fa265627a7a72315820a453d63cf28f7a6e6d5d6d2565f1244524dc0f148f4537146718a4d4e714d65364736f6c63430005100032",
  "devdoc": {
    "author": "Cream",
    "methods": {
      "_acceptAdmin()": {
        "details": "Admin function for pending admin to accept role and update admin",
        "return": "uint 0=success, otherwise a failure (see ErrorReporter.sol for details)"
      },
      "_addReserves(uint256)": {
        "details": "Accrues interest whether or not the operation succeeds, unless reverted Keep return in the function signature for backward joeatibility",
        "params": {
          "addAmount": "The amount fo underlying token to add as reserves"
        },
        "return": "uint 0=success, otherwise a failure (see ErrorReporter.sol for details)"
      },
      "_addReservesNative()": {
        "details": "Accrues interest whether or not the operation succeeds, unless reverted Keep return in the function signature for consistency",
        "return": "uint 0=success, otherwise a failure (see ErrorReporter.sol for details)"
      },
      "_becomeImplementation(bytes)": {
        "params": {
          "data": "The encoded bytes data for any initialization"
        }
      },
      "_reduceReserves(uint256)": {
        "params": {
          "reduceAmount": "Amount of reduction to reserves"
        },
        "return": "uint 0=success, otherwise a failure (see ErrorReporter.sol for details)"
      },
      "_setInterestRateModel(address)": {
        "details": "Admin function to accrue interest and update the interest rate model",
        "params": {
          "newInterestRateModel": "the new interest rate model to use"
        },
        "return": "uint 0=success, otherwise a failure (see ErrorReporter.sol for details)"
      },
      "_setJoetroller(address)": {
        "details": "Admin function to set a new joetroller",
        "return": "uint 0=success, otherwise a failure (see ErrorReporter.sol for details)"
      },
      "_setPendingAdmin(address)": {
        "details": "Admin function to begin change of admin. The newPendingAdmin must call `_acceptAdmin` to finalize the transfer.",
        "params": {
          "newPendingAdmin": "New pending admin."
        },
        "return": "uint 0=success, otherwise a failure (see ErrorReporter.sol for details)"
      },
      "_setProtocolSeizeShare(uint256)": {
        "details": "Admin function to accrue interest and set a new collateral seize share",
        "return": "uint256 0=success, otherwise a failure (see ErrorReport.sol for details)"
      },
      "_setReserveFactor(uint256)": {
        "details": "Admin function to accrue interest and set a new reserve factor",
        "return": "uint 0=success, otherwise a failure (see ErrorReporter.sol for details)"
      },
      "accrueInterest()": {
        "details": "This calculates interest accrued from the last checkpointed timestamp  up to the current timestamp and writes new checkpoint to storage."
      },
      "allowance(address,address)": {
        "params": {
          "owner": "The address of the account which owns the tokens to be spent",
          "spender": "The address of the account which may transfer tokens"
        },
        "return": "The number of tokens allowed to be spent (-1 means infinite)"
      },
      "approve(address,uint256)": {
        "details": "This will overwrite the approval amount for `spender` and is subject to issues noted [here](https://eips.ethereum.org/EIPS/eip-20#approve)",
        "params": {
          "amount": "The number of tokens that are approved (-1 means infinite)",
          "spender": "The address of the account which may transfer tokens"
        },
        "return": "Whether or not the approval succeeded"
      },
      "balanceOf(address)": {
        "params": {
          "owner": "The address of the account to query"
        },
        "return": "The number of tokens owned by `owner`"
      },
      "balanceOfUnderlying(address)": {
        "details": "This also accrues interest in a transaction",
        "params": {
          "owner": "The address of the account to query"
        },
        "return": "The amount of underlying owned by `owner`"
      },
      "borrow(uint256)": {
        "details": "Accrues interest whether or not the operation succeeds, unless reverted Keep return in the function signature for backward joeatibility",
        "params": {
          "borrowAmount": "The amount of the underlying asset to borrow"
        },
        "return": "uint 0=success, otherwise a failure (see ErrorReporter.sol for details)"
      },
      "borrowBalanceCurrent(address)": {
        "params": {
          "account": "The address whose balance should be calculated after updating borrowIndex"
        },
        "return": "The calculated balance"
      },
      "borrowBalanceStored(address)": {
        "params": {
          "account": "The address whose balance should be calculated"
        },
        "return": "The calculated balance"
      },
      "borrowNative(uint256)": {
        "details": "Accrues interest whether or not the operation succeeds, unless reverted Keep return in the function signature for consistency",
        "params": {
          "borrowAmount": "The amount of the underlying asset to borrow"
        },
        "return": "uint 0=success, otherwise a failure (see ErrorReporter.sol for details)"
      },
      "borrowRatePerSecond()": {
        "return": "The borrow interest rate per sec, scaled by 1e18"
      },
      "estimateBorrowRatePerSecondAfterChange(uint256,bool)": {
        "return": "The borrow interest rate per sec, scaled by 1e18"
      },
      "estimateSupplyRatePerSecondAfterChange(uint256,bool)": {
        "return": "The supply interest rate per sec, scaled by 1e18"
      },
      "exchangeRateCurrent()": {
        "return": "Calculated exchange rate scaled by 1e18"
      },
      "exchangeRateStored()": {
        "details": "This function does not accrue interest before calculating the exchange rate",
        "return": "Calculated exchange rate scaled by 1e18"
      },
      "flashFee(uint256)": {
        "params": {
          "amount": "amount of token to borrow"
        }
      },
      "flashLoan(address,address,uint256,bytes)": {
        "params": {
          "amount": "The amount of the funds to be loaned",
          "data": "The other data",
          "initiator": "flash loan initiator",
          "receiver": "The receiver address for the funds"
        },
        "return": "uint 0=success, otherwise a failure (see ErrorReporter.sol for details)"
      },
      "getAccountSnapshot(address)": {
        "details": "This is used by joetroller to more efficiently perform liquidity checks.",
        "params": {
          "account": "Address of the account to snapshot"
        },
        "return": "(possible error, token balance, borrow balance, exchange rate mantissa)"
      },
      "getCash()": {
        "return": "The quantity of underlying asset owned by this contract"
      },
      "initialize(address,address,address,uint256,string,string,uint8)": {
        "params": {
          "decimals_": "ERC-20 decimal precision of this token",
          "initialExchangeRateMantissa_": "The initial exchange rate, scaled by 1e18",
          "interestRateModel_": "The address of the interest rate model",
          "joetroller_": "The address of the Joetroller",
          "name_": "ERC-20 name of this token",
          "symbol_": "ERC-20 symbol of this token",
          "underlying_": "The address of the underlying asset"
        }
      },
      "initialize(address,address,uint256,string,string,uint8)": {
        "params": {
          "decimals_": "EIP-20 decimal precision of this token",
          "initialExchangeRateMantissa_": "The initial exchange rate, scaled by 1e18",
          "interestRateModel_": "The address of the interest rate model",
          "joetroller_": "The address of the Joetroller",
          "name_": "EIP-20 name of this token",
          "symbol_": "EIP-20 symbol of this token"
        }
      },
      "liquidateBorrow(address,uint256,address)": {
        "details": "Accrues interest whether or not the operation succeeds, unless reverted Keep return in the function signature for backward joeatibility",
        "params": {
          "borrower": "The borrower of this jToken to be liquidated",
          "jTokenCollateral": "The market in which to seize collateral from the borrower",
          "repayAmount": "The amount of the underlying borrowed asset to repay"
        },
        "return": "uint 0=success, otherwise a failure (see ErrorReporter.sol for details)"
      },
      "liquidateBorrowNative(address,address)": {
        "details": "Accrues interest whether or not the operation succeeds, unless reverted Keep return in the function signature for consistency",
        "params": {
          "borrower": "The borrower of this jToken to be liquidated",
          "jTokenCollateral": "The market in which to seize collateral from the borrower"
        },
        "return": "uint 0=success, otherwise a failure (see ErrorReporter.sol for details)"
      },
      "mint(uint256)": {
        "details": "Accrues interest whether or not the operation succeeds, unless reverted Keep return in the function signature for backward joeatibility",
        "params": {
          "mintAmount": "The amount of the underlying asset to supply"
        },
        "return": "uint 0=success, otherwise a failure (see ErrorReporter.sol for details)"
      },
      "mintNative()": {
        "details": "Accrues interest whether or not the operation succeeds, unless reverted Keep return in the function signature for consistency",
        "return": "uint 0=success, otherwise a failure (see ErrorReporter.sol for details)"
      },
      "redeem(uint256)": {
        "details": "Accrues interest whether or not the operation succeeds, unless reverted Keep return in the function signature for backward joeatibility",
        "params": {
          "redeemTokens": "The number of jTokens to redeem into underlying"
        },
        "return": "uint 0=success, otherwise a failure (see ErrorReporter.sol for details)"
      },
      "redeemNative(uint256)": {
        "details": "Accrues interest whether or not the operation succeeds, unless reverted Keep return in the function signature for consistency",
        "params": {
          "redeemTokens": "The number of jTokens to redeem into underlying"
        },
        "return": "uint 0=success, otherwise a failure (see ErrorReporter.sol for details)"
      },
      "redeemUnderlying(uint256)": {
        "details": "Accrues interest whether or not the operation succeeds, unless reverted Keep return in the function signature for backward joeatibility",
        "params": {
          "redeemAmount": "The amount of underlying to redeem"
        },
        "return": "uint 0=success, otherwise a failure (see ErrorReporter.sol for details)"
      },
      "redeemUnderlyingNative(uint256)": {
        "details": "Accrues interest whether or not the operation succeeds, unless reverted Keep return in the function signature for consistency",
        "params": {
          "redeemAmount": "The amount of underlying to redeem"
        },
        "return": "uint 0=success, otherwise a failure (see ErrorReporter.sol for details)"
      },
      "repayBorrow(uint256)": {
        "details": "Accrues interest whether or not the operation succeeds, unless reverted Keep return in the function signature for backward joeatibility",
        "params": {
          "repayAmount": "The amount to repay"
        },
        "return": "uint 0=success, otherwise a failure (see ErrorReporter.sol for details)"
      },
      "repayBorrowBehalf(address,uint256)": {
        "params": {
          "borrower": "the account with the debt being payed off",
          "repayAmount": "The amount to repay"
        },
        "return": "uint 0=success, otherwise a failure (see ErrorReporter.sol for details)"
      },
      "repayBorrowBehalfNative(address)": {
        "params": {
          "borrower": "the account with the debt being payed off"
        },
        "return": "uint 0=success, otherwise a failure (see ErrorReporter.sol for details)"
      },
      "repayBorrowNative()": {
        "details": "Accrues interest whether or not the operation succeeds, unless reverted Keep return in the function signature for consistency",
        "return": "uint 0=success, otherwise a failure (see ErrorReporter.sol for details)"
      },
      "seize(address,address,uint256)": {
        "details": "Will fail unless called by another jToken during the process of liquidation. Its absolutely critical to use msg.sender as the borrowed jToken and not a parameter.",
        "params": {
          "borrower": "The account having collateral seized",
          "liquidator": "The account receiving seized collateral",
          "seizeTokens": "The number of jTokens to seize"
        },
        "return": "uint 0=success, otherwise a failure (see ErrorReporter.sol for details)"
      },
      "supplyRatePerSecond()": {
        "return": "The supply interest rate per sec, scaled by 1e18"
      },
      "totalBorrowsCurrent()": {
        "return": "The total borrows with interest"
      },
      "transfer(address,uint256)": {
        "params": {
          "amount": "The number of tokens to transfer",
          "dst": "The address of the destination account"
        },
        "return": "Whether or not the transfer succeeded"
      },
      "transferFrom(address,address,uint256)": {
        "params": {
          "amount": "The number of tokens to transfer",
          "dst": "The address of the destination account",
          "src": "The address of the source account"
        },
        "return": "Whether or not the transfer succeeded"
      }
    },
    "title": "Cream's JWrappedNativeDelegate Contract"
  },
  "userdoc": {
    "methods": {
      "_acceptAdmin()": {
        "notice": "Accepts transfer of admin rights. msg.sender must be pendingAdmin"
      },
      "_addReserves(uint256)": {
        "notice": "The sender adds to reserves."
      },
      "_addReservesNative()": {
        "notice": "The sender adds to reserves."
      },
      "_becomeImplementation(bytes)": {
        "notice": "Called by the delegator on a delegate to initialize it for duty"
      },
      "_reduceReserves(uint256)": {
        "notice": "Accrues interest and reduces reserves by transferring to admin"
      },
      "_resignImplementation()": {
        "notice": "Called by the delegator on a delegate to forfeit its responsibility"
      },
      "_setInterestRateModel(address)": {
        "notice": "accrues interest and updates the interest rate model using _setInterestRateModelFresh"
      },
      "_setJoetroller(address)": {
        "notice": "Sets a new joetroller for the market"
      },
      "_setPendingAdmin(address)": {
        "notice": "Begins transfer of admin rights. The newPendingAdmin must call `_acceptAdmin` to finalize the transfer."
      },
      "_setProtocolSeizeShare(uint256)": {
        "notice": "Accrues interest and sets a new collateral seize share for the protocol using _setProtocolSeizeShareFresh"
      },
      "_setReserveFactor(uint256)": {
        "notice": "Accrues interest and sets a new reserve factor for the protocol using _setReserveFactorFresh"
      },
      "accrueInterest()": {
        "notice": "Applies accrued interest to total borrows and reserves"
      },
      "allowance(address,address)": {
        "notice": "Get the current allowance from `owner` for `spender`"
      },
      "approve(address,uint256)": {
        "notice": "Approve `spender` to transfer up to `amount` from `src`"
      },
      "balanceOf(address)": {
        "notice": "Get the token balance of the `owner`"
      },
      "balanceOfUnderlying(address)": {
        "notice": "Get the underlying balance of the `owner`"
      },
      "borrow(uint256)": {
        "notice": "Sender borrows assets from the protocol to their own address"
      },
      "borrowBalanceCurrent(address)": {
        "notice": "Accrue interest to updated borrowIndex and then calculate account's borrow balance using the updated borrowIndex"
      },
      "borrowBalanceStored(address)": {
        "notice": "Return the borrow balance of account based on stored data"
      },
      "borrowNative(uint256)": {
        "notice": "Sender borrows assets from the protocol to their own address"
      },
      "borrowRatePerSecond()": {
        "notice": "Returns the current per-sec borrow interest rate for this jToken"
      },
      "constructor": "Construct an empty delegate",
      "estimateBorrowRatePerSecondAfterChange(uint256,bool)": {
        "notice": "Returns the estimated per-sec borrow interest rate for this jToken after some change"
      },
      "estimateSupplyRatePerSecondAfterChange(uint256,bool)": {
        "notice": "Returns the estimated per-sec supply interest rate for this jToken after some change"
      },
      "exchangeRateCurrent()": {
        "notice": "Accrue interest then return the up-to-date exchange rate"
      },
      "exchangeRateStored()": {
        "notice": "Calculates the exchange rate from the underlying to the JToken"
      },
      "flashFee(uint256)": {
        "notice": "Get the flash loan fees"
      },
      "flashLoan(address,address,uint256,bytes)": {
        "notice": "Flash loan funds to a given account."
      },
      "getAccountSnapshot(address)": {
        "notice": "Get a snapshot of the account's balances, and the cached exchange rate"
      },
      "getCash()": {
        "notice": "Get cash balance of this jToken in the underlying asset"
      },
      "initialize(address,address,address,uint256,string,string,uint8)": {
        "notice": "Initialize the new money market"
      },
      "initialize(address,address,uint256,string,string,uint8)": {
        "notice": "Initialize the money market"
      },
      "liquidateBorrow(address,uint256,address)": {
        "notice": "The sender liquidates the borrowers collateral. The collateral seized is transferred to the liquidator."
      },
      "liquidateBorrowNative(address,address)": {
        "notice": "The sender liquidates the borrowers collateral. The collateral seized is transferred to the liquidator."
      },
      "maxFlashLoan()": {
        "notice": "Get the max flash loan amount"
      },
      "mint(uint256)": {
        "notice": "Sender supplies assets into the market and receives jTokens in exchange"
      },
      "mintNative()": {
        "notice": "Sender supplies assets into the market and receives jTokens in exchange"
      },
      "redeem(uint256)": {
        "notice": "Sender redeems jTokens in exchange for the underlying asset"
      },
      "redeemNative(uint256)": {
        "notice": "Sender redeems jTokens in exchange for the underlying asset"
      },
      "redeemUnderlying(uint256)": {
        "notice": "Sender redeems jTokens in exchange for a specified amount of underlying asset"
      },
      "redeemUnderlyingNative(uint256)": {
        "notice": "Sender redeems jTokens in exchange for a specified amount of underlying asset"
      },
      "repayBorrow(uint256)": {
        "notice": "Sender repays their own borrow"
      },
      "repayBorrowBehalf(address,uint256)": {
        "notice": "Sender repays a borrow belonging to borrower"
      },
      "repayBorrowBehalfNative(address)": {
        "notice": "Sender repays a borrow belonging to borrower"
      },
      "repayBorrowNative()": {
        "notice": "Sender repays their own borrow"
      },
      "seize(address,address,uint256)": {
        "notice": "Transfers collateral tokens (this market) to the liquidator."
      },
      "supplyRatePerSecond()": {
        "notice": "Returns the current per-sec supply interest rate for this jToken"
      },
      "totalBorrowsCurrent()": {
        "notice": "Returns the current total borrows plus accrued interest"
      },
      "transfer(address,uint256)": {
        "notice": "Transfer `amount` tokens from `msg.sender` to `dst`"
      },
      "transferFrom(address,address,uint256)": {
        "notice": "Transfer `amount` tokens from `src` to `dst`"
      }
    },
    "notice": "JTokens which wrap an EIP-20 underlying and are delegated to"
  },
  "storageLayout": {
    "storage": [
      {
        "astId": 15085,
        "contract": "contracts/JWrappedNativeDelegate.sol:JWrappedNativeDelegate",
        "label": "_notEntered",
        "offset": 0,
        "slot": "0",
        "type": "t_bool"
      },
      {
        "astId": 15087,
        "contract": "contracts/JWrappedNativeDelegate.sol:JWrappedNativeDelegate",
        "label": "name",
        "offset": 0,
        "slot": "1",
        "type": "t_string_storage"
      },
      {
        "astId": 15089,
        "contract": "contracts/JWrappedNativeDelegate.sol:JWrappedNativeDelegate",
        "label": "symbol",
        "offset": 0,
        "slot": "2",
        "type": "t_string_storage"
      },
      {
        "astId": 15091,
        "contract": "contracts/JWrappedNativeDelegate.sol:JWrappedNativeDelegate",
        "label": "decimals",
        "offset": 0,
        "slot": "3",
        "type": "t_uint8"
      },
      {
        "astId": 15099,
        "contract": "contracts/JWrappedNativeDelegate.sol:JWrappedNativeDelegate",
        "label": "admin",
        "offset": 1,
        "slot": "3",
        "type": "t_address_payable"
      },
      {
        "astId": 15101,
        "contract": "contracts/JWrappedNativeDelegate.sol:JWrappedNativeDelegate",
        "label": "pendingAdmin",
        "offset": 0,
        "slot": "4",
        "type": "t_address_payable"
      },
      {
        "astId": 15103,
        "contract": "contracts/JWrappedNativeDelegate.sol:JWrappedNativeDelegate",
        "label": "joetroller",
        "offset": 0,
        "slot": "5",
        "type": "t_contract(JoetrollerInterface)21527"
      },
      {
        "astId": 15105,
        "contract": "contracts/JWrappedNativeDelegate.sol:JWrappedNativeDelegate",
        "label": "interestRateModel",
        "offset": 0,
        "slot": "6",
        "type": "t_contract(InterestRateModel)2490"
      },
      {
        "astId": 15107,
        "contract": "contracts/JWrappedNativeDelegate.sol:JWrappedNativeDelegate",
        "label": "initialExchangeRateMantissa",
        "offset": 0,
        "slot": "7",
        "type": "t_uint256"
      },
      {
        "astId": 15109,
        "contract": "contracts/JWrappedNativeDelegate.sol:JWrappedNativeDelegate",
        "label": "reserveFactorMantissa",
        "offset": 0,
        "slot": "8",
        "type": "t_uint256"
      },
      {
        "astId": 15111,
        "contract": "contracts/JWrappedNativeDelegate.sol:JWrappedNativeDelegate",
        "label": "accrualBlockTimestamp",
        "offset": 0,
        "slot": "9",
        "type": "t_uint256"
      },
      {
        "astId": 15113,
        "contract": "contracts/JWrappedNativeDelegate.sol:JWrappedNativeDelegate",
        "label": "borrowIndex",
        "offset": 0,
        "slot": "10",
        "type": "t_uint256"
      },
      {
        "astId": 15115,
        "contract": "contracts/JWrappedNativeDelegate.sol:JWrappedNativeDelegate",
        "label": "totalBorrows",
        "offset": 0,
        "slot": "11",
        "type": "t_uint256"
      },
      {
        "astId": 15117,
        "contract": "contracts/JWrappedNativeDelegate.sol:JWrappedNativeDelegate",
        "label": "totalReserves",
        "offset": 0,
        "slot": "12",
        "type": "t_uint256"
      },
      {
        "astId": 15119,
        "contract": "contracts/JWrappedNativeDelegate.sol:JWrappedNativeDelegate",
        "label": "totalSupply",
        "offset": 0,
        "slot": "13",
        "type": "t_uint256"
      },
      {
        "astId": 15123,
        "contract": "contracts/JWrappedNativeDelegate.sol:JWrappedNativeDelegate",
        "label": "accountTokens",
        "offset": 0,
        "slot": "14",
        "type": "t_mapping(t_address,t_uint256)"
      },
      {
        "astId": 15129,
        "contract": "contracts/JWrappedNativeDelegate.sol:JWrappedNativeDelegate",
        "label": "transferAllowances",
        "offset": 0,
        "slot": "15",
        "type": "t_mapping(t_address,t_mapping(t_address,t_uint256))"
      },
      {
        "astId": 15138,
        "contract": "contracts/JWrappedNativeDelegate.sol:JWrappedNativeDelegate",
        "label": "accountBorrows",
        "offset": 0,
        "slot": "16",
        "type": "t_mapping(t_address,t_struct(BorrowSnapshot)15134_storage)"
      },
      {
        "astId": 15141,
        "contract": "contracts/JWrappedNativeDelegate.sol:JWrappedNativeDelegate",
        "label": "underlying",
        "offset": 0,
        "slot": "17",
        "type": "t_address"
      },
      {
        "astId": 15143,
        "contract": "contracts/JWrappedNativeDelegate.sol:JWrappedNativeDelegate",
        "label": "implementation",
        "offset": 0,
        "slot": "18",
        "type": "t_address"
      },
      {
        "astId": 15722,
        "contract": "contracts/JWrappedNativeDelegate.sol:JWrappedNativeDelegate",
        "label": "protocolSeizeShareMantissa",
        "offset": 0,
        "slot": "19",
        "type": "t_uint256"
      }
    ],
    "types": {
      "t_address": {
        "encoding": "inplace",
        "label": "address",
        "numberOfBytes": "20"
      },
      "t_address_payable": {
        "encoding": "inplace",
        "label": "address payable",
        "numberOfBytes": "20"
      },
      "t_bool": {
        "encoding": "inplace",
        "label": "bool",
        "numberOfBytes": "1"
      },
      "t_contract(InterestRateModel)2490": {
        "encoding": "inplace",
        "label": "contract InterestRateModel",
        "numberOfBytes": "20"
      },
      "t_contract(JoetrollerInterface)21527": {
        "encoding": "inplace",
        "label": "contract JoetrollerInterface",
        "numberOfBytes": "20"
      },
      "t_mapping(t_address,t_mapping(t_address,t_uint256))": {
        "encoding": "mapping",
        "key": "t_address",
        "label": "mapping(address => mapping(address => uint256))",
        "numberOfBytes": "32",
        "value": "t_mapping(t_address,t_uint256)"
      },
      "t_mapping(t_address,t_struct(BorrowSnapshot)15134_storage)": {
        "encoding": "mapping",
        "key": "t_address",
        "label": "mapping(address => struct JTokenStorage.BorrowSnapshot)",
        "numberOfBytes": "32",
        "value": "t_struct(BorrowSnapshot)15134_storage"
      },
      "t_mapping(t_address,t_uint256)": {
        "encoding": "mapping",
        "key": "t_address",
        "label": "mapping(address => uint256)",
        "numberOfBytes": "32",
        "value": "t_uint256"
      },
      "t_string_storage": {
        "encoding": "bytes",
        "label": "string",
        "numberOfBytes": "32"
      },
      "t_struct(BorrowSnapshot)15134_storage": {
        "encoding": "inplace",
        "label": "struct JTokenStorage.BorrowSnapshot",
        "members": [
          {
            "astId": 15131,
            "contract": "contracts/JWrappedNativeDelegate.sol:JWrappedNativeDelegate",
            "label": "principal",
            "offset": 0,
            "slot": "0",
            "type": "t_uint256"
          },
          {
            "astId": 15133,
            "contract": "contracts/JWrappedNativeDelegate.sol:JWrappedNativeDelegate",
            "label": "interestIndex",
            "offset": 0,
            "slot": "1",
            "type": "t_uint256"
          }
        ],
        "numberOfBytes": "64"
      },
      "t_uint256": {
        "encoding": "inplace",
        "label": "uint256",
        "numberOfBytes": "32"
      },
      "t_uint8": {
        "encoding": "inplace",
        "label": "uint8",
        "numberOfBytes": "1"
      }
    }
  }
}