{
  "address": "0x87890F0e2b459409f8b0484d23DA30605d575758",
  "abi": [
    {
      "anonymous": false,
      "inputs": [
        {
          "indexed": false,
          "internalType": "uint8",
          "name": "rewardType",
          "type": "uint8"
        },
        {
          "indexed": true,
          "internalType": "address",
          "name": "user",
          "type": "address"
        },
        {
          "indexed": false,
          "internalType": "uint256",
          "name": "amount",
          "type": "uint256"
        }
      ],
      "name": "AccruedRewardsSet",
      "type": "event"
    },
    {
      "anonymous": false,
      "inputs": [
        {
          "indexed": false,
          "internalType": "address",
          "name": "oldAdmin",
          "type": "address"
        },
        {
          "indexed": false,
          "internalType": "address",
          "name": "newAdmin",
          "type": "address"
        }
      ],
      "name": "AdminTransferred",
      "type": "event"
    },
    {
      "anonymous": false,
      "inputs": [
        {
          "indexed": false,
          "internalType": "uint8",
          "name": "rewardType",
          "type": "uint8"
        },
        {
          "indexed": true,
          "internalType": "contract IJToken",
          "name": "jToken",
          "type": "address"
        },
        {
          "indexed": true,
          "internalType": "address",
          "name": "borrower",
          "type": "address"
        },
        {
          "indexed": false,
          "internalType": "uint256",
          "name": "rewardDelta",
          "type": "uint256"
        },
        {
          "indexed": false,
          "internalType": "uint256",
          "name": "rewardBorrowIndex",
          "type": "uint256"
        }
      ],
      "name": "DistributedBorrowerReward",
      "type": "event"
    },
    {
      "anonymous": false,
      "inputs": [
        {
          "indexed": false,
          "internalType": "uint8",
          "name": "rewardType",
          "type": "uint8"
        },
        {
          "indexed": true,
          "internalType": "contract IJToken",
          "name": "jToken",
          "type": "address"
        },
        {
          "indexed": true,
          "internalType": "address",
          "name": "supplier",
          "type": "address"
        },
        {
          "indexed": false,
          "internalType": "uint256",
          "name": "rewardDelta",
          "type": "uint256"
        },
        {
          "indexed": false,
          "internalType": "uint256",
          "name": "rewardSupplyIndex",
          "type": "uint256"
        }
      ],
      "name": "DistributedSupplierReward",
      "type": "event"
    },
    {
      "anonymous": false,
      "inputs": [],
      "name": "InitializeRewardAccruedLocked",
      "type": "event"
    },
    {
      "anonymous": false,
      "inputs": [
        {
          "indexed": true,
          "internalType": "contract EIP20Interface",
          "name": "joe",
          "type": "address"
        }
      ],
      "name": "JoeSet",
      "type": "event"
    },
    {
      "anonymous": false,
      "inputs": [
        {
          "indexed": true,
          "internalType": "contract IJoetroller",
          "name": "newJoetroller",
          "type": "address"
        }
      ],
      "name": "JoetrollerSet",
      "type": "event"
    },
    {
      "anonymous": false,
      "inputs": [
        {
          "indexed": false,
          "internalType": "uint8",
          "name": "rewardType",
          "type": "uint8"
        },
        {
          "indexed": true,
          "internalType": "contract IJToken",
          "name": "jToken",
          "type": "address"
        },
        {
          "indexed": false,
          "internalType": "uint256",
          "name": "newSpeed",
          "type": "uint256"
        }
      ],
      "name": "RewardBorrowSpeedUpdated",
      "type": "event"
    },
    {
      "anonymous": false,
      "inputs": [
        {
          "indexed": false,
          "internalType": "uint8",
          "name": "rewardType",
          "type": "uint8"
        },
        {
          "indexed": false,
          "internalType": "address",
          "name": "recipient",
          "type": "address"
        },
        {
          "indexed": false,
          "internalType": "uint256",
          "name": "amount",
          "type": "uint256"
        }
      ],
      "name": "RewardGranted",
      "type": "event"
    },
    {
      "anonymous": false,
      "inputs": [
        {
          "indexed": false,
          "internalType": "uint8",
          "name": "rewardType",
          "type": "uint8"
        },
        {
          "indexed": true,
          "internalType": "contract IJToken",
          "name": "jToken",
          "type": "address"
        },
        {
          "indexed": false,
          "internalType": "uint256",
          "name": "newSpeed",
          "type": "uint256"
        }
      ],
      "name": "RewardSupplySpeedUpdated",
      "type": "event"
    },
    {
      "payable": true,
      "stateMutability": "payable",
      "type": "fallback"
    },
    {
      "constant": true,
      "inputs": [],
      "name": "admin",
      "outputs": [
        {
          "internalType": "address",
          "name": "",
          "type": "address"
        }
      ],
      "payable": false,
      "stateMutability": "view",
      "type": "function"
    },
    {
      "constant": false,
      "inputs": [
        {
          "internalType": "uint8",
          "name": "rewardType",
          "type": "uint8"
        },
        {
          "internalType": "address payable",
          "name": "holder",
          "type": "address"
        }
      ],
      "name": "claimReward",
      "outputs": [],
      "payable": false,
      "stateMutability": "nonpayable",
      "type": "function"
    },
    {
      "constant": false,
      "inputs": [
        {
          "internalType": "uint8",
          "name": "rewardType",
          "type": "uint8"
        },
        {
          "internalType": "address payable",
          "name": "holder",
          "type": "address"
        },
        {
          "internalType": "contract IJToken[]",
          "name": "jTokens",
          "type": "address[]"
        }
      ],
      "name": "claimReward",
      "outputs": [],
      "payable": false,
      "stateMutability": "nonpayable",
      "type": "function"
    },
    {
      "constant": false,
      "inputs": [
        {
          "internalType": "uint8",
          "name": "rewardType",
          "type": "uint8"
        },
        {
          "internalType": "address payable[]",
          "name": "holders",
          "type": "address[]"
        },
        {
          "internalType": "contract IJToken[]",
          "name": "jTokens",
          "type": "address[]"
        },
        {
          "internalType": "bool",
          "name": "borrowers",
          "type": "bool"
        },
        {
          "internalType": "bool",
          "name": "suppliers",
          "type": "bool"
        }
      ],
      "name": "claimReward",
      "outputs": [],
      "payable": false,
      "stateMutability": "nonpayable",
      "type": "function"
    },
    {
      "constant": false,
      "inputs": [
        {
          "internalType": "uint8",
          "name": "rewardType",
          "type": "uint8"
        },
        {
          "internalType": "address payable",
          "name": "recipient",
          "type": "address"
        },
        {
          "internalType": "uint256",
          "name": "amount",
          "type": "uint256"
        }
      ],
      "name": "grantReward",
      "outputs": [],
      "payable": false,
      "stateMutability": "nonpayable",
      "type": "function"
    },
    {
      "constant": false,
      "inputs": [],
      "name": "initialize",
      "outputs": [],
      "payable": false,
      "stateMutability": "nonpayable",
      "type": "function"
    },
    {
      "constant": false,
      "inputs": [
        {
          "internalType": "uint8",
          "name": "rewardType",
          "type": "uint8"
        },
        {
          "internalType": "address[]",
          "name": "users",
          "type": "address[]"
        },
        {
          "internalType": "uint256[]",
          "name": "amounts",
          "type": "uint256[]"
        }
      ],
      "name": "initializeRewardAccrued",
      "outputs": [],
      "payable": false,
      "stateMutability": "nonpayable",
      "type": "function"
    },
    {
      "constant": true,
      "inputs": [],
      "name": "isInitializeRewardAccruedLocked",
      "outputs": [
        {
          "internalType": "bool",
          "name": "",
          "type": "bool"
        }
      ],
      "payable": false,
      "stateMutability": "view",
      "type": "function"
    },
    {
      "constant": true,
      "inputs": [],
      "name": "joe",
      "outputs": [
        {
          "internalType": "contract EIP20Interface",
          "name": "",
          "type": "address"
        }
      ],
      "payable": false,
      "stateMutability": "view",
      "type": "function"
    },
    {
      "constant": true,
      "inputs": [],
      "name": "joetroller",
      "outputs": [
        {
          "internalType": "contract IJoetroller",
          "name": "",
          "type": "address"
        }
      ],
      "payable": false,
      "stateMutability": "view",
      "type": "function"
    },
    {
      "constant": false,
      "inputs": [],
      "name": "lockInitializeRewardAccrued",
      "outputs": [],
      "payable": false,
      "stateMutability": "nonpayable",
      "type": "function"
    },
    {
      "constant": true,
      "inputs": [
        {
          "internalType": "uint8",
          "name": "rewardType",
          "type": "uint8"
        },
        {
          "internalType": "address",
          "name": "holder",
          "type": "address"
        }
      ],
      "name": "pendingReward",
      "outputs": [
        {
          "internalType": "uint256",
          "name": "",
          "type": "uint256"
        }
      ],
      "payable": false,
      "stateMutability": "view",
      "type": "function"
    },
    {
      "constant": true,
      "inputs": [
        {
          "internalType": "uint8",
          "name": "",
          "type": "uint8"
        },
        {
          "internalType": "address",
          "name": "",
          "type": "address"
        }
      ],
      "name": "rewardAccrued",
      "outputs": [
        {
          "internalType": "uint256",
          "name": "",
          "type": "uint256"
        }
      ],
      "payable": false,
      "stateMutability": "view",
      "type": "function"
    },
    {
      "constant": true,
      "inputs": [
        {
          "internalType": "uint8",
          "name": "",
          "type": "uint8"
        },
        {
          "internalType": "address",
          "name": "",
          "type": "address"
        }
      ],
      "name": "rewardBorrowSpeeds",
      "outputs": [
        {
          "internalType": "uint256",
          "name": "",
          "type": "uint256"
        }
      ],
      "payable": false,
      "stateMutability": "view",
      "type": "function"
    },
    {
      "constant": true,
      "inputs": [
        {
          "internalType": "uint8",
          "name": "",
          "type": "uint8"
        },
        {
          "internalType": "address",
          "name": "",
          "type": "address"
        }
      ],
      "name": "rewardBorrowState",
      "outputs": [
        {
          "internalType": "uint208",
          "name": "index",
          "type": "uint208"
        },
        {
          "internalType": "uint48",
          "name": "timestamp",
          "type": "uint48"
        }
      ],
      "payable": false,
      "stateMutability": "view",
      "type": "function"
    },
    {
      "constant": true,
      "inputs": [
        {
          "internalType": "uint8",
          "name": "",
          "type": "uint8"
        },
        {
          "internalType": "address",
          "name": "",
          "type": "address"
        },
        {
          "internalType": "address",
          "name": "",
          "type": "address"
        }
      ],
      "name": "rewardBorrowerIndex",
      "outputs": [
        {
          "internalType": "uint256",
          "name": "",
          "type": "uint256"
        }
      ],
      "payable": false,
      "stateMutability": "view",
      "type": "function"
    },
    {
      "constant": true,
      "inputs": [
        {
          "internalType": "uint8",
          "name": "",
          "type": "uint8"
        },
        {
          "internalType": "address",
          "name": "",
          "type": "address"
        },
        {
          "internalType": "address",
          "name": "",
          "type": "address"
        }
      ],
      "name": "rewardSupplierIndex",
      "outputs": [
        {
          "internalType": "uint256",
          "name": "",
          "type": "uint256"
        }
      ],
      "payable": false,
      "stateMutability": "view",
      "type": "function"
    },
    {
      "constant": true,
      "inputs": [
        {
          "internalType": "uint8",
          "name": "",
          "type": "uint8"
        },
        {
          "internalType": "address",
          "name": "",
          "type": "address"
        }
      ],
      "name": "rewardSupplySpeeds",
      "outputs": [
        {
          "internalType": "uint256",
          "name": "",
          "type": "uint256"
        }
      ],
      "payable": false,
      "stateMutability": "view",
      "type": "function"
    },
    {
      "constant": true,
      "inputs": [
        {
          "internalType": "uint8",
          "name": "",
          "type": "uint8"
        },
        {
          "internalType": "address",
          "name": "",
          "type": "address"
        }
      ],
      "name": "rewardSupplyState",
      "outputs": [
        {
          "internalType": "uint208",
          "name": "index",
          "type": "uint208"
        },
        {
          "internalType": "uint48",
          "name": "timestamp",
          "type": "uint48"
        }
      ],
      "payable": false,
      "stateMutability": "view",
      "type": "function"
    },
    {
      "constant": false,
      "inputs": [
        {
          "internalType": "address",
          "name": "newAdmin",
          "type": "address"
        }
      ],
      "name": "setAdmin",
      "outputs": [],
      "payable": false,
      "stateMutability": "nonpayable",
      "type": "function"
    },
    {
      "constant": false,
      "inputs": [
        {
          "internalType": "contract EIP20Interface",
          "name": "_joe",
          "type": "address"
        }
      ],
      "name": "setJoe",
      "outputs": [],
      "payable": false,
      "stateMutability": "nonpayable",
      "type": "function"
    },
    {
      "constant": false,
      "inputs": [
        {
          "internalType": "uint8",
          "name": "rewardType",
          "type": "uint8"
        },
        {
          "internalType": "contract IJToken",
          "name": "jToken",
          "type": "address"
        },
        {
          "internalType": "uint256",
          "name": "rewardSupplySpeed",
          "type": "uint256"
        },
        {
          "internalType": "uint256",
          "name": "rewardBorrowSpeed",
          "type": "uint256"
        }
      ],
      "name": "setRewardSpeed",
      "outputs": [],
      "payable": false,
      "stateMutability": "nonpayable",
      "type": "function"
    },
    {
      "constant": false,
      "inputs": [
        {
          "internalType": "contract IJToken",
          "name": "jToken",
          "type": "address"
        },
        {
          "internalType": "address",
          "name": "borrower",
          "type": "address"
        },
        {
          "components": [
            {
              "internalType": "uint256",
              "name": "mantissa",
              "type": "uint256"
            }
          ],
          "internalType": "struct Exponential.Exp",
          "name": "marketBorrowIndex",
          "type": "tuple"
        }
      ],
      "name": "updateAndDistributeBorrowerRewardsForToken",
      "outputs": [],
      "payable": false,
      "stateMutability": "nonpayable",
      "type": "function"
    },
    {
      "constant": false,
      "inputs": [
        {
          "internalType": "contract IJToken",
          "name": "jToken",
          "type": "address"
        },
        {
          "internalType": "address",
          "name": "supplier",
          "type": "address"
        }
      ],
      "name": "updateAndDistributeSupplierRewardsForToken",
      "outputs": [],
      "payable": false,
      "stateMutability": "nonpayable",
      "type": "function"
    }
  ],
  "transactionHash": "0x208659da7ab97ef87dfd87b68a2a28fe4fe031b096bf329f89cca1c0b428ee02",
  "args": [],
  "numDeployments": 1,
  "solcInputHash": "421d4275614efa8107facdab4b2adea5",
  "bytecode": "0x608060405234801561001057600080fd5b50612ee2806100206000396000f3fe60806040526004361061014b5760003560e01c80638129fc1c116100b6578063be6153351161006f578063be61533514610392578063bf095955146103b2578063c4792f9b146103d2578063cff42ff6146103f2578063d81c5e4514610414578063f851a440146104345761014b565b80638129fc1c146102e857806387946d53146102fd5780638805714b1461031d57806388e972b81461033d5780639c39e2931461035d578063b985a3a01461037d5761014b565b8063670e8afd11610108578063670e8afd146102285780636fbd61d014610248578063704b6c0214610268578063744532ae146102885780637937969d146102a85780637e9bedee146102c85761014b565b8063030ce6381461014d57806305b9783d146101835780630952c563146101a35780634b3a0a74146101c35780635b727869146101f15780636330533c14610206575b005b34801561015957600080fd5b5061016d610168366004612595565b610456565b60405161017a9190612d1d565b60405180910390f35b34801561018f57600080fd5b5061016d61019e366004612595565b610473565b3480156101af57600080fd5b5061014b6101be366004612595565b610490565b3480156101cf57600080fd5b506101e36101de366004612595565b61052b565b60405161017a929190612d02565b3480156101fd57600080fd5b5061014b610562565b34801561021257600080fd5b5061021b6105d3565b60405161017a9190612c03565b34801561023457600080fd5b5061014b6102433660046124f0565b6105e2565b34801561025457600080fd5b5061014b6102633660046127d7565b6106c0565b34801561027457600080fd5b5061014b610283366004612461565b61072c565b34801561029457600080fd5b5061014b6102a33660046125b4565b6107b5565b3480156102b457600080fd5b5061016d6102c336600461265f565b6107fe565b3480156102d457600080fd5b5061014b6102e33660046124d2565b610821565b3480156102f457600080fd5b5061014b6108be565b34801561030957600080fd5b5061014b6103183660046126a2565b610923565b34801561032957600080fd5b5061014b610338366004612729565b610a81565b34801561034957600080fd5b5061016d61035836600461265f565b610b02565b34801561036957600080fd5b5061014b61037836600461252a565b610b25565b34801561038957600080fd5b5061021b610c02565b34801561039e57600080fd5b5061016d6103ad366004612595565b610c11565b3480156103be57600080fd5b5061016d6103cd366004612595565b610cb0565b3480156103de57600080fd5b5061014b6103ed36600461261c565b610ccd565b3480156103fe57600080fd5b50610407610d8b565b60405161017a9190612bf5565b34801561042057600080fd5b506101e361042f366004612595565b610d9b565b34801561044057600080fd5b50610449610dd2565b60405161017a9190612ba3565b600260209081526000928352604080842090915290825290205481565b600860209081526000928352604080842090915290825290205481565b6105278282600160009054906101000a90046001600160a01b03166001600160a01b031663b0772d0b6040518163ffffffff1660e01b815260040160006040518083038186803b1580156104e357600080fd5b505afa1580156104f7573d6000803e3d6000fd5b505050506040513d6000823e601f3d908101601f1916820160405261051f919081019061247f565b600180610de1565b5050565b60056020908152600092835260408084209091529082529020546001600160d01b03811690600160d01b900465ffffffffffff1682565b6000546001600160a01b031633146105955760405162461bcd60e51b815260040161058c90612c52565b60405180910390fd5b6009805460ff60a01b1916600160a01b1790556040517f2914becc1610c384981e33fd758dea566b16bf386b11f25bfc4927fb4456772790600090a1565b6001546001600160a01b031681565b6001546001600160a01b031633148061060557506000546001600160a01b031633145b6106215760405162461bcd60e51b815260040161058c90612ce2565b60005b60018160ff16116106bb57610639818461102c565b600061064682858561110c565b60ff831660009081526008602090815260408083206001600160a01b03881684529091529020546001600160d01b0391909116915061068b908263ffffffff6112ee16565b60ff831660009081526008602090815260408083206001600160a01b038816845290915290205550600101610624565b505050565b6000546001600160a01b031633146106ea5760405162461bcd60e51b815260040161058c90612c52565b8360018160ff16111561070f5760405162461bcd60e51b815260040161058c90612cb2565b61071a858585611313565b6107258585846114b8565b5050505050565b6000546001600160a01b031633146107565760405162461bcd60e51b815260040161058c90612c52565b600080546001600160a01b038381166001600160a01b03198316179092556040519116907ff8ccb027dfcd135e000e9d45e6cc2d662578a8825d4c45b5e32e0adf67e79ec6906107a99083908590612bda565b60405180910390a15050565b6107f8848484848080602002602001604051908101604052809392919081815260200183836020028082843760009201919091525060019250829150610de19050565b50505050565b600760209081526000938452604080852082529284528284209052825290205481565b6000546001600160a01b0316331461084b5760405162461bcd60e51b815260040161058c90612c52565b6009546001600160a01b0316156108745760405162461bcd60e51b815260040161058c90612c32565b600980546001600160a01b0319166001600160a01b0383169081179091556040517f5f8510a8d2e5071ff8272f0ed89cccbdfbf276bcbc735b1261e806d885f6d3e690600090a250565b6001546001600160a01b0316156108e75760405162461bcd60e51b815260040161058c90612c72565b6000546001600160a01b031661090e57600080546001600160a01b03191633179055610921565b600180546001600160a01b031916331790555b565b6000546001600160a01b0316331461094d5760405162461bcd60e51b815260040161058c90612c52565b8460018160ff1611156109725760405162461bcd60e51b815260040161058c90612cb2565b600954600160a01b900460ff161561099c5760405162461bcd60e51b815260040161058c90612cf2565b838281146109bc5760405162461bcd60e51b815260040161058c90612c22565b60005b81811015610a775760008787838181106109d557fe5b90506020020160206109ea9190810190612461565b905060008686848181106109fa57fe5b60ff8d1660009081526008602090815260408083206001600160a01b038916808552908352928190209390910294909401359182905592519093507f88d8eb57a4c3a231f2bcd7397528950212e9894bed8fdf3e48be4655662ad66f9150610a65908d908590612d6e565b60405180910390a250506001016109bf565b5050505050505050565b8460005b81811015610af757610aef89898984818110610a9d57fe5b9050602002016020610ab29190810190612461565b8888808060200260200160405190810160405280939291908181526020018383602002808284376000920191909152508a9250899150610de19050565b600101610a85565b505050505050505050565b600660209081526000938452604080852082529284528284209052825290205481565b6001546001600160a01b0316331480610b4857506000546001600160a01b031633145b610b645760405162461bcd60e51b815260040161058c90612ce2565b60005b60018160ff16116107f857610b7e818584356116c0565b6000610b8d828686863561179d565b60ff831660009081526008602090815260408083206001600160a01b03891684529091529020546001600160d01b03919091169150610bd2908263ffffffff6112ee16565b60ff831660009081526008602090815260408083206001600160a01b038916845290915290205550600101610b67565b6009546001600160a01b031681565b6000610ca78383600160009054906101000a90046001600160a01b03166001600160a01b031663b0772d0b6040518163ffffffff1660e01b815260040160006040518083038186803b158015610c6657600080fd5b505afa158015610c7a573d6000803e3d6000fd5b505050506040513d6000823e601f3d908101601f19168201604052610ca2919081019061247f565b61198b565b90505b92915050565b600360209081526000928352604080842090915290825290205481565b6000546001600160a01b03163314610cf75760405162461bcd60e51b815260040161058c90612c52565b8260018160ff161115610d1c5760405162461bcd60e51b815260040161058c90612cb2565b6000610d29858585611aca565b90508015610d495760405162461bcd60e51b815260040161058c90612cc2565b7fc6d3bad890aa15362e90611f8643bfafcf5b09a9d4781295bd7ba8adffa03711858585604051610d7c93929190612d2b565b60405180910390a15050505050565b600954600160a01b900460ff1681565b60046020908152600092835260408084209091529082529020546001600160d01b03811690600160d01b900465ffffffffffff1682565b6000546001600160a01b031681565b8460018160ff161115610e065760405162461bcd60e51b815260040161058c90612cb2565b60ff861660009081526008602090815260408083206001600160a01b0389168452909152812054855190915b81811015610fe9576000878281518110610e4857fe5b6020908102919091010151600154604051633d98a1e560e01b81529192506001600160a01b031690633d98a1e590610e84908490600401612ba3565b60206040518083038186803b158015610e9c57600080fd5b505afa158015610eb0573d6000803e3d6000fd5b505050506040513d601f19601f82011682018060405250610ed491908101906124b4565b610ef05760405162461bcd60e51b815260040161058c90612c92565b8615610fa4576000816001600160a01b031663aa5af0fd6040518163ffffffff1660e01b815260040160206040518083038186803b158015610f3157600080fd5b505afa158015610f45573d6000803e3d6000fd5b505050506040513d601f19601f82011682018060405250610f699190810190612577565b9050610f768b83836116c0565b6000610f848c848d8561179d565b6001600160d01b03169050610f9f868263ffffffff6112ee16565b955050505b8515610fe057610fb48a8261102c565b6000610fc18b838c61110c565b6001600160d01b03169050610fdc858263ffffffff6112ee16565b9450505b50600101610e32565b508115610a7757610ffb888884611aca565b60ff891660009081526008602090815260408083206001600160a01b038c1684529091529020555050505050505050565b8160018160ff1611156110515760405162461bcd60e51b815260040161058c90612cb2565b60008061105e8585611c56565b9150915080156110a85760ff851660009081526004602090815260408083206001600160a01b0388168452909152902080546001600160d01b0319166001600160d01b0384161790555b6110b86110b3611dff565b611e03565b60ff90951660009081526004602090815260408083206001600160a01b03909716835295905293909320805465ffffffffffff95909516600160d01b026001600160d01b0390951694909417909355505050565b60008360018160ff1611156111335760405162461bcd60e51b815260040161058c90612cb2565b60ff851660008181526004602090815260408083206001600160a01b03808a16808652918452828520549585526006845282852091855290835281842090881684529091528120546001600160d01b039092169190611198838363ffffffff611e2f16565b90506000876001600160a01b03166370a08231886040518263ffffffff1660e01b81526004016111c89190612ba3565b60206040518083038186803b1580156111e057600080fd5b505afa1580156111f4573d6000803e3d6000fd5b505050506040513d601f19601f820116820180604052506112189190810190612577565b9050600061125361124e6ec097ce7bc90715b34b9f1000000000611242858763ffffffff611e7116565b9063ffffffff611eab16565b611eed565b90508385146112925760ff8a1660009081526006602090815260408083206001600160a01b03808e168552908352818420908c16845290915290208590555b876001600160a01b0316896001600160a01b03167faccd035d02c456be35306aecd5a5fe62320713dde09ccd68b0a5e8ed930399998c84896040516112d993929190612d53565b60405180910390a39998505050505050505050565b600082820183811015610ca75760405162461bcd60e51b815260040161058c90612c42565b60ff831660009081526002602090815260408083206001600160a01b0386168452909152902054801561134f5761134a848461102c565b611447565b811561144757600154604051633d98a1e560e01b81526001600160a01b0390911690633d98a1e590611385908690600401612ba3565b60206040518083038186803b15801561139d57600080fd5b505afa1580156113b1573d6000803e3d6000fd5b505050506040513d601f19601f820116820180604052506113d591908101906124b4565b6113f15760405162461bcd60e51b815260040161058c90612c62565b6113fc6110b3611dff565b60ff851660009081526004602090815260408083206001600160a01b03881684529091529020805465ffffffffffff92909216600160d01b026001600160d01b039092169190911790555b8181146107f85760ff841660009081526002602090815260408083206001600160a01b03871680855292529182902084905590517f71975117d0c353e131b030f9cf69eecfded777f5ba2a036b066b90da4c89ab42906114aa9087908690612d6e565b60405180910390a250505050565b60ff831660009081526003602090815260408083206001600160a01b03861684529091529020548015611565576115608484856001600160a01b031663aa5af0fd6040518163ffffffff1660e01b815260040160206040518083038186803b15801561152357600080fd5b505afa158015611537573d6000803e3d6000fd5b505050506040513d601f19601f8201168201806040525061155b9190810190612577565b6116c0565b61165d565b811561165d57600154604051633d98a1e560e01b81526001600160a01b0390911690633d98a1e59061159b908690600401612ba3565b60206040518083038186803b1580156115b357600080fd5b505afa1580156115c7573d6000803e3d6000fd5b505050506040513d601f19601f820116820180604052506115eb91908101906124b4565b6116075760405162461bcd60e51b815260040161058c90612c62565b6116126110b3611dff565b60ff851660009081526005602090815260408083206001600160a01b03881684529091529020805465ffffffffffff92909216600160d01b026001600160d01b039092169190911790555b8181146107f85760ff841660009081526003602090815260408083206001600160a01b03871680855292529182902084905590517ffc4f93ddd4a06ca99d4cd58e8f2a3eaec8f2f3795f127d83e0c203e08f8997e1906114aa9087908690612d6e565b8260018160ff1611156116e55760405162461bcd60e51b815260040161058c90612cb2565b6000806116f3868686611f12565b91509150801561173d5760ff861660009081526005602090815260408083206001600160a01b0389168452909152902080546001600160d01b0319166001600160d01b0384161790555b6117486110b3611dff565b60ff90961660009081526005602090815260408083206001600160a01b03909816835296905294909420805465ffffffffffff96909616600160d01b026001600160d01b039096169590951790945550505050565b60008460018160ff1611156117c45760405162461bcd60e51b815260040161058c90612cb2565b60ff861660008181526005602090815260408083206001600160a01b03808b16808652918452828520549585526007845282852091855290835281842090891684529091528120546001600160d01b039092169190611829838363ffffffff611e2f16565b905060006118c587611242670de0b6b3a76400008c6001600160a01b03166395dd91938d6040518263ffffffff1660e01b81526004016118699190612ba3565b60206040518083038186803b15801561188157600080fd5b505afa158015611895573d6000803e3d6000fd5b505050506040513d601f19601f820116820180604052506118b99190810190612577565b9063ffffffff611e7116565b905060006118ef61124e6ec097ce7bc90715b34b9f1000000000611242858763ffffffff611e7116565b905083851461192e5760ff8b1660009081526007602090815260408083206001600160a01b03808f168552908352818420908d16845290915290208590555b886001600160a01b03168a6001600160a01b03167fa1b6a046664a0ecf068059f26de56878f8d0e799907ca2e42d9148ccbdc717a78d848960405161197593929190612d53565b60405180910390a39a9950505050505050505050565b60008360018160ff1611156119b25760405162461bcd60e51b815260040161058c90612cb2565b60ff851660009081526008602090815260408083206001600160a01b0388168452909152812054845190915b81811015611abe5760008682815181106119f457fe5b602002602001015190506000611a0b8a838b6120d2565b90506000611a8b8b848c866001600160a01b031663aa5af0fd6040518163ffffffff1660e01b815260040160206040518083038186803b158015611a4e57600080fd5b505afa158015611a62573d6000803e3d6000fd5b505050506040513d601f19601f82011682018060405250611a869190810190612577565b6121e2565b9050611aad81611aa1888563ffffffff6112ee16565b9063ffffffff6112ee16565b955050600190920191506119de9050565b50909695505050505050565b600081611ad957506000611c4f565b60ff8416611c00576009546040516370a0823160e01b81526000916001600160a01b0316906370a0823190611b12903090600401612bb1565b60206040518083038186803b158015611b2a57600080fd5b505afa158015611b3e573d6000803e3d6000fd5b505050506040513d601f19601f82011682018060405250611b629190810190612577565b9050808311611bfa5760095460405163a9059cbb60e01b81526001600160a01b039091169063a9059cbb90611b9d9087908790600401612bbf565b602060405180830381600087803b158015611bb757600080fd5b505af1158015611bcb573d6000803e3d6000fd5b505050506040513d601f19601f82011682018060405250611bef91908101906124b4565b506000915050611c4f565b50611c4c565b8360ff1660011415611c4c5747808311611c4a576040516001600160a01b0385169084156108fc029085906000818181858888f19350505050158015611bef573d6000803e3d6000fd5b505b50805b9392505050565b600080611c61612319565b5060ff841660008181526004602090815260408083206001600160a01b0388168085529083528184208251808401845290546001600160d01b038116825265ffffffffffff600160d01b9091048116828601908152968652600285528386209286529190935290832054935191939291611cea9116611cde611dff565b9063ffffffff611e2f16565b90508015801590611cfa57508115155b15611dee576000866001600160a01b03166318160ddd6040518163ffffffff1660e01b815260040160206040518083038186803b158015611d3a57600080fd5b505afa158015611d4e573d6000803e3d6000fd5b505050506040513d601f19601f82011682018060405250611d729190810190612577565b90508015611dec576000611d8c838563ffffffff611e7116565b9050611dce61124e611db784611242856ec097ce7bc90715b34b9f100000000063ffffffff611e7116565b87516001600160d01b03169063ffffffff6112ee16565b6001600160d01b0316948590525092945060019350611df892505050565b505b5050519150600090505b9250929050565b4290565b600066010000000000008210611e2b5760405162461bcd60e51b815260040161058c90612c82565b5090565b6000610ca783836040518060400160405280601f81526020017f536166654d6174683a207375627472616374696f6e20756e646572666c6f77008152506122b6565b600082611e8057506000610caa565b82820282848281611e8d57fe5b0414610ca75760405162461bcd60e51b815260040161058c90612ca2565b6000610ca783836040518060400160405280601a81526020017f536166654d6174683a206469766973696f6e206279207a65726f0000000000008152506122e2565b6000600160d01b8210611e2b5760405162461bcd60e51b815260040161058c90612cd2565b600080611f1d612319565b5060ff851660008181526005602090815260408083206001600160a01b0389168085529083528184208251808401845290546001600160d01b038116825265ffffffffffff600160d01b9091048116828601908152968652600385528386209286529190935290832054935191939291611f9a9116611cde611dff565b90508015801590611faa57508115155b156120c0576000876001600160a01b03166347bd37186040518163ffffffff1660e01b815260040160206040518083038186803b158015611fea57600080fd5b505afa158015611ffe573d6000803e3d6000fd5b505050506040513d601f19601f820116820180604052506120229190810190612577565b905060006120428861124284670de0b6b3a764000063ffffffff611e7116565b905080156120bd57600061205c848663ffffffff611e7116565b905061209e61124e61208784611242856ec097ce7bc90715b34b9f100000000063ffffffff611e7116565b88516001600160d01b03169063ffffffff6112ee16565b6001600160d01b03169586905250939550600194506120ca9350505050565b50505b5050519150600090505b935093915050565b6000806120df8585611c56565b5060ff861660009081526006602090815260408083206001600160a01b03808a16855290835281842090881684529091528120546001600160d01b03929092169250612131838363ffffffff611e2f16565b90506000866001600160a01b03166370a08231876040518263ffffffff1660e01b81526004016121619190612ba3565b60206040518083038186803b15801561217957600080fd5b505afa15801561218d573d6000803e3d6000fd5b505050506040513d601f19601f820116820180604052506121b19190810190612577565b90506121d66ec097ce7bc90715b34b9f1000000000611242838563ffffffff611e7116565b98975050505050505050565b6000806121f0868685611f12565b5060ff871660009081526007602090815260408083206001600160a01b03808b16855290835281842090891684529091528120546001600160d01b03929092169250612242838363ffffffff611e2f16565b9050600061228286611242670de0b6b3a76400008b6001600160a01b03166395dd91938c6040518263ffffffff1660e01b81526004016118699190612ba3565b90506122a76ec097ce7bc90715b34b9f1000000000611242838563ffffffff611e7116565b9450505050505b949350505050565b600081848411156122da5760405162461bcd60e51b815260040161058c9190612c11565b505050900390565b600081836123035760405162461bcd60e51b815260040161058c9190612c11565b50600083858161230f57fe5b0495945050505050565b604080518082019091526000808252602082015290565b8035610caa81612e64565b60008083601f84011261234d57600080fd5b50813567ffffffffffffffff81111561236557600080fd5b602083019150836020820283011115611df857600080fd5b600082601f83011261238e57600080fd5b81516123a161239c82612da3565b612d7c565b915081818352602084019350602081019050838560208402820111156123c657600080fd5b60005b838110156123f257816123dc888261241d565b84525060209283019291909101906001016123c9565b5050505092915050565b8035610caa81612e7b565b8051610caa81612e7b565b8035610caa81612e84565b8051610caa81612e84565b60006020828403121561243a57600080fd5b50919050565b8035610caa81612e8d565b8051610caa81612e8d565b8035610caa81612e96565b60006020828403121561247357600080fd5b60006122ae8484612330565b60006020828403121561249157600080fd5b815167ffffffffffffffff8111156124a857600080fd5b6122ae8482850161237d565b6000602082840312156124c657600080fd5b60006122ae8484612407565b6000602082840312156124e457600080fd5b60006122ae8484612412565b6000806040838503121561250357600080fd5b600061250f8585612412565b925050602061252085828601612330565b9150509250929050565b60008060006060848603121561253f57600080fd5b600061254b8686612412565b935050602061255c86828701612330565b925050604061256d86828701612428565b9150509250925092565b60006020828403121561258957600080fd5b60006122ae848461244b565b600080604083850312156125a857600080fd5b600061250f8585612456565b600080600080606085870312156125ca57600080fd5b60006125d68787612456565b94505060206125e787828801612330565b935050604085013567ffffffffffffffff81111561260457600080fd5b6126108782880161233b565b95989497509550505050565b60008060006060848603121561263157600080fd5b600061263d8686612456565b935050602061264e86828701612330565b925050604061256d86828701612440565b60008060006060848603121561267457600080fd5b60006126808686612456565b935050602061269186828701612330565b925050604061256d86828701612330565b6000806000806000606086880312156126ba57600080fd5b60006126c68888612456565b955050602086013567ffffffffffffffff8111156126e357600080fd5b6126ef8882890161233b565b9450945050604086013567ffffffffffffffff81111561270e57600080fd5b61271a8882890161233b565b92509250509295509295909350565b600080600080600080600060a0888a03121561274457600080fd5b60006127508a8a612456565b975050602088013567ffffffffffffffff81111561276d57600080fd5b6127798a828b0161233b565b9650965050604088013567ffffffffffffffff81111561279857600080fd5b6127a48a828b0161233b565b945094505060606127b78a828b016123fc565b92505060806127c88a828b016123fc565b91505092959891949750929550565b600080600080608085870312156127ed57600080fd5b60006127f98787612456565b945050602061280a87828801612412565b935050604061281b87828801612440565b925050606061282c87828801612440565b91505092959194509250565b61284181612e18565b82525050565b61284181612dd1565b61284181612ddc565b61284181612de1565b600061286d82612dc4565b6128778185612dc8565b9350612887818560208601612e2e565b61289081612e5a565b9093019392505050565b60006128a7600f83612dc8565b6e0d8cadccee8d040dad2e6dac2e8c6d608b1b815260200192915050565b60006128d2601783612dc8565b7f6a6f6520616c726561647920696e697469616c697a6564000000000000000000815260200192915050565b600061290b601b83612dc8565b7f536166654d6174683a206164646974696f6e206f766572666c6f770000000000815260200192915050565b6000612944600a83612dc8565b6937b7363c9030b236b4b760b11b815260200192915050565b600061296a601b83612dc8565b7f726577617264206d61726b6574206973206e6f74206c69737465640000000000815260200192915050565b60006129a3601383612dc8565b72185b1c9958591e481a5b9a5d1a585b1a5e9959606a1b815260200192915050565b60006129d2600f83612dc8565b6e65786365656473203438206269747360881b815260200192915050565b60006129fd601583612dc8565b741b585c9ad95d081b5d5cdd081899481b1a5cdd1959605a1b815260200192915050565b6000612a2e602183612dc8565b7f536166654d6174683a206d756c7469706c69636174696f6e206f766572666c6f8152607760f81b602082015260400192915050565b6000612a71601583612dc8565b741c995dd85c99151e5c19481a5cc81a5b9d985b1a59605a1b815260200192915050565b6000612aa2601a83612dc8565b7f696e73756666696369656e74206a6f6520666f72206772616e74000000000000815260200192915050565b6000612adb601083612dc8565b6f6578636565647320323038206269747360801b815260200192915050565b6000612b07601883612dc8565b7f6f6e6c79206a6f6574726f6c6c6572206f722061646d696e0000000000000000815260200192915050565b6000612b40602183612dc8565b7f696e697469616c697a6552657761726441636372756564206973206c6f636b658152601960fa1b602082015260400192915050565b61284181612df8565b61284181612e23565b61284181612e04565b61284181612e07565b61284181612e12565b60208101610caa8284612847565b60208101610caa8284612838565b60408101612bcd8285612838565b611c4f6020830184612b88565b60408101612be88285612847565b611c4f6020830184612847565b60208101610caa8284612850565b60208101610caa8284612859565b60208082528101610ca78184612862565b60208082528101610caa8161289a565b60208082528101610caa816128c5565b60208082528101610caa816128fe565b60208082528101610caa81612937565b60208082528101610caa8161295d565b60208082528101610caa81612996565b60208082528101610caa816129c5565b60208082528101610caa816129f0565b60208082528101610caa81612a21565b60208082528101610caa81612a64565b60208082528101610caa81612a95565b60208082528101610caa81612ace565b60208082528101610caa81612afa565b60208082528101610caa81612b33565b60408101612d108285612b76565b611c4f6020830184612b91565b60208101610caa8284612b88565b60608101612d398286612b9a565b612d466020830185612838565b6122ae6040830184612b88565b60608101612d618286612b9a565b612d466020830185612b7f565b60408101612bcd8285612b9a565b60405181810167ffffffffffffffff81118282101715612d9b57600080fd5b604052919050565b600067ffffffffffffffff821115612dba57600080fd5b5060209081020190565b5190565b90815260200190565b6000610caa82612dec565b151590565b6000610caa82612dd1565b6001600160a01b031690565b6001600160d01b031690565b90565b65ffffffffffff1690565b60ff1690565b6000610caa82612de1565b6000610caa82612df8565b60005b83811015612e49578181015183820152602001612e31565b838111156107f85750506000910152565b601f01601f191690565b612e6d81612dd1565b8114612e7857600080fd5b50565b612e6d81612ddc565b612e6d81612de1565b612e6d81612e04565b612e6d81612e1256fea365627a7a72315820494bb5c142d3e9780cd0a69efb7b770615f6e70dbd45400578ff15f5f8143f9b6c6578706572696d656e74616cf564736f6c63430005100040",
  "devdoc": {
    "methods": {
      "claimReward(uint8,address)": {
        "params": {
          "holder": "The address to claim JOE/AVAX for",
          "rewardType": "0 = JOE, 1 = AVAX"
        }
      },
      "claimReward(uint8,address,address[])": {
        "params": {
          "holder": "The address to claim JOE/AVAX for",
          "jTokens": "The list of markets to claim JOE/AVAX in",
          "rewardType": "0 = JOE, 1 = AVAX"
        }
      },
      "claimReward(uint8,address[],address[],bool,bool)": {
        "params": {
          "borrowers": "Whether or not to claim JOE/AVAX earned by borrowing",
          "holders": "The addresses to claim JOE/AVAX for",
          "jTokens": "The list of markets to claim JOE/AVAX in",
          "rewardType": "0 = JOE, 1 = AVAX",
          "suppliers": "Whether or not to claim JOE/AVAX earned by supplying"
        }
      },
      "grantReward(uint8,address,uint256)": {
        "details": "Note: If there is not enough JOE, we do not perform the transfer at all.",
        "params": {
          "amount": "The amount of JOE to (possibly) transfer",
          "recipient": "The address of the recipient to transfer JOE to",
          "rewardType": "0 = JOE, 1 = AVAX"
        }
      },
      "initialize()": {
        "details": "first call is made by the deploy script, the second one by joeTroller when calling `_setRewardDistributor`"
      },
      "initializeRewardAccrued(uint8,address[],uint256[])": {
        "details": "We initialize rewardAccrued to transfer pending rewards from previous rewarder to this one. Must call lockInitializeRewardAccrued() after initialization.",
        "params": {
          "amounts": "The list of amounts of unclaimed rewards",
          "rewardType": "0 = JOE, 1 = AVAX",
          "users": "The list of addresses of users that did not claim their rewards"
        }
      },
      "pendingReward(uint8,address)": {
        "params": {
          "holder": "The address to check pending JOE/AVAX for",
          "rewardType": "0 = JOE, 1 = AVAX"
        },
        "return": "pendingReward The pending JOE/AVAX reward of that holder"
      },
      "setAdmin(address)": {
        "params": {
          "newAdmin": "The address of the new admin"
        }
      },
      "setJoe(address)": {
        "params": {
          "_joe": "The JOE token address"
        }
      },
      "setRewardSpeed(uint8,address,uint256,uint256)": {
        "params": {
          "jToken": "The market whose reward speed to update",
          "rewardBorrowSpeed": "New reward borrow speed for market",
          "rewardSupplySpeed": "New reward supply speed for market",
          "rewardType": "0 = JOE, 1 = AVAX"
        }
      },
      "updateAndDistributeBorrowerRewardsForToken(address,address,(uint256))": {
        "params": {
          "borrower": "Borrower to be rewarded",
          "jToken": "The market to verify the mint against",
          "marketBorrowIndex": "Current index of the borrow market"
        }
      },
      "updateAndDistributeSupplierRewardsForToken(address,address)": {
        "params": {
          "jToken": "The market to verify the mint against",
          "supplier": "The supplier to be rewarded"
        }
      }
    }
  },
  "userdoc": {
    "methods": {
      "claimReward(uint8,address)": {
        "notice": "Claim all the JOE/AVAX accrued by holder in all markets"
      },
      "claimReward(uint8,address,address[])": {
        "notice": "Claim all the JOE/AVAX accrued by holder in the specified markets"
      },
      "claimReward(uint8,address[],address[],bool,bool)": {
        "notice": "Claim all JOE/AVAX accrued by the holders"
      },
      "grantReward(uint8,address,uint256)": {
        "notice": "Transfer JOE/AVAX to the recipient"
      },
      "initialize()": {
        "notice": "Initialize function, in 2 times to avoid redeploying joetroller"
      },
      "initializeRewardAccrued(uint8,address[],uint256[])": {
        "notice": "Initialize rewardAccrued of users for the first time"
      },
      "lockInitializeRewardAccrued()": {
        "notice": "Lock the initializeRewardAccrued function"
      },
      "pendingReward(uint8,address)": {
        "notice": "Returns the pending JOE/AVAX reward accrued by the holder"
      },
      "setAdmin(address)": {
        "notice": "Set the admin"
      },
      "setJoe(address)": {
        "notice": "Set the JOE token address"
      },
      "setRewardSpeed(uint8,address,uint256,uint256)": {
        "notice": "Set JOE/AVAX speed for a single market"
      },
      "updateAndDistributeBorrowerRewardsForToken(address,address,(uint256))": {
        "notice": "Refactored function to calc and rewards accounts borrower rewards"
      },
      "updateAndDistributeSupplierRewardsForToken(address,address)": {
        "notice": "Refactored function to calc and rewards accounts supplier rewards"
      }
    }
  },
  "storageLayout": {
    "storage": [
      {
        "astId": 26930,
        "contract": "contracts/RewardDistributorV2.sol:RewardDistributorV2",
        "label": "admin",
        "offset": 0,
        "slot": "0",
        "type": "t_address"
      },
      {
        "astId": 26932,
        "contract": "contracts/RewardDistributorV2.sol:RewardDistributorV2",
        "label": "joetroller",
        "offset": 0,
        "slot": "1",
        "type": "t_contract(IJoetroller)26928"
      },
      {
        "astId": 26943,
        "contract": "contracts/RewardDistributorV2.sol:RewardDistributorV2",
        "label": "rewardSupplySpeeds",
        "offset": 0,
        "slot": "2",
        "type": "t_mapping(t_uint8,t_mapping(t_address,t_uint256))"
      },
      {
        "astId": 26949,
        "contract": "contracts/RewardDistributorV2.sol:RewardDistributorV2",
        "label": "rewardBorrowSpeeds",
        "offset": 0,
        "slot": "3",
        "type": "t_mapping(t_uint8,t_mapping(t_address,t_uint256))"
      },
      {
        "astId": 26955,
        "contract": "contracts/RewardDistributorV2.sol:RewardDistributorV2",
        "label": "rewardSupplyState",
        "offset": 0,
        "slot": "4",
        "type": "t_mapping(t_uint8,t_mapping(t_address,t_struct(RewardMarketState)26937_storage))"
      },
      {
        "astId": 26961,
        "contract": "contracts/RewardDistributorV2.sol:RewardDistributorV2",
        "label": "rewardBorrowState",
        "offset": 0,
        "slot": "5",
        "type": "t_mapping(t_uint8,t_mapping(t_address,t_struct(RewardMarketState)26937_storage))"
      },
      {
        "astId": 26969,
        "contract": "contracts/RewardDistributorV2.sol:RewardDistributorV2",
        "label": "rewardSupplierIndex",
        "offset": 0,
        "slot": "6",
        "type": "t_mapping(t_uint8,t_mapping(t_address,t_mapping(t_address,t_uint256)))"
      },
      {
        "astId": 26977,
        "contract": "contracts/RewardDistributorV2.sol:RewardDistributorV2",
        "label": "rewardBorrowerIndex",
        "offset": 0,
        "slot": "7",
        "type": "t_mapping(t_uint8,t_mapping(t_address,t_mapping(t_address,t_uint256)))"
      },
      {
        "astId": 26983,
        "contract": "contracts/RewardDistributorV2.sol:RewardDistributorV2",
        "label": "rewardAccrued",
        "offset": 0,
        "slot": "8",
        "type": "t_mapping(t_uint8,t_mapping(t_address,t_uint256))"
      },
      {
        "astId": 26985,
        "contract": "contracts/RewardDistributorV2.sol:RewardDistributorV2",
        "label": "joe",
        "offset": 0,
        "slot": "9",
        "type": "t_contract(EIP20Interface)268"
      },
      {
        "astId": 26987,
        "contract": "contracts/RewardDistributorV2.sol:RewardDistributorV2",
        "label": "isInitializeRewardAccruedLocked",
        "offset": 20,
        "slot": "9",
        "type": "t_bool"
      }
    ],
    "types": {
      "t_address": {
        "encoding": "inplace",
        "label": "address",
        "numberOfBytes": "20"
      },
      "t_bool": {
        "encoding": "inplace",
        "label": "bool",
        "numberOfBytes": "1"
      },
      "t_contract(EIP20Interface)268": {
        "encoding": "inplace",
        "label": "contract EIP20Interface",
        "numberOfBytes": "20"
      },
      "t_contract(IJoetroller)26928": {
        "encoding": "inplace",
        "label": "contract IJoetroller",
        "numberOfBytes": "20"
      },
      "t_mapping(t_address,t_mapping(t_address,t_uint256))": {
        "encoding": "mapping",
        "key": "t_address",
        "label": "mapping(address => mapping(address => uint256))",
        "numberOfBytes": "32",
        "value": "t_mapping(t_address,t_uint256)"
      },
      "t_mapping(t_address,t_struct(RewardMarketState)26937_storage)": {
        "encoding": "mapping",
        "key": "t_address",
        "label": "mapping(address => struct RewardDistributorStorageV2.RewardMarketState)",
        "numberOfBytes": "32",
        "value": "t_struct(RewardMarketState)26937_storage"
      },
      "t_mapping(t_address,t_uint256)": {
        "encoding": "mapping",
        "key": "t_address",
        "label": "mapping(address => uint256)",
        "numberOfBytes": "32",
        "value": "t_uint256"
      },
      "t_mapping(t_uint8,t_mapping(t_address,t_mapping(t_address,t_uint256)))": {
        "encoding": "mapping",
        "key": "t_uint8",
        "label": "mapping(uint8 => mapping(address => mapping(address => uint256)))",
        "numberOfBytes": "32",
        "value": "t_mapping(t_address,t_mapping(t_address,t_uint256))"
      },
      "t_mapping(t_uint8,t_mapping(t_address,t_struct(RewardMarketState)26937_storage))": {
        "encoding": "mapping",
        "key": "t_uint8",
        "label": "mapping(uint8 => mapping(address => struct RewardDistributorStorageV2.RewardMarketState))",
        "numberOfBytes": "32",
        "value": "t_mapping(t_address,t_struct(RewardMarketState)26937_storage)"
      },
      "t_mapping(t_uint8,t_mapping(t_address,t_uint256))": {
        "encoding": "mapping",
        "key": "t_uint8",
        "label": "mapping(uint8 => mapping(address => uint256))",
        "numberOfBytes": "32",
        "value": "t_mapping(t_address,t_uint256)"
      },
      "t_struct(RewardMarketState)26937_storage": {
        "encoding": "inplace",
        "label": "struct RewardDistributorStorageV2.RewardMarketState",
        "members": [
          {
            "astId": 26934,
            "contract": "contracts/RewardDistributorV2.sol:RewardDistributorV2",
            "label": "index",
            "offset": 0,
            "slot": "0",
            "type": "t_uint208"
          },
          {
            "astId": 26936,
            "contract": "contracts/RewardDistributorV2.sol:RewardDistributorV2",
            "label": "timestamp",
            "offset": 26,
            "slot": "0",
            "type": "t_uint48"
          }
        ],
        "numberOfBytes": "32"
      },
      "t_uint208": {
        "encoding": "inplace",
        "label": "uint208",
        "numberOfBytes": "26"
      },
      "t_uint256": {
        "encoding": "inplace",
        "label": "uint256",
        "numberOfBytes": "32"
      },
      "t_uint48": {
        "encoding": "inplace",
        "label": "uint48",
        "numberOfBytes": "6"
      },
      "t_uint8": {
        "encoding": "inplace",
        "label": "uint8",
        "numberOfBytes": "1"
      }
    }
  }
}