{
  "address": "0xc896C699d147e511B0e9AA11F99ef366bf3aa96f",
  "abi": [
    {
      "inputs": [
        {
          "internalType": "contract ComptrollerInterface",
          "name": "comptroller_",
          "type": "address"
        },
        {
          "internalType": "contract InterestRateModel",
          "name": "interestRateModel_",
          "type": "address"
        },
        {
          "internalType": "uint256",
          "name": "initialExchangeRateMantissa_",
          "type": "uint256"
        },
        {
          "internalType": "string",
          "name": "name_",
          "type": "string"
        },
        {
          "internalType": "string",
          "name": "symbol_",
          "type": "string"
        },
        {
          "internalType": "uint8",
          "name": "decimals_",
          "type": "uint8"
        },
        {
          "internalType": "address payable",
          "name": "admin_",
          "type": "address"
        }
      ],
      "payable": false,
      "stateMutability": "nonpayable",
      "type": "constructor"
    },
    {
      "anonymous": false,
      "inputs": [
        {
          "indexed": false,
          "internalType": "uint256",
          "name": "cashPrior",
          "type": "uint256"
        },
        {
          "indexed": false,
          "internalType": "uint256",
          "name": "interestAccumulated",
          "type": "uint256"
        },
        {
          "indexed": false,
          "internalType": "uint256",
          "name": "borrowIndex",
          "type": "uint256"
        },
        {
          "indexed": false,
          "internalType": "uint256",
          "name": "totalBorrows",
          "type": "uint256"
        }
      ],
      "name": "AccrueInterest",
      "type": "event"
    },
    {
      "anonymous": false,
      "inputs": [
        {
          "indexed": true,
          "internalType": "address",
          "name": "owner",
          "type": "address"
        },
        {
          "indexed": true,
          "internalType": "address",
          "name": "spender",
          "type": "address"
        },
        {
          "indexed": false,
          "internalType": "uint256",
          "name": "amount",
          "type": "uint256"
        }
      ],
      "name": "Approval",
      "type": "event"
    },
    {
      "anonymous": false,
      "inputs": [
        {
          "indexed": false,
          "internalType": "address",
          "name": "borrower",
          "type": "address"
        },
        {
          "indexed": false,
          "internalType": "uint256",
          "name": "borrowAmount",
          "type": "uint256"
        },
        {
          "indexed": false,
          "internalType": "uint256",
          "name": "accountBorrows",
          "type": "uint256"
        },
        {
          "indexed": false,
          "internalType": "uint256",
          "name": "totalBorrows",
          "type": "uint256"
        }
      ],
      "name": "Borrow",
      "type": "event"
    },
    {
      "anonymous": false,
      "inputs": [
        {
          "indexed": false,
          "internalType": "uint256",
          "name": "error",
          "type": "uint256"
        },
        {
          "indexed": false,
          "internalType": "uint256",
          "name": "info",
          "type": "uint256"
        },
        {
          "indexed": false,
          "internalType": "uint256",
          "name": "detail",
          "type": "uint256"
        }
      ],
      "name": "Failure",
      "type": "event"
    },
    {
      "anonymous": false,
      "inputs": [
        {
          "indexed": false,
          "internalType": "address",
          "name": "liquidator",
          "type": "address"
        },
        {
          "indexed": false,
          "internalType": "address",
          "name": "borrower",
          "type": "address"
        },
        {
          "indexed": false,
          "internalType": "uint256",
          "name": "repayAmount",
          "type": "uint256"
        },
        {
          "indexed": false,
          "internalType": "address",
          "name": "cTokenCollateral",
          "type": "address"
        },
        {
          "indexed": false,
          "internalType": "uint256",
          "name": "seizeTokens",
          "type": "uint256"
        }
      ],
      "name": "LiquidateBorrow",
      "type": "event"
    },
    {
      "anonymous": false,
      "inputs": [
        {
          "indexed": false,
          "internalType": "address",
          "name": "minter",
          "type": "address"
        },
        {
          "indexed": false,
          "internalType": "uint256",
          "name": "mintAmount",
          "type": "uint256"
        },
        {
          "indexed": false,
          "internalType": "uint256",
          "name": "mintTokens",
          "type": "uint256"
        }
      ],
      "name": "Mint",
      "type": "event"
    },
    {
      "anonymous": false,
      "inputs": [
        {
          "indexed": false,
          "internalType": "address",
          "name": "oldAdmin",
          "type": "address"
        },
        {
          "indexed": false,
          "internalType": "address",
          "name": "newAdmin",
          "type": "address"
        }
      ],
      "name": "NewAdmin",
      "type": "event"
    },
    {
      "anonymous": false,
      "inputs": [
        {
          "indexed": false,
          "internalType": "contract ComptrollerInterface",
          "name": "oldComptroller",
          "type": "address"
        },
        {
          "indexed": false,
          "internalType": "contract ComptrollerInterface",
          "name": "newComptroller",
          "type": "address"
        }
      ],
      "name": "NewComptroller",
      "type": "event"
    },
    {
      "anonymous": false,
      "inputs": [
        {
          "indexed": false,
          "internalType": "contract InterestRateModel",
          "name": "oldInterestRateModel",
          "type": "address"
        },
        {
          "indexed": false,
          "internalType": "contract InterestRateModel",
          "name": "newInterestRateModel",
          "type": "address"
        }
      ],
      "name": "NewMarketInterestRateModel",
      "type": "event"
    },
    {
      "anonymous": false,
      "inputs": [
        {
          "indexed": false,
          "internalType": "address",
          "name": "oldPendingAdmin",
          "type": "address"
        },
        {
          "indexed": false,
          "internalType": "address",
          "name": "newPendingAdmin",
          "type": "address"
        }
      ],
      "name": "NewPendingAdmin",
      "type": "event"
    },
    {
      "anonymous": false,
      "inputs": [
        {
          "indexed": false,
          "internalType": "uint256",
          "name": "oldReserveFactorMantissa",
          "type": "uint256"
        },
        {
          "indexed": false,
          "internalType": "uint256",
          "name": "newReserveFactorMantissa",
          "type": "uint256"
        }
      ],
      "name": "NewReserveFactor",
      "type": "event"
    },
    {
      "anonymous": false,
      "inputs": [
        {
          "indexed": false,
          "internalType": "address",
          "name": "redeemer",
          "type": "address"
        },
        {
          "indexed": false,
          "internalType": "uint256",
          "name": "redeemAmount",
          "type": "uint256"
        },
        {
          "indexed": false,
          "internalType": "uint256",
          "name": "redeemTokens",
          "type": "uint256"
        }
      ],
      "name": "Redeem",
      "type": "event"
    },
    {
      "anonymous": false,
      "inputs": [
        {
          "indexed": false,
          "internalType": "address",
          "name": "payer",
          "type": "address"
        },
        {
          "indexed": false,
          "internalType": "address",
          "name": "borrower",
          "type": "address"
        },
        {
          "indexed": false,
          "internalType": "uint256",
          "name": "repayAmount",
          "type": "uint256"
        },
        {
          "indexed": false,
          "internalType": "uint256",
          "name": "accountBorrows",
          "type": "uint256"
        },
        {
          "indexed": false,
          "internalType": "uint256",
          "name": "totalBorrows",
          "type": "uint256"
        }
      ],
      "name": "RepayBorrow",
      "type": "event"
    },
    {
      "anonymous": false,
      "inputs": [
        {
          "indexed": false,
          "internalType": "address",
          "name": "benefactor",
          "type": "address"
        },
        {
          "indexed": false,
          "internalType": "uint256",
          "name": "addAmount",
          "type": "uint256"
        },
        {
          "indexed": false,
          "internalType": "uint256",
          "name": "newTotalReserves",
          "type": "uint256"
        }
      ],
      "name": "ReservesAdded",
      "type": "event"
    },
    {
      "anonymous": false,
      "inputs": [
        {
          "indexed": false,
          "internalType": "address",
          "name": "admin",
          "type": "address"
        },
        {
          "indexed": false,
          "internalType": "uint256",
          "name": "reduceAmount",
          "type": "uint256"
        },
        {
          "indexed": false,
          "internalType": "uint256",
          "name": "newTotalReserves",
          "type": "uint256"
        }
      ],
      "name": "ReservesReduced",
      "type": "event"
    },
    {
      "anonymous": false,
      "inputs": [
        {
          "indexed": true,
          "internalType": "address",
          "name": "from",
          "type": "address"
        },
        {
          "indexed": true,
          "internalType": "address",
          "name": "to",
          "type": "address"
        },
        {
          "indexed": false,
          "internalType": "uint256",
          "name": "amount",
          "type": "uint256"
        }
      ],
      "name": "Transfer",
      "type": "event"
    },
    {
      "payable": true,
      "stateMutability": "payable",
      "type": "fallback"
    },
    {
      "constant": false,
      "inputs": [],
      "name": "_acceptAdmin",
      "outputs": [
        {
          "internalType": "uint256",
          "name": "",
          "type": "uint256"
        }
      ],
      "payable": false,
      "stateMutability": "nonpayable",
      "type": "function"
    },
    {
      "constant": false,
      "inputs": [
        {
          "internalType": "uint256",
          "name": "reduceAmount",
          "type": "uint256"
        }
      ],
      "name": "_reduceReserves",
      "outputs": [
        {
          "internalType": "uint256",
          "name": "",
          "type": "uint256"
        }
      ],
      "payable": false,
      "stateMutability": "nonpayable",
      "type": "function"
    },
    {
      "constant": false,
      "inputs": [
        {
          "internalType": "contract ComptrollerInterface",
          "name": "newComptroller",
          "type": "address"
        }
      ],
      "name": "_setComptroller",
      "outputs": [
        {
          "internalType": "uint256",
          "name": "",
          "type": "uint256"
        }
      ],
      "payable": false,
      "stateMutability": "nonpayable",
      "type": "function"
    },
    {
      "constant": false,
      "inputs": [
        {
          "internalType": "contract InterestRateModel",
          "name": "newInterestRateModel",
          "type": "address"
        }
      ],
      "name": "_setInterestRateModel",
      "outputs": [
        {
          "internalType": "uint256",
          "name": "",
          "type": "uint256"
        }
      ],
      "payable": false,
      "stateMutability": "nonpayable",
      "type": "function"
    },
    {
      "constant": false,
      "inputs": [
        {
          "internalType": "address payable",
          "name": "newPendingAdmin",
          "type": "address"
        }
      ],
      "name": "_setPendingAdmin",
      "outputs": [
        {
          "internalType": "uint256",
          "name": "",
          "type": "uint256"
        }
      ],
      "payable": false,
      "stateMutability": "nonpayable",
      "type": "function"
    },
    {
      "constant": false,
      "inputs": [
        {
          "internalType": "uint256",
          "name": "newReserveFactorMantissa",
          "type": "uint256"
        }
      ],
      "name": "_setReserveFactor",
      "outputs": [
        {
          "internalType": "uint256",
          "name": "",
          "type": "uint256"
        }
      ],
      "payable": false,
      "stateMutability": "nonpayable",
      "type": "function"
    },
    {
      "constant": true,
      "inputs": [],
      "name": "accrualBlockNumber",
      "outputs": [
        {
          "internalType": "uint256",
          "name": "",
          "type": "uint256"
        }
      ],
      "payable": false,
      "stateMutability": "view",
      "type": "function"
    },
    {
      "constant": false,
      "inputs": [],
      "name": "accrueInterest",
      "outputs": [
        {
          "internalType": "uint256",
          "name": "",
          "type": "uint256"
        }
      ],
      "payable": false,
      "stateMutability": "nonpayable",
      "type": "function"
    },
    {
      "constant": true,
      "inputs": [],
      "name": "admin",
      "outputs": [
        {
          "internalType": "address payable",
          "name": "",
          "type": "address"
        }
      ],
      "payable": false,
      "stateMutability": "view",
      "type": "function"
    },
    {
      "constant": true,
      "inputs": [
        {
          "internalType": "address",
          "name": "owner",
          "type": "address"
        },
        {
          "internalType": "address",
          "name": "spender",
          "type": "address"
        }
      ],
      "name": "allowance",
      "outputs": [
        {
          "internalType": "uint256",
          "name": "",
          "type": "uint256"
        }
      ],
      "payable": false,
      "stateMutability": "view",
      "type": "function"
    },
    {
      "constant": false,
      "inputs": [
        {
          "internalType": "address",
          "name": "spender",
          "type": "address"
        },
        {
          "internalType": "uint256",
          "name": "amount",
          "type": "uint256"
        }
      ],
      "name": "approve",
      "outputs": [
        {
          "internalType": "bool",
          "name": "",
          "type": "bool"
        }
      ],
      "payable": false,
      "stateMutability": "nonpayable",
      "type": "function"
    },
    {
      "constant": true,
      "inputs": [
        {
          "internalType": "address",
          "name": "owner",
          "type": "address"
        }
      ],
      "name": "balanceOf",
      "outputs": [
        {
          "internalType": "uint256",
          "name": "",
          "type": "uint256"
        }
      ],
      "payable": false,
      "stateMutability": "view",
      "type": "function"
    },
    {
      "constant": false,
      "inputs": [
        {
          "internalType": "address",
          "name": "owner",
          "type": "address"
        }
      ],
      "name": "balanceOfUnderlying",
      "outputs": [
        {
          "internalType": "uint256",
          "name": "",
          "type": "uint256"
        }
      ],
      "payable": false,
      "stateMutability": "nonpayable",
      "type": "function"
    },
    {
      "constant": false,
      "inputs": [
        {
          "internalType": "uint256",
          "name": "borrowAmount",
          "type": "uint256"
        }
      ],
      "name": "borrow",
      "outputs": [
        {
          "internalType": "uint256",
          "name": "",
          "type": "uint256"
        }
      ],
      "payable": false,
      "stateMutability": "nonpayable",
      "type": "function"
    },
    {
      "constant": false,
      "inputs": [
        {
          "internalType": "address",
          "name": "account",
          "type": "address"
        }
      ],
      "name": "borrowBalanceCurrent",
      "outputs": [
        {
          "internalType": "uint256",
          "name": "",
          "type": "uint256"
        }
      ],
      "payable": false,
      "stateMutability": "nonpayable",
      "type": "function"
    },
    {
      "constant": true,
      "inputs": [
        {
          "internalType": "address",
          "name": "account",
          "type": "address"
        }
      ],
      "name": "borrowBalanceStored",
      "outputs": [
        {
          "internalType": "uint256",
          "name": "",
          "type": "uint256"
        }
      ],
      "payable": false,
      "stateMutability": "view",
      "type": "function"
    },
    {
      "constant": true,
      "inputs": [],
      "name": "borrowIndex",
      "outputs": [
        {
          "internalType": "uint256",
          "name": "",
          "type": "uint256"
        }
      ],
      "payable": false,
      "stateMutability": "view",
      "type": "function"
    },
    {
      "constant": true,
      "inputs": [],
      "name": "borrowRatePerBlock",
      "outputs": [
        {
          "internalType": "uint256",
          "name": "",
          "type": "uint256"
        }
      ],
      "payable": false,
      "stateMutability": "view",
      "type": "function"
    },
    {
      "constant": true,
      "inputs": [],
      "name": "comptroller",
      "outputs": [
        {
          "internalType": "contract ComptrollerInterface",
          "name": "",
          "type": "address"
        }
      ],
      "payable": false,
      "stateMutability": "view",
      "type": "function"
    },
    {
      "constant": true,
      "inputs": [],
      "name": "decimals",
      "outputs": [
        {
          "internalType": "uint8",
          "name": "",
          "type": "uint8"
        }
      ],
      "payable": false,
      "stateMutability": "view",
      "type": "function"
    },
    {
      "constant": false,
      "inputs": [],
      "name": "exchangeRateCurrent",
      "outputs": [
        {
          "internalType": "uint256",
          "name": "",
          "type": "uint256"
        }
      ],
      "payable": false,
      "stateMutability": "nonpayable",
      "type": "function"
    },
    {
      "constant": true,
      "inputs": [],
      "name": "exchangeRateStored",
      "outputs": [
        {
          "internalType": "uint256",
          "name": "",
          "type": "uint256"
        }
      ],
      "payable": false,
      "stateMutability": "view",
      "type": "function"
    },
    {
      "constant": true,
      "inputs": [
        {
          "internalType": "address",
          "name": "account",
          "type": "address"
        }
      ],
      "name": "getAccountSnapshot",
      "outputs": [
        {
          "internalType": "uint256",
          "name": "",
          "type": "uint256"
        },
        {
          "internalType": "uint256",
          "name": "",
          "type": "uint256"
        },
        {
          "internalType": "uint256",
          "name": "",
          "type": "uint256"
        },
        {
          "internalType": "uint256",
          "name": "",
          "type": "uint256"
        }
      ],
      "payable": false,
      "stateMutability": "view",
      "type": "function"
    },
    {
      "constant": true,
      "inputs": [],
      "name": "getCash",
      "outputs": [
        {
          "internalType": "uint256",
          "name": "",
          "type": "uint256"
        }
      ],
      "payable": false,
      "stateMutability": "view",
      "type": "function"
    },
    {
      "constant": false,
      "inputs": [
        {
          "internalType": "contract ComptrollerInterface",
          "name": "comptroller_",
          "type": "address"
        },
        {
          "internalType": "contract InterestRateModel",
          "name": "interestRateModel_",
          "type": "address"
        },
        {
          "internalType": "uint256",
          "name": "initialExchangeRateMantissa_",
          "type": "uint256"
        },
        {
          "internalType": "string",
          "name": "name_",
          "type": "string"
        },
        {
          "internalType": "string",
          "name": "symbol_",
          "type": "string"
        },
        {
          "internalType": "uint8",
          "name": "decimals_",
          "type": "uint8"
        }
      ],
      "name": "initialize",
      "outputs": [],
      "payable": false,
      "stateMutability": "nonpayable",
      "type": "function"
    },
    {
      "constant": true,
      "inputs": [],
      "name": "interestRateModel",
      "outputs": [
        {
          "internalType": "contract InterestRateModel",
          "name": "",
          "type": "address"
        }
      ],
      "payable": false,
      "stateMutability": "view",
      "type": "function"
    },
    {
      "constant": true,
      "inputs": [],
      "name": "isCToken",
      "outputs": [
        {
          "internalType": "bool",
          "name": "",
          "type": "bool"
        }
      ],
      "payable": false,
      "stateMutability": "view",
      "type": "function"
    },
    {
      "constant": false,
      "inputs": [
        {
          "internalType": "address",
          "name": "borrower",
          "type": "address"
        },
        {
          "internalType": "contract CTokenDeprecated",
          "name": "cTokenCollateral",
          "type": "address"
        }
      ],
      "name": "liquidateBorrow",
      "outputs": [],
      "payable": true,
      "stateMutability": "payable",
      "type": "function"
    },
    {
      "constant": false,
      "inputs": [],
      "name": "mint",
      "outputs": [],
      "payable": true,
      "stateMutability": "payable",
      "type": "function"
    },
    {
      "constant": true,
      "inputs": [],
      "name": "name",
      "outputs": [
        {
          "internalType": "string",
          "name": "",
          "type": "string"
        }
      ],
      "payable": false,
      "stateMutability": "view",
      "type": "function"
    },
    {
      "constant": true,
      "inputs": [],
      "name": "pendingAdmin",
      "outputs": [
        {
          "internalType": "address payable",
          "name": "",
          "type": "address"
        }
      ],
      "payable": false,
      "stateMutability": "view",
      "type": "function"
    },
    {
      "constant": false,
      "inputs": [
        {
          "internalType": "uint256",
          "name": "redeemTokens",
          "type": "uint256"
        }
      ],
      "name": "redeem",
      "outputs": [
        {
          "internalType": "uint256",
          "name": "",
          "type": "uint256"
        }
      ],
      "payable": false,
      "stateMutability": "nonpayable",
      "type": "function"
    },
    {
      "constant": false,
      "inputs": [
        {
          "internalType": "uint256",
          "name": "redeemAmount",
          "type": "uint256"
        }
      ],
      "name": "redeemUnderlying",
      "outputs": [
        {
          "internalType": "uint256",
          "name": "",
          "type": "uint256"
        }
      ],
      "payable": false,
      "stateMutability": "nonpayable",
      "type": "function"
    },
    {
      "constant": false,
      "inputs": [],
      "name": "repayBorrow",
      "outputs": [],
      "payable": true,
      "stateMutability": "payable",
      "type": "function"
    },
    {
      "constant": true,
      "inputs": [],
      "name": "reserveFactorMantissa",
      "outputs": [
        {
          "internalType": "uint256",
          "name": "",
          "type": "uint256"
        }
      ],
      "payable": false,
      "stateMutability": "view",
      "type": "function"
    },
    {
      "constant": false,
      "inputs": [
        {
          "internalType": "address",
          "name": "liquidator",
          "type": "address"
        },
        {
          "internalType": "address",
          "name": "borrower",
          "type": "address"
        },
        {
          "internalType": "uint256",
          "name": "seizeTokens",
          "type": "uint256"
        }
      ],
      "name": "seize",
      "outputs": [
        {
          "internalType": "uint256",
          "name": "",
          "type": "uint256"
        }
      ],
      "payable": false,
      "stateMutability": "nonpayable",
      "type": "function"
    },
    {
      "constant": true,
      "inputs": [],
      "name": "supplyRatePerBlock",
      "outputs": [
        {
          "internalType": "uint256",
          "name": "",
          "type": "uint256"
        }
      ],
      "payable": false,
      "stateMutability": "view",
      "type": "function"
    },
    {
      "constant": true,
      "inputs": [],
      "name": "symbol",
      "outputs": [
        {
          "internalType": "string",
          "name": "",
          "type": "string"
        }
      ],
      "payable": false,
      "stateMutability": "view",
      "type": "function"
    },
    {
      "constant": true,
      "inputs": [],
      "name": "totalBorrows",
      "outputs": [
        {
          "internalType": "uint256",
          "name": "",
          "type": "uint256"
        }
      ],
      "payable": false,
      "stateMutability": "view",
      "type": "function"
    },
    {
      "constant": false,
      "inputs": [],
      "name": "totalBorrowsCurrent",
      "outputs": [
        {
          "internalType": "uint256",
          "name": "",
          "type": "uint256"
        }
      ],
      "payable": false,
      "stateMutability": "nonpayable",
      "type": "function"
    },
    {
      "constant": true,
      "inputs": [],
      "name": "totalReserves",
      "outputs": [
        {
          "internalType": "uint256",
          "name": "",
          "type": "uint256"
        }
      ],
      "payable": false,
      "stateMutability": "view",
      "type": "function"
    },
    {
      "constant": true,
      "inputs": [],
      "name": "totalSupply",
      "outputs": [
        {
          "internalType": "uint256",
          "name": "",
          "type": "uint256"
        }
      ],
      "payable": false,
      "stateMutability": "view",
      "type": "function"
    },
    {
      "constant": false,
      "inputs": [
        {
          "internalType": "address",
          "name": "dst",
          "type": "address"
        },
        {
          "internalType": "uint256",
          "name": "amount",
          "type": "uint256"
        }
      ],
      "name": "transfer",
      "outputs": [
        {
          "internalType": "bool",
          "name": "",
          "type": "bool"
        }
      ],
      "payable": false,
      "stateMutability": "nonpayable",
      "type": "function"
    },
    {
      "constant": false,
      "inputs": [
        {
          "internalType": "address",
          "name": "src",
          "type": "address"
        },
        {
          "internalType": "address",
          "name": "dst",
          "type": "address"
        },
        {
          "internalType": "uint256",
          "name": "amount",
          "type": "uint256"
        }
      ],
      "name": "transferFrom",
      "outputs": [
        {
          "internalType": "bool",
          "name": "",
          "type": "bool"
        }
      ],
      "payable": false,
      "stateMutability": "nonpayable",
      "type": "function"
    }
  ],
  "transactionHash": "0xc009d58e874978262c1706ded6647ce7d9ce18d4627f50c1bf90706c66ac77bd",
  "args": [
    "0x6a2b1195508400C958b6a67587F6f4498bF0c400",
    "0x98539E7fa4C8929a618ad1D55D2DDE51580E2199",
    "200000000000000000000000000",
    "Compound Ether Token",
    "cEther",
    "8",
    "0x5D3e4C0FE11e0aE4c32F0FF74B4544C49538AC61"
  ],
  "solcInputHash": "af94273bfeb935476334f847f3412514",
  "bytecode": "0x60806040523480156200001157600080fd5b5060405162004a6f38038062004a6f833981810160405260e08110156200003757600080fd5b8151602083015160408085015160608601805192519496939591949391820192846401000000008211156200006b57600080fd5b9083019060208201858111156200008157600080fd5b82516401000000008111828201881017156200009c57600080fd5b82525081516020918201929091019080838360005b83811015620000cb578181015183820152602001620000b1565b50505050905090810190601f168015620000f95780820380516001836020036101000a031916815260200191505b50604052602001805160405193929190846401000000008211156200011d57600080fd5b9083019060208201858111156200013357600080fd5b82516401000000008111828201881017156200014e57600080fd5b82525081516020918201929091019080838360005b838110156200017d57818101518382015260200162000163565b50505050905090810190601f168015620001ab5780820380516001836020036101000a031916815260200191505b506040908152602082015191015160038054610100600160a81b03191633610100021790559092509050620001e587878787878762000218565b600380546001600160a01b0390921661010002610100600160a81b03199092169190911790555062000853945050505050565b60035461010090046001600160a01b03163314620002685760405162461bcd60e51b8152600401808060200182810382526024815260200180620049d66024913960400191505060405180910390fd5b600954158015620002795750600a54155b620002b65760405162461bcd60e51b8152600401808060200182810382526023815260200180620049fa6023913960400191505060405180910390fd5b600784905583620002f95760405162461bcd60e51b815260040180806020018281038252603081526020018062004a1d6030913960400191505060405180910390fd5b60006200030f876001600160e01b036200042e16565b9050801562000365576040805162461bcd60e51b815260206004820152601a60248201527f73657474696e6720636f6d7074726f6c6c6572206661696c6564000000000000604482015290519081900360640190fd5b620003786001600160e01b036200059616565b600955670de0b6b3a7640000600a556200039b866001600160e01b036200059b16565b90508015620003dc5760405162461bcd60e51b815260040180806020018281038252602281526020018062004a4d6022913960400191505060405180910390fd5b8351620003f1906001906020870190620007b1565b50825162000407906002906020860190620007b1565b50506003805460ff90921660ff199283161790556000805490911660011790555050505050565b60035460009061010090046001600160a01b03163314620004685762000460600160286001600160e01b036200074116565b905062000591565b60055460408051623f1ee960e11b815290516001600160a01b0392831692851691627e3dd2916004808301926020929190829003018186803b158015620004ae57600080fd5b505afa158015620004c3573d6000803e3d6000fd5b505050506040513d6020811015620004da57600080fd5b50516200052e576040805162461bcd60e51b815260206004820152601c60248201527f6d61726b6572206d6574686f642072657475726e65642066616c736500000000604482015290519081900360640190fd5b600580546001600160a01b0319166001600160a01b03858116918217909255604080519284168352602083019190915280517f7ac369dbd14fa5ea3f473ed67cc9d598964a77501540ba6751eb0b3decf5870d9281900390910190a160005b9150505b919050565b435b90565b600354600090819061010090046001600160a01b03163314620005d857620005cf6001602b6001600160e01b036200074116565b91505062000591565b620005eb6001600160e01b036200059616565b600954146200060b57620005cf600a602a6001600160e01b036200074116565b600660009054906101000a90046001600160a01b03169050826001600160a01b0316632191f92a6040518163ffffffff1660e01b815260040160206040518083038186803b1580156200065d57600080fd5b505afa15801562000672573d6000803e3d6000fd5b505050506040513d60208110156200068957600080fd5b5051620006dd576040805162461bcd60e51b815260206004820152601c60248201527f6d61726b6572206d6574686f642072657475726e65642066616c736500000000604482015290519081900360640190fd5b600680546001600160a01b0319166001600160a01b03858116918217909255604080519284168352602083019190915280517fedffc32e068c7c95dfd4bdfd5c4d939a084d6b11c4199eac8436ed234d72f9269281900390910190a160006200058d565b60007f45b96fe442630264581b197e84bbada861235052c5a1aadfff9ea4e40a969aa08360108111156200077157fe5b8360378111156200077e57fe5b604080519283526020830191909152600082820152519081900360600190a1826010811115620007aa57fe5b9392505050565b828054600181600116156101000203166002900490600052602060002090601f016020900481019282601f10620007f457805160ff191683800117855562000824565b8280016001018555821562000824579182015b828111156200082457825182559160200191906001019062000807565b506200083292915062000836565b5090565b6200059891905b808211156200083257600081556001016200083d565b61417380620008636000396000f3fe6080604052600436106102675760003560e01c806395d89b4111610144578063c37f68e2116100b6578063f2b3abbd1161007a578063f2b3abbd146109f1578063f3fdb15a14610a24578063f851a44014610a39578063f8f9da2814610a4e578063fca7820b14610a63578063fe9c44ae14610a8d57610267565b8063c37f68e2146108f4578063c5ebeaec1461094d578063db006a7514610977578063dd62ed3e146109a1578063e9c714f2146109dc57610267565b8063aa5af0fd11610108578063aa5af0fd14610811578063aae40a2a14610826578063ae9d70b014610854578063b2a02ff114610869578063b71d1a0c146108ac578063bd6d894d146108df57610267565b806395d89b411461061c57806395dd91931461063157806399d8c1b414610664578063a6afed95146107c3578063a9059cbb146107d857610267565b80633b1d21a2116101dd578063601a0bf1116101a1578063601a0bf1146105565780636c540baf1461058057806370a082311461059557806373acee98146105c8578063852a12e3146105dd5780638f840ddd1461060757610267565b80633b1d21a2146104dc5780634576b5db146104f157806347bd3718146105245780634e4d9fea146105395780635fe3b5671461054157610267565b806318160ddd1161022f57806318160ddd146103e0578063182df0f5146103f557806323b872dd1461040a578063267822471461044d578063313ce5671461047e5780633af9e669146104a957610267565b806306fdde03146102a5578063095ea7b31461032f5780631249c58b1461037c578063173b99041461038657806317bfdfbc146103ad575b600061027234610aa2565b5090506102a2816040518060400160405280600b81526020016a1b5a5b9d0819985a5b195960aa1b815250610b4a565b50005b3480156102b157600080fd5b506102ba610d4a565b6040805160208082528351818301528351919283929083019185019080838360005b838110156102f45781810151838201526020016102dc565b50505050905090810190601f1680156103215780820380516001836020036101000a031916815260200191505b509250505060405180910390f35b34801561033b57600080fd5b506103686004803603604081101561035257600080fd5b506001600160a01b038135169060200135610dd7565b604080519115158252519081900360200190f35b610384610e44565b005b34801561039257600080fd5b5061039b610e82565b60408051918252519081900360200190f35b3480156103b957600080fd5b5061039b600480360360208110156103d057600080fd5b50356001600160a01b0316610e88565b3480156103ec57600080fd5b5061039b610f48565b34801561040157600080fd5b5061039b610f4e565b34801561041657600080fd5b506103686004803603606081101561042d57600080fd5b506001600160a01b03813581169160208101359091169060400135610f5e565b34801561045957600080fd5b50610462610fd0565b604080516001600160a01b039092168252519081900360200190f35b34801561048a57600080fd5b50610493610fdf565b6040805160ff9092168252519081900360200190f35b3480156104b557600080fd5b5061039b600480360360208110156104cc57600080fd5b50356001600160a01b0316610fe8565b3480156104e857600080fd5b5061039b611037565b3480156104fd57600080fd5b5061039b6004803603602081101561051457600080fd5b50356001600160a01b0316611041565b34801561053057600080fd5b5061039b611193565b610384611199565b34801561054d57600080fd5b506104626111db565b34801561056257600080fd5b5061039b6004803603602081101561057957600080fd5b50356111ea565b34801561058c57600080fd5b5061039b611285565b3480156105a157600080fd5b5061039b600480360360208110156105b857600080fd5b50356001600160a01b031661128b565b3480156105d457600080fd5b5061039b6112a6565b3480156105e957600080fd5b5061039b6004803603602081101561060057600080fd5b503561135c565b34801561061357600080fd5b5061039b611367565b34801561062857600080fd5b506102ba61136d565b34801561063d57600080fd5b5061039b6004803603602081101561065457600080fd5b50356001600160a01b03166113c5565b34801561067057600080fd5b50610384600480360360c081101561068757600080fd5b6001600160a01b038235811692602081013590911691604082013591908101906080810160608201356401000000008111156106c257600080fd5b8201836020820111156106d457600080fd5b803590602001918460018302840111640100000000831117156106f657600080fd5b91908080601f016020809104026020016040519081016040528093929190818152602001838380828437600092019190915250929594936020810193503591505064010000000081111561074957600080fd5b82018360208201111561075b57600080fd5b8035906020019184600183028401116401000000008311171561077d57600080fd5b91908080601f0160208091040260200160405190810160405280939291908181526020018383808284376000920191909152509295505050903560ff1691506113d09050565b3480156107cf57600080fd5b5061039b6115b7565b3480156107e457600080fd5b50610368600480360360408110156107fb57600080fd5b506001600160a01b0381351690602001356117c7565b34801561081d57600080fd5b5061039b611838565b6103846004803603604081101561083c57600080fd5b506001600160a01b038135811691602001351661183e565b34801561086057600080fd5b5061039b61188b565b34801561087557600080fd5b5061039b6004803603606081101561088c57600080fd5b506001600160a01b0381358116916020810135909116906040013561192a565b3480156108b857600080fd5b5061039b600480360360208110156108cf57600080fd5b50356001600160a01b031661199b565b3480156108eb57600080fd5b5061039b611a27565b34801561090057600080fd5b506109276004803603602081101561091757600080fd5b50356001600160a01b0316611ae3565b604080519485526020850193909352838301919091526060830152519081900360800190f35b34801561095957600080fd5b5061039b6004803603602081101561097057600080fd5b5035611b2a565b34801561098357600080fd5b5061039b6004803603602081101561099a57600080fd5b5035611b35565b3480156109ad57600080fd5b5061039b600480360360408110156109c457600080fd5b506001600160a01b0381358116916020013516611b40565b3480156109e857600080fd5b5061039b611b6b565b3480156109fd57600080fd5b5061039b60048036036020811015610a1457600080fd5b50356001600160a01b0316611c6e565b348015610a3057600080fd5b50610462611ca8565b348015610a4557600080fd5b50610462611cb7565b348015610a5a57600080fd5b5061039b611ccb565b348015610a6f57600080fd5b5061039b60048036036020811015610a8657600080fd5b5035611d2f565b348015610a9957600080fd5b50610368611dad565b60008054819060ff16610ae9576040805162461bcd60e51b815260206004820152600a6024820152691c994b595b9d195c995960b21b604482015290519081900360640190fd5b6000805460ff19168155610afb6115b7565b90508015610b2657610b19816010811115610b1257fe5b6014611db2565b925060009150610b369050565b610b303385611e1f565b92509250505b6000805460ff191660011790559092909150565b81610b5457610d46565b606081516005016040519080825280601f01601f191660200182016040528015610b85576020820181803883390190505b50905060005b8251811015610bd657828181518110610ba057fe5b602001015160f81c60f81b828281518110610bb757fe5b60200101906001600160f81b031916908160001a905350600101610b8b565b8151600160fd1b90839083908110610bea57fe5b60200101906001600160f81b031916908160001a905350602860f81b828260010181518110610c1557fe5b60200101906001600160f81b031916908160001a905350600a840460300160f81b828260020181518110610c4557fe5b60200101906001600160f81b031916908160001a905350600a840660300160f81b828260030181518110610c7557fe5b60200101906001600160f81b031916908160001a905350602960f81b828260040181518110610ca057fe5b60200101906001600160f81b031916908160001a905350818415610d425760405162461bcd60e51b81526004018080602001828103825283818151815260200191508051906020019080838360005b83811015610d07578181015183820152602001610cef565b50505050905090810190601f168015610d345780820380516001836020036101000a031916815260200191505b509250505060405180910390fd5b5050505b5050565b60018054604080516020600284861615610100026000190190941693909304601f81018490048402820184019092528181529291830182828015610dcf5780601f10610da457610100808354040283529160200191610dcf565b820191906000526020600020905b815481529060010190602001808311610db257829003601f168201915b505050505081565b336000818152600f602090815260408083206001600160a01b03871680855290835281842086905581518681529151939493909284927f8c5be1e5ebec7d5bd14f71427d1e84f3dd0314c0f7b2291e5b200ac8c7c3b925929081900390910190a360019150505b92915050565b6000610e4f34610aa2565b509050610e7f816040518060400160405280600b81526020016a1b5a5b9d0819985a5b195960aa1b815250610b4a565b50565b60085481565b6000805460ff16610ecd576040805162461bcd60e51b815260206004820152600a6024820152691c994b595b9d195c995960b21b604482015290519081900360640190fd5b6000805460ff19168155610edf6115b7565b14610f2a576040805162461bcd60e51b81526020600482015260166024820152751858d8dc9d59481a5b9d195c995cdd0819985a5b195960521b604482015290519081900360640190fd5b610f33826113c5565b90505b6000805460ff19166001179055919050565b600d5481565b6000610f586120b6565b90505b90565b6000805460ff16610fa3576040805162461bcd60e51b815260206004820152600a6024820152691c994b595b9d195c995960b21b604482015290519081900360640190fd5b6000805460ff19168155610fb93386868661211c565b1490506000805460ff191660011790559392505050565b6004546001600160a01b031681565b60035460ff1681565b6000610ff2613eca565b6040518060200160405280611005611a27565b90526001600160a01b0384166000908152600e602052604090205490915061102e9082906123b8565b9150505b919050565b6000610f586123d7565b60035460009061010090046001600160a01b0316331461106e5761106760016028611db2565b9050611032565b60055460408051623f1ee960e11b815290516001600160a01b0392831692851691627e3dd2916004808301926020929190829003018186803b1580156110b357600080fd5b505afa1580156110c7573d6000803e3d6000fd5b505050506040513d60208110156110dd57600080fd5b5051611130576040805162461bcd60e51b815260206004820152601c60248201527f6d61726b6572206d6574686f642072657475726e65642066616c736500000000604482015290519081900360640190fd5b600580546001600160a01b0319166001600160a01b03858116918217909255604080519284168352602083019190915280517f7ac369dbd14fa5ea3f473ed67cc9d598964a77501540ba6751eb0b3decf5870d9281900390910190a1600061102e565b600b5481565b60006111a434612409565b509050610e7f81604051806040016040528060128152602001711c995c185e509bdc9c9bddc819985a5b195960721b815250610b4a565b6005546001600160a01b031681565b6000805460ff1661122f576040805162461bcd60e51b815260206004820152600a6024820152691c994b595b9d195c995960b21b604482015290519081900360640190fd5b6000805460ff191681556112416115b7565b905080156112675761125f81601081111561125857fe5b601d611db2565b915050610f36565b6112708361248b565b9150506000805460ff19166001179055919050565b60095481565b6001600160a01b03166000908152600e602052604090205490565b6000805460ff166112eb576040805162461bcd60e51b815260206004820152600a6024820152691c994b595b9d195c995960b21b604482015290519081900360640190fd5b6000805460ff191681556112fd6115b7565b14611348576040805162461bcd60e51b81526020600482015260166024820152751858d8dc9d59481a5b9d195c995cdd0819985a5b195960521b604482015290519081900360640190fd5b50600b546000805460ff1916600117905590565b6000610e3e82612587565b600c5481565b6002805460408051602060018416156101000260001901909316849004601f81018490048402820184019092528181529291830182828015610dcf5780601f10610da457610100808354040283529160200191610dcf565b6000610e3e82612608565b60035461010090046001600160a01b0316331461141e5760405162461bcd60e51b815260040180806020018281038252602481526020018061401f6024913960400191505060405180910390fd5b60095415801561142e5750600a54155b6114695760405162461bcd60e51b81526004018080602001828103825260238152602001806140436023913960400191505060405180910390fd5b6007849055836114aa5760405162461bcd60e51b81526004018080602001828103825260308152602001806140666030913960400191505060405180910390fd5b60006114b587611041565b9050801561150a576040805162461bcd60e51b815260206004820152601a60248201527f73657474696e6720636f6d7074726f6c6c6572206661696c6564000000000000604482015290519081900360640190fd5b61151261265d565b600955670de0b6b3a7640000600a5561152a86612661565b905080156115695760405162461bcd60e51b81526004018080602001828103825260228152602001806140966022913960400191505060405180910390fd5b835161157c906001906020870190613edd565b508251611590906002906020860190613edd565b50506003805460ff90921660ff199283161790556000805490911660011790555050505050565b6000806115c261265d565b600954909150808214156115db57600092505050610f5b565b60006115e56123d7565b600b54600c54600a54600654604080516315f2405360e01b815260048101879052602481018690526044810185905290519596509394929391926000926001600160a01b03909216916315f24053916064808301926020929190829003018186803b15801561165357600080fd5b505afa158015611667573d6000803e3d6000fd5b505050506040513d602081101561167d57600080fd5b5051905065048c273950008111156116dc576040805162461bcd60e51b815260206004820152601c60248201527f626f72726f772072617465206973206162737572646c79206869676800000000604482015290519081900360640190fd5b60006116e888886127d6565b90506116f2613eca565b61170a60405180602001604052808581525083612810565b9050600061171882886123b8565b90506000611726828961283a565b905060006117456040518060200160405280600854815250848a612870565b9050600061175485898a612870565b60098e9055600a819055600b849055600c839055604080518d8152602081018790528082018390526060810186905290519192507f4dec04e750ca11537cabcd8a9eab06494de08da3735bc8871cd41250e190bc04919081900360800190a160009d505050505050505050505050505090565b6000805460ff1661180c576040805162461bcd60e51b815260206004820152600a6024820152691c994b595b9d195c995960b21b604482015290519081900360640190fd5b6000805460ff191681556118223333868661211c565b1490506000805460ff1916600117905592915050565b600a5481565b600061184b833484612898565b50905061188681604051806040016040528060168152602001751b1a5c5d5a59185d19509bdc9c9bddc819985a5b195960521b815250610b4a565b505050565b6006546000906001600160a01b031663b81688166118a76123d7565b600b54600c546008546040518563ffffffff1660e01b81526004018085815260200184815260200183815260200182815260200194505050505060206040518083038186803b1580156118f957600080fd5b505afa15801561190d573d6000803e3d6000fd5b505050506040513d602081101561192357600080fd5b5051905090565b6000805460ff1661196f576040805162461bcd60e51b815260206004820152600a6024820152691c994b595b9d195c995960b21b604482015290519081900360640190fd5b6000805460ff19169055611985338585856129ca565b90506000805460ff191660011790559392505050565b60035460009061010090046001600160a01b031633146119c1576110676001602e611db2565b600480546001600160a01b038481166001600160a01b0319831681179093556040805191909216808252602082019390935281517fca4f2f25d0898edd99413412fb94012f9e54ec8142f9b093e7720646a95b16a9929181900390910190a1600061102e565b6000805460ff16611a6c576040805162461bcd60e51b815260206004820152600a6024820152691c994b595b9d195c995960b21b604482015290519081900360640190fd5b6000805460ff19168155611a7e6115b7565b14611ac9576040805162461bcd60e51b81526020600482015260166024820152751858d8dc9d59481a5b9d195c995cdd0819985a5b195960521b604482015290519081900360640190fd5b611ad1610f4e565b90506000805460ff1916600117905590565b6001600160a01b0381166000908152600e602052604081205481908190819081611b0c87612608565b90506000611b186120b6565b90506000989297509095509350915050565b6000610e3e82612bd3565b6000610e3e82612c52565b6001600160a01b039182166000908152600f6020908152604080832093909416825291909152205490565b6004546000906001600160a01b031633141580611b86575033155b15611b9e57611b9760016000611db2565b9050610f5b565b60038054600480546001600160a01b03818116610100818102610100600160a81b0319871617968790556001600160a01b031990931690935560408051948390048216808652929095041660208401528351909391927ff9ffabca9c8276e99321725bcb43fb076a6c66a54b7f21c4e8146d8519b417dc92908290030190a1600454604080516001600160a01b038085168252909216602083015280517fca4f2f25d0898edd99413412fb94012f9e54ec8142f9b093e7720646a95b16a99281900390910190a160009250505090565b600080611c796115b7565b90508015611c9f57611c97816010811115611c9057fe5b6029611db2565b915050611032565b61102e83612661565b6006546001600160a01b031681565b60035461010090046001600160a01b031681565b6006546000906001600160a01b03166315f24053611ce76123d7565b600b54600c546040518463ffffffff1660e01b815260040180848152602001838152602001828152602001935050505060206040518083038186803b1580156118f957600080fd5b6000805460ff16611d74576040805162461bcd60e51b815260206004820152600a6024820152691c994b595b9d195c995960b21b604482015290519081900360640190fd5b6000805460ff19168155611d866115b7565b90508015611da45761125f816010811115611d9d57fe5b602f611db2565b61127083612ccc565b600181565b60007f45b96fe442630264581b197e84bbada861235052c5a1aadfff9ea4e40a969aa0836010811115611de157fe5b836037811115611ded57fe5b604080519283526020830191909152600082820152519081900360600190a1826010811115611e1857fe5b9392505050565b60055460408051634ef4c3e160e01b81523060048201526001600160a01b03858116602483015260448201859052915160009384938493911691634ef4c3e19160648082019260209290919082900301818787803b158015611e8057600080fd5b505af1158015611e94573d6000803e3d6000fd5b505050506040513d6020811015611eaa57600080fd5b505190508015611ece57611ec16003601583612d74565b9250600091506120af9050565b611ed661265d565b60095414611eea57611ec1600a6016611db2565b611ef2613f57565b611efa6120b6565b6040820152611f098686612dda565b60c0820181905260408051602081018252908301518152611f2a9190612e76565b60608201819052600d54611f3d9161283a565b60808201526001600160a01b0386166000908152600e60205260409020546060820151611f6a919061283a565b60a082018190526080820151600d556001600160a01b0387166000818152600e60209081526040918290209390935560c084015160608086015183519485529484019190915282820193909352517f4c209b5fc8ad50758f13e2e1088ba56a560dff690a1c6fef26394f4c03821c4f929181900390910190a1606081015160408051918252516001600160a01b0388169130916000805160206140b88339815191529181900360200190a360055460c08201516060830151604080516341c728b960e01b81523060048201526001600160a01b038b81166024830152604482019490945260648101929092525191909216916341c728b991608480830192600092919082900301818387803b15801561208257600080fd5b505af1158015612096573d6000803e3d6000fd5b50600092506120a3915050565b8160c001519350935050505b9250929050565b600d54600090806120cb575050600754610f5b565b60006120d56123d7565b905060006120f06120e883600b5461283a565b600c546127d6565b9050600061210c82604051806020016040528087815250612e8a565b9450610f5b9350505050565b5090565b600554604080516317b9b84b60e31b81523060048201526001600160a01b03868116602483015285811660448301526064820185905291516000938493169163bdcdc25891608480830192602092919082900301818787803b15801561218157600080fd5b505af1158015612195573d6000803e3d6000fd5b505050506040513d60208110156121ab57600080fd5b5051905080156121ca576121c26003603383612d74565b9150506123b0565b836001600160a01b0316856001600160a01b031614156121f0576121c260026034611db2565b60006001600160a01b03878116908716141561220f5750600019612237565b506001600160a01b038086166000908152600f60209081526040808320938a16835292905220545b600061224382866127d6565b6001600160a01b0388166000908152600e60205260408120549192509061226a90876127d6565b6001600160a01b0388166000908152600e602052604081205491925090612291908861283a565b6001600160a01b03808b166000908152600e6020526040808220869055918b16815220819055905060001984146122eb576001600160a01b03808a166000908152600f60209081526040808320938e168352929052208390555b876001600160a01b0316896001600160a01b03166000805160206140b8833981519152896040518082815260200191505060405180910390a36005546040805163352b4a3f60e11b81523060048201526001600160a01b038c811660248301528b81166044830152606482018b905291519190921691636a56947e91608480830192600092919082900301818387803b15801561238757600080fd5b505af115801561239b573d6000803e3d6000fd5b50600092506123a8915050565b955050505050505b949350505050565b60006123c2613eca565b6123cc8484612810565b90506123b081612ea8565b60008060006123e64734612eb7565b909250905060008260038111156123f957fe5b1461240357600080fd5b91505090565b60008054819060ff16612450576040805162461bcd60e51b815260206004820152600a6024820152691c994b595b9d195c995960b21b604482015290519081900360640190fd5b6000805460ff191681556124626115b7565b9050801561248057610b1981601081111561247957fe5b6022611db2565b610b30333386612eda565b600354600090819061010090046001600160a01b031633146124b357611c976001601e611db2565b6124bb61265d565b600954146124cf57611c97600a6020611db2565b826124d86123d7565b10156124ea57611c97600e601f611db2565b600c5483111561250057611c9760026021611db2565b61250c600c54846127d6565b600c81905560035490915061252f9061010090046001600160a01b031684613182565b600354604080516101009092046001600160a01b0316825260208201859052818101839052517f3bad0c59cf2f06e7314077049f48a93578cd16f5ef92329f1dab1420a99c177e916060908290030190a1600061102e565b6000805460ff166125cc576040805162461bcd60e51b815260206004820152600a6024820152691c994b595b9d195c995960b21b604482015290519081900360640190fd5b6000805460ff191681556125de6115b7565b905080156125fc5761125f8160108111156125f557fe5b6019611db2565b611270336000856131b8565b6001600160a01b03811660009081526010602052604081208054612630576000915050611032565b60006126428260000154600a546134e7565b90506000612654828460010154613529565b95945050505050565b4390565b600354600090819061010090046001600160a01b0316331461268957611c976001602b611db2565b61269161265d565b600954146126a557611c97600a602a611db2565b600660009054906101000a90046001600160a01b03169050826001600160a01b0316632191f92a6040518163ffffffff1660e01b815260040160206040518083038186803b1580156126f657600080fd5b505afa15801561270a573d6000803e3d6000fd5b505050506040513d602081101561272057600080fd5b5051612773576040805162461bcd60e51b815260206004820152601c60248201527f6d61726b6572206d6574686f642072657475726e65642066616c736500000000604482015290519081900360640190fd5b600680546001600160a01b0319166001600160a01b03858116918217909255604080519284168352602083019190915280517fedffc32e068c7c95dfd4bdfd5c4d939a084d6b11c4199eac8436ed234d72f9269281900390910190a1600061102e565b6000611e188383604051806040016040528060158152602001747375627472616374696f6e20756e646572666c6f7760581b81525061355c565b612818613eca565b60405180602001604052806128318560000151856134e7565b90529392505050565b6000611e188383604051806040016040528060118152602001706164646974696f6e206f766572666c6f7760781b8152506135b6565b600061287a613eca565b6128848585612810565b905061265461289282612ea8565b8461283a565b60008054819060ff166128df576040805162461bcd60e51b815260206004820152600a6024820152691c994b595b9d195c995960b21b604482015290519081900360640190fd5b6000805460ff191681556128f16115b7565b9050801561291c5761290f81601081111561290857fe5b6007611db2565b9250600091506129b39050565b836001600160a01b031663a6afed956040518163ffffffff1660e01b8152600401602060405180830381600087803b15801561295757600080fd5b505af115801561296b573d6000803e3d6000fd5b505050506040513d602081101561298157600080fd5b5051905080156129a15761290f81601081111561299a57fe5b6008611db2565b6129ad33878787613614565b92509250505b6000805460ff191660011790559094909350915050565b6005546040805163d02f735160e01b81523060048201526001600160a01b038781166024830152868116604483015285811660648301526084820185905291516000938493169163d02f73519160a480830192602092919082900301818787803b158015612a3757600080fd5b505af1158015612a4b573d6000803e3d6000fd5b505050506040513d6020811015612a6157600080fd5b505190508015612a78576121c26003601183612d74565b846001600160a01b0316846001600160a01b03161415612a9e576121c260066012611db2565b6001600160a01b0384166000908152600e6020526040812054612ac190856127d6565b6001600160a01b0387166000908152600e602052604081205491925090612ae8908661283a565b6001600160a01b038088166000818152600e60209081526040808320889055938c168083529184902085905583518a81529351949550909391926000805160206140b8833981519152929081900390910190a360055460408051636d35bf9160e01b81523060048201526001600160a01b038b811660248301528a8116604483015289811660648301526084820189905291519190921691636d35bf919160a480830192600092919082900301818387803b158015612ba657600080fd5b505af1158015612bba573d6000803e3d6000fd5b5060009250612bc7915050565b98975050505050505050565b6000805460ff16612c18576040805162461bcd60e51b815260206004820152600a6024820152691c994b595b9d195c995960b21b604482015290519081900360640190fd5b6000805460ff19168155612c2a6115b7565b90508015612c485761125f816010811115612c4157fe5b6002611db2565b6112703384613b97565b6000805460ff16612c97576040805162461bcd60e51b815260206004820152600a6024820152691c994b595b9d195c995960b21b604482015290519081900360640190fd5b6000805460ff19168155612ca96115b7565b90508015612cc05761125f8160108111156125f557fe5b611270338460006131b8565b60035460009061010090046001600160a01b03163314612cf25761106760016030611db2565b612cfa61265d565b60095414612d0e57611067600a6031611db2565b670de0b6b3a7640000821115612d2a5761106760026032611db2565b6008805490839055604080518281526020810185905281517faaa68312e2ea9d50e16af5068410ab56e1a1fd06037b1a35664812c30f821460929181900390910190a1600061102e565b60007f45b96fe442630264581b197e84bbada861235052c5a1aadfff9ea4e40a969aa0846010811115612da357fe5b846037811115612daf57fe5b604080519283526020830191909152818101859052519081900360600190a18360108111156123b057fe5b6000336001600160a01b03841614612e2b576040805162461bcd60e51b815260206004820152600f60248201526e0e6cadcc8cae440dad2e6dac2e8c6d608b1b604482015290519081900360640190fd5b813414612e70576040805162461bcd60e51b815260206004820152600e60248201526d0ecc2d8eaca40dad2e6dac2e8c6d60931b604482015290519081900360640190fd5b50919050565b6000612e80613eca565b6123cc8484613db5565b6000611e18612ea184670de0b6b3a76400006134e7565b8351613529565b51670de0b6b3a7640000900490565b600080838311612ece5750600090508183036120af565b506003905060006120af565b60055460408051631200453160e11b81523060048201526001600160a01b0386811660248301528581166044830152606482018590529151600093849384939116916324008a629160848082019260209290919082900301818787803b158015612f4357600080fd5b505af1158015612f57573d6000803e3d6000fd5b505050506040513d6020811015612f6d57600080fd5b505190508015612f9157612f846003602383612d74565b92506000915061317a9050565b612f9961265d565b60095414612fad57612f84600a6024611db2565b612fb5613f95565b6001600160a01b0386166000908152601060205260409020600101546060820152612fdf86612608565b6080820152600019851415612ffd5760808101516040820152613005565b604081018590525b613013878260400151612dda565b60e082018190526080820151613028916127d6565b60a0820152600b5460e082015161303f91906127d6565b60c0820190815260a080830180516001600160a01b03808b16600081815260106020908152604091829020948555600a546001909501949094559551600b81905560e088015194518751938f16845293830191909152818601939093526060810191909152608081019190915291517f1a2a22cb034d26d1854bdc6666a5b91fe25efbbb5dcad3b0355478d6f5c362a19281900390910190a160055460e0820151606083015160408051631ededc9160e01b81523060048201526001600160a01b038c811660248301528b8116604483015260648201949094526084810192909252519190921691631ededc919160a480830192600092919082900301818387803b15801561314d57600080fd5b505af1158015613161573d6000803e3d6000fd5b506000925061316e915050565b8160e001519350935050505b935093915050565b6040516001600160a01b0383169082156108fc029083906000818181858888f19350505050158015611886573d6000803e3d6000fd5b60008215806131c5575081155b6132005760405162461bcd60e51b815260040180806020018281038252603481526020018061410b6034913960400191505060405180910390fd5b613208613f57565b6132106120b6565b6040820152831561324657606081018490526040805160208101825290820151815261323c90856123b8565b608082015261326f565b6132628360405180602001604052808460400151815250612e76565b6060820152608081018390525b60055460608201516040805163eabe7d9160e01b81523060048201526001600160a01b03898116602483015260448201939093529051600093929092169163eabe7d919160648082019260209290919082900301818787803b1580156132d457600080fd5b505af11580156132e8573d6000803e3d6000fd5b505050506040513d60208110156132fe57600080fd5b50519050801561331e576133156003601a83612d74565b92505050611e18565b61332661265d565b6009541461333a57613315600a601b611db2565b61334a600d5483606001516127d6565b60a08301526001600160a01b0386166000908152600e6020526040902054606083015161337791906127d6565b60c083015260808201516133896123d7565b101561339b57613315600e601c611db2565b6133a9868360800151613182565b60a0820151600d5560c08201516001600160a01b0387166000818152600e60209081526040918290209390935560608501518151908152905130936000805160206140b8833981519152928290030190a36080820151606080840151604080516001600160a01b038b168152602081019490945283810191909152517fe5b754fb1abb7f01b499791d0b820ae3b6af3424ac1c59768edb53f4ec31a9299281900390910190a160055460808301516060840151604080516351dff98960e01b81523060048201526001600160a01b038b81166024830152604482019490945260648101929092525191909216916351dff98991608480830192600092919082900301818387803b1580156134bc57600080fd5b505af11580156134d0573d6000803e3d6000fd5b50600092506134dd915050565b9695505050505050565b6000611e1883836040518060400160405280601781526020017f6d756c7469706c69636174696f6e206f766572666c6f77000000000000000000815250613df2565b6000611e1883836040518060400160405280600e81526020016d646976696465206279207a65726f60901b815250613e68565b600081848411156135ae5760405162461bcd60e51b8152602060048201818152835160248401528351909283926044909101919085019080838360008315610d07578181015183820152602001610cef565b505050900390565b6000838301828582101561360b5760405162461bcd60e51b8152602060048201818152835160248401528351909283926044909101919085019080838360008315610d07578181015183820152602001610cef565b50949350505050565b60055460408051632fe3f38f60e11b81523060048201526001600160a01b0384811660248301528781166044830152868116606483015260848201869052915160009384938493911691635fc7e71e9160a48082019260209290919082900301818787803b15801561368557600080fd5b505af1158015613699573d6000803e3d6000fd5b505050506040513d60208110156136af57600080fd5b5051905080156136d3576136c66003600a83612d74565b925060009150613b8e9050565b6136db61265d565b600954146136ef576136c6600a600e611db2565b6136f761265d565b846001600160a01b0316636c540baf6040518163ffffffff1660e01b815260040160206040518083038186803b15801561373057600080fd5b505afa158015613744573d6000803e3d6000fd5b505050506040513d602081101561375a57600080fd5b50511461376d576136c6600a6009611db2565b866001600160a01b0316866001600160a01b03161415613793576136c66006600f611db2565b846137a4576136c66007600d611db2565b6000198514156137ba576136c66007600c611db2565b6000806137c8898989612eda565b909250905081156137f8576137e98260108111156137e257fe5b6010611db2565b945060009350613b8e92505050565b6005546040805163c488847b60e01b81523060048201526001600160a01b038981166024830152604482018590528251600094859492169263c488847b926064808301939192829003018186803b15801561385257600080fd5b505afa158015613866573d6000803e3d6000fd5b505050506040513d604081101561387c57600080fd5b508051602090910151909250905081156138c75760405162461bcd60e51b81526004018080602001828103825260338152602001806140d86033913960400191505060405180910390fd5b80886001600160a01b03166370a082318c6040518263ffffffff1660e01b815260040180826001600160a01b03166001600160a01b0316815260200191505060206040518083038186803b15801561391e57600080fd5b505afa158015613932573d6000803e3d6000fd5b505050506040513d602081101561394857600080fd5b5051101561399d576040805162461bcd60e51b815260206004820152601860248201527f4c49515549444154455f5345495a455f544f4f5f4d5543480000000000000000604482015290519081900360640190fd5b60006001600160a01b0389163014156139c3576139bc308d8d856129ca565b9050613a4d565b6040805163b2a02ff160e01b81526001600160a01b038e811660048301528d81166024830152604482018590529151918b169163b2a02ff1916064808201926020929091908290030181600087803b158015613a1e57600080fd5b505af1158015613a32573d6000803e3d6000fd5b505050506040513d6020811015613a4857600080fd5b505190505b8015613a97576040805162461bcd60e51b81526020600482015260146024820152731d1bdad95b881cd95a5e9d5c994819985a5b195960621b604482015290519081900360640190fd5b604080516001600160a01b03808f168252808e1660208301528183018790528b1660608201526080810184905290517f298637f684da70674f26509b10f07ec2fbc77a335ab1e7d6215a4b2484d8bb529181900360a00190a1600554604080516347ef3b3b60e01b81523060048201526001600160a01b038c811660248301528f811660448301528e811660648301526084820188905260a48201869052915191909216916347ef3b3b9160c480830192600092919082900301818387803b158015613b6257600080fd5b505af1158015613b76573d6000803e3d6000fd5b5060009250613b83915050565b975092955050505050505b94509492505050565b6005546040805163368f515360e21b81523060048201526001600160a01b0385811660248301526044820185905291516000938493169163da3d454c91606480830192602092919082900301818787803b158015613bf457600080fd5b505af1158015613c08573d6000803e3d6000fd5b505050506040513d6020811015613c1e57600080fd5b505190508015613c3d57613c356003600683612d74565b915050610e3e565b613c4561265d565b60095414613c5957613c35600a6004611db2565b82613c626123d7565b1015613c7457613c35600e6003611db2565b613c7c613fdb565b613c8585612608565b60208201819052613c96908561283a565b6040820152600b54613ca8908561283a565b6060820152613cb78585613182565b604080820180516001600160a01b03881660008181526010602090815290859020928355600a54600190930192909255606080860151600b81905593518551928352928201899052818501929092529081019190915290517f13ed6866d4e1ee6da46f845c46d7e54120883d75c5ea9a2dacc1c4ca8984ab809181900360800190a160055460408051635c77860560e01b81523060048201526001600160a01b0388811660248301526044820188905291519190921691635c77860591606480830192600092919082900301818387803b158015613d9457600080fd5b505af1158015613da8573d6000803e3d6000fd5b5060009250612654915050565b613dbd613eca565b6000613dd1670de0b6b3a7640000856134e7565b90506040518060200160405280613de88386612e8a565b9052949350505050565b6000831580613dff575082155b15613e0c57506000611e18565b83830283858281613e1957fe5b0414839061360b5760405162461bcd60e51b8152602060048201818152835160248401528351909283926044909101919085019080838360008315610d07578181015183820152602001610cef565b60008183613eb75760405162461bcd60e51b8152602060048201818152835160248401528351909283926044909101919085019080838360008315610d07578181015183820152602001610cef565b50828481613ec157fe5b04949350505050565b6040518060200160405280600081525090565b828054600181600116156101000203166002900490600052602060002090601f016020900481019282601f10613f1e57805160ff1916838001178555613f4b565b82800160010185558215613f4b579182015b82811115613f4b578251825591602001919060010190613f30565b50612118929150614004565b6040805160e0810190915280600081526020016000815260200160008152602001600081526020016000815260200160008152602001600081525090565b6040805161010081019091528060008152602001600081526020016000815260200160008152602001600081526020016000815260200160008152602001600081525090565b604080516080810190915280600081526020016000815260200160008152602001600081525090565b610f5b91905b80821115612118576000815560010161400a56fe6f6e6c792061646d696e206d617920696e697469616c697a6520746865206d61726b65746d61726b6574206d6179206f6e6c7920626520696e697469616c697a6564206f6e6365696e697469616c2065786368616e67652072617465206d7573742062652067726561746572207468616e207a65726f2e73657474696e6720696e7465726573742072617465206d6f64656c206661696c6564ddf252ad1be2c89b69c2b068fc378daa952ba7f163c4a11628f55a4df523b3ef4c49515549444154455f434f4d5054524f4c4c45525f43414c43554c4154455f414d4f554e545f5345495a455f4641494c45446f6e65206f662072656465656d546f6b656e73496e206f722072656465656d416d6f756e74496e206d757374206265207a65726fa265627a7a72315820f6ea870115936cf827e59721ee714513701b3e9e6fefb74cd7510eecc8d0cbbe64736f6c634300051000326f6e6c792061646d696e206d617920696e697469616c697a6520746865206d61726b65746d61726b6574206d6179206f6e6c7920626520696e697469616c697a6564206f6e6365696e697469616c2065786368616e67652072617465206d7573742062652067726561746572207468616e207a65726f2e73657474696e6720696e7465726573742072617465206d6f64656c206661696c6564",
  "devdoc": {
    "author": "Compound",
    "methods": {
      "_acceptAdmin()": {
        "details": "Admin function for pending admin to accept role and update admin",
        "return": "uint 0=success, otherwise a failure (see ErrorReporter.sol for details)"
      },
      "_reduceReserves(uint256)": {
        "params": {
          "reduceAmount": "Amount of reduction to reserves"
        },
        "return": "uint 0=success, otherwise a failure (see ErrorReporter.sol for details)"
      },
      "_setComptroller(address)": {
        "details": "Admin function to set a new comptroller",
        "return": "uint 0=success, otherwise a failure (see ErrorReporter.sol for details)"
      },
      "_setInterestRateModel(address)": {
        "details": "Admin function to accrue interest and update the interest rate model",
        "params": {
          "newInterestRateModel": "the new interest rate model to use"
        },
        "return": "uint 0=success, otherwise a failure (see ErrorReporter.sol for details)"
      },
      "_setPendingAdmin(address)": {
        "details": "Admin function to begin change of admin. The newPendingAdmin must call `_acceptAdmin` to finalize the transfer.",
        "params": {
          "newPendingAdmin": "New pending admin."
        },
        "return": "uint 0=success, otherwise a failure (see ErrorReporter.sol for details)"
      },
      "_setReserveFactor(uint256)": {
        "details": "Admin function to accrue interest and set a new reserve factor",
        "return": "uint 0=success, otherwise a failure (see ErrorReporter.sol for details)"
      },
      "accrueInterest()": {
        "details": "This calculates interest accrued from the last checkpointed block  up to the current block and writes new checkpoint to storage."
      },
      "allowance(address,address)": {
        "params": {
          "owner": "The address of the account which owns the tokens to be spent",
          "spender": "The address of the account which may transfer tokens"
        },
        "return": "The number of tokens allowed to be spent (-1 means infinite)"
      },
      "approve(address,uint256)": {
        "details": "This will overwrite the approval amount for `spender` and is subject to issues noted [here](https://eips.ethereum.org/EIPS/eip-20#approve)",
        "params": {
          "amount": "The number of tokens that are approved (-1 means infinite)",
          "spender": "The address of the account which may transfer tokens"
        },
        "return": "Whether or not the approval succeeded"
      },
      "balanceOf(address)": {
        "params": {
          "owner": "The address of the account to query"
        },
        "return": "The number of tokens owned by `owner`"
      },
      "balanceOfUnderlying(address)": {
        "details": "This also accrues interest in a transaction",
        "params": {
          "owner": "The address of the account to query"
        },
        "return": "The amount of underlying owned by `owner`"
      },
      "borrow(uint256)": {
        "params": {
          "borrowAmount": "The amount of the underlying asset to borrow"
        },
        "return": "uint 0=success, otherwise a failure (see ErrorReporter.sol for details)"
      },
      "borrowBalanceCurrent(address)": {
        "params": {
          "account": "The address whose balance should be calculated after updating borrowIndex"
        },
        "return": "The calculated balance"
      },
      "borrowBalanceStored(address)": {
        "params": {
          "account": "The address whose balance should be calculated"
        },
        "return": "The calculated balance"
      },
      "borrowRatePerBlock()": {
        "return": "The borrow interest rate per block, scaled by 1e18"
      },
      "constructor": {
        "params": {
          "admin_": "Address of the administrator of this token",
          "comptroller_": "The address of the Comptroller",
          "decimals_": "ERC-20 decimal precision of this token",
          "initialExchangeRateMantissa_": "The initial exchange rate, scaled by 1e18",
          "interestRateModel_": "The address of the interest rate model",
          "name_": "ERC-20 name of this token",
          "symbol_": "ERC-20 symbol of this token"
        }
      },
      "exchangeRateCurrent()": {
        "return": "Calculated exchange rate scaled by 1e18"
      },
      "exchangeRateStored()": {
        "details": "This function does not accrue interest before calculating the exchange rate",
        "return": "Calculated exchange rate scaled by 1e18"
      },
      "getAccountSnapshot(address)": {
        "details": "This is used by comptroller to more efficiently perform liquidity checks.",
        "params": {
          "account": "Address of the account to snapshot"
        },
        "return": "(possible error, token balance, borrow balance, exchange rate mantissa)"
      },
      "getCash()": {
        "return": "The quantity of underlying asset owned by this contract"
      },
      "initialize(address,address,uint256,string,string,uint8)": {
        "params": {
          "comptroller_": "The address of the Comptroller",
          "decimals_": "EIP-20 decimal precision of this token",
          "initialExchangeRateMantissa_": "The initial exchange rate, scaled by 1e18",
          "interestRateModel_": "The address of the interest rate model",
          "name_": "EIP-20 name of this token",
          "symbol_": "EIP-20 symbol of this token"
        }
      },
      "liquidateBorrow(address,address)": {
        "details": "Reverts upon any failure",
        "params": {
          "borrower": "The borrower of this cToken to be liquidated",
          "cTokenCollateral": "The market in which to seize collateral from the borrower"
        }
      },
      "mint()": {
        "details": "Reverts upon any failure"
      },
      "redeem(uint256)": {
        "details": "Accrues interest whether or not the operation succeeds, unless reverted",
        "params": {
          "redeemTokens": "The number of cTokens to redeem into underlying"
        },
        "return": "uint 0=success, otherwise a failure (see ErrorReporter.sol for details)"
      },
      "redeemUnderlying(uint256)": {
        "details": "Accrues interest whether or not the operation succeeds, unless reverted",
        "params": {
          "redeemAmount": "The amount of underlying to redeem"
        },
        "return": "uint 0=success, otherwise a failure (see ErrorReporter.sol for details)"
      },
      "repayBorrow()": {
        "details": "Reverts upon any failure"
      },
      "seize(address,address,uint256)": {
        "details": "Will fail unless called by another cToken during the process of liquidation. Its absolutely critical to use msg.sender as the borrowed cToken and not a parameter.",
        "params": {
          "borrower": "The account having collateral seized",
          "liquidator": "The account receiving seized collateral",
          "seizeTokens": "The number of cTokens to seize"
        },
        "return": "uint 0=success, otherwise a failure (see ErrorReporter.sol for details)"
      },
      "supplyRatePerBlock()": {
        "return": "The supply interest rate per block, scaled by 1e18"
      },
      "totalBorrowsCurrent()": {
        "return": "The total borrows with interest"
      },
      "transfer(address,uint256)": {
        "params": {
          "amount": "The number of tokens to transfer",
          "dst": "The address of the destination account"
        },
        "return": "Whether or not the transfer succeeded"
      },
      "transferFrom(address,address,uint256)": {
        "params": {
          "amount": "The number of tokens to transfer",
          "dst": "The address of the destination account",
          "src": "The address of the source account"
        },
        "return": "Whether or not the transfer succeeded"
      }
    },
    "title": "Compound's CEther Contract"
  },
  "userdoc": {
    "methods": {
      "_acceptAdmin()": {
        "notice": "Accepts transfer of admin rights. msg.sender must be pendingAdmin"
      },
      "_reduceReserves(uint256)": {
        "notice": "Accrues interest and reduces reserves by transferring to admin"
      },
      "_setComptroller(address)": {
        "notice": "Sets a new comptroller for the market"
      },
      "_setInterestRateModel(address)": {
        "notice": "accrues interest and updates the interest rate model using _setInterestRateModelFresh"
      },
      "_setPendingAdmin(address)": {
        "notice": "Begins transfer of admin rights. The newPendingAdmin must call `_acceptAdmin` to finalize the transfer."
      },
      "_setReserveFactor(uint256)": {
        "notice": "accrues interest and sets a new reserve factor for the protocol using _setReserveFactorFresh"
      },
      "accrueInterest()": {
        "notice": "Applies accrued interest to total borrows and reserves"
      },
      "allowance(address,address)": {
        "notice": "Get the current allowance from `owner` for `spender`"
      },
      "approve(address,uint256)": {
        "notice": "Approve `spender` to transfer up to `amount` from `src`"
      },
      "balanceOf(address)": {
        "notice": "Get the token balance of the `owner`"
      },
      "balanceOfUnderlying(address)": {
        "notice": "Get the underlying balance of the `owner`"
      },
      "borrow(uint256)": {
        "notice": "Sender borrows assets from the protocol to their own address"
      },
      "borrowBalanceCurrent(address)": {
        "notice": "Accrue interest to updated borrowIndex and then calculate account's borrow balance using the updated borrowIndex"
      },
      "borrowBalanceStored(address)": {
        "notice": "Return the borrow balance of account based on stored data"
      },
      "borrowRatePerBlock()": {
        "notice": "Returns the current per-block borrow interest rate for this cToken"
      },
      "constructor": "Construct a new CEther money market",
      "exchangeRateCurrent()": {
        "notice": "Accrue interest then return the up-to-date exchange rate"
      },
      "exchangeRateStored()": {
        "notice": "Calculates the exchange rate from the underlying to the CToken"
      },
      "getAccountSnapshot(address)": {
        "notice": "Get a snapshot of the account's balances, and the cached exchange rate"
      },
      "getCash()": {
        "notice": "Get cash balance of this cToken in the underlying asset"
      },
      "initialize(address,address,uint256,string,string,uint8)": {
        "notice": "Initialize the money market"
      },
      "liquidateBorrow(address,address)": {
        "notice": "The sender liquidates the borrowers collateral. The collateral seized is transferred to the liquidator."
      },
      "mint()": {
        "notice": "Sender supplies assets into the market and receives cTokens in exchange"
      },
      "redeem(uint256)": {
        "notice": "Sender redeems cTokens in exchange for the underlying asset"
      },
      "redeemUnderlying(uint256)": {
        "notice": "Sender redeems cTokens in exchange for a specified amount of underlying asset"
      },
      "repayBorrow()": {
        "notice": "Sender repays their own borrow"
      },
      "seize(address,address,uint256)": {
        "notice": "Transfers collateral tokens (this market) to the liquidator."
      },
      "supplyRatePerBlock()": {
        "notice": "Returns the current per-block supply interest rate for this cToken"
      },
      "totalBorrowsCurrent()": {
        "notice": "Returns the current total borrows plus accrued interest"
      },
      "transfer(address,uint256)": {
        "notice": "Transfer `amount` tokens from `msg.sender` to `dst`"
      },
      "transferFrom(address,address,uint256)": {
        "notice": "Transfer `amount` tokens from `src` to `dst`"
      }
    },
    "notice": "CToken which wraps Ether"
  },
  "storageLayout": {
    "storage": [
      {
        "astId": 12158,
        "contract": "contracts/CEther.sol:CEther",
        "label": "_notEntered",
        "offset": 0,
        "slot": "0",
        "type": "t_bool"
      },
      {
        "astId": 12160,
        "contract": "contracts/CEther.sol:CEther",
        "label": "name",
        "offset": 0,
        "slot": "1",
        "type": "t_string_storage"
      },
      {
        "astId": 12162,
        "contract": "contracts/CEther.sol:CEther",
        "label": "symbol",
        "offset": 0,
        "slot": "2",
        "type": "t_string_storage"
      },
      {
        "astId": 12164,
        "contract": "contracts/CEther.sol:CEther",
        "label": "decimals",
        "offset": 0,
        "slot": "3",
        "type": "t_uint8"
      },
      {
        "astId": 12172,
        "contract": "contracts/CEther.sol:CEther",
        "label": "admin",
        "offset": 1,
        "slot": "3",
        "type": "t_address_payable"
      },
      {
        "astId": 12174,
        "contract": "contracts/CEther.sol:CEther",
        "label": "pendingAdmin",
        "offset": 0,
        "slot": "4",
        "type": "t_address_payable"
      },
      {
        "astId": 12176,
        "contract": "contracts/CEther.sol:CEther",
        "label": "comptroller",
        "offset": 0,
        "slot": "5",
        "type": "t_contract(ComptrollerInterface)21910"
      },
      {
        "astId": 12178,
        "contract": "contracts/CEther.sol:CEther",
        "label": "interestRateModel",
        "offset": 0,
        "slot": "6",
        "type": "t_contract(InterestRateModel)25284"
      },
      {
        "astId": 12180,
        "contract": "contracts/CEther.sol:CEther",
        "label": "initialExchangeRateMantissa",
        "offset": 0,
        "slot": "7",
        "type": "t_uint256"
      },
      {
        "astId": 12182,
        "contract": "contracts/CEther.sol:CEther",
        "label": "reserveFactorMantissa",
        "offset": 0,
        "slot": "8",
        "type": "t_uint256"
      },
      {
        "astId": 12184,
        "contract": "contracts/CEther.sol:CEther",
        "label": "accrualBlockNumber",
        "offset": 0,
        "slot": "9",
        "type": "t_uint256"
      },
      {
        "astId": 12186,
        "contract": "contracts/CEther.sol:CEther",
        "label": "borrowIndex",
        "offset": 0,
        "slot": "10",
        "type": "t_uint256"
      },
      {
        "astId": 12188,
        "contract": "contracts/CEther.sol:CEther",
        "label": "totalBorrows",
        "offset": 0,
        "slot": "11",
        "type": "t_uint256"
      },
      {
        "astId": 12190,
        "contract": "contracts/CEther.sol:CEther",
        "label": "totalReserves",
        "offset": 0,
        "slot": "12",
        "type": "t_uint256"
      },
      {
        "astId": 12192,
        "contract": "contracts/CEther.sol:CEther",
        "label": "totalSupply",
        "offset": 0,
        "slot": "13",
        "type": "t_uint256"
      },
      {
        "astId": 12196,
        "contract": "contracts/CEther.sol:CEther",
        "label": "accountTokens",
        "offset": 0,
        "slot": "14",
        "type": "t_mapping(t_address,t_uint256)"
      },
      {
        "astId": 12202,
        "contract": "contracts/CEther.sol:CEther",
        "label": "transferAllowances",
        "offset": 0,
        "slot": "15",
        "type": "t_mapping(t_address,t_mapping(t_address,t_uint256))"
      },
      {
        "astId": 12211,
        "contract": "contracts/CEther.sol:CEther",
        "label": "accountBorrows",
        "offset": 0,
        "slot": "16",
        "type": "t_mapping(t_address,t_struct(BorrowSnapshot)12207_storage)"
      }
    ],
    "types": {
      "t_address": {
        "encoding": "inplace",
        "label": "address",
        "numberOfBytes": "20"
      },
      "t_address_payable": {
        "encoding": "inplace",
        "label": "address payable",
        "numberOfBytes": "20"
      },
      "t_bool": {
        "encoding": "inplace",
        "label": "bool",
        "numberOfBytes": "1"
      },
      "t_contract(ComptrollerInterface)21910": {
        "encoding": "inplace",
        "label": "contract ComptrollerInterface",
        "numberOfBytes": "20"
      },
      "t_contract(InterestRateModel)25284": {
        "encoding": "inplace",
        "label": "contract InterestRateModel",
        "numberOfBytes": "20"
      },
      "t_mapping(t_address,t_mapping(t_address,t_uint256))": {
        "encoding": "mapping",
        "key": "t_address",
        "label": "mapping(address => mapping(address => uint256))",
        "numberOfBytes": "32",
        "value": "t_mapping(t_address,t_uint256)"
      },
      "t_mapping(t_address,t_struct(BorrowSnapshot)12207_storage)": {
        "encoding": "mapping",
        "key": "t_address",
        "label": "mapping(address => struct CTokenStorage.BorrowSnapshot)",
        "numberOfBytes": "32",
        "value": "t_struct(BorrowSnapshot)12207_storage"
      },
      "t_mapping(t_address,t_uint256)": {
        "encoding": "mapping",
        "key": "t_address",
        "label": "mapping(address => uint256)",
        "numberOfBytes": "32",
        "value": "t_uint256"
      },
      "t_string_storage": {
        "encoding": "bytes",
        "label": "string",
        "numberOfBytes": "32"
      },
      "t_struct(BorrowSnapshot)12207_storage": {
        "encoding": "inplace",
        "label": "struct CTokenStorage.BorrowSnapshot",
        "members": [
          {
            "astId": 12204,
            "contract": "contracts/CEther.sol:CEther",
            "label": "principal",
            "offset": 0,
            "slot": "0",
            "type": "t_uint256"
          },
          {
            "astId": 12206,
            "contract": "contracts/CEther.sol:CEther",
            "label": "interestIndex",
            "offset": 0,
            "slot": "1",
            "type": "t_uint256"
          }
        ],
        "numberOfBytes": "64"
      },
      "t_uint256": {
        "encoding": "inplace",
        "label": "uint256",
        "numberOfBytes": "32"
      },
      "t_uint8": {
        "encoding": "inplace",
        "label": "uint8",
        "numberOfBytes": "1"
      }
    }
  }
}