{
  "address": "0xA0d8e8E57705445D23837eF0Fe98Bb71416986b3",
  "abi": [
    {
      "inputs": [],
      "payable": false,
      "stateMutability": "nonpayable",
      "type": "constructor"
    },
    {
      "anonymous": false,
      "inputs": [
        {
          "indexed": false,
          "internalType": "string",
          "name": "action",
          "type": "string"
        },
        {
          "indexed": false,
          "internalType": "bool",
          "name": "pauseState",
          "type": "bool"
        }
      ],
      "name": "ActionPaused",
      "type": "event"
    },
    {
      "anonymous": false,
      "inputs": [
        {
          "indexed": false,
          "internalType": "contract CToken",
          "name": "cToken",
          "type": "address"
        },
        {
          "indexed": false,
          "internalType": "string",
          "name": "action",
          "type": "string"
        },
        {
          "indexed": false,
          "internalType": "bool",
          "name": "pauseState",
          "type": "bool"
        }
      ],
      "name": "ActionPaused",
      "type": "event"
    },
    {
      "anonymous": false,
      "inputs": [
        {
          "indexed": false,
          "internalType": "address",
          "name": "protocol",
          "type": "address"
        },
        {
          "indexed": false,
          "internalType": "uint256",
          "name": "creditLimit",
          "type": "uint256"
        }
      ],
      "name": "CreditLimitChanged",
      "type": "event"
    },
    {
      "anonymous": false,
      "inputs": [
        {
          "indexed": false,
          "internalType": "uint256",
          "name": "error",
          "type": "uint256"
        },
        {
          "indexed": false,
          "internalType": "uint256",
          "name": "info",
          "type": "uint256"
        },
        {
          "indexed": false,
          "internalType": "uint256",
          "name": "detail",
          "type": "uint256"
        }
      ],
      "name": "Failure",
      "type": "event"
    },
    {
      "anonymous": false,
      "inputs": [
        {
          "indexed": false,
          "internalType": "contract CToken",
          "name": "cToken",
          "type": "address"
        }
      ],
      "name": "MarketDelisted",
      "type": "event"
    },
    {
      "anonymous": false,
      "inputs": [
        {
          "indexed": false,
          "internalType": "contract CToken",
          "name": "cToken",
          "type": "address"
        },
        {
          "indexed": false,
          "internalType": "address",
          "name": "account",
          "type": "address"
        }
      ],
      "name": "MarketEntered",
      "type": "event"
    },
    {
      "anonymous": false,
      "inputs": [
        {
          "indexed": false,
          "internalType": "contract CToken",
          "name": "cToken",
          "type": "address"
        },
        {
          "indexed": false,
          "internalType": "address",
          "name": "account",
          "type": "address"
        }
      ],
      "name": "MarketExited",
      "type": "event"
    },
    {
      "anonymous": false,
      "inputs": [
        {
          "indexed": false,
          "internalType": "contract CToken",
          "name": "cToken",
          "type": "address"
        }
      ],
      "name": "MarketListed",
      "type": "event"
    },
    {
      "anonymous": false,
      "inputs": [
        {
          "indexed": true,
          "internalType": "contract CToken",
          "name": "cToken",
          "type": "address"
        },
        {
          "indexed": false,
          "internalType": "uint256",
          "name": "newBorrowCap",
          "type": "uint256"
        }
      ],
      "name": "NewBorrowCap",
      "type": "event"
    },
    {
      "anonymous": false,
      "inputs": [
        {
          "indexed": false,
          "internalType": "address",
          "name": "oldBorrowCapGuardian",
          "type": "address"
        },
        {
          "indexed": false,
          "internalType": "address",
          "name": "newBorrowCapGuardian",
          "type": "address"
        }
      ],
      "name": "NewBorrowCapGuardian",
      "type": "event"
    },
    {
      "anonymous": false,
      "inputs": [
        {
          "indexed": false,
          "internalType": "contract CToken",
          "name": "cToken",
          "type": "address"
        },
        {
          "indexed": false,
          "internalType": "enum ComptrollerV1Storage.Version",
          "name": "oldVersion",
          "type": "uint8"
        },
        {
          "indexed": false,
          "internalType": "enum ComptrollerV1Storage.Version",
          "name": "newVersion",
          "type": "uint8"
        }
      ],
      "name": "NewCTokenVersion",
      "type": "event"
    },
    {
      "anonymous": false,
      "inputs": [
        {
          "indexed": false,
          "internalType": "uint256",
          "name": "oldCloseFactorMantissa",
          "type": "uint256"
        },
        {
          "indexed": false,
          "internalType": "uint256",
          "name": "newCloseFactorMantissa",
          "type": "uint256"
        }
      ],
      "name": "NewCloseFactor",
      "type": "event"
    },
    {
      "anonymous": false,
      "inputs": [
        {
          "indexed": false,
          "internalType": "contract CToken",
          "name": "cToken",
          "type": "address"
        },
        {
          "indexed": false,
          "internalType": "uint256",
          "name": "oldCollateralFactorMantissa",
          "type": "uint256"
        },
        {
          "indexed": false,
          "internalType": "uint256",
          "name": "newCollateralFactorMantissa",
          "type": "uint256"
        }
      ],
      "name": "NewCollateralFactor",
      "type": "event"
    },
    {
      "anonymous": false,
      "inputs": [
        {
          "indexed": false,
          "internalType": "uint256",
          "name": "oldLiquidationIncentiveMantissa",
          "type": "uint256"
        },
        {
          "indexed": false,
          "internalType": "uint256",
          "name": "newLiquidationIncentiveMantissa",
          "type": "uint256"
        }
      ],
      "name": "NewLiquidationIncentive",
      "type": "event"
    },
    {
      "anonymous": false,
      "inputs": [
        {
          "indexed": false,
          "internalType": "address",
          "name": "oldLiquidityMining",
          "type": "address"
        },
        {
          "indexed": false,
          "internalType": "address",
          "name": "newLiquidityMining",
          "type": "address"
        }
      ],
      "name": "NewLiquidityMining",
      "type": "event"
    },
    {
      "anonymous": false,
      "inputs": [
        {
          "indexed": false,
          "internalType": "address",
          "name": "oldPauseGuardian",
          "type": "address"
        },
        {
          "indexed": false,
          "internalType": "address",
          "name": "newPauseGuardian",
          "type": "address"
        }
      ],
      "name": "NewPauseGuardian",
      "type": "event"
    },
    {
      "anonymous": false,
      "inputs": [
        {
          "indexed": false,
          "internalType": "contract PriceOracle",
          "name": "oldPriceOracle",
          "type": "address"
        },
        {
          "indexed": false,
          "internalType": "contract PriceOracle",
          "name": "newPriceOracle",
          "type": "address"
        }
      ],
      "name": "NewPriceOracle",
      "type": "event"
    },
    {
      "anonymous": false,
      "inputs": [
        {
          "indexed": true,
          "internalType": "contract CToken",
          "name": "cToken",
          "type": "address"
        },
        {
          "indexed": false,
          "internalType": "uint256",
          "name": "newSupplyCap",
          "type": "uint256"
        }
      ],
      "name": "NewSupplyCap",
      "type": "event"
    },
    {
      "anonymous": false,
      "inputs": [
        {
          "indexed": false,
          "internalType": "address",
          "name": "oldSupplyCapGuardian",
          "type": "address"
        },
        {
          "indexed": false,
          "internalType": "address",
          "name": "newSupplyCapGuardian",
          "type": "address"
        }
      ],
      "name": "NewSupplyCapGuardian",
      "type": "event"
    },
    {
      "constant": false,
      "inputs": [
        {
          "internalType": "contract Unitroller",
          "name": "unitroller",
          "type": "address"
        }
      ],
      "name": "_become",
      "outputs": [],
      "payable": false,
      "stateMutability": "nonpayable",
      "type": "function"
    },
    {
      "constant": true,
      "inputs": [],
      "name": "_borrowGuardianPaused",
      "outputs": [
        {
          "internalType": "bool",
          "name": "",
          "type": "bool"
        }
      ],
      "payable": false,
      "stateMutability": "view",
      "type": "function"
    },
    {
      "constant": false,
      "inputs": [
        {
          "internalType": "contract CToken",
          "name": "cToken",
          "type": "address"
        }
      ],
      "name": "_delistMarket",
      "outputs": [],
      "payable": false,
      "stateMutability": "nonpayable",
      "type": "function"
    },
    {
      "constant": true,
      "inputs": [],
      "name": "_mintGuardianPaused",
      "outputs": [
        {
          "internalType": "bool",
          "name": "",
          "type": "bool"
        }
      ],
      "payable": false,
      "stateMutability": "view",
      "type": "function"
    },
    {
      "constant": false,
      "inputs": [
        {
          "internalType": "address",
          "name": "newBorrowCapGuardian",
          "type": "address"
        }
      ],
      "name": "_setBorrowCapGuardian",
      "outputs": [],
      "payable": false,
      "stateMutability": "nonpayable",
      "type": "function"
    },
    {
      "constant": false,
      "inputs": [
        {
          "internalType": "contract CToken",
          "name": "cToken",
          "type": "address"
        },
        {
          "internalType": "bool",
          "name": "state",
          "type": "bool"
        }
      ],
      "name": "_setBorrowPaused",
      "outputs": [
        {
          "internalType": "bool",
          "name": "",
          "type": "bool"
        }
      ],
      "payable": false,
      "stateMutability": "nonpayable",
      "type": "function"
    },
    {
      "constant": false,
      "inputs": [
        {
          "internalType": "uint256",
          "name": "newCloseFactorMantissa",
          "type": "uint256"
        }
      ],
      "name": "_setCloseFactor",
      "outputs": [
        {
          "internalType": "uint256",
          "name": "",
          "type": "uint256"
        }
      ],
      "payable": false,
      "stateMutability": "nonpayable",
      "type": "function"
    },
    {
      "constant": false,
      "inputs": [
        {
          "internalType": "contract CToken",
          "name": "cToken",
          "type": "address"
        },
        {
          "internalType": "uint256",
          "name": "newCollateralFactorMantissa",
          "type": "uint256"
        }
      ],
      "name": "_setCollateralFactor",
      "outputs": [
        {
          "internalType": "uint256",
          "name": "",
          "type": "uint256"
        }
      ],
      "payable": false,
      "stateMutability": "nonpayable",
      "type": "function"
    },
    {
      "constant": false,
      "inputs": [
        {
          "internalType": "address",
          "name": "protocol",
          "type": "address"
        },
        {
          "internalType": "uint256",
          "name": "creditLimit",
          "type": "uint256"
        }
      ],
      "name": "_setCreditLimit",
      "outputs": [],
      "payable": false,
      "stateMutability": "nonpayable",
      "type": "function"
    },
    {
      "constant": false,
      "inputs": [
        {
          "internalType": "contract CToken",
          "name": "cToken",
          "type": "address"
        },
        {
          "internalType": "bool",
          "name": "state",
          "type": "bool"
        }
      ],
      "name": "_setFlashloanPaused",
      "outputs": [
        {
          "internalType": "bool",
          "name": "",
          "type": "bool"
        }
      ],
      "payable": false,
      "stateMutability": "nonpayable",
      "type": "function"
    },
    {
      "constant": false,
      "inputs": [
        {
          "internalType": "uint256",
          "name": "newLiquidationIncentiveMantissa",
          "type": "uint256"
        }
      ],
      "name": "_setLiquidationIncentive",
      "outputs": [
        {
          "internalType": "uint256",
          "name": "",
          "type": "uint256"
        }
      ],
      "payable": false,
      "stateMutability": "nonpayable",
      "type": "function"
    },
    {
      "constant": false,
      "inputs": [
        {
          "internalType": "address",
          "name": "newLiquidityMining",
          "type": "address"
        }
      ],
      "name": "_setLiquidityMining",
      "outputs": [],
      "payable": false,
      "stateMutability": "nonpayable",
      "type": "function"
    },
    {
      "constant": false,
      "inputs": [
        {
          "internalType": "contract CToken[]",
          "name": "cTokens",
          "type": "address[]"
        },
        {
          "internalType": "uint256[]",
          "name": "newBorrowCaps",
          "type": "uint256[]"
        }
      ],
      "name": "_setMarketBorrowCaps",
      "outputs": [],
      "payable": false,
      "stateMutability": "nonpayable",
      "type": "function"
    },
    {
      "constant": false,
      "inputs": [
        {
          "internalType": "contract CToken[]",
          "name": "cTokens",
          "type": "address[]"
        },
        {
          "internalType": "uint256[]",
          "name": "newSupplyCaps",
          "type": "uint256[]"
        }
      ],
      "name": "_setMarketSupplyCaps",
      "outputs": [],
      "payable": false,
      "stateMutability": "nonpayable",
      "type": "function"
    },
    {
      "constant": false,
      "inputs": [
        {
          "internalType": "contract CToken",
          "name": "cToken",
          "type": "address"
        },
        {
          "internalType": "bool",
          "name": "state",
          "type": "bool"
        }
      ],
      "name": "_setMintPaused",
      "outputs": [
        {
          "internalType": "bool",
          "name": "",
          "type": "bool"
        }
      ],
      "payable": false,
      "stateMutability": "nonpayable",
      "type": "function"
    },
    {
      "constant": false,
      "inputs": [
        {
          "internalType": "address",
          "name": "newPauseGuardian",
          "type": "address"
        }
      ],
      "name": "_setPauseGuardian",
      "outputs": [
        {
          "internalType": "uint256",
          "name": "",
          "type": "uint256"
        }
      ],
      "payable": false,
      "stateMutability": "nonpayable",
      "type": "function"
    },
    {
      "constant": false,
      "inputs": [
        {
          "internalType": "contract PriceOracle",
          "name": "newOracle",
          "type": "address"
        }
      ],
      "name": "_setPriceOracle",
      "outputs": [
        {
          "internalType": "uint256",
          "name": "",
          "type": "uint256"
        }
      ],
      "payable": false,
      "stateMutability": "nonpayable",
      "type": "function"
    },
    {
      "constant": false,
      "inputs": [
        {
          "internalType": "bool",
          "name": "state",
          "type": "bool"
        }
      ],
      "name": "_setSeizePaused",
      "outputs": [
        {
          "internalType": "bool",
          "name": "",
          "type": "bool"
        }
      ],
      "payable": false,
      "stateMutability": "nonpayable",
      "type": "function"
    },
    {
      "constant": false,
      "inputs": [
        {
          "internalType": "address",
          "name": "newSupplyCapGuardian",
          "type": "address"
        }
      ],
      "name": "_setSupplyCapGuardian",
      "outputs": [],
      "payable": false,
      "stateMutability": "nonpayable",
      "type": "function"
    },
    {
      "constant": false,
      "inputs": [
        {
          "internalType": "bool",
          "name": "state",
          "type": "bool"
        }
      ],
      "name": "_setTransferPaused",
      "outputs": [
        {
          "internalType": "bool",
          "name": "",
          "type": "bool"
        }
      ],
      "payable": false,
      "stateMutability": "nonpayable",
      "type": "function"
    },
    {
      "constant": false,
      "inputs": [
        {
          "internalType": "contract CToken",
          "name": "cToken",
          "type": "address"
        },
        {
          "internalType": "enum ComptrollerV1Storage.Version",
          "name": "version",
          "type": "uint8"
        }
      ],
      "name": "_supportMarket",
      "outputs": [
        {
          "internalType": "uint256",
          "name": "",
          "type": "uint256"
        }
      ],
      "payable": false,
      "stateMutability": "nonpayable",
      "type": "function"
    },
    {
      "constant": true,
      "inputs": [
        {
          "internalType": "address",
          "name": "",
          "type": "address"
        },
        {
          "internalType": "uint256",
          "name": "",
          "type": "uint256"
        }
      ],
      "name": "accountAssets",
      "outputs": [
        {
          "internalType": "contract CToken",
          "name": "",
          "type": "address"
        }
      ],
      "payable": false,
      "stateMutability": "view",
      "type": "function"
    },
    {
      "constant": true,
      "inputs": [],
      "name": "admin",
      "outputs": [
        {
          "internalType": "address",
          "name": "",
          "type": "address"
        }
      ],
      "payable": false,
      "stateMutability": "view",
      "type": "function"
    },
    {
      "constant": true,
      "inputs": [
        {
          "internalType": "uint256",
          "name": "",
          "type": "uint256"
        }
      ],
      "name": "allMarkets",
      "outputs": [
        {
          "internalType": "contract CToken",
          "name": "",
          "type": "address"
        }
      ],
      "payable": false,
      "stateMutability": "view",
      "type": "function"
    },
    {
      "constant": false,
      "inputs": [
        {
          "internalType": "address",
          "name": "cToken",
          "type": "address"
        },
        {
          "internalType": "address",
          "name": "borrower",
          "type": "address"
        },
        {
          "internalType": "uint256",
          "name": "borrowAmount",
          "type": "uint256"
        }
      ],
      "name": "borrowAllowed",
      "outputs": [
        {
          "internalType": "uint256",
          "name": "",
          "type": "uint256"
        }
      ],
      "payable": false,
      "stateMutability": "nonpayable",
      "type": "function"
    },
    {
      "constant": true,
      "inputs": [],
      "name": "borrowCapGuardian",
      "outputs": [
        {
          "internalType": "address",
          "name": "",
          "type": "address"
        }
      ],
      "payable": false,
      "stateMutability": "view",
      "type": "function"
    },
    {
      "constant": true,
      "inputs": [
        {
          "internalType": "address",
          "name": "",
          "type": "address"
        }
      ],
      "name": "borrowCaps",
      "outputs": [
        {
          "internalType": "uint256",
          "name": "",
          "type": "uint256"
        }
      ],
      "payable": false,
      "stateMutability": "view",
      "type": "function"
    },
    {
      "constant": true,
      "inputs": [
        {
          "internalType": "address",
          "name": "",
          "type": "address"
        }
      ],
      "name": "borrowGuardianPaused",
      "outputs": [
        {
          "internalType": "bool",
          "name": "",
          "type": "bool"
        }
      ],
      "payable": false,
      "stateMutability": "view",
      "type": "function"
    },
    {
      "constant": false,
      "inputs": [
        {
          "internalType": "address",
          "name": "cToken",
          "type": "address"
        },
        {
          "internalType": "address",
          "name": "borrower",
          "type": "address"
        },
        {
          "internalType": "uint256",
          "name": "borrowAmount",
          "type": "uint256"
        }
      ],
      "name": "borrowVerify",
      "outputs": [],
      "payable": false,
      "stateMutability": "nonpayable",
      "type": "function"
    },
    {
      "constant": true,
      "inputs": [
        {
          "internalType": "address",
          "name": "account",
          "type": "address"
        },
        {
          "internalType": "contract CToken",
          "name": "cToken",
          "type": "address"
        }
      ],
      "name": "checkMembership",
      "outputs": [
        {
          "internalType": "bool",
          "name": "",
          "type": "bool"
        }
      ],
      "payable": false,
      "stateMutability": "view",
      "type": "function"
    },
    {
      "constant": true,
      "inputs": [],
      "name": "closeFactorMantissa",
      "outputs": [
        {
          "internalType": "uint256",
          "name": "",
          "type": "uint256"
        }
      ],
      "payable": false,
      "stateMutability": "view",
      "type": "function"
    },
    {
      "constant": true,
      "inputs": [
        {
          "internalType": "address",
          "name": "",
          "type": "address"
        }
      ],
      "name": "compAccrued",
      "outputs": [
        {
          "internalType": "uint256",
          "name": "",
          "type": "uint256"
        }
      ],
      "payable": false,
      "stateMutability": "view",
      "type": "function"
    },
    {
      "constant": true,
      "inputs": [
        {
          "internalType": "address",
          "name": "",
          "type": "address"
        }
      ],
      "name": "compBorrowState",
      "outputs": [
        {
          "internalType": "uint224",
          "name": "index",
          "type": "uint224"
        },
        {
          "internalType": "uint32",
          "name": "block",
          "type": "uint32"
        }
      ],
      "payable": false,
      "stateMutability": "view",
      "type": "function"
    },
    {
      "constant": true,
      "inputs": [
        {
          "internalType": "address",
          "name": "",
          "type": "address"
        },
        {
          "internalType": "address",
          "name": "",
          "type": "address"
        }
      ],
      "name": "compBorrowerIndex",
      "outputs": [
        {
          "internalType": "uint256",
          "name": "",
          "type": "uint256"
        }
      ],
      "payable": false,
      "stateMutability": "view",
      "type": "function"
    },
    {
      "constant": true,
      "inputs": [
        {
          "internalType": "address",
          "name": "",
          "type": "address"
        }
      ],
      "name": "compSpeeds",
      "outputs": [
        {
          "internalType": "uint256",
          "name": "",
          "type": "uint256"
        }
      ],
      "payable": false,
      "stateMutability": "view",
      "type": "function"
    },
    {
      "constant": true,
      "inputs": [
        {
          "internalType": "address",
          "name": "",
          "type": "address"
        },
        {
          "internalType": "address",
          "name": "",
          "type": "address"
        }
      ],
      "name": "compSupplierIndex",
      "outputs": [
        {
          "internalType": "uint256",
          "name": "",
          "type": "uint256"
        }
      ],
      "payable": false,
      "stateMutability": "view",
      "type": "function"
    },
    {
      "constant": true,
      "inputs": [
        {
          "internalType": "address",
          "name": "",
          "type": "address"
        }
      ],
      "name": "compSupplyState",
      "outputs": [
        {
          "internalType": "uint224",
          "name": "index",
          "type": "uint224"
        },
        {
          "internalType": "uint32",
          "name": "block",
          "type": "uint32"
        }
      ],
      "payable": false,
      "stateMutability": "view",
      "type": "function"
    },
    {
      "constant": true,
      "inputs": [],
      "name": "comptrollerImplementation",
      "outputs": [
        {
          "internalType": "address",
          "name": "",
          "type": "address"
        }
      ],
      "payable": false,
      "stateMutability": "view",
      "type": "function"
    },
    {
      "constant": true,
      "inputs": [
        {
          "internalType": "address",
          "name": "",
          "type": "address"
        }
      ],
      "name": "creditLimits",
      "outputs": [
        {
          "internalType": "uint256",
          "name": "",
          "type": "uint256"
        }
      ],
      "payable": false,
      "stateMutability": "view",
      "type": "function"
    },
    {
      "constant": false,
      "inputs": [
        {
          "internalType": "address[]",
          "name": "cTokens",
          "type": "address[]"
        }
      ],
      "name": "enterMarkets",
      "outputs": [
        {
          "internalType": "uint256[]",
          "name": "",
          "type": "uint256[]"
        }
      ],
      "payable": false,
      "stateMutability": "nonpayable",
      "type": "function"
    },
    {
      "constant": false,
      "inputs": [
        {
          "internalType": "address",
          "name": "cTokenAddress",
          "type": "address"
        }
      ],
      "name": "exitMarket",
      "outputs": [
        {
          "internalType": "uint256",
          "name": "",
          "type": "uint256"
        }
      ],
      "payable": false,
      "stateMutability": "nonpayable",
      "type": "function"
    },
    {
      "constant": true,
      "inputs": [
        {
          "internalType": "address",
          "name": "cToken",
          "type": "address"
        },
        {
          "internalType": "address",
          "name": "receiver",
          "type": "address"
        },
        {
          "internalType": "uint256",
          "name": "amount",
          "type": "uint256"
        },
        {
          "internalType": "bytes",
          "name": "params",
          "type": "bytes"
        }
      ],
      "name": "flashloanAllowed",
      "outputs": [
        {
          "internalType": "bool",
          "name": "",
          "type": "bool"
        }
      ],
      "payable": false,
      "stateMutability": "view",
      "type": "function"
    },
    {
      "constant": true,
      "inputs": [
        {
          "internalType": "address",
          "name": "",
          "type": "address"
        }
      ],
      "name": "flashloanGuardianPaused",
      "outputs": [
        {
          "internalType": "bool",
          "name": "",
          "type": "bool"
        }
      ],
      "payable": false,
      "stateMutability": "view",
      "type": "function"
    },
    {
      "constant": true,
      "inputs": [
        {
          "internalType": "address",
          "name": "account",
          "type": "address"
        }
      ],
      "name": "getAccountLiquidity",
      "outputs": [
        {
          "internalType": "uint256",
          "name": "",
          "type": "uint256"
        },
        {
          "internalType": "uint256",
          "name": "",
          "type": "uint256"
        },
        {
          "internalType": "uint256",
          "name": "",
          "type": "uint256"
        }
      ],
      "payable": false,
      "stateMutability": "view",
      "type": "function"
    },
    {
      "constant": true,
      "inputs": [],
      "name": "getAllMarkets",
      "outputs": [
        {
          "internalType": "contract CToken[]",
          "name": "",
          "type": "address[]"
        }
      ],
      "payable": false,
      "stateMutability": "view",
      "type": "function"
    },
    {
      "constant": true,
      "inputs": [
        {
          "internalType": "address",
          "name": "account",
          "type": "address"
        }
      ],
      "name": "getAssetsIn",
      "outputs": [
        {
          "internalType": "contract CToken[]",
          "name": "",
          "type": "address[]"
        }
      ],
      "payable": false,
      "stateMutability": "view",
      "type": "function"
    },
    {
      "constant": true,
      "inputs": [],
      "name": "getBlockNumber",
      "outputs": [
        {
          "internalType": "uint256",
          "name": "",
          "type": "uint256"
        }
      ],
      "payable": false,
      "stateMutability": "view",
      "type": "function"
    },
    {
      "constant": true,
      "inputs": [
        {
          "internalType": "address",
          "name": "account",
          "type": "address"
        },
        {
          "internalType": "address",
          "name": "cTokenModify",
          "type": "address"
        },
        {
          "internalType": "uint256",
          "name": "redeemTokens",
          "type": "uint256"
        },
        {
          "internalType": "uint256",
          "name": "borrowAmount",
          "type": "uint256"
        }
      ],
      "name": "getHypotheticalAccountLiquidity",
      "outputs": [
        {
          "internalType": "uint256",
          "name": "",
          "type": "uint256"
        },
        {
          "internalType": "uint256",
          "name": "",
          "type": "uint256"
        },
        {
          "internalType": "uint256",
          "name": "",
          "type": "uint256"
        }
      ],
      "payable": false,
      "stateMutability": "view",
      "type": "function"
    },
    {
      "constant": true,
      "inputs": [],
      "name": "isComptroller",
      "outputs": [
        {
          "internalType": "bool",
          "name": "",
          "type": "bool"
        }
      ],
      "payable": false,
      "stateMutability": "view",
      "type": "function"
    },
    {
      "constant": true,
      "inputs": [
        {
          "internalType": "address",
          "name": "account",
          "type": "address"
        }
      ],
      "name": "isCreditAccount",
      "outputs": [
        {
          "internalType": "bool",
          "name": "",
          "type": "bool"
        }
      ],
      "payable": false,
      "stateMutability": "view",
      "type": "function"
    },
    {
      "constant": true,
      "inputs": [
        {
          "internalType": "address",
          "name": "cTokenAddress",
          "type": "address"
        }
      ],
      "name": "isMarketListed",
      "outputs": [
        {
          "internalType": "bool",
          "name": "",
          "type": "bool"
        }
      ],
      "payable": false,
      "stateMutability": "view",
      "type": "function"
    },
    {
      "constant": false,
      "inputs": [
        {
          "internalType": "address",
          "name": "cTokenBorrowed",
          "type": "address"
        },
        {
          "internalType": "address",
          "name": "cTokenCollateral",
          "type": "address"
        },
        {
          "internalType": "address",
          "name": "liquidator",
          "type": "address"
        },
        {
          "internalType": "address",
          "name": "borrower",
          "type": "address"
        },
        {
          "internalType": "uint256",
          "name": "repayAmount",
          "type": "uint256"
        }
      ],
      "name": "liquidateBorrowAllowed",
      "outputs": [
        {
          "internalType": "uint256",
          "name": "",
          "type": "uint256"
        }
      ],
      "payable": false,
      "stateMutability": "nonpayable",
      "type": "function"
    },
    {
      "constant": false,
      "inputs": [
        {
          "internalType": "address",
          "name": "cTokenBorrowed",
          "type": "address"
        },
        {
          "internalType": "address",
          "name": "cTokenCollateral",
          "type": "address"
        },
        {
          "internalType": "address",
          "name": "liquidator",
          "type": "address"
        },
        {
          "internalType": "address",
          "name": "borrower",
          "type": "address"
        },
        {
          "internalType": "uint256",
          "name": "actualRepayAmount",
          "type": "uint256"
        },
        {
          "internalType": "uint256",
          "name": "seizeTokens",
          "type": "uint256"
        }
      ],
      "name": "liquidateBorrowVerify",
      "outputs": [],
      "payable": false,
      "stateMutability": "nonpayable",
      "type": "function"
    },
    {
      "constant": true,
      "inputs": [
        {
          "internalType": "address",
          "name": "cTokenBorrowed",
          "type": "address"
        },
        {
          "internalType": "address",
          "name": "cTokenCollateral",
          "type": "address"
        },
        {
          "internalType": "uint256",
          "name": "actualRepayAmount",
          "type": "uint256"
        }
      ],
      "name": "liquidateCalculateSeizeTokens",
      "outputs": [
        {
          "internalType": "uint256",
          "name": "",
          "type": "uint256"
        },
        {
          "internalType": "uint256",
          "name": "",
          "type": "uint256"
        }
      ],
      "payable": false,
      "stateMutability": "view",
      "type": "function"
    },
    {
      "constant": true,
      "inputs": [],
      "name": "liquidationIncentiveMantissa",
      "outputs": [
        {
          "internalType": "uint256",
          "name": "",
          "type": "uint256"
        }
      ],
      "payable": false,
      "stateMutability": "view",
      "type": "function"
    },
    {
      "constant": true,
      "inputs": [],
      "name": "liquidityMining",
      "outputs": [
        {
          "internalType": "address",
          "name": "",
          "type": "address"
        }
      ],
      "payable": false,
      "stateMutability": "view",
      "type": "function"
    },
    {
      "constant": true,
      "inputs": [
        {
          "internalType": "address",
          "name": "",
          "type": "address"
        }
      ],
      "name": "markets",
      "outputs": [
        {
          "internalType": "bool",
          "name": "isListed",
          "type": "bool"
        },
        {
          "internalType": "uint256",
          "name": "collateralFactorMantissa",
          "type": "uint256"
        },
        {
          "internalType": "enum ComptrollerV1Storage.Version",
          "name": "version",
          "type": "uint8"
        }
      ],
      "payable": false,
      "stateMutability": "view",
      "type": "function"
    },
    {
      "constant": false,
      "inputs": [
        {
          "internalType": "address",
          "name": "cToken",
          "type": "address"
        },
        {
          "internalType": "address",
          "name": "minter",
          "type": "address"
        },
        {
          "internalType": "uint256",
          "name": "mintAmount",
          "type": "uint256"
        }
      ],
      "name": "mintAllowed",
      "outputs": [
        {
          "internalType": "uint256",
          "name": "",
          "type": "uint256"
        }
      ],
      "payable": false,
      "stateMutability": "nonpayable",
      "type": "function"
    },
    {
      "constant": true,
      "inputs": [
        {
          "internalType": "address",
          "name": "",
          "type": "address"
        }
      ],
      "name": "mintGuardianPaused",
      "outputs": [
        {
          "internalType": "bool",
          "name": "",
          "type": "bool"
        }
      ],
      "payable": false,
      "stateMutability": "view",
      "type": "function"
    },
    {
      "constant": false,
      "inputs": [
        {
          "internalType": "address",
          "name": "cToken",
          "type": "address"
        },
        {
          "internalType": "address",
          "name": "minter",
          "type": "address"
        },
        {
          "internalType": "uint256",
          "name": "actualMintAmount",
          "type": "uint256"
        },
        {
          "internalType": "uint256",
          "name": "mintTokens",
          "type": "uint256"
        }
      ],
      "name": "mintVerify",
      "outputs": [],
      "payable": false,
      "stateMutability": "nonpayable",
      "type": "function"
    },
    {
      "constant": true,
      "inputs": [],
      "name": "oracle",
      "outputs": [
        {
          "internalType": "contract PriceOracle",
          "name": "",
          "type": "address"
        }
      ],
      "payable": false,
      "stateMutability": "view",
      "type": "function"
    },
    {
      "constant": true,
      "inputs": [],
      "name": "pauseGuardian",
      "outputs": [
        {
          "internalType": "address",
          "name": "",
          "type": "address"
        }
      ],
      "payable": false,
      "stateMutability": "view",
      "type": "function"
    },
    {
      "constant": true,
      "inputs": [],
      "name": "pendingAdmin",
      "outputs": [
        {
          "internalType": "address",
          "name": "",
          "type": "address"
        }
      ],
      "payable": false,
      "stateMutability": "view",
      "type": "function"
    },
    {
      "constant": true,
      "inputs": [],
      "name": "pendingComptrollerImplementation",
      "outputs": [
        {
          "internalType": "address",
          "name": "",
          "type": "address"
        }
      ],
      "payable": false,
      "stateMutability": "view",
      "type": "function"
    },
    {
      "constant": false,
      "inputs": [
        {
          "internalType": "address",
          "name": "cToken",
          "type": "address"
        },
        {
          "internalType": "address",
          "name": "redeemer",
          "type": "address"
        },
        {
          "internalType": "uint256",
          "name": "redeemTokens",
          "type": "uint256"
        }
      ],
      "name": "redeemAllowed",
      "outputs": [
        {
          "internalType": "uint256",
          "name": "",
          "type": "uint256"
        }
      ],
      "payable": false,
      "stateMutability": "nonpayable",
      "type": "function"
    },
    {
      "constant": false,
      "inputs": [
        {
          "internalType": "address",
          "name": "cToken",
          "type": "address"
        },
        {
          "internalType": "address",
          "name": "redeemer",
          "type": "address"
        },
        {
          "internalType": "uint256",
          "name": "redeemAmount",
          "type": "uint256"
        },
        {
          "internalType": "uint256",
          "name": "redeemTokens",
          "type": "uint256"
        }
      ],
      "name": "redeemVerify",
      "outputs": [],
      "payable": false,
      "stateMutability": "nonpayable",
      "type": "function"
    },
    {
      "constant": false,
      "inputs": [
        {
          "internalType": "address",
          "name": "cToken",
          "type": "address"
        },
        {
          "internalType": "address",
          "name": "payer",
          "type": "address"
        },
        {
          "internalType": "address",
          "name": "borrower",
          "type": "address"
        },
        {
          "internalType": "uint256",
          "name": "repayAmount",
          "type": "uint256"
        }
      ],
      "name": "repayBorrowAllowed",
      "outputs": [
        {
          "internalType": "uint256",
          "name": "",
          "type": "uint256"
        }
      ],
      "payable": false,
      "stateMutability": "nonpayable",
      "type": "function"
    },
    {
      "constant": false,
      "inputs": [
        {
          "internalType": "address",
          "name": "cToken",
          "type": "address"
        },
        {
          "internalType": "address",
          "name": "payer",
          "type": "address"
        },
        {
          "internalType": "address",
          "name": "borrower",
          "type": "address"
        },
        {
          "internalType": "uint256",
          "name": "actualRepayAmount",
          "type": "uint256"
        },
        {
          "internalType": "uint256",
          "name": "borrowerIndex",
          "type": "uint256"
        }
      ],
      "name": "repayBorrowVerify",
      "outputs": [],
      "payable": false,
      "stateMutability": "nonpayable",
      "type": "function"
    },
    {
      "constant": false,
      "inputs": [
        {
          "internalType": "address",
          "name": "cTokenCollateral",
          "type": "address"
        },
        {
          "internalType": "address",
          "name": "cTokenBorrowed",
          "type": "address"
        },
        {
          "internalType": "address",
          "name": "liquidator",
          "type": "address"
        },
        {
          "internalType": "address",
          "name": "borrower",
          "type": "address"
        },
        {
          "internalType": "uint256",
          "name": "seizeTokens",
          "type": "uint256"
        }
      ],
      "name": "seizeAllowed",
      "outputs": [
        {
          "internalType": "uint256",
          "name": "",
          "type": "uint256"
        }
      ],
      "payable": false,
      "stateMutability": "nonpayable",
      "type": "function"
    },
    {
      "constant": true,
      "inputs": [],
      "name": "seizeGuardianPaused",
      "outputs": [
        {
          "internalType": "bool",
          "name": "",
          "type": "bool"
        }
      ],
      "payable": false,
      "stateMutability": "view",
      "type": "function"
    },
    {
      "constant": false,
      "inputs": [
        {
          "internalType": "address",
          "name": "cTokenCollateral",
          "type": "address"
        },
        {
          "internalType": "address",
          "name": "cTokenBorrowed",
          "type": "address"
        },
        {
          "internalType": "address",
          "name": "liquidator",
          "type": "address"
        },
        {
          "internalType": "address",
          "name": "borrower",
          "type": "address"
        },
        {
          "internalType": "uint256",
          "name": "seizeTokens",
          "type": "uint256"
        }
      ],
      "name": "seizeVerify",
      "outputs": [],
      "payable": false,
      "stateMutability": "nonpayable",
      "type": "function"
    },
    {
      "constant": true,
      "inputs": [],
      "name": "supplyCapGuardian",
      "outputs": [
        {
          "internalType": "address",
          "name": "",
          "type": "address"
        }
      ],
      "payable": false,
      "stateMutability": "view",
      "type": "function"
    },
    {
      "constant": true,
      "inputs": [
        {
          "internalType": "address",
          "name": "",
          "type": "address"
        }
      ],
      "name": "supplyCaps",
      "outputs": [
        {
          "internalType": "uint256",
          "name": "",
          "type": "uint256"
        }
      ],
      "payable": false,
      "stateMutability": "view",
      "type": "function"
    },
    {
      "constant": false,
      "inputs": [
        {
          "internalType": "address",
          "name": "cToken",
          "type": "address"
        },
        {
          "internalType": "address",
          "name": "src",
          "type": "address"
        },
        {
          "internalType": "address",
          "name": "dst",
          "type": "address"
        },
        {
          "internalType": "uint256",
          "name": "transferTokens",
          "type": "uint256"
        }
      ],
      "name": "transferAllowed",
      "outputs": [
        {
          "internalType": "uint256",
          "name": "",
          "type": "uint256"
        }
      ],
      "payable": false,
      "stateMutability": "nonpayable",
      "type": "function"
    },
    {
      "constant": true,
      "inputs": [],
      "name": "transferGuardianPaused",
      "outputs": [
        {
          "internalType": "bool",
          "name": "",
          "type": "bool"
        }
      ],
      "payable": false,
      "stateMutability": "view",
      "type": "function"
    },
    {
      "constant": false,
      "inputs": [
        {
          "internalType": "address",
          "name": "cToken",
          "type": "address"
        },
        {
          "internalType": "address",
          "name": "src",
          "type": "address"
        },
        {
          "internalType": "address",
          "name": "dst",
          "type": "address"
        },
        {
          "internalType": "uint256",
          "name": "transferTokens",
          "type": "uint256"
        }
      ],
      "name": "transferVerify",
      "outputs": [],
      "payable": false,
      "stateMutability": "nonpayable",
      "type": "function"
    },
    {
      "constant": false,
      "inputs": [
        {
          "internalType": "address",
          "name": "cToken",
          "type": "address"
        },
        {
          "internalType": "enum ComptrollerV1Storage.Version",
          "name": "newVersion",
          "type": "uint8"
        }
      ],
      "name": "updateCTokenVersion",
      "outputs": [],
      "payable": false,
      "stateMutability": "nonpayable",
      "type": "function"
    }
  ],
  "transactionHash": "0x45b237d43c0c497bf2318a17349c2e129c5bfac8603805acb7ff4def5e9f2c68",
  "args": [],
  "solcInputHash": "af94273bfeb935476334f847f3412514",
  "bytecode": "0x608060405234801561001057600080fd5b50600080546001600160a01b03191633179055614f67806100326000396000f3fe608060405234801561001057600080fd5b506004361061045e5760003560e01c80636d154ea51161024c578063bc93082b11610146578063dce15449116100c3578063ea5d010411610087578063ea5d0104146111e2578063eabe7d9114611208578063ede4edd01461123e578063f349760014611264578063f851a4401461128a5761045e565b8063dce1544914611172578063dcfbc0c71461119e578063e4028eee146111a6578063e6653f3d146111d2578063e8755446146111da5761045e565b8063cc7ebdc41161010a578063cc7ebdc414611084578063d02f7351146110aa578063d672d3e2146110f0578063d82ecc4814611116578063da3d454c1461113c5761045e565b8063bc93082b14610efe578063bdcdc25814610f2a578063c299823814610f66578063c488847b14611007578063ca0af043146110565761045e565b8063929fe9a1116101d4578063b0772d0b11610198578063b0772d0b14610e04578063b1ab78e614610e0c578063b1e1af2414610e9a578063b21be7fd14610ec8578063bb82aa5e14610ef65761045e565b8063929fe9a114610d2a57806399bc187314610d58578063a979f0c514610d7e578063abfceffc14610d86578063ac0b0bb714610dfc5761045e565b806385b2d5351161021b57806385b2d53514610c7957806387f7630314610c815780638c57804e14610c895780638e8f294b14610caf5780638ebf636414610d0b5761045e565b80636d154ea514610bdf5780636d35bf9114610c05578063731f0c2b14610c4b5780637dc0d1d014610c715761045e565b806342cbb15c1161035d57806351dff989116102e55780635f5af1aa116102a95780635f5af1aa14610a2b5780635fc7e71e14610a51578063607ef6c114610a975780636a56947e14610b555780636b79c38d14610b915761045e565b806351dff9891461095057806352d84d1e1461098c57806355ee1fe1146109a95780635c778605146109cf5780635ec88c7914610a055761045e565b80634ada90af1161032c5780634ada90af146107dd5780634e79238f146107e55780634ef4c3e11461083f5780634fd42e171461087557806351a485e4146108925761045e565b806342cbb15c1461073457806344e3de731461073c57806347ef3b3b1461076b5780634a584432146107b75761045e565b806326782247116103eb578063391957d7116103af578063391957d7146106765780633bcf7ec11461069c5780633c94786f146106ca5780633d98a1e5146106d257806341c728b9146106f85761045e565b806326782247146105dd5780632d70db78146105e5578063317b0b771461060457806336bdd0871461062157806338b8f4c3146106505761045e565b80631d7b33d7116104325780631d7b33d71461050d5780631ededc911461053357806321af45691461057557806324008a621461059957806324a3d622146105d55761045e565b80627e3dd21461046357806302c3bcbb1461047f57806318c882a5146104b75780631d504dc6146104e5575b600080fd5b61046b611292565b604080519115158252519081900360200190f35b6104a56004803603602081101561049557600080fd5b50356001600160a01b0316611297565b60408051918252519081900360200190f35b61046b600480360360408110156104cd57600080fd5b506001600160a01b03813516906020013515156112a9565b61050b600480360360208110156104fb57600080fd5b50356001600160a01b0316611438565b005b6104a56004803603602081101561052357600080fd5b50356001600160a01b0316611597565b61050b600480360360a081101561054957600080fd5b506001600160a01b038135811691602081013582169160408201351690606081013590608001356115a9565b61057d6115b0565b604080516001600160a01b039092168252519081900360200190f35b6104a5600480360360808110156105af57600080fd5b506001600160a01b038135811691602081013582169160408201351690606001356115bf565b61057d6115e4565b61057d6115f3565b61046b600480360360208110156105fb57600080fd5b50351515611602565b6104a56004803603602081101561061a57600080fd5b503561173c565b6104a56004803603604081101561063757600080fd5b5080356001600160a01b0316906020013560ff166117af565b61050b6004803603602081101561066657600080fd5b50356001600160a01b031661199a565b61050b6004803603602081101561068c57600080fd5b50356001600160a01b0316611a46565b61046b600480360360408110156106b257600080fd5b506001600160a01b0381351690602001351515611af2565b61046b611c7c565b61046b600480360360208110156106e857600080fd5b50356001600160a01b0316611c8c565b61050b6004803603608081101561070e57600080fd5b506001600160a01b03813581169160208101359091169060408101359060600135611caa565b6104a5611cb0565b61050b6004803603604081101561075257600080fd5b5080356001600160a01b0316906020013560ff16611cb5565b61050b600480360360c081101561078157600080fd5b506001600160a01b0381358116916020810135821691604082013581169160608101359091169060808101359060a00135611dc0565b6104a5600480360360208110156107cd57600080fd5b50356001600160a01b0316611dc8565b6104a5611dda565b610821600480360360808110156107fb57600080fd5b506001600160a01b03813581169160208101359091169060408101359060600135611de0565b60408051938452602084019290925282820152519081900360600190f35b6104a56004803603606081101561085557600080fd5b506001600160a01b03813581169160208101359091169060400135611e1a565b6104a56004803603602081101561088b57600080fd5b5035612136565b61050b600480360360408110156108a857600080fd5b810190602081018135600160201b8111156108c257600080fd5b8201836020820111156108d457600080fd5b803590602001918460208302840111600160201b831117156108f557600080fd5b919390929091602081019035600160201b81111561091257600080fd5b82018360208201111561092457600080fd5b803590602001918460208302840111600160201b8311171561094557600080fd5b50909250905061219f565b61050b6004803603608081101561096657600080fd5b506001600160a01b0381358116916020810135909116906040810135906060013561232f565b61057d600480360360208110156109a257600080fd5b5035612383565b6104a5600480360360208110156109bf57600080fd5b50356001600160a01b03166123aa565b61050b600480360360608110156109e557600080fd5b506001600160a01b0381358116916020810135909116906040013561242f565b61082160048036036020811015610a1b57600080fd5b50356001600160a01b0316612434565b6104a560048036036020811015610a4157600080fd5b50356001600160a01b0316612469565b6104a5600480360360a0811015610a6757600080fd5b506001600160a01b03813581169160208101358216916040820135811691606081013590911690608001356124ed565b61050b60048036036040811015610aad57600080fd5b810190602081018135600160201b811115610ac757600080fd5b820183602082011115610ad957600080fd5b803590602001918460208302840111600160201b83111715610afa57600080fd5b919390929091602081019035600160201b811115610b1757600080fd5b820183602082011115610b2957600080fd5b803590602001918460208302840111600160201b83111715610b4a57600080fd5b509092509050612687565b61050b60048036036080811015610b6b57600080fd5b506001600160a01b03813581169160208101358216916040820135169060600135611caa565b610bb760048036036020811015610ba757600080fd5b50356001600160a01b031661280e565b604080516001600160e01b03909316835263ffffffff90911660208301528051918290030190f35b61046b60048036036020811015610bf557600080fd5b50356001600160a01b0316612838565b61050b600480360360a0811015610c1b57600080fd5b506001600160a01b03813581169160208101358216916040820135811691606081013590911690608001356115a9565b61046b60048036036020811015610c6157600080fd5b50356001600160a01b031661284d565b61057d612862565b61057d612871565b61046b612880565b610bb760048036036020811015610c9f57600080fd5b50356001600160a01b0316612890565b610cd560048036036020811015610cc557600080fd5b50356001600160a01b03166128ba565b6040518084151515158152602001838152602001826002811115610cf557fe5b60ff168152602001935050505060405180910390f35b61046b60048036036020811015610d2157600080fd5b503515156128e0565b61046b60048036036040811015610d4057600080fd5b506001600160a01b0381358116916020013516612a19565b6104a560048036036020811015610d6e57600080fd5b50356001600160a01b0316612a4c565b61057d612a5e565b610dac60048036036020811015610d9c57600080fd5b50356001600160a01b0316612a6d565b60408051602080825283518183015283519192839290830191858101910280838360005b83811015610de8578181015183820152602001610dd0565b505050509050019250505060405180910390f35b61046b612af6565b610dac612b06565b61046b60048036036080811015610e2257600080fd5b6001600160a01b03823581169260208101359091169160408201359190810190608081016060820135600160201b811115610e5c57600080fd5b820183602082011115610e6e57600080fd5b803590602001918460018302840111600160201b83111715610e8f57600080fd5b509092509050612b68565b61046b60048036036040811015610eb057600080fd5b506001600160a01b0381351690602001351515612b8b565b6104a560048036036040811015610ede57600080fd5b506001600160a01b0381358116916020013516612d1a565b61057d612d37565b61050b60048036036040811015610f1457600080fd5b506001600160a01b038135169060200135612d46565b6104a560048036036080811015610f4057600080fd5b506001600160a01b03813581169160208101358216916040820135169060600135612de8565b610dac60048036036020811015610f7c57600080fd5b810190602081018135600160201b811115610f9657600080fd5b820183602082011115610fa857600080fd5b803590602001918460208302840111600160201b83111715610fc957600080fd5b919080806020026020016040519081016040528093929190818152602001838360200280828437600092019190915250929550612e8f945050505050565b61103d6004803603606081101561101d57600080fd5b506001600160a01b03813581169160208101359091169060400135612f26565b6040805192835260208301919091528051918290030190f35b6104a56004803603604081101561106c57600080fd5b506001600160a01b038135811691602001351661314e565b6104a56004803603602081101561109a57600080fd5b50356001600160a01b031661316b565b6104a5600480360360a08110156110c057600080fd5b506001600160a01b038135811691602081013582169160408201358116916060810135909116906080013561317d565b61046b6004803603602081101561110657600080fd5b50356001600160a01b0316613349565b61046b6004803603602081101561112c57600080fd5b50356001600160a01b031661335e565b6104a56004803603606081101561115257600080fd5b506001600160a01b0381358116916020810135909116906040013561337b565b61057d6004803603604081101561118857600080fd5b506001600160a01b0381351690602001356136b0565b61057d6136e5565b6104a5600480360360408110156111bc57600080fd5b506001600160a01b0381351690602001356136f4565b61046b6138a4565b6104a56138b4565b61050b600480360360208110156111f857600080fd5b50356001600160a01b03166138ba565b6104a56004803603606081101561121e57600080fd5b506001600160a01b03813581169160208101359091169060400135613a26565b6104a56004803603602081101561125457600080fd5b50356001600160a01b0316613a33565b61050b6004803603602081101561127a57600080fd5b50356001600160a01b0316613dd4565b61057d6140ef565b600181565b60166020526000908152604090205481565b60006112b483611c8c565b6112ef5760405162461bcd60e51b8152600401808060200182810382526028815260200180614d496028913960400191505060405180910390fd5b6009546001600160a01b031633148061131257506000546001600160a01b031633145b61134d5760405162461bcd60e51b8152600401808060200182810382526027815260200180614df46027913960400191505060405180910390fd5b6000546001600160a01b031633148061136857506001821515145b6113b2576040805162461bcd60e51b81526020600482015260166024820152756f6e6c792061646d696e2063616e20756e706175736560501b604482015290519081900360640190fd5b6001600160a01b0383166000818152600b6020908152604091829020805486151560ff199091168117909155825193845283830152606090830181905260069083015265426f72726f7760d01b6080830152517f71aec636243f9709bb0007ae15e9afb8150ab01716d75fd7573be5cc096e03b09181900360a00190a150805b92915050565b806001600160a01b031663f851a4406040518163ffffffff1660e01b815260040160206040518083038186803b15801561147157600080fd5b505afa158015611485573d6000803e3d6000fd5b505050506040513d602081101561149b57600080fd5b50516001600160a01b031633146114e35760405162461bcd60e51b8152600401808060200182810382526027815260200180614f0c6027913960400191505060405180910390fd5b806001600160a01b031663c1e803346040518163ffffffff1660e01b8152600401602060405180830381600087803b15801561151e57600080fd5b505af1158015611532573d6000803e3d6000fd5b505050506040513d602081101561154857600080fd5b505115611594576040805162461bcd60e51b815260206004820152601560248201527418da185b99d9481b9bdd08185d5d1a1bdc9a5e9959605a1b604482015290519081900360640190fd5b50565b600d6020526000908152604090205481565b5050505050565b6013546001600160a01b031681565b60006115ca85611c8c565b6115d6575060096115dc565b60005b90505b949350505050565b6009546001600160a01b031681565b6001546001600160a01b031681565b6009546000906001600160a01b031633148061162857506000546001600160a01b031633145b6116635760405162461bcd60e51b8152600401808060200182810382526027815260200180614df46027913960400191505060405180910390fd5b6000546001600160a01b031633148061167e57506001821515145b6116c8576040805162461bcd60e51b81526020600482015260166024820152756f6e6c792061646d696e2063616e20756e706175736560501b604482015290519081900360640190fd5b60098054831515600160b81b810260ff60b81b1990921691909117909155604080516020810192909252808252600582820152645365697a6560d81b6060830152517fef159d9a32b2472e32b098f954f3ce62d232939f1c207070b584df1814de2de09181900360800190a150805b919050565b600080546001600160a01b031633146117625761175b600160046140fe565b9050611737565b6005805490839055604080518281526020810185905281517f3b9670cf975d26958e754b57098eaa2ac914d8d2a31b83257997b9f346110fd9929181900390910190a160005b9392505050565b600080546001600160a01b0316331461180f576040805162461bcd60e51b815260206004820152601d60248201527f6f6e6c792061646d696e206d617920737570706f7274206d61726b6574000000604482015290519081900360640190fd5b61181883611c8c565b15611862576040805162461bcd60e51b81526020600482015260156024820152741b585c9ad95d08185b1c9958591e481b1a5cdd1959605a1b604482015290519081900360640190fd5b826001600160a01b031663fe9c44ae6040518163ffffffff1660e01b815260040160206040518083038186803b15801561189b57600080fd5b505afa1580156118af573d6000803e3d6000fd5b505050506040513d60208110156118c557600080fd5b50506040805160608101825260018152600060208201529081018360028111156118eb57fe5b90526001600160a01b0384166000908152600860209081526040918290208351815490151560ff199182161782559184015160018083019190915592840151600382018054929491939092169083600281111561194457fe5b021790555090505061195583614164565b604080516001600160a01b038516815290517fcf583bb0c569eb967f806b11601c4cb93c10310485c67add5f8362c2f212321f9181900360200190a160009392505050565b6000546001600160a01b031633146119e35760405162461bcd60e51b8152600401808060200182810382526026815260200180614e646026913960400191505060405180910390fd5b601580546001600160a01b038381166001600160a01b0319831681179093556040805191909216808252602082019390935281517fb0d3622c24ac9bd967d8f37a25808b3e668fe7ed4f3075bbe82842d3e287c044929181900390910190a15050565b6000546001600160a01b03163314611a8f5760405162461bcd60e51b8152600401808060200182810382526026815260200180614e1b6026913960400191505060405180910390fd5b601380546001600160a01b038381166001600160a01b0319831681179093556040805191909216808252602082019390935281517feda98690e518e9a05f8ec6837663e188211b2da8f4906648b323f2c1d4434e29929181900390910190a15050565b6000611afd83611c8c565b611b385760405162461bcd60e51b8152600401808060200182810382526028815260200180614d496028913960400191505060405180910390fd5b6009546001600160a01b0316331480611b5b57506000546001600160a01b031633145b611b965760405162461bcd60e51b8152600401808060200182810382526027815260200180614df46027913960400191505060405180910390fd5b6000546001600160a01b0316331480611bb157506001821515145b611bfb576040805162461bcd60e51b81526020600482015260166024820152756f6e6c792061646d696e2063616e20756e706175736560501b604482015290519081900360640190fd5b6001600160a01b0383166000818152600a6020908152604091829020805486151560ff199091168117909155825193845283830152606090830181905260049083015263135a5b9d60e21b6080830152517f71aec636243f9709bb0007ae15e9afb8150ab01716d75fd7573be5cc096e03b09181900360a00190a150919050565b600954600160a01b900460ff1681565b6001600160a01b031660009081526008602052604090205460ff1690565b50505050565b425b90565b336001600160a01b03831614611cfc5760405162461bcd60e51b8152600401808060200182810382526024815260200180614d716024913960400191505060405180910390fd5b611d0582611c8c565b15611dbc576001600160a01b0382166000908152600860205260409020600301805460ff811691839160ff19166001836002811115611d4057fe5b02179055507f98dee10aa964316ab03f317c320c9dafb4f29c7f9de510cb35196f727a4d2f0383828460405180846001600160a01b03166001600160a01b03168152602001836002811115611d9157fe5b60ff168152602001826002811115611da557fe5b60ff168152602001935050505060405180910390a1505b5050565b505050505050565b60146020526000908152604090205481565b60065481565b600080600080600080611df58a8a8a8a614242565b925092509250826011811115611e0757fe5b95509093509150505b9450945094915050565b6001600160a01b0383166000908152600a602052604081205460ff1615611e79576040805162461bcd60e51b815260206004820152600e60248201526d1b5a5b9d081a5cc81c185d5cd95960921b604482015290519081900360640190fd5b611e828361335e565b15611ed4576040805162461bcd60e51b815260206004820152601a60248201527f637265646974206163636f756e742063616e6e6f74206d696e74000000000000604482015290519081900360640190fd5b611edd84611c8c565b611eeb5760095b90506117a8565b6001600160a01b038416600090815260166020526040902054801561212a576000856001600160a01b0316633b1d21a26040518163ffffffff1660e01b815260040160206040518083038186803b158015611f4557600080fd5b505afa158015611f59573d6000803e3d6000fd5b505050506040513d6020811015611f6f57600080fd5b5051604080516308f7a6e360e31b815290519192506000916001600160a01b038916916347bd3718916004808301926020929190829003018186803b158015611fb757600080fd5b505afa158015611fcb573d6000803e3d6000fd5b505050506040513d6020811015611fe157600080fd5b505160408051638f840ddd60e01b815290519192506000916001600160a01b038a1691638f840ddd916004808301926020929190829003018186803b15801561202957600080fd5b505afa15801561203d573d6000803e3d6000fd5b505050506040513d602081101561205357600080fd5b50519050600080612065858585614623565b9092509050600082600381111561207857fe5b146120c1576040805162461bcd60e51b81526020600482015260146024820152731d1bdd185b14dd5c1c1b1a595cc819985a5b195960621b604482015290519081900360640190fd5b60006120cd828a61466f565b9050868110612123576040805162461bcd60e51b815260206004820152601960248201527f6d61726b657420737570706c7920636170207265616368656400000000000000604482015290519081900360640190fd5b5050505050505b60005b95945050505050565b600080546001600160a01b031633146121555761175b6001600b6140fe565b6006805490839055604080518281526020810185905281517faeba5a6c40a8ac138134bff1aaa65debf25971188a58804bad717f82f0ec1316929181900390910190a160006117a8565b6000546001600160a01b03163314806121c257506015546001600160a01b031633145b6121fd5760405162461bcd60e51b8152600401808060200182810382526035815260200180614d956035913960400191505060405180910390fd5b8281811580159061220d57508082145b61224e576040805162461bcd60e51b815260206004820152600d60248201526c1a5b9d985b1a59081a5b9c1d5d609a1b604482015290519081900360640190fd5b60005b828110156123265784848281811061226557fe5b905060200201356016600089898581811061227c57fe5b905060200201356001600160a01b03166001600160a01b03166001600160a01b03168152602001908152602001600020819055508686828181106122bc57fe5b905060200201356001600160a01b03166001600160a01b03167f9e0ad9cee10bdf36b7fbd38910c0bdff0f275ace679b45b922381c2723d676f886868481811061230257fe5b905060200201356040518082815260200191505060405180910390a2600101612251565b50505050505050565b8015801561233d5750600082115b15611caa576040805162461bcd60e51b815260206004820152601160248201527072656465656d546f6b656e73207a65726f60781b604482015290519081900360640190fd5b600c818154811061239057fe5b6000918252602090912001546001600160a01b0316905081565b600080546001600160a01b031633146123c95761175b600160106140fe565b600480546001600160a01b038481166001600160a01b0319831681179093556040805191909216808252602082019390935281517fd52b2b9b7e9ee655fcb95d2e5b9e0c9f69e7ef2b8e9d2d0ea78402d576d22e22929181900390910190a160006117a8565b505050565b60008060008060008061244b876000806000614242565b92509250925082601181111561245d57fe5b97919650945092505050565b600080546001600160a01b031633146124885761175b600160136140fe565b600980546001600160a01b038481166001600160a01b0319831617928390556040805192821680845293909116602083015280517f0613b6ee6a04f0d09f390e4d9318894b9f6ac7fd83897cd8d18896ba579c401e9281900390910190a160006117a8565b60006124f88361335e565b1561254a576040805162461bcd60e51b815260206004820152601f60248201527f63616e6e6f74206c697175696461746520637265646974206163636f756e7400604482015290519081900360640190fd5b61255386611c8c565b1580612565575061256385611c8c565b155b156125745760095b905061212d565b600080612580856146a5565b9193509091506000905082601181111561259657fe5b146125b0578160118111156125a757fe5b9250505061212d565b806125bc5760036125a7565b6000886001600160a01b03166395dd9193876040518263ffffffff1660e01b815260040180826001600160a01b03166001600160a01b0316815260200191505060206040518083038186803b15801561261457600080fd5b505afa158015612628573d6000803e3d6000fd5b505050506040513d602081101561263e57600080fd5b50516040805160208101909152600554815290915060009061266090836146c5565b90508086111561267757601194505050505061212d565b5060009998505050505050505050565b6000546001600160a01b03163314806126aa57506013546001600160a01b031633145b6126e55760405162461bcd60e51b8152600401808060200182810382526035815260200180614eb26035913960400191505060405180910390fd5b828181158015906126f557508082145b612736576040805162461bcd60e51b815260206004820152600d60248201526c1a5b9d985b1a59081a5b9c1d5d609a1b604482015290519081900360640190fd5b60005b828110156123265784848281811061274d57fe5b905060200201356014600089898581811061276457fe5b905060200201356001600160a01b03166001600160a01b03166001600160a01b03168152602001908152602001600020819055508686828181106127a457fe5b905060200201356001600160a01b03166001600160a01b03167f6f1951b2aad10f3fc81b86d91105b413a5b3f847a34bbc5ce1904201b14438f68686848181106127ea57fe5b905060200201356040518082815260200191505060405180910390a2600101612739565b600e602052600090815260409020546001600160e01b03811690600160e01b900463ffffffff1682565b600b6020526000908152604090205460ff1681565b600a6020526000908152604090205460ff1681565b6004546001600160a01b031681565b6019546001600160a01b031681565b600954600160b01b900460ff1681565b600f602052600090815260409020546001600160e01b03811690600160e01b900463ffffffff1682565b60086020526000908152604090208054600182015460039092015460ff91821692911683565b6009546000906001600160a01b031633148061290657506000546001600160a01b031633145b6129415760405162461bcd60e51b8152600401808060200182810382526027815260200180614df46027913960400191505060405180910390fd5b6000546001600160a01b031633148061295c57506001821515145b6129a6576040805162461bcd60e51b81526020600482015260166024820152756f6e6c792061646d696e2063616e20756e706175736560501b604482015290519081900360640190fd5b60098054831515600160b01b810260ff60b01b1990921691909117909155604080516020810192909252808252600882820152672a3930b739b332b960c11b6060830152517fef159d9a32b2472e32b098f954f3ce62d232939f1c207070b584df1814de2de09181900360800190a15090565b6001600160a01b038082166000908152600860209081526040808320938616835260029093019052205460ff1692915050565b60176020526000908152604090205481565b6015546001600160a01b031681565b60608060076000846001600160a01b03166001600160a01b03168152602001908152602001600020805480602002602001604051908101604052809291908181526020018280548015612ae957602002820191906000526020600020905b81546001600160a01b03168152600190910190602001808311612acb575b5093979650505050505050565b600954600160b81b900460ff1681565b6060600c805480602002602001604051908101604052809291908181526020018280548015612b5e57602002820191906000526020600020905b81546001600160a01b03168152600190910190602001808311612b40575b5050505050905090565b505050506001600160a01b031660009081526018602052604090205460ff161590565b6000612b9683611c8c565b612bd15760405162461bcd60e51b8152600401808060200182810382526028815260200180614d496028913960400191505060405180910390fd5b6009546001600160a01b0316331480612bf457506000546001600160a01b031633145b612c2f5760405162461bcd60e51b8152600401808060200182810382526027815260200180614df46027913960400191505060405180910390fd5b6000546001600160a01b0316331480612c4a57506001821515145b612c94576040805162461bcd60e51b81526020600482015260166024820152756f6e6c792061646d696e2063616e20756e706175736560501b604482015290519081900360640190fd5b6001600160a01b038316600081815260186020908152604091829020805486151560ff199091168117909155825193845283830152606090830181905260099083015268233630b9b43637b0b760b91b6080830152517f71aec636243f9709bb0007ae15e9afb8150ab01716d75fd7573be5cc096e03b09181900360a00190a150919050565b601060209081526000928352604080842090915290825290205481565b6002546001600160a01b031681565b6000546001600160a01b03163314612d8f5760405162461bcd60e51b8152600401808060200182810382526028815260200180614e8a6028913960400191505060405180910390fd5b6001600160a01b0382166000818152601760209081526040918290208490558151928352820183905280517facba5197b02f201109f99752a9adb58c2598809f6acb3c34b7f1445f0cbeee879281900390910190a15050565b600954600090600160b01b900460ff1615612e3f576040805162461bcd60e51b81526020600482015260126024820152711d1c985b9cd9995c881a5cc81c185d5cd95960721b604482015290519081900360640190fd5b612e488361335e565b15612e845760405162461bcd60e51b8152600401808060200182810382526023815260200180614e416023913960400191505060405180910390fd5b6115d98585846146e4565b6060600082519050606081604051908082528060200260200182016040528015612ec3578160200160208202803883390190505b50905060005b82811015612f1e576000858281518110612edf57fe5b60200260200101519050612ef3813361477f565b6011811115612efe57fe5b838381518110612f0a57fe5b602090810291909101015250600101612ec9565b509392505050565b600480546040805163fc57d4df60e01b81526001600160a01b038781169482019490945290516000938493849391169163fc57d4df91602480820192602092909190829003018186803b158015612f7c57600080fd5b505afa158015612f90573d6000803e3d6000fd5b505050506040513d6020811015612fa657600080fd5b5051600480546040805163fc57d4df60e01b81526001600160a01b038a8116948201949094529051939450600093929091169163fc57d4df91602480820192602092909190829003018186803b158015612fff57600080fd5b505afa158015613013573d6000803e3d6000fd5b505050506040513d602081101561302957600080fd5b50519050811580613038575080155b1561304d57600d935060009250613146915050565b6000866001600160a01b031663182df0f56040518163ffffffff1660e01b815260040160206040518083038186803b15801561308857600080fd5b505afa15801561309c573d6000803e3d6000fd5b505050506040513d60208110156130b257600080fd5b505190506130be614c89565b6130e66040518060200160405280600654815250604051806020016040528087815250614915565b90506130f0614c89565b613116604051806020016040528086815250604051806020016040528086815250614915565b9050613120614c89565b61312a8383614954565b90506000613138828b6146c5565b600099509750505050505050505b935093915050565b601160209081526000928352604080842090915290825290205481565b60126020526000908152604090205481565b600954600090600160b81b900460ff16156131d1576040805162461bcd60e51b815260206004820152600f60248201526e1cd95a5e99481a5cc81c185d5cd959608a1b604482015290519081900360640190fd5b6131da8361335e565b1561322c576040805162461bcd60e51b815260206004820181905260248201527f63616e6e6f74207369657a652066726f6d20637265646974206163636f756e74604482015290519081900360640190fd5b61323586611c8c565b1580613247575061324585611c8c565b155b1561325357600961256d565b846001600160a01b0316635fe3b5676040518163ffffffff1660e01b815260040160206040518083038186803b15801561328c57600080fd5b505afa1580156132a0573d6000803e3d6000fd5b505050506040513d60208110156132b657600080fd5b505160408051635fe3b56760e01b815290516001600160a01b0392831692891691635fe3b567916004808301926020929190829003018186803b1580156132fc57600080fd5b505afa158015613310573d6000803e3d6000fd5b505050506040513d602081101561332657600080fd5b50516001600160a01b03161461333d57600261256d565b60009695505050505050565b60186020526000908152604090205460ff1681565b6001600160a01b0316600090815260176020526040902054151590565b6001600160a01b0383166000908152600b602052604081205460ff16156133dc576040805162461bcd60e51b815260206004820152601060248201526f189bdc9c9bddc81a5cc81c185d5cd95960821b604482015290519081900360640190fd5b6133e584611c8c565b6133f0576009611ee4565b6001600160a01b038085166000908152600860209081526040808320938716835260029093019052205460ff166134e057336001600160a01b03851614613476576040805162461bcd60e51b815260206004820152601560248201527439b2b73232b91036bab9ba1031329031aa37b5b2b760591b604482015290519081900360640190fd5b6000613482858561477f565b9050600081601181111561349257fe5b146134ab578060118111156134a357fe5b9150506117a8565b6001600160a01b038086166000908152600860209081526040808320938816835260029093019052205460ff166134de57fe5b505b600480546040805163fc57d4df60e01b81526001600160a01b03888116948201949094529051929091169163fc57d4df91602480820192602092909190829003018186803b15801561353157600080fd5b505afa158015613545573d6000803e3d6000fd5b505050506040513d602081101561355b57600080fd5b505161356857600d611ee4565b6001600160a01b0384166000908152601460205260409020548015613655576000856001600160a01b03166347bd37186040518163ffffffff1660e01b815260040160206040518083038186803b1580156135c257600080fd5b505afa1580156135d6573d6000803e3d6000fd5b505050506040513d60208110156135ec57600080fd5b5051905060006135fc828661466f565b9050828110613652576040805162461bcd60e51b815260206004820152601960248201527f6d61726b657420626f72726f7720636170207265616368656400000000000000604482015290519081900360640190fd5b50505b6000806136658688600088614242565b9193509091506000905082601181111561367b57fe5b146136965781601181111561368c57fe5b93505050506117a8565b80156136a357600461368c565b6000979650505050505050565b600760205281600052604060002081815481106136c957fe5b6000918252602090912001546001600160a01b03169150829050565b6003546001600160a01b031681565b600080546001600160a01b0316331461371a57613713600160066140fe565b9050611432565b6001600160a01b0383166000908152600860205260409020805460ff1661374f57613747600960076140fe565b915050611432565b613757614c89565b50604080516020810190915283815261376e614c89565b506040805160208101909152670c7d713b49da0000815261378f8183614990565b156137aa576137a0600660086140fe565b9350505050611432565b84158015906138335750600480546040805163fc57d4df60e01b81526001600160a01b038a8116948201949094529051929091169163fc57d4df91602480820192602092909190829003018186803b15801561380557600080fd5b505afa158015613819573d6000803e3d6000fd5b505050506040513d602081101561382f57600080fd5b5051155b15613844576137a0600d60096140fe565b60018301805490869055604080516001600160a01b03891681526020810183905280820188905290517f70483e6592cd5182d45ac970e05bc62cdcc90e9d8ef2c2dbe686cf383bcd7fc59181900360600190a16000979650505050505050565b600954600160a81b900460ff1681565b60055481565b6000546001600160a01b031633146139035760405162461bcd60e51b815260040180806020018281038252602a815260200180614dca602a913960400191505060405180910390fd5b306001600160a01b0316816001600160a01b0316635fe3b5676040518163ffffffff1660e01b815260040160206040518083038186803b15801561394657600080fd5b505afa15801561395a573d6000803e3d6000fd5b505050506040513d602081101561397057600080fd5b50516001600160a01b0316146139c4576040805162461bcd60e51b815260206004820152601460248201527336b4b9b6b0ba31b41031b7b6b83a3937b63632b960611b604482015290519081900360640190fd5b601980546001600160a01b038381166001600160a01b0319831617928390556040805192821680845293909116602083015280517f4247a233ab0926daf14619c57e7d333975443a34cc5e1a30478bc4e7e716c8a29281900390910190a15050565b60006115dc8484846146e4565b6000808290506000806000836001600160a01b031663c37f68e2336040518263ffffffff1660e01b815260040180826001600160a01b03166001600160a01b0316815260200191505060806040518083038186803b158015613a9457600080fd5b505afa158015613aa8573d6000803e3d6000fd5b505050506040513d6080811015613abe57600080fd5b508051602082015160409092015190945090925090508215613b115760405162461bcd60e51b8152600401808060200182810382526025815260200180614ee76025913960400191505060405180910390fd5b8015613b2e57613b23600c60026140fe565b945050505050611737565b6000613b3b8733856146e4565b90508015613b5c57613b50600e600383614997565b95505050505050611737565b6001600160a01b03871660009081526008602052604090206001600382015460ff166002811115613b8957fe5b1415613bef5760408051638b35776b60e01b815233600482015290516001600160a01b038a1691638b35776b91602480830192600092919082900301818387803b158015613bd657600080fd5b505af1158015613bea573d6000803e3d6000fd5b505050505b33600090815260028201602052604090205460ff16613c175760009650505050505050611737565b3360009081526002820160209081526040808320805460ff191690556007825291829020805483518184028101840190945280845260609392830182828015613c8957602002820191906000526020600020905b81546001600160a01b03168152600190910190602001808311613c6b575b5050835193945083925060009150505b82811015613cde57896001600160a01b0316848281518110613cb757fe5b60200260200101516001600160a01b03161415613cd657809150613cde565b600101613c99565b50818110613ce857fe5b3360009081526007602052604090208054600019018214613d6e57805481906000198101908110613d1557fe5b9060005260206000200160009054906101000a90046001600160a01b0316818381548110613d3f57fe5b9060005260206000200160006101000a8154816001600160a01b0302191690836001600160a01b031602179055505b8054613d7e826000198301614c9c565b50604080516001600160a01b038c16815233602082015281517fe699a64c18b07ac5b7301aa273f36a2287239eb9501d81950672794afba29a0d929181900390910190a160009c9b505050505050505050505050565b6000546001600160a01b03163314613e33576040805162461bcd60e51b815260206004820152601c60248201527f6f6e6c792061646d696e206d61792064656c697374206d61726b657400000000604482015290519081900360640190fd5b613e3c81611c8c565b613e81576040805162461bcd60e51b81526020600482015260116024820152701b585c9ad95d081b9bdd081b1a5cdd1959607a1b604482015290519081900360640190fd5b806001600160a01b03166318160ddd6040518163ffffffff1660e01b815260040160206040518083038186803b158015613eba57600080fd5b505afa158015613ece573d6000803e3d6000fd5b505050506040513d6020811015613ee457600080fd5b505115613f2b576040805162461bcd60e51b815260206004820152601060248201526f6d61726b6574206e6f7420656d70747960801b604482015290519081900360640190fd5b806001600160a01b031663fe9c44ae6040518163ffffffff1660e01b815260040160206040518083038186803b158015613f6457600080fd5b505afa158015613f78573d6000803e3d6000fd5b505050506040513d6020811015613f8e57600080fd5b50506001600160a01b0381166000908152600860205260408120805460ff199081168255600182018390556003909101805490911690555b600c548110156140af57816001600160a01b0316600c8281548110613fe757fe5b6000918252602090912001546001600160a01b031614156140a757600c8054600019810190811061401457fe5b600091825260209091200154600c80546001600160a01b03909216918390811061403a57fe5b600091825260209091200180546001600160a01b0319166001600160a01b0392909216919091179055600c8054600019810190811061407557fe5b600091825260209091200180546001600160a01b0319169055600c8054906140a1906000198301614c9c565b506140af565b600101613fc6565b50604080516001600160a01b038316815290517f9710c341258431a6380fd1febe8985e6b6221e8398c287ea971f2ba85a6e1a109181900360200190a150565b6000546001600160a01b031681565b60007f45b96fe442630264581b197e84bbada861235052c5a1aadfff9ea4e40a969aa083601181111561412d57fe5b83601381111561413957fe5b604080519283526020830191909152600082820152519081900360600190a18260118111156117a857fe5b60005b600c548110156141ef57816001600160a01b0316600c828154811061418857fe5b6000918252602090912001546001600160a01b031614156141e7576040805162461bcd60e51b81526020600482015260146024820152731b585c9ad95d08185b1c9958591e48185919195960621b604482015290519081900360640190fd5b600101614167565b50600c80546001810182556000919091527fdf6966c971051c3d54ec59162606531493a51404a002842f56009d7e5cf4a8c70180546001600160a01b0319166001600160a01b0392909216919091179055565b6001600160a01b038416600090815260176020526040812054819081906000191415614278575060009150600019905081611e10565b614280614cc0565b6001600160a01b038816600090815260076020908152604080832080548251818502810185019093528083526060938301828280156142e857602002820191906000526020600020905b81546001600160a01b031681526001909101906020018083116142ca575b50939450600093505050505b81518110156145aa57600082828151811061430b57fe5b60200260200101519050806001600160a01b031663c37f68e28d6040518263ffffffff1660e01b815260040180826001600160a01b03166001600160a01b0316815260200191505060806040518083038186803b15801561436b57600080fd5b505afa15801561437f573d6000803e3d6000fd5b505050506040513d608081101561439557600080fd5b508051602082015160408084015160609485015160808b01529389019390935291870191909152935083156143da5750600f965060009550859450611e109350505050565b60408501511580156143ee57506060850151155b801561440c57508a6001600160a01b0316816001600160a01b031614155b1561441757506145a2565b60408051602080820183526001600160a01b0380851660008181526008845285902060010154845260c08a01939093528351808301855260808a0151815260e08a015260048054855163fc57d4df60e01b815291820194909452935192169263fc57d4df9260248083019392829003018186803b15801561449757600080fd5b505afa1580156144ab573d6000803e3d6000fd5b505050506040513d60208110156144c157600080fd5b505160a086018190526144e45750600d965060009550859450611e109350505050565b604080516020810190915260a0860151815261010086015260c085015160e086015161451e9161451391614915565b866101000151614915565b6101208601819052604086015186516145389291906149fd565b8552610100850151606086015160208701516145559291906149fd565b60208601526001600160a01b03818116908c1614156145a0576145828561012001518b87602001516149fd565b6020860181905261010086015161459a918b906149fd565b60208601525b505b6001016142f4565b506001600160a01b038a16600090815260176020526040902054156145e5576001600160a01b038a1660009081526017602052604090205483525b60208301518351111561460a5750506020810151905160009450039150829050611e10565b5050805160209091015160009450849350039050611e10565b6000806000806146338787614a25565b9092509050600082600381111561464657fe5b146146575750915060009050613146565b6146618186614a4e565b935093505050935093915050565b60006117a88383604051806040016040528060118152602001706164646974696f6e206f766572666c6f7760781b815250614a71565b60008060006146b8846000806000614242565b9250925092509193909250565b60006146cf614c89565b6146d98484614b0c565b90506115dc81614b2d565b60006146ef84611c8c565b6146fa576009611ee4565b6001600160a01b038085166000908152600860209081526040808320938716835260029093019052205460ff16614732576000611ee4565b6000806147428587866000614242565b9193509091506000905082601181111561475857fe5b146147725781601181111561476957fe5b925050506117a8565b801561333d576004614769565b6001600160a01b0382166000908152600860205260408120805460ff166147aa576009915050611432565b6001600382015460ff1660028111156147bf57fe5b141561484a57836001600160a01b0316638897bd85846040518263ffffffff1660e01b815260040180826001600160a01b03166001600160a01b03168152602001915050602060405180830381600087803b15801561481d57600080fd5b505af1158015614831573d6000803e3d6000fd5b505050506040513d602081101561484757600080fd5b50505b6001600160a01b038316600090815260028201602052604090205460ff1615156001141561487c576000915050611432565b6001600160a01b0380841660008181526002840160209081526040808320805460ff19166001908117909155600783528184208054918201815584529282902090920180549489166001600160a01b031990951685179055815193845283019190915280517f3ab23ab0d51cccc0c3085aec51f99228625aa1a922b3a8ca89a26b0f2027a1a59281900390910190a15060009392505050565b61491d614c89565b6040518060200160405280670de0b6b3a764000061494386600001518660000151614b3c565b8161494a57fe5b0490529392505050565b61495c614c89565b60405180602001604052806149876149808660000151670de0b6b3a7640000614b3c565b8551614b7e565b90529392505050565b5190511090565b60007f45b96fe442630264581b197e84bbada861235052c5a1aadfff9ea4e40a969aa08460118111156149c657fe5b8460138111156149d257fe5b604080519283526020830191909152818101859052519081900360600190a18360118111156115dc57fe5b6000614a07614c89565b614a118585614b0c565b905061212d614a1f82614b2d565b8461466f565b600080838301848110614a3d57600092509050614a47565b5060029150600090505b9250929050565b600080838311614a65575060009050818303614a47565b50600390506000614a47565b60008383018285821015614b035760405162461bcd60e51b81526004018080602001828103825283818151815260200191508051906020019080838360005b83811015614ac8578181015183820152602001614ab0565b50505050905090810190601f168015614af55780820380516001836020036101000a031916815260200191505b509250505060405180910390fd5b50949350505050565b614b14614c89565b6040518060200160405280614987856000015185614b3c565b51670de0b6b3a7640000900490565b60006117a883836040518060400160405280601781526020017f6d756c7469706c69636174696f6e206f766572666c6f77000000000000000000815250614bb1565b60006117a883836040518060400160405280600e81526020016d646976696465206279207a65726f60901b815250614c27565b6000831580614bbe575082155b15614bcb575060006117a8565b83830283858281614bd857fe5b04148390614b035760405162461bcd60e51b8152602060048201818152835160248401528351909283926044909101919085019080838360008315614ac8578181015183820152602001614ab0565b60008183614c765760405162461bcd60e51b8152602060048201818152835160248401528351909283926044909101919085019080838360008315614ac8578181015183820152602001614ab0565b50828481614c8057fe5b04949350505050565b6040518060200160405280600081525090565b81548183558181111561242f5760008381526020902061242f918101908301614d2a565b604051806101400160405280600081526020016000815260200160008152602001600081526020016000815260200160008152602001614cfe614c89565b8152602001614d0b614c89565b8152602001614d18614c89565b8152602001614d25614c89565b905290565b611cb291905b80821115614d445760008155600101614d30565b509056fe63616e6e6f742070617573652061206d61726b65742074686174206973206e6f74206c69737465646f6e6c792063546f6b656e20636f756c6420757064617465206974732076657273696f6e6f6e6c792061646d696e206f7220737570706c792063617020677561726469616e2063616e2073657420737570706c7920636170736f6e6c792061646d696e2063616e20736574206c6971756964697479206d696e696e67206d6f64756c656f6e6c7920706175736520677561726469616e20616e642061646d696e2063616e2070617573656f6e6c792061646d696e2063616e2073657420626f72726f772063617020677561726469616e63616e6e6f74207472616e7366657220746f206120637265646974206163636f756e746f6e6c792061646d696e2063616e2073657420737570706c792063617020677561726469616e6f6e6c792061646d696e2063616e207365742070726f746f636f6c20637265646974206c696d69746f6e6c792061646d696e206f7220626f72726f772063617020677561726469616e2063616e2073657420626f72726f772063617073657869744d61726b65743a206765744163636f756e74536e617073686f74206661696c65646f6e6c7920756e6974726f6c6c65722061646d696e2063616e206368616e676520627261696e73a265627a7a72315820e4e1842d2c1f05759c3a84ec8732cbabf7b5963dadb597b4ca1ee64f353eefaf64736f6c63430005100032",
  "devdoc": {
    "author": "Compound (modified by Cream)",
    "methods": {
      "_delistMarket(address)": {
        "params": {
          "cToken": "The address of the market (token) to delist"
        }
      },
      "_setBorrowCapGuardian(address)": {
        "params": {
          "newBorrowCapGuardian": "The address of the new Borrow Cap Guardian"
        }
      },
      "_setCloseFactor(uint256)": {
        "details": "Admin function to set closeFactor",
        "params": {
          "newCloseFactorMantissa": "New close factor, scaled by 1e18"
        },
        "return": "uint 0=success, otherwise a failure. (See ErrorReporter for details)"
      },
      "_setCollateralFactor(address,uint256)": {
        "details": "Admin function to set per-market collateralFactor",
        "params": {
          "cToken": "The market to set the factor on",
          "newCollateralFactorMantissa": "The new collateral factor, scaled by 1e18"
        },
        "return": "uint 0=success, otherwise a failure. (See ErrorReporter for details)"
      },
      "_setCreditLimit(address,uint256)": {
        "params": {
          "creditLimit": "The credit limit",
          "protocol": "The address of the protocol"
        }
      },
      "_setLiquidationIncentive(uint256)": {
        "details": "Admin function to set liquidationIncentive",
        "params": {
          "newLiquidationIncentiveMantissa": "New liquidationIncentive scaled by 1e18"
        },
        "return": "uint 0=success, otherwise a failure. (See ErrorReporter for details)"
      },
      "_setLiquidityMining(address)": {
        "details": "Removing the liquidity mining module address could cause the inconsistency in the LM module.",
        "params": {
          "newLiquidityMining": "The address of the new liquidity mining module"
        }
      },
      "_setMarketBorrowCaps(address[],uint256[])": {
        "details": "Admin or borrowCapGuardian function to set the borrow caps. A borrow cap of 0 corresponds to unlimited borrowing. If the total supplies     already exceeded the cap, it will prevent anyone to mint.",
        "params": {
          "cTokens": "The addresses of the markets (tokens) to change the borrow caps for",
          "newBorrowCaps": "The new borrow cap values in underlying to be set. A value of 0 corresponds to unlimited borrowing."
        }
      },
      "_setMarketSupplyCaps(address[],uint256[])": {
        "details": "Admin or supplyCapGuardian function to set the supply caps. A supply cap of 0 corresponds to unlimited supplying. If the total borrows     already exceeded the cap, it will prevent anyone to borrow.",
        "params": {
          "cTokens": "The addresses of the markets (tokens) to change the supply caps for",
          "newSupplyCaps": "The new supply cap values in underlying to be set. A value of 0 corresponds to unlimited supplying."
        }
      },
      "_setPauseGuardian(address)": {
        "params": {
          "newPauseGuardian": "The address of the new Pause Guardian"
        },
        "return": "uint 0=success, otherwise a failure. (See enum Error for details)"
      },
      "_setPriceOracle(address)": {
        "details": "Admin function to set a new price oracle",
        "return": "uint 0=success, otherwise a failure (see ErrorReporter.sol for details)"
      },
      "_setSupplyCapGuardian(address)": {
        "params": {
          "newSupplyCapGuardian": "The address of the new Supply Cap Guardian"
        }
      },
      "_supportMarket(address,uint8)": {
        "details": "Admin function to set isListed and add support for the market",
        "params": {
          "cToken": "The address of the market (token) to list",
          "version": "The version of the market (token)"
        },
        "return": "uint 0=success, otherwise a failure. (See enum Error for details)"
      },
      "borrowAllowed(address,address,uint256)": {
        "params": {
          "borrowAmount": "The amount of underlying the account would borrow",
          "borrower": "The account which would borrow the asset",
          "cToken": "The market to verify the borrow against"
        },
        "return": "0 if the borrow is allowed, otherwise a semi-opaque error code (See ErrorReporter.sol)"
      },
      "borrowVerify(address,address,uint256)": {
        "params": {
          "borrowAmount": "The amount of the underlying asset requested to borrow",
          "borrower": "The address borrowing the underlying",
          "cToken": "Asset whose underlying is being borrowed"
        }
      },
      "checkMembership(address,address)": {
        "params": {
          "account": "The address of the account to check",
          "cToken": "The cToken to check"
        },
        "return": "True if the account is in the asset, otherwise false."
      },
      "enterMarkets(address[])": {
        "params": {
          "cTokens": "The list of addresses of the cToken markets to be enabled"
        },
        "return": "Success indicator for whether each corresponding market was entered"
      },
      "exitMarket(address)": {
        "details": "Sender must not have an outstanding borrow balance in the asset, or be providing necessary collateral for an outstanding borrow.",
        "params": {
          "cTokenAddress": "The address of the asset to be removed"
        },
        "return": "Whether or not the account successfully exited the market"
      },
      "flashloanAllowed(address,address,uint256,bytes)": {
        "params": {
          "amount": "The amount of the tokens",
          "cToken": "The market to verify the transfer against",
          "params": "The other parameters",
          "receiver": "The account which receives the tokens"
        }
      },
      "getAccountLiquidity(address)": {
        "return": "(possible error code (semi-opaque), account liquidity in excess of collateral requirements,         account shortfall below collateral requirements)"
      },
      "getAllMarkets()": {
        "details": "The automatic getter may be used to access an individual market.",
        "return": "The list of market addresses"
      },
      "getAssetsIn(address)": {
        "params": {
          "account": "The address of the account to pull assets for"
        },
        "return": "A dynamic list with the assets the account has entered"
      },
      "getHypotheticalAccountLiquidity(address,address,uint256,uint256)": {
        "params": {
          "account": "The account to determine liquidity for",
          "borrowAmount": "The amount of underlying to hypothetically borrow",
          "cTokenModify": "The market to hypothetically redeem/borrow in",
          "redeemTokens": "The number of tokens to hypothetically redeem"
        },
        "return": "(possible error code (semi-opaque), hypothetical account liquidity in excess of collateral requirements,         hypothetical account shortfall below collateral requirements)"
      },
      "isCreditAccount(address)": {
        "params": {
          "account": "The account needs to be checked"
        },
        "return": "The account is a credit account or not"
      },
      "isMarketListed(address)": {
        "params": {
          "cTokenAddress": "The address of the asset to be checked"
        },
        "return": "Whether or not the market is listed"
      },
      "liquidateBorrowAllowed(address,address,address,address,uint256)": {
        "params": {
          "borrower": "The address of the borrower",
          "cTokenBorrowed": "Asset which was borrowed by the borrower",
          "cTokenCollateral": "Asset which was used as collateral and will be seized",
          "liquidator": "The address repaying the borrow and seizing the collateral",
          "repayAmount": "The amount of underlying being repaid"
        }
      },
      "liquidateBorrowVerify(address,address,address,address,uint256,uint256)": {
        "params": {
          "actualRepayAmount": "The amount of underlying being repaid",
          "borrower": "The address of the borrower",
          "cTokenBorrowed": "Asset which was borrowed by the borrower",
          "cTokenCollateral": "Asset which was used as collateral and will be seized",
          "liquidator": "The address repaying the borrow and seizing the collateral"
        }
      },
      "liquidateCalculateSeizeTokens(address,address,uint256)": {
        "details": "Used in liquidation (called in cToken.liquidateBorrowFresh)",
        "params": {
          "actualRepayAmount": "The amount of cTokenBorrowed underlying to convert into cTokenCollateral tokens",
          "cTokenBorrowed": "The address of the borrowed cToken",
          "cTokenCollateral": "The address of the collateral cToken"
        },
        "return": "(errorCode, number of cTokenCollateral tokens to be seized in a liquidation)"
      },
      "mintAllowed(address,address,uint256)": {
        "params": {
          "cToken": "The market to verify the mint against",
          "mintAmount": "The amount of underlying being supplied to the market in exchange for tokens",
          "minter": "The account which would get the minted tokens"
        },
        "return": "0 if the mint is allowed, otherwise a semi-opaque error code (See ErrorReporter.sol)"
      },
      "mintVerify(address,address,uint256,uint256)": {
        "params": {
          "actualMintAmount": "The amount of the underlying asset being minted",
          "cToken": "Asset being minted",
          "mintTokens": "The number of tokens being minted",
          "minter": "The address minting the tokens"
        }
      },
      "redeemAllowed(address,address,uint256)": {
        "params": {
          "cToken": "The market to verify the redeem against",
          "redeemTokens": "The number of cTokens to exchange for the underlying asset in the market",
          "redeemer": "The account which would redeem the tokens"
        },
        "return": "0 if the redeem is allowed, otherwise a semi-opaque error code (See ErrorReporter.sol)"
      },
      "redeemVerify(address,address,uint256,uint256)": {
        "params": {
          "cToken": "Asset being redeemed",
          "redeemAmount": "The amount of the underlying asset being redeemed",
          "redeemTokens": "The number of tokens being redeemed",
          "redeemer": "The address redeeming the tokens"
        }
      },
      "repayBorrowAllowed(address,address,address,uint256)": {
        "params": {
          "borrower": "The account which would borrowed the asset",
          "cToken": "The market to verify the repay against",
          "payer": "The account which would repay the asset",
          "repayAmount": "The amount of the underlying asset the account would repay"
        },
        "return": "0 if the repay is allowed, otherwise a semi-opaque error code (See ErrorReporter.sol)"
      },
      "repayBorrowVerify(address,address,address,uint256,uint256)": {
        "params": {
          "actualRepayAmount": "The amount of underlying being repaid",
          "borrower": "The address of the borrower",
          "cToken": "Asset being repaid",
          "payer": "The address repaying the borrow"
        }
      },
      "seizeAllowed(address,address,address,address,uint256)": {
        "params": {
          "borrower": "The address of the borrower",
          "cTokenBorrowed": "Asset which was borrowed by the borrower",
          "cTokenCollateral": "Asset which was used as collateral and will be seized",
          "liquidator": "The address repaying the borrow and seizing the collateral",
          "seizeTokens": "The number of collateral tokens to seize"
        }
      },
      "seizeVerify(address,address,address,address,uint256)": {
        "params": {
          "borrower": "The address of the borrower",
          "cTokenBorrowed": "Asset which was borrowed by the borrower",
          "cTokenCollateral": "Asset which was used as collateral and will be seized",
          "liquidator": "The address repaying the borrow and seizing the collateral",
          "seizeTokens": "The number of collateral tokens to seize"
        }
      },
      "transferAllowed(address,address,address,uint256)": {
        "params": {
          "cToken": "The market to verify the transfer against",
          "dst": "The account which receives the tokens",
          "src": "The account which sources the tokens",
          "transferTokens": "The number of cTokens to transfer"
        },
        "return": "0 if the transfer is allowed, otherwise a semi-opaque error code (See ErrorReporter.sol)"
      },
      "transferVerify(address,address,address,uint256)": {
        "params": {
          "cToken": "Asset being transferred",
          "dst": "The account which receives the tokens",
          "src": "The account which sources the tokens",
          "transferTokens": "The number of cTokens to transfer"
        }
      },
      "updateCTokenVersion(address,uint8)": {
        "params": {
          "cToken": "Version of the asset being updated",
          "newVersion": "The new version"
        }
      }
    },
    "title": "Compound's Comptroller Contract"
  },
  "userdoc": {
    "methods": {
      "_delistMarket(address)": {
        "notice": "Remove the market from the markets mapping"
      },
      "_setBorrowCapGuardian(address)": {
        "notice": "Admin function to change the Borrow Cap Guardian"
      },
      "_setCloseFactor(uint256)": {
        "notice": "Sets the closeFactor used when liquidating borrows"
      },
      "_setCollateralFactor(address,uint256)": {
        "notice": "Sets the collateralFactor for a market"
      },
      "_setCreditLimit(address,uint256)": {
        "notice": "Sets whitelisted protocol's credit limit"
      },
      "_setLiquidationIncentive(uint256)": {
        "notice": "Sets liquidationIncentive"
      },
      "_setLiquidityMining(address)": {
        "notice": "Admin function to set the liquidity mining module address"
      },
      "_setMarketBorrowCaps(address[],uint256[])": {
        "notice": "Set the given borrow caps for the given cToken markets. Borrowing that brings total borrows to or above borrow cap will revert."
      },
      "_setMarketSupplyCaps(address[],uint256[])": {
        "notice": "Set the given supply caps for the given cToken markets. Supplying that brings total supplys to or above supply cap will revert."
      },
      "_setPauseGuardian(address)": {
        "notice": "Admin function to change the Pause Guardian"
      },
      "_setPriceOracle(address)": {
        "notice": "Sets a new price oracle for the comptroller"
      },
      "_setSupplyCapGuardian(address)": {
        "notice": "Admin function to change the Supply Cap Guardian"
      },
      "_supportMarket(address,uint8)": {
        "notice": "Add the market to the markets mapping and set it as listed"
      },
      "borrowAllowed(address,address,uint256)": {
        "notice": "Checks if the account should be allowed to borrow the underlying asset of the given market"
      },
      "borrowVerify(address,address,uint256)": {
        "notice": "Validates borrow and reverts on rejection. May emit logs."
      },
      "checkMembership(address,address)": {
        "notice": "Returns whether the given account is entered in the given asset"
      },
      "enterMarkets(address[])": {
        "notice": "Add assets to be included in account liquidity calculation"
      },
      "exitMarket(address)": {
        "notice": "Removes asset from sender's account liquidity calculation"
      },
      "flashloanAllowed(address,address,uint256,bytes)": {
        "notice": "Checks if the account should be allowed to transfer tokens in the given market"
      },
      "getAccountLiquidity(address)": {
        "notice": "Determine the current account liquidity wrt collateral requirements"
      },
      "getAllMarkets()": {
        "notice": "Return all of the markets"
      },
      "getAssetsIn(address)": {
        "notice": "Returns the assets an account has entered"
      },
      "getHypotheticalAccountLiquidity(address,address,uint256,uint256)": {
        "notice": "Determine what the account liquidity would be if the given amounts were redeemed/borrowed"
      },
      "isCreditAccount(address)": {
        "notice": "Check if the account is a credit account"
      },
      "isMarketListed(address)": {
        "notice": "Return a specific market is listed or not"
      },
      "liquidateBorrowAllowed(address,address,address,address,uint256)": {
        "notice": "Checks if the liquidation should be allowed to occur"
      },
      "liquidateBorrowVerify(address,address,address,address,uint256,uint256)": {
        "notice": "Validates liquidateBorrow and reverts on rejection. May emit logs."
      },
      "liquidateCalculateSeizeTokens(address,address,uint256)": {
        "notice": "Calculate number of tokens of collateral asset to seize given an underlying amount"
      },
      "mintAllowed(address,address,uint256)": {
        "notice": "Checks if the account should be allowed to mint tokens in the given market"
      },
      "mintVerify(address,address,uint256,uint256)": {
        "notice": "Validates mint and reverts on rejection. May emit logs."
      },
      "redeemAllowed(address,address,uint256)": {
        "notice": "Checks if the account should be allowed to redeem tokens in the given market"
      },
      "redeemVerify(address,address,uint256,uint256)": {
        "notice": "Validates redeem and reverts on rejection. May emit logs."
      },
      "repayBorrowAllowed(address,address,address,uint256)": {
        "notice": "Checks if the account should be allowed to repay a borrow in the given market"
      },
      "repayBorrowVerify(address,address,address,uint256,uint256)": {
        "notice": "Validates repayBorrow and reverts on rejection. May emit logs."
      },
      "seizeAllowed(address,address,address,address,uint256)": {
        "notice": "Checks if the seizing of assets should be allowed to occur"
      },
      "seizeVerify(address,address,address,address,uint256)": {
        "notice": "Validates seize and reverts on rejection. May emit logs."
      },
      "transferAllowed(address,address,address,uint256)": {
        "notice": "Checks if the account should be allowed to transfer tokens in the given market"
      },
      "transferVerify(address,address,address,uint256)": {
        "notice": "Validates transfer and reverts on rejection. May emit logs."
      },
      "updateCTokenVersion(address,uint8)": {
        "notice": "Update CToken's version."
      }
    }
  },
  "storageLayout": {
    "storage": [
      {
        "astId": 21946,
        "contract": "contracts/Comptroller.sol:Comptroller",
        "label": "admin",
        "offset": 0,
        "slot": "0",
        "type": "t_address"
      },
      {
        "astId": 21948,
        "contract": "contracts/Comptroller.sol:Comptroller",
        "label": "pendingAdmin",
        "offset": 0,
        "slot": "1",
        "type": "t_address"
      },
      {
        "astId": 21950,
        "contract": "contracts/Comptroller.sol:Comptroller",
        "label": "comptrollerImplementation",
        "offset": 0,
        "slot": "2",
        "type": "t_address"
      },
      {
        "astId": 21952,
        "contract": "contracts/Comptroller.sol:Comptroller",
        "label": "pendingComptrollerImplementation",
        "offset": 0,
        "slot": "3",
        "type": "t_address"
      },
      {
        "astId": 21957,
        "contract": "contracts/Comptroller.sol:Comptroller",
        "label": "oracle",
        "offset": 0,
        "slot": "4",
        "type": "t_contract(PriceOracle)26541"
      },
      {
        "astId": 21959,
        "contract": "contracts/Comptroller.sol:Comptroller",
        "label": "closeFactorMantissa",
        "offset": 0,
        "slot": "5",
        "type": "t_uint256"
      },
      {
        "astId": 21961,
        "contract": "contracts/Comptroller.sol:Comptroller",
        "label": "liquidationIncentiveMantissa",
        "offset": 0,
        "slot": "6",
        "type": "t_uint256"
      },
      {
        "astId": 21966,
        "contract": "contracts/Comptroller.sol:Comptroller",
        "label": "accountAssets",
        "offset": 0,
        "slot": "7",
        "type": "t_mapping(t_address,t_array(t_contract(CToken)8942)dyn_storage)"
      },
      {
        "astId": 21985,
        "contract": "contracts/Comptroller.sol:Comptroller",
        "label": "markets",
        "offset": 0,
        "slot": "8",
        "type": "t_mapping(t_address,t_struct(Market)21981_storage)"
      },
      {
        "astId": 21987,
        "contract": "contracts/Comptroller.sol:Comptroller",
        "label": "pauseGuardian",
        "offset": 0,
        "slot": "9",
        "type": "t_address"
      },
      {
        "astId": 21989,
        "contract": "contracts/Comptroller.sol:Comptroller",
        "label": "_mintGuardianPaused",
        "offset": 20,
        "slot": "9",
        "type": "t_bool"
      },
      {
        "astId": 21991,
        "contract": "contracts/Comptroller.sol:Comptroller",
        "label": "_borrowGuardianPaused",
        "offset": 21,
        "slot": "9",
        "type": "t_bool"
      },
      {
        "astId": 21993,
        "contract": "contracts/Comptroller.sol:Comptroller",
        "label": "transferGuardianPaused",
        "offset": 22,
        "slot": "9",
        "type": "t_bool"
      },
      {
        "astId": 21995,
        "contract": "contracts/Comptroller.sol:Comptroller",
        "label": "seizeGuardianPaused",
        "offset": 23,
        "slot": "9",
        "type": "t_bool"
      },
      {
        "astId": 21999,
        "contract": "contracts/Comptroller.sol:Comptroller",
        "label": "mintGuardianPaused",
        "offset": 0,
        "slot": "10",
        "type": "t_mapping(t_address,t_bool)"
      },
      {
        "astId": 22003,
        "contract": "contracts/Comptroller.sol:Comptroller",
        "label": "borrowGuardianPaused",
        "offset": 0,
        "slot": "11",
        "type": "t_mapping(t_address,t_bool)"
      },
      {
        "astId": 22011,
        "contract": "contracts/Comptroller.sol:Comptroller",
        "label": "allMarkets",
        "offset": 0,
        "slot": "12",
        "type": "t_array(t_contract(CToken)8942)dyn_storage"
      },
      {
        "astId": 22015,
        "contract": "contracts/Comptroller.sol:Comptroller",
        "label": "compSpeeds",
        "offset": 0,
        "slot": "13",
        "type": "t_mapping(t_address,t_uint256)"
      },
      {
        "astId": 22019,
        "contract": "contracts/Comptroller.sol:Comptroller",
        "label": "compSupplyState",
        "offset": 0,
        "slot": "14",
        "type": "t_mapping(t_address,t_struct(CompMarketState)22008_storage)"
      },
      {
        "astId": 22023,
        "contract": "contracts/Comptroller.sol:Comptroller",
        "label": "compBorrowState",
        "offset": 0,
        "slot": "15",
        "type": "t_mapping(t_address,t_struct(CompMarketState)22008_storage)"
      },
      {
        "astId": 22029,
        "contract": "contracts/Comptroller.sol:Comptroller",
        "label": "compSupplierIndex",
        "offset": 0,
        "slot": "16",
        "type": "t_mapping(t_address,t_mapping(t_address,t_uint256))"
      },
      {
        "astId": 22035,
        "contract": "contracts/Comptroller.sol:Comptroller",
        "label": "compBorrowerIndex",
        "offset": 0,
        "slot": "17",
        "type": "t_mapping(t_address,t_mapping(t_address,t_uint256))"
      },
      {
        "astId": 22039,
        "contract": "contracts/Comptroller.sol:Comptroller",
        "label": "compAccrued",
        "offset": 0,
        "slot": "18",
        "type": "t_mapping(t_address,t_uint256)"
      },
      {
        "astId": 22041,
        "contract": "contracts/Comptroller.sol:Comptroller",
        "label": "borrowCapGuardian",
        "offset": 0,
        "slot": "19",
        "type": "t_address"
      },
      {
        "astId": 22045,
        "contract": "contracts/Comptroller.sol:Comptroller",
        "label": "borrowCaps",
        "offset": 0,
        "slot": "20",
        "type": "t_mapping(t_address,t_uint256)"
      },
      {
        "astId": 22047,
        "contract": "contracts/Comptroller.sol:Comptroller",
        "label": "supplyCapGuardian",
        "offset": 0,
        "slot": "21",
        "type": "t_address"
      },
      {
        "astId": 22051,
        "contract": "contracts/Comptroller.sol:Comptroller",
        "label": "supplyCaps",
        "offset": 0,
        "slot": "22",
        "type": "t_mapping(t_address,t_uint256)"
      },
      {
        "astId": 22055,
        "contract": "contracts/Comptroller.sol:Comptroller",
        "label": "creditLimits",
        "offset": 0,
        "slot": "23",
        "type": "t_mapping(t_address,t_uint256)"
      },
      {
        "astId": 22059,
        "contract": "contracts/Comptroller.sol:Comptroller",
        "label": "flashloanGuardianPaused",
        "offset": 0,
        "slot": "24",
        "type": "t_mapping(t_address,t_bool)"
      },
      {
        "astId": 22061,
        "contract": "contracts/Comptroller.sol:Comptroller",
        "label": "liquidityMining",
        "offset": 0,
        "slot": "25",
        "type": "t_address"
      }
    ],
    "types": {
      "t_address": {
        "encoding": "inplace",
        "label": "address",
        "numberOfBytes": "20"
      },
      "t_array(t_contract(CToken)8942)dyn_storage": {
        "base": "t_contract(CToken)8942",
        "encoding": "dynamic_array",
        "label": "contract CToken[]",
        "numberOfBytes": "32"
      },
      "t_bool": {
        "encoding": "inplace",
        "label": "bool",
        "numberOfBytes": "1"
      },
      "t_contract(CToken)8942": {
        "encoding": "inplace",
        "label": "contract CToken",
        "numberOfBytes": "20"
      },
      "t_contract(PriceOracle)26541": {
        "encoding": "inplace",
        "label": "contract PriceOracle",
        "numberOfBytes": "20"
      },
      "t_enum(Version)21970": {
        "encoding": "inplace",
        "label": "enum ComptrollerV1Storage.Version",
        "numberOfBytes": "1"
      },
      "t_mapping(t_address,t_array(t_contract(CToken)8942)dyn_storage)": {
        "encoding": "mapping",
        "key": "t_address",
        "label": "mapping(address => contract CToken[])",
        "numberOfBytes": "32",
        "value": "t_array(t_contract(CToken)8942)dyn_storage"
      },
      "t_mapping(t_address,t_bool)": {
        "encoding": "mapping",
        "key": "t_address",
        "label": "mapping(address => bool)",
        "numberOfBytes": "32",
        "value": "t_bool"
      },
      "t_mapping(t_address,t_mapping(t_address,t_uint256))": {
        "encoding": "mapping",
        "key": "t_address",
        "label": "mapping(address => mapping(address => uint256))",
        "numberOfBytes": "32",
        "value": "t_mapping(t_address,t_uint256)"
      },
      "t_mapping(t_address,t_struct(CompMarketState)22008_storage)": {
        "encoding": "mapping",
        "key": "t_address",
        "label": "mapping(address => struct ComptrollerV1Storage.CompMarketState)",
        "numberOfBytes": "32",
        "value": "t_struct(CompMarketState)22008_storage"
      },
      "t_mapping(t_address,t_struct(Market)21981_storage)": {
        "encoding": "mapping",
        "key": "t_address",
        "label": "mapping(address => struct ComptrollerV1Storage.Market)",
        "numberOfBytes": "32",
        "value": "t_struct(Market)21981_storage"
      },
      "t_mapping(t_address,t_uint256)": {
        "encoding": "mapping",
        "key": "t_address",
        "label": "mapping(address => uint256)",
        "numberOfBytes": "32",
        "value": "t_uint256"
      },
      "t_struct(CompMarketState)22008_storage": {
        "encoding": "inplace",
        "label": "struct ComptrollerV1Storage.CompMarketState",
        "members": [
          {
            "astId": 22005,
            "contract": "contracts/Comptroller.sol:Comptroller",
            "label": "index",
            "offset": 0,
            "slot": "0",
            "type": "t_uint224"
          },
          {
            "astId": 22007,
            "contract": "contracts/Comptroller.sol:Comptroller",
            "label": "block",
            "offset": 28,
            "slot": "0",
            "type": "t_uint32"
          }
        ],
        "numberOfBytes": "32"
      },
      "t_struct(Market)21981_storage": {
        "encoding": "inplace",
        "label": "struct ComptrollerV1Storage.Market",
        "members": [
          {
            "astId": 21972,
            "contract": "contracts/Comptroller.sol:Comptroller",
            "label": "isListed",
            "offset": 0,
            "slot": "0",
            "type": "t_bool"
          },
          {
            "astId": 21974,
            "contract": "contracts/Comptroller.sol:Comptroller",
            "label": "collateralFactorMantissa",
            "offset": 0,
            "slot": "1",
            "type": "t_uint256"
          },
          {
            "astId": 21978,
            "contract": "contracts/Comptroller.sol:Comptroller",
            "label": "accountMembership",
            "offset": 0,
            "slot": "2",
            "type": "t_mapping(t_address,t_bool)"
          },
          {
            "astId": 21980,
            "contract": "contracts/Comptroller.sol:Comptroller",
            "label": "version",
            "offset": 0,
            "slot": "3",
            "type": "t_enum(Version)21970"
          }
        ],
        "numberOfBytes": "128"
      },
      "t_uint224": {
        "encoding": "inplace",
        "label": "uint224",
        "numberOfBytes": "28"
      },
      "t_uint256": {
        "encoding": "inplace",
        "label": "uint256",
        "numberOfBytes": "32"
      },
      "t_uint32": {
        "encoding": "inplace",
        "label": "uint32",
        "numberOfBytes": "4"
      }
    }
  }
}