{
  "address": "0x9e6be1084d5ACff84f91019C01135d2319e1b190",
  "abi": [
    {
      "constant": false,
      "inputs": [
        {
          "internalType": "contract CToken",
          "name": "cToken",
          "type": "address"
        },
        {
          "internalType": "address payable",
          "name": "account",
          "type": "address"
        }
      ],
      "name": "cTokenBalances",
      "outputs": [
        {
          "components": [
            {
              "internalType": "address",
              "name": "cToken",
              "type": "address"
            },
            {
              "internalType": "uint256",
              "name": "balanceOf",
              "type": "uint256"
            },
            {
              "internalType": "uint256",
              "name": "borrowBalanceCurrent",
              "type": "uint256"
            },
            {
              "internalType": "uint256",
              "name": "balanceOfUnderlying",
              "type": "uint256"
            },
            {
              "internalType": "uint256",
              "name": "tokenBalance",
              "type": "uint256"
            },
            {
              "internalType": "uint256",
              "name": "tokenAllowance",
              "type": "uint256"
            },
            {
              "internalType": "bool",
              "name": "collateralEnabled",
              "type": "bool"
            },
            {
              "internalType": "uint256",
              "name": "collateralBalance",
              "type": "uint256"
            },
            {
              "internalType": "uint256",
              "name": "nativeTokenBalance",
              "type": "uint256"
            }
          ],
          "internalType": "struct CompoundLens.CTokenBalances",
          "name": "",
          "type": "tuple"
        }
      ],
      "payable": false,
      "stateMutability": "nonpayable",
      "type": "function"
    },
    {
      "constant": false,
      "inputs": [
        {
          "internalType": "contract CToken[]",
          "name": "cTokens",
          "type": "address[]"
        },
        {
          "internalType": "address payable",
          "name": "account",
          "type": "address"
        }
      ],
      "name": "cTokenBalancesAll",
      "outputs": [
        {
          "components": [
            {
              "internalType": "address",
              "name": "cToken",
              "type": "address"
            },
            {
              "internalType": "uint256",
              "name": "balanceOf",
              "type": "uint256"
            },
            {
              "internalType": "uint256",
              "name": "borrowBalanceCurrent",
              "type": "uint256"
            },
            {
              "internalType": "uint256",
              "name": "balanceOfUnderlying",
              "type": "uint256"
            },
            {
              "internalType": "uint256",
              "name": "tokenBalance",
              "type": "uint256"
            },
            {
              "internalType": "uint256",
              "name": "tokenAllowance",
              "type": "uint256"
            },
            {
              "internalType": "bool",
              "name": "collateralEnabled",
              "type": "bool"
            },
            {
              "internalType": "uint256",
              "name": "collateralBalance",
              "type": "uint256"
            },
            {
              "internalType": "uint256",
              "name": "nativeTokenBalance",
              "type": "uint256"
            }
          ],
          "internalType": "struct CompoundLens.CTokenBalances[]",
          "name": "",
          "type": "tuple[]"
        }
      ],
      "payable": false,
      "stateMutability": "nonpayable",
      "type": "function"
    },
    {
      "constant": false,
      "inputs": [
        {
          "internalType": "contract CToken",
          "name": "cToken",
          "type": "address"
        }
      ],
      "name": "cTokenMetadata",
      "outputs": [
        {
          "components": [
            {
              "internalType": "address",
              "name": "cToken",
              "type": "address"
            },
            {
              "internalType": "uint256",
              "name": "exchangeRateCurrent",
              "type": "uint256"
            },
            {
              "internalType": "uint256",
              "name": "supplyRatePerBlock",
              "type": "uint256"
            },
            {
              "internalType": "uint256",
              "name": "borrowRatePerBlock",
              "type": "uint256"
            },
            {
              "internalType": "uint256",
              "name": "reserveFactorMantissa",
              "type": "uint256"
            },
            {
              "internalType": "uint256",
              "name": "totalBorrows",
              "type": "uint256"
            },
            {
              "internalType": "uint256",
              "name": "totalReserves",
              "type": "uint256"
            },
            {
              "internalType": "uint256",
              "name": "totalSupply",
              "type": "uint256"
            },
            {
              "internalType": "uint256",
              "name": "totalCash",
              "type": "uint256"
            },
            {
              "internalType": "uint256",
              "name": "totalCollateralTokens",
              "type": "uint256"
            },
            {
              "internalType": "bool",
              "name": "isListed",
              "type": "bool"
            },
            {
              "internalType": "uint256",
              "name": "collateralFactorMantissa",
              "type": "uint256"
            },
            {
              "internalType": "address",
              "name": "underlyingAssetAddress",
              "type": "address"
            },
            {
              "internalType": "uint256",
              "name": "cTokenDecimals",
              "type": "uint256"
            },
            {
              "internalType": "uint256",
              "name": "underlyingDecimals",
              "type": "uint256"
            },
            {
              "internalType": "enum ComptrollerV1Storage.Version",
              "name": "version",
              "type": "uint8"
            },
            {
              "internalType": "uint256",
              "name": "collateralCap",
              "type": "uint256"
            },
            {
              "internalType": "uint256",
              "name": "underlyingPrice",
              "type": "uint256"
            },
            {
              "internalType": "bool",
              "name": "supplyPaused",
              "type": "bool"
            },
            {
              "internalType": "bool",
              "name": "borrowPaused",
              "type": "bool"
            },
            {
              "internalType": "uint256",
              "name": "supplyCap",
              "type": "uint256"
            },
            {
              "internalType": "uint256",
              "name": "borrowCap",
              "type": "uint256"
            }
          ],
          "internalType": "struct CompoundLens.CTokenMetadata",
          "name": "",
          "type": "tuple"
        }
      ],
      "payable": false,
      "stateMutability": "nonpayable",
      "type": "function"
    },
    {
      "constant": false,
      "inputs": [
        {
          "internalType": "contract CToken[]",
          "name": "cTokens",
          "type": "address[]"
        }
      ],
      "name": "cTokenMetadataAll",
      "outputs": [
        {
          "components": [
            {
              "internalType": "address",
              "name": "cToken",
              "type": "address"
            },
            {
              "internalType": "uint256",
              "name": "exchangeRateCurrent",
              "type": "uint256"
            },
            {
              "internalType": "uint256",
              "name": "supplyRatePerBlock",
              "type": "uint256"
            },
            {
              "internalType": "uint256",
              "name": "borrowRatePerBlock",
              "type": "uint256"
            },
            {
              "internalType": "uint256",
              "name": "reserveFactorMantissa",
              "type": "uint256"
            },
            {
              "internalType": "uint256",
              "name": "totalBorrows",
              "type": "uint256"
            },
            {
              "internalType": "uint256",
              "name": "totalReserves",
              "type": "uint256"
            },
            {
              "internalType": "uint256",
              "name": "totalSupply",
              "type": "uint256"
            },
            {
              "internalType": "uint256",
              "name": "totalCash",
              "type": "uint256"
            },
            {
              "internalType": "uint256",
              "name": "totalCollateralTokens",
              "type": "uint256"
            },
            {
              "internalType": "bool",
              "name": "isListed",
              "type": "bool"
            },
            {
              "internalType": "uint256",
              "name": "collateralFactorMantissa",
              "type": "uint256"
            },
            {
              "internalType": "address",
              "name": "underlyingAssetAddress",
              "type": "address"
            },
            {
              "internalType": "uint256",
              "name": "cTokenDecimals",
              "type": "uint256"
            },
            {
              "internalType": "uint256",
              "name": "underlyingDecimals",
              "type": "uint256"
            },
            {
              "internalType": "enum ComptrollerV1Storage.Version",
              "name": "version",
              "type": "uint8"
            },
            {
              "internalType": "uint256",
              "name": "collateralCap",
              "type": "uint256"
            },
            {
              "internalType": "uint256",
              "name": "underlyingPrice",
              "type": "uint256"
            },
            {
              "internalType": "bool",
              "name": "supplyPaused",
              "type": "bool"
            },
            {
              "internalType": "bool",
              "name": "borrowPaused",
              "type": "bool"
            },
            {
              "internalType": "uint256",
              "name": "supplyCap",
              "type": "uint256"
            },
            {
              "internalType": "uint256",
              "name": "borrowCap",
              "type": "uint256"
            }
          ],
          "internalType": "struct CompoundLens.CTokenMetadata[]",
          "name": "",
          "type": "tuple[]"
        }
      ],
      "payable": false,
      "stateMutability": "nonpayable",
      "type": "function"
    },
    {
      "constant": false,
      "inputs": [
        {
          "internalType": "contract Comptroller",
          "name": "comptroller",
          "type": "address"
        },
        {
          "internalType": "address",
          "name": "account",
          "type": "address"
        }
      ],
      "name": "getAccountLimits",
      "outputs": [
        {
          "components": [
            {
              "internalType": "contract CToken[]",
              "name": "markets",
              "type": "address[]"
            },
            {
              "internalType": "uint256",
              "name": "liquidity",
              "type": "uint256"
            },
            {
              "internalType": "uint256",
              "name": "shortfall",
              "type": "uint256"
            }
          ],
          "internalType": "struct CompoundLens.AccountLimits",
          "name": "",
          "type": "tuple"
        }
      ],
      "payable": false,
      "stateMutability": "nonpayable",
      "type": "function"
    },
    {
      "constant": false,
      "inputs": [
        {
          "internalType": "contract CCTokenInterface[]",
          "name": "cTokens",
          "type": "address[]"
        },
        {
          "internalType": "address",
          "name": "comp",
          "type": "address"
        },
        {
          "internalType": "address",
          "name": "account",
          "type": "address"
        }
      ],
      "name": "getClaimableCompRewards",
      "outputs": [
        {
          "internalType": "uint256[]",
          "name": "",
          "type": "uint256[]"
        }
      ],
      "payable": false,
      "stateMutability": "nonpayable",
      "type": "function"
    },
    {
      "constant": false,
      "inputs": [
        {
          "internalType": "contract CSLPInterface[]",
          "name": "cTokens",
          "type": "address[]"
        },
        {
          "internalType": "address",
          "name": "sushi",
          "type": "address"
        },
        {
          "internalType": "address",
          "name": "account",
          "type": "address"
        }
      ],
      "name": "getClaimableSushiRewards",
      "outputs": [
        {
          "internalType": "uint256[]",
          "name": "",
          "type": "uint256[]"
        }
      ],
      "payable": false,
      "stateMutability": "nonpayable",
      "type": "function"
    }
  ],
  "transactionHash": "0x51b8c80d55541a185fae7b9738ae2bfb380d130d198290a5f0f79220acfa1cbc",
  "args": [],
  "solcInputHash": "7efdb7a89a284f1433367a7aea5d055e",
  "bytecode": "0x608060405234801561001057600080fd5b50612989806100206000396000f3fe608060405234801561001057600080fd5b506004361061007d5760003560e01c80634b70d84b1161005b5780634b70d84b146100eb5780637dd8f6d91461010b578063bdf950c91461012b578063da84fefe1461014b5761007d565b80630972bf8b146100825780630e23cffd146100ab578063158eca8b146100cb575b600080fd5b610095610090366004611f46565b61015e565b6040516100a2919061274a565b60405180910390f35b6100be6100b9366004611e9b565b610201565b6040516100a2919061276c565b6100de6100d9366004612031565b610416565b6040516100a291906127dc565b6100fe6100f9366004611f04565b610529565b6040516100a2919061275b565b61011e61011936600461204f565b6107cc565b6040516100a291906127bc565b61013e61013936600461204f565b610908565b6040516100a291906127cd565b6100be610159366004611e9b565b610e9c565b6040805183815260208085028201019091526060908390829082801561019e57816020015b61018b611bc4565b8152602001906001900390816101835790505b50905060005b828110156101f5576101d68787838181106101bb57fe5b90506020020160206101d09190810190612031565b86610908565b8282815181106101e257fe5b60209081029190910101526001016101a4565b509150505b9392505050565b60408051848152602080860282010190915260609084908290828015610231578160200160208202803883390190505b50905060005b8281101561040b576040516370a0823160e01b81526000906001600160a01b038816906370a082319061026e9089906004016126f8565b60206040518083038186803b15801561028657600080fd5b505afa15801561029a573d6000803e3d6000fd5b505050506040513d601f19601f820116820180604052506102be91908101906120dc565b90508888838181106102cc57fe5b90506020020160206102e19190810190612031565b6001600160a01b0316632781e0d5876040518263ffffffff1660e01b815260040161030c91906126f8565b602060405180830381600087803b15801561032657600080fd5b505af115801561033a573d6000803e3d6000fd5b505050506040513d601f19601f8201168201806040525061035e91908101906120dc565b506040516370a0823160e01b81526000906001600160a01b038916906370a082319061038e908a906004016126f8565b60206040518083038186803b1580156103a657600080fd5b505afa1580156103ba573d6000803e3d6000fd5b505050506040513d601f19601f820116820180604052506103de91908101906120dc565b90506103ea81836110a6565b8484815181106103f657fe5b60209081029190910101525050600101610237565b509695505050505050565b61041e611c1b565b6000826001600160a01b0316635fe3b5676040518163ffffffff1660e01b815260040160206040518083038186803b15801561045957600080fd5b505afa15801561046d573d6000803e3d6000fd5b505050506040513d601f19601f820116820180604052506104919190810190612089565b9050600081905060008190506000816001600160a01b0316637dc0d1d06040518163ffffffff1660e01b815260040160206040518083038186803b1580156104d857600080fd5b505afa1580156104ec573d6000803e3d6000fd5b505050506040513d601f19601f820116820180604052506105109190810190612089565b905061051d8683836110e0565b9450505050505b919050565b606081806105525760405162461bcd60e51b8152600401610549906127ac565b60405180910390fd5b60608160405190808252806020026020018201604052801561058e57816020015b61057b611c1b565b8152602001906001900390816105735790505b5090506000858560008181106105a057fe5b90506020020160206105b59190810190612031565b6001600160a01b0316635fe3b5676040518163ffffffff1660e01b815260040160206040518083038186803b1580156105ed57600080fd5b505afa158015610601573d6000803e3d6000fd5b505050506040513d601f19601f820116820180604052506106259190810190612089565b9050600081905060008190506000816001600160a01b0316637dc0d1d06040518163ffffffff1660e01b815260040160206040518083038186803b15801561066c57600080fd5b505afa158015610680573d6000803e3d6000fd5b505050506040513d601f19601f820116820180604052506106a49190810190612089565b905060005b868110156107bc578989828181106106bd57fe5b90506020020160206106d29190810190612031565b6001600160a01b0316635fe3b5676040518163ffffffff1660e01b815260040160206040518083038186803b15801561070a57600080fd5b505afa15801561071e573d6000803e3d6000fd5b505050506040513d601f19601f820116820180604052506107429190810190612089565b6001600160a01b0316836001600160a01b0316146107725760405162461bcd60e51b81526004016105499061279c565b61079d8a8a8381811061078157fe5b90506020020160206107969190810190612031565b84846110e0565b8682815181106107a957fe5b60209081029190910101526001016106a9565b5093955050505050505b92915050565b6107d4611ce5565b6000806000856001600160a01b0316635ec88c79866040518263ffffffff1660e01b815260040161080591906126f8565b60606040518083038186803b15801561081d57600080fd5b505afa158015610831573d6000803e3d6000fd5b505050506040513d601f19601f8201168201806040525061085591908101906120fa565b9250925092508260001461086857600080fd5b604080516060810191829052632aff3bff60e21b909152806001600160a01b03881663abfceffc61089c89606485016126f8565b60006040518083038186803b1580156108b457600080fd5b505afa1580156108c8573d6000803e3d6000fd5b505050506040513d6000823e601f3d908101601f191682016040526108f09190810190611f9b565b81526020810193909352604090920152949350505050565b610910611bc4565b6000836001600160a01b0316635fe3b5676040518163ffffffff1660e01b815260040160206040518083038186803b15801561094b57600080fd5b505afa15801561095f573d6000803e3d6000fd5b505050506040513d601f19601f820116820180604052506109839190810190612089565b60405163929fe9a160e01b815290915081906000906001600160a01b0383169063929fe9a1906109b99088908a9060040161272f565b60206040518083038186803b1580156109d157600080fd5b505afa1580156109e5573d6000803e3d6000fd5b505050506040513d601f19601f82011682018060405250610a099190810190611fd0565b90506000806000610aab896001600160a01b03166395d89b416040518163ffffffff1660e01b815260040160006040518083038186803b158015610a4c57600080fd5b505afa158015610a60573d6000803e3d6000fd5b505050506040513d6000823e601f3d908101601f19168201604052610a8891908101906120a7565b60405180604001604052806005815260200164637246544d60d81b815250611b3f565b15610ac6576001600160a01b03881680319350319150610c43565b60008990506000816001600160a01b0316636f307dc36040518163ffffffff1660e01b815260040160206040518083038186803b158015610b0657600080fd5b505afa158015610b1a573d6000803e3d6000fd5b505050506040513d601f19601f82011682018060405250610b3e9190810190611e75565b6040516370a0823160e01b81529091506001600160a01b038216906370a0823190610b6d908d90600401612706565b60206040518083038186803b158015610b8557600080fd5b505afa158015610b99573d6000803e3d6000fd5b505050506040513d601f19601f82011682018060405250610bbd91908101906120dc565b604051636eb1769f60e11b81529095506001600160a01b0382169063dd62ed3e90610bee908d908f90600401612714565b60206040518083038186803b158015610c0657600080fd5b505afa158015610c1a573d6000803e3d6000fd5b505050506040513d601f19601f82011682018060405250610c3e91908101906120dc565b935050505b8315610ccc576040516361bfb47160e11b81526001600160a01b038a169063c37f68e290610c75908b90600401612706565b60806040518083038186803b158015610c8d57600080fd5b505afa158015610ca1573d6000803e3d6000fd5b505050506040513d601f19601f82011682018060405250610cc5919081019061213d565b5090925050505b60408051610120810182526001600160a01b038b1680825291516370a0823160e01b8152909160208301916370a0823190610d0b908d90600401612706565b60206040518083038186803b158015610d2357600080fd5b505afa158015610d37573d6000803e3d6000fd5b505050506040513d601f19601f82011682018060405250610d5b91908101906120dc565b81526020018a6001600160a01b03166317bfdfbc8b6040518263ffffffff1660e01b8152600401610d8c9190612706565b602060405180830381600087803b158015610da657600080fd5b505af1158015610dba573d6000803e3d6000fd5b505050506040513d601f19601f82011682018060405250610dde91908101906120dc565b81526020018a6001600160a01b0316633af9e6698b6040518263ffffffff1660e01b8152600401610e0f9190612706565b602060405180830381600087803b158015610e2957600080fd5b505af1158015610e3d573d6000803e3d6000fd5b505050506040513d601f19601f82011682018060405250610e6191908101906120dc565b81526020018481526020018381526020018515158152602001828152602001896001600160a01b031631815250965050505050505092915050565b60408051848152602080860282010190915260609084908290828015610ecc578160200160208202803883390190505b50905060005b8281101561040b576040516370a0823160e01b81526000906001600160a01b038816906370a0823190610f099089906004016126f8565b60206040518083038186803b158015610f2157600080fd5b505afa158015610f35573d6000803e3d6000fd5b505050506040513d601f19601f82011682018060405250610f5991908101906120dc565b9050888883818110610f6757fe5b9050602002016020610f7c9190810190612031565b6001600160a01b031663e9af0292876040518263ffffffff1660e01b8152600401610fa791906126f8565b602060405180830381600087803b158015610fc157600080fd5b505af1158015610fd5573d6000803e3d6000fd5b505050506040513d601f19601f82011682018060405250610ff991908101906120dc565b506040516370a0823160e01b81526000906001600160a01b038916906370a0823190611029908a906004016126f8565b60206040518083038186803b15801561104157600080fd5b505afa158015611055573d6000803e3d6000fd5b505050506040513d601f19601f8201168201806040525061107991908101906120dc565b905061108581836110a6565b84848151811061109157fe5b60209081029190910101525050600101610ed2565b60006101fa8383604051806040016040528060158152602001747375627472616374696f6e20756e646572666c6f7760581b815250611b98565b6110e8611c1b565b6000846001600160a01b031663bd6d894d6040518163ffffffff1660e01b8152600401602060405180830381600087803b15801561112557600080fd5b505af1158015611139573d6000803e3d6000fd5b505050506040513d601f19601f8201168201806040525061115d91908101906120dc565b90506000806000866001600160a01b0316638e8f294b896040518263ffffffff1660e01b815260040161119091906126f8565b60606040518083038186803b1580156111a857600080fd5b505afa1580156111bc573d6000803e3d6000fd5b505050506040513d601f19601f820116820180604052506111e09190810190611fee565b9250925092506000806000806112288c6001600160a01b03166395d89b416040518163ffffffff1660e01b815260040160006040518083038186803b158015610a4c57600080fd5b1561123a57600093506012925061139a565b60008c9050806001600160a01b0316636f307dc36040518163ffffffff1660e01b815260040160206040518083038186803b15801561127857600080fd5b505afa15801561128c573d6000803e3d6000fd5b505050506040513d601f19601f820116820180604052506112b09190810190611e75565b9450806001600160a01b0316636f307dc36040518163ffffffff1660e01b815260040160206040518083038186803b1580156112eb57600080fd5b505afa1580156112ff573d6000803e3d6000fd5b505050506040513d601f19601f820116820180604052506113239190810190611e75565b6001600160a01b031663313ce5676040518163ffffffff1660e01b815260040160206040518083038186803b15801561135b57600080fd5b505afa15801561136f573d6000803e3d6000fd5b505050506040513d601f19601f820116820180604052506113939190810190612192565b60ff169350505b60018560028111156113a857fe5b1415611495578b6001600160a01b031663d2bb18e96040518163ffffffff1660e01b815260040160206040518083038186803b1580156113e757600080fd5b505afa1580156113fb573d6000803e3d6000fd5b505050506040513d601f19601f8201168201806040525061141f91908101906120dc565b91508b6001600160a01b03166319a4dd3c6040518163ffffffff1660e01b815260040160206040518083038186803b15801561145a57600080fd5b505afa15801561146e573d6000803e3d6000fd5b505050506040513d601f19601f8201168201806040525061149291908101906120dc565b90505b604051806102c001604052808d6001600160a01b031681526020018981526020018d6001600160a01b031663ae9d70b06040518163ffffffff1660e01b815260040160206040518083038186803b1580156114ef57600080fd5b505afa158015611503573d6000803e3d6000fd5b505050506040513d601f19601f8201168201806040525061152791908101906120dc565b81526020018d6001600160a01b031663f8f9da286040518163ffffffff1660e01b815260040160206040518083038186803b15801561156557600080fd5b505afa158015611579573d6000803e3d6000fd5b505050506040513d601f19601f8201168201806040525061159d91908101906120dc565b81526020018d6001600160a01b031663173b99046040518163ffffffff1660e01b815260040160206040518083038186803b1580156115db57600080fd5b505afa1580156115ef573d6000803e3d6000fd5b505050506040513d601f19601f8201168201806040525061161391908101906120dc565b81526020018d6001600160a01b03166347bd37186040518163ffffffff1660e01b815260040160206040518083038186803b15801561165157600080fd5b505afa158015611665573d6000803e3d6000fd5b505050506040513d601f19601f8201168201806040525061168991908101906120dc565b81526020018d6001600160a01b0316638f840ddd6040518163ffffffff1660e01b815260040160206040518083038186803b1580156116c757600080fd5b505afa1580156116db573d6000803e3d6000fd5b505050506040513d601f19601f820116820180604052506116ff91908101906120dc565b81526020018d6001600160a01b03166318160ddd6040518163ffffffff1660e01b815260040160206040518083038186803b15801561173d57600080fd5b505afa158015611751573d6000803e3d6000fd5b505050506040513d601f19601f8201168201806040525061177591908101906120dc565b81526020018d6001600160a01b0316633b1d21a26040518163ffffffff1660e01b815260040160206040518083038186803b1580156117b357600080fd5b505afa1580156117c7573d6000803e3d6000fd5b505050506040513d601f19601f820116820180604052506117eb91908101906120dc565b81526020018281526020018815158152602001878152602001856001600160a01b031681526020018d6001600160a01b031663313ce5676040518163ffffffff1660e01b815260040160206040518083038186803b15801561184c57600080fd5b505afa158015611860573d6000803e3d6000fd5b505050506040513d601f19601f820116820180604052506118849190810190612192565b60ff16815260200184815260200186600281111561189e57fe5b81526020018381526020018b6001600160a01b031663fc57d4df8f6040518263ffffffff1660e01b81526004016118d5919061277d565b60206040518083038186803b1580156118ed57600080fd5b505afa158015611901573d6000803e3d6000fd5b505050506040513d601f19601f8201168201806040525061192591908101906120dc565b81526020018c6001600160a01b031663731f0c2b8f6040518263ffffffff1660e01b815260040161195691906126f8565b60206040518083038186803b15801561196e57600080fd5b505afa158015611982573d6000803e3d6000fd5b505050506040513d601f19601f820116820180604052506119a69190810190611fd0565b151581526020018c6001600160a01b0316636d154ea58f6040518263ffffffff1660e01b81526004016119d991906126f8565b60206040518083038186803b1580156119f157600080fd5b505afa158015611a05573d6000803e3d6000fd5b505050506040513d601f19601f82011682018060405250611a299190810190611fd0565b151581526020018c6001600160a01b03166302c3bcbb8f6040518263ffffffff1660e01b8152600401611a5c91906126f8565b60206040518083038186803b158015611a7457600080fd5b505afa158015611a88573d6000803e3d6000fd5b505050506040513d601f19601f82011682018060405250611aac91908101906120dc565b81526020018c6001600160a01b0316634a5844328f6040518263ffffffff1660e01b8152600401611add91906126f8565b60206040518083038186803b158015611af557600080fd5b505afa158015611b09573d6000803e3d6000fd5b505050506040513d601f19601f82011682018060405250611b2d91908101906120dc565b90529c9b505050505050505050505050565b600081604051602001611b5291906126ec565b6040516020818303038152906040528051906020012083604051602001611b7991906126ec565b6040516020818303038152906040528051906020012014905092915050565b60008184841115611bbc5760405162461bcd60e51b8152600401610549919061278b565b505050900390565b60405180610120016040528060006001600160a01b03168152602001600081526020016000815260200160008152602001600081526020016000815260200160001515815260200160008152602001600081525090565b604051806102c0016040528060006001600160a01b031681526020016000815260200160008152602001600081526020016000815260200160008152602001600081526020016000815260200160008152602001600081526020016000151581526020016000815260200160006001600160a01b03168152602001600081526020016000815260200160006002811115611cb157fe5b8152602001600081526020016000815260200160001515815260200160001515815260200160008152602001600081525090565b60405180606001604052806060815260200160008152602001600081525090565b80356107c681612901565b80516107c681612901565b60008083601f840112611d2e57600080fd5b50813567ffffffffffffffff811115611d4657600080fd5b602083019150836020820283011115611d5e57600080fd5b9250929050565b600082601f830112611d7657600080fd5b8151611d89611d8482612812565b6127eb565b91508181835260208401935060208101905083856020840282011115611dae57600080fd5b60005b83811015611dda5781611dc48882611dfa565b8452506020928301929190910190600101611db1565b5050505092915050565b80516107c681612915565b80356107c68161291e565b80516107c68161291e565b80516107c681612927565b600082601f830112611e2157600080fd5b8151611e2f611d8482612833565b91508082526020830160208301858383011115611e4b57600080fd5b611e568382846128be565b50505092915050565b80516107c681612934565b80516107c68161293d565b600060208284031215611e8757600080fd5b6000611e938484611d11565b949350505050565b60008060008060608587031215611eb157600080fd5b843567ffffffffffffffff811115611ec857600080fd5b611ed487828801611d1c565b94509450506020611ee787828801611d06565b9250506040611ef887828801611d06565b91505092959194509250565b60008060208385031215611f1757600080fd5b823567ffffffffffffffff811115611f2e57600080fd5b611f3a85828601611d1c565b92509250509250929050565b600080600060408486031215611f5b57600080fd5b833567ffffffffffffffff811115611f7257600080fd5b611f7e86828701611d1c565b93509350506020611f9186828701611d06565b9150509250925092565b600060208284031215611fad57600080fd5b815167ffffffffffffffff811115611fc457600080fd5b611e9384828501611d65565b600060208284031215611fe257600080fd5b6000611e938484611de4565b60008060006060848603121561200357600080fd5b600061200f8686611de4565b935050602061202086828701611e5f565b9250506040611f9186828701611e05565b60006020828403121561204357600080fd5b6000611e938484611def565b6000806040838503121561206257600080fd5b600061206e8585611def565b925050602061207f85828601611d06565b9150509250929050565b60006020828403121561209b57600080fd5b6000611e938484611dfa565b6000602082840312156120b957600080fd5b815167ffffffffffffffff8111156120d057600080fd5b611e9384828501611e10565b6000602082840312156120ee57600080fd5b6000611e938484611e5f565b60008060006060848603121561210f57600080fd5b600061211b8686611e5f565b935050602061212c86828701611e5f565b9250506040611f9186828701611e5f565b6000806000806080858703121561215357600080fd5b600061215f8787611e5f565b945050602061217087828801611e5f565b935050604061218187828801611e5f565b9250506060611ef887828801611e5f565b6000602082840312156121a457600080fd5b6000611e938484611e6a565b60006121bc838361235e565b505060200190565b60006121d08383612478565b50506101200190565b60006121e5838361252a565b50506102c00190565b60006121bc83836126e3565b612203816128a8565b82525050565b6122038161286e565b600061221d82612861565b6122278185612865565b93506122328361285b565b8060005b8381101561226057815161224a88826121b0565b97506122558361285b565b925050600101612236565b509495945050505050565b600061227682612861565b6122808185612865565b935061228b8361285b565b8060005b838110156122605781516122a388826121c4565b97506122ae8361285b565b92505060010161228f565b60006122c482612861565b6122ce8185612865565b93506122d98361285b565b8060005b838110156122605781516122f188826121d9565b97506122fc8361285b565b9250506001016122dd565b600061231282612861565b61231c8185612865565b93506123278361285b565b8060005b8381101561226057815161233f88826121ee565b975061234a8361285b565b92505060010161232b565b61220381612879565b6122038161287e565b612203816128b3565b600061237b82612861565b6123858185612865565b93506123958185602086016128be565b61239e816128ea565b9093019392505050565b60006123b382612861565b6123bd8185610524565b93506123cd8185602086016128be565b9290920192915050565b60006123e4601483612865565b7336b4b9b6b0ba31b41031b7b6b83a3937b63632b960611b815260200192915050565b6000612414600d83612865565b6c1a5b9d985b1a59081a5b9c1d5d609a1b815260200192915050565b80516060808452600091908401906124488282612212565b915050602083015161245d60208601826126e3565b50604083015161247060408601826126e3565b509392505050565b805161012083019061248a8482612209565b50602082015161249d60208501826126e3565b5060408201516124b060408501826126e3565b5060608201516124c360608501826126e3565b5060808201516124d660808501826126e3565b5060a08201516124e960a08501826126e3565b5060c08201516124fc60c0850182612355565b5060e082015161250f60e08501826126e3565b506101008201516125246101008501826126e3565b50505050565b80516102c083019061253c8482612209565b50602082015161254f60208501826126e3565b50604082015161256260408501826126e3565b50606082015161257560608501826126e3565b50608082015161258860808501826126e3565b5060a082015161259b60a08501826126e3565b5060c08201516125ae60c08501826126e3565b5060e08201516125c160e08501826126e3565b506101008201516125d66101008501826126e3565b506101208201516125eb6101208501826126e3565b50610140820151612600610140850182612355565b506101608201516126156101608501826126e3565b5061018082015161262a610180850182612209565b506101a082015161263f6101a08501826126e3565b506101c08201516126546101c08501826126e3565b506101e08201516126696101e0850182612367565b5061020082015161267e6102008501826126e3565b506102208201516126936102208501826126e3565b506102408201516126a8610240850182612355565b506102608201516126bd610260850182612355565b506102808201516126d26102808501826126e3565b506102a08201516125246102a08501825b6122038161289f565b60006101fa82846123a8565b602081016107c68284612209565b602081016107c682846121fa565b6040810161272282856121fa565b6101fa6020830184612209565b6040810161273d82856121fa565b6101fa602083018461235e565b602080825281016101fa818461226b565b602080825281016101fa81846122b9565b602080825281016101fa8184612307565b602081016107c6828461235e565b602080825281016101fa8184612370565b602080825281016107c6816123d7565b602080825281016107c681612407565b602080825281016101fa8184612430565b61012081016107c68284612478565b6102c081016107c6828461252a565b60405181810167ffffffffffffffff8111828210171561280a57600080fd5b604052919050565b600067ffffffffffffffff82111561282957600080fd5b5060209081020190565b600067ffffffffffffffff82111561284a57600080fd5b506020601f91909101601f19160190565b60200190565b5190565b90815260200190565b60006107c682612893565b151590565b60006107c68261286e565b80610524816128f4565b6001600160a01b031690565b90565b60ff1690565b60006107c68261287e565b60006107c682612889565b60005b838110156128d95781810151838201526020016128c1565b838111156125245750506000910152565b601f01601f191690565b600381106128fe57fe5b50565b61290a8161286e565b81146128fe57600080fd5b61290a81612879565b61290a8161287e565b600381106128fe57600080fd5b61290a8161289f565b61290a816128a256fea365627a7a72315820f928ceb52b46d5e920246322305fada3cb6a212531b4ba5a26505c2c14bbfa6f6c6578706572696d656e74616cf564736f6c63430005100040",
  "devdoc": {
    "methods": {}
  },
  "userdoc": {
    "methods": {}
  },
  "storageLayout": {
    "storage": [],
    "types": null
  }
}