{
  "address": "0xa434A799Ced9e7120EE93d453565772c313330f4",
  "abi": [
    {
      "inputs": [],
      "payable": false,
      "stateMutability": "nonpayable",
      "type": "constructor"
    },
    {
      "anonymous": false,
      "inputs": [
        {
          "indexed": false,
          "internalType": "uint256",
          "name": "cashPrior",
          "type": "uint256"
        },
        {
          "indexed": false,
          "internalType": "uint256",
          "name": "interestAccumulated",
          "type": "uint256"
        },
        {
          "indexed": false,
          "internalType": "uint256",
          "name": "borrowIndex",
          "type": "uint256"
        },
        {
          "indexed": false,
          "internalType": "uint256",
          "name": "totalBorrows",
          "type": "uint256"
        }
      ],
      "name": "AccrueInterest",
      "type": "event"
    },
    {
      "anonymous": false,
      "inputs": [
        {
          "indexed": true,
          "internalType": "address",
          "name": "owner",
          "type": "address"
        },
        {
          "indexed": true,
          "internalType": "address",
          "name": "spender",
          "type": "address"
        },
        {
          "indexed": false,
          "internalType": "uint256",
          "name": "amount",
          "type": "uint256"
        }
      ],
      "name": "Approval",
      "type": "event"
    },
    {
      "anonymous": false,
      "inputs": [
        {
          "indexed": false,
          "internalType": "address",
          "name": "borrower",
          "type": "address"
        },
        {
          "indexed": false,
          "internalType": "uint256",
          "name": "borrowAmount",
          "type": "uint256"
        },
        {
          "indexed": false,
          "internalType": "uint256",
          "name": "accountBorrows",
          "type": "uint256"
        },
        {
          "indexed": false,
          "internalType": "uint256",
          "name": "totalBorrows",
          "type": "uint256"
        }
      ],
      "name": "Borrow",
      "type": "event"
    },
    {
      "anonymous": false,
      "inputs": [
        {
          "indexed": false,
          "internalType": "uint256",
          "name": "error",
          "type": "uint256"
        },
        {
          "indexed": false,
          "internalType": "uint256",
          "name": "info",
          "type": "uint256"
        },
        {
          "indexed": false,
          "internalType": "uint256",
          "name": "detail",
          "type": "uint256"
        }
      ],
      "name": "Failure",
      "type": "event"
    },
    {
      "anonymous": false,
      "inputs": [
        {
          "indexed": false,
          "internalType": "address",
          "name": "liquidator",
          "type": "address"
        },
        {
          "indexed": false,
          "internalType": "address",
          "name": "borrower",
          "type": "address"
        },
        {
          "indexed": false,
          "internalType": "uint256",
          "name": "repayAmount",
          "type": "uint256"
        },
        {
          "indexed": false,
          "internalType": "address",
          "name": "cTokenCollateral",
          "type": "address"
        },
        {
          "indexed": false,
          "internalType": "uint256",
          "name": "seizeTokens",
          "type": "uint256"
        }
      ],
      "name": "LiquidateBorrow",
      "type": "event"
    },
    {
      "anonymous": false,
      "inputs": [
        {
          "indexed": false,
          "internalType": "address",
          "name": "minter",
          "type": "address"
        },
        {
          "indexed": false,
          "internalType": "uint256",
          "name": "mintAmount",
          "type": "uint256"
        },
        {
          "indexed": false,
          "internalType": "uint256",
          "name": "mintTokens",
          "type": "uint256"
        }
      ],
      "name": "Mint",
      "type": "event"
    },
    {
      "anonymous": false,
      "inputs": [
        {
          "indexed": false,
          "internalType": "address",
          "name": "oldAdmin",
          "type": "address"
        },
        {
          "indexed": false,
          "internalType": "address",
          "name": "newAdmin",
          "type": "address"
        }
      ],
      "name": "NewAdmin",
      "type": "event"
    },
    {
      "anonymous": false,
      "inputs": [
        {
          "indexed": false,
          "internalType": "contract ComptrollerInterface",
          "name": "oldComptroller",
          "type": "address"
        },
        {
          "indexed": false,
          "internalType": "contract ComptrollerInterface",
          "name": "newComptroller",
          "type": "address"
        }
      ],
      "name": "NewComptroller",
      "type": "event"
    },
    {
      "anonymous": false,
      "inputs": [
        {
          "indexed": false,
          "internalType": "contract InterestRateModel",
          "name": "oldInterestRateModel",
          "type": "address"
        },
        {
          "indexed": false,
          "internalType": "contract InterestRateModel",
          "name": "newInterestRateModel",
          "type": "address"
        }
      ],
      "name": "NewMarketInterestRateModel",
      "type": "event"
    },
    {
      "anonymous": false,
      "inputs": [
        {
          "indexed": false,
          "internalType": "address",
          "name": "oldPendingAdmin",
          "type": "address"
        },
        {
          "indexed": false,
          "internalType": "address",
          "name": "newPendingAdmin",
          "type": "address"
        }
      ],
      "name": "NewPendingAdmin",
      "type": "event"
    },
    {
      "anonymous": false,
      "inputs": [
        {
          "indexed": false,
          "internalType": "uint256",
          "name": "oldReserveFactorMantissa",
          "type": "uint256"
        },
        {
          "indexed": false,
          "internalType": "uint256",
          "name": "newReserveFactorMantissa",
          "type": "uint256"
        }
      ],
      "name": "NewReserveFactor",
      "type": "event"
    },
    {
      "anonymous": false,
      "inputs": [
        {
          "indexed": false,
          "internalType": "address",
          "name": "redeemer",
          "type": "address"
        },
        {
          "indexed": false,
          "internalType": "uint256",
          "name": "redeemAmount",
          "type": "uint256"
        },
        {
          "indexed": false,
          "internalType": "uint256",
          "name": "redeemTokens",
          "type": "uint256"
        }
      ],
      "name": "Redeem",
      "type": "event"
    },
    {
      "anonymous": false,
      "inputs": [
        {
          "indexed": false,
          "internalType": "address",
          "name": "payer",
          "type": "address"
        },
        {
          "indexed": false,
          "internalType": "address",
          "name": "borrower",
          "type": "address"
        },
        {
          "indexed": false,
          "internalType": "uint256",
          "name": "repayAmount",
          "type": "uint256"
        },
        {
          "indexed": false,
          "internalType": "uint256",
          "name": "accountBorrows",
          "type": "uint256"
        },
        {
          "indexed": false,
          "internalType": "uint256",
          "name": "totalBorrows",
          "type": "uint256"
        }
      ],
      "name": "RepayBorrow",
      "type": "event"
    },
    {
      "anonymous": false,
      "inputs": [
        {
          "indexed": false,
          "internalType": "address",
          "name": "benefactor",
          "type": "address"
        },
        {
          "indexed": false,
          "internalType": "uint256",
          "name": "addAmount",
          "type": "uint256"
        },
        {
          "indexed": false,
          "internalType": "uint256",
          "name": "newTotalReserves",
          "type": "uint256"
        }
      ],
      "name": "ReservesAdded",
      "type": "event"
    },
    {
      "anonymous": false,
      "inputs": [
        {
          "indexed": false,
          "internalType": "address",
          "name": "admin",
          "type": "address"
        },
        {
          "indexed": false,
          "internalType": "uint256",
          "name": "reduceAmount",
          "type": "uint256"
        },
        {
          "indexed": false,
          "internalType": "uint256",
          "name": "newTotalReserves",
          "type": "uint256"
        }
      ],
      "name": "ReservesReduced",
      "type": "event"
    },
    {
      "anonymous": false,
      "inputs": [
        {
          "indexed": true,
          "internalType": "address",
          "name": "from",
          "type": "address"
        },
        {
          "indexed": true,
          "internalType": "address",
          "name": "to",
          "type": "address"
        },
        {
          "indexed": false,
          "internalType": "uint256",
          "name": "amount",
          "type": "uint256"
        }
      ],
      "name": "Transfer",
      "type": "event"
    },
    {
      "constant": false,
      "inputs": [],
      "name": "_acceptAdmin",
      "outputs": [
        {
          "internalType": "uint256",
          "name": "",
          "type": "uint256"
        }
      ],
      "payable": false,
      "stateMutability": "nonpayable",
      "type": "function"
    },
    {
      "constant": false,
      "inputs": [
        {
          "internalType": "uint256",
          "name": "addAmount",
          "type": "uint256"
        }
      ],
      "name": "_addReserves",
      "outputs": [
        {
          "internalType": "uint256",
          "name": "",
          "type": "uint256"
        }
      ],
      "payable": false,
      "stateMutability": "nonpayable",
      "type": "function"
    },
    {
      "constant": false,
      "inputs": [
        {
          "internalType": "bytes",
          "name": "data",
          "type": "bytes"
        }
      ],
      "name": "_becomeImplementation",
      "outputs": [],
      "payable": false,
      "stateMutability": "nonpayable",
      "type": "function"
    },
    {
      "constant": false,
      "inputs": [
        {
          "internalType": "uint256",
          "name": "reduceAmount",
          "type": "uint256"
        }
      ],
      "name": "_reduceReserves",
      "outputs": [
        {
          "internalType": "uint256",
          "name": "",
          "type": "uint256"
        }
      ],
      "payable": false,
      "stateMutability": "nonpayable",
      "type": "function"
    },
    {
      "constant": false,
      "inputs": [],
      "name": "_resignImplementation",
      "outputs": [],
      "payable": false,
      "stateMutability": "nonpayable",
      "type": "function"
    },
    {
      "constant": false,
      "inputs": [
        {
          "internalType": "contract ComptrollerInterface",
          "name": "newComptroller",
          "type": "address"
        }
      ],
      "name": "_setComptroller",
      "outputs": [
        {
          "internalType": "uint256",
          "name": "",
          "type": "uint256"
        }
      ],
      "payable": false,
      "stateMutability": "nonpayable",
      "type": "function"
    },
    {
      "constant": false,
      "inputs": [
        {
          "internalType": "contract InterestRateModel",
          "name": "newInterestRateModel",
          "type": "address"
        }
      ],
      "name": "_setInterestRateModel",
      "outputs": [
        {
          "internalType": "uint256",
          "name": "",
          "type": "uint256"
        }
      ],
      "payable": false,
      "stateMutability": "nonpayable",
      "type": "function"
    },
    {
      "constant": false,
      "inputs": [
        {
          "internalType": "address payable",
          "name": "newPendingAdmin",
          "type": "address"
        }
      ],
      "name": "_setPendingAdmin",
      "outputs": [
        {
          "internalType": "uint256",
          "name": "",
          "type": "uint256"
        }
      ],
      "payable": false,
      "stateMutability": "nonpayable",
      "type": "function"
    },
    {
      "constant": false,
      "inputs": [
        {
          "internalType": "uint256",
          "name": "newReserveFactorMantissa",
          "type": "uint256"
        }
      ],
      "name": "_setReserveFactor",
      "outputs": [
        {
          "internalType": "uint256",
          "name": "",
          "type": "uint256"
        }
      ],
      "payable": false,
      "stateMutability": "nonpayable",
      "type": "function"
    },
    {
      "constant": true,
      "inputs": [],
      "name": "accrualBlockNumber",
      "outputs": [
        {
          "internalType": "uint256",
          "name": "",
          "type": "uint256"
        }
      ],
      "payable": false,
      "stateMutability": "view",
      "type": "function"
    },
    {
      "constant": false,
      "inputs": [],
      "name": "accrueInterest",
      "outputs": [
        {
          "internalType": "uint256",
          "name": "",
          "type": "uint256"
        }
      ],
      "payable": false,
      "stateMutability": "nonpayable",
      "type": "function"
    },
    {
      "constant": true,
      "inputs": [],
      "name": "admin",
      "outputs": [
        {
          "internalType": "address payable",
          "name": "",
          "type": "address"
        }
      ],
      "payable": false,
      "stateMutability": "view",
      "type": "function"
    },
    {
      "constant": true,
      "inputs": [
        {
          "internalType": "address",
          "name": "owner",
          "type": "address"
        },
        {
          "internalType": "address",
          "name": "spender",
          "type": "address"
        }
      ],
      "name": "allowance",
      "outputs": [
        {
          "internalType": "uint256",
          "name": "",
          "type": "uint256"
        }
      ],
      "payable": false,
      "stateMutability": "view",
      "type": "function"
    },
    {
      "constant": false,
      "inputs": [
        {
          "internalType": "address",
          "name": "spender",
          "type": "address"
        },
        {
          "internalType": "uint256",
          "name": "amount",
          "type": "uint256"
        }
      ],
      "name": "approve",
      "outputs": [
        {
          "internalType": "bool",
          "name": "",
          "type": "bool"
        }
      ],
      "payable": false,
      "stateMutability": "nonpayable",
      "type": "function"
    },
    {
      "constant": true,
      "inputs": [
        {
          "internalType": "address",
          "name": "owner",
          "type": "address"
        }
      ],
      "name": "balanceOf",
      "outputs": [
        {
          "internalType": "uint256",
          "name": "",
          "type": "uint256"
        }
      ],
      "payable": false,
      "stateMutability": "view",
      "type": "function"
    },
    {
      "constant": false,
      "inputs": [
        {
          "internalType": "address",
          "name": "owner",
          "type": "address"
        }
      ],
      "name": "balanceOfUnderlying",
      "outputs": [
        {
          "internalType": "uint256",
          "name": "",
          "type": "uint256"
        }
      ],
      "payable": false,
      "stateMutability": "nonpayable",
      "type": "function"
    },
    {
      "constant": false,
      "inputs": [
        {
          "internalType": "uint256",
          "name": "borrowAmount",
          "type": "uint256"
        }
      ],
      "name": "borrow",
      "outputs": [
        {
          "internalType": "uint256",
          "name": "",
          "type": "uint256"
        }
      ],
      "payable": false,
      "stateMutability": "nonpayable",
      "type": "function"
    },
    {
      "constant": false,
      "inputs": [
        {
          "internalType": "address",
          "name": "account",
          "type": "address"
        }
      ],
      "name": "borrowBalanceCurrent",
      "outputs": [
        {
          "internalType": "uint256",
          "name": "",
          "type": "uint256"
        }
      ],
      "payable": false,
      "stateMutability": "nonpayable",
      "type": "function"
    },
    {
      "constant": true,
      "inputs": [
        {
          "internalType": "address",
          "name": "account",
          "type": "address"
        }
      ],
      "name": "borrowBalanceStored",
      "outputs": [
        {
          "internalType": "uint256",
          "name": "",
          "type": "uint256"
        }
      ],
      "payable": false,
      "stateMutability": "view",
      "type": "function"
    },
    {
      "constant": true,
      "inputs": [],
      "name": "borrowIndex",
      "outputs": [
        {
          "internalType": "uint256",
          "name": "",
          "type": "uint256"
        }
      ],
      "payable": false,
      "stateMutability": "view",
      "type": "function"
    },
    {
      "constant": true,
      "inputs": [],
      "name": "borrowRatePerBlock",
      "outputs": [
        {
          "internalType": "uint256",
          "name": "",
          "type": "uint256"
        }
      ],
      "payable": false,
      "stateMutability": "view",
      "type": "function"
    },
    {
      "constant": true,
      "inputs": [],
      "name": "comptroller",
      "outputs": [
        {
          "internalType": "contract ComptrollerInterface",
          "name": "",
          "type": "address"
        }
      ],
      "payable": false,
      "stateMutability": "view",
      "type": "function"
    },
    {
      "constant": true,
      "inputs": [],
      "name": "decimals",
      "outputs": [
        {
          "internalType": "uint8",
          "name": "",
          "type": "uint8"
        }
      ],
      "payable": false,
      "stateMutability": "view",
      "type": "function"
    },
    {
      "constant": true,
      "inputs": [
        {
          "internalType": "uint256",
          "name": "change",
          "type": "uint256"
        },
        {
          "internalType": "bool",
          "name": "repay",
          "type": "bool"
        }
      ],
      "name": "estimateBorrowRatePerBlockAfterChange",
      "outputs": [
        {
          "internalType": "uint256",
          "name": "",
          "type": "uint256"
        }
      ],
      "payable": false,
      "stateMutability": "view",
      "type": "function"
    },
    {
      "constant": true,
      "inputs": [
        {
          "internalType": "uint256",
          "name": "change",
          "type": "uint256"
        },
        {
          "internalType": "bool",
          "name": "repay",
          "type": "bool"
        }
      ],
      "name": "estimateSupplyRatePerBlockAfterChange",
      "outputs": [
        {
          "internalType": "uint256",
          "name": "",
          "type": "uint256"
        }
      ],
      "payable": false,
      "stateMutability": "view",
      "type": "function"
    },
    {
      "constant": false,
      "inputs": [],
      "name": "exchangeRateCurrent",
      "outputs": [
        {
          "internalType": "uint256",
          "name": "",
          "type": "uint256"
        }
      ],
      "payable": false,
      "stateMutability": "nonpayable",
      "type": "function"
    },
    {
      "constant": true,
      "inputs": [],
      "name": "exchangeRateStored",
      "outputs": [
        {
          "internalType": "uint256",
          "name": "",
          "type": "uint256"
        }
      ],
      "payable": false,
      "stateMutability": "view",
      "type": "function"
    },
    {
      "constant": true,
      "inputs": [
        {
          "internalType": "address",
          "name": "account",
          "type": "address"
        }
      ],
      "name": "getAccountSnapshot",
      "outputs": [
        {
          "internalType": "uint256",
          "name": "",
          "type": "uint256"
        },
        {
          "internalType": "uint256",
          "name": "",
          "type": "uint256"
        },
        {
          "internalType": "uint256",
          "name": "",
          "type": "uint256"
        },
        {
          "internalType": "uint256",
          "name": "",
          "type": "uint256"
        }
      ],
      "payable": false,
      "stateMutability": "view",
      "type": "function"
    },
    {
      "constant": true,
      "inputs": [],
      "name": "getCash",
      "outputs": [
        {
          "internalType": "uint256",
          "name": "",
          "type": "uint256"
        }
      ],
      "payable": false,
      "stateMutability": "view",
      "type": "function"
    },
    {
      "constant": true,
      "inputs": [],
      "name": "implementation",
      "outputs": [
        {
          "internalType": "address",
          "name": "",
          "type": "address"
        }
      ],
      "payable": false,
      "stateMutability": "view",
      "type": "function"
    },
    {
      "constant": false,
      "inputs": [
        {
          "internalType": "address",
          "name": "underlying_",
          "type": "address"
        },
        {
          "internalType": "contract ComptrollerInterface",
          "name": "comptroller_",
          "type": "address"
        },
        {
          "internalType": "contract InterestRateModel",
          "name": "interestRateModel_",
          "type": "address"
        },
        {
          "internalType": "uint256",
          "name": "initialExchangeRateMantissa_",
          "type": "uint256"
        },
        {
          "internalType": "string",
          "name": "name_",
          "type": "string"
        },
        {
          "internalType": "string",
          "name": "symbol_",
          "type": "string"
        },
        {
          "internalType": "uint8",
          "name": "decimals_",
          "type": "uint8"
        }
      ],
      "name": "initialize",
      "outputs": [],
      "payable": false,
      "stateMutability": "nonpayable",
      "type": "function"
    },
    {
      "constant": false,
      "inputs": [
        {
          "internalType": "contract ComptrollerInterface",
          "name": "comptroller_",
          "type": "address"
        },
        {
          "internalType": "contract InterestRateModel",
          "name": "interestRateModel_",
          "type": "address"
        },
        {
          "internalType": "uint256",
          "name": "initialExchangeRateMantissa_",
          "type": "uint256"
        },
        {
          "internalType": "string",
          "name": "name_",
          "type": "string"
        },
        {
          "internalType": "string",
          "name": "symbol_",
          "type": "string"
        },
        {
          "internalType": "uint8",
          "name": "decimals_",
          "type": "uint8"
        }
      ],
      "name": "initialize",
      "outputs": [],
      "payable": false,
      "stateMutability": "nonpayable",
      "type": "function"
    },
    {
      "constant": true,
      "inputs": [],
      "name": "interestRateModel",
      "outputs": [
        {
          "internalType": "contract InterestRateModel",
          "name": "",
          "type": "address"
        }
      ],
      "payable": false,
      "stateMutability": "view",
      "type": "function"
    },
    {
      "constant": true,
      "inputs": [],
      "name": "isCToken",
      "outputs": [
        {
          "internalType": "bool",
          "name": "",
          "type": "bool"
        }
      ],
      "payable": false,
      "stateMutability": "view",
      "type": "function"
    },
    {
      "constant": false,
      "inputs": [
        {
          "internalType": "address",
          "name": "borrower",
          "type": "address"
        },
        {
          "internalType": "uint256",
          "name": "repayAmount",
          "type": "uint256"
        },
        {
          "internalType": "contract CTokenInterface",
          "name": "cTokenCollateral",
          "type": "address"
        }
      ],
      "name": "liquidateBorrow",
      "outputs": [
        {
          "internalType": "uint256",
          "name": "",
          "type": "uint256"
        }
      ],
      "payable": false,
      "stateMutability": "nonpayable",
      "type": "function"
    },
    {
      "constant": false,
      "inputs": [
        {
          "internalType": "uint256",
          "name": "mintAmount",
          "type": "uint256"
        }
      ],
      "name": "mint",
      "outputs": [
        {
          "internalType": "uint256",
          "name": "",
          "type": "uint256"
        }
      ],
      "payable": false,
      "stateMutability": "nonpayable",
      "type": "function"
    },
    {
      "constant": true,
      "inputs": [],
      "name": "name",
      "outputs": [
        {
          "internalType": "string",
          "name": "",
          "type": "string"
        }
      ],
      "payable": false,
      "stateMutability": "view",
      "type": "function"
    },
    {
      "constant": true,
      "inputs": [],
      "name": "pendingAdmin",
      "outputs": [
        {
          "internalType": "address payable",
          "name": "",
          "type": "address"
        }
      ],
      "payable": false,
      "stateMutability": "view",
      "type": "function"
    },
    {
      "constant": false,
      "inputs": [
        {
          "internalType": "uint256",
          "name": "redeemTokens",
          "type": "uint256"
        }
      ],
      "name": "redeem",
      "outputs": [
        {
          "internalType": "uint256",
          "name": "",
          "type": "uint256"
        }
      ],
      "payable": false,
      "stateMutability": "nonpayable",
      "type": "function"
    },
    {
      "constant": false,
      "inputs": [
        {
          "internalType": "uint256",
          "name": "redeemAmount",
          "type": "uint256"
        }
      ],
      "name": "redeemUnderlying",
      "outputs": [
        {
          "internalType": "uint256",
          "name": "",
          "type": "uint256"
        }
      ],
      "payable": false,
      "stateMutability": "nonpayable",
      "type": "function"
    },
    {
      "constant": false,
      "inputs": [
        {
          "internalType": "uint256",
          "name": "repayAmount",
          "type": "uint256"
        }
      ],
      "name": "repayBorrow",
      "outputs": [
        {
          "internalType": "uint256",
          "name": "",
          "type": "uint256"
        }
      ],
      "payable": false,
      "stateMutability": "nonpayable",
      "type": "function"
    },
    {
      "constant": true,
      "inputs": [],
      "name": "reserveFactorMantissa",
      "outputs": [
        {
          "internalType": "uint256",
          "name": "",
          "type": "uint256"
        }
      ],
      "payable": false,
      "stateMutability": "view",
      "type": "function"
    },
    {
      "constant": false,
      "inputs": [
        {
          "internalType": "address",
          "name": "liquidator",
          "type": "address"
        },
        {
          "internalType": "address",
          "name": "borrower",
          "type": "address"
        },
        {
          "internalType": "uint256",
          "name": "seizeTokens",
          "type": "uint256"
        }
      ],
      "name": "seize",
      "outputs": [
        {
          "internalType": "uint256",
          "name": "",
          "type": "uint256"
        }
      ],
      "payable": false,
      "stateMutability": "nonpayable",
      "type": "function"
    },
    {
      "constant": true,
      "inputs": [],
      "name": "supplyRatePerBlock",
      "outputs": [
        {
          "internalType": "uint256",
          "name": "",
          "type": "uint256"
        }
      ],
      "payable": false,
      "stateMutability": "view",
      "type": "function"
    },
    {
      "constant": true,
      "inputs": [],
      "name": "symbol",
      "outputs": [
        {
          "internalType": "string",
          "name": "",
          "type": "string"
        }
      ],
      "payable": false,
      "stateMutability": "view",
      "type": "function"
    },
    {
      "constant": true,
      "inputs": [],
      "name": "totalBorrows",
      "outputs": [
        {
          "internalType": "uint256",
          "name": "",
          "type": "uint256"
        }
      ],
      "payable": false,
      "stateMutability": "view",
      "type": "function"
    },
    {
      "constant": false,
      "inputs": [],
      "name": "totalBorrowsCurrent",
      "outputs": [
        {
          "internalType": "uint256",
          "name": "",
          "type": "uint256"
        }
      ],
      "payable": false,
      "stateMutability": "nonpayable",
      "type": "function"
    },
    {
      "constant": true,
      "inputs": [],
      "name": "totalReserves",
      "outputs": [
        {
          "internalType": "uint256",
          "name": "",
          "type": "uint256"
        }
      ],
      "payable": false,
      "stateMutability": "view",
      "type": "function"
    },
    {
      "constant": true,
      "inputs": [],
      "name": "totalSupply",
      "outputs": [
        {
          "internalType": "uint256",
          "name": "",
          "type": "uint256"
        }
      ],
      "payable": false,
      "stateMutability": "view",
      "type": "function"
    },
    {
      "constant": false,
      "inputs": [
        {
          "internalType": "address",
          "name": "dst",
          "type": "address"
        },
        {
          "internalType": "uint256",
          "name": "amount",
          "type": "uint256"
        }
      ],
      "name": "transfer",
      "outputs": [
        {
          "internalType": "bool",
          "name": "",
          "type": "bool"
        }
      ],
      "payable": false,
      "stateMutability": "nonpayable",
      "type": "function"
    },
    {
      "constant": false,
      "inputs": [
        {
          "internalType": "address",
          "name": "src",
          "type": "address"
        },
        {
          "internalType": "address",
          "name": "dst",
          "type": "address"
        },
        {
          "internalType": "uint256",
          "name": "amount",
          "type": "uint256"
        }
      ],
      "name": "transferFrom",
      "outputs": [
        {
          "internalType": "bool",
          "name": "",
          "type": "bool"
        }
      ],
      "payable": false,
      "stateMutability": "nonpayable",
      "type": "function"
    },
    {
      "constant": true,
      "inputs": [],
      "name": "underlying",
      "outputs": [
        {
          "internalType": "address",
          "name": "",
          "type": "address"
        }
      ],
      "payable": false,
      "stateMutability": "view",
      "type": "function"
    }
  ],
  "transactionHash": "0xa1c2fb06cf9381c65dbb3c573ffae00f4b6b11a5d8997fa9e95393550743d57b",
  "args": [],
  "solcInputHash": "af94273bfeb935476334f847f3412514",
  "bytecode": "0x608060405234801561001057600080fd5b506144e7806100206000396000f3fe608060405234801561001057600080fd5b506004361061030c5760003560e01c806373acee981161019d578063bd6d894d116100e9578063f2b3abbd116100a2578063f851a4401161007c578063f851a44014610b6b578063f8f9da2814610b73578063fca7820b14610b7b578063fe9c44ae14610b985761030c565b8063f2b3abbd14610b07578063f3fdb15a14610b2d578063f5e3c46214610b355761030c565b8063bd6d894d14610a43578063c37f68e214610a4b578063c5ebeaec14610a97578063db006a7514610ab4578063dd62ed3e14610ad1578063e9c714f214610aff5761030c565b8063a0712d6811610156578063aa5af0fd11610130578063aa5af0fd146109d7578063ae9d70b0146109df578063b2a02ff1146109e7578063b71d1a0c14610a1d5761030c565b8063a0712d6814610986578063a6afed95146109a3578063a9059cbb146109ab5761030c565b806373acee98146107dd578063852a12e3146107e55780638f840ddd1461080257806395d89b411461080a57806395dd91931461081257806399d8c1b4146108385761030c565b8063313ce5671161025c57806356e6772811610215578063601a0bf1116101ef578063601a0bf11461078a5780636c540baf146107a75780636f307dc3146107af57806370a08231146107b75761030c565b806356e67728146106d65780635c60da1b1461077a5780635fe3b567146107825761030c565b8063313ce5671461063f5780633af9e6691461065d5780633b1d21a2146106835780633e9410101461068b5780634576b5db146106a857806347bd3718146106ce5761030c565b8063173b9904116102c9578063182df0f5116102a3578063182df0f5146104875780631a31d4651461048f57806323b872dd146105e5578063267822471461061b5761030c565b8063173b99041461045157806317bfdfbc1461045957806318160ddd1461047f5761030c565b806305dd00b81461031157806306fdde0314610348578063095ea7b3146103c55780630e752702146104055780630f22688814610422578063153ab50514610447575b600080fd5b6103366004803603604081101561032757600080fd5b50803590602001351515610ba0565b60408051918252519081900360200190f35b610350610c85565b6040805160208082528351818301528351919283929083019185019080838360005b8381101561038a578181015183820152602001610372565b50505050905090810190601f1680156103b75780820380516001836020036101000a031916815260200191505b509250505060405180910390f35b6103f1600480360360408110156103db57600080fd5b506001600160a01b038135169060200135610d12565b604080519115158252519081900360200190f35b6103366004803603602081101561041b57600080fd5b5035610d7d565b6103366004803603604081101561043857600080fd5b50803590602001351515610d95565b61044f610e44565b005b610336610e94565b6103366004803603602081101561046f57600080fd5b50356001600160a01b0316610e9a565b610336610f5a565b610336610f60565b61044f600480360360e08110156104a557600080fd5b6001600160a01b03823581169260208101358216926040820135909216916060820135919081019060a081016080820135600160201b8111156104e757600080fd5b8201836020820111156104f957600080fd5b803590602001918460018302840111600160201b8311171561051a57600080fd5b91908080601f0160208091040260200160405190810160405280939291908181526020018383808284376000920191909152509295949360208101935035915050600160201b81111561056c57600080fd5b82018360208201111561057e57600080fd5b803590602001918460018302840111600160201b8311171561059f57600080fd5b91908080601f0160208091040260200160405190810160405280939291908181526020018383808284376000920191909152509295505050903560ff169150610f709050565b6103f1600480360360608110156105fb57600080fd5b506001600160a01b0381358116916020810135909116906040013561100f565b610623611081565b604080516001600160a01b039092168252519081900360200190f35b610647611090565b6040805160ff9092168252519081900360200190f35b6103366004803603602081101561067357600080fd5b50356001600160a01b0316611099565b6103366110e6565b610336600480360360208110156106a157600080fd5b50356110f0565b610336600480360360208110156106be57600080fd5b50356001600160a01b0316611103565b610336611255565b61044f600480360360208110156106ec57600080fd5b810190602081018135600160201b81111561070657600080fd5b82018360208201111561071857600080fd5b803590602001918460018302840111600160201b8311171561073957600080fd5b91908080601f01602080910402602001604051908101604052809392919081815260200183838082843760009201919091525092955061125b945050505050565b6106236112ac565b6106236112bb565b610336600480360360208110156107a057600080fd5b50356112ca565b610336611365565b61062361136b565b610336600480360360208110156107cd57600080fd5b50356001600160a01b031661137a565b610336611395565b610336600480360360208110156107fb57600080fd5b503561144b565b610336611458565b61035061145e565b6103366004803603602081101561082857600080fd5b50356001600160a01b03166114b6565b61044f600480360360c081101561084e57600080fd5b6001600160a01b03823581169260208101359091169160408201359190810190608081016060820135600160201b81111561088857600080fd5b82018360208201111561089a57600080fd5b803590602001918460018302840111600160201b831117156108bb57600080fd5b91908080601f0160208091040260200160405190810160405280939291908181526020018383808284376000920191909152509295949360208101935035915050600160201b81111561090d57600080fd5b82018360208201111561091f57600080fd5b803590602001918460018302840111600160201b8311171561094057600080fd5b91908080601f0160208091040260200160405190810160405280939291908181526020018383808284376000920191909152509295505050903560ff1691506114c19050565b6103366004803603602081101561099c57600080fd5b50356116a8565b6103366116b6565b6103f1600480360360408110156109c157600080fd5b506001600160a01b0381351690602001356118c6565b610336611938565b61033661193e565b610336600480360360608110156109fd57600080fd5b506001600160a01b038135811691602081013590911690604001356119dd565b61033660048036036020811015610a3357600080fd5b50356001600160a01b0316611a4e565b610336611ada565b610a7160048036036020811015610a6157600080fd5b50356001600160a01b0316611b96565b604080519485526020850193909352838301919091526060830152519081900360800190f35b61033660048036036020811015610aad57600080fd5b5035611bd2565b61033660048036036020811015610aca57600080fd5b5035611bdf565b61033660048036036040811015610ae757600080fd5b506001600160a01b0381358116916020013516611bec565b610336611c17565b61033660048036036020811015610b1d57600080fd5b50356001600160a01b0316611d1a565b610623611d54565b61033660048036036060811015610b4b57600080fd5b506001600160a01b03813581169160208101359160409091013516611d63565b610623611d7d565b610336611d91565b61033660048036036020811015610b9157600080fd5b5035611df5565b6103f1611e73565b60008060008315610bd157610bbc610bb6611e78565b86611ef8565b9150610bca600b5486611f2e565b9050610bf3565b610be2610bdc611e78565b86611f2e565b9150610bf0600b5486611ef8565b90505b600654600c54604080516315f2405360e01b815260048101869052602481018590526044810192909252516001600160a01b03909216916315f2405391606480820192602092909190829003018186803b158015610c5057600080fd5b505afa158015610c64573d6000803e3d6000fd5b505050506040513d6020811015610c7a57600080fd5b505195945050505050565b60018054604080516020600284861615610100026000190190941693909304601f81018490048402820184019092528181529291830182828015610d0a5780601f10610cdf57610100808354040283529160200191610d0a565b820191906000526020600020905b815481529060010190602001808311610ced57829003601f168201915b505050505081565b336000818152600f602090815260408083206001600160a01b03871680855290835281842086905581518681529151939493909284927f8c5be1e5ebec7d5bd14f71427d1e84f3dd0314c0f7b2291e5b200ac8c7c3b925929081900390910190a35060019392505050565b600080610d8b836000611f68565b509150505b919050565b60008060008315610dc057610dab610bb6611e78565b9150610db9600b5486611f2e565b9050610ddc565b610dcb610bdc611e78565b9150610dd9600b5486611ef8565b90505b600654600c5460085460408051635c0b440b60e11b8152600481018790526024810186905260448101939093526064830191909152516001600160a01b039092169163b816881691608480820192602092909190829003018186803b158015610c5057600080fd5b60035461010090046001600160a01b03163314610e925760405162461bcd60e51b815260040180806020018281038252602d8152602001806143d2602d913960400191505060405180910390fd5b565b60085481565b6000805460ff16610edf576040805162461bcd60e51b815260206004820152600a6024820152691c994b595b9d195c995960b21b604482015290519081900360640190fd5b6000805460ff19168155610ef16116b6565b14610f3c576040805162461bcd60e51b81526020600482015260166024820152751858d8dc9d59481a5b9d195c995cdd0819985a5b195960521b604482015290519081900360640190fd5b610f45826114b6565b90505b6000805460ff19166001179055919050565b600d5481565b6000610f6a612014565b90505b90565b610f7e8686868686866114c1565b601180546001600160a01b0319166001600160a01b038981169190911791829055604080516318160ddd60e01b8152905192909116916318160ddd91600480820192602092909190829003018186803b158015610fda57600080fd5b505afa158015610fee573d6000803e3d6000fd5b505050506040513d602081101561100457600080fd5b505050505050505050565b6000805460ff16611054576040805162461bcd60e51b815260206004820152600a6024820152691c994b595b9d195c995960b21b604482015290519081900360640190fd5b6000805460ff1916815561106a3386868661207a565b1490506000805460ff191660011790559392505050565b6004546001600160a01b031681565b60035460ff1681565b60006110a36141d2565b60405180602001604052806110b6611ada565b90526001600160a01b0384166000908152600e60205260409020549091506110df908290612283565b9392505050565b6000610f6a611e78565b60006110fd8260006122a2565b92915050565b60035460009061010090046001600160a01b031633146111305761112960016028612340565b9050610d90565b60055460408051623f1ee960e11b815290516001600160a01b0392831692851691627e3dd2916004808301926020929190829003018186803b15801561117557600080fd5b505afa158015611189573d6000803e3d6000fd5b505050506040513d602081101561119f57600080fd5b50516111f2576040805162461bcd60e51b815260206004820152601c60248201527f6d61726b6572206d6574686f642072657475726e65642066616c736500000000604482015290519081900360640190fd5b600580546001600160a01b0319166001600160a01b03858116918217909255604080519284168352602083019190915280517f7ac369dbd14fa5ea3f473ed67cc9d598964a77501540ba6751eb0b3decf5870d9281900390910190a160006110df565b600b5481565b60035461010090046001600160a01b031633146112a95760405162461bcd60e51b815260040180806020018281038252602d815260200180614486602d913960400191505060405180910390fd5b50565b6012546001600160a01b031681565b6005546001600160a01b031681565b6000805460ff1661130f576040805162461bcd60e51b815260206004820152600a6024820152691c994b595b9d195c995960b21b604482015290519081900360640190fd5b6000805460ff191681556113216116b6565b905080156113475761133f81601081111561133857fe5b601d612340565b915050610f48565b611350836123a6565b9150506000805460ff19166001179055919050565b60095481565b6011546001600160a01b031681565b6001600160a01b03166000908152600e602052604090205490565b6000805460ff166113da576040805162461bcd60e51b815260206004820152600a6024820152691c994b595b9d195c995960b21b604482015290519081900360640190fd5b6000805460ff191681556113ec6116b6565b14611437576040805162461bcd60e51b81526020600482015260166024820152751858d8dc9d59481a5b9d195c995cdd0819985a5b195960521b604482015290519081900360640190fd5b50600b546000805460ff1916600117905590565b60006110fd8260006124a4565b600c5481565b6002805460408051602060018416156101000260001901909316849004601f81018490048402820184019092528181529291830182828015610d0a5780601f10610cdf57610100808354040283529160200191610d0a565b60006110fd8261253c565b60035461010090046001600160a01b0316331461150f5760405162461bcd60e51b81526004018080602001828103825260248152602001806143396024913960400191505060405180910390fd5b60095415801561151f5750600a54155b61155a5760405162461bcd60e51b815260040180806020018281038252602381526020018061435d6023913960400191505060405180910390fd5b60078490558361159b5760405162461bcd60e51b81526004018080602001828103825260308152602001806143806030913960400191505060405180910390fd5b60006115a687611103565b905080156115fb576040805162461bcd60e51b815260206004820152601a60248201527f73657474696e6720636f6d7074726f6c6c6572206661696c6564000000000000604482015290519081900360640190fd5b611603612591565b600955670de0b6b3a7640000600a5561161b86612595565b9050801561165a5760405162461bcd60e51b81526004018080602001828103825260228152602001806143b06022913960400191505060405180910390fd5b835161166d9060019060208701906141e5565b5082516116819060029060208601906141e5565b50506003805460ff90921660ff199283161790556000805490911660011790555050505050565b600080610d8b83600061270a565b6000806116c1612591565b600954909150808214156116da57600092505050610f6d565b60006116e4611e78565b600b54600c54600a54600654604080516315f2405360e01b815260048101879052602481018690526044810185905290519596509394929391926000926001600160a01b03909216916315f24053916064808301926020929190829003018186803b15801561175257600080fd5b505afa158015611766573d6000803e3d6000fd5b505050506040513d602081101561177c57600080fd5b5051905065048c273950008111156117db576040805162461bcd60e51b815260206004820152601c60248201527f626f72726f772072617465206973206162737572646c79206869676800000000604482015290519081900360640190fd5b60006117e78888611f2e565b90506117f16141d2565b6118096040518060200160405280858152508361278c565b905060006118178288612283565b905060006118258289611ef8565b905060006118446040518060200160405280600854815250848a6127b6565b9050600061185385898a6127b6565b60098e9055600a819055600b849055600c839055604080518d8152602081018790528082018390526060810186905290519192507f4dec04e750ca11537cabcd8a9eab06494de08da3735bc8871cd41250e190bc04919081900360800190a160009d505050505050505050505050505090565b6000805460ff1661190b576040805162461bcd60e51b815260206004820152600a6024820152691c994b595b9d195c995960b21b604482015290519081900360640190fd5b6000805460ff191681556119213333868661207a565b1490505b6000805460ff1916600117905592915050565b600a5481565b6006546000906001600160a01b031663b816881661195a611e78565b600b54600c546008546040518563ffffffff1660e01b81526004018085815260200184815260200183815260200182815260200194505050505060206040518083038186803b1580156119ac57600080fd5b505afa1580156119c0573d6000803e3d6000fd5b505050506040513d60208110156119d657600080fd5b5051905090565b6000805460ff16611a22576040805162461bcd60e51b815260206004820152600a6024820152691c994b595b9d195c995960b21b604482015290519081900360640190fd5b6000805460ff19169055611a38338585856127de565b90506000805460ff191660011790559392505050565b60035460009061010090046001600160a01b03163314611a74576111296001602e612340565b600480546001600160a01b038481166001600160a01b0319831681179093556040805191909216808252602082019390935281517fca4f2f25d0898edd99413412fb94012f9e54ec8142f9b093e7720646a95b16a9929181900390910190a160006110df565b6000805460ff16611b1f576040805162461bcd60e51b815260206004820152600a6024820152691c994b595b9d195c995960b21b604482015290519081900360640190fd5b6000805460ff19168155611b316116b6565b14611b7c576040805162461bcd60e51b81526020600482015260166024820152751858d8dc9d59481a5b9d195c995cdd0819985a5b195960521b604482015290519081900360640190fd5b611b84610f60565b90506000805460ff1916600117905590565b6000806000806000611ba78661137a565b90506000611bb48761253c565b90506000611bc0612014565b90506000989297509095509350915050565b60006110fd826000612961565b60006110fd8260006129e1565b6001600160a01b039182166000908152600f6020908152604080832093909416825291909152205490565b6004546000906001600160a01b031633141580611c32575033155b15611c4a57611c4360016000612340565b9050610f6d565b60038054600480546001600160a01b03818116610100818102610100600160a81b0319871617968790556001600160a01b031990931690935560408051948390048216808652929095041660208401528351909391927ff9ffabca9c8276e99321725bcb43fb076a6c66a54b7f21c4e8146d8519b417dc92908290030190a1600454604080516001600160a01b038085168252909216602083015280517fca4f2f25d0898edd99413412fb94012f9e54ec8142f9b093e7720646a95b16a99281900390910190a160009250505090565b600080611d256116b6565b90508015611d4b57611d43816010811115611d3c57fe5b6029612340565b915050610d90565b6110df83612595565b6006546001600160a01b031681565b600080611d738585856000612a5c565b5095945050505050565b60035461010090046001600160a01b031681565b6006546000906001600160a01b03166315f24053611dad611e78565b600b54600c546040518463ffffffff1660e01b815260040180848152602001838152602001828152602001935050505060206040518083038186803b1580156119ac57600080fd5b6000805460ff16611e3a576040805162461bcd60e51b815260206004820152600a6024820152691c994b595b9d195c995960b21b604482015290519081900360640190fd5b6000805460ff19168155611e4c6116b6565b90508015611e6a5761133f816010811115611e6357fe5b602f612340565b61135083612b90565b600181565b601154604080516370a0823160e01b815230600482015290516000926001600160a01b03169182916370a0823191602480820192602092909190829003018186803b158015611ec657600080fd5b505afa158015611eda573d6000803e3d6000fd5b505050506040513d6020811015611ef057600080fd5b505191505090565b60006110df8383604051806040016040528060118152602001706164646974696f6e206f766572666c6f7760781b815250612c38565b60006110df8383604051806040016040528060158152602001747375627472616374696f6e20756e646572666c6f7760581b815250612cd3565b60008054819060ff16611faf576040805162461bcd60e51b815260206004820152600a6024820152691c994b595b9d195c995960b21b604482015290519081900360640190fd5b6000805460ff19168155611fc16116b6565b90508015611fec57611fdf816010811115611fd857fe5b6022612340565b925060009150611ffe9050565b611ff833338787612d2d565b92509250505b6000805460ff1916600117905590939092509050565b600d5460009080612029575050600754610f6d565b6000612033611e78565b9050600061204e61204683600b54611ef8565b600c54611f2e565b9050600061206a82604051806020016040528087815250612fcf565b9450610f6d9350505050565b5090565b600554604080516317b9b84b60e31b81523060048201526001600160a01b03868116602483015285811660448301526064820185905291516000938493169163bdcdc25891608480830192602092919082900301818787803b1580156120df57600080fd5b505af11580156120f3573d6000803e3d6000fd5b505050506040513d602081101561210957600080fd5b505190508015612128576121206003603383612fed565b91505061227b565b836001600160a01b0316856001600160a01b0316141561214e5761212060026034612340565b60006001600160a01b03878116908716141561216d5750600019612195565b506001600160a01b038086166000908152600f60209081526040808320938a16835292905220545b6001600160a01b0386166000908152600e60205260409020546121b89085611f2e565b6001600160a01b038088166000908152600e602052604080822093909355908716815220546121e79085611ef8565b6001600160a01b0386166000908152600e6020526040902055600019811461223a576122138185611f2e565b6001600160a01b038088166000908152600f60209081526040808320938c16835292905220555b846001600160a01b0316866001600160a01b03166000805160206143ff833981519152866040518082815260200191505060405180910390a360005b925050505b949350505050565b600061228d6141d2565b612297848461278c565b905061227b81613053565b6000805460ff166122e7576040805162461bcd60e51b815260206004820152600a6024820152691c994b595b9d195c995960b21b604482015290519081900360640190fd5b6000805460ff191681556122f96116b6565b9050801561231f5761231781601081111561231057fe5b6035612340565b915050611925565b6123298484613062565b509150506000805460ff1916600117905592915050565b60007f45b96fe442630264581b197e84bbada861235052c5a1aadfff9ea4e40a969aa083601081111561236f57fe5b83603781111561237b57fe5b604080519283526020830191909152600082820152519081900360600190a18260108111156110df57fe5b600354600090819061010090046001600160a01b031633146123ce57611d436001601e612340565b6123d6612591565b600954146123ea57611d43600a6020612340565b826123f3611e78565b101561240557611d43600e601f612340565b600c5483111561241b57611d4360026021612340565b612427600c5484611f2e565b600c81905560035490915061244c9061010090046001600160a01b0316846001613100565b600354604080516101009092046001600160a01b0316825260208201859052818101839052517f3bad0c59cf2f06e7314077049f48a93578cd16f5ef92329f1dab1420a99c177e916060908290030190a160006110df565b6000805460ff166124e9576040805162461bcd60e51b815260206004820152600a6024820152691c994b595b9d195c995960b21b604482015290519081900360640190fd5b6000805460ff191681556124fb6116b6565b905080156125195761231781601081111561251257fe5b6019612340565b61252633600086866131f8565b9150506000805460ff1916600117905592915050565b6001600160a01b03811660009081526010602052604081208054612564576000915050610d90565b60006125768260000154600a5461352b565b9050600061258882846001015461356d565b95945050505050565b4290565b600354600090819061010090046001600160a01b031633146125bd57611d436001602b612340565b6125c5612591565b600954146125d957611d43600a602a612340565b600660009054906101000a90046001600160a01b03169050826001600160a01b0316632191f92a6040518163ffffffff1660e01b815260040160206040518083038186803b15801561262a57600080fd5b505afa15801561263e573d6000803e3d6000fd5b505050506040513d602081101561265457600080fd5b50516126a7576040805162461bcd60e51b815260206004820152601c60248201527f6d61726b6572206d6574686f642072657475726e65642066616c736500000000604482015290519081900360640190fd5b600680546001600160a01b0319166001600160a01b03858116918217909255604080519284168352602083019190915280517fedffc32e068c7c95dfd4bdfd5c4d939a084d6b11c4199eac8436ed234d72f9269281900390910190a160006110df565b60008054819060ff16612751576040805162461bcd60e51b815260206004820152600a6024820152691c994b595b9d195c995960b21b604482015290519081900360640190fd5b6000805460ff191681556127636116b6565b9050801561278157611fdf81601081111561277a57fe5b6014612340565b611ff83386866135a0565b6127946141d2565b60405180602001604052806127ad85600001518561352b565b90529392505050565b60006127c06141d2565b6127ca858561278c565b90506125886127d882613053565b84611ef8565b6005546040805163d02f735160e01b81523060048201526001600160a01b038781166024830152868116604483015285811660648301526084820185905291516000938493169163d02f73519160a480830192602092919082900301818787803b15801561284b57600080fd5b505af115801561285f573d6000803e3d6000fd5b505050506040513d602081101561287557600080fd5b50519050801561288c576121206003601183612fed565b82612898576000612120565b846001600160a01b0316846001600160a01b031614156128be5761212060066012612340565b6001600160a01b0384166000908152600e60205260409020546128e19084611f2e565b6001600160a01b038086166000908152600e602052604080822093909355908716815220546129109084611ef8565b6001600160a01b038087166000818152600e602090815260409182902094909455805187815290519193928816926000805160206143ff83398151915292918290030190a360009695505050505050565b6000805460ff166129a6576040805162461bcd60e51b815260206004820152600a6024820152691c994b595b9d195c995960b21b604482015290519081900360640190fd5b6000805460ff191681556129b86116b6565b905080156129d6576123178160108111156129cf57fe5b6002612340565b6125263385856137a8565b6000805460ff16612a26576040805162461bcd60e51b815260206004820152600a6024820152691c994b595b9d195c995960b21b604482015290519081900360640190fd5b6000805460ff19168155612a386116b6565b90508015612a4f5761231781601081111561251257fe5b61252633856000866131f8565b60008054819060ff16612aa3576040805162461bcd60e51b815260206004820152600a6024820152691c994b595b9d195c995960b21b604482015290519081900360640190fd5b6000805460ff19168155612ab56116b6565b90508015612ae057612ad3816010811115612acc57fe5b6007612340565b925060009150612b789050565b846001600160a01b031663a6afed956040518163ffffffff1660e01b8152600401602060405180830381600087803b158015612b1b57600080fd5b505af1158015612b2f573d6000803e3d6000fd5b505050506040513d6020811015612b4557600080fd5b505190508015612b6557612ad3816010811115612b5e57fe5b6008612340565b612b723388888888613983565b92509250505b6000805460ff19166001179055909590945092505050565b60035460009061010090046001600160a01b03163314612bb65761112960016030612340565b612bbe612591565b60095414612bd257611129600a6031612340565b670de0b6b3a7640000821115612bee5761112960026032612340565b6008805490839055604080518281526020810185905281517faaa68312e2ea9d50e16af5068410ab56e1a1fd06037b1a35664812c30f821460929181900390910190a160006110df565b60008383018285821015612cca5760405162461bcd60e51b81526004018080602001828103825283818151815260200191508051906020019080838360005b83811015612c8f578181015183820152602001612c77565b50505050905090810190601f168015612cbc5780820380516001836020036101000a031916815260200191505b509250505060405180910390fd5b50949350505050565b60008184841115612d255760405162461bcd60e51b8152602060048201818152835160248401528351909283926044909101919085019080838360008315612c8f578181015183820152602001612c77565b505050900390565b60055460408051631200453160e11b81523060048201526001600160a01b0387811660248301528681166044830152606482018690529151600093849384939116916324008a629160848082019260209290919082900301818787803b158015612d9657600080fd5b505af1158015612daa573d6000803e3d6000fd5b505050506040513d6020811015612dc057600080fd5b505190508015612de457612dd76003602383612fed565b925060009150612fc69050565b84612e1057600a546001600160a01b038716600090815260106020526040812060010191909155612dd7565b612e18612591565b60095414612e2c57612dd7600a6024612340565b612e3461425f565b6001600160a01b0387166000908152601060205260409020600101546060820152612e5e8761253c565b6080820152600019861415612e7c5760808101516040820152612e84565b604081018690525b612e9388826040015187613eab565b60e082018190526080820151612ea891611f2e565b60a0820152600b5460e0820151612ebf9190611f2e565b8160c00181815250508060a0015160106000896001600160a01b03166001600160a01b0316815260200190815260200160002060000181905550600a5460106000896001600160a01b03166001600160a01b03168152602001908152602001600020600101819055508060c00151600b819055507f1a2a22cb034d26d1854bdc6666a5b91fe25efbbb5dcad3b0355478d6f5c362a188888360e001518460a001518560c0015160405180866001600160a01b03166001600160a01b03168152602001856001600160a01b03166001600160a01b031681526020018481526020018381526020018281526020019550505050505060405180910390a160e00151600093509150505b94509492505050565b60006110df612fe684670de0b6b3a764000061352b565b835161356d565b60007f45b96fe442630264581b197e84bbada861235052c5a1aadfff9ea4e40a969aa084601081111561301c57fe5b84603781111561302857fe5b604080519283526020830191909152818101859052519081900360600190a183601081111561227b57fe5b51670de0b6b3a7640000900490565b600080600080613070612591565b6009541461308f57613084600a6036612340565b935091506130f99050565b61309a338787613eab565b90506130a8600c5482611ef8565b600c819055604080513381526020810184905280820183905290519193507fa91e67c5ea634cd43a12c5a482724b03de01e85ca68702a53d0c2f45cb7c1dc5919081900360600190a1600093509150505b9250929050565b6011546040805163a9059cbb60e01b81526001600160a01b0386811660048301526024820186905291519190921691829163a9059cbb9160448082019260009290919082900301818387803b15801561315857600080fd5b505af115801561316c573d6000803e3d6000fd5b5050505060003d60008114613188576020811461319257600080fd5b600019915061319e565b60206000803e60005191505b50806131f1576040805162461bcd60e51b815260206004820152601960248201527f544f4b454e5f5452414e534645525f4f55545f4641494c454400000000000000604482015290519081900360640190fd5b5050505050565b6000831580613205575082155b6132405760405162461bcd60e51b81526004018080602001828103825260348152602001806144526034913960400191505060405180910390fd5b6132486142a5565b613250612014565b81528415613281576020808201869052604080519182019052815181526132779086612283565b60408201526132aa565b61329d84604051806020016040528084600001518152506140a9565b6020820152604081018490525b6005546020808301516040805163eabe7d9160e01b81523060048201526001600160a01b038b8116602483015260448201939093529051600094929092169263eabe7d919260648084019382900301818787803b15801561330a57600080fd5b505af115801561331e573d6000803e3d6000fd5b505050506040513d602081101561333457600080fd5b5051905080156133545761334b6003601a83612fed565b9250505061227b565b85158015613360575084155b1561336c57600061334b565b613374612591565b600954146133885761334b600a601b612340565b613398600d548360200151611f2e565b60608301526001600160a01b0387166000908152600e6020908152604090912054908301516133c79190611f2e565b608083015260408201516133d9611e78565b10156133eb5761334b600e601c612340565b6133fa87836040015186613100565b6060820151600d5560808201516001600160a01b0388166000818152600e602090815260409182902093909355828501518151908152905130936000805160206143ff833981519152928290030190a360408083015160208085015183516001600160a01b038c168152918201929092528083019190915290517fe5b754fb1abb7f01b499791d0b820ae3b6af3424ac1c59768edb53f4ec31a9299181900360600190a1600554604080840151602085015182516351dff98960e01b81523060048201526001600160a01b038c811660248301526044820193909352606481019190915291519216916351dff9899160848082019260009290919082900301818387803b15801561350a57600080fd5b505af115801561351e573d6000803e3d6000fd5b5060009250612276915050565b60006110df83836040518060400160405280601781526020017f6d756c7469706c69636174696f6e206f766572666c6f770000000000000000008152506140bd565b60006110df83836040518060400160405280600e81526020016d646976696465206279207a65726f60901b815250614133565b60055460408051634ef4c3e160e01b81523060048201526001600160a01b03868116602483015260448201869052915160009384938493911691634ef4c3e19160648082019260209290919082900301818787803b15801561360157600080fd5b505af1158015613615573d6000803e3d6000fd5b505050506040513d602081101561362b57600080fd5b50519050801561364f576136426003601583612fed565b9250600091506137a09050565b8461365b576000613642565b613663612591565b6009541461367757613642600a6016612340565b61367f6142d4565b613687612014565b8152613694878787613eab565b6040808301829052805160208101909152825181526136b391906140a9565b60208201819052600d546136c691611ef8565b600d556001600160a01b0387166000908152600e6020908152604090912054908201516136f39190611ef8565b6001600160a01b0388166000818152600e60209081526040918290209390935583810151848401518251938452938301528181019290925290517f4c209b5fc8ad50758f13e2e1088ba56a560dff690a1c6fef26394f4c03821c4f9181900360600190a1866001600160a01b0316306001600160a01b03166000805160206143ff83398151915283602001516040518082815260200191505060405180910390a360400151600093509150505b935093915050565b6005546040805163368f515360e21b81523060048201526001600160a01b0386811660248301526044820186905291516000938493169163da3d454c91606480830192602092919082900301818787803b15801561380557600080fd5b505af1158015613819573d6000803e3d6000fd5b505050506040513d602081101561382f57600080fd5b50519050801561384e576138466003600683612fed565b9150506110df565b8361387a57600a546001600160a01b038616600090815260106020526040812060010191909155613846565b613882612591565b6009541461389657613846600a6004612340565b8361389f611e78565b10156138b157613846600e6003612340565b6138b96142f5565b6138c28661253c565b602082018190526138d39086611ef8565b6040820152600b546138e59086611ef8565b60608201526138f5868686613100565b604080820180516001600160a01b03891660008181526010602090815290859020928355600a54600190930192909255606080860151600b819055935185519283529282018a9052818501929092529081019190915290517f13ed6866d4e1ee6da46f845c46d7e54120883d75c5ea9a2dacc1c4ca8984ab809181900360800190a160009695505050505050565b60055460408051632fe3f38f60e11b81523060048201526001600160a01b0385811660248301528881166044830152878116606483015260848201879052915160009384938493911691635fc7e71e9160a48082019260209290919082900301818787803b1580156139f457600080fd5b505af1158015613a08573d6000803e3d6000fd5b505050506040513d6020811015613a1e57600080fd5b505190508015613a4257613a356003600a83612fed565b925060009150613ea19050565b613a4a612591565b60095414613a5e57613a35600a600e612340565b613a66612591565b856001600160a01b0316636c540baf6040518163ffffffff1660e01b815260040160206040518083038186803b158015613a9f57600080fd5b505afa158015613ab3573d6000803e3d6000fd5b505050506040513d6020811015613ac957600080fd5b505114613adc57613a35600a6009612340565b876001600160a01b0316876001600160a01b03161415613b0257613a356006600f612340565b85613b1357613a356007600d612340565b600019861415613b2957613a356007600c612340565b600080613b388a8a8a89612d2d565b90925090508115613b6857613b59826010811115613b5257fe5b6010612340565b945060009350613ea192505050565b6005546040805163c488847b60e01b81523060048201526001600160a01b038a81166024830152604482018590528251600094859492169263c488847b926064808301939192829003018186803b158015613bc257600080fd5b505afa158015613bd6573d6000803e3d6000fd5b505050506040513d6040811015613bec57600080fd5b50805160209091015190925090508115613c375760405162461bcd60e51b815260040180806020018281038252603381526020018061441f6033913960400191505060405180910390fd5b80896001600160a01b03166370a082318d6040518263ffffffff1660e01b815260040180826001600160a01b03166001600160a01b0316815260200191505060206040518083038186803b158015613c8e57600080fd5b505afa158015613ca2573d6000803e3d6000fd5b505050506040513d6020811015613cb857600080fd5b50511015613d0d576040805162461bcd60e51b815260206004820152601860248201527f4c49515549444154455f5345495a455f544f4f5f4d5543480000000000000000604482015290519081900360640190fd5b60006001600160a01b038a16301415613d3357613d2c308e8e856127de565b9050613dbd565b6040805163b2a02ff160e01b81526001600160a01b038f811660048301528e81166024830152604482018590529151918c169163b2a02ff1916064808201926020929091908290030181600087803b158015613d8e57600080fd5b505af1158015613da2573d6000803e3d6000fd5b505050506040513d6020811015613db857600080fd5b505190505b8015613e07576040805162461bcd60e51b81526020600482015260146024820152731d1bdad95b881cd95a5e9d5c994819985a5b195960621b604482015290519081900360640190fd5b7f298637f684da70674f26509b10f07ec2fbc77a335ab1e7d6215a4b2484d8bb528d8d868d8660405180866001600160a01b03166001600160a01b03168152602001856001600160a01b03166001600160a01b03168152602001848152602001836001600160a01b03166001600160a01b031681526020018281526020019550505050505060405180910390a16000975092955050505050505b9550959350505050565b601154604080516370a0823160e01b815230600482015290516000926001600160a01b031691839183916370a08231916024808301926020929190829003018186803b158015613efa57600080fd5b505afa158015613f0e573d6000803e3d6000fd5b505050506040513d6020811015613f2457600080fd5b5051604080516323b872dd60e01b81526001600160a01b038981166004830152306024830152604482018990529151929350908416916323b872dd9160648082019260009290919082900301818387803b158015613f8157600080fd5b505af1158015613f95573d6000803e3d6000fd5b5050505060003d60008114613fb15760208114613fbb57600080fd5b6000199150613fc7565b60206000803e60005191505b508061401a576040805162461bcd60e51b815260206004820152601860248201527f544f4b454e5f5452414e534645525f494e5f4641494c45440000000000000000604482015290519081900360640190fd5b601154604080516370a0823160e01b815230600482015290516000926001600160a01b0316916370a08231916024808301926020929190829003018186803b15801561406557600080fd5b505afa158015614079573d6000803e3d6000fd5b505050506040513d602081101561408f57600080fd5b5051905061409d8184611f2e565b98975050505050505050565b60006140b36141d2565b6122978484614195565b60008315806140ca575082155b156140d7575060006110df565b838302838582816140e457fe5b04148390612cca5760405162461bcd60e51b8152602060048201818152835160248401528351909283926044909101919085019080838360008315612c8f578181015183820152602001612c77565b600081836141825760405162461bcd60e51b8152602060048201818152835160248401528351909283926044909101919085019080838360008315612c8f578181015183820152602001612c77565b5082848161418c57fe5b04949350505050565b61419d6141d2565b60006141b1670de0b6b3a76400008561352b565b905060405180602001604052806141c88386612fcf565b9052949350505050565b6040518060200160405280600081525090565b828054600181600116156101000203166002900490600052602060002090601f016020900481019282601f1061422657805160ff1916838001178555614253565b82800160010185558215614253579182015b82811115614253578251825591602001919060010190614238565b5061207692915061431e565b6040805161010081019091528060008152602001600081526020016000815260200160008152602001600081526020016000815260200160008152602001600081525090565b6040518060a0016040528060008152602001600081526020016000815260200160008152602001600081525090565b60405180606001604052806000815260200160008152602001600081525090565b604080516080810190915280600081526020016000815260200160008152602001600081525090565b610f6d91905b80821115612076576000815560010161432456fe6f6e6c792061646d696e206d617920696e697469616c697a6520746865206d61726b65746d61726b6574206d6179206f6e6c7920626520696e697469616c697a6564206f6e6365696e697469616c2065786368616e67652072617465206d7573742062652067726561746572207468616e207a65726f2e73657474696e6720696e7465726573742072617465206d6f64656c206661696c65646f6e6c79207468652061646d696e206d61792063616c6c205f72657369676e496d706c656d656e746174696f6eddf252ad1be2c89b69c2b068fc378daa952ba7f163c4a11628f55a4df523b3ef4c49515549444154455f434f4d5054524f4c4c45525f43414c43554c4154455f414d4f554e545f5345495a455f4641494c45446f6e65206f662072656465656d546f6b656e73496e206f722072656465656d416d6f756e74496e206d757374206265207a65726f6f6e6c79207468652061646d696e206d61792063616c6c205f6265636f6d65496d706c656d656e746174696f6ea265627a7a723158205e0ad50cb1abf853acd0231de8ee342276ba80c6238acef77d1fe50a600d0f2864736f6c63430005100032",
  "devdoc": {
    "author": "Compound",
    "methods": {
      "_acceptAdmin()": {
        "details": "Admin function for pending admin to accept role and update admin",
        "return": "uint 0=success, otherwise a failure (see ErrorReporter.sol for details)"
      },
      "_addReserves(uint256)": {
        "params": {
          "addAmount": "The amount fo underlying token to add as reserves"
        },
        "return": "uint 0=success, otherwise a failure (see ErrorReporter.sol for details)"
      },
      "_becomeImplementation(bytes)": {
        "params": {
          "data": "The encoded bytes data for any initialization"
        }
      },
      "_reduceReserves(uint256)": {
        "params": {
          "reduceAmount": "Amount of reduction to reserves"
        },
        "return": "uint 0=success, otherwise a failure (see ErrorReporter.sol for details)"
      },
      "_setComptroller(address)": {
        "details": "Admin function to set a new comptroller",
        "return": "uint 0=success, otherwise a failure (see ErrorReporter.sol for details)"
      },
      "_setInterestRateModel(address)": {
        "details": "Admin function to accrue interest and update the interest rate model",
        "params": {
          "newInterestRateModel": "the new interest rate model to use"
        },
        "return": "uint 0=success, otherwise a failure (see ErrorReporter.sol for details)"
      },
      "_setPendingAdmin(address)": {
        "details": "Admin function to begin change of admin. The newPendingAdmin must call `_acceptAdmin` to finalize the transfer.",
        "params": {
          "newPendingAdmin": "New pending admin."
        },
        "return": "uint 0=success, otherwise a failure (see ErrorReporter.sol for details)"
      },
      "_setReserveFactor(uint256)": {
        "details": "Admin function to accrue interest and set a new reserve factor",
        "return": "uint 0=success, otherwise a failure (see ErrorReporter.sol for details)"
      },
      "accrueInterest()": {
        "details": "This calculates interest accrued from the last checkpointed block  up to the current block and writes new checkpoint to storage."
      },
      "allowance(address,address)": {
        "params": {
          "owner": "The address of the account which owns the tokens to be spent",
          "spender": "The address of the account which may transfer tokens"
        },
        "return": "The number of tokens allowed to be spent (-1 means infinite)"
      },
      "approve(address,uint256)": {
        "details": "This will overwrite the approval amount for `spender` and is subject to issues noted [here](https://eips.ethereum.org/EIPS/eip-20#approve)",
        "params": {
          "amount": "The number of tokens that are approved (-1 means infinite)",
          "spender": "The address of the account which may transfer tokens"
        },
        "return": "Whether or not the approval succeeded"
      },
      "balanceOf(address)": {
        "params": {
          "owner": "The address of the account to query"
        },
        "return": "The number of tokens owned by `owner`"
      },
      "balanceOfUnderlying(address)": {
        "details": "This also accrues interest in a transaction",
        "params": {
          "owner": "The address of the account to query"
        },
        "return": "The amount of underlying owned by `owner`"
      },
      "borrow(uint256)": {
        "params": {
          "borrowAmount": "The amount of the underlying asset to borrow"
        },
        "return": "uint 0=success, otherwise a failure (see ErrorReporter.sol for details)"
      },
      "borrowBalanceCurrent(address)": {
        "params": {
          "account": "The address whose balance should be calculated after updating borrowIndex"
        },
        "return": "The calculated balance"
      },
      "borrowBalanceStored(address)": {
        "params": {
          "account": "The address whose balance should be calculated"
        },
        "return": "The calculated balance"
      },
      "borrowRatePerBlock()": {
        "return": "The borrow interest rate per block, scaled by 1e18"
      },
      "estimateBorrowRatePerBlockAfterChange(uint256,bool)": {
        "return": "The borrow interest rate per block, scaled by 1e18"
      },
      "estimateSupplyRatePerBlockAfterChange(uint256,bool)": {
        "return": "The supply interest rate per block, scaled by 1e18"
      },
      "exchangeRateCurrent()": {
        "return": "Calculated exchange rate scaled by 1e18"
      },
      "exchangeRateStored()": {
        "details": "This function does not accrue interest before calculating the exchange rate",
        "return": "Calculated exchange rate scaled by 1e18"
      },
      "getAccountSnapshot(address)": {
        "details": "This is used by comptroller to more efficiently perform liquidity checks.",
        "params": {
          "account": "Address of the account to snapshot"
        },
        "return": "(possible error, token balance, borrow balance, exchange rate mantissa)"
      },
      "getCash()": {
        "return": "The quantity of underlying asset owned by this contract"
      },
      "initialize(address,address,address,uint256,string,string,uint8)": {
        "params": {
          "comptroller_": "The address of the Comptroller",
          "decimals_": "ERC-20 decimal precision of this token",
          "initialExchangeRateMantissa_": "The initial exchange rate, scaled by 1e18",
          "interestRateModel_": "The address of the interest rate model",
          "name_": "ERC-20 name of this token",
          "symbol_": "ERC-20 symbol of this token",
          "underlying_": "The address of the underlying asset"
        }
      },
      "initialize(address,address,uint256,string,string,uint8)": {
        "params": {
          "comptroller_": "The address of the Comptroller",
          "decimals_": "EIP-20 decimal precision of this token",
          "initialExchangeRateMantissa_": "The initial exchange rate, scaled by 1e18",
          "interestRateModel_": "The address of the interest rate model",
          "name_": "EIP-20 name of this token",
          "symbol_": "EIP-20 symbol of this token"
        }
      },
      "liquidateBorrow(address,uint256,address)": {
        "params": {
          "borrower": "The borrower of this cToken to be liquidated",
          "cTokenCollateral": "The market in which to seize collateral from the borrower",
          "repayAmount": "The amount of the underlying borrowed asset to repay"
        },
        "return": "uint 0=success, otherwise a failure (see ErrorReporter.sol for details)"
      },
      "mint(uint256)": {
        "details": "Accrues interest whether or not the operation succeeds, unless reverted",
        "params": {
          "mintAmount": "The amount of the underlying asset to supply"
        },
        "return": "uint 0=success, otherwise a failure (see ErrorReporter.sol for details)"
      },
      "redeem(uint256)": {
        "details": "Accrues interest whether or not the operation succeeds, unless reverted",
        "params": {
          "redeemTokens": "The number of cTokens to redeem into underlying"
        },
        "return": "uint 0=success, otherwise a failure (see ErrorReporter.sol for details)"
      },
      "redeemUnderlying(uint256)": {
        "details": "Accrues interest whether or not the operation succeeds, unless reverted",
        "params": {
          "redeemAmount": "The amount of underlying to redeem"
        },
        "return": "uint 0=success, otherwise a failure (see ErrorReporter.sol for details)"
      },
      "repayBorrow(uint256)": {
        "params": {
          "repayAmount": "The amount to repay"
        },
        "return": "uint 0=success, otherwise a failure (see ErrorReporter.sol for details)"
      },
      "seize(address,address,uint256)": {
        "details": "Will fail unless called by another cToken during the process of liquidation. Its absolutely critical to use msg.sender as the borrowed cToken and not a parameter.",
        "params": {
          "borrower": "The account having collateral seized",
          "liquidator": "The account receiving seized collateral",
          "seizeTokens": "The number of cTokens to seize"
        },
        "return": "uint 0=success, otherwise a failure (see ErrorReporter.sol for details)"
      },
      "supplyRatePerBlock()": {
        "return": "The supply interest rate per block, scaled by 1e18"
      },
      "totalBorrowsCurrent()": {
        "return": "The total borrows with interest"
      },
      "transfer(address,uint256)": {
        "params": {
          "amount": "The number of tokens to transfer",
          "dst": "The address of the destination account"
        },
        "return": "Whether or not the transfer succeeded"
      },
      "transferFrom(address,address,uint256)": {
        "params": {
          "amount": "The number of tokens to transfer",
          "dst": "The address of the destination account",
          "src": "The address of the source account"
        },
        "return": "Whether or not the transfer succeeded"
      }
    },
    "title": "Compound's CErc20Delegate Contract"
  },
  "userdoc": {
    "methods": {
      "_acceptAdmin()": {
        "notice": "Accepts transfer of admin rights. msg.sender must be pendingAdmin"
      },
      "_addReserves(uint256)": {
        "notice": "The sender adds to reserves."
      },
      "_becomeImplementation(bytes)": {
        "notice": "Called by the delegator on a delegate to initialize it for duty"
      },
      "_reduceReserves(uint256)": {
        "notice": "Accrues interest and reduces reserves by transferring to admin"
      },
      "_resignImplementation()": {
        "notice": "Called by the delegator on a delegate to forfeit its responsibility"
      },
      "_setComptroller(address)": {
        "notice": "Sets a new comptroller for the market"
      },
      "_setInterestRateModel(address)": {
        "notice": "accrues interest and updates the interest rate model using _setInterestRateModelFresh"
      },
      "_setPendingAdmin(address)": {
        "notice": "Begins transfer of admin rights. The newPendingAdmin must call `_acceptAdmin` to finalize the transfer."
      },
      "_setReserveFactor(uint256)": {
        "notice": "accrues interest and sets a new reserve factor for the protocol using _setReserveFactorFresh"
      },
      "accrueInterest()": {
        "notice": "Applies accrued interest to total borrows and reserves"
      },
      "allowance(address,address)": {
        "notice": "Get the current allowance from `owner` for `spender`"
      },
      "approve(address,uint256)": {
        "notice": "Approve `spender` to transfer up to `amount` from `src`"
      },
      "balanceOf(address)": {
        "notice": "Get the token balance of the `owner`"
      },
      "balanceOfUnderlying(address)": {
        "notice": "Get the underlying balance of the `owner`"
      },
      "borrow(uint256)": {
        "notice": "Sender borrows assets from the protocol to their own address"
      },
      "borrowBalanceCurrent(address)": {
        "notice": "Accrue interest to updated borrowIndex and then calculate account's borrow balance using the updated borrowIndex"
      },
      "borrowBalanceStored(address)": {
        "notice": "Return the borrow balance of account based on stored data"
      },
      "borrowRatePerBlock()": {
        "notice": "Returns the current per-block borrow interest rate for this cToken"
      },
      "constructor": "Construct an empty delegate",
      "estimateBorrowRatePerBlockAfterChange(uint256,bool)": {
        "notice": "Returns the estimated per-block borrow interest rate for this cToken after some change"
      },
      "estimateSupplyRatePerBlockAfterChange(uint256,bool)": {
        "notice": "Returns the estimated per-block supply interest rate for this cToken after some change"
      },
      "exchangeRateCurrent()": {
        "notice": "Accrue interest then return the up-to-date exchange rate"
      },
      "exchangeRateStored()": {
        "notice": "Calculates the exchange rate from the underlying to the CToken"
      },
      "getAccountSnapshot(address)": {
        "notice": "Get a snapshot of the account's balances, and the cached exchange rate"
      },
      "getCash()": {
        "notice": "Get cash balance of this cToken in the underlying asset"
      },
      "initialize(address,address,address,uint256,string,string,uint8)": {
        "notice": "Initialize the new money market"
      },
      "initialize(address,address,uint256,string,string,uint8)": {
        "notice": "Initialize the money market"
      },
      "liquidateBorrow(address,uint256,address)": {
        "notice": "The sender liquidates the borrowers collateral. The collateral seized is transferred to the liquidator."
      },
      "mint(uint256)": {
        "notice": "Sender supplies assets into the market and receives cTokens in exchange"
      },
      "redeem(uint256)": {
        "notice": "Sender redeems cTokens in exchange for the underlying asset"
      },
      "redeemUnderlying(uint256)": {
        "notice": "Sender redeems cTokens in exchange for a specified amount of underlying asset"
      },
      "repayBorrow(uint256)": {
        "notice": "Sender repays their own borrow"
      },
      "seize(address,address,uint256)": {
        "notice": "Transfers collateral tokens (this market) to the liquidator."
      },
      "supplyRatePerBlock()": {
        "notice": "Returns the current per-block supply interest rate for this cToken"
      },
      "totalBorrowsCurrent()": {
        "notice": "Returns the current total borrows plus accrued interest"
      },
      "transfer(address,uint256)": {
        "notice": "Transfer `amount` tokens from `msg.sender` to `dst`"
      },
      "transferFrom(address,address,uint256)": {
        "notice": "Transfer `amount` tokens from `src` to `dst`"
      }
    },
    "notice": "CTokens which wrap an EIP-20 underlying and are delegated to"
  },
  "storageLayout": {
    "storage": [
      {
        "astId": 12158,
        "contract": "contracts/CErc20Delegate.sol:CErc20Delegate",
        "label": "_notEntered",
        "offset": 0,
        "slot": "0",
        "type": "t_bool"
      },
      {
        "astId": 12160,
        "contract": "contracts/CErc20Delegate.sol:CErc20Delegate",
        "label": "name",
        "offset": 0,
        "slot": "1",
        "type": "t_string_storage"
      },
      {
        "astId": 12162,
        "contract": "contracts/CErc20Delegate.sol:CErc20Delegate",
        "label": "symbol",
        "offset": 0,
        "slot": "2",
        "type": "t_string_storage"
      },
      {
        "astId": 12164,
        "contract": "contracts/CErc20Delegate.sol:CErc20Delegate",
        "label": "decimals",
        "offset": 0,
        "slot": "3",
        "type": "t_uint8"
      },
      {
        "astId": 12172,
        "contract": "contracts/CErc20Delegate.sol:CErc20Delegate",
        "label": "admin",
        "offset": 1,
        "slot": "3",
        "type": "t_address_payable"
      },
      {
        "astId": 12174,
        "contract": "contracts/CErc20Delegate.sol:CErc20Delegate",
        "label": "pendingAdmin",
        "offset": 0,
        "slot": "4",
        "type": "t_address_payable"
      },
      {
        "astId": 12176,
        "contract": "contracts/CErc20Delegate.sol:CErc20Delegate",
        "label": "comptroller",
        "offset": 0,
        "slot": "5",
        "type": "t_contract(ComptrollerInterface)21910"
      },
      {
        "astId": 12178,
        "contract": "contracts/CErc20Delegate.sol:CErc20Delegate",
        "label": "interestRateModel",
        "offset": 0,
        "slot": "6",
        "type": "t_contract(InterestRateModel)25284"
      },
      {
        "astId": 12180,
        "contract": "contracts/CErc20Delegate.sol:CErc20Delegate",
        "label": "initialExchangeRateMantissa",
        "offset": 0,
        "slot": "7",
        "type": "t_uint256"
      },
      {
        "astId": 12182,
        "contract": "contracts/CErc20Delegate.sol:CErc20Delegate",
        "label": "reserveFactorMantissa",
        "offset": 0,
        "slot": "8",
        "type": "t_uint256"
      },
      {
        "astId": 12184,
        "contract": "contracts/CErc20Delegate.sol:CErc20Delegate",
        "label": "accrualBlockNumber",
        "offset": 0,
        "slot": "9",
        "type": "t_uint256"
      },
      {
        "astId": 12186,
        "contract": "contracts/CErc20Delegate.sol:CErc20Delegate",
        "label": "borrowIndex",
        "offset": 0,
        "slot": "10",
        "type": "t_uint256"
      },
      {
        "astId": 12188,
        "contract": "contracts/CErc20Delegate.sol:CErc20Delegate",
        "label": "totalBorrows",
        "offset": 0,
        "slot": "11",
        "type": "t_uint256"
      },
      {
        "astId": 12190,
        "contract": "contracts/CErc20Delegate.sol:CErc20Delegate",
        "label": "totalReserves",
        "offset": 0,
        "slot": "12",
        "type": "t_uint256"
      },
      {
        "astId": 12192,
        "contract": "contracts/CErc20Delegate.sol:CErc20Delegate",
        "label": "totalSupply",
        "offset": 0,
        "slot": "13",
        "type": "t_uint256"
      },
      {
        "astId": 12196,
        "contract": "contracts/CErc20Delegate.sol:CErc20Delegate",
        "label": "accountTokens",
        "offset": 0,
        "slot": "14",
        "type": "t_mapping(t_address,t_uint256)"
      },
      {
        "astId": 12202,
        "contract": "contracts/CErc20Delegate.sol:CErc20Delegate",
        "label": "transferAllowances",
        "offset": 0,
        "slot": "15",
        "type": "t_mapping(t_address,t_mapping(t_address,t_uint256))"
      },
      {
        "astId": 12211,
        "contract": "contracts/CErc20Delegate.sol:CErc20Delegate",
        "label": "accountBorrows",
        "offset": 0,
        "slot": "16",
        "type": "t_mapping(t_address,t_struct(BorrowSnapshot)12207_storage)"
      },
      {
        "astId": 12214,
        "contract": "contracts/CErc20Delegate.sol:CErc20Delegate",
        "label": "underlying",
        "offset": 0,
        "slot": "17",
        "type": "t_address"
      },
      {
        "astId": 12216,
        "contract": "contracts/CErc20Delegate.sol:CErc20Delegate",
        "label": "implementation",
        "offset": 0,
        "slot": "18",
        "type": "t_address"
      }
    ],
    "types": {
      "t_address": {
        "encoding": "inplace",
        "label": "address",
        "numberOfBytes": "20"
      },
      "t_address_payable": {
        "encoding": "inplace",
        "label": "address payable",
        "numberOfBytes": "20"
      },
      "t_bool": {
        "encoding": "inplace",
        "label": "bool",
        "numberOfBytes": "1"
      },
      "t_contract(ComptrollerInterface)21910": {
        "encoding": "inplace",
        "label": "contract ComptrollerInterface",
        "numberOfBytes": "20"
      },
      "t_contract(InterestRateModel)25284": {
        "encoding": "inplace",
        "label": "contract InterestRateModel",
        "numberOfBytes": "20"
      },
      "t_mapping(t_address,t_mapping(t_address,t_uint256))": {
        "encoding": "mapping",
        "key": "t_address",
        "label": "mapping(address => mapping(address => uint256))",
        "numberOfBytes": "32",
        "value": "t_mapping(t_address,t_uint256)"
      },
      "t_mapping(t_address,t_struct(BorrowSnapshot)12207_storage)": {
        "encoding": "mapping",
        "key": "t_address",
        "label": "mapping(address => struct CTokenStorage.BorrowSnapshot)",
        "numberOfBytes": "32",
        "value": "t_struct(BorrowSnapshot)12207_storage"
      },
      "t_mapping(t_address,t_uint256)": {
        "encoding": "mapping",
        "key": "t_address",
        "label": "mapping(address => uint256)",
        "numberOfBytes": "32",
        "value": "t_uint256"
      },
      "t_string_storage": {
        "encoding": "bytes",
        "label": "string",
        "numberOfBytes": "32"
      },
      "t_struct(BorrowSnapshot)12207_storage": {
        "encoding": "inplace",
        "label": "struct CTokenStorage.BorrowSnapshot",
        "members": [
          {
            "astId": 12204,
            "contract": "contracts/CErc20Delegate.sol:CErc20Delegate",
            "label": "principal",
            "offset": 0,
            "slot": "0",
            "type": "t_uint256"
          },
          {
            "astId": 12206,
            "contract": "contracts/CErc20Delegate.sol:CErc20Delegate",
            "label": "interestIndex",
            "offset": 0,
            "slot": "1",
            "type": "t_uint256"
          }
        ],
        "numberOfBytes": "64"
      },
      "t_uint256": {
        "encoding": "inplace",
        "label": "uint256",
        "numberOfBytes": "32"
      },
      "t_uint8": {
        "encoding": "inplace",
        "label": "uint8",
        "numberOfBytes": "1"
      }
    }
  }
}