{
  "address": "0x5fe70EAEFf1335d06108f0E8C55075425041276b",
  "abi": [
    {
      "inputs": [],
      "payable": false,
      "stateMutability": "nonpayable",
      "type": "constructor"
    },
    {
      "anonymous": false,
      "inputs": [
        {
          "indexed": false,
          "internalType": "uint256",
          "name": "cashPrior",
          "type": "uint256"
        },
        {
          "indexed": false,
          "internalType": "uint256",
          "name": "interestAccumulated",
          "type": "uint256"
        },
        {
          "indexed": false,
          "internalType": "uint256",
          "name": "borrowIndex",
          "type": "uint256"
        },
        {
          "indexed": false,
          "internalType": "uint256",
          "name": "totalBorrows",
          "type": "uint256"
        }
      ],
      "name": "AccrueInterest",
      "type": "event"
    },
    {
      "anonymous": false,
      "inputs": [
        {
          "indexed": true,
          "internalType": "address",
          "name": "owner",
          "type": "address"
        },
        {
          "indexed": true,
          "internalType": "address",
          "name": "spender",
          "type": "address"
        },
        {
          "indexed": false,
          "internalType": "uint256",
          "name": "amount",
          "type": "uint256"
        }
      ],
      "name": "Approval",
      "type": "event"
    },
    {
      "anonymous": false,
      "inputs": [
        {
          "indexed": false,
          "internalType": "address",
          "name": "borrower",
          "type": "address"
        },
        {
          "indexed": false,
          "internalType": "uint256",
          "name": "borrowAmount",
          "type": "uint256"
        },
        {
          "indexed": false,
          "internalType": "uint256",
          "name": "accountBorrows",
          "type": "uint256"
        },
        {
          "indexed": false,
          "internalType": "uint256",
          "name": "totalBorrows",
          "type": "uint256"
        }
      ],
      "name": "Borrow",
      "type": "event"
    },
    {
      "anonymous": false,
      "inputs": [
        {
          "indexed": false,
          "internalType": "uint256",
          "name": "error",
          "type": "uint256"
        },
        {
          "indexed": false,
          "internalType": "uint256",
          "name": "info",
          "type": "uint256"
        },
        {
          "indexed": false,
          "internalType": "uint256",
          "name": "detail",
          "type": "uint256"
        }
      ],
      "name": "Failure",
      "type": "event"
    },
    {
      "anonymous": false,
      "inputs": [
        {
          "indexed": true,
          "internalType": "address",
          "name": "receiver",
          "type": "address"
        },
        {
          "indexed": false,
          "internalType": "uint256",
          "name": "amount",
          "type": "uint256"
        },
        {
          "indexed": false,
          "internalType": "uint256",
          "name": "totalFee",
          "type": "uint256"
        },
        {
          "indexed": false,
          "internalType": "uint256",
          "name": "reservesFee",
          "type": "uint256"
        }
      ],
      "name": "Flashloan",
      "type": "event"
    },
    {
      "anonymous": false,
      "inputs": [
        {
          "indexed": false,
          "internalType": "address",
          "name": "liquidator",
          "type": "address"
        },
        {
          "indexed": false,
          "internalType": "address",
          "name": "borrower",
          "type": "address"
        },
        {
          "indexed": false,
          "internalType": "uint256",
          "name": "repayAmount",
          "type": "uint256"
        },
        {
          "indexed": false,
          "internalType": "address",
          "name": "cTokenCollateral",
          "type": "address"
        },
        {
          "indexed": false,
          "internalType": "uint256",
          "name": "seizeTokens",
          "type": "uint256"
        }
      ],
      "name": "LiquidateBorrow",
      "type": "event"
    },
    {
      "anonymous": false,
      "inputs": [
        {
          "indexed": false,
          "internalType": "address",
          "name": "minter",
          "type": "address"
        },
        {
          "indexed": false,
          "internalType": "uint256",
          "name": "mintAmount",
          "type": "uint256"
        },
        {
          "indexed": false,
          "internalType": "uint256",
          "name": "mintTokens",
          "type": "uint256"
        }
      ],
      "name": "Mint",
      "type": "event"
    },
    {
      "anonymous": false,
      "inputs": [
        {
          "indexed": false,
          "internalType": "address",
          "name": "oldAdmin",
          "type": "address"
        },
        {
          "indexed": false,
          "internalType": "address",
          "name": "newAdmin",
          "type": "address"
        }
      ],
      "name": "NewAdmin",
      "type": "event"
    },
    {
      "anonymous": false,
      "inputs": [
        {
          "indexed": false,
          "internalType": "contract ComptrollerInterface",
          "name": "oldComptroller",
          "type": "address"
        },
        {
          "indexed": false,
          "internalType": "contract ComptrollerInterface",
          "name": "newComptroller",
          "type": "address"
        }
      ],
      "name": "NewComptroller",
      "type": "event"
    },
    {
      "anonymous": false,
      "inputs": [
        {
          "indexed": false,
          "internalType": "contract InterestRateModel",
          "name": "oldInterestRateModel",
          "type": "address"
        },
        {
          "indexed": false,
          "internalType": "contract InterestRateModel",
          "name": "newInterestRateModel",
          "type": "address"
        }
      ],
      "name": "NewMarketInterestRateModel",
      "type": "event"
    },
    {
      "anonymous": false,
      "inputs": [
        {
          "indexed": false,
          "internalType": "address",
          "name": "oldPendingAdmin",
          "type": "address"
        },
        {
          "indexed": false,
          "internalType": "address",
          "name": "newPendingAdmin",
          "type": "address"
        }
      ],
      "name": "NewPendingAdmin",
      "type": "event"
    },
    {
      "anonymous": false,
      "inputs": [
        {
          "indexed": false,
          "internalType": "uint256",
          "name": "oldReserveFactorMantissa",
          "type": "uint256"
        },
        {
          "indexed": false,
          "internalType": "uint256",
          "name": "newReserveFactorMantissa",
          "type": "uint256"
        }
      ],
      "name": "NewReserveFactor",
      "type": "event"
    },
    {
      "anonymous": false,
      "inputs": [
        {
          "indexed": false,
          "internalType": "address",
          "name": "redeemer",
          "type": "address"
        },
        {
          "indexed": false,
          "internalType": "uint256",
          "name": "redeemAmount",
          "type": "uint256"
        },
        {
          "indexed": false,
          "internalType": "uint256",
          "name": "redeemTokens",
          "type": "uint256"
        }
      ],
      "name": "Redeem",
      "type": "event"
    },
    {
      "anonymous": false,
      "inputs": [
        {
          "indexed": false,
          "internalType": "address",
          "name": "payer",
          "type": "address"
        },
        {
          "indexed": false,
          "internalType": "address",
          "name": "borrower",
          "type": "address"
        },
        {
          "indexed": false,
          "internalType": "uint256",
          "name": "repayAmount",
          "type": "uint256"
        },
        {
          "indexed": false,
          "internalType": "uint256",
          "name": "accountBorrows",
          "type": "uint256"
        },
        {
          "indexed": false,
          "internalType": "uint256",
          "name": "totalBorrows",
          "type": "uint256"
        }
      ],
      "name": "RepayBorrow",
      "type": "event"
    },
    {
      "anonymous": false,
      "inputs": [
        {
          "indexed": false,
          "internalType": "address",
          "name": "benefactor",
          "type": "address"
        },
        {
          "indexed": false,
          "internalType": "uint256",
          "name": "addAmount",
          "type": "uint256"
        },
        {
          "indexed": false,
          "internalType": "uint256",
          "name": "newTotalReserves",
          "type": "uint256"
        }
      ],
      "name": "ReservesAdded",
      "type": "event"
    },
    {
      "anonymous": false,
      "inputs": [
        {
          "indexed": false,
          "internalType": "address",
          "name": "admin",
          "type": "address"
        },
        {
          "indexed": false,
          "internalType": "uint256",
          "name": "reduceAmount",
          "type": "uint256"
        },
        {
          "indexed": false,
          "internalType": "uint256",
          "name": "newTotalReserves",
          "type": "uint256"
        }
      ],
      "name": "ReservesReduced",
      "type": "event"
    },
    {
      "anonymous": false,
      "inputs": [
        {
          "indexed": true,
          "internalType": "address",
          "name": "from",
          "type": "address"
        },
        {
          "indexed": true,
          "internalType": "address",
          "name": "to",
          "type": "address"
        },
        {
          "indexed": false,
          "internalType": "uint256",
          "name": "amount",
          "type": "uint256"
        }
      ],
      "name": "Transfer",
      "type": "event"
    },
    {
      "payable": true,
      "stateMutability": "payable",
      "type": "fallback"
    },
    {
      "constant": false,
      "inputs": [],
      "name": "_acceptAdmin",
      "outputs": [
        {
          "internalType": "uint256",
          "name": "",
          "type": "uint256"
        }
      ],
      "payable": false,
      "stateMutability": "nonpayable",
      "type": "function"
    },
    {
      "constant": false,
      "inputs": [
        {
          "internalType": "uint256",
          "name": "addAmount",
          "type": "uint256"
        }
      ],
      "name": "_addReserves",
      "outputs": [
        {
          "internalType": "uint256",
          "name": "",
          "type": "uint256"
        }
      ],
      "payable": false,
      "stateMutability": "nonpayable",
      "type": "function"
    },
    {
      "constant": false,
      "inputs": [],
      "name": "_addReservesNative",
      "outputs": [
        {
          "internalType": "uint256",
          "name": "",
          "type": "uint256"
        }
      ],
      "payable": true,
      "stateMutability": "payable",
      "type": "function"
    },
    {
      "constant": false,
      "inputs": [
        {
          "internalType": "bytes",
          "name": "data",
          "type": "bytes"
        }
      ],
      "name": "_becomeImplementation",
      "outputs": [],
      "payable": false,
      "stateMutability": "nonpayable",
      "type": "function"
    },
    {
      "constant": false,
      "inputs": [
        {
          "internalType": "uint256",
          "name": "reduceAmount",
          "type": "uint256"
        }
      ],
      "name": "_reduceReserves",
      "outputs": [
        {
          "internalType": "uint256",
          "name": "",
          "type": "uint256"
        }
      ],
      "payable": false,
      "stateMutability": "nonpayable",
      "type": "function"
    },
    {
      "constant": false,
      "inputs": [],
      "name": "_resignImplementation",
      "outputs": [],
      "payable": false,
      "stateMutability": "nonpayable",
      "type": "function"
    },
    {
      "constant": false,
      "inputs": [
        {
          "internalType": "contract ComptrollerInterface",
          "name": "newComptroller",
          "type": "address"
        }
      ],
      "name": "_setComptroller",
      "outputs": [
        {
          "internalType": "uint256",
          "name": "",
          "type": "uint256"
        }
      ],
      "payable": false,
      "stateMutability": "nonpayable",
      "type": "function"
    },
    {
      "constant": false,
      "inputs": [
        {
          "internalType": "contract InterestRateModel",
          "name": "newInterestRateModel",
          "type": "address"
        }
      ],
      "name": "_setInterestRateModel",
      "outputs": [
        {
          "internalType": "uint256",
          "name": "",
          "type": "uint256"
        }
      ],
      "payable": false,
      "stateMutability": "nonpayable",
      "type": "function"
    },
    {
      "constant": false,
      "inputs": [
        {
          "internalType": "address payable",
          "name": "newPendingAdmin",
          "type": "address"
        }
      ],
      "name": "_setPendingAdmin",
      "outputs": [
        {
          "internalType": "uint256",
          "name": "",
          "type": "uint256"
        }
      ],
      "payable": false,
      "stateMutability": "nonpayable",
      "type": "function"
    },
    {
      "constant": false,
      "inputs": [
        {
          "internalType": "uint256",
          "name": "newReserveFactorMantissa",
          "type": "uint256"
        }
      ],
      "name": "_setReserveFactor",
      "outputs": [
        {
          "internalType": "uint256",
          "name": "",
          "type": "uint256"
        }
      ],
      "payable": false,
      "stateMutability": "nonpayable",
      "type": "function"
    },
    {
      "constant": true,
      "inputs": [],
      "name": "accrualBlockNumber",
      "outputs": [
        {
          "internalType": "uint256",
          "name": "",
          "type": "uint256"
        }
      ],
      "payable": false,
      "stateMutability": "view",
      "type": "function"
    },
    {
      "constant": false,
      "inputs": [],
      "name": "accrueInterest",
      "outputs": [
        {
          "internalType": "uint256",
          "name": "",
          "type": "uint256"
        }
      ],
      "payable": false,
      "stateMutability": "nonpayable",
      "type": "function"
    },
    {
      "constant": true,
      "inputs": [],
      "name": "admin",
      "outputs": [
        {
          "internalType": "address payable",
          "name": "",
          "type": "address"
        }
      ],
      "payable": false,
      "stateMutability": "view",
      "type": "function"
    },
    {
      "constant": true,
      "inputs": [
        {
          "internalType": "address",
          "name": "owner",
          "type": "address"
        },
        {
          "internalType": "address",
          "name": "spender",
          "type": "address"
        }
      ],
      "name": "allowance",
      "outputs": [
        {
          "internalType": "uint256",
          "name": "",
          "type": "uint256"
        }
      ],
      "payable": false,
      "stateMutability": "view",
      "type": "function"
    },
    {
      "constant": false,
      "inputs": [
        {
          "internalType": "address",
          "name": "spender",
          "type": "address"
        },
        {
          "internalType": "uint256",
          "name": "amount",
          "type": "uint256"
        }
      ],
      "name": "approve",
      "outputs": [
        {
          "internalType": "bool",
          "name": "",
          "type": "bool"
        }
      ],
      "payable": false,
      "stateMutability": "nonpayable",
      "type": "function"
    },
    {
      "constant": true,
      "inputs": [
        {
          "internalType": "address",
          "name": "owner",
          "type": "address"
        }
      ],
      "name": "balanceOf",
      "outputs": [
        {
          "internalType": "uint256",
          "name": "",
          "type": "uint256"
        }
      ],
      "payable": false,
      "stateMutability": "view",
      "type": "function"
    },
    {
      "constant": false,
      "inputs": [
        {
          "internalType": "address",
          "name": "owner",
          "type": "address"
        }
      ],
      "name": "balanceOfUnderlying",
      "outputs": [
        {
          "internalType": "uint256",
          "name": "",
          "type": "uint256"
        }
      ],
      "payable": false,
      "stateMutability": "nonpayable",
      "type": "function"
    },
    {
      "constant": false,
      "inputs": [
        {
          "internalType": "uint256",
          "name": "borrowAmount",
          "type": "uint256"
        }
      ],
      "name": "borrow",
      "outputs": [
        {
          "internalType": "uint256",
          "name": "",
          "type": "uint256"
        }
      ],
      "payable": false,
      "stateMutability": "nonpayable",
      "type": "function"
    },
    {
      "constant": false,
      "inputs": [
        {
          "internalType": "address",
          "name": "account",
          "type": "address"
        }
      ],
      "name": "borrowBalanceCurrent",
      "outputs": [
        {
          "internalType": "uint256",
          "name": "",
          "type": "uint256"
        }
      ],
      "payable": false,
      "stateMutability": "nonpayable",
      "type": "function"
    },
    {
      "constant": true,
      "inputs": [
        {
          "internalType": "address",
          "name": "account",
          "type": "address"
        }
      ],
      "name": "borrowBalanceStored",
      "outputs": [
        {
          "internalType": "uint256",
          "name": "",
          "type": "uint256"
        }
      ],
      "payable": false,
      "stateMutability": "view",
      "type": "function"
    },
    {
      "constant": true,
      "inputs": [],
      "name": "borrowIndex",
      "outputs": [
        {
          "internalType": "uint256",
          "name": "",
          "type": "uint256"
        }
      ],
      "payable": false,
      "stateMutability": "view",
      "type": "function"
    },
    {
      "constant": false,
      "inputs": [
        {
          "internalType": "uint256",
          "name": "borrowAmount",
          "type": "uint256"
        }
      ],
      "name": "borrowNative",
      "outputs": [
        {
          "internalType": "uint256",
          "name": "",
          "type": "uint256"
        }
      ],
      "payable": false,
      "stateMutability": "nonpayable",
      "type": "function"
    },
    {
      "constant": true,
      "inputs": [],
      "name": "borrowRatePerBlock",
      "outputs": [
        {
          "internalType": "uint256",
          "name": "",
          "type": "uint256"
        }
      ],
      "payable": false,
      "stateMutability": "view",
      "type": "function"
    },
    {
      "constant": true,
      "inputs": [],
      "name": "comptroller",
      "outputs": [
        {
          "internalType": "contract ComptrollerInterface",
          "name": "",
          "type": "address"
        }
      ],
      "payable": false,
      "stateMutability": "view",
      "type": "function"
    },
    {
      "constant": true,
      "inputs": [],
      "name": "decimals",
      "outputs": [
        {
          "internalType": "uint8",
          "name": "",
          "type": "uint8"
        }
      ],
      "payable": false,
      "stateMutability": "view",
      "type": "function"
    },
    {
      "constant": true,
      "inputs": [
        {
          "internalType": "uint256",
          "name": "change",
          "type": "uint256"
        },
        {
          "internalType": "bool",
          "name": "repay",
          "type": "bool"
        }
      ],
      "name": "estimateBorrowRatePerBlockAfterChange",
      "outputs": [
        {
          "internalType": "uint256",
          "name": "",
          "type": "uint256"
        }
      ],
      "payable": false,
      "stateMutability": "view",
      "type": "function"
    },
    {
      "constant": true,
      "inputs": [
        {
          "internalType": "uint256",
          "name": "change",
          "type": "uint256"
        },
        {
          "internalType": "bool",
          "name": "repay",
          "type": "bool"
        }
      ],
      "name": "estimateSupplyRatePerBlockAfterChange",
      "outputs": [
        {
          "internalType": "uint256",
          "name": "",
          "type": "uint256"
        }
      ],
      "payable": false,
      "stateMutability": "view",
      "type": "function"
    },
    {
      "constant": false,
      "inputs": [],
      "name": "exchangeRateCurrent",
      "outputs": [
        {
          "internalType": "uint256",
          "name": "",
          "type": "uint256"
        }
      ],
      "payable": false,
      "stateMutability": "nonpayable",
      "type": "function"
    },
    {
      "constant": true,
      "inputs": [],
      "name": "exchangeRateStored",
      "outputs": [
        {
          "internalType": "uint256",
          "name": "",
          "type": "uint256"
        }
      ],
      "payable": false,
      "stateMutability": "view",
      "type": "function"
    },
    {
      "constant": true,
      "inputs": [
        {
          "internalType": "uint256",
          "name": "amount",
          "type": "uint256"
        }
      ],
      "name": "flashFee",
      "outputs": [
        {
          "internalType": "uint256",
          "name": "",
          "type": "uint256"
        }
      ],
      "payable": false,
      "stateMutability": "view",
      "type": "function"
    },
    {
      "constant": true,
      "inputs": [],
      "name": "flashFeeBips",
      "outputs": [
        {
          "internalType": "uint256",
          "name": "",
          "type": "uint256"
        }
      ],
      "payable": false,
      "stateMutability": "view",
      "type": "function"
    },
    {
      "constant": false,
      "inputs": [
        {
          "internalType": "contract ERC3156FlashBorrowerInterface",
          "name": "receiver",
          "type": "address"
        },
        {
          "internalType": "address",
          "name": "initiator",
          "type": "address"
        },
        {
          "internalType": "uint256",
          "name": "amount",
          "type": "uint256"
        },
        {
          "internalType": "bytes",
          "name": "data",
          "type": "bytes"
        }
      ],
      "name": "flashLoan",
      "outputs": [
        {
          "internalType": "bool",
          "name": "",
          "type": "bool"
        }
      ],
      "payable": false,
      "stateMutability": "nonpayable",
      "type": "function"
    },
    {
      "constant": true,
      "inputs": [
        {
          "internalType": "address",
          "name": "account",
          "type": "address"
        }
      ],
      "name": "getAccountSnapshot",
      "outputs": [
        {
          "internalType": "uint256",
          "name": "",
          "type": "uint256"
        },
        {
          "internalType": "uint256",
          "name": "",
          "type": "uint256"
        },
        {
          "internalType": "uint256",
          "name": "",
          "type": "uint256"
        },
        {
          "internalType": "uint256",
          "name": "",
          "type": "uint256"
        }
      ],
      "payable": false,
      "stateMutability": "view",
      "type": "function"
    },
    {
      "constant": true,
      "inputs": [],
      "name": "getCash",
      "outputs": [
        {
          "internalType": "uint256",
          "name": "",
          "type": "uint256"
        }
      ],
      "payable": false,
      "stateMutability": "view",
      "type": "function"
    },
    {
      "constant": true,
      "inputs": [],
      "name": "implementation",
      "outputs": [
        {
          "internalType": "address",
          "name": "",
          "type": "address"
        }
      ],
      "payable": false,
      "stateMutability": "view",
      "type": "function"
    },
    {
      "constant": false,
      "inputs": [
        {
          "internalType": "address",
          "name": "underlying_",
          "type": "address"
        },
        {
          "internalType": "contract ComptrollerInterface",
          "name": "comptroller_",
          "type": "address"
        },
        {
          "internalType": "contract InterestRateModel",
          "name": "interestRateModel_",
          "type": "address"
        },
        {
          "internalType": "uint256",
          "name": "initialExchangeRateMantissa_",
          "type": "uint256"
        },
        {
          "internalType": "string",
          "name": "name_",
          "type": "string"
        },
        {
          "internalType": "string",
          "name": "symbol_",
          "type": "string"
        },
        {
          "internalType": "uint8",
          "name": "decimals_",
          "type": "uint8"
        }
      ],
      "name": "initialize",
      "outputs": [],
      "payable": false,
      "stateMutability": "nonpayable",
      "type": "function"
    },
    {
      "constant": false,
      "inputs": [
        {
          "internalType": "contract ComptrollerInterface",
          "name": "comptroller_",
          "type": "address"
        },
        {
          "internalType": "contract InterestRateModel",
          "name": "interestRateModel_",
          "type": "address"
        },
        {
          "internalType": "uint256",
          "name": "initialExchangeRateMantissa_",
          "type": "uint256"
        },
        {
          "internalType": "string",
          "name": "name_",
          "type": "string"
        },
        {
          "internalType": "string",
          "name": "symbol_",
          "type": "string"
        },
        {
          "internalType": "uint8",
          "name": "decimals_",
          "type": "uint8"
        }
      ],
      "name": "initialize",
      "outputs": [],
      "payable": false,
      "stateMutability": "nonpayable",
      "type": "function"
    },
    {
      "constant": true,
      "inputs": [],
      "name": "interestRateModel",
      "outputs": [
        {
          "internalType": "contract InterestRateModel",
          "name": "",
          "type": "address"
        }
      ],
      "payable": false,
      "stateMutability": "view",
      "type": "function"
    },
    {
      "constant": true,
      "inputs": [],
      "name": "isCToken",
      "outputs": [
        {
          "internalType": "bool",
          "name": "",
          "type": "bool"
        }
      ],
      "payable": false,
      "stateMutability": "view",
      "type": "function"
    },
    {
      "constant": false,
      "inputs": [
        {
          "internalType": "address",
          "name": "borrower",
          "type": "address"
        },
        {
          "internalType": "uint256",
          "name": "repayAmount",
          "type": "uint256"
        },
        {
          "internalType": "contract CTokenInterface",
          "name": "cTokenCollateral",
          "type": "address"
        }
      ],
      "name": "liquidateBorrow",
      "outputs": [
        {
          "internalType": "uint256",
          "name": "",
          "type": "uint256"
        }
      ],
      "payable": false,
      "stateMutability": "nonpayable",
      "type": "function"
    },
    {
      "constant": false,
      "inputs": [
        {
          "internalType": "address",
          "name": "borrower",
          "type": "address"
        },
        {
          "internalType": "contract CTokenInterface",
          "name": "cTokenCollateral",
          "type": "address"
        }
      ],
      "name": "liquidateBorrowNative",
      "outputs": [
        {
          "internalType": "uint256",
          "name": "",
          "type": "uint256"
        }
      ],
      "payable": true,
      "stateMutability": "payable",
      "type": "function"
    },
    {
      "constant": true,
      "inputs": [],
      "name": "maxFlashLoan",
      "outputs": [
        {
          "internalType": "uint256",
          "name": "",
          "type": "uint256"
        }
      ],
      "payable": false,
      "stateMutability": "view",
      "type": "function"
    },
    {
      "constant": false,
      "inputs": [
        {
          "internalType": "uint256",
          "name": "mintAmount",
          "type": "uint256"
        }
      ],
      "name": "mint",
      "outputs": [
        {
          "internalType": "uint256",
          "name": "",
          "type": "uint256"
        }
      ],
      "payable": false,
      "stateMutability": "nonpayable",
      "type": "function"
    },
    {
      "constant": false,
      "inputs": [],
      "name": "mintNative",
      "outputs": [
        {
          "internalType": "uint256",
          "name": "",
          "type": "uint256"
        }
      ],
      "payable": true,
      "stateMutability": "payable",
      "type": "function"
    },
    {
      "constant": true,
      "inputs": [],
      "name": "name",
      "outputs": [
        {
          "internalType": "string",
          "name": "",
          "type": "string"
        }
      ],
      "payable": false,
      "stateMutability": "view",
      "type": "function"
    },
    {
      "constant": true,
      "inputs": [],
      "name": "pendingAdmin",
      "outputs": [
        {
          "internalType": "address payable",
          "name": "",
          "type": "address"
        }
      ],
      "payable": false,
      "stateMutability": "view",
      "type": "function"
    },
    {
      "constant": false,
      "inputs": [
        {
          "internalType": "uint256",
          "name": "redeemTokens",
          "type": "uint256"
        }
      ],
      "name": "redeem",
      "outputs": [
        {
          "internalType": "uint256",
          "name": "",
          "type": "uint256"
        }
      ],
      "payable": false,
      "stateMutability": "nonpayable",
      "type": "function"
    },
    {
      "constant": false,
      "inputs": [
        {
          "internalType": "uint256",
          "name": "redeemTokens",
          "type": "uint256"
        }
      ],
      "name": "redeemNative",
      "outputs": [
        {
          "internalType": "uint256",
          "name": "",
          "type": "uint256"
        }
      ],
      "payable": false,
      "stateMutability": "nonpayable",
      "type": "function"
    },
    {
      "constant": false,
      "inputs": [
        {
          "internalType": "uint256",
          "name": "redeemAmount",
          "type": "uint256"
        }
      ],
      "name": "redeemUnderlying",
      "outputs": [
        {
          "internalType": "uint256",
          "name": "",
          "type": "uint256"
        }
      ],
      "payable": false,
      "stateMutability": "nonpayable",
      "type": "function"
    },
    {
      "constant": false,
      "inputs": [
        {
          "internalType": "uint256",
          "name": "redeemAmount",
          "type": "uint256"
        }
      ],
      "name": "redeemUnderlyingNative",
      "outputs": [
        {
          "internalType": "uint256",
          "name": "",
          "type": "uint256"
        }
      ],
      "payable": false,
      "stateMutability": "nonpayable",
      "type": "function"
    },
    {
      "constant": false,
      "inputs": [
        {
          "internalType": "uint256",
          "name": "repayAmount",
          "type": "uint256"
        }
      ],
      "name": "repayBorrow",
      "outputs": [
        {
          "internalType": "uint256",
          "name": "",
          "type": "uint256"
        }
      ],
      "payable": false,
      "stateMutability": "nonpayable",
      "type": "function"
    },
    {
      "constant": false,
      "inputs": [],
      "name": "repayBorrowNative",
      "outputs": [
        {
          "internalType": "uint256",
          "name": "",
          "type": "uint256"
        }
      ],
      "payable": true,
      "stateMutability": "payable",
      "type": "function"
    },
    {
      "constant": true,
      "inputs": [],
      "name": "reserveFactorMantissa",
      "outputs": [
        {
          "internalType": "uint256",
          "name": "",
          "type": "uint256"
        }
      ],
      "payable": false,
      "stateMutability": "view",
      "type": "function"
    },
    {
      "constant": false,
      "inputs": [
        {
          "internalType": "address",
          "name": "liquidator",
          "type": "address"
        },
        {
          "internalType": "address",
          "name": "borrower",
          "type": "address"
        },
        {
          "internalType": "uint256",
          "name": "seizeTokens",
          "type": "uint256"
        }
      ],
      "name": "seize",
      "outputs": [
        {
          "internalType": "uint256",
          "name": "",
          "type": "uint256"
        }
      ],
      "payable": false,
      "stateMutability": "nonpayable",
      "type": "function"
    },
    {
      "constant": true,
      "inputs": [],
      "name": "supplyRatePerBlock",
      "outputs": [
        {
          "internalType": "uint256",
          "name": "",
          "type": "uint256"
        }
      ],
      "payable": false,
      "stateMutability": "view",
      "type": "function"
    },
    {
      "constant": true,
      "inputs": [],
      "name": "symbol",
      "outputs": [
        {
          "internalType": "string",
          "name": "",
          "type": "string"
        }
      ],
      "payable": false,
      "stateMutability": "view",
      "type": "function"
    },
    {
      "constant": true,
      "inputs": [],
      "name": "totalBorrows",
      "outputs": [
        {
          "internalType": "uint256",
          "name": "",
          "type": "uint256"
        }
      ],
      "payable": false,
      "stateMutability": "view",
      "type": "function"
    },
    {
      "constant": false,
      "inputs": [],
      "name": "totalBorrowsCurrent",
      "outputs": [
        {
          "internalType": "uint256",
          "name": "",
          "type": "uint256"
        }
      ],
      "payable": false,
      "stateMutability": "nonpayable",
      "type": "function"
    },
    {
      "constant": true,
      "inputs": [],
      "name": "totalReserves",
      "outputs": [
        {
          "internalType": "uint256",
          "name": "",
          "type": "uint256"
        }
      ],
      "payable": false,
      "stateMutability": "view",
      "type": "function"
    },
    {
      "constant": true,
      "inputs": [],
      "name": "totalSupply",
      "outputs": [
        {
          "internalType": "uint256",
          "name": "",
          "type": "uint256"
        }
      ],
      "payable": false,
      "stateMutability": "view",
      "type": "function"
    },
    {
      "constant": false,
      "inputs": [
        {
          "internalType": "address",
          "name": "dst",
          "type": "address"
        },
        {
          "internalType": "uint256",
          "name": "amount",
          "type": "uint256"
        }
      ],
      "name": "transfer",
      "outputs": [
        {
          "internalType": "bool",
          "name": "",
          "type": "bool"
        }
      ],
      "payable": false,
      "stateMutability": "nonpayable",
      "type": "function"
    },
    {
      "constant": false,
      "inputs": [
        {
          "internalType": "address",
          "name": "src",
          "type": "address"
        },
        {
          "internalType": "address",
          "name": "dst",
          "type": "address"
        },
        {
          "internalType": "uint256",
          "name": "amount",
          "type": "uint256"
        }
      ],
      "name": "transferFrom",
      "outputs": [
        {
          "internalType": "bool",
          "name": "",
          "type": "bool"
        }
      ],
      "payable": false,
      "stateMutability": "nonpayable",
      "type": "function"
    },
    {
      "constant": true,
      "inputs": [],
      "name": "underlying",
      "outputs": [
        {
          "internalType": "address",
          "name": "",
          "type": "address"
        }
      ],
      "payable": false,
      "stateMutability": "view",
      "type": "function"
    }
  ],
  "transactionHash": "0xb89146ff15e28ae63a4627d756258e99d64f8929140e5d1a4536a9bde7d3b68c",
  "args": [],
  "solcInputHash": "af94273bfeb935476334f847f3412514",
  "bytecode": "0x608060405234801561001057600080fd5b5061588d80620000216000396000f3fe6080604052600436106103b85760003560e01c806373acee98116101f2578063bd6d894d1161010d578063ea11eea4116100a0578063f851a4401161006f578063f851a4401461107e578063f8f9da2814611093578063fca7820b146110a8578063fe9c44ae146110d2576103b8565b8063ea11eea414610fde578063f2b3abbd14610ff3578063f3fdb15a14611026578063f5e3c4621461103b576103b8565b8063db006a75116100dc578063db006a7514610f3a578063dd62ed3e14610f64578063dff7648414610f9f578063e9c714f214610fc9576103b8565b8063bd6d894d14610e9a578063c37f68e214610eaf578063c5ebeaec14610f08578063d3c5715114610f32576103b8565b8063a0712d6811610185578063aa5af0fd11610154578063aa5af0fd14610dfa578063ae9d70b014610e0f578063b2a02ff114610e24578063b71d1a0c14610e67576103b8565b8063a0712d6814610d58578063a6afed9514610d82578063a7af467a14610d97578063a9059cbb14610dc1576103b8565b80638f840ddd116101c15780638f840ddd14610ba057806395d89b4114610bb557806395dd919314610bca57806399d8c1b414610bfd576103b8565b806373acee9814610b2f578063852a12e314610b44578063884b934314610b6e5780638d3f9c6214610b98576103b8565b8063291727a4116102e257806356e6772811610275578063601a0bf111610244578063601a0bf114610aa85780636c540baf14610ad25780636f307dc314610ae757806370a0823114610afc576103b8565b806356e67728146109325780635c60da1b146109e35780635cffe9de146109f85780635fe3b56714610a93576103b8565b80633e941010116102b15780633e941010146108965780634576b5db146108c057806347bd3718146108f35780634bf03edf14610908576103b8565b8063291727a4146107f5578063313ce567146108235780633af9e6691461084e5780633b1d21a214610881576103b8565b806317bfdfbc1161035a578063219f2fe711610329578063219f2fe71461076457806323b872dd1461076c578063242c127c146107af57806326782247146107c4576103b8565b806317bfdfbc146105a457806318160ddd146105d7578063182df0f5146105ec5780631a31d46514610601576103b8565b80630e752702116103965780630e7527021461051e5780630f22688814610548578063153ab5051461057a578063173b99041461058f576103b8565b806305dd00b81461040357806306fdde0314610447578063095ea7b3146104d1575b6011546001600160a01b031633146104015760405162461bcd60e51b815260040180806020018281038252603481526020018061571c6034913960400191505060405180910390fd5b005b34801561040f57600080fd5b506104356004803603604081101561042657600080fd5b508035906020013515156110e7565b60408051918252519081900360200190f35b34801561045357600080fd5b5061045c6111cc565b6040805160208082528351818301528351919283929083019185019080838360005b8381101561049657818101518382015260200161047e565b50505050905090810190601f1680156104c35780820380516001836020036101000a031916815260200191505b509250505060405180910390f35b3480156104dd57600080fd5b5061050a600480360360408110156104f457600080fd5b506001600160a01b038135169060200135611259565b604080519115158252519081900360200190f35b34801561052a57600080fd5b506104356004803603602081101561054157600080fd5b50356112c4565b34801561055457600080fd5b506104356004803603604081101561056b57600080fd5b5080359060200135151561131d565b34801561058657600080fd5b506104016113cc565b34801561059b57600080fd5b5061043561141c565b3480156105b057600080fd5b50610435600480360360208110156105c757600080fd5b50356001600160a01b0316611422565b3480156105e357600080fd5b506104356114e2565b3480156105f857600080fd5b506104356114e8565b34801561060d57600080fd5b50610401600480360360e081101561062457600080fd5b6001600160a01b03823581169260208101358216926040820135909216916060820135919081019060a081016080820135600160201b81111561066657600080fd5b82018360208201111561067857600080fd5b803590602001918460018302840111600160201b8311171561069957600080fd5b91908080601f0160208091040260200160405190810160405280939291908181526020018383808284376000920191909152509295949360208101935035915050600160201b8111156106eb57600080fd5b8201836020820111156106fd57600080fd5b803590602001918460018302840111600160201b8311171561071e57600080fd5b91908080601f0160208091040260200160405190810160405280939291908181526020018383808284376000920191909152509295505050903560ff1691506114f89050565b610435611597565b34801561077857600080fd5b5061050a6004803603606081101561078f57600080fd5b506001600160a01b038135811691602081013590911690604001356115f4565b3480156107bb57600080fd5b50610435611666565b3480156107d057600080fd5b506107d9611711565b604080516001600160a01b039092168252519081900360200190f35b6104356004803603604081101561080b57600080fd5b506001600160a01b0381358116916020013516611720565b34801561082f57600080fd5b5061083861178d565b6040805160ff9092168252519081900360200190f35b34801561085a57600080fd5b506104356004803603602081101561087157600080fd5b50356001600160a01b0316611796565b34801561088d57600080fd5b506104356117e5565b3480156108a257600080fd5b50610435600480360360208110156108b957600080fd5b50356117ef565b3480156108cc57600080fd5b50610435600480360360208110156108e357600080fd5b50356001600160a01b0316611844565b3480156108ff57600080fd5b50610435611996565b34801561091457600080fd5b506104356004803603602081101561092b57600080fd5b503561199c565b34801561093e57600080fd5b506104016004803603602081101561095557600080fd5b810190602081018135600160201b81111561096f57600080fd5b82018360208201111561098157600080fd5b803590602001918460018302840111600160201b831117156109a257600080fd5b91908080601f0160208091040260200160405190810160405280939291908181526020018383808284376000920191909152509295506119f2945050505050565b3480156109ef57600080fd5b506107d9611b22565b348015610a0457600080fd5b5061050a60048036036080811015610a1b57600080fd5b6001600160a01b03823581169260208101359091169160408201359190810190608081016060820135600160201b811115610a5557600080fd5b820183602082011115610a6757600080fd5b803590602001918460018302840111600160201b83111715610a8857600080fd5b509092509050611b31565b348015610a9f57600080fd5b506107d961205b565b348015610ab457600080fd5b5061043560048036036020811015610acb57600080fd5b503561206a565b348015610ade57600080fd5b50610435612105565b348015610af357600080fd5b506107d961210b565b348015610b0857600080fd5b5061043560048036036020811015610b1f57600080fd5b50356001600160a01b031661211a565b348015610b3b57600080fd5b50610435612135565b348015610b5057600080fd5b5061043560048036036020811015610b6757600080fd5b50356121eb565b348015610b7a57600080fd5b5061043560048036036020811015610b9157600080fd5b503561224a565b6104356122a0565b348015610bac57600080fd5b506104356122fa565b348015610bc157600080fd5b5061045c612300565b348015610bd657600080fd5b5061043560048036036020811015610bed57600080fd5b50356001600160a01b0316612358565b348015610c0957600080fd5b50610401600480360360c0811015610c2057600080fd5b6001600160a01b03823581169260208101359091169160408201359190810190608081016060820135600160201b811115610c5a57600080fd5b820183602082011115610c6c57600080fd5b803590602001918460018302840111600160201b83111715610c8d57600080fd5b91908080601f0160208091040260200160405190810160405280939291908181526020018383808284376000920191909152509295949360208101935035915050600160201b811115610cdf57600080fd5b820183602082011115610cf157600080fd5b803590602001918460018302840111600160201b83111715610d1257600080fd5b91908080601f0160208091040260200160405190810160405280939291908181526020018383808284376000920191909152509295505050903560ff1691506123639050565b348015610d6457600080fd5b5061043560048036036020811015610d7b57600080fd5b503561254a565b348015610d8e57600080fd5b5061043561259c565b348015610da357600080fd5b5061043560048036036020811015610dba57600080fd5b50356127ac565b348015610dcd57600080fd5b5061050a60048036036040811015610de457600080fd5b506001600160a01b03813516906020013561289e565b348015610e0657600080fd5b50610435612910565b348015610e1b57600080fd5b50610435612916565b348015610e3057600080fd5b5061043560048036036060811015610e4757600080fd5b506001600160a01b038135811691602081013590911690604001356129b5565b348015610e7357600080fd5b5061043560048036036020811015610e8a57600080fd5b50356001600160a01b0316612a26565b348015610ea657600080fd5b50610435612ab2565b348015610ebb57600080fd5b50610ee260048036036020811015610ed257600080fd5b50356001600160a01b0316612b6e565b604080519485526020850193909352838301919091526060830152519081900360800190f35b348015610f1457600080fd5b5061043560048036036020811015610f2b57600080fd5b5035612baa565b610435612bf9565b348015610f4657600080fd5b5061043560048036036020811015610f5d57600080fd5b5035612c4e565b348015610f7057600080fd5b5061043560048036036040811015610f8757600080fd5b506001600160a01b0381358116916020013516612c9d565b348015610fab57600080fd5b5061043560048036036020811015610fc257600080fd5b5035612cc8565b348015610fd557600080fd5b50610435612d27565b348015610fea57600080fd5b50610435612e2a565b348015610fff57600080fd5b506104356004803603602081101561101657600080fd5b50356001600160a01b0316612e2f565b34801561103257600080fd5b506107d9612e69565b34801561104757600080fd5b506104356004803603606081101561105e57600080fd5b506001600160a01b03813581169160208101359160409091013516612e78565b34801561108a57600080fd5b506107d9612ee6565b34801561109f57600080fd5b50610435612efa565b3480156110b457600080fd5b50610435600480360360208110156110cb57600080fd5b5035612f5e565b3480156110de57600080fd5b5061050a612fdc565b60008060008315611118576111036110fd612fe1565b86613061565b9150611111600b548661309e565b905061113a565b611129611123612fe1565b8661309e565b9150611137600b5486613061565b90505b600654600c54604080516315f2405360e01b815260048101869052602481018590526044810192909252516001600160a01b03909216916315f2405391606480820192602092909190829003018186803b15801561119757600080fd5b505afa1580156111ab573d6000803e3d6000fd5b505050506040513d60208110156111c157600080fd5b505195945050505050565b60018054604080516020600284861615610100026000190190941693909304601f810184900484028201840190925281815292918301828280156112515780601f1061122657610100808354040283529160200191611251565b820191906000526020600020905b81548152906001019060200180831161123457829003601f168201915b505050505081565b336000818152600f602090815260408083206001600160a01b03871680855290835281842086905581518681529151939493909284927f8c5be1e5ebec7d5bd14f71427d1e84f3dd0314c0f7b2291e5b200ac8c7c3b925929081900390910190a35060019392505050565b6000806112d28360006130d8565b5090508015611317576040805162461bcd60e51b815260206004820152600c60248201526b1c995c185e4819985a5b195960a21b604482015290519081900360640190fd5b50919050565b60008060008315611348576113336110fd612fe1565b9150611341600b548661309e565b9050611364565b611353611123612fe1565b9150611361600b5486613061565b90505b600654600c5460085460408051635c0b440b60e11b8152600481018790526024810186905260448101939093526064830191909152516001600160a01b039092169163b816881691608480820192602092909190829003018186803b15801561119757600080fd5b60035461010090046001600160a01b0316331461141a5760405162461bcd60e51b815260040180806020018281038252602d8152602001806156ef602d913960400191505060405180910390fd5b565b60085481565b6000805460ff16611467576040805162461bcd60e51b815260206004820152600a6024820152691c994b595b9d195c995960b21b604482015290519081900360640190fd5b6000805460ff1916815561147961259c565b146114c4576040805162461bcd60e51b81526020600482015260166024820152751858d8dc9d59481a5b9d195c995cdd0819985a5b195960521b604482015290519081900360640190fd5b6114cd82612358565b90505b6000805460ff19166001179055919050565b600d5481565b60006114f2613184565b90505b90565b611506868686868686612363565b601180546001600160a01b0319166001600160a01b038981169190911791829055604080516318160ddd60e01b8152905192909116916318160ddd91600480820192602092909190829003018186803b15801561156257600080fd5b505afa158015611576573d6000803e3d6000fd5b505050506040513d602081101561158c57600080fd5b505050505050505050565b6000806115a53460016131e6565b50905080156115f0576040805162461bcd60e51b81526020600482015260126024820152711b5a5b9d081b985d1a5d994819985a5b195960721b604482015290519081900360640190fd5b5090565b6000805460ff16611639576040805162461bcd60e51b815260206004820152600a6024820152691c994b595b9d195c995960b21b604482015290519081900360640190fd5b6000805460ff1916815561164f33868686613268565b1490506000805460ff191660011790559392505050565b600554604080516358d5bc7360e11b81523060048201526000602482018190526044820181905260806064830152608482018190529151919283926001600160a01b039091169163b1ab78e69160c4808301926020929190829003018186803b1580156116d257600080fd5b505afa1580156116e6573d6000803e3d6000fd5b505050506040513d60208110156116fc57600080fd5b5051156114f25761170b612fe1565b92915050565b6004546001600160a01b031681565b6000806117308434856001613471565b5090508015611786576040805162461bcd60e51b815260206004820152601e60248201527f6c697175696461746520626f72726f77206e6174697665206661696c65640000604482015290519081900360640190fd5b5092915050565b60035460ff1681565b60006117a06154ef565b60405180602001604052806117b3612ab2565b90526001600160a01b0384166000908152600e60205260409020549091506117dc9082906135a5565b9150505b919050565b60006114f2612fe1565b60006117fc8260006135c4565b156117e0576040805162461bcd60e51b8152602060048201526013602482015272185919081c995cd95c9d995cc819985a5b1959606a1b604482015290519081900360640190fd5b60035460009061010090046001600160a01b031633146118715761186a60016028613662565b90506117e0565b60055460408051623f1ee960e11b815290516001600160a01b0392831692851691627e3dd2916004808301926020929190829003018186803b1580156118b657600080fd5b505afa1580156118ca573d6000803e3d6000fd5b505050506040513d60208110156118e057600080fd5b5051611933576040805162461bcd60e51b815260206004820152601c60248201527f6d61726b6572206d6574686f642072657475726e65642066616c736500000000604482015290519081900360640190fd5b600580546001600160a01b0319166001600160a01b03858116918217909255604080519284168352602083019190915280517f7ac369dbd14fa5ea3f473ed67cc9d598964a77501540ba6751eb0b3decf5870d9281900390910190a160006117dc565b600b5481565b60006119a98260016136c8565b156117e0576040805162461bcd60e51b81526020600482015260146024820152731c995919595b481b985d1a5d994819985a5b195960621b604482015290519081900360640190fd5b60035461010090046001600160a01b03163314611a405760405162461bcd60e51b815260040180806020018281038252602d815260200180615800602d913960400191505060405180910390fd5b600554604080516344e3de7360e01b81523060048201526002602482015290516001600160a01b03909216916344e3de739160448082019260009290919082900301818387803b158015611a9357600080fd5b505af1158015611aa7573d6000803e3d6000fd5b504792505081159050611b1e57601160009054906101000a90046001600160a01b03166001600160a01b031663d0e30db0826040518263ffffffff1660e01b81526004016000604051808303818588803b158015611b0457600080fd5b505af1158015611b18573d6000803e3d6000fd5b50505050505b5050565b6012546001600160a01b031681565b6000805460ff16611b76576040805162461bcd60e51b815260206004820152600a6024820152691c994b595b9d195c995960b21b604482015290519081900360640190fd5b6000805460ff1916905583611bbc5760405162461bcd60e51b815260040180806020018281038252602c81526020018061582d602c913960400191505060405180910390fd5b6000611bc661259c565b14611c11576040805162461bcd60e51b81526020600482015260166024820152751858d8dc9d59481a5b9d195c995cdd0819985a5b195960521b604482015290519081900360640190fd5b6005546040516358d5bc7360e11b815230600482018181526001600160a01b038a81166024850152604484018990526080606485019081526084850188905294169363b1ab78e6938b928a928a928a92919060a401848480828437600081840152601f19601f820116905080830192505050965050505050505060206040518083038186803b158015611ca357600080fd5b505afa158015611cb7573d6000803e3d6000fd5b505050506040513d6020811015611ccd57600080fd5b5051611d16576040805162461bcd60e51b8152602060048201526013602482015272199b185cda1b1bd85b881a5cc81c185d5cd959606a1b604482015290519081900360640190fd5b6000611d20612fe1565b905084811015611d70576040805162461bcd60e51b8152602060048201526016602482015275494e53554646494349454e545f4c495155494449545960501b604482015290519081900360640190fd5b6000306001600160a01b031663a7af467a876040518263ffffffff1660e01b81526004018082815260200191505060206040518083038186803b158015611db657600080fd5b505afa158015611dca573d6000803e3d6000fd5b505050506040513d6020811015611de057600080fd5b50519050611df088876000613760565b611dfc600b5487613061565b600b5560405180602961575082396040519081900360290181206011546323e30c8b60e01b83526001600160a01b038b81166004850190815291811660248501819052604485018c90526064850187905260a06084860190815260a486018b9052939550908d16936323e30c8b938d938d9289928e928e9290919060c401848480828437600081840152601f19601f820116905080830192505050975050505050505050602060405180830381600087803b158015611eba57600080fd5b505af1158015611ece573d6000803e3d6000fd5b505050506040513d6020811015611ee457600080fd5b505114611f38576040805162461bcd60e51b815260206004820152601960248201527f49455243333135363a2043616c6c6261636b206661696c656400000000000000604482015290519081900360640190fd5b6000611f448783613061565b9050611f5289826000613900565b506000611f5d612fe1565b9050611f698484613061565b8114611fb3576040805162461bcd60e51b8152602060048201526014602482015273109053105390d157d25390d3d394d254d511539560621b604482015290519081900360640190fd5b6000611fcf6040518060200160405280600854815250856135a5565b9050611fdd600c5482613061565b600c55600b54611fed908a61309e565b600b55604080518a81526020810186905280820183905290516001600160a01b038d16917f33c8e097c526683cbdb29adf782fac95e9d0fbe0ed635c13d8c75fdf726557d9919081900360600190a26001955050505050506000805460ff1916600117905595945050505050565b6005546001600160a01b031681565b6000805460ff166120af576040805162461bcd60e51b815260206004820152600a6024820152691c994b595b9d195c995960b21b604482015290519081900360640190fd5b6000805460ff191681556120c161259c565b905080156120e7576120df8160108111156120d857fe5b601d613662565b9150506114d0565b6120f083613c0c565b9150506000805460ff19166001179055919050565b60095481565b6011546001600160a01b031681565b6001600160a01b03166000908152600e602052604090205490565b6000805460ff1661217a576040805162461bcd60e51b815260206004820152600a6024820152691c994b595b9d195c995960b21b604482015290519081900360640190fd5b6000805460ff1916815561218c61259c565b146121d7576040805162461bcd60e51b81526020600482015260166024820152751858d8dc9d59481a5b9d195c995cdd0819985a5b195960521b604482015290519081900360640190fd5b50600b546000805460ff1916600117905590565b60006121f8826000613d0a565b156117e0576040805162461bcd60e51b815260206004820152601860248201527f72656465656d20756e6465726c79696e67206661696c65640000000000000000604482015290519081900360640190fd5b6000612257826001613d85565b156117e0576040805162461bcd60e51b8152602060048201526014602482015273189bdc9c9bddc81b985d1a5d994819985a5b195960621b604482015290519081900360640190fd5b6000806122ae3460016130d8565b50905080156115f0576040805162461bcd60e51b81526020600482015260136024820152721c995c185e481b985d1a5d994819985a5b1959606a1b604482015290519081900360640190fd5b600c5481565b6002805460408051602060018416156101000260001901909316849004601f810184900484028201840190925281815292918301828280156112515780601f1061122657610100808354040283529160200191611251565b600061170b82613e05565b60035461010090046001600160a01b031633146123b15760405162461bcd60e51b81526004018080602001828103825260248152602001806156566024913960400191505060405180910390fd5b6009541580156123c15750600a54155b6123fc5760405162461bcd60e51b815260040180806020018281038252602381526020018061567a6023913960400191505060405180910390fd5b60078490558361243d5760405162461bcd60e51b815260040180806020018281038252603081526020018061569d6030913960400191505060405180910390fd5b600061244887611844565b9050801561249d576040805162461bcd60e51b815260206004820152601a60248201527f73657474696e6720636f6d7074726f6c6c6572206661696c6564000000000000604482015290519081900360640190fd5b6124a5613e5a565b600955670de0b6b3a7640000600a556124bd86613e5e565b905080156124fc5760405162461bcd60e51b81526004018080602001828103825260228152602001806156cd6022913960400191505060405180910390fd5b835161250f906001906020870190615502565b508251612523906002906020860190615502565b50506003805460ff90921660ff199283161790556000805490911660011790555050505050565b6000806125588360006131e6565b5090508015611317576040805162461bcd60e51b815260206004820152600b60248201526a1b5a5b9d0819985a5b195960aa1b604482015290519081900360640190fd5b6000806125a7613e5a565b600954909150808214156125c0576000925050506114f5565b60006125ca612fe1565b600b54600c54600a54600654604080516315f2405360e01b815260048101879052602481018690526044810185905290519596509394929391926000926001600160a01b03909216916315f24053916064808301926020929190829003018186803b15801561263857600080fd5b505afa15801561264c573d6000803e3d6000fd5b505050506040513d602081101561266257600080fd5b5051905065048c273950008111156126c1576040805162461bcd60e51b815260206004820152601c60248201527f626f72726f772072617465206973206162737572646c79206869676800000000604482015290519081900360640190fd5b60006126cd888861309e565b90506126d76154ef565b6126ef60405180602001604052808581525083613fd3565b905060006126fd82886135a5565b9050600061270b8289613061565b9050600061272a6040518060200160405280600854815250848a613ffd565b9050600061273985898a613ffd565b60098e9055600a819055600b849055600c839055604080518d8152602081018790528082018390526060810186905290519192507f4dec04e750ca11537cabcd8a9eab06494de08da3735bc8871cd41250e190bc04919081900360800190a160009d505050505050505050505050505090565b600554604080516358d5bc7360e11b8152306004820152600060248201819052604482018590526080606483015260848201819052915191926001600160a01b03169163b1ab78e69160c480820192602092909190829003018186803b15801561281557600080fd5b505afa158015612829573d6000803e3d6000fd5b505050506040513d602081101561283f57600080fd5b5051612888576040805162461bcd60e51b8152602060048201526013602482015272199b185cda1b1bd85b881a5cc81c185d5cd959606a1b604482015290519081900360640190fd5b61170b612896836003614025565b612710614067565b6000805460ff166128e3576040805162461bcd60e51b815260206004820152600a6024820152691c994b595b9d195c995960b21b604482015290519081900360640190fd5b6000805460ff191681556128f933338686613268565b1490505b6000805460ff1916600117905592915050565b600a5481565b6006546000906001600160a01b031663b8168816612932612fe1565b600b54600c546008546040518563ffffffff1660e01b81526004018085815260200184815260200183815260200182815260200194505050505060206040518083038186803b15801561298457600080fd5b505afa158015612998573d6000803e3d6000fd5b505050506040513d60208110156129ae57600080fd5b5051905090565b6000805460ff166129fa576040805162461bcd60e51b815260206004820152600a6024820152691c994b595b9d195c995960b21b604482015290519081900360640190fd5b6000805460ff19169055612a103385858561409a565b90506000805460ff191660011790559392505050565b60035460009061010090046001600160a01b03163314612a4c5761186a6001602e613662565b600480546001600160a01b038481166001600160a01b0319831681179093556040805191909216808252602082019390935281517fca4f2f25d0898edd99413412fb94012f9e54ec8142f9b093e7720646a95b16a9929181900390910190a160006117dc565b6000805460ff16612af7576040805162461bcd60e51b815260206004820152600a6024820152691c994b595b9d195c995960b21b604482015290519081900360640190fd5b6000805460ff19168155612b0961259c565b14612b54576040805162461bcd60e51b81526020600482015260166024820152751858d8dc9d59481a5b9d195c995cdd0819985a5b195960521b604482015290519081900360640190fd5b612b5c6114e8565b90506000805460ff1916600117905590565b6000806000806000612b7f8661211a565b90506000612b8c87613e05565b90506000612b98613184565b90506000989297509095509350915050565b6000612bb7826000613d85565b156117e0576040805162461bcd60e51b815260206004820152600d60248201526c189bdc9c9bddc819985a5b1959609a1b604482015290519081900360640190fd5b6000612c063460016135c4565b156114f5576040805162461bcd60e51b8152602060048201526013602482015272185919081c995cd95c9d995cc819985a5b1959606a1b604482015290519081900360640190fd5b6000612c5b8260006136c8565b156117e0576040805162461bcd60e51b815260206004820152600d60248201526c1c995919595b4819985a5b1959609a1b604482015290519081900360640190fd5b6001600160a01b039182166000908152600f6020908152604080832093909416825291909152205490565b6000612cd5826001613d0a565b156117e0576040805162461bcd60e51b815260206004820152601f60248201527f72656465656d20756e6465726c79696e67206e6174697665206661696c656400604482015290519081900360640190fd5b6004546000906001600160a01b031633141580612d42575033155b15612d5a57612d5360016000613662565b90506114f5565b60038054600480546001600160a01b03818116610100818102610100600160a81b0319871617968790556001600160a01b031990931690935560408051948390048216808652929095041660208401528351909391927ff9ffabca9c8276e99321725bcb43fb076a6c66a54b7f21c4e8146d8519b417dc92908290030190a1600454604080516001600160a01b038085168252909216602083015280517fca4f2f25d0898edd99413412fb94012f9e54ec8142f9b093e7720646a95b16a99281900390910190a160009250505090565b600381565b600080612e3a61259c565b90508015612e6057612e58816010811115612e5157fe5b6029613662565b9150506117e0565b6117dc83613e5e565b6006546001600160a01b031681565b600080612e888585856000613471565b5090508015612ede576040805162461bcd60e51b815260206004820152601760248201527f6c697175696461746520626f72726f77206661696c6564000000000000000000604482015290519081900360640190fd5b509392505050565b60035461010090046001600160a01b031681565b6006546000906001600160a01b03166315f24053612f16612fe1565b600b54600c546040518463ffffffff1660e01b815260040180848152602001838152602001828152602001935050505060206040518083038186803b15801561298457600080fd5b6000805460ff16612fa3576040805162461bcd60e51b815260206004820152600a6024820152691c994b595b9d195c995960b21b604482015290519081900360640190fd5b6000805460ff19168155612fb561259c565b90508015612fd3576120df816010811115612fcc57fe5b602f613662565b6120f08361421d565b600181565b601154604080516370a0823160e01b815230600482015290516000926001600160a01b03169182916370a0823191602480820192602092909190829003018186803b15801561302f57600080fd5b505afa158015613043573d6000803e3d6000fd5b505050506040513d602081101561305957600080fd5b505191505090565b60006130978383604051806040016040528060118152602001706164646974696f6e206f766572666c6f7760781b8152506142c5565b9392505050565b60006130978383604051806040016040528060158152602001747375627472616374696f6e20756e646572666c6f7760581b815250614360565b60008054819060ff1661311f576040805162461bcd60e51b815260206004820152600a6024820152691c994b595b9d195c995960b21b604482015290519081900360640190fd5b6000805460ff1916815561313161259c565b9050801561315c5761314f81601081111561314857fe5b6022613662565b92506000915061316e9050565b613168333387876143ba565b92509250505b6000805460ff1916600117905590939092509050565b600d54600090806131995750506007546114f5565b60006131a3612fe1565b905060006131be6131b683600b54613061565b600c5461309e565b905060006131da8260405180602001604052808781525061465c565b94506114f59350505050565b60008054819060ff1661322d576040805162461bcd60e51b815260206004820152600a6024820152691c994b595b9d195c995960b21b604482015290519081900360640190fd5b6000805460ff1916815561323f61259c565b9050801561325d5761314f81601081111561325657fe5b6014613662565b61316833868661467a565b600554604080516317b9b84b60e31b81523060048201526001600160a01b03868116602483015285811660448301526064820185905291516000938493169163bdcdc25891608480830192602092919082900301818787803b1580156132cd57600080fd5b505af11580156132e1573d6000803e3d6000fd5b505050506040513d60208110156132f757600080fd5b5051905080156133165761330e6003603383614882565b915050613469565b836001600160a01b0316856001600160a01b0316141561333c5761330e60026034613662565b60006001600160a01b03878116908716141561335b5750600019613383565b506001600160a01b038086166000908152600f60209081526040808320938a16835292905220545b6001600160a01b0386166000908152600e60205260409020546133a6908561309e565b6001600160a01b038088166000908152600e602052604080822093909355908716815220546133d59085613061565b6001600160a01b0386166000908152600e6020526040902055600019811461342857613401818561309e565b6001600160a01b038088166000908152600f60209081526040808320938c16835292905220555b846001600160a01b0316866001600160a01b0316600080516020615779833981519152866040518082815260200191505060405180910390a360005b925050505b949350505050565b60008054819060ff166134b8576040805162461bcd60e51b815260206004820152600a6024820152691c994b595b9d195c995960b21b604482015290519081900360640190fd5b6000805460ff191681556134ca61259c565b905080156134f5576134e88160108111156134e157fe5b6007613662565b92506000915061358d9050565b846001600160a01b031663a6afed956040518163ffffffff1660e01b8152600401602060405180830381600087803b15801561353057600080fd5b505af1158015613544573d6000803e3d6000fd5b505050506040513d602081101561355a57600080fd5b50519050801561357a576134e881601081111561357357fe5b6008613662565b61358733888888886148e8565b92509250505b6000805460ff19166001179055909590945092505050565b60006135af6154ef565b6135b98484613fd3565b905061346981614e10565b6000805460ff16613609576040805162461bcd60e51b815260206004820152600a6024820152691c994b595b9d195c995960b21b604482015290519081900360640190fd5b6000805460ff1916815561361b61259c565b905080156136415761363981601081111561363257fe5b6035613662565b9150506128fd565b61364b8484614e1f565b509150506000805460ff1916600117905592915050565b60007f45b96fe442630264581b197e84bbada861235052c5a1aadfff9ea4e40a969aa083601081111561369157fe5b83603781111561369d57fe5b604080519283526020830191909152600082820152519081900360600190a182601081111561309757fe5b6000805460ff1661370d576040805162461bcd60e51b815260206004820152600a6024820152691c994b595b9d195c995960b21b604482015290519081900360640190fd5b6000805460ff1916815561371f61259c565b9050801561373d5761363981601081111561373657fe5b6019613662565b61374a3385600086614ebd565b9150506000805460ff1916600117905592915050565b80156138075760115460408051632e1a7d4d60e01b81526004810185905290516001600160a01b0390921691632e1a7d4d9160248082019260009290919082900301818387803b1580156137b357600080fd5b505af11580156137c7573d6000803e3d6000fd5b50506040516001600160a01b038616925084156108fc02915084906000818181858888f19350505050158015613801573d6000803e3d6000fd5b506138fb565b6011546040805163a9059cbb60e01b81526001600160a01b0386811660048301526024820186905291519190921691829163a9059cbb9160448082019260009290919082900301818387803b15801561385f57600080fd5b505af1158015613873573d6000803e3d6000fd5b5050505060003d6000811461388f576020811461389957600080fd5b60001991506138a5565b60206000803e60005191505b50806138f8576040805162461bcd60e51b815260206004820152601960248201527f544f4b454e5f5452414e534645525f4f55545f4641494c454400000000000000604482015290519081900360640190fd5b50505b505050565b60008115613a0d57336001600160a01b03851614613957576040805162461bcd60e51b815260206004820152600f60248201526e0e6cadcc8cae440dad2e6dac2e8c6d608b1b604482015290519081900360640190fd5b82341461399c576040805162461bcd60e51b815260206004820152600e60248201526d0ecc2d8eaca40dad2e6dac2e8c6d60931b604482015290519081900360640190fd5b601160009054906101000a90046001600160a01b03166001600160a01b031663d0e30db0846040518263ffffffff1660e01b81526004016000604051808303818588803b1580156139ec57600080fd5b505af1158015613a00573d6000803e3d6000fd5b5050505050829050613097565b601154604080516370a0823160e01b815230600482015290516001600160a01b039092169160009183916370a0823191602480820192602092909190829003018186803b158015613a5d57600080fd5b505afa158015613a71573d6000803e3d6000fd5b505050506040513d6020811015613a8757600080fd5b5051604080516323b872dd60e01b81526001600160a01b038981166004830152306024830152604482018990529151929350908416916323b872dd9160648082019260009290919082900301818387803b158015613ae457600080fd5b505af1158015613af8573d6000803e3d6000fd5b5050505060003d60008114613b145760208114613b1e57600080fd5b6000199150613b2a565b60206000803e60005191505b5080613b7d576040805162461bcd60e51b815260206004820152601860248201527f544f4b454e5f5452414e534645525f494e5f4641494c45440000000000000000604482015290519081900360640190fd5b601154604080516370a0823160e01b815230600482015290516000926001600160a01b0316916370a08231916024808301926020929190829003018186803b158015613bc857600080fd5b505afa158015613bdc573d6000803e3d6000fd5b505050506040513d6020811015613bf257600080fd5b50519050613c00818461309e565b98975050505050505050565b600354600090819061010090046001600160a01b03163314613c3457612e586001601e613662565b613c3c613e5a565b60095414613c5057612e58600a6020613662565b82613c59612fe1565b1015613c6b57612e58600e601f613662565b600c54831115613c8157612e5860026021613662565b613c8d600c548461309e565b600c819055600354909150613cb29061010090046001600160a01b0316846001613760565b600354604080516101009092046001600160a01b0316825260208201859052818101839052517f3bad0c59cf2f06e7314077049f48a93578cd16f5ef92329f1dab1420a99c177e916060908290030190a160006117dc565b6000805460ff16613d4f576040805162461bcd60e51b815260206004820152600a6024820152691c994b595b9d195c995960b21b604482015290519081900360640190fd5b6000805460ff19168155613d6161259c565b90508015613d785761363981601081111561373657fe5b61374a3360008686614ebd565b6000805460ff16613dca576040805162461bcd60e51b815260206004820152600a6024820152691c994b595b9d195c995960b21b604482015290519081900360640190fd5b6000805460ff19168155613ddc61259c565b90508015613dfa57613639816010811115613df357fe5b6002613662565b61374a3385856151f0565b6001600160a01b03811660009081526010602052604081208054613e2d5760009150506117e0565b6000613e3f8260000154600a54614025565b90506000613e51828460010154614067565b95945050505050565b4290565b600354600090819061010090046001600160a01b03163314613e8657612e586001602b613662565b613e8e613e5a565b60095414613ea257612e58600a602a613662565b600660009054906101000a90046001600160a01b03169050826001600160a01b0316632191f92a6040518163ffffffff1660e01b815260040160206040518083038186803b158015613ef357600080fd5b505afa158015613f07573d6000803e3d6000fd5b505050506040513d6020811015613f1d57600080fd5b5051613f70576040805162461bcd60e51b815260206004820152601c60248201527f6d61726b6572206d6574686f642072657475726e65642066616c736500000000604482015290519081900360640190fd5b600680546001600160a01b0319166001600160a01b03858116918217909255604080519284168352602083019190915280517fedffc32e068c7c95dfd4bdfd5c4d939a084d6b11c4199eac8436ed234d72f9269281900390910190a160006117dc565b613fdb6154ef565b6040518060200160405280613ff4856000015185614025565b90529392505050565b60006140076154ef565b6140118585613fd3565b9050613e5161401f82614e10565b84613061565b600061309783836040518060400160405280601781526020017f6d756c7469706c69636174696f6e206f766572666c6f770000000000000000008152506153cb565b600061309783836040518060400160405280600e81526020016d646976696465206279207a65726f60901b815250615441565b6005546040805163d02f735160e01b81523060048201526001600160a01b038781166024830152868116604483015285811660648301526084820185905291516000938493169163d02f73519160a480830192602092919082900301818787803b15801561410757600080fd5b505af115801561411b573d6000803e3d6000fd5b505050506040513d602081101561413157600080fd5b5051905080156141485761330e6003601183614882565b8261415457600061330e565b846001600160a01b0316846001600160a01b0316141561417a5761330e60066012613662565b6001600160a01b0384166000908152600e602052604090205461419d908461309e565b6001600160a01b038086166000908152600e602052604080822093909355908716815220546141cc9084613061565b6001600160a01b038087166000818152600e6020908152604091829020949094558051878152905191939288169260008051602061577983398151915292918290030190a360009695505050505050565b60035460009061010090046001600160a01b031633146142435761186a60016030613662565b61424b613e5a565b6009541461425f5761186a600a6031613662565b670de0b6b3a764000082111561427b5761186a60026032613662565b6008805490839055604080518281526020810185905281517faaa68312e2ea9d50e16af5068410ab56e1a1fd06037b1a35664812c30f821460929181900390910190a160006117dc565b600083830182858210156143575760405162461bcd60e51b81526004018080602001828103825283818151815260200191508051906020019080838360005b8381101561431c578181015183820152602001614304565b50505050905090810190601f1680156143495780820380516001836020036101000a031916815260200191505b509250505060405180910390fd5b50949350505050565b600081848411156143b25760405162461bcd60e51b815260206004820181815283516024840152835190928392604490910191908501908083836000831561431c578181015183820152602001614304565b505050900390565b60055460408051631200453160e11b81523060048201526001600160a01b0387811660248301528681166044830152606482018690529151600093849384939116916324008a629160848082019260209290919082900301818787803b15801561442357600080fd5b505af1158015614437573d6000803e3d6000fd5b505050506040513d602081101561444d57600080fd5b505190508015614471576144646003602383614882565b9250600091506146539050565b8461449d57600a546001600160a01b038716600090815260106020526040812060010191909155614464565b6144a5613e5a565b600954146144b957614464600a6024613662565b6144c161557c565b6001600160a01b03871660009081526010602052604090206001015460608201526144eb87613e05565b60808201526000198614156145095760808101516040820152614511565b604081018690525b61452088826040015187613900565b60e0820181905260808201516145359161309e565b60a0820152600b5460e082015161454c919061309e565b8160c00181815250508060a0015160106000896001600160a01b03166001600160a01b0316815260200190815260200160002060000181905550600a5460106000896001600160a01b03166001600160a01b03168152602001908152602001600020600101819055508060c00151600b819055507f1a2a22cb034d26d1854bdc6666a5b91fe25efbbb5dcad3b0355478d6f5c362a188888360e001518460a001518560c0015160405180866001600160a01b03166001600160a01b03168152602001856001600160a01b03166001600160a01b031681526020018481526020018381526020018281526020019550505050505060405180910390a160e00151600093509150505b94509492505050565b600061309761467384670de0b6b3a7640000614025565b8351614067565b60055460408051634ef4c3e160e01b81523060048201526001600160a01b03868116602483015260448201869052915160009384938493911691634ef4c3e19160648082019260209290919082900301818787803b1580156146db57600080fd5b505af11580156146ef573d6000803e3d6000fd5b505050506040513d602081101561470557600080fd5b5051905080156147295761471c6003601583614882565b92506000915061487a9050565b8461473557600061471c565b61473d613e5a565b600954146147515761471c600a6016613662565b6147596155c2565b614761613184565b815261476e878787613900565b60408083018290528051602081019091528251815261478d91906154a3565b60208201819052600d546147a091613061565b600d556001600160a01b0387166000908152600e6020908152604090912054908201516147cd9190613061565b6001600160a01b0388166000818152600e60209081526040918290209390935583810151848401518251938452938301528181019290925290517f4c209b5fc8ad50758f13e2e1088ba56a560dff690a1c6fef26394f4c03821c4f9181900360600190a1866001600160a01b0316306001600160a01b031660008051602061577983398151915283602001516040518082815260200191505060405180910390a360400151600093509150505b935093915050565b60007f45b96fe442630264581b197e84bbada861235052c5a1aadfff9ea4e40a969aa08460108111156148b157fe5b8460378111156148bd57fe5b604080519283526020830191909152818101859052519081900360600190a183601081111561346957fe5b60055460408051632fe3f38f60e11b81523060048201526001600160a01b0385811660248301528881166044830152878116606483015260848201879052915160009384938493911691635fc7e71e9160a48082019260209290919082900301818787803b15801561495957600080fd5b505af115801561496d573d6000803e3d6000fd5b505050506040513d602081101561498357600080fd5b5051905080156149a75761499a6003600a83614882565b925060009150614e069050565b6149af613e5a565b600954146149c35761499a600a600e613662565b6149cb613e5a565b856001600160a01b0316636c540baf6040518163ffffffff1660e01b815260040160206040518083038186803b158015614a0457600080fd5b505afa158015614a18573d6000803e3d6000fd5b505050506040513d6020811015614a2e57600080fd5b505114614a415761499a600a6009613662565b876001600160a01b0316876001600160a01b03161415614a675761499a6006600f613662565b85614a785761499a6007600d613662565b600019861415614a8e5761499a6007600c613662565b600080614a9d8a8a8a896143ba565b90925090508115614acd57614abe826010811115614ab757fe5b6010613662565b945060009350614e0692505050565b6005546040805163c488847b60e01b81523060048201526001600160a01b038a81166024830152604482018590528251600094859492169263c488847b926064808301939192829003018186803b158015614b2757600080fd5b505afa158015614b3b573d6000803e3d6000fd5b505050506040513d6040811015614b5157600080fd5b50805160209091015190925090508115614b9c5760405162461bcd60e51b81526004018080602001828103825260338152602001806157996033913960400191505060405180910390fd5b80896001600160a01b03166370a082318d6040518263ffffffff1660e01b815260040180826001600160a01b03166001600160a01b0316815260200191505060206040518083038186803b158015614bf357600080fd5b505afa158015614c07573d6000803e3d6000fd5b505050506040513d6020811015614c1d57600080fd5b50511015614c72576040805162461bcd60e51b815260206004820152601860248201527f4c49515549444154455f5345495a455f544f4f5f4d5543480000000000000000604482015290519081900360640190fd5b60006001600160a01b038a16301415614c9857614c91308e8e8561409a565b9050614d22565b6040805163b2a02ff160e01b81526001600160a01b038f811660048301528e81166024830152604482018590529151918c169163b2a02ff1916064808201926020929091908290030181600087803b158015614cf357600080fd5b505af1158015614d07573d6000803e3d6000fd5b505050506040513d6020811015614d1d57600080fd5b505190505b8015614d6c576040805162461bcd60e51b81526020600482015260146024820152731d1bdad95b881cd95a5e9d5c994819985a5b195960621b604482015290519081900360640190fd5b7f298637f684da70674f26509b10f07ec2fbc77a335ab1e7d6215a4b2484d8bb528d8d868d8660405180866001600160a01b03166001600160a01b03168152602001856001600160a01b03166001600160a01b03168152602001848152602001836001600160a01b03166001600160a01b031681526020018281526020019550505050505060405180910390a16000975092955050505050505b9550959350505050565b51670de0b6b3a7640000900490565b600080600080614e2d613e5a565b60095414614e4c57614e41600a6036613662565b93509150614eb69050565b614e57338787613900565b9050614e65600c5482613061565b600c819055604080513381526020810184905280820183905290519193507fa91e67c5ea634cd43a12c5a482724b03de01e85ca68702a53d0c2f45cb7c1dc5919081900360600190a1600093509150505b9250929050565b6000831580614eca575082155b614f055760405162461bcd60e51b81526004018080602001828103825260348152602001806157cc6034913960400191505060405180910390fd5b614f0d6155e3565b614f15613184565b81528415614f4657602080820186905260408051918201905281518152614f3c90866135a5565b6040820152614f6f565b614f6284604051806020016040528084600001518152506154a3565b6020820152604081018490525b6005546020808301516040805163eabe7d9160e01b81523060048201526001600160a01b038b8116602483015260448201939093529051600094929092169263eabe7d919260648084019382900301818787803b158015614fcf57600080fd5b505af1158015614fe3573d6000803e3d6000fd5b505050506040513d6020811015614ff957600080fd5b505190508015615019576150106003601a83614882565b92505050613469565b85158015615025575084155b15615031576000615010565b615039613e5a565b6009541461504d57615010600a601b613662565b61505d600d54836020015161309e565b60608301526001600160a01b0387166000908152600e60209081526040909120549083015161508c919061309e565b6080830152604082015161509e612fe1565b10156150b057615010600e601c613662565b6150bf87836040015186613760565b6060820151600d5560808201516001600160a01b0388166000818152600e60209081526040918290209390935582850151815190815290513093600080516020615779833981519152928290030190a360408083015160208085015183516001600160a01b038c168152918201929092528083019190915290517fe5b754fb1abb7f01b499791d0b820ae3b6af3424ac1c59768edb53f4ec31a9299181900360600190a1600554604080840151602085015182516351dff98960e01b81523060048201526001600160a01b038c811660248301526044820193909352606481019190915291519216916351dff9899160848082019260009290919082900301818387803b1580156151cf57600080fd5b505af11580156151e3573d6000803e3d6000fd5b5060009250613464915050565b6005546040805163368f515360e21b81523060048201526001600160a01b0386811660248301526044820186905291516000938493169163da3d454c91606480830192602092919082900301818787803b15801561524d57600080fd5b505af1158015615261573d6000803e3d6000fd5b505050506040513d602081101561527757600080fd5b5051905080156152965761528e6003600683614882565b915050613097565b836152c257600a546001600160a01b03861660009081526010602052604081206001019190915561528e565b6152ca613e5a565b600954146152de5761528e600a6004613662565b836152e7612fe1565b10156152f95761528e600e6003613662565b615301615612565b61530a86613e05565b6020820181905261531b9086613061565b6040820152600b5461532d9086613061565b606082015261533d868686613760565b604080820180516001600160a01b03891660008181526010602090815290859020928355600a54600190930192909255606080860151600b819055935185519283529282018a9052818501929092529081019190915290517f13ed6866d4e1ee6da46f845c46d7e54120883d75c5ea9a2dacc1c4ca8984ab809181900360800190a160009695505050505050565b60008315806153d8575082155b156153e557506000613097565b838302838582816153f257fe5b041483906143575760405162461bcd60e51b815260206004820181815283516024840152835190928392604490910191908501908083836000831561431c578181015183820152602001614304565b600081836154905760405162461bcd60e51b815260206004820181815283516024840152835190928392604490910191908501908083836000831561431c578181015183820152602001614304565b5082848161549a57fe5b04949350505050565b60006154ad6154ef565b6135b984846154ba6154ef565b60006154ce670de0b6b3a764000085614025565b905060405180602001604052806154e5838661465c565b9052949350505050565b6040518060200160405280600081525090565b828054600181600116156101000203166002900490600052602060002090601f016020900481019282601f1061554357805160ff1916838001178555615570565b82800160010185558215615570579182015b82811115615570578251825591602001919060010190615555565b506115f092915061563b565b6040805161010081019091528060008152602001600081526020016000815260200160008152602001600081526020016000815260200160008152602001600081525090565b60405180606001604052806000815260200160008152602001600081525090565b6040518060a0016040528060008152602001600081526020016000815260200160008152602001600081525090565b604080516080810190915280600081526020016000815260200160008152602001600081525090565b6114f591905b808211156115f0576000815560010161564156fe6f6e6c792061646d696e206d617920696e697469616c697a6520746865206d61726b65746d61726b6574206d6179206f6e6c7920626520696e697469616c697a6564206f6e6365696e697469616c2065786368616e67652072617465206d7573742062652067726561746572207468616e207a65726f2e73657474696e6720696e7465726573742072617465206d6f64656c206661696c65646f6e6c79207468652061646d696e206d61792063616c6c205f72657369676e496d706c656d656e746174696f6e6f6e6c792077726170706564206e617469766520636f6e747261637420636f756c642073656e64206e617469766520746f6b656e45524333313536466c617368426f72726f776572496e746572666163652e6f6e466c6173684c6f616eddf252ad1be2c89b69c2b068fc378daa952ba7f163c4a11628f55a4df523b3ef4c49515549444154455f434f4d5054524f4c4c45525f43414c43554c4154455f414d4f554e545f5345495a455f4641494c45446f6e65206f662072656465656d546f6b656e73496e206f722072656465656d416d6f756e74496e206d757374206265207a65726f6f6e6c79207468652061646d696e206d61792063616c6c205f6265636f6d65496d706c656d656e746174696f6e666c6173684c6f616e20616d6f756e742073686f756c642062652067726561746572207468616e207a65726fa265627a7a723158200bf4f750eca2bb0dd075b4d59a26b8a6e5565b8a8db9b6a892ed02d0d6fa599164736f6c63430005100032",
  "devdoc": {
    "author": "Cream",
    "methods": {
      "_acceptAdmin()": {
        "details": "Admin function for pending admin to accept role and update admin",
        "return": "uint 0=success, otherwise a failure (see ErrorReporter.sol for details)"
      },
      "_addReserves(uint256)": {
        "details": "Accrues interest whether or not the operation succeeds, unless reverted Keep return in the function signature for backward compatibility",
        "params": {
          "addAmount": "The amount fo underlying token to add as reserves"
        },
        "return": "uint 0=success, otherwise a failure (see ErrorReporter.sol for details)"
      },
      "_addReservesNative()": {
        "details": "Accrues interest whether or not the operation succeeds, unless reverted Keep return in the function signature for consistency",
        "return": "uint 0=success, otherwise a failure (see ErrorReporter.sol for details)"
      },
      "_becomeImplementation(bytes)": {
        "params": {
          "data": "The encoded bytes data for any initialization"
        }
      },
      "_reduceReserves(uint256)": {
        "params": {
          "reduceAmount": "Amount of reduction to reserves"
        },
        "return": "uint 0=success, otherwise a failure (see ErrorReporter.sol for details)"
      },
      "_setComptroller(address)": {
        "details": "Admin function to set a new comptroller",
        "return": "uint 0=success, otherwise a failure (see ErrorReporter.sol for details)"
      },
      "_setInterestRateModel(address)": {
        "details": "Admin function to accrue interest and update the interest rate model",
        "params": {
          "newInterestRateModel": "the new interest rate model to use"
        },
        "return": "uint 0=success, otherwise a failure (see ErrorReporter.sol for details)"
      },
      "_setPendingAdmin(address)": {
        "details": "Admin function to begin change of admin. The newPendingAdmin must call `_acceptAdmin` to finalize the transfer.",
        "params": {
          "newPendingAdmin": "New pending admin."
        },
        "return": "uint 0=success, otherwise a failure (see ErrorReporter.sol for details)"
      },
      "_setReserveFactor(uint256)": {
        "details": "Admin function to accrue interest and set a new reserve factor",
        "return": "uint 0=success, otherwise a failure (see ErrorReporter.sol for details)"
      },
      "accrueInterest()": {
        "details": "This calculates interest accrued from the last checkpointed block  up to the current block and writes new checkpoint to storage."
      },
      "allowance(address,address)": {
        "params": {
          "owner": "The address of the account which owns the tokens to be spent",
          "spender": "The address of the account which may transfer tokens"
        },
        "return": "The number of tokens allowed to be spent (-1 means infinite)"
      },
      "approve(address,uint256)": {
        "details": "This will overwrite the approval amount for `spender` and is subject to issues noted [here](https://eips.ethereum.org/EIPS/eip-20#approve)",
        "params": {
          "amount": "The number of tokens that are approved (-1 means infinite)",
          "spender": "The address of the account which may transfer tokens"
        },
        "return": "Whether or not the approval succeeded"
      },
      "balanceOf(address)": {
        "params": {
          "owner": "The address of the account to query"
        },
        "return": "The number of tokens owned by `owner`"
      },
      "balanceOfUnderlying(address)": {
        "details": "This also accrues interest in a transaction",
        "params": {
          "owner": "The address of the account to query"
        },
        "return": "The amount of underlying owned by `owner`"
      },
      "borrow(uint256)": {
        "details": "Accrues interest whether or not the operation succeeds, unless reverted Keep return in the function signature for backward compatibility",
        "params": {
          "borrowAmount": "The amount of the underlying asset to borrow"
        },
        "return": "uint 0=success, otherwise a failure (see ErrorReporter.sol for details)"
      },
      "borrowBalanceCurrent(address)": {
        "params": {
          "account": "The address whose balance should be calculated after updating borrowIndex"
        },
        "return": "The calculated balance"
      },
      "borrowBalanceStored(address)": {
        "params": {
          "account": "The address whose balance should be calculated"
        },
        "return": "The calculated balance"
      },
      "borrowNative(uint256)": {
        "details": "Accrues interest whether or not the operation succeeds, unless reverted Keep return in the function signature for consistency",
        "params": {
          "borrowAmount": "The amount of the underlying asset to borrow"
        },
        "return": "uint 0=success, otherwise a failure (see ErrorReporter.sol for details)"
      },
      "borrowRatePerBlock()": {
        "return": "The borrow interest rate per block, scaled by 1e18"
      },
      "estimateBorrowRatePerBlockAfterChange(uint256,bool)": {
        "return": "The borrow interest rate per block, scaled by 1e18"
      },
      "estimateSupplyRatePerBlockAfterChange(uint256,bool)": {
        "return": "The supply interest rate per block, scaled by 1e18"
      },
      "exchangeRateCurrent()": {
        "return": "Calculated exchange rate scaled by 1e18"
      },
      "exchangeRateStored()": {
        "details": "This function does not accrue interest before calculating the exchange rate",
        "return": "Calculated exchange rate scaled by 1e18"
      },
      "flashFee(uint256)": {
        "params": {
          "amount": "amount of token to borrow"
        }
      },
      "flashLoan(address,address,uint256,bytes)": {
        "params": {
          "amount": "The amount of the funds to be loaned",
          "data": "The other data",
          "initiator": "flash loan initiator",
          "receiver": "The receiver address for the funds"
        },
        "return": "uint 0=success, otherwise a failure (see ErrorReporter.sol for details)"
      },
      "getAccountSnapshot(address)": {
        "details": "This is used by comptroller to more efficiently perform liquidity checks.",
        "params": {
          "account": "Address of the account to snapshot"
        },
        "return": "(possible error, token balance, borrow balance, exchange rate mantissa)"
      },
      "getCash()": {
        "return": "The quantity of underlying asset owned by this contract"
      },
      "initialize(address,address,address,uint256,string,string,uint8)": {
        "params": {
          "comptroller_": "The address of the Comptroller",
          "decimals_": "ERC-20 decimal precision of this token",
          "initialExchangeRateMantissa_": "The initial exchange rate, scaled by 1e18",
          "interestRateModel_": "The address of the interest rate model",
          "name_": "ERC-20 name of this token",
          "symbol_": "ERC-20 symbol of this token",
          "underlying_": "The address of the underlying asset"
        }
      },
      "initialize(address,address,uint256,string,string,uint8)": {
        "params": {
          "comptroller_": "The address of the Comptroller",
          "decimals_": "EIP-20 decimal precision of this token",
          "initialExchangeRateMantissa_": "The initial exchange rate, scaled by 1e18",
          "interestRateModel_": "The address of the interest rate model",
          "name_": "EIP-20 name of this token",
          "symbol_": "EIP-20 symbol of this token"
        }
      },
      "liquidateBorrow(address,uint256,address)": {
        "details": "Accrues interest whether or not the operation succeeds, unless reverted Keep return in the function signature for backward compatibility",
        "params": {
          "borrower": "The borrower of this cToken to be liquidated",
          "cTokenCollateral": "The market in which to seize collateral from the borrower",
          "repayAmount": "The amount of the underlying borrowed asset to repay"
        },
        "return": "uint 0=success, otherwise a failure (see ErrorReporter.sol for details)"
      },
      "liquidateBorrowNative(address,address)": {
        "details": "Accrues interest whether or not the operation succeeds, unless reverted Keep return in the function signature for consistency",
        "params": {
          "borrower": "The borrower of this cToken to be liquidated",
          "cTokenCollateral": "The market in which to seize collateral from the borrower"
        },
        "return": "uint 0=success, otherwise a failure (see ErrorReporter.sol for details)"
      },
      "mint(uint256)": {
        "details": "Accrues interest whether or not the operation succeeds, unless reverted Keep return in the function signature for backward compatibility",
        "params": {
          "mintAmount": "The amount of the underlying asset to supply"
        },
        "return": "uint 0=success, otherwise a failure (see ErrorReporter.sol for details)"
      },
      "mintNative()": {
        "details": "Accrues interest whether or not the operation succeeds, unless reverted Keep return in the function signature for consistency",
        "return": "uint 0=success, otherwise a failure (see ErrorReporter.sol for details)"
      },
      "redeem(uint256)": {
        "details": "Accrues interest whether or not the operation succeeds, unless reverted Keep return in the function signature for backward compatibility",
        "params": {
          "redeemTokens": "The number of cTokens to redeem into underlying"
        },
        "return": "uint 0=success, otherwise a failure (see ErrorReporter.sol for details)"
      },
      "redeemNative(uint256)": {
        "details": "Accrues interest whether or not the operation succeeds, unless reverted Keep return in the function signature for consistency",
        "params": {
          "redeemTokens": "The number of cTokens to redeem into underlying"
        },
        "return": "uint 0=success, otherwise a failure (see ErrorReporter.sol for details)"
      },
      "redeemUnderlying(uint256)": {
        "details": "Accrues interest whether or not the operation succeeds, unless reverted Keep return in the function signature for backward compatibility",
        "params": {
          "redeemAmount": "The amount of underlying to redeem"
        },
        "return": "uint 0=success, otherwise a failure (see ErrorReporter.sol for details)"
      },
      "redeemUnderlyingNative(uint256)": {
        "details": "Accrues interest whether or not the operation succeeds, unless reverted Keep return in the function signature for consistency",
        "params": {
          "redeemAmount": "The amount of underlying to redeem"
        },
        "return": "uint 0=success, otherwise a failure (see ErrorReporter.sol for details)"
      },
      "repayBorrow(uint256)": {
        "details": "Accrues interest whether or not the operation succeeds, unless reverted Keep return in the function signature for backward compatibility",
        "params": {
          "repayAmount": "The amount to repay"
        },
        "return": "uint 0=success, otherwise a failure (see ErrorReporter.sol for details)"
      },
      "repayBorrowNative()": {
        "details": "Accrues interest whether or not the operation succeeds, unless reverted Keep return in the function signature for consistency",
        "return": "uint 0=success, otherwise a failure (see ErrorReporter.sol for details)"
      },
      "seize(address,address,uint256)": {
        "details": "Will fail unless called by another cToken during the process of liquidation. Its absolutely critical to use msg.sender as the borrowed cToken and not a parameter.",
        "params": {
          "borrower": "The account having collateral seized",
          "liquidator": "The account receiving seized collateral",
          "seizeTokens": "The number of cTokens to seize"
        },
        "return": "uint 0=success, otherwise a failure (see ErrorReporter.sol for details)"
      },
      "supplyRatePerBlock()": {
        "return": "The supply interest rate per block, scaled by 1e18"
      },
      "totalBorrowsCurrent()": {
        "return": "The total borrows with interest"
      },
      "transfer(address,uint256)": {
        "params": {
          "amount": "The number of tokens to transfer",
          "dst": "The address of the destination account"
        },
        "return": "Whether or not the transfer succeeded"
      },
      "transferFrom(address,address,uint256)": {
        "params": {
          "amount": "The number of tokens to transfer",
          "dst": "The address of the destination account",
          "src": "The address of the source account"
        },
        "return": "Whether or not the transfer succeeded"
      }
    },
    "title": "Cream's CWrappedNativeDelegate Contract"
  },
  "userdoc": {
    "methods": {
      "_acceptAdmin()": {
        "notice": "Accepts transfer of admin rights. msg.sender must be pendingAdmin"
      },
      "_addReserves(uint256)": {
        "notice": "The sender adds to reserves."
      },
      "_addReservesNative()": {
        "notice": "The sender adds to reserves."
      },
      "_becomeImplementation(bytes)": {
        "notice": "Called by the delegator on a delegate to initialize it for duty"
      },
      "_reduceReserves(uint256)": {
        "notice": "Accrues interest and reduces reserves by transferring to admin"
      },
      "_resignImplementation()": {
        "notice": "Called by the delegator on a delegate to forfeit its responsibility"
      },
      "_setComptroller(address)": {
        "notice": "Sets a new comptroller for the market"
      },
      "_setInterestRateModel(address)": {
        "notice": "accrues interest and updates the interest rate model using _setInterestRateModelFresh"
      },
      "_setPendingAdmin(address)": {
        "notice": "Begins transfer of admin rights. The newPendingAdmin must call `_acceptAdmin` to finalize the transfer."
      },
      "_setReserveFactor(uint256)": {
        "notice": "accrues interest and sets a new reserve factor for the protocol using _setReserveFactorFresh"
      },
      "accrueInterest()": {
        "notice": "Applies accrued interest to total borrows and reserves"
      },
      "allowance(address,address)": {
        "notice": "Get the current allowance from `owner` for `spender`"
      },
      "approve(address,uint256)": {
        "notice": "Approve `spender` to transfer up to `amount` from `src`"
      },
      "balanceOf(address)": {
        "notice": "Get the token balance of the `owner`"
      },
      "balanceOfUnderlying(address)": {
        "notice": "Get the underlying balance of the `owner`"
      },
      "borrow(uint256)": {
        "notice": "Sender borrows assets from the protocol to their own address"
      },
      "borrowBalanceCurrent(address)": {
        "notice": "Accrue interest to updated borrowIndex and then calculate account's borrow balance using the updated borrowIndex"
      },
      "borrowBalanceStored(address)": {
        "notice": "Return the borrow balance of account based on stored data"
      },
      "borrowNative(uint256)": {
        "notice": "Sender borrows assets from the protocol to their own address"
      },
      "borrowRatePerBlock()": {
        "notice": "Returns the current per-block borrow interest rate for this cToken"
      },
      "constructor": "Construct an empty delegate",
      "estimateBorrowRatePerBlockAfterChange(uint256,bool)": {
        "notice": "Returns the estimated per-block borrow interest rate for this cToken after some change"
      },
      "estimateSupplyRatePerBlockAfterChange(uint256,bool)": {
        "notice": "Returns the estimated per-block supply interest rate for this cToken after some change"
      },
      "exchangeRateCurrent()": {
        "notice": "Accrue interest then return the up-to-date exchange rate"
      },
      "exchangeRateStored()": {
        "notice": "Calculates the exchange rate from the underlying to the CToken"
      },
      "flashFee(uint256)": {
        "notice": "Get the flash loan fees"
      },
      "flashLoan(address,address,uint256,bytes)": {
        "notice": "Flash loan funds to a given account."
      },
      "getAccountSnapshot(address)": {
        "notice": "Get a snapshot of the account's balances, and the cached exchange rate"
      },
      "getCash()": {
        "notice": "Get cash balance of this cToken in the underlying asset"
      },
      "initialize(address,address,address,uint256,string,string,uint8)": {
        "notice": "Initialize the new money market"
      },
      "initialize(address,address,uint256,string,string,uint8)": {
        "notice": "Initialize the money market"
      },
      "liquidateBorrow(address,uint256,address)": {
        "notice": "The sender liquidates the borrowers collateral. The collateral seized is transferred to the liquidator."
      },
      "liquidateBorrowNative(address,address)": {
        "notice": "The sender liquidates the borrowers collateral. The collateral seized is transferred to the liquidator."
      },
      "maxFlashLoan()": {
        "notice": "Get the max flash loan amount"
      },
      "mint(uint256)": {
        "notice": "Sender supplies assets into the market and receives cTokens in exchange"
      },
      "mintNative()": {
        "notice": "Sender supplies assets into the market and receives cTokens in exchange"
      },
      "redeem(uint256)": {
        "notice": "Sender redeems cTokens in exchange for the underlying asset"
      },
      "redeemNative(uint256)": {
        "notice": "Sender redeems cTokens in exchange for the underlying asset"
      },
      "redeemUnderlying(uint256)": {
        "notice": "Sender redeems cTokens in exchange for a specified amount of underlying asset"
      },
      "redeemUnderlyingNative(uint256)": {
        "notice": "Sender redeems cTokens in exchange for a specified amount of underlying asset"
      },
      "repayBorrow(uint256)": {
        "notice": "Sender repays their own borrow"
      },
      "repayBorrowNative()": {
        "notice": "Sender repays their own borrow"
      },
      "seize(address,address,uint256)": {
        "notice": "Transfers collateral tokens (this market) to the liquidator."
      },
      "supplyRatePerBlock()": {
        "notice": "Returns the current per-block supply interest rate for this cToken"
      },
      "totalBorrowsCurrent()": {
        "notice": "Returns the current total borrows plus accrued interest"
      },
      "transfer(address,uint256)": {
        "notice": "Transfer `amount` tokens from `msg.sender` to `dst`"
      },
      "transferFrom(address,address,uint256)": {
        "notice": "Transfer `amount` tokens from `src` to `dst`"
      }
    },
    "notice": "CTokens which wrap an EIP-20 underlying and are delegated to"
  },
  "storageLayout": {
    "storage": [
      {
        "astId": 12158,
        "contract": "contracts/CWrappedNativeDelegate.sol:CWrappedNativeDelegate",
        "label": "_notEntered",
        "offset": 0,
        "slot": "0",
        "type": "t_bool"
      },
      {
        "astId": 12160,
        "contract": "contracts/CWrappedNativeDelegate.sol:CWrappedNativeDelegate",
        "label": "name",
        "offset": 0,
        "slot": "1",
        "type": "t_string_storage"
      },
      {
        "astId": 12162,
        "contract": "contracts/CWrappedNativeDelegate.sol:CWrappedNativeDelegate",
        "label": "symbol",
        "offset": 0,
        "slot": "2",
        "type": "t_string_storage"
      },
      {
        "astId": 12164,
        "contract": "contracts/CWrappedNativeDelegate.sol:CWrappedNativeDelegate",
        "label": "decimals",
        "offset": 0,
        "slot": "3",
        "type": "t_uint8"
      },
      {
        "astId": 12172,
        "contract": "contracts/CWrappedNativeDelegate.sol:CWrappedNativeDelegate",
        "label": "admin",
        "offset": 1,
        "slot": "3",
        "type": "t_address_payable"
      },
      {
        "astId": 12174,
        "contract": "contracts/CWrappedNativeDelegate.sol:CWrappedNativeDelegate",
        "label": "pendingAdmin",
        "offset": 0,
        "slot": "4",
        "type": "t_address_payable"
      },
      {
        "astId": 12176,
        "contract": "contracts/CWrappedNativeDelegate.sol:CWrappedNativeDelegate",
        "label": "comptroller",
        "offset": 0,
        "slot": "5",
        "type": "t_contract(ComptrollerInterface)21910"
      },
      {
        "astId": 12178,
        "contract": "contracts/CWrappedNativeDelegate.sol:CWrappedNativeDelegate",
        "label": "interestRateModel",
        "offset": 0,
        "slot": "6",
        "type": "t_contract(InterestRateModel)25284"
      },
      {
        "astId": 12180,
        "contract": "contracts/CWrappedNativeDelegate.sol:CWrappedNativeDelegate",
        "label": "initialExchangeRateMantissa",
        "offset": 0,
        "slot": "7",
        "type": "t_uint256"
      },
      {
        "astId": 12182,
        "contract": "contracts/CWrappedNativeDelegate.sol:CWrappedNativeDelegate",
        "label": "reserveFactorMantissa",
        "offset": 0,
        "slot": "8",
        "type": "t_uint256"
      },
      {
        "astId": 12184,
        "contract": "contracts/CWrappedNativeDelegate.sol:CWrappedNativeDelegate",
        "label": "accrualBlockNumber",
        "offset": 0,
        "slot": "9",
        "type": "t_uint256"
      },
      {
        "astId": 12186,
        "contract": "contracts/CWrappedNativeDelegate.sol:CWrappedNativeDelegate",
        "label": "borrowIndex",
        "offset": 0,
        "slot": "10",
        "type": "t_uint256"
      },
      {
        "astId": 12188,
        "contract": "contracts/CWrappedNativeDelegate.sol:CWrappedNativeDelegate",
        "label": "totalBorrows",
        "offset": 0,
        "slot": "11",
        "type": "t_uint256"
      },
      {
        "astId": 12190,
        "contract": "contracts/CWrappedNativeDelegate.sol:CWrappedNativeDelegate",
        "label": "totalReserves",
        "offset": 0,
        "slot": "12",
        "type": "t_uint256"
      },
      {
        "astId": 12192,
        "contract": "contracts/CWrappedNativeDelegate.sol:CWrappedNativeDelegate",
        "label": "totalSupply",
        "offset": 0,
        "slot": "13",
        "type": "t_uint256"
      },
      {
        "astId": 12196,
        "contract": "contracts/CWrappedNativeDelegate.sol:CWrappedNativeDelegate",
        "label": "accountTokens",
        "offset": 0,
        "slot": "14",
        "type": "t_mapping(t_address,t_uint256)"
      },
      {
        "astId": 12202,
        "contract": "contracts/CWrappedNativeDelegate.sol:CWrappedNativeDelegate",
        "label": "transferAllowances",
        "offset": 0,
        "slot": "15",
        "type": "t_mapping(t_address,t_mapping(t_address,t_uint256))"
      },
      {
        "astId": 12211,
        "contract": "contracts/CWrappedNativeDelegate.sol:CWrappedNativeDelegate",
        "label": "accountBorrows",
        "offset": 0,
        "slot": "16",
        "type": "t_mapping(t_address,t_struct(BorrowSnapshot)12207_storage)"
      },
      {
        "astId": 12214,
        "contract": "contracts/CWrappedNativeDelegate.sol:CWrappedNativeDelegate",
        "label": "underlying",
        "offset": 0,
        "slot": "17",
        "type": "t_address"
      },
      {
        "astId": 12216,
        "contract": "contracts/CWrappedNativeDelegate.sol:CWrappedNativeDelegate",
        "label": "implementation",
        "offset": 0,
        "slot": "18",
        "type": "t_address"
      }
    ],
    "types": {
      "t_address": {
        "encoding": "inplace",
        "label": "address",
        "numberOfBytes": "20"
      },
      "t_address_payable": {
        "encoding": "inplace",
        "label": "address payable",
        "numberOfBytes": "20"
      },
      "t_bool": {
        "encoding": "inplace",
        "label": "bool",
        "numberOfBytes": "1"
      },
      "t_contract(ComptrollerInterface)21910": {
        "encoding": "inplace",
        "label": "contract ComptrollerInterface",
        "numberOfBytes": "20"
      },
      "t_contract(InterestRateModel)25284": {
        "encoding": "inplace",
        "label": "contract InterestRateModel",
        "numberOfBytes": "20"
      },
      "t_mapping(t_address,t_mapping(t_address,t_uint256))": {
        "encoding": "mapping",
        "key": "t_address",
        "label": "mapping(address => mapping(address => uint256))",
        "numberOfBytes": "32",
        "value": "t_mapping(t_address,t_uint256)"
      },
      "t_mapping(t_address,t_struct(BorrowSnapshot)12207_storage)": {
        "encoding": "mapping",
        "key": "t_address",
        "label": "mapping(address => struct CTokenStorage.BorrowSnapshot)",
        "numberOfBytes": "32",
        "value": "t_struct(BorrowSnapshot)12207_storage"
      },
      "t_mapping(t_address,t_uint256)": {
        "encoding": "mapping",
        "key": "t_address",
        "label": "mapping(address => uint256)",
        "numberOfBytes": "32",
        "value": "t_uint256"
      },
      "t_string_storage": {
        "encoding": "bytes",
        "label": "string",
        "numberOfBytes": "32"
      },
      "t_struct(BorrowSnapshot)12207_storage": {
        "encoding": "inplace",
        "label": "struct CTokenStorage.BorrowSnapshot",
        "members": [
          {
            "astId": 12204,
            "contract": "contracts/CWrappedNativeDelegate.sol:CWrappedNativeDelegate",
            "label": "principal",
            "offset": 0,
            "slot": "0",
            "type": "t_uint256"
          },
          {
            "astId": 12206,
            "contract": "contracts/CWrappedNativeDelegate.sol:CWrappedNativeDelegate",
            "label": "interestIndex",
            "offset": 0,
            "slot": "1",
            "type": "t_uint256"
          }
        ],
        "numberOfBytes": "64"
      },
      "t_uint256": {
        "encoding": "inplace",
        "label": "uint256",
        "numberOfBytes": "32"
      },
      "t_uint8": {
        "encoding": "inplace",
        "label": "uint8",
        "numberOfBytes": "1"
      }
    }
  }
}