{
  "address": "0xBA320CbA4A2f8D37E7F5eaE74Bb4C71F94d79eaA",
  "abi": [
    {
      "inputs": [
        {
          "internalType": "string",
          "name": "_nativeSymbol",
          "type": "string"
        }
      ],
      "payable": false,
      "stateMutability": "nonpayable",
      "type": "constructor"
    },
    {
      "constant": true,
      "inputs": [
        {
          "internalType": "contract Joetroller",
          "name": "joetroller",
          "type": "address"
        },
        {
          "internalType": "address",
          "name": "account",
          "type": "address"
        }
      ],
      "name": "getAccountLimits",
      "outputs": [
        {
          "components": [
            {
              "internalType": "contract JToken[]",
              "name": "markets",
              "type": "address[]"
            },
            {
              "internalType": "uint256",
              "name": "liquidity",
              "type": "uint256"
            },
            {
              "internalType": "uint256",
              "name": "shortfall",
              "type": "uint256"
            }
          ],
          "internalType": "struct JoeLensView.AccountLimits",
          "name": "",
          "type": "tuple"
        }
      ],
      "payable": false,
      "stateMutability": "view",
      "type": "function"
    },
    {
      "constant": true,
      "inputs": [
        {
          "internalType": "contract JToken",
          "name": "jToken",
          "type": "address"
        },
        {
          "internalType": "address payable",
          "name": "account",
          "type": "address"
        }
      ],
      "name": "jTokenBalances",
      "outputs": [
        {
          "components": [
            {
              "internalType": "address",
              "name": "jToken",
              "type": "address"
            },
            {
              "internalType": "uint256",
              "name": "supplyBalance",
              "type": "uint256"
            },
            {
              "internalType": "uint256",
              "name": "supplyValueUSD",
              "type": "uint256"
            },
            {
              "internalType": "uint256",
              "name": "collateralValueUSD",
              "type": "uint256"
            },
            {
              "internalType": "uint256",
              "name": "borrowBalanceStored",
              "type": "uint256"
            },
            {
              "internalType": "uint256",
              "name": "borrowValueUSD",
              "type": "uint256"
            },
            {
              "internalType": "uint256",
              "name": "balanceOfUnderlyingStored",
              "type": "uint256"
            },
            {
              "internalType": "uint256",
              "name": "underlyingTokenBalance",
              "type": "uint256"
            },
            {
              "internalType": "uint256",
              "name": "underlyingTokenAllowance",
              "type": "uint256"
            },
            {
              "internalType": "bool",
              "name": "collateralEnabled",
              "type": "bool"
            }
          ],
          "internalType": "struct JoeLensView.JTokenBalances",
          "name": "",
          "type": "tuple"
        }
      ],
      "payable": false,
      "stateMutability": "view",
      "type": "function"
    },
    {
      "constant": true,
      "inputs": [
        {
          "internalType": "contract JToken[]",
          "name": "jTokens",
          "type": "address[]"
        },
        {
          "internalType": "address payable",
          "name": "account",
          "type": "address"
        }
      ],
      "name": "jTokenBalancesAll",
      "outputs": [
        {
          "components": [
            {
              "internalType": "address",
              "name": "jToken",
              "type": "address"
            },
            {
              "internalType": "uint256",
              "name": "supplyBalance",
              "type": "uint256"
            },
            {
              "internalType": "uint256",
              "name": "supplyValueUSD",
              "type": "uint256"
            },
            {
              "internalType": "uint256",
              "name": "collateralValueUSD",
              "type": "uint256"
            },
            {
              "internalType": "uint256",
              "name": "borrowBalanceStored",
              "type": "uint256"
            },
            {
              "internalType": "uint256",
              "name": "borrowValueUSD",
              "type": "uint256"
            },
            {
              "internalType": "uint256",
              "name": "balanceOfUnderlyingStored",
              "type": "uint256"
            },
            {
              "internalType": "uint256",
              "name": "underlyingTokenBalance",
              "type": "uint256"
            },
            {
              "internalType": "uint256",
              "name": "underlyingTokenAllowance",
              "type": "uint256"
            },
            {
              "internalType": "bool",
              "name": "collateralEnabled",
              "type": "bool"
            }
          ],
          "internalType": "struct JoeLensView.JTokenBalances[]",
          "name": "",
          "type": "tuple[]"
        }
      ],
      "payable": false,
      "stateMutability": "view",
      "type": "function"
    },
    {
      "constant": true,
      "inputs": [
        {
          "internalType": "contract JToken",
          "name": "jToken",
          "type": "address"
        }
      ],
      "name": "jTokenMetadata",
      "outputs": [
        {
          "components": [
            {
              "internalType": "address",
              "name": "jToken",
              "type": "address"
            },
            {
              "internalType": "uint256",
              "name": "exchangeRateStored",
              "type": "uint256"
            },
            {
              "internalType": "uint256",
              "name": "supplyRatePerSecond",
              "type": "uint256"
            },
            {
              "internalType": "uint256",
              "name": "borrowRatePerSecond",
              "type": "uint256"
            },
            {
              "internalType": "uint256",
              "name": "reserveFactorMantissa",
              "type": "uint256"
            },
            {
              "internalType": "uint256",
              "name": "totalBorrows",
              "type": "uint256"
            },
            {
              "internalType": "uint256",
              "name": "totalReserves",
              "type": "uint256"
            },
            {
              "internalType": "uint256",
              "name": "totalSupply",
              "type": "uint256"
            },
            {
              "internalType": "uint256",
              "name": "totalCash",
              "type": "uint256"
            },
            {
              "internalType": "uint256",
              "name": "totalCollateralTokens",
              "type": "uint256"
            },
            {
              "internalType": "bool",
              "name": "isListed",
              "type": "bool"
            },
            {
              "internalType": "uint256",
              "name": "collateralFactorMantissa",
              "type": "uint256"
            },
            {
              "internalType": "address",
              "name": "underlyingAssetAddress",
              "type": "address"
            },
            {
              "internalType": "uint256",
              "name": "jTokenDecimals",
              "type": "uint256"
            },
            {
              "internalType": "uint256",
              "name": "underlyingDecimals",
              "type": "uint256"
            },
            {
              "internalType": "enum JoetrollerV1Storage.Version",
              "name": "version",
              "type": "uint8"
            },
            {
              "internalType": "uint256",
              "name": "collateralCap",
              "type": "uint256"
            },
            {
              "internalType": "uint256",
              "name": "underlyingPrice",
              "type": "uint256"
            },
            {
              "internalType": "bool",
              "name": "supplyPaused",
              "type": "bool"
            },
            {
              "internalType": "bool",
              "name": "borrowPaused",
              "type": "bool"
            },
            {
              "internalType": "uint256",
              "name": "supplyCap",
              "type": "uint256"
            },
            {
              "internalType": "uint256",
              "name": "borrowCap",
              "type": "uint256"
            }
          ],
          "internalType": "struct JoeLensView.JTokenMetadata",
          "name": "",
          "type": "tuple"
        }
      ],
      "payable": false,
      "stateMutability": "view",
      "type": "function"
    },
    {
      "constant": true,
      "inputs": [],
      "name": "nativeSymbol",
      "outputs": [
        {
          "internalType": "string",
          "name": "",
          "type": "string"
        }
      ],
      "payable": false,
      "stateMutability": "view",
      "type": "function"
    }
  ],
  "transactionHash": "0xb76c48d720638a67fbd6f6a1436acda89d07fc7414eba229375f0c6d931cec92",
  "args": [
    "jETH"
  ],
  "solcInputHash": "923a342342baf42af49a68c4f195dedc",
  "bytecode": "0x60806040523480156200001157600080fd5b50604051620024c6380380620024c6833981016040819052620000349162000152565b80516200004990600090602084019062000051565b505062000214565b828054600181600116156101000203166002900490600052602060002090601f016020900481019282601f106200009457805160ff1916838001178555620000c4565b82800160010185558215620000c4579182015b82811115620000c4578251825591602001919060010190620000a7565b50620000d2929150620000d6565b5090565b620000f391905b80821115620000d25760008155600101620000dd565b90565b600082601f8301126200010857600080fd5b81516200011f6200011982620001b9565b62000192565b915080825260208301602083018583830111156200013c57600080fd5b62000149838284620001e1565b50505092915050565b6000602082840312156200016557600080fd5b81516001600160401b038111156200017c57600080fd5b6200018a84828501620000f6565b949350505050565b6040518181016001600160401b0381118282101715620001b157600080fd5b604052919050565b60006001600160401b03821115620001d057600080fd5b506020601f91909101601f19160190565b60005b83811015620001fe578181015183820152602001620001e4565b838111156200020e576000848401525b50505050565b6122a280620002246000396000f3fe608060405234801561001057600080fd5b50600436106100565760003560e01c8062673b0c1461005b57806357553afb146100845780637dd8f6d9146100a45780637fedad55146100c4578063d9ca3c9c146100d9575b600080fd5b61006e610069366004611996565b6100f9565b60405161007b91906120a5565b60405180910390f35b610097610092366004611a9f565b61019c565b60405161007b91906120e6565b6100b76100b2366004611a9f565b61082f565b60405161007b91906120d5565b6100cc61096b565b60405161007b91906120c4565b6100ec6100e7366004611a81565b6109f9565b60405161007b91906120f5565b6040805183815260208085028201019091526060908390829082801561013957816020015b6101266116ad565b81526020019060019003908161011e5790505b50905060005b828110156101905761017187878381811061015657fe5b905060200201602061016b9190810190611a81565b8661019c565b82828151811061017d57fe5b602090810291909101015260010161013f565b509150505b9392505050565b6101a46116ad565b6101ac6116ad565b6000846001600160a01b0316636330533c6040518163ffffffff1660e01b815260040160206040518083038186803b1580156101e757600080fd5b505afa1580156101fb573d6000803e3d6000fd5b505050506040513d601f19601f8201168201806040525061021f9190810190611ad9565b6001600160a01b03808716845260405163929fe9a160e01b815291925082169063929fe9a190610255908790899060040161208a565b60206040518083038186803b15801561026d57600080fd5b505afa158015610281573d6000803e3d6000fd5b505050506040513d601f19601f820116820180604052506102a59190810190611a20565b826101200190151590811515815250506103bd856001600160a01b03166395d89b416040518163ffffffff1660e01b815260040160006040518083038186803b1580156102f157600080fd5b505afa158015610305573d6000803e3d6000fd5b505050506040513d6000823e601f3d908101601f1916820160405261032d9190810190611af7565b6000805460408051602060026001851615610100026000190190941693909304601f810184900484028201840190925281815292918301828280156103b35780601f10610388576101008083540402835291602001916103b3565b820191906000526020600020905b81548152906001019060200180831161039657829003601f168201915b5050505050610b00565b156103df576001600160a01b038416803160e084015231610100830152610562565b60008590506000816001600160a01b0316636f307dc36040518163ffffffff1660e01b815260040160206040518083038186803b15801561041f57600080fd5b505afa158015610433573d6000803e3d6000fd5b505050506040513d601f19601f820116820180604052506104579190810190611978565b6040516370a0823160e01b81529091506001600160a01b038216906370a0823190610486908990600401612061565b60206040518083038186803b15801561049e57600080fd5b505afa1580156104b2573d6000803e3d6000fd5b505050506040513d601f19601f820116820180604052506104d69190810190611b2c565b60e0850152604051636eb1769f60e11b81526001600160a01b0382169063dd62ed3e906105099089908b9060040161206f565b60206040518083038186803b15801561052157600080fd5b505afa158015610535573d6000803e3d6000fd5b505050506040513d601f19601f820116820180604052506105599190810190611b2c565b61010085015250505b6040516361bfb47160e11b81526000906001600160a01b0387169063c37f68e290610591908890600401612061565b60806040518083038186803b1580156105a957600080fd5b505afa1580156105bd573d6000803e3d6000fd5b505050506040513d601f19601f820116820180604052506105e19190810190611b8d565b6080870191909152602086019190915291506105fd905061170b565b604051806020016040528083815250905061061c818560200151610b59565b8460c00181815250506000836001600160a01b0316637dc0d1d06040518163ffffffff1660e01b815260040160206040518083038186803b15801561066057600080fd5b505afa158015610674573d6000803e3d6000fd5b505050506040513d601f19601f820116820180604052506106989190810190611ad9565b90506000816001600160a01b031663fc57d4df8a6040518263ffffffff1660e01b81526004016106c891906120b6565b60206040518083038186803b1580156106e057600080fd5b505afa1580156106f4573d6000803e3d6000fd5b505050506040513d601f19601f820116820180604052506107189190810190611b2c565b90506000856001600160a01b0316638e8f294b8b6040518263ffffffff1660e01b81526004016107489190612053565b60606040518083038186803b15801561076057600080fd5b505afa158015610774573d6000803e3d6000fd5b505050506040513d601f19601f820116820180604052506107989190810190611a3e565b509150506107a461170b565b50604080516020810190915260c088015181526107c18184610b59565b60408901526107ce61170b565b60405180602001604052808481525090506107ed818a60400151610b59565b60608a01526107fa61170b565b50604080516020810190915260808a015181526108178186610b59565b60a08b01525097985050505050505050505b92915050565b61083761171e565b6000806000856001600160a01b0316635ec88c79866040518263ffffffff1660e01b81526004016108689190612053565b60606040518083038186803b15801561088057600080fd5b505afa158015610894573d6000803e3d6000fd5b505050506040513d601f19601f820116820180604052506108b89190810190611b4a565b925092509250826000146108cb57600080fd5b604080516060810191829052632aff3bff60e21b909152806001600160a01b03881663abfceffc6108ff8960648501612053565b60006040518083038186803b15801561091757600080fd5b505afa15801561092b573d6000803e3d6000fd5b505050506040513d6000823e601f3d908101601f1916820160405261095391908101906119eb565b81526020810193909352604090920152949350505050565b6000805460408051602060026001851615610100026000190190941693909304601f810184900484028201840190925281815292918301828280156109f15780601f106109c6576101008083540402835291602001916109f1565b820191906000526020600020905b8154815290600101906020018083116109d457829003601f168201915b505050505081565b610a0161173f565b6000826001600160a01b0316636330533c6040518163ffffffff1660e01b815260040160206040518083038186803b158015610a3c57600080fd5b505afa158015610a50573d6000803e3d6000fd5b505050506040513d601f19601f82011682018060405250610a749190810190611ad9565b90506000816001600160a01b0316637dc0d1d06040518163ffffffff1660e01b815260040160206040518083038186803b158015610ab157600080fd5b505afa158015610ac5573d6000803e3d6000fd5b505050506040513d601f19601f82011682018060405250610ae99190810190611ad9565b9050610af6848383610b80565b925050505b919050565b600081604051602001610b139190612047565b6040516020818303038152906040528051906020012083604051602001610b3a9190612047565b6040516020818303038152906040528051906020012014905092915050565b6000610b6361170b565b610b6d84846115dd565b9050610b7881611607565b949350505050565b610b8861173f565b6000846001600160a01b031663182df0f56040518163ffffffff1660e01b815260040160206040518083038186803b158015610bc357600080fd5b505afa158015610bd7573d6000803e3d6000fd5b505050506040513d601f19601f82011682018060405250610bfb9190810190611b2c565b90506000806000866001600160a01b0316638e8f294b896040518263ffffffff1660e01b8152600401610c2e9190612053565b60606040518083038186803b158015610c4657600080fd5b505afa158015610c5a573d6000803e3d6000fd5b505050506040513d601f19601f82011682018060405250610c7e9190810190611a3e565b925092509250600080600080610cc68c6001600160a01b03166395d89b416040518163ffffffff1660e01b815260040160006040518083038186803b1580156102f157600080fd5b15610cd8576000935060129250610e38565b60008c9050806001600160a01b0316636f307dc36040518163ffffffff1660e01b815260040160206040518083038186803b158015610d1657600080fd5b505afa158015610d2a573d6000803e3d6000fd5b505050506040513d601f19601f82011682018060405250610d4e9190810190611978565b9450806001600160a01b0316636f307dc36040518163ffffffff1660e01b815260040160206040518083038186803b158015610d8957600080fd5b505afa158015610d9d573d6000803e3d6000fd5b505050506040513d601f19601f82011682018060405250610dc19190810190611978565b6001600160a01b031663313ce5676040518163ffffffff1660e01b815260040160206040518083038186803b158015610df957600080fd5b505afa158015610e0d573d6000803e3d6000fd5b505050506040513d601f19601f82011682018060405250610e319190810190611bee565b60ff169350505b6001856002811115610e4657fe5b1415610f33578b6001600160a01b031663d2bb18e96040518163ffffffff1660e01b815260040160206040518083038186803b158015610e8557600080fd5b505afa158015610e99573d6000803e3d6000fd5b505050506040513d601f19601f82011682018060405250610ebd9190810190611b2c565b91508b6001600160a01b03166319a4dd3c6040518163ffffffff1660e01b815260040160206040518083038186803b158015610ef857600080fd5b505afa158015610f0c573d6000803e3d6000fd5b505050506040513d601f19601f82011682018060405250610f309190810190611b2c565b90505b604051806102c001604052808d6001600160a01b031681526020018981526020018d6001600160a01b031663b1d389746040518163ffffffff1660e01b815260040160206040518083038186803b158015610f8d57600080fd5b505afa158015610fa1573d6000803e3d6000fd5b505050506040513d601f19601f82011682018060405250610fc59190810190611b2c565b81526020018d6001600160a01b031663526097506040518163ffffffff1660e01b815260040160206040518083038186803b15801561100357600080fd5b505afa158015611017573d6000803e3d6000fd5b505050506040513d601f19601f8201168201806040525061103b9190810190611b2c565b81526020018d6001600160a01b031663173b99046040518163ffffffff1660e01b815260040160206040518083038186803b15801561107957600080fd5b505afa15801561108d573d6000803e3d6000fd5b505050506040513d601f19601f820116820180604052506110b19190810190611b2c565b81526020018d6001600160a01b03166347bd37186040518163ffffffff1660e01b815260040160206040518083038186803b1580156110ef57600080fd5b505afa158015611103573d6000803e3d6000fd5b505050506040513d601f19601f820116820180604052506111279190810190611b2c565b81526020018d6001600160a01b0316638f840ddd6040518163ffffffff1660e01b815260040160206040518083038186803b15801561116557600080fd5b505afa158015611179573d6000803e3d6000fd5b505050506040513d601f19601f8201168201806040525061119d9190810190611b2c565b81526020018d6001600160a01b03166318160ddd6040518163ffffffff1660e01b815260040160206040518083038186803b1580156111db57600080fd5b505afa1580156111ef573d6000803e3d6000fd5b505050506040513d601f19601f820116820180604052506112139190810190611b2c565b81526020018d6001600160a01b0316633b1d21a26040518163ffffffff1660e01b815260040160206040518083038186803b15801561125157600080fd5b505afa158015611265573d6000803e3d6000fd5b505050506040513d601f19601f820116820180604052506112899190810190611b2c565b81526020018281526020018815158152602001878152602001856001600160a01b031681526020018d6001600160a01b031663313ce5676040518163ffffffff1660e01b815260040160206040518083038186803b1580156112ea57600080fd5b505afa1580156112fe573d6000803e3d6000fd5b505050506040513d601f19601f820116820180604052506113229190810190611bee565b60ff16815260200184815260200186600281111561133c57fe5b81526020018381526020018b6001600160a01b031663fc57d4df8f6040518263ffffffff1660e01b815260040161137391906120b6565b60206040518083038186803b15801561138b57600080fd5b505afa15801561139f573d6000803e3d6000fd5b505050506040513d601f19601f820116820180604052506113c39190810190611b2c565b81526020018c6001600160a01b031663731f0c2b8f6040518263ffffffff1660e01b81526004016113f49190612053565b60206040518083038186803b15801561140c57600080fd5b505afa158015611420573d6000803e3d6000fd5b505050506040513d601f19601f820116820180604052506114449190810190611a20565b151581526020018c6001600160a01b0316636d154ea58f6040518263ffffffff1660e01b81526004016114779190612053565b60206040518083038186803b15801561148f57600080fd5b505afa1580156114a3573d6000803e3d6000fd5b505050506040513d601f19601f820116820180604052506114c79190810190611a20565b151581526020018c6001600160a01b03166302c3bcbb8f6040518263ffffffff1660e01b81526004016114fa9190612053565b60206040518083038186803b15801561151257600080fd5b505afa158015611526573d6000803e3d6000fd5b505050506040513d601f19601f8201168201806040525061154a9190810190611b2c565b81526020018c6001600160a01b0316634a5844328f6040518263ffffffff1660e01b815260040161157b9190612053565b60206040518083038186803b15801561159357600080fd5b505afa1580156115a7573d6000803e3d6000fd5b505050506040513d601f19601f820116820180604052506115cb9190810190611b2c565b90529c9b505050505050505050505050565b6115e561170b565b60405180602001604052806115fe856000015185611616565b90529392505050565b51670de0b6b3a7640000900490565b600061019583836040518060400160405280601781526020017f6d756c7469706c69636174696f6e206f766572666c6f770000000000000000008152506000831580611660575082155b1561166d57506000610195565b8383028385828161167a57fe5b041483906116a45760405162461bcd60e51b815260040161169b91906120c4565b60405180910390fd5b50949350505050565b60405180610140016040528060006001600160a01b0316815260200160008152602001600081526020016000815260200160008152602001600081526020016000815260200160008152602001600081526020016000151581525090565b6040518060200160405280600081525090565b60405180606001604052806060815260200160008152602001600081525090565b604051806102c0016040528060006001600160a01b031681526020016000815260200160008152602001600081526020016000815260200160008152602001600081526020016000815260200160008152602001600081526020016000151581526020016000815260200160006001600160a01b031681526020016000815260200160008152602001600060028111156117d557fe5b8152602001600081526020016000815260200160001515815260200160001515815260200160008152602001600081525090565b80356108298161221a565b80516108298161221a565b60008083601f84011261183157600080fd5b50813567ffffffffffffffff81111561184957600080fd5b60208301915083602082028301111561186157600080fd5b9250929050565b600082601f83011261187957600080fd5b815161188c6118878261212b565b612104565b915081818352602084019350602081019050838560208402820111156118b157600080fd5b60005b838110156118dd57816118c788826118fd565b84525060209283019291909101906001016118b4565b5050505092915050565b80516108298161222e565b803561082981612237565b805161082981612237565b805161082981612240565b600082601f83011261192457600080fd5b81516119326118878261214c565b9150808252602083016020830185838301111561194e57600080fd5b6119598382846121d7565b50505092915050565b80516108298161224d565b805161082981612256565b60006020828403121561198a57600080fd5b6000610b788484611814565b6000806000604084860312156119ab57600080fd5b833567ffffffffffffffff8111156119c257600080fd5b6119ce8682870161181f565b935093505060206119e186828701611809565b9150509250925092565b6000602082840312156119fd57600080fd5b815167ffffffffffffffff811115611a1457600080fd5b610b7884828501611868565b600060208284031215611a3257600080fd5b6000610b7884846118e7565b600080600060608486031215611a5357600080fd5b6000611a5f86866118e7565b9350506020611a7086828701611962565b92505060406119e186828701611908565b600060208284031215611a9357600080fd5b6000610b7884846118f2565b60008060408385031215611ab257600080fd5b6000611abe85856118f2565b9250506020611acf85828601611809565b9150509250929050565b600060208284031215611aeb57600080fd5b6000610b7884846118fd565b600060208284031215611b0957600080fd5b815167ffffffffffffffff811115611b2057600080fd5b610b7884828501611913565b600060208284031215611b3e57600080fd5b6000610b788484611962565b600080600060608486031215611b5f57600080fd5b6000611b6b8686611962565b9350506020611b7c86828701611962565b92505060406119e186828701611962565b60008060008060808587031215611ba357600080fd5b6000611baf8787611962565b9450506020611bc087828801611962565b9350506040611bd187828801611962565b9250506060611be287828801611962565b91505092959194509250565b600060208284031215611c0057600080fd5b6000610b78848461196d565b6000611c188383611cfd565b505060200190565b6000611c2c8383611dbe565b50506101400190565b611c3e816121c1565b82525050565b611c3e81612187565b6000611c588261217a565b611c62818561217e565b9350611c6d83612174565b8060005b83811015611c9b578151611c858882611c0c565b9750611c9083612174565b925050600101611c71565b509495945050505050565b6000611cb18261217a565b611cbb818561217e565b9350611cc683612174565b8060005b83811015611c9b578151611cde8882611c20565b9750611ce983612174565b925050600101611cca565b611c3e81612192565b611c3e81612197565b611c3e816121cc565b6000611d1a8261217a565b611d24818561217e565b9350611d348185602086016121d7565b611d3d81612203565b9093019392505050565b6000611d528261217a565b611d5c8185610afb565b9350611d6c8185602086016121d7565b9290920192915050565b8051606080845260009190840190611d8e8282611c4d565b9150506020830151611da3602086018261203e565b506040830151611db6604086018261203e565b509392505050565b8051610140830190611dd08482611c44565b506020820151611de3602085018261203e565b506040820151611df6604085018261203e565b506060820151611e09606085018261203e565b506080820151611e1c608085018261203e565b5060a0820151611e2f60a085018261203e565b5060c0820151611e4260c085018261203e565b5060e0820151611e5560e085018261203e565b50610100820151611e6a61010085018261203e565b50610120820151611e7f610120850182611cf4565b50505050565b80516102c0830190611e978482611c44565b506020820151611eaa602085018261203e565b506040820151611ebd604085018261203e565b506060820151611ed0606085018261203e565b506080820151611ee3608085018261203e565b5060a0820151611ef660a085018261203e565b5060c0820151611f0960c085018261203e565b5060e0820151611f1c60e085018261203e565b50610100820151611f3161010085018261203e565b50610120820151611f4661012085018261203e565b50610140820151611f5b610140850182611cf4565b50610160820151611f7061016085018261203e565b50610180820151611f85610180850182611c44565b506101a0820151611f9a6101a085018261203e565b506101c0820151611faf6101c085018261203e565b506101e0820151611fc46101e0850182611d06565b50610200820151611fd961020085018261203e565b50610220820151611fee61022085018261203e565b50610240820151612003610240850182611cf4565b50610260820151612018610260850182611cf4565b5061028082015161202d61028085018261203e565b506102a0820151611e7f6102a08501825b611c3e816121b8565b60006101958284611d47565b602081016108298284611c44565b602081016108298284611c35565b6040810161207d8285611c35565b6101956020830184611c44565b604081016120988285611c35565b6101956020830184611cfd565b602080825281016101958184611ca6565b602081016108298284611cfd565b602080825281016101958184611d0f565b602080825281016101958184611d76565b61014081016108298284611dbe565b6102c081016108298284611e85565b60405181810167ffffffffffffffff8111828210171561212357600080fd5b604052919050565b600067ffffffffffffffff82111561214257600080fd5b5060209081020190565b600067ffffffffffffffff82111561216357600080fd5b506020601f91909101601f19160190565b60200190565b5190565b90815260200190565b6000610829826121ac565b151590565b600061082982612187565b80610afb8161220d565b6001600160a01b031690565b90565b60ff1690565b600061082982612197565b6000610829826121a2565b60005b838110156121f25781810151838201526020016121da565b83811115611e7f5750506000910152565b601f01601f191690565b6003811061221757fe5b50565b61222381612187565b811461221757600080fd5b61222381612192565b61222381612197565b6003811061221757600080fd5b612223816121b8565b612223816121bb56fea365627a7a72315820a2dd55b7c3cb3bb30b9a0950c7e124a61dcef4b7229516265f5d083ed35c18b16c6578706572696d656e74616cf564736f6c63430005100040",
  "devdoc": {
    "methods": {}
  },
  "userdoc": {
    "methods": {},
    "notice": "This is a version of JoeLens that only contains view functions."
  },
  "storageLayout": {
    "storage": [
      {
        "astId": 22001,
        "contract": "contracts/Lens/JoeLensView.sol:JoeLensView",
        "label": "nativeSymbol",
        "offset": 0,
        "slot": "0",
        "type": "t_string_storage"
      }
    ],
    "types": {
      "t_string_storage": {
        "encoding": "bytes",
        "label": "string",
        "numberOfBytes": "32"
      }
    }
  }
}