{
  "address": "0x646E6752c48635C770ec8e8eF4f3EA7d632Eb9e8",
  "abi": [
    {
      "inputs": [
        {
          "internalType": "string",
          "name": "_nativeSymbol",
          "type": "string"
        }
      ],
      "payable": false,
      "stateMutability": "nonpayable",
      "type": "constructor"
    },
    {
      "constant": true,
      "inputs": [
        {
          "internalType": "contract Joetroller",
          "name": "joetroller",
          "type": "address"
        },
        {
          "internalType": "address",
          "name": "account",
          "type": "address"
        }
      ],
      "name": "getAccountLimits",
      "outputs": [
        {
          "components": [
            {
              "internalType": "contract JToken[]",
              "name": "markets",
              "type": "address[]"
            },
            {
              "internalType": "uint256",
              "name": "liquidity",
              "type": "uint256"
            },
            {
              "internalType": "uint256",
              "name": "shortfall",
              "type": "uint256"
            }
          ],
          "internalType": "struct JoeLensView.AccountLimits",
          "name": "",
          "type": "tuple"
        }
      ],
      "payable": false,
      "stateMutability": "view",
      "type": "function"
    },
    {
      "constant": true,
      "inputs": [
        {
          "internalType": "contract JToken",
          "name": "jToken",
          "type": "address"
        },
        {
          "internalType": "address payable",
          "name": "account",
          "type": "address"
        }
      ],
      "name": "jTokenBalances",
      "outputs": [
        {
          "components": [
            {
              "internalType": "address",
              "name": "jToken",
              "type": "address"
            },
            {
              "internalType": "uint256",
              "name": "jTokenBalance",
              "type": "uint256"
            },
            {
              "internalType": "uint256",
              "name": "balanceOfUnderlyingStored",
              "type": "uint256"
            },
            {
              "internalType": "uint256",
              "name": "supplyValueUSD",
              "type": "uint256"
            },
            {
              "internalType": "uint256",
              "name": "collateralValueUSD",
              "type": "uint256"
            },
            {
              "internalType": "uint256",
              "name": "borrowBalanceStored",
              "type": "uint256"
            },
            {
              "internalType": "uint256",
              "name": "borrowValueUSD",
              "type": "uint256"
            },
            {
              "internalType": "uint256",
              "name": "underlyingTokenBalance",
              "type": "uint256"
            },
            {
              "internalType": "uint256",
              "name": "underlyingTokenAllowance",
              "type": "uint256"
            },
            {
              "internalType": "bool",
              "name": "collateralEnabled",
              "type": "bool"
            }
          ],
          "internalType": "struct JoeLensView.JTokenBalances",
          "name": "",
          "type": "tuple"
        }
      ],
      "payable": false,
      "stateMutability": "view",
      "type": "function"
    },
    {
      "constant": true,
      "inputs": [
        {
          "internalType": "contract JToken[]",
          "name": "jTokens",
          "type": "address[]"
        },
        {
          "internalType": "address payable",
          "name": "account",
          "type": "address"
        }
      ],
      "name": "jTokenBalancesAll",
      "outputs": [
        {
          "components": [
            {
              "internalType": "address",
              "name": "jToken",
              "type": "address"
            },
            {
              "internalType": "uint256",
              "name": "jTokenBalance",
              "type": "uint256"
            },
            {
              "internalType": "uint256",
              "name": "balanceOfUnderlyingStored",
              "type": "uint256"
            },
            {
              "internalType": "uint256",
              "name": "supplyValueUSD",
              "type": "uint256"
            },
            {
              "internalType": "uint256",
              "name": "collateralValueUSD",
              "type": "uint256"
            },
            {
              "internalType": "uint256",
              "name": "borrowBalanceStored",
              "type": "uint256"
            },
            {
              "internalType": "uint256",
              "name": "borrowValueUSD",
              "type": "uint256"
            },
            {
              "internalType": "uint256",
              "name": "underlyingTokenBalance",
              "type": "uint256"
            },
            {
              "internalType": "uint256",
              "name": "underlyingTokenAllowance",
              "type": "uint256"
            },
            {
              "internalType": "bool",
              "name": "collateralEnabled",
              "type": "bool"
            }
          ],
          "internalType": "struct JoeLensView.JTokenBalances[]",
          "name": "",
          "type": "tuple[]"
        }
      ],
      "payable": false,
      "stateMutability": "view",
      "type": "function"
    },
    {
      "constant": true,
      "inputs": [
        {
          "internalType": "contract JToken",
          "name": "jToken",
          "type": "address"
        }
      ],
      "name": "jTokenMetadata",
      "outputs": [
        {
          "components": [
            {
              "internalType": "address",
              "name": "jToken",
              "type": "address"
            },
            {
              "internalType": "uint256",
              "name": "exchangeRateStored",
              "type": "uint256"
            },
            {
              "internalType": "uint256",
              "name": "supplyRatePerSecond",
              "type": "uint256"
            },
            {
              "internalType": "uint256",
              "name": "borrowRatePerSecond",
              "type": "uint256"
            },
            {
              "internalType": "uint256",
              "name": "reserveFactorMantissa",
              "type": "uint256"
            },
            {
              "internalType": "uint256",
              "name": "totalBorrows",
              "type": "uint256"
            },
            {
              "internalType": "uint256",
              "name": "totalReserves",
              "type": "uint256"
            },
            {
              "internalType": "uint256",
              "name": "totalSupply",
              "type": "uint256"
            },
            {
              "internalType": "uint256",
              "name": "totalCash",
              "type": "uint256"
            },
            {
              "internalType": "uint256",
              "name": "totalCollateralTokens",
              "type": "uint256"
            },
            {
              "internalType": "bool",
              "name": "isListed",
              "type": "bool"
            },
            {
              "internalType": "uint256",
              "name": "collateralFactorMantissa",
              "type": "uint256"
            },
            {
              "internalType": "address",
              "name": "underlyingAssetAddress",
              "type": "address"
            },
            {
              "internalType": "uint256",
              "name": "jTokenDecimals",
              "type": "uint256"
            },
            {
              "internalType": "uint256",
              "name": "underlyingDecimals",
              "type": "uint256"
            },
            {
              "internalType": "enum JoetrollerV1Storage.Version",
              "name": "version",
              "type": "uint8"
            },
            {
              "internalType": "uint256",
              "name": "collateralCap",
              "type": "uint256"
            },
            {
              "internalType": "uint256",
              "name": "underlyingPrice",
              "type": "uint256"
            },
            {
              "internalType": "bool",
              "name": "supplyPaused",
              "type": "bool"
            },
            {
              "internalType": "bool",
              "name": "borrowPaused",
              "type": "bool"
            },
            {
              "internalType": "uint256",
              "name": "supplyCap",
              "type": "uint256"
            },
            {
              "internalType": "uint256",
              "name": "borrowCap",
              "type": "uint256"
            }
          ],
          "internalType": "struct JoeLensView.JTokenMetadata",
          "name": "",
          "type": "tuple"
        }
      ],
      "payable": false,
      "stateMutability": "view",
      "type": "function"
    },
    {
      "constant": true,
      "inputs": [
        {
          "internalType": "contract JToken[]",
          "name": "jTokens",
          "type": "address[]"
        }
      ],
      "name": "jTokenMetadataAll",
      "outputs": [
        {
          "components": [
            {
              "internalType": "address",
              "name": "jToken",
              "type": "address"
            },
            {
              "internalType": "uint256",
              "name": "exchangeRateStored",
              "type": "uint256"
            },
            {
              "internalType": "uint256",
              "name": "supplyRatePerSecond",
              "type": "uint256"
            },
            {
              "internalType": "uint256",
              "name": "borrowRatePerSecond",
              "type": "uint256"
            },
            {
              "internalType": "uint256",
              "name": "reserveFactorMantissa",
              "type": "uint256"
            },
            {
              "internalType": "uint256",
              "name": "totalBorrows",
              "type": "uint256"
            },
            {
              "internalType": "uint256",
              "name": "totalReserves",
              "type": "uint256"
            },
            {
              "internalType": "uint256",
              "name": "totalSupply",
              "type": "uint256"
            },
            {
              "internalType": "uint256",
              "name": "totalCash",
              "type": "uint256"
            },
            {
              "internalType": "uint256",
              "name": "totalCollateralTokens",
              "type": "uint256"
            },
            {
              "internalType": "bool",
              "name": "isListed",
              "type": "bool"
            },
            {
              "internalType": "uint256",
              "name": "collateralFactorMantissa",
              "type": "uint256"
            },
            {
              "internalType": "address",
              "name": "underlyingAssetAddress",
              "type": "address"
            },
            {
              "internalType": "uint256",
              "name": "jTokenDecimals",
              "type": "uint256"
            },
            {
              "internalType": "uint256",
              "name": "underlyingDecimals",
              "type": "uint256"
            },
            {
              "internalType": "enum JoetrollerV1Storage.Version",
              "name": "version",
              "type": "uint8"
            },
            {
              "internalType": "uint256",
              "name": "collateralCap",
              "type": "uint256"
            },
            {
              "internalType": "uint256",
              "name": "underlyingPrice",
              "type": "uint256"
            },
            {
              "internalType": "bool",
              "name": "supplyPaused",
              "type": "bool"
            },
            {
              "internalType": "bool",
              "name": "borrowPaused",
              "type": "bool"
            },
            {
              "internalType": "uint256",
              "name": "supplyCap",
              "type": "uint256"
            },
            {
              "internalType": "uint256",
              "name": "borrowCap",
              "type": "uint256"
            }
          ],
          "internalType": "struct JoeLensView.JTokenMetadata[]",
          "name": "",
          "type": "tuple[]"
        }
      ],
      "payable": false,
      "stateMutability": "view",
      "type": "function"
    },
    {
      "constant": true,
      "inputs": [],
      "name": "nativeSymbol",
      "outputs": [
        {
          "internalType": "string",
          "name": "",
          "type": "string"
        }
      ],
      "payable": false,
      "stateMutability": "view",
      "type": "function"
    }
  ],
  "transactionHash": "0x3008087854050eb08ad05fb63a48534b17b177e6b9a83798beae592d7ef9521b",
  "args": [
    "jETH"
  ],
  "solcInputHash": "5b370a928567609581695c6376d7af8e",
  "bytecode": "0x60806040523480156200001157600080fd5b50604051620028a9380380620028a9833981016040819052620000349162000152565b80516200004990600090602084019062000051565b505062000214565b828054600181600116156101000203166002900490600052602060002090601f016020900481019282601f106200009457805160ff1916838001178555620000c4565b82800160010185558215620000c4579182015b82811115620000c4578251825591602001919060010190620000a7565b50620000d2929150620000d6565b5090565b620000f391905b80821115620000d25760008155600101620000dd565b90565b600082601f8301126200010857600080fd5b81516200011f6200011982620001b9565b62000192565b915080825260208301602083018583830111156200013c57600080fd5b62000149838284620001e1565b50505092915050565b6000602082840312156200016557600080fd5b81516001600160401b038111156200017c57600080fd5b6200018a84828501620000f6565b949350505050565b6040518181016001600160401b0381118282101715620001b157600080fd5b604052919050565b60006001600160401b03821115620001d057600080fd5b506020601f91909101601f19160190565b60005b83811015620001fe578181015183820152602001620001e4565b838111156200020e576000848401525b50505050565b61268580620002246000396000f3fe608060405234801561001057600080fd5b50600436106100615760003560e01c8062673b0c1461006657806357553afb1461008f5780637dd8f6d9146100af5780637fedad55146100cf57806388613111146100e4578063d9ca3c9c14610104575b600080fd5b610079610074366004611c8d565b610124565b6040516100869190612457565b60405180910390f35b6100a261009d366004611d96565b6101c7565b60405161008691906124c9565b6100c26100bd366004611d96565b610858565b60405161008691906124b8565b6100d7610994565b6040516100869190612487565b6100f76100f2366004611c4b565b610a22565b6040516100869190612468565b610117610112366004611d78565b610cb7565b60405161008691906124d8565b6040805183815260208085028201019091526060908390829082801561016457816020015b610151611962565b8152602001906001900390816101495790505b50905060005b828110156101bb5761019c87878381811061018157fe5b90506020020160206101969190810190611d78565b866101c7565b8282815181106101a857fe5b602090810291909101015260010161016a565b509150505b9392505050565b6101cf611962565b6101d7611962565b6000846001600160a01b0316636330533c6040518163ffffffff1660e01b815260040160206040518083038186803b15801561021257600080fd5b505afa158015610226573d6000803e3d6000fd5b505050506040513d601f19601f8201168201806040525061024a9190810190611dd0565b6001600160a01b03808716845260405163929fe9a160e01b815291925082169063929fe9a190610280908790899060040161243c565b60206040518083038186803b15801561029857600080fd5b505afa1580156102ac573d6000803e3d6000fd5b505050506040513d601f19601f820116820180604052506102d09190810190611d17565b826101200190151590811515815250506103e8856001600160a01b03166395d89b416040518163ffffffff1660e01b815260040160006040518083038186803b15801561031c57600080fd5b505afa158015610330573d6000803e3d6000fd5b505050506040513d6000823e601f3d908101601f191682016040526103589190810190611dee565b6000805460408051602060026001851615610100026000190190941693909304601f810184900484028201840190925281815292918301828280156103de5780601f106103b3576101008083540402835291602001916103de565b820191906000526020600020905b8154815290600101906020018083116103c157829003601f168201915b5050505050610dbe565b1561040a576001600160a01b038416803160e08401523161010083015261058d565b60008590506000816001600160a01b0316636f307dc36040518163ffffffff1660e01b815260040160206040518083038186803b15801561044a57600080fd5b505afa15801561045e573d6000803e3d6000fd5b505050506040513d601f19601f820116820180604052506104829190810190611c2d565b6040516370a0823160e01b81529091506001600160a01b038216906370a08231906104b1908990600401612413565b60206040518083038186803b1580156104c957600080fd5b505afa1580156104dd573d6000803e3d6000fd5b505050506040513d601f19601f820116820180604052506105019190810190611e23565b60e0850152604051636eb1769f60e11b81526001600160a01b0382169063dd62ed3e906105349089908b90600401612421565b60206040518083038186803b15801561054c57600080fd5b505afa158015610560573d6000803e3d6000fd5b505050506040513d601f19601f820116820180604052506105849190810190611e23565b61010085015250505b6040516361bfb47160e11b81526000906001600160a01b0387169063c37f68e2906105bc908890600401612413565b60806040518083038186803b1580156105d457600080fd5b505afa1580156105e8573d6000803e3d6000fd5b505050506040513d601f19601f8201168201806040525061060c9190810190611e84565b60a08701919091526020860191909152915061062890506119c0565b6040518060200160405280838152509050610647818560200151610e17565b8460400181815250506000836001600160a01b0316637dc0d1d06040518163ffffffff1660e01b815260040160206040518083038186803b15801561068b57600080fd5b505afa15801561069f573d6000803e3d6000fd5b505050506040513d601f19601f820116820180604052506106c39190810190611dd0565b90506000816001600160a01b031663fc57d4df8a6040518263ffffffff1660e01b81526004016106f39190612479565b60206040518083038186803b15801561070b57600080fd5b505afa15801561071f573d6000803e3d6000fd5b505050506040513d601f19601f820116820180604052506107439190810190611e23565b90506000856001600160a01b0316638e8f294b8b6040518263ffffffff1660e01b81526004016107739190612405565b60606040518083038186803b15801561078b57600080fd5b505afa15801561079f573d6000803e3d6000fd5b505050506040513d601f19601f820116820180604052506107c39190810190611d35565b509150506107cf6119c0565b50604080516020810182529088015181526107ea8184610e17565b60608901526107f76119c0565b6040518060200160405280848152509050610816818a60600151610e17565b60808a01526108236119c0565b50604080516020810190915260a08a015181526108408186610e17565b60c08b01525097985050505050505050505b92915050565b6108606119d3565b6000806000856001600160a01b0316635ec88c79866040518263ffffffff1660e01b81526004016108919190612405565b60606040518083038186803b1580156108a957600080fd5b505afa1580156108bd573d6000803e3d6000fd5b505050506040513d601f19601f820116820180604052506108e19190810190611e41565b925092509250826000146108f457600080fd5b604080516060810191829052632aff3bff60e21b909152806001600160a01b03881663abfceffc6109288960648501612405565b60006040518083038186803b15801561094057600080fd5b505afa158015610954573d6000803e3d6000fd5b505050506040513d6000823e601f3d908101601f1916820160405261097c9190810190611ce2565b81526020810193909352604090920152949350505050565b6000805460408051602060026001851615610100026000190190941693909304601f81018490048402820184019092528181529291830182828015610a1a5780601f106109ef57610100808354040283529160200191610a1a565b820191906000526020600020905b8154815290600101906020018083116109fd57829003601f168201915b505050505081565b60608180610a4b5760405162461bcd60e51b8152600401610a42906124a8565b60405180910390fd5b606081604051908082528060200260200182016040528015610a8757816020015b610a746119f4565b815260200190600190039081610a6c5790505b509050600085856000818110610a9957fe5b9050602002016020610aae9190810190611d78565b6001600160a01b0316636330533c6040518163ffffffff1660e01b815260040160206040518083038186803b158015610ae657600080fd5b505afa158015610afa573d6000803e3d6000fd5b505050506040513d601f19601f82011682018060405250610b1e9190810190611dd0565b90506000816001600160a01b0316637dc0d1d06040518163ffffffff1660e01b815260040160206040518083038186803b158015610b5b57600080fd5b505afa158015610b6f573d6000803e3d6000fd5b505050506040513d601f19601f82011682018060405250610b939190810190611dd0565b905060005b84811015610cab57878782818110610bac57fe5b9050602002016020610bc19190810190611d78565b6001600160a01b0316636330533c6040518163ffffffff1660e01b815260040160206040518083038186803b158015610bf957600080fd5b505afa158015610c0d573d6000803e3d6000fd5b505050506040513d601f19601f82011682018060405250610c319190810190611dd0565b6001600160a01b0316836001600160a01b031614610c615760405162461bcd60e51b8152600401610a4290612498565b610c8c888883818110610c7057fe5b9050602002016020610c859190810190611d78565b8484610e3e565b848281518110610c9857fe5b6020908102919091010152600101610b98565b50919695505050505050565b610cbf6119f4565b6000826001600160a01b0316636330533c6040518163ffffffff1660e01b815260040160206040518083038186803b158015610cfa57600080fd5b505afa158015610d0e573d6000803e3d6000fd5b505050506040513d601f19601f82011682018060405250610d329190810190611dd0565b90506000816001600160a01b0316637dc0d1d06040518163ffffffff1660e01b815260040160206040518083038186803b158015610d6f57600080fd5b505afa158015610d83573d6000803e3d6000fd5b505050506040513d601f19601f82011682018060405250610da79190810190611dd0565b9050610db4848383610e3e565b925050505b919050565b600081604051602001610dd191906123f9565b6040516020818303038152906040528051906020012083604051602001610df891906123f9565b6040516020818303038152906040528051906020012014905092915050565b6000610e216119c0565b610e2b848461189b565b9050610e36816118c5565b949350505050565b610e466119f4565b6000846001600160a01b031663182df0f56040518163ffffffff1660e01b815260040160206040518083038186803b158015610e8157600080fd5b505afa158015610e95573d6000803e3d6000fd5b505050506040513d601f19601f82011682018060405250610eb99190810190611e23565b90506000806000866001600160a01b0316638e8f294b896040518263ffffffff1660e01b8152600401610eec9190612405565b60606040518083038186803b158015610f0457600080fd5b505afa158015610f18573d6000803e3d6000fd5b505050506040513d601f19601f82011682018060405250610f3c9190810190611d35565b925092509250600080600080610f848c6001600160a01b03166395d89b416040518163ffffffff1660e01b815260040160006040518083038186803b15801561031c57600080fd5b15610f965760009350601292506110f6565b60008c9050806001600160a01b0316636f307dc36040518163ffffffff1660e01b815260040160206040518083038186803b158015610fd457600080fd5b505afa158015610fe8573d6000803e3d6000fd5b505050506040513d601f19601f8201168201806040525061100c9190810190611c2d565b9450806001600160a01b0316636f307dc36040518163ffffffff1660e01b815260040160206040518083038186803b15801561104757600080fd5b505afa15801561105b573d6000803e3d6000fd5b505050506040513d601f19601f8201168201806040525061107f9190810190611c2d565b6001600160a01b031663313ce5676040518163ffffffff1660e01b815260040160206040518083038186803b1580156110b757600080fd5b505afa1580156110cb573d6000803e3d6000fd5b505050506040513d601f19601f820116820180604052506110ef9190810190611ee5565b60ff169350505b600185600281111561110457fe5b14156111f1578b6001600160a01b031663d2bb18e96040518163ffffffff1660e01b815260040160206040518083038186803b15801561114357600080fd5b505afa158015611157573d6000803e3d6000fd5b505050506040513d601f19601f8201168201806040525061117b9190810190611e23565b91508b6001600160a01b03166319a4dd3c6040518163ffffffff1660e01b815260040160206040518083038186803b1580156111b657600080fd5b505afa1580156111ca573d6000803e3d6000fd5b505050506040513d601f19601f820116820180604052506111ee9190810190611e23565b90505b604051806102c001604052808d6001600160a01b031681526020018981526020018d6001600160a01b031663b1d389746040518163ffffffff1660e01b815260040160206040518083038186803b15801561124b57600080fd5b505afa15801561125f573d6000803e3d6000fd5b505050506040513d601f19601f820116820180604052506112839190810190611e23565b81526020018d6001600160a01b031663526097506040518163ffffffff1660e01b815260040160206040518083038186803b1580156112c157600080fd5b505afa1580156112d5573d6000803e3d6000fd5b505050506040513d601f19601f820116820180604052506112f99190810190611e23565b81526020018d6001600160a01b031663173b99046040518163ffffffff1660e01b815260040160206040518083038186803b15801561133757600080fd5b505afa15801561134b573d6000803e3d6000fd5b505050506040513d601f19601f8201168201806040525061136f9190810190611e23565b81526020018d6001600160a01b03166347bd37186040518163ffffffff1660e01b815260040160206040518083038186803b1580156113ad57600080fd5b505afa1580156113c1573d6000803e3d6000fd5b505050506040513d601f19601f820116820180604052506113e59190810190611e23565b81526020018d6001600160a01b0316638f840ddd6040518163ffffffff1660e01b815260040160206040518083038186803b15801561142357600080fd5b505afa158015611437573d6000803e3d6000fd5b505050506040513d601f19601f8201168201806040525061145b9190810190611e23565b81526020018d6001600160a01b03166318160ddd6040518163ffffffff1660e01b815260040160206040518083038186803b15801561149957600080fd5b505afa1580156114ad573d6000803e3d6000fd5b505050506040513d601f19601f820116820180604052506114d19190810190611e23565b81526020018d6001600160a01b0316633b1d21a26040518163ffffffff1660e01b815260040160206040518083038186803b15801561150f57600080fd5b505afa158015611523573d6000803e3d6000fd5b505050506040513d601f19601f820116820180604052506115479190810190611e23565b81526020018281526020018815158152602001878152602001856001600160a01b031681526020018d6001600160a01b031663313ce5676040518163ffffffff1660e01b815260040160206040518083038186803b1580156115a857600080fd5b505afa1580156115bc573d6000803e3d6000fd5b505050506040513d601f19601f820116820180604052506115e09190810190611ee5565b60ff1681526020018481526020018660028111156115fa57fe5b81526020018381526020018b6001600160a01b031663fc57d4df8f6040518263ffffffff1660e01b81526004016116319190612479565b60206040518083038186803b15801561164957600080fd5b505afa15801561165d573d6000803e3d6000fd5b505050506040513d601f19601f820116820180604052506116819190810190611e23565b81526020018c6001600160a01b031663731f0c2b8f6040518263ffffffff1660e01b81526004016116b29190612405565b60206040518083038186803b1580156116ca57600080fd5b505afa1580156116de573d6000803e3d6000fd5b505050506040513d601f19601f820116820180604052506117029190810190611d17565b151581526020018c6001600160a01b0316636d154ea58f6040518263ffffffff1660e01b81526004016117359190612405565b60206040518083038186803b15801561174d57600080fd5b505afa158015611761573d6000803e3d6000fd5b505050506040513d601f19601f820116820180604052506117859190810190611d17565b151581526020018c6001600160a01b03166302c3bcbb8f6040518263ffffffff1660e01b81526004016117b89190612405565b60206040518083038186803b1580156117d057600080fd5b505afa1580156117e4573d6000803e3d6000fd5b505050506040513d601f19601f820116820180604052506118089190810190611e23565b81526020018c6001600160a01b0316634a5844328f6040518263ffffffff1660e01b81526004016118399190612405565b60206040518083038186803b15801561185157600080fd5b505afa158015611865573d6000803e3d6000fd5b505050506040513d601f19601f820116820180604052506118899190810190611e23565b90529c9b505050505050505050505050565b6118a36119c0565b60405180602001604052806118bc8560000151856118d4565b90529392505050565b51670de0b6b3a7640000900490565b60006101c083836040518060400160405280601781526020017f6d756c7469706c69636174696f6e206f766572666c6f77000000000000000000815250600083158061191e575082155b1561192b575060006101c0565b8383028385828161193857fe5b041483906119595760405162461bcd60e51b8152600401610a429190612487565b50949350505050565b60405180610140016040528060006001600160a01b0316815260200160008152602001600081526020016000815260200160008152602001600081526020016000815260200160008152602001600081526020016000151581525090565b6040518060200160405280600081525090565b60405180606001604052806060815260200160008152602001600081525090565b604051806102c0016040528060006001600160a01b031681526020016000815260200160008152602001600081526020016000815260200160008152602001600081526020016000815260200160008152602001600081526020016000151581526020016000815260200160006001600160a01b03168152602001600081526020016000815260200160006002811115611a8a57fe5b8152602001600081526020016000815260200160001515815260200160001515815260200160008152602001600081525090565b8035610852816125fd565b8051610852816125fd565b60008083601f840112611ae657600080fd5b50813567ffffffffffffffff811115611afe57600080fd5b602083019150836020820283011115611b1657600080fd5b9250929050565b600082601f830112611b2e57600080fd5b8151611b41611b3c8261250e565b6124e7565b91508181835260208401935060208101905083856020840282011115611b6657600080fd5b60005b83811015611b925781611b7c8882611bb2565b8452506020928301929190910190600101611b69565b5050505092915050565b805161085281612611565b80356108528161261a565b80516108528161261a565b805161085281612623565b600082601f830112611bd957600080fd5b8151611be7611b3c8261252f565b91508082526020830160208301858383011115611c0357600080fd5b611c0e8382846125ba565b50505092915050565b805161085281612630565b805161085281612639565b600060208284031215611c3f57600080fd5b6000610e368484611ac9565b60008060208385031215611c5e57600080fd5b823567ffffffffffffffff811115611c7557600080fd5b611c8185828601611ad4565b92509250509250929050565b600080600060408486031215611ca257600080fd5b833567ffffffffffffffff811115611cb957600080fd5b611cc586828701611ad4565b93509350506020611cd886828701611abe565b9150509250925092565b600060208284031215611cf457600080fd5b815167ffffffffffffffff811115611d0b57600080fd5b610e3684828501611b1d565b600060208284031215611d2957600080fd5b6000610e368484611b9c565b600080600060608486031215611d4a57600080fd5b6000611d568686611b9c565b9350506020611d6786828701611c17565b9250506040611cd886828701611bbd565b600060208284031215611d8a57600080fd5b6000610e368484611ba7565b60008060408385031215611da957600080fd5b6000611db58585611ba7565b9250506020611dc685828601611abe565b9150509250929050565b600060208284031215611de257600080fd5b6000610e368484611bb2565b600060208284031215611e0057600080fd5b815167ffffffffffffffff811115611e1757600080fd5b610e3684828501611bc8565b600060208284031215611e3557600080fd5b6000610e368484611c17565b600080600060608486031215611e5657600080fd5b6000611e628686611c17565b9350506020611e7386828701611c17565b9250506040611cd886828701611c17565b60008060008060808587031215611e9a57600080fd5b6000611ea68787611c17565b9450506020611eb787828801611c17565b9350506040611ec887828801611c17565b9250506060611ed987828801611c17565b91505092959194509250565b600060208284031215611ef757600080fd5b6000610e368484611c22565b6000611f0f8383612057565b505060200190565b6000611f238383612170565b50506101400190565b6000611f388383612237565b50506102c00190565b611f4a816125a4565b82525050565b611f4a8161256a565b6000611f648261255d565b611f6e8185612561565b9350611f7983612557565b8060005b83811015611fa7578151611f918882611f03565b9750611f9c83612557565b925050600101611f7d565b509495945050505050565b6000611fbd8261255d565b611fc78185612561565b9350611fd283612557565b8060005b83811015611fa7578151611fea8882611f17565b9750611ff583612557565b925050600101611fd6565b600061200b8261255d565b6120158185612561565b935061202083612557565b8060005b83811015611fa75781516120388882611f2c565b975061204383612557565b925050600101612024565b611f4a81612575565b611f4a8161257a565b611f4a816125af565b60006120748261255d565b61207e8185612561565b935061208e8185602086016125ba565b612097816125e6565b9093019392505050565b60006120ac8261255d565b6120b68185610db9565b93506120c68185602086016125ba565b9290920192915050565b60006120dd601383612561565b7236b4b9b6b0ba31b4103537b2ba3937b63632b960691b815260200192915050565b600061210c600d83612561565b6c1a5b9d985b1a59081a5b9c1d5d609a1b815260200192915050565b80516060808452600091908401906121408282611f59565b915050602083015161215560208601826123f0565b50604083015161216860408601826123f0565b509392505050565b80516101408301906121828482611f50565b50602082015161219560208501826123f0565b5060408201516121a860408501826123f0565b5060608201516121bb60608501826123f0565b5060808201516121ce60808501826123f0565b5060a08201516121e160a08501826123f0565b5060c08201516121f460c08501826123f0565b5060e082015161220760e08501826123f0565b5061010082015161221c6101008501826123f0565b5061012082015161223161012085018261204e565b50505050565b80516102c08301906122498482611f50565b50602082015161225c60208501826123f0565b50604082015161226f60408501826123f0565b50606082015161228260608501826123f0565b50608082015161229560808501826123f0565b5060a08201516122a860a08501826123f0565b5060c08201516122bb60c08501826123f0565b5060e08201516122ce60e08501826123f0565b506101008201516122e36101008501826123f0565b506101208201516122f86101208501826123f0565b5061014082015161230d61014085018261204e565b506101608201516123226101608501826123f0565b50610180820151612337610180850182611f50565b506101a082015161234c6101a08501826123f0565b506101c08201516123616101c08501826123f0565b506101e08201516123766101e0850182612060565b5061020082015161238b6102008501826123f0565b506102208201516123a06102208501826123f0565b506102408201516123b561024085018261204e565b506102608201516123ca61026085018261204e565b506102808201516123df6102808501826123f0565b506102a08201516122316102a08501825b611f4a8161259b565b60006101c082846120a1565b602081016108528284611f50565b602081016108528284611f41565b6040810161242f8285611f41565b6101c06020830184611f50565b6040810161244a8285611f41565b6101c06020830184612057565b602080825281016101c08184611fb2565b602080825281016101c08184612000565b602081016108528284612057565b602080825281016101c08184612069565b60208082528101610852816120d0565b60208082528101610852816120ff565b602080825281016101c08184612128565b61014081016108528284612170565b6102c081016108528284612237565b60405181810167ffffffffffffffff8111828210171561250657600080fd5b604052919050565b600067ffffffffffffffff82111561252557600080fd5b5060209081020190565b600067ffffffffffffffff82111561254657600080fd5b506020601f91909101601f19160190565b60200190565b5190565b90815260200190565b60006108528261258f565b151590565b60006108528261256a565b80610db9816125f0565b6001600160a01b031690565b90565b60ff1690565b60006108528261257a565b600061085282612585565b60005b838110156125d55781810151838201526020016125bd565b838111156122315750506000910152565b601f01601f191690565b600381106125fa57fe5b50565b6126068161256a565b81146125fa57600080fd5b61260681612575565b6126068161257a565b600381106125fa57600080fd5b6126068161259b565b6126068161259e56fea365627a7a72315820b5d99cafbb358f609879c6fb65d653d66036123f3eb874b8afa6788c8bdb65126c6578706572696d656e74616cf564736f6c63430005100040",
  "devdoc": {
    "methods": {}
  },
  "userdoc": {
    "methods": {},
    "notice": "This is a version of JoeLens that only contains view functions."
  },
  "storageLayout": {
    "storage": [
      {
        "astId": 21979,
        "contract": "contracts/Lens/JoeLensView.sol:JoeLensView",
        "label": "nativeSymbol",
        "offset": 0,
        "slot": "0",
        "type": "t_string_storage"
      }
    ],
    "types": {
      "t_string_storage": {
        "encoding": "bytes",
        "label": "string",
        "numberOfBytes": "32"
      }
    }
  }
}