{
  "address": "0x33b1D6411A1be06d43Fa9519B57AaEB68fFC21A1",
  "abi": [
    {
      "inputs": [],
      "payable": false,
      "stateMutability": "nonpayable",
      "type": "constructor"
    },
    {
      "anonymous": false,
      "inputs": [
        {
          "indexed": false,
          "internalType": "string",
          "name": "action",
          "type": "string"
        },
        {
          "indexed": false,
          "internalType": "bool",
          "name": "pauseState",
          "type": "bool"
        }
      ],
      "name": "ActionPaused",
      "type": "event"
    },
    {
      "anonymous": false,
      "inputs": [
        {
          "indexed": false,
          "internalType": "contract JToken",
          "name": "jToken",
          "type": "address"
        },
        {
          "indexed": false,
          "internalType": "string",
          "name": "action",
          "type": "string"
        },
        {
          "indexed": false,
          "internalType": "bool",
          "name": "pauseState",
          "type": "bool"
        }
      ],
      "name": "ActionPaused",
      "type": "event"
    },
    {
      "anonymous": false,
      "inputs": [
        {
          "indexed": false,
          "internalType": "address",
          "name": "protocol",
          "type": "address"
        },
        {
          "indexed": false,
          "internalType": "uint256",
          "name": "creditLimit",
          "type": "uint256"
        }
      ],
      "name": "CreditLimitChanged",
      "type": "event"
    },
    {
      "anonymous": false,
      "inputs": [
        {
          "indexed": false,
          "internalType": "uint256",
          "name": "error",
          "type": "uint256"
        },
        {
          "indexed": false,
          "internalType": "uint256",
          "name": "info",
          "type": "uint256"
        },
        {
          "indexed": false,
          "internalType": "uint256",
          "name": "detail",
          "type": "uint256"
        }
      ],
      "name": "Failure",
      "type": "event"
    },
    {
      "anonymous": false,
      "inputs": [
        {
          "indexed": false,
          "internalType": "contract JToken",
          "name": "jToken",
          "type": "address"
        }
      ],
      "name": "MarketDelisted",
      "type": "event"
    },
    {
      "anonymous": false,
      "inputs": [
        {
          "indexed": false,
          "internalType": "contract JToken",
          "name": "jToken",
          "type": "address"
        },
        {
          "indexed": false,
          "internalType": "address",
          "name": "account",
          "type": "address"
        }
      ],
      "name": "MarketEntered",
      "type": "event"
    },
    {
      "anonymous": false,
      "inputs": [
        {
          "indexed": false,
          "internalType": "contract JToken",
          "name": "jToken",
          "type": "address"
        },
        {
          "indexed": false,
          "internalType": "address",
          "name": "account",
          "type": "address"
        }
      ],
      "name": "MarketExited",
      "type": "event"
    },
    {
      "anonymous": false,
      "inputs": [
        {
          "indexed": false,
          "internalType": "contract JToken",
          "name": "jToken",
          "type": "address"
        }
      ],
      "name": "MarketListed",
      "type": "event"
    },
    {
      "anonymous": false,
      "inputs": [
        {
          "indexed": true,
          "internalType": "contract JToken",
          "name": "jToken",
          "type": "address"
        },
        {
          "indexed": false,
          "internalType": "uint256",
          "name": "newBorrowCap",
          "type": "uint256"
        }
      ],
      "name": "NewBorrowCap",
      "type": "event"
    },
    {
      "anonymous": false,
      "inputs": [
        {
          "indexed": false,
          "internalType": "address",
          "name": "oldBorrowCapGuardian",
          "type": "address"
        },
        {
          "indexed": false,
          "internalType": "address",
          "name": "newBorrowCapGuardian",
          "type": "address"
        }
      ],
      "name": "NewBorrowCapGuardian",
      "type": "event"
    },
    {
      "anonymous": false,
      "inputs": [
        {
          "indexed": false,
          "internalType": "uint256",
          "name": "oldCloseFactorMantissa",
          "type": "uint256"
        },
        {
          "indexed": false,
          "internalType": "uint256",
          "name": "newCloseFactorMantissa",
          "type": "uint256"
        }
      ],
      "name": "NewCloseFactor",
      "type": "event"
    },
    {
      "anonymous": false,
      "inputs": [
        {
          "indexed": false,
          "internalType": "contract JToken",
          "name": "jToken",
          "type": "address"
        },
        {
          "indexed": false,
          "internalType": "uint256",
          "name": "oldCollateralFactorMantissa",
          "type": "uint256"
        },
        {
          "indexed": false,
          "internalType": "uint256",
          "name": "newCollateralFactorMantissa",
          "type": "uint256"
        }
      ],
      "name": "NewCollateralFactor",
      "type": "event"
    },
    {
      "anonymous": false,
      "inputs": [
        {
          "indexed": false,
          "internalType": "contract JToken",
          "name": "jToken",
          "type": "address"
        },
        {
          "indexed": false,
          "internalType": "enum JoetrollerV1Storage.Version",
          "name": "oldVersion",
          "type": "uint8"
        },
        {
          "indexed": false,
          "internalType": "enum JoetrollerV1Storage.Version",
          "name": "newVersion",
          "type": "uint8"
        }
      ],
      "name": "NewJTokenVersion",
      "type": "event"
    },
    {
      "anonymous": false,
      "inputs": [
        {
          "indexed": false,
          "internalType": "uint256",
          "name": "oldLiquidationIncentiveMantissa",
          "type": "uint256"
        },
        {
          "indexed": false,
          "internalType": "uint256",
          "name": "newLiquidationIncentiveMantissa",
          "type": "uint256"
        }
      ],
      "name": "NewLiquidationIncentive",
      "type": "event"
    },
    {
      "anonymous": false,
      "inputs": [
        {
          "indexed": false,
          "internalType": "address",
          "name": "oldPauseGuardian",
          "type": "address"
        },
        {
          "indexed": false,
          "internalType": "address",
          "name": "newPauseGuardian",
          "type": "address"
        }
      ],
      "name": "NewPauseGuardian",
      "type": "event"
    },
    {
      "anonymous": false,
      "inputs": [
        {
          "indexed": false,
          "internalType": "contract PriceOracle",
          "name": "oldPriceOracle",
          "type": "address"
        },
        {
          "indexed": false,
          "internalType": "contract PriceOracle",
          "name": "newPriceOracle",
          "type": "address"
        }
      ],
      "name": "NewPriceOracle",
      "type": "event"
    },
    {
      "anonymous": false,
      "inputs": [
        {
          "indexed": true,
          "internalType": "contract JToken",
          "name": "jToken",
          "type": "address"
        },
        {
          "indexed": false,
          "internalType": "uint256",
          "name": "newSupplyCap",
          "type": "uint256"
        }
      ],
      "name": "NewSupplyCap",
      "type": "event"
    },
    {
      "anonymous": false,
      "inputs": [
        {
          "indexed": false,
          "internalType": "address",
          "name": "oldSupplyCapGuardian",
          "type": "address"
        },
        {
          "indexed": false,
          "internalType": "address",
          "name": "newSupplyCapGuardian",
          "type": "address"
        }
      ],
      "name": "NewSupplyCapGuardian",
      "type": "event"
    },
    {
      "constant": false,
      "inputs": [
        {
          "internalType": "contract Unitroller",
          "name": "unitroller",
          "type": "address"
        }
      ],
      "name": "_become",
      "outputs": [],
      "payable": false,
      "stateMutability": "nonpayable",
      "type": "function"
    },
    {
      "constant": true,
      "inputs": [],
      "name": "_borrowGuardianPaused",
      "outputs": [
        {
          "internalType": "bool",
          "name": "",
          "type": "bool"
        }
      ],
      "payable": false,
      "stateMutability": "view",
      "type": "function"
    },
    {
      "constant": false,
      "inputs": [
        {
          "internalType": "contract JToken",
          "name": "jToken",
          "type": "address"
        }
      ],
      "name": "_delistMarket",
      "outputs": [],
      "payable": false,
      "stateMutability": "nonpayable",
      "type": "function"
    },
    {
      "constant": true,
      "inputs": [],
      "name": "_mintGuardianPaused",
      "outputs": [
        {
          "internalType": "bool",
          "name": "",
          "type": "bool"
        }
      ],
      "payable": false,
      "stateMutability": "view",
      "type": "function"
    },
    {
      "constant": false,
      "inputs": [
        {
          "internalType": "address",
          "name": "newBorrowCapGuardian",
          "type": "address"
        }
      ],
      "name": "_setBorrowCapGuardian",
      "outputs": [],
      "payable": false,
      "stateMutability": "nonpayable",
      "type": "function"
    },
    {
      "constant": false,
      "inputs": [
        {
          "internalType": "contract JToken",
          "name": "jToken",
          "type": "address"
        },
        {
          "internalType": "bool",
          "name": "state",
          "type": "bool"
        }
      ],
      "name": "_setBorrowPaused",
      "outputs": [
        {
          "internalType": "bool",
          "name": "",
          "type": "bool"
        }
      ],
      "payable": false,
      "stateMutability": "nonpayable",
      "type": "function"
    },
    {
      "constant": false,
      "inputs": [
        {
          "internalType": "uint256",
          "name": "newCloseFactorMantissa",
          "type": "uint256"
        }
      ],
      "name": "_setCloseFactor",
      "outputs": [
        {
          "internalType": "uint256",
          "name": "",
          "type": "uint256"
        }
      ],
      "payable": false,
      "stateMutability": "nonpayable",
      "type": "function"
    },
    {
      "constant": false,
      "inputs": [
        {
          "internalType": "contract JToken",
          "name": "jToken",
          "type": "address"
        },
        {
          "internalType": "uint256",
          "name": "newCollateralFactorMantissa",
          "type": "uint256"
        }
      ],
      "name": "_setCollateralFactor",
      "outputs": [
        {
          "internalType": "uint256",
          "name": "",
          "type": "uint256"
        }
      ],
      "payable": false,
      "stateMutability": "nonpayable",
      "type": "function"
    },
    {
      "constant": false,
      "inputs": [
        {
          "internalType": "address",
          "name": "protocol",
          "type": "address"
        },
        {
          "internalType": "uint256",
          "name": "creditLimit",
          "type": "uint256"
        }
      ],
      "name": "_setCreditLimit",
      "outputs": [],
      "payable": false,
      "stateMutability": "nonpayable",
      "type": "function"
    },
    {
      "constant": false,
      "inputs": [
        {
          "internalType": "contract JToken",
          "name": "jToken",
          "type": "address"
        },
        {
          "internalType": "bool",
          "name": "state",
          "type": "bool"
        }
      ],
      "name": "_setFlashloanPaused",
      "outputs": [
        {
          "internalType": "bool",
          "name": "",
          "type": "bool"
        }
      ],
      "payable": false,
      "stateMutability": "nonpayable",
      "type": "function"
    },
    {
      "constant": false,
      "inputs": [
        {
          "internalType": "uint256",
          "name": "newLiquidationIncentiveMantissa",
          "type": "uint256"
        }
      ],
      "name": "_setLiquidationIncentive",
      "outputs": [
        {
          "internalType": "uint256",
          "name": "",
          "type": "uint256"
        }
      ],
      "payable": false,
      "stateMutability": "nonpayable",
      "type": "function"
    },
    {
      "constant": false,
      "inputs": [
        {
          "internalType": "contract JToken[]",
          "name": "jTokens",
          "type": "address[]"
        },
        {
          "internalType": "uint256[]",
          "name": "newBorrowCaps",
          "type": "uint256[]"
        }
      ],
      "name": "_setMarketBorrowCaps",
      "outputs": [],
      "payable": false,
      "stateMutability": "nonpayable",
      "type": "function"
    },
    {
      "constant": false,
      "inputs": [
        {
          "internalType": "contract JToken[]",
          "name": "jTokens",
          "type": "address[]"
        },
        {
          "internalType": "uint256[]",
          "name": "newSupplyCaps",
          "type": "uint256[]"
        }
      ],
      "name": "_setMarketSupplyCaps",
      "outputs": [],
      "payable": false,
      "stateMutability": "nonpayable",
      "type": "function"
    },
    {
      "constant": false,
      "inputs": [
        {
          "internalType": "contract JToken",
          "name": "jToken",
          "type": "address"
        },
        {
          "internalType": "bool",
          "name": "state",
          "type": "bool"
        }
      ],
      "name": "_setMintPaused",
      "outputs": [
        {
          "internalType": "bool",
          "name": "",
          "type": "bool"
        }
      ],
      "payable": false,
      "stateMutability": "nonpayable",
      "type": "function"
    },
    {
      "constant": false,
      "inputs": [
        {
          "internalType": "address",
          "name": "newPauseGuardian",
          "type": "address"
        }
      ],
      "name": "_setPauseGuardian",
      "outputs": [
        {
          "internalType": "uint256",
          "name": "",
          "type": "uint256"
        }
      ],
      "payable": false,
      "stateMutability": "nonpayable",
      "type": "function"
    },
    {
      "constant": false,
      "inputs": [
        {
          "internalType": "contract PriceOracle",
          "name": "newOracle",
          "type": "address"
        }
      ],
      "name": "_setPriceOracle",
      "outputs": [
        {
          "internalType": "uint256",
          "name": "",
          "type": "uint256"
        }
      ],
      "payable": false,
      "stateMutability": "nonpayable",
      "type": "function"
    },
    {
      "constant": false,
      "inputs": [
        {
          "internalType": "address payable",
          "name": "newRewardDistributor",
          "type": "address"
        }
      ],
      "name": "_setRewardDistributor",
      "outputs": [
        {
          "internalType": "uint256",
          "name": "",
          "type": "uint256"
        }
      ],
      "payable": false,
      "stateMutability": "nonpayable",
      "type": "function"
    },
    {
      "constant": false,
      "inputs": [
        {
          "internalType": "bool",
          "name": "state",
          "type": "bool"
        }
      ],
      "name": "_setSeizePaused",
      "outputs": [
        {
          "internalType": "bool",
          "name": "",
          "type": "bool"
        }
      ],
      "payable": false,
      "stateMutability": "nonpayable",
      "type": "function"
    },
    {
      "constant": false,
      "inputs": [
        {
          "internalType": "address",
          "name": "newSupplyCapGuardian",
          "type": "address"
        }
      ],
      "name": "_setSupplyCapGuardian",
      "outputs": [],
      "payable": false,
      "stateMutability": "nonpayable",
      "type": "function"
    },
    {
      "constant": false,
      "inputs": [
        {
          "internalType": "bool",
          "name": "state",
          "type": "bool"
        }
      ],
      "name": "_setTransferPaused",
      "outputs": [
        {
          "internalType": "bool",
          "name": "",
          "type": "bool"
        }
      ],
      "payable": false,
      "stateMutability": "nonpayable",
      "type": "function"
    },
    {
      "constant": false,
      "inputs": [
        {
          "internalType": "contract JToken",
          "name": "jToken",
          "type": "address"
        },
        {
          "internalType": "enum JoetrollerV1Storage.Version",
          "name": "version",
          "type": "uint8"
        }
      ],
      "name": "_supportMarket",
      "outputs": [
        {
          "internalType": "uint256",
          "name": "",
          "type": "uint256"
        }
      ],
      "payable": false,
      "stateMutability": "nonpayable",
      "type": "function"
    },
    {
      "constant": true,
      "inputs": [
        {
          "internalType": "address",
          "name": "",
          "type": "address"
        },
        {
          "internalType": "uint256",
          "name": "",
          "type": "uint256"
        }
      ],
      "name": "accountAssets",
      "outputs": [
        {
          "internalType": "contract JToken",
          "name": "",
          "type": "address"
        }
      ],
      "payable": false,
      "stateMutability": "view",
      "type": "function"
    },
    {
      "constant": true,
      "inputs": [],
      "name": "admin",
      "outputs": [
        {
          "internalType": "address",
          "name": "",
          "type": "address"
        }
      ],
      "payable": false,
      "stateMutability": "view",
      "type": "function"
    },
    {
      "constant": true,
      "inputs": [
        {
          "internalType": "uint256",
          "name": "",
          "type": "uint256"
        }
      ],
      "name": "allMarkets",
      "outputs": [
        {
          "internalType": "contract JToken",
          "name": "",
          "type": "address"
        }
      ],
      "payable": false,
      "stateMutability": "view",
      "type": "function"
    },
    {
      "constant": false,
      "inputs": [
        {
          "internalType": "address",
          "name": "jToken",
          "type": "address"
        },
        {
          "internalType": "address",
          "name": "borrower",
          "type": "address"
        },
        {
          "internalType": "uint256",
          "name": "borrowAmount",
          "type": "uint256"
        }
      ],
      "name": "borrowAllowed",
      "outputs": [
        {
          "internalType": "uint256",
          "name": "",
          "type": "uint256"
        }
      ],
      "payable": false,
      "stateMutability": "nonpayable",
      "type": "function"
    },
    {
      "constant": true,
      "inputs": [],
      "name": "borrowCapGuardian",
      "outputs": [
        {
          "internalType": "address",
          "name": "",
          "type": "address"
        }
      ],
      "payable": false,
      "stateMutability": "view",
      "type": "function"
    },
    {
      "constant": true,
      "inputs": [
        {
          "internalType": "address",
          "name": "",
          "type": "address"
        }
      ],
      "name": "borrowCaps",
      "outputs": [
        {
          "internalType": "uint256",
          "name": "",
          "type": "uint256"
        }
      ],
      "payable": false,
      "stateMutability": "view",
      "type": "function"
    },
    {
      "constant": true,
      "inputs": [
        {
          "internalType": "address",
          "name": "",
          "type": "address"
        }
      ],
      "name": "borrowGuardianPaused",
      "outputs": [
        {
          "internalType": "bool",
          "name": "",
          "type": "bool"
        }
      ],
      "payable": false,
      "stateMutability": "view",
      "type": "function"
    },
    {
      "constant": false,
      "inputs": [
        {
          "internalType": "address",
          "name": "jToken",
          "type": "address"
        },
        {
          "internalType": "address",
          "name": "borrower",
          "type": "address"
        },
        {
          "internalType": "uint256",
          "name": "borrowAmount",
          "type": "uint256"
        }
      ],
      "name": "borrowVerify",
      "outputs": [],
      "payable": false,
      "stateMutability": "nonpayable",
      "type": "function"
    },
    {
      "constant": true,
      "inputs": [
        {
          "internalType": "address",
          "name": "account",
          "type": "address"
        },
        {
          "internalType": "contract JToken",
          "name": "jToken",
          "type": "address"
        }
      ],
      "name": "checkMembership",
      "outputs": [
        {
          "internalType": "bool",
          "name": "",
          "type": "bool"
        }
      ],
      "payable": false,
      "stateMutability": "view",
      "type": "function"
    },
    {
      "constant": false,
      "inputs": [
        {
          "internalType": "uint8",
          "name": "rewardType",
          "type": "uint8"
        },
        {
          "internalType": "address payable",
          "name": "holder",
          "type": "address"
        }
      ],
      "name": "claimReward",
      "outputs": [],
      "payable": false,
      "stateMutability": "nonpayable",
      "type": "function"
    },
    {
      "constant": false,
      "inputs": [
        {
          "internalType": "uint8",
          "name": "rewardType",
          "type": "uint8"
        },
        {
          "internalType": "address payable",
          "name": "holder",
          "type": "address"
        },
        {
          "internalType": "contract JToken[]",
          "name": "jTokens",
          "type": "address[]"
        }
      ],
      "name": "claimReward",
      "outputs": [],
      "payable": false,
      "stateMutability": "nonpayable",
      "type": "function"
    },
    {
      "constant": false,
      "inputs": [
        {
          "internalType": "uint8",
          "name": "rewardType",
          "type": "uint8"
        },
        {
          "internalType": "address payable[]",
          "name": "holders",
          "type": "address[]"
        },
        {
          "internalType": "contract JToken[]",
          "name": "jTokens",
          "type": "address[]"
        },
        {
          "internalType": "bool",
          "name": "borrowers",
          "type": "bool"
        },
        {
          "internalType": "bool",
          "name": "suppliers",
          "type": "bool"
        }
      ],
      "name": "claimReward",
      "outputs": [],
      "payable": true,
      "stateMutability": "payable",
      "type": "function"
    },
    {
      "constant": true,
      "inputs": [],
      "name": "closeFactorMantissa",
      "outputs": [
        {
          "internalType": "uint256",
          "name": "",
          "type": "uint256"
        }
      ],
      "payable": false,
      "stateMutability": "view",
      "type": "function"
    },
    {
      "constant": true,
      "inputs": [
        {
          "internalType": "address",
          "name": "",
          "type": "address"
        }
      ],
      "name": "creditLimits",
      "outputs": [
        {
          "internalType": "uint256",
          "name": "",
          "type": "uint256"
        }
      ],
      "payable": false,
      "stateMutability": "view",
      "type": "function"
    },
    {
      "constant": false,
      "inputs": [
        {
          "internalType": "address[]",
          "name": "jTokens",
          "type": "address[]"
        }
      ],
      "name": "enterMarkets",
      "outputs": [
        {
          "internalType": "uint256[]",
          "name": "",
          "type": "uint256[]"
        }
      ],
      "payable": false,
      "stateMutability": "nonpayable",
      "type": "function"
    },
    {
      "constant": false,
      "inputs": [
        {
          "internalType": "address",
          "name": "jTokenAddress",
          "type": "address"
        }
      ],
      "name": "exitMarket",
      "outputs": [
        {
          "internalType": "uint256",
          "name": "",
          "type": "uint256"
        }
      ],
      "payable": false,
      "stateMutability": "nonpayable",
      "type": "function"
    },
    {
      "constant": true,
      "inputs": [
        {
          "internalType": "address",
          "name": "jToken",
          "type": "address"
        },
        {
          "internalType": "address",
          "name": "receiver",
          "type": "address"
        },
        {
          "internalType": "uint256",
          "name": "amount",
          "type": "uint256"
        },
        {
          "internalType": "bytes",
          "name": "params",
          "type": "bytes"
        }
      ],
      "name": "flashloanAllowed",
      "outputs": [
        {
          "internalType": "bool",
          "name": "",
          "type": "bool"
        }
      ],
      "payable": false,
      "stateMutability": "view",
      "type": "function"
    },
    {
      "constant": true,
      "inputs": [
        {
          "internalType": "address",
          "name": "",
          "type": "address"
        }
      ],
      "name": "flashloanGuardianPaused",
      "outputs": [
        {
          "internalType": "bool",
          "name": "",
          "type": "bool"
        }
      ],
      "payable": false,
      "stateMutability": "view",
      "type": "function"
    },
    {
      "constant": true,
      "inputs": [
        {
          "internalType": "address",
          "name": "account",
          "type": "address"
        }
      ],
      "name": "getAccountLiquidity",
      "outputs": [
        {
          "internalType": "uint256",
          "name": "",
          "type": "uint256"
        },
        {
          "internalType": "uint256",
          "name": "",
          "type": "uint256"
        },
        {
          "internalType": "uint256",
          "name": "",
          "type": "uint256"
        }
      ],
      "payable": false,
      "stateMutability": "view",
      "type": "function"
    },
    {
      "constant": true,
      "inputs": [],
      "name": "getAllMarkets",
      "outputs": [
        {
          "internalType": "contract JToken[]",
          "name": "",
          "type": "address[]"
        }
      ],
      "payable": false,
      "stateMutability": "view",
      "type": "function"
    },
    {
      "constant": true,
      "inputs": [
        {
          "internalType": "address",
          "name": "account",
          "type": "address"
        }
      ],
      "name": "getAssetsIn",
      "outputs": [
        {
          "internalType": "contract JToken[]",
          "name": "",
          "type": "address[]"
        }
      ],
      "payable": false,
      "stateMutability": "view",
      "type": "function"
    },
    {
      "constant": true,
      "inputs": [],
      "name": "getBlockTimestamp",
      "outputs": [
        {
          "internalType": "uint256",
          "name": "",
          "type": "uint256"
        }
      ],
      "payable": false,
      "stateMutability": "view",
      "type": "function"
    },
    {
      "constant": true,
      "inputs": [
        {
          "internalType": "address",
          "name": "account",
          "type": "address"
        },
        {
          "internalType": "address",
          "name": "jTokenModify",
          "type": "address"
        },
        {
          "internalType": "uint256",
          "name": "redeemTokens",
          "type": "uint256"
        },
        {
          "internalType": "uint256",
          "name": "borrowAmount",
          "type": "uint256"
        }
      ],
      "name": "getHypotheticalAccountLiquidity",
      "outputs": [
        {
          "internalType": "uint256",
          "name": "",
          "type": "uint256"
        },
        {
          "internalType": "uint256",
          "name": "",
          "type": "uint256"
        },
        {
          "internalType": "uint256",
          "name": "",
          "type": "uint256"
        }
      ],
      "payable": false,
      "stateMutability": "view",
      "type": "function"
    },
    {
      "constant": true,
      "inputs": [
        {
          "internalType": "address",
          "name": "account",
          "type": "address"
        }
      ],
      "name": "isCreditAccount",
      "outputs": [
        {
          "internalType": "bool",
          "name": "",
          "type": "bool"
        }
      ],
      "payable": false,
      "stateMutability": "view",
      "type": "function"
    },
    {
      "constant": true,
      "inputs": [],
      "name": "isJoetroller",
      "outputs": [
        {
          "internalType": "bool",
          "name": "",
          "type": "bool"
        }
      ],
      "payable": false,
      "stateMutability": "view",
      "type": "function"
    },
    {
      "constant": true,
      "inputs": [
        {
          "internalType": "address",
          "name": "jTokenAddress",
          "type": "address"
        }
      ],
      "name": "isMarketListed",
      "outputs": [
        {
          "internalType": "bool",
          "name": "",
          "type": "bool"
        }
      ],
      "payable": false,
      "stateMutability": "view",
      "type": "function"
    },
    {
      "constant": true,
      "inputs": [],
      "name": "joetrollerImplementation",
      "outputs": [
        {
          "internalType": "address",
          "name": "",
          "type": "address"
        }
      ],
      "payable": false,
      "stateMutability": "view",
      "type": "function"
    },
    {
      "constant": false,
      "inputs": [
        {
          "internalType": "address",
          "name": "jTokenBorrowed",
          "type": "address"
        },
        {
          "internalType": "address",
          "name": "jTokenCollateral",
          "type": "address"
        },
        {
          "internalType": "address",
          "name": "liquidator",
          "type": "address"
        },
        {
          "internalType": "address",
          "name": "borrower",
          "type": "address"
        },
        {
          "internalType": "uint256",
          "name": "repayAmount",
          "type": "uint256"
        }
      ],
      "name": "liquidateBorrowAllowed",
      "outputs": [
        {
          "internalType": "uint256",
          "name": "",
          "type": "uint256"
        }
      ],
      "payable": false,
      "stateMutability": "nonpayable",
      "type": "function"
    },
    {
      "constant": false,
      "inputs": [
        {
          "internalType": "address",
          "name": "jTokenBorrowed",
          "type": "address"
        },
        {
          "internalType": "address",
          "name": "jTokenCollateral",
          "type": "address"
        },
        {
          "internalType": "address",
          "name": "liquidator",
          "type": "address"
        },
        {
          "internalType": "address",
          "name": "borrower",
          "type": "address"
        },
        {
          "internalType": "uint256",
          "name": "actualRepayAmount",
          "type": "uint256"
        },
        {
          "internalType": "uint256",
          "name": "seizeTokens",
          "type": "uint256"
        }
      ],
      "name": "liquidateBorrowVerify",
      "outputs": [],
      "payable": false,
      "stateMutability": "nonpayable",
      "type": "function"
    },
    {
      "constant": true,
      "inputs": [
        {
          "internalType": "address",
          "name": "jTokenBorrowed",
          "type": "address"
        },
        {
          "internalType": "address",
          "name": "jTokenCollateral",
          "type": "address"
        },
        {
          "internalType": "uint256",
          "name": "actualRepayAmount",
          "type": "uint256"
        }
      ],
      "name": "liquidateCalculateSeizeTokens",
      "outputs": [
        {
          "internalType": "uint256",
          "name": "",
          "type": "uint256"
        },
        {
          "internalType": "uint256",
          "name": "",
          "type": "uint256"
        }
      ],
      "payable": false,
      "stateMutability": "view",
      "type": "function"
    },
    {
      "constant": true,
      "inputs": [],
      "name": "liquidationIncentiveMantissa",
      "outputs": [
        {
          "internalType": "uint256",
          "name": "",
          "type": "uint256"
        }
      ],
      "payable": false,
      "stateMutability": "view",
      "type": "function"
    },
    {
      "constant": true,
      "inputs": [
        {
          "internalType": "address",
          "name": "",
          "type": "address"
        }
      ],
      "name": "markets",
      "outputs": [
        {
          "internalType": "bool",
          "name": "isListed",
          "type": "bool"
        },
        {
          "internalType": "uint256",
          "name": "collateralFactorMantissa",
          "type": "uint256"
        },
        {
          "internalType": "enum JoetrollerV1Storage.Version",
          "name": "version",
          "type": "uint8"
        }
      ],
      "payable": false,
      "stateMutability": "view",
      "type": "function"
    },
    {
      "constant": false,
      "inputs": [
        {
          "internalType": "address",
          "name": "jToken",
          "type": "address"
        },
        {
          "internalType": "address",
          "name": "minter",
          "type": "address"
        },
        {
          "internalType": "uint256",
          "name": "mintAmount",
          "type": "uint256"
        }
      ],
      "name": "mintAllowed",
      "outputs": [
        {
          "internalType": "uint256",
          "name": "",
          "type": "uint256"
        }
      ],
      "payable": false,
      "stateMutability": "nonpayable",
      "type": "function"
    },
    {
      "constant": true,
      "inputs": [
        {
          "internalType": "address",
          "name": "",
          "type": "address"
        }
      ],
      "name": "mintGuardianPaused",
      "outputs": [
        {
          "internalType": "bool",
          "name": "",
          "type": "bool"
        }
      ],
      "payable": false,
      "stateMutability": "view",
      "type": "function"
    },
    {
      "constant": false,
      "inputs": [
        {
          "internalType": "address",
          "name": "jToken",
          "type": "address"
        },
        {
          "internalType": "address",
          "name": "minter",
          "type": "address"
        },
        {
          "internalType": "uint256",
          "name": "actualMintAmount",
          "type": "uint256"
        },
        {
          "internalType": "uint256",
          "name": "mintTokens",
          "type": "uint256"
        }
      ],
      "name": "mintVerify",
      "outputs": [],
      "payable": false,
      "stateMutability": "nonpayable",
      "type": "function"
    },
    {
      "constant": true,
      "inputs": [],
      "name": "oracle",
      "outputs": [
        {
          "internalType": "contract PriceOracle",
          "name": "",
          "type": "address"
        }
      ],
      "payable": false,
      "stateMutability": "view",
      "type": "function"
    },
    {
      "constant": true,
      "inputs": [],
      "name": "pauseGuardian",
      "outputs": [
        {
          "internalType": "address",
          "name": "",
          "type": "address"
        }
      ],
      "payable": false,
      "stateMutability": "view",
      "type": "function"
    },
    {
      "constant": true,
      "inputs": [],
      "name": "pendingAdmin",
      "outputs": [
        {
          "internalType": "address",
          "name": "",
          "type": "address"
        }
      ],
      "payable": false,
      "stateMutability": "view",
      "type": "function"
    },
    {
      "constant": true,
      "inputs": [],
      "name": "pendingJoetrollerImplementation",
      "outputs": [
        {
          "internalType": "address",
          "name": "",
          "type": "address"
        }
      ],
      "payable": false,
      "stateMutability": "view",
      "type": "function"
    },
    {
      "constant": false,
      "inputs": [
        {
          "internalType": "address",
          "name": "jToken",
          "type": "address"
        },
        {
          "internalType": "address",
          "name": "redeemer",
          "type": "address"
        },
        {
          "internalType": "uint256",
          "name": "redeemTokens",
          "type": "uint256"
        }
      ],
      "name": "redeemAllowed",
      "outputs": [
        {
          "internalType": "uint256",
          "name": "",
          "type": "uint256"
        }
      ],
      "payable": false,
      "stateMutability": "nonpayable",
      "type": "function"
    },
    {
      "constant": false,
      "inputs": [
        {
          "internalType": "address",
          "name": "jToken",
          "type": "address"
        },
        {
          "internalType": "address",
          "name": "redeemer",
          "type": "address"
        },
        {
          "internalType": "uint256",
          "name": "redeemAmount",
          "type": "uint256"
        },
        {
          "internalType": "uint256",
          "name": "redeemTokens",
          "type": "uint256"
        }
      ],
      "name": "redeemVerify",
      "outputs": [],
      "payable": false,
      "stateMutability": "nonpayable",
      "type": "function"
    },
    {
      "constant": false,
      "inputs": [
        {
          "internalType": "address",
          "name": "jToken",
          "type": "address"
        },
        {
          "internalType": "address",
          "name": "payer",
          "type": "address"
        },
        {
          "internalType": "address",
          "name": "borrower",
          "type": "address"
        },
        {
          "internalType": "uint256",
          "name": "repayAmount",
          "type": "uint256"
        }
      ],
      "name": "repayBorrowAllowed",
      "outputs": [
        {
          "internalType": "uint256",
          "name": "",
          "type": "uint256"
        }
      ],
      "payable": false,
      "stateMutability": "nonpayable",
      "type": "function"
    },
    {
      "constant": false,
      "inputs": [
        {
          "internalType": "address",
          "name": "jToken",
          "type": "address"
        },
        {
          "internalType": "address",
          "name": "payer",
          "type": "address"
        },
        {
          "internalType": "address",
          "name": "borrower",
          "type": "address"
        },
        {
          "internalType": "uint256",
          "name": "actualRepayAmount",
          "type": "uint256"
        },
        {
          "internalType": "uint256",
          "name": "borrowerIndex",
          "type": "uint256"
        }
      ],
      "name": "repayBorrowVerify",
      "outputs": [],
      "payable": false,
      "stateMutability": "nonpayable",
      "type": "function"
    },
    {
      "constant": true,
      "inputs": [],
      "name": "rewardDistributor",
      "outputs": [
        {
          "internalType": "address payable",
          "name": "",
          "type": "address"
        }
      ],
      "payable": false,
      "stateMutability": "view",
      "type": "function"
    },
    {
      "constant": false,
      "inputs": [
        {
          "internalType": "address",
          "name": "jTokenCollateral",
          "type": "address"
        },
        {
          "internalType": "address",
          "name": "jTokenBorrowed",
          "type": "address"
        },
        {
          "internalType": "address",
          "name": "liquidator",
          "type": "address"
        },
        {
          "internalType": "address",
          "name": "borrower",
          "type": "address"
        },
        {
          "internalType": "uint256",
          "name": "seizeTokens",
          "type": "uint256"
        }
      ],
      "name": "seizeAllowed",
      "outputs": [
        {
          "internalType": "uint256",
          "name": "",
          "type": "uint256"
        }
      ],
      "payable": false,
      "stateMutability": "nonpayable",
      "type": "function"
    },
    {
      "constant": true,
      "inputs": [],
      "name": "seizeGuardianPaused",
      "outputs": [
        {
          "internalType": "bool",
          "name": "",
          "type": "bool"
        }
      ],
      "payable": false,
      "stateMutability": "view",
      "type": "function"
    },
    {
      "constant": false,
      "inputs": [
        {
          "internalType": "address",
          "name": "jTokenCollateral",
          "type": "address"
        },
        {
          "internalType": "address",
          "name": "jTokenBorrowed",
          "type": "address"
        },
        {
          "internalType": "address",
          "name": "liquidator",
          "type": "address"
        },
        {
          "internalType": "address",
          "name": "borrower",
          "type": "address"
        },
        {
          "internalType": "uint256",
          "name": "seizeTokens",
          "type": "uint256"
        }
      ],
      "name": "seizeVerify",
      "outputs": [],
      "payable": false,
      "stateMutability": "nonpayable",
      "type": "function"
    },
    {
      "constant": true,
      "inputs": [],
      "name": "supplyCapGuardian",
      "outputs": [
        {
          "internalType": "address",
          "name": "",
          "type": "address"
        }
      ],
      "payable": false,
      "stateMutability": "view",
      "type": "function"
    },
    {
      "constant": true,
      "inputs": [
        {
          "internalType": "address",
          "name": "",
          "type": "address"
        }
      ],
      "name": "supplyCaps",
      "outputs": [
        {
          "internalType": "uint256",
          "name": "",
          "type": "uint256"
        }
      ],
      "payable": false,
      "stateMutability": "view",
      "type": "function"
    },
    {
      "constant": false,
      "inputs": [
        {
          "internalType": "address",
          "name": "jToken",
          "type": "address"
        },
        {
          "internalType": "address",
          "name": "src",
          "type": "address"
        },
        {
          "internalType": "address",
          "name": "dst",
          "type": "address"
        },
        {
          "internalType": "uint256",
          "name": "transferTokens",
          "type": "uint256"
        }
      ],
      "name": "transferAllowed",
      "outputs": [
        {
          "internalType": "uint256",
          "name": "",
          "type": "uint256"
        }
      ],
      "payable": false,
      "stateMutability": "nonpayable",
      "type": "function"
    },
    {
      "constant": true,
      "inputs": [],
      "name": "transferGuardianPaused",
      "outputs": [
        {
          "internalType": "bool",
          "name": "",
          "type": "bool"
        }
      ],
      "payable": false,
      "stateMutability": "view",
      "type": "function"
    },
    {
      "constant": false,
      "inputs": [
        {
          "internalType": "address",
          "name": "jToken",
          "type": "address"
        },
        {
          "internalType": "address",
          "name": "src",
          "type": "address"
        },
        {
          "internalType": "address",
          "name": "dst",
          "type": "address"
        },
        {
          "internalType": "uint256",
          "name": "transferTokens",
          "type": "uint256"
        }
      ],
      "name": "transferVerify",
      "outputs": [],
      "payable": false,
      "stateMutability": "nonpayable",
      "type": "function"
    },
    {
      "constant": false,
      "inputs": [
        {
          "internalType": "address",
          "name": "jToken",
          "type": "address"
        },
        {
          "internalType": "enum JoetrollerV1Storage.Version",
          "name": "newVersion",
          "type": "uint8"
        }
      ],
      "name": "updateJTokenVersion",
      "outputs": [],
      "payable": false,
      "stateMutability": "nonpayable",
      "type": "function"
    }
  ],
  "transactionHash": "0x77bd5d72f888f6ade2245a2a7b22e6f580f51f09ce2ed098293e9b0649cc919e",
  "args": [],
  "solcInputHash": "0829ec71fc29e09a32a8488ca35d3333",
  "bytecode": "0x608060405234801561001057600080fd5b50600080546001600160a01b03191633179055615cca80620000336000396000f3fe6080604052600436106104315760003560e01c80636d154ea511610229578063b1ab78e61161012e578063da3d454c116100b6578063e87554461161007a578063e875544614610c94578063eabe7d9114610ca9578063ede4edd014610cc9578063f349760014610ce9578063f851a44014610d0957610431565b8063da3d454c14610c0a578063dce1544914610c2a578063e4028eee14610c4a578063e50199a314610c6a578063e6653f3d14610c7f57610431565b8063c2998238116100fd578063c299823814610b4f578063c488847b14610b7c578063d02f735114610baa578063d672d3e214610bca578063d82ecc4814610bea57610431565b8063b1ab78e614610acf578063b1e1af2414610aef578063bc93082b14610b0f578063bdcdc25814610b2f57610431565b80638ebf6364116101b1578063abfceffc11610180578063abfceffc14610a4e578063ac0b0bb714610a7b578063acc2166a14610a90578063af006fc614610aa5578063b0772d0b14610aba57610431565b80638ebf6364146109d9578063929fe9a1146109f957806399bc187314610a19578063a979f0c514610a3957610431565b8063796b89b9116101f8578063796b89b9146109585780637dc0d1d01461096d57806387f76303146109825780638805714b146109975780638e8f294b146109aa57610431565b80636d154ea5146108dd5780636d35bf91146108fd578063731f0c2b14610918578063744532ae1461093857610431565b806340e6dcc51161033a57806351dff989116102c25780635ec88c79116102865780635ec88c79146108425780635f5af1aa146108625780635fc7e71e14610882578063607ef6c1146108a25780636a56947e146108c257610431565b806351dff9891461079557806352d84d1e146107b557806355ee1fe1146107e25780635c254d11146108025780635c7786051461082257610431565b80634ada90af116103095780634ada90af146106f15780634e79238f146107065780634ef4c3e1146107355780634fd42e171461075557806351a485e41461077557610431565b806340e6dcc51461067c57806341c728b91461069157806347ef3b3b146106b15780634a584432146106d157610431565b806326782247116103bd57806338b8f4c31161038c57806338b8f4c3146105e7578063391957d7146106075780633bcf7ec1146106275780633c94786f146106475780633d98a1e51461065c57610431565b806326782247146105725780632d70db7814610587578063317b0b77146105a757806336bdd087146105c757610431565b80631d504dc6116104045780631d504dc6146104db5780631ededc91146104fb57806321af45691461051b57806324008a621461053d57806324a3d6221461055d57610431565b806302c3bcbb1461043657806303c03f0f1461046c5780630952c5631461048e57806318c882a5146104ae575b600080fd5b34801561044257600080fd5b50610456610451366004614582565b610d1e565b6040516104639190615a67565b60405180910390f35b34801561047857600080fd5b5061048c6104873660046148bb565b610d30565b005b34801561049a57600080fd5b5061048c6104a9366004614b37565b610deb565b3480156104ba57600080fd5b506104ce6104c9366004614a1a565b610e53565b60405161046391906156e2565b3480156104e757600080fd5b5061048c6104f63660046149fc565b610f57565b34801561050757600080fd5b5061048c61051636600461471b565b61108b565b34801561052757600080fd5b50610530611092565b6040516104639190615646565b34801561054957600080fd5b506104566105583660046146ba565b6110a1565b34801561056957600080fd5b506105306111ba565b34801561057e57600080fd5b506105306111c9565b34801561059357600080fd5b506104ce6105a23660046149c0565b6111d8565b3480156105b357600080fd5b506104566105c2366004614aa6565b6112a8565b3480156105d357600080fd5b506104566105e2366004614a4a565b611319565b3480156105f357600080fd5b5061048c610602366004614582565b6114a0565b34801561061357600080fd5b5061048c610622366004614582565b611529565b34801561063357600080fd5b506104ce610642366004614a1a565b6115a6565b34801561065357600080fd5b506104ce611699565b34801561066857600080fd5b506104ce610677366004614582565b6116a9565b34801561068857600080fd5b506104ce6116c7565b34801561069d57600080fd5b5061048c6106ac36600461483d565b6116cc565b3480156106bd57600080fd5b5061048c6106cc366004614633565b6116d2565b3480156106dd57600080fd5b506104566106ec366004614582565b6116d7565b3480156106fd57600080fd5b506104566116e9565b34801561071257600080fd5b5061072661072136600461483d565b6116ef565b60405161046393929190615aab565b34801561074157600080fd5b50610456610750366004614772565b611729565b34801561076157600080fd5b50610456610770366004614aa6565b611a05565b34801561078157600080fd5b5061048c610790366004614950565b611a5e565b3480156107a157600080fd5b5061048c6107b036600461483d565b611baa565b3480156107c157600080fd5b506107d56107d0366004614aa6565b611bd5565b6040516104639190615718565b3480156107ee57600080fd5b506104566107fd3660046149fc565b611bfc565b34801561080e57600080fd5b5061045661081d366004614582565b611c6e565b34801561082e57600080fd5b5061048c61083d366004614772565b611d58565b34801561084e57600080fd5b5061072661085d366004614582565b611d5d565b34801561086e57600080fd5b5061045661087d366004614582565b611d92565b34801561088e57600080fd5b5061045661089d3660046145be565b611e06565b3480156108ae57600080fd5b5061048c6108bd366004614950565b611f64565b3480156108ce57600080fd5b5061048c6106ac3660046146ba565b3480156108e957600080fd5b506104ce6108f8366004614582565b6120a7565b34801561090957600080fd5b5061048c6105163660046145be565b34801561092457600080fd5b506104ce610933366004614582565b6120bc565b34801561094457600080fd5b5061048c610953366004614b67565b6120d1565b34801561096457600080fd5b50610456612133565b34801561097957600080fd5b506107d5612138565b34801561098e57600080fd5b506104ce612147565b61048c6109a5366004614bc2565b612157565b3480156109b657600080fd5b506109ca6109c5366004614582565b6121c8565b604051610463939291906156f0565b3480156109e557600080fd5b506104ce6109f43660046149c0565b6121ee565b348015610a0557600080fd5b506104ce610a14366004614881565b6122ae565b348015610a2557600080fd5b50610456610a34366004614582565b6122e1565b348015610a4557600080fd5b506105306122f3565b348015610a5a57600080fd5b50610a6e610a69366004614582565b612302565b60405161046391906156c0565b348015610a8757600080fd5b506104ce61238b565b348015610a9c57600080fd5b5061053061239b565b348015610ab157600080fd5b506105306123aa565b348015610ac657600080fd5b50610a6e6123b9565b348015610adb57600080fd5b506104ce610aea3660046147bf565b61241b565b348015610afb57600080fd5b506104ce610b0a366004614a1a565b61243e565b348015610b1b57600080fd5b5061048c610b2a3660046148eb565b612531565b348015610b3b57600080fd5b50610456610b4a3660046146ba565b6125a8565b348015610b5b57600080fd5b50610b6f610b6a36600461491b565b6126ad565b60405161046391906156d1565b348015610b8857600080fd5b50610b9c610b97366004614772565b612744565b604051610463929190615a75565b348015610bb657600080fd5b50610456610bc53660046145be565b61297e565b348015610bd657600080fd5b506104ce610be5366004614582565b612bd3565b348015610bf657600080fd5b506104ce610c05366004614582565b612be8565b348015610c1657600080fd5b50610456610c25366004614772565b612c05565b348015610c3657600080fd5b506107d5610c453660046148eb565b612fb3565b348015610c5657600080fd5b50610456610c65366004614a69565b612fe8565b348015610c7657600080fd5b5061053061318d565b348015610c8b57600080fd5b506104ce61319c565b348015610ca057600080fd5b506104566131ac565b348015610cb557600080fd5b50610456610cc4366004614772565b6131b2565b348015610cd557600080fd5b50610456610ce4366004614582565b6131cf565b348015610cf557600080fd5b5061048c610d043660046149fc565b613535565b348015610d1557600080fd5b506105306137de565b60106020526000908152604090205481565b336001600160a01b03831614610d615760405162461bcd60e51b8152600401610d5890615967565b60405180910390fd5b610d6a826116a9565b15610de7576001600160a01b0382166000908152600860205260409020600301805460ff811691839160ff19166001836002811115610da557fe5b02179055507f558960558f6e261a396bbd1ff5293b87f450019866e91b3579650bc3b6bcb00d838284604051610ddd9392919061574f565b60405180910390a1505b5050565b601354604051630952c56360e01b81526001600160a01b0390911690630952c56390610e1d9085908590600401615ab9565b600060405180830381600087803b158015610e3757600080fd5b505af1158015610e4b573d6000803e3d6000fd5b505050505050565b6000610e5e836116a9565b610e7a5760405162461bcd60e51b8152600401610d5890615858565b6009546001600160a01b0316331480610e9d57506000546001600160a01b031633145b610eb95760405162461bcd60e51b8152600401610d58906158c7565b6000546001600160a01b0316331480610ed457506001821515145b610ef05760405162461bcd60e51b8152600401610d5890615888565b6001600160a01b0383166000908152600b602052604090819020805460ff1916841515179055517f71aec636243f9709bb0007ae15e9afb8150ab01716d75fd7573be5cc096e03b090610f469085908590615798565b60405180910390a150805b92915050565b806001600160a01b031663f851a4406040518163ffffffff1660e01b815260040160206040518083038186803b158015610f9057600080fd5b505afa158015610fa4573d6000803e3d6000fd5b505050506040513d601f19601f82011682018060405250610fc891908101906145a0565b6001600160a01b0316336001600160a01b031614610ff85760405162461bcd60e51b8152600401610d5890615a47565b806001600160a01b031663c1e803346040518163ffffffff1660e01b8152600401602060405180830381600087803b15801561103357600080fd5b505af1158015611047573d6000803e3d6000fd5b505050506040513d601f19601f8201168201806040525061106b9190810190614ac4565b156110885760405162461bcd60e51b8152600401610d5890615997565b50565b5050505050565b600d546001600160a01b031681565b60006110ac856116a9565b6110b8575060096111b2565b6110c0614272565b6040518060200160405280876001600160a01b031663aa5af0fd6040518163ffffffff1660e01b815260040160206040518083038186803b15801561110457600080fd5b505afa158015611118573d6000803e3d6000fd5b505050506040513d601f19601f8201168201806040525061113c9190810190614ac4565b9052601354604051639c39e29360e01b81529192506001600160a01b031690639c39e293906111739089908890869060040161567d565b600060405180830381600087803b15801561118d57600080fd5b505af11580156111a1573d6000803e3d6000fd5b50600092506111ae915050565b9150505b949350505050565b6009546001600160a01b031681565b6001546001600160a01b031681565b6009546000906001600160a01b03163314806111fe57506000546001600160a01b031633145b61121a5760405162461bcd60e51b8152600401610d58906158c7565b6000546001600160a01b031633148061123557506001821515145b6112515760405162461bcd60e51b8152600401610d5890615888565b6009805460ff60b81b1916600160b81b841515021790556040517fef159d9a32b2472e32b098f954f3ce62d232939f1c207070b584df1814de2de0906112989084906158a8565b60405180910390a150805b919050565b600080546001600160a01b031633146112ce576112c7600160046137ed565b90506112a3565b60058054908390556040517f3b9670cf975d26958e754b57098eaa2ac914d8d2a31b83257997b9f346110fd9906113089083908690615a75565b60405180910390a160009392505050565b600080546001600160a01b031633146113445760405162461bcd60e51b8152600401610d5890615a37565b61134d836116a9565b1561136a5760405162461bcd60e51b8152600401610d58906158d7565b826001600160a01b031663406de0b66040518163ffffffff1660e01b815260040160206040518083038186803b1580156113a357600080fd5b505afa1580156113b7573d6000803e3d6000fd5b505050506040513d601f19601f820116820180604052506113db91908101906149de565b5060408051606081018252600181526000602082015290810183600281111561140057fe5b90526001600160a01b0384166000908152600860209081526040918290208351815490151560ff199182161782559184015160018083019190915592840151600382018054929491939092169083600281111561145957fe5b021790555090505061146a8361384d565b7fcf583bb0c569eb967f806b11601c4cb93c10310485c67add5f8362c2f212321f836040516113089190615718565b9392505050565b6000546001600160a01b031633146114ca5760405162461bcd60e51b8152600401610d5890615937565b600f80546001600160a01b038381166001600160a01b03198316179092556040519116907fb0d3622c24ac9bd967d8f37a25808b3e668fe7ed4f3075bbe82842d3e287c0449061151d9083908590615662565b60405180910390a15050565b6000546001600160a01b031633146115535760405162461bcd60e51b8152600401610d58906158e7565b600d80546001600160a01b038381166001600160a01b03198316179092556040519116907feda98690e518e9a05f8ec6837663e188211b2da8f4906648b323f2c1d4434e299061151d9083908590615662565b60006115b1836116a9565b6115cd5760405162461bcd60e51b8152600401610d5890615858565b6009546001600160a01b03163314806115f057506000546001600160a01b031633145b61160c5760405162461bcd60e51b8152600401610d58906158c7565b6000546001600160a01b031633148061162757506001821515145b6116435760405162461bcd60e51b8152600401610d5890615888565b6001600160a01b0383166000908152600a602052604090819020805460ff1916841515179055517f71aec636243f9709bb0007ae15e9afb8150ab01716d75fd7573be5cc096e03b090610f46908590859061576a565b600954600160a01b900460ff1681565b6001600160a01b031660009081526008602052604090205460ff1690565b600181565b50505050565b610e4b565b600e6020526000908152604090205481565b60065481565b6000806000806000806117048a8a8a8a6138ff565b92509250925082601181111561171657fe5b95509093509150505b9450945094915050565b6001600160a01b0383166000908152600a602052604081205460ff16156117625760405162461bcd60e51b8152600401610d5890615a27565b61176b83612be8565b156117885760405162461bcd60e51b8152600401610d5890615927565b611791846116a9565b61179f5760095b9050611499565b6001600160a01b038416600090815260106020526040902054801561198f576000856001600160a01b0316633b1d21a26040518163ffffffff1660e01b815260040160206040518083038186803b1580156117f957600080fd5b505afa15801561180d573d6000803e3d6000fd5b505050506040513d601f19601f820116820180604052506118319190810190614ac4565b90506000866001600160a01b03166347bd37186040518163ffffffff1660e01b815260040160206040518083038186803b15801561186e57600080fd5b505afa158015611882573d6000803e3d6000fd5b505050506040513d601f19601f820116820180604052506118a69190810190614ac4565b90506000876001600160a01b0316638f840ddd6040518163ffffffff1660e01b815260040160206040518083038186803b1580156118e357600080fd5b505afa1580156118f7573d6000803e3d6000fd5b505050506040513d601f19601f8201168201806040525061191b9190810190614ac4565b905060008061192b858585613cd2565b9092509050600082600381111561193e57fe5b1461195b5760405162461bcd60e51b8152600401610d5890615917565b6000611967828a613d1e565b90508681106119885760405162461bcd60e51b8152600401610d5890615838565b5050505050505b60135460405163670e8afd60e01b81526001600160a01b039091169063670e8afd906119c19088908890600401615662565b600060405180830381600087803b1580156119db57600080fd5b505af11580156119ef573d6000803e3d6000fd5b50600092506119fc915050565b95945050505050565b600080546001600160a01b03163314611a24576112c76001600b6137ed565b60068054908390556040517faeba5a6c40a8ac138134bff1aaa65debf25971188a58804bad717f82f0ec1316906113089083908690615a75565b6000546001600160a01b0316331480611a815750600f546001600160a01b031633145b611a9d5760405162461bcd60e51b8152600401610d5890615868565b82818115801590611aad57508082145b611ac95760405162461bcd60e51b8152600401610d58906159d7565b60005b82811015611ba157848482818110611ae057fe5b9050602002013560106000898985818110611af757fe5b9050602002016020611b0c91908101906149fc565b6001600160a01b03168152602081019190915260400160002055868682818110611b3257fe5b9050602002016020611b4791908101906149fc565b6001600160a01b03167f9e0ad9cee10bdf36b7fbd38910c0bdff0f275ace679b45b922381c2723d676f8868684818110611b7d57fe5b90506020020135604051611b919190615a67565b60405180910390a2600101611acc565b50505050505050565b80158015611bb85750600082115b156116cc5760405162461bcd60e51b8152600401610d5890615957565b600c8181548110611be257fe5b6000918252602090912001546001600160a01b0316905081565b600080546001600160a01b03163314611c1b576112c7600160106137ed565b600480546001600160a01b038481166001600160a01b03198316179092556040519116907fd52b2b9b7e9ee655fcb95d2e5b9e0c9f69e7ef2b8e9d2d0ea78402d576d22e229061130890839086906157fe565b600080546001600160a01b03163314611c885760016112c7565b6000826001600160a01b0316600080604051602401611ca79190615819565b60408051601f198184030181529181526020820180516001600160e01b031663204a7f0760e21b17905251611cdc919061563a565b60006040518083038185875af1925050503d8060008114611d19576040519150601f19603f3d011682016040523d82523d6000602084013e611d1e565b606091505b5050905080611d3157600e9150506112a3565b5050601380546001600160a01b0319166001600160a01b0392909216919091179055600090565b505050565b600080600080600080611d748760008060006138ff565b925092509250826011811115611d8657fe5b97919650945092505050565b600080546001600160a01b03163314611db1576112c7600160136137ed565b600980546001600160a01b038481166001600160a01b031983161792839055604051918116927f0613b6ee6a04f0d09f390e4d9318894b9f6ac7fd83897cd8d18896ba579c401e926113089285921690615662565b6000611e1183612be8565b15611e2e5760405162461bcd60e51b8152600401610d5890615898565b611e37866116a9565b1580611e495750611e47856116a9565b155b15611e585760095b90506119fc565b600080611e6485613d54565b91935090915060009050826011811115611e7a57fe5b14611e9457816011811115611e8b57fe5b925050506119fc565b80611ea0576003611e8b565b6040516395dd919360e01b81526000906001600160a01b038a16906395dd919390611ecf908990600401615646565b60206040518083038186803b158015611ee757600080fd5b505afa158015611efb573d6000803e3d6000fd5b505050506040513d601f19601f82011682018060405250611f1f9190810190614ac4565b90506000611f3d604051806020016040528060055481525083613d74565b905080861115611f545760119450505050506119fc565b5060009998505050505050505050565b6000546001600160a01b0316331480611f875750600d546001600160a01b031633145b611fa35760405162461bcd60e51b8152600401610d5890615987565b82818115801590611fb357508082145b611fcf5760405162461bcd60e51b8152600401610d58906159d7565b60005b82811015611ba157848482818110611fe657fe5b90506020020135600e6000898985818110611ffd57fe5b905060200201602061201291908101906149fc565b6001600160a01b0316815260208101919091526040016000205586868281811061203857fe5b905060200201602061204d91908101906149fc565b6001600160a01b03167f6f1951b2aad10f3fc81b86d91105b413a5b3f847a34bbc5ce1904201b14438f686868481811061208357fe5b905060200201356040516120979190615a67565b60405180910390a2600101611fd2565b600b6020526000908152604090205460ff1681565b600a6020526000908152604090205460ff1681565b601354604051633a22995760e11b81526001600160a01b039091169063744532ae9061210590869086908690600401615ac7565b600060405180830381600087803b15801561211f57600080fd5b505af1158015611ba1573d6000803e3d6000fd5b425b90565b6004546001600160a01b031681565b600954600160b01b900460ff1681565b601354604051638805714b60e01b81526001600160a01b0390911690638805714b9061218f9088908890889088908890600401615af4565b600060405180830381600087803b1580156121a957600080fd5b505af11580156121bd573d6000803e3d6000fd5b505050505050505050565b60086020526000908152604090208054600182015460039092015460ff91821692911683565b6009546000906001600160a01b031633148061221457506000546001600160a01b031633145b6122305760405162461bcd60e51b8152600401610d58906158c7565b6000546001600160a01b031633148061224b57506001821515145b6122675760405162461bcd60e51b8152600401610d5890615888565b6009805460ff60b01b1916600160b01b841515021790556040517fef159d9a32b2472e32b098f954f3ce62d232939f1c207070b584df1814de2de090611298908490615a07565b6001600160a01b038082166000908152600860209081526040808320938616835260029093019052205460ff1692915050565b60116020526000908152604090205481565b600f546001600160a01b031681565b60608060076000846001600160a01b03166001600160a01b0316815260200190815260200160002080548060200260200160405190810160405280929190818152602001828054801561237e57602002820191906000526020600020905b81546001600160a01b03168152600190910190602001808311612360575b5093979650505050505050565b600954600160b81b900460ff1681565b6013546001600160a01b031681565b6003546001600160a01b031681565b6060600c80548060200260200160405190810160405280929190818152602001828054801561241157602002820191906000526020600020905b81546001600160a01b031681526001909101906020018083116123f3575b5050505050905090565b505050506001600160a01b031660009081526012602052604090205460ff161590565b6000612449836116a9565b6124655760405162461bcd60e51b8152600401610d5890615858565b6009546001600160a01b031633148061248857506000546001600160a01b031633145b6124a45760405162461bcd60e51b8152600401610d58906158c7565b6000546001600160a01b03163314806124bf57506001821515145b6124db5760405162461bcd60e51b8152600401610d5890615888565b6001600160a01b03831660009081526012602052604090819020805460ff1916841515179055517f71aec636243f9709bb0007ae15e9afb8150ab01716d75fd7573be5cc096e03b090610f4690859085906157b7565b6000546001600160a01b0316331461255b5760405162461bcd60e51b8152600401610d5890615977565b6001600160a01b03821660009081526011602052604090819020829055517facba5197b02f201109f99752a9adb58c2598809f6acb3c34b7f1445f0cbeee879061151d90849084906156a5565b600954600090600160b01b900460ff16156125d55760405162461bcd60e51b8152600401610d5890615947565b6125de83612be8565b156125fb5760405162461bcd60e51b8152600401610d58906158f7565b6000612608868685613d93565b905080156126175790506111b2565b60135460405163670e8afd60e01b81526001600160a01b039091169063670e8afd906126499089908990600401615662565b600060405180830381600087803b15801561266357600080fd5b505af1158015612677573d6000803e3d6000fd5b505060135460405163670e8afd60e01b81526001600160a01b03909116925063670e8afd91506111739089908890600401615662565b60606000825190506060816040519080825280602002602001820160405280156126e1578160200160208202803883390190505b50905060005b8281101561273c5760008582815181106126fd57fe5b602002602001015190506127118133613e3a565b601181111561271c57fe5b83838151811061272857fe5b6020908102919091010152506001016126e7565b509392505050565b6004805460405163fc57d4df60e01b8152600092839283926001600160a01b039091169163fc57d4df9161277a918a9101615718565b60206040518083038186803b15801561279257600080fd5b505afa1580156127a6573d6000803e3d6000fd5b505050506040513d601f19601f820116820180604052506127ca9190810190614ac4565b6004805460405163fc57d4df60e01b81529293506000926001600160a01b039091169163fc57d4df916127ff918a9101615718565b60206040518083038186803b15801561281757600080fd5b505afa15801561282b573d6000803e3d6000fd5b505050506040513d601f19601f8201168201806040525061284f9190810190614ac4565b905081158061285c575080155b1561287157600d935060009250612976915050565b6000866001600160a01b031663182df0f56040518163ffffffff1660e01b815260040160206040518083038186803b1580156128ac57600080fd5b505afa1580156128c0573d6000803e3d6000fd5b505050506040513d601f19601f820116820180604052506128e49190810190614ac4565b90506128ee614272565b6129166040518060200160405280600654815250604051806020016040528087815250613fcc565b9050612920614272565b612946604051806020016040528086815250604051806020016040528086815250613fcc565b9050612950614272565b61295a838361400b565b90506000612968828b613d74565b600099509750505050505050505b935093915050565b600954600090600160b81b900460ff16156129ab5760405162461bcd60e51b8152600401610d58906159c7565b6129b483612be8565b156129d15760405162461bcd60e51b8152600401610d5890615878565b6129da866116a9565b15806129ec57506129ea856116a9565b155b156129f8576009611e51565b846001600160a01b0316636330533c6040518163ffffffff1660e01b815260040160206040518083038186803b158015612a3157600080fd5b505afa158015612a45573d6000803e3d6000fd5b505050506040513d601f19601f82011682018060405250612a699190810190614a88565b6001600160a01b0316866001600160a01b0316636330533c6040518163ffffffff1660e01b815260040160206040518083038186803b158015612aab57600080fd5b505afa158015612abf573d6000803e3d6000fd5b505050506040513d601f19601f82011682018060405250612ae39190810190614a88565b6001600160a01b031614612af8576002611e51565b60135460405163670e8afd60e01b81526001600160a01b039091169063670e8afd90612b2a9089908790600401615662565b600060405180830381600087803b158015612b4457600080fd5b505af1158015612b58573d6000803e3d6000fd5b505060135460405163670e8afd60e01b81526001600160a01b03909116925063670e8afd9150612b8e9089908890600401615662565b600060405180830381600087803b158015612ba857600080fd5b505af1158015612bbc573d6000803e3d6000fd5b5060009250612bc9915050565b9695505050505050565b60126020526000908152604090205460ff1681565b6001600160a01b0316600090815260116020526040902054151590565b6001600160a01b0383166000908152600b602052604081205460ff1615612c3e5760405162461bcd60e51b8152600401610d5890615a57565b612c47846116a9565b612c52576009611798565b6001600160a01b038085166000908152600860209081526040808320938716835260029093019052205460ff16612d1557336001600160a01b03851614612cab5760405162461bcd60e51b8152600401610d58906159f7565b6000612cb78585613e3a565b90506000816011811115612cc757fe5b14612ce057806011811115612cd857fe5b915050611499565b6001600160a01b038086166000908152600860209081526040808320938816835260029093019052205460ff16612d1357fe5b505b6004805460405163fc57d4df60e01b81526001600160a01b039091169163fc57d4df91612d4491889101615718565b60206040518083038186803b158015612d5c57600080fd5b505afa158015612d70573d6000803e3d6000fd5b505050506040513d601f19601f82011682018060405250612d949190810190614ac4565b612d9f57600d611798565b6001600160a01b0384166000908152600e60205260409020548015612e63576000856001600160a01b03166347bd37186040518163ffffffff1660e01b815260040160206040518083038186803b158015612df957600080fd5b505afa158015612e0d573d6000803e3d6000fd5b505050506040513d601f19601f82011682018060405250612e319190810190614ac4565b90506000612e3f8286613d1e565b9050828110612e605760405162461bcd60e51b8152600401610d58906159b7565b50505b600080612e7386886000886138ff565b91935090915060009050826011811115612e8957fe5b14612ea457816011811115612e9a57fe5b9350505050611499565b8015612eb1576004612e9a565b612eb9614272565b6040518060200160405280896001600160a01b031663aa5af0fd6040518163ffffffff1660e01b815260040160206040518083038186803b158015612efd57600080fd5b505afa158015612f11573d6000803e3d6000fd5b505050506040513d601f19601f82011682018060405250612f359190810190614ac4565b9052601354604051639c39e29360e01b81529192506001600160a01b031690639c39e29390612f6c908b908b90869060040161567d565b600060405180830381600087803b158015612f8657600080fd5b505af1158015612f9a573d6000803e3d6000fd5b5060009250612fa7915050565b98975050505050505050565b60076020528160005260406000208181548110612fcc57fe5b6000918252602090912001546001600160a01b03169150829050565b600080546001600160a01b0316331461300e57613007600160066137ed565b9050610f51565b6001600160a01b0383166000908152600860205260409020805460ff166130435761303b600960076137ed565b915050610f51565b61304b614272565b506040805160208101909152838152613062614272565b506040805160208101909152670c7d713b49da000081526130838183614047565b1561309e57613094600660086137ed565b9350505050610f51565b841580159061312957506004805460405163fc57d4df60e01b81526001600160a01b039091169163fc57d4df916130d7918a9101615718565b60206040518083038186803b1580156130ef57600080fd5b505afa158015613103573d6000803e3d6000fd5b505050506040513d601f19601f820116820180604052506131279190810190614ac4565b155b1561313a57613094600d60096137ed565b600183018054908690556040517f70483e6592cd5182d45ac970e05bc62cdcc90e9d8ef2c2dbe686cf383bcd7fc59061317890899084908a906157d6565b60405180910390a16000979650505050505050565b6002546001600160a01b031681565b600954600160a81b900460ff1681565b60055481565b6000806131c0858585613d93565b9050801561198f579050611499565b6000808290506000806000836001600160a01b031663c37f68e2336040518263ffffffff1660e01b81526004016132069190615654565b60806040518083038186803b15801561321e57600080fd5b505afa158015613232573d6000803e3d6000fd5b505050506040513d601f19601f820116820180604052506132569190810190614ae2565b509250925092508260001461327d5760405162461bcd60e51b8152600401610d58906159a7565b801561329a5761328f600c60026137ed565b9450505050506112a3565b60006132a7873385613d93565b905080156132c8576132bc600e60038361404e565b955050505050506112a3565b6001600160a01b03871660009081526008602052604090206001600382015460ff1660028111156132f557fe5b141561335a57604051638b35776b60e01b81526001600160a01b03891690638b35776b90613327903390600401615654565b600060405180830381600087803b15801561334157600080fd5b505af1158015613355573d6000803e3d6000fd5b505050505b33600090815260028201602052604090205460ff1661338257600096505050505050506112a3565b3360009081526002820160209081526040808320805460ff1916905560078252918290208054835181840281018401909452808452606093928301828280156133f457602002820191906000526020600020905b81546001600160a01b031681526001909101906020018083116133d6575b5050835193945083925060009150505b8281101561344957896001600160a01b031684828151811061342257fe5b60200260200101516001600160a01b0316141561344157809150613449565b600101613404565b5081811061345357fe5b33600090815260076020526040902080546000190182146134d95780548190600019810190811061348057fe5b9060005260206000200160009054906101000a90046001600160a01b03168183815481106134aa57fe5b9060005260206000200160006101000a8154816001600160a01b0302191690836001600160a01b031602179055505b80546134e9826000198301614285565b507fe699a64c18b07ac5b7301aa273f36a2287239eb9501d81950672794afba29a0d8a3360405161351b929190615734565b60405180910390a160009c9b505050505050505050505050565b6000546001600160a01b0316331461355f5760405162461bcd60e51b8152600401610d5890615907565b613568816116a9565b6135845760405162461bcd60e51b8152600401610d5890615a17565b806001600160a01b03166318160ddd6040518163ffffffff1660e01b815260040160206040518083038186803b1580156135bd57600080fd5b505afa1580156135d1573d6000803e3d6000fd5b505050506040513d601f19601f820116820180604052506135f59190810190614ac4565b156136125760405162461bcd60e51b8152600401610d58906159e7565b806001600160a01b031663406de0b66040518163ffffffff1660e01b815260040160206040518083038186803b15801561364b57600080fd5b505afa15801561365f573d6000803e3d6000fd5b505050506040513d601f19601f8201168201806040525061368391908101906149de565b506001600160a01b0381166000908152600860205260408120805460ff199081168255600182018390556003909101805490911690555b600c548110156137a357816001600160a01b0316600c82815481106136db57fe5b6000918252602090912001546001600160a01b0316141561379b57600c8054600019810190811061370857fe5b600091825260209091200154600c80546001600160a01b03909216918390811061372e57fe5b600091825260209091200180546001600160a01b0319166001600160a01b0392909216919091179055600c8054600019810190811061376957fe5b600091825260209091200180546001600160a01b0319169055600c805490613795906000198301614285565b506137a3565b6001016136ba565b507f9710c341258431a6380fd1febe8985e6b6221e8398c287ea971f2ba85a6e1a10816040516137d39190615718565b60405180910390a150565b6000546001600160a01b031681565b60007f45b96fe442630264581b197e84bbada861235052c5a1aadfff9ea4e40a969aa083601181111561381c57fe5b83601381111561382857fe5b600060405161383993929190615a83565b60405180910390a182601181111561149957fe5b60005b600c548110156138ac57816001600160a01b0316600c828154811061387157fe5b6000918252602090912001546001600160a01b031614156138a45760405162461bcd60e51b8152600401610d5890615848565b600101613850565b50600c80546001810182556000919091527fdf6966c971051c3d54ec59162606531493a51404a002842f56009d7e5cf4a8c70180546001600160a01b0319166001600160a01b0392909216919091179055565b6001600160a01b03841660009081526011602052604081205481908190600019141561393557506000915060001990508161171f565b61393d6142a9565b6001600160a01b038816600090815260076020908152604080832080548251818502810185019093528083526060938301828280156139a557602002820191906000526020600020905b81546001600160a01b03168152600190910190602001808311613987575b50939450600093505050505b8151811015613c595760008282815181106139c857fe5b60200260200101519050806001600160a01b031663c37f68e28d6040518263ffffffff1660e01b81526004016139fe9190615646565b60806040518083038186803b158015613a1657600080fd5b505afa158015613a2a573d6000803e3d6000fd5b505050506040513d601f19601f82011682018060405250613a4e9190810190614ae2565b60808901526060880152604087015293508315613a7b5750600f96506000955085945061171f9350505050565b6040850151158015613a8f57506060850151155b8015613aad57508a6001600160a01b0316816001600160a01b031614155b15613ab85750613c51565b60408051602080820183526001600160a01b0380851660009081526008835284902060010154835260c0890192909252825190810183526080880151815260e088015260048054925163fc57d4df60e01b8152929091169163fc57d4df91613b2291859101615718565b60206040518083038186803b158015613b3a57600080fd5b505afa158015613b4e573d6000803e3d6000fd5b505050506040513d601f19601f82011682018060405250613b729190810190614ac4565b60a08601819052613b935750600d96506000955085945061171f9350505050565b604080516020810190915260a0860151815261010086015260c085015160e0860151613bcd91613bc291613fcc565b866101000151613fcc565b610120860181905260408601518651613be79291906140ad565b855261010085015160608601516020870151613c049291906140ad565b60208601526001600160a01b03818116908c161415613c4f57613c318561012001518b87602001516140ad565b60208601819052610100860151613c49918b906140ad565b60208601525b505b6001016139b1565b506001600160a01b038a1660009081526011602052604090205415613c94576001600160a01b038a1660009081526011602052604090205483525b602083015183511115613cb9575050602081015190516000945003915082905061171f565b505080516020909101516000945084935003905061171f565b600080600080613ce287876140d5565b90925090506000826003811115613cf557fe5b14613d065750915060009050612976565b613d1081866140fe565b935093505050935093915050565b60006114998383604051806040016040528060118152602001706164646974696f6e206f766572666c6f7760781b815250614121565b6000806000613d678460008060006138ff565b9250925092509193909250565b6000613d7e614272565b613d888484614151565b90506111b281614172565b6000613d9e846116a9565b613da9576009611798565b6001600160a01b038085166000908152600860209081526040808320938716835260029093019052205460ff16613de1576000611798565b600080613df185878660006138ff565b91935090915060009050826011811115613e0757fe5b14613e2157816011811115613e1857fe5b92505050611499565b8015613e2e576004613e18565b60009695505050505050565b6001600160a01b0382166000908152600860205260408120805460ff16613e65576009915050610f51565b6001600382015460ff166002811115613e7a57fe5b1415613f0057604051638897bd8560e01b81526001600160a01b03851690638897bd8590613eac908690600401615646565b602060405180830381600087803b158015613ec657600080fd5b505af1158015613eda573d6000803e3d6000fd5b505050506040513d601f19601f82011682018060405250613efe9190810190614ac4565b505b6001600160a01b038316600090815260028201602052604090205460ff16151560011415613f32576000915050610f51565b6001600160a01b03838116600090815260028301602090815260408083208054600160ff19909116811790915560078352818420805491820181558452919092200180546001600160a01b03191692871692909217909155517f3ab23ab0d51cccc0c3085aec51f99228625aa1a922b3a8ca89a26b0f2027a1a590613fba9086908690615726565b60405180910390a15060009392505050565b613fd4614272565b6040518060200160405280670de0b6b3a7640000613ffa86600001518660000151614181565b8161400157fe5b0490529392505050565b614013614272565b604051806020016040528061403e6140378660000151670de0b6b3a7640000614181565b85516141c3565b90529392505050565b5190511090565b60007f45b96fe442630264581b197e84bbada861235052c5a1aadfff9ea4e40a969aa084601181111561407d57fe5b84601381111561408957fe5b8460405161409993929190615aab565b60405180910390a18360118111156111b257fe5b60006140b7614272565b6140c18585614151565b90506119fc6140cf82614172565b84613d1e565b6000808383018481106140ed576000925090506140f7565b5060029150600090505b9250929050565b6000808383116141155750600090508183036140f7565b506003905060006140f7565b600083830182858210156141485760405162461bcd60e51b8152600401610d589190615827565b50949350505050565b614159614272565b604051806020016040528061403e856000015185614181565b51670de0b6b3a7640000900490565b600061149983836040518060400160405280601781526020017f6d756c7469706c69636174696f6e206f766572666c6f770000000000000000008152506141f6565b600061149983836040518060400160405280600e81526020016d646976696465206279207a65726f60901b81525061423e565b6000831580614203575082155b1561421057506000611499565b8383028385828161421d57fe5b041483906141485760405162461bcd60e51b8152600401610d589190615827565b6000818361425f5760405162461bcd60e51b8152600401610d589190615827565b5082848161426957fe5b04949350505050565b6040518060200160405280600081525090565b815481835581811115611d5857600083815260209020611d58918101908301614313565b6040518061014001604052806000815260200160008152602001600081526020016000815260200160008152602001600081526020016142e7614272565b81526020016142f4614272565b8152602001614301614272565b815260200161430e614272565b905290565b61213591905b8082111561432d5760008155600101614319565b5090565b8035610f5181615c42565b8051610f5181615c42565b600082601f83011261435857600080fd5b813561436b61436682615b6b565b615b44565b9150818183526020840193506020810190508385602084028201111561439057600080fd5b60005b838110156143bc57816143a68882614331565b8452506020928301929190910190600101614393565b5050505092915050565b600082601f8301126143d757600080fd5b81356143e561436682615b6b565b9150818183526020840193506020810190508385602084028201111561440a57600080fd5b60005b838110156143bc57816144208882614331565b845250602092830192919091019060010161440d565b60008083601f84011261444857600080fd5b50813567ffffffffffffffff81111561446057600080fd5b6020830191508360208202830111156140f757600080fd5b600082601f83011261448957600080fd5b813561449761436682615b6b565b915081818352602084019350602081019050838560208402820111156144bc57600080fd5b60005b838110156143bc57816144d28882614540565b84525060209283019291909101906001016144bf565b8035610f5181615c56565b8051610f5181615c56565b60008083601f84011261451057600080fd5b50813567ffffffffffffffff81111561452857600080fd5b6020830191508360018202830111156140f757600080fd5b8035610f5181615c5f565b8051610f5181615c5f565b8035610f5181615c68565b8035610f5181615c75565b8051610f5181615c75565b8035610f5181615c7e565b60006020828403121561459457600080fd5b60006111b28484614331565b6000602082840312156145b257600080fd5b60006111b2848461433c565b600080600080600060a086880312156145d657600080fd5b60006145e28888614331565b95505060206145f388828901614331565b945050604061460488828901614331565b935050606061461588828901614331565b925050608061462688828901614561565b9150509295509295909350565b60008060008060008060c0878903121561464c57600080fd5b60006146588989614331565b965050602061466989828a01614331565b955050604061467a89828a01614331565b945050606061468b89828a01614331565b935050608061469c89828a01614561565b92505060a06146ad89828a01614561565b9150509295509295509295565b600080600080608085870312156146d057600080fd5b60006146dc8787614331565b94505060206146ed87828801614331565b93505060406146fe87828801614331565b925050606061470f87828801614561565b91505092959194509250565b600080600080600060a0868803121561473357600080fd5b600061473f8888614331565b955050602061475088828901614331565b945050604061476188828901614331565b935050606061461588828901614561565b60008060006060848603121561478757600080fd5b60006147938686614331565b93505060206147a486828701614331565b92505060406147b586828701614561565b9150509250925092565b6000806000806000608086880312156147d757600080fd5b60006147e38888614331565b95505060206147f488828901614331565b945050604061480588828901614561565b935050606086013567ffffffffffffffff81111561482257600080fd5b61482e888289016144fe565b92509250509295509295909350565b6000806000806080858703121561485357600080fd5b600061485f8787614331565b945050602061487087828801614331565b93505060406146fe87828801614561565b6000806040838503121561489457600080fd5b60006148a08585614331565b92505060206148b185828601614540565b9150509250929050565b600080604083850312156148ce57600080fd5b60006148da8585614331565b92505060206148b185828601614556565b600080604083850312156148fe57600080fd5b600061490a8585614331565b92505060206148b185828601614561565b60006020828403121561492d57600080fd5b813567ffffffffffffffff81111561494457600080fd5b6111b284828501614347565b6000806000806040858703121561496657600080fd5b843567ffffffffffffffff81111561497d57600080fd5b61498987828801614436565b9450945050602085013567ffffffffffffffff8111156149a857600080fd5b6149b487828801614436565b95989497509550505050565b6000602082840312156149d257600080fd5b60006111b284846144e8565b6000602082840312156149f057600080fd5b60006111b284846144f3565b600060208284031215614a0e57600080fd5b60006111b28484614540565b60008060408385031215614a2d57600080fd5b6000614a398585614540565b92505060206148b1858286016144e8565b60008060408385031215614a5d57600080fd5b60006148da8585614540565b60008060408385031215614a7c57600080fd5b600061490a8585614540565b600060208284031215614a9a57600080fd5b60006111b2848461454b565b600060208284031215614ab857600080fd5b60006111b28484614561565b600060208284031215614ad657600080fd5b60006111b2848461456c565b60008060008060808587031215614af857600080fd5b6000614b04878761456c565b9450506020614b158782880161456c565b9350506040614b268782880161456c565b925050606061470f8782880161456c565b60008060408385031215614b4a57600080fd5b6000614b568585614577565b92505060206148b185828601614331565b600080600060608486031215614b7c57600080fd5b6000614b888686614577565b9350506020614b9986828701614331565b925050604084013567ffffffffffffffff811115614bb657600080fd5b6147b586828701614478565b600080600080600060a08688031215614bda57600080fd5b6000614be68888614577565b955050602086013567ffffffffffffffff811115614c0357600080fd5b614c0f888289016143c6565b945050604086013567ffffffffffffffff811115614c2c57600080fd5b614c3888828901614478565b9350506060614c49888289016144e8565b9250506080614626888289016144e8565b6000614c668383614c95565b505060200190565b6000614c668383614dcb565b6000614c668383615628565b614c8f81615bd6565b82525050565b614c8f81615b9f565b6000614ca982615b92565b614cb38185615b96565b9350614cbe83615b8c565b8060005b83811015614cec578151614cd68882614c5a565b9750614ce183615b8c565b925050600101614cc2565b509495945050505050565b6000614d0282615b92565b614d0c8185615b96565b9350614d1783615b8c565b8060005b83811015614cec578151614d2f8882614c6e565b9750614d3a83615b8c565b925050600101614d1b565b6000614d5082615b92565b614d5a8185615b96565b9350614d6583615b8c565b8060005b83811015614cec578151614d7d8882614c7a565b9750614d8883615b8c565b925050600101614d69565b614c8f81615baa565b6000614da782615b92565b614db181856112a3565b9350614dc1818560208601615c02565b9290920192915050565b614c8f81615baf565b614c8f81615be1565b614c8f81615bec565b614c8f81615bf7565b6000614dfa82615b92565b614e048185615b96565b9350614e14818560208601615c02565b614e1d81615c2e565b9093019392505050565b6000614e34601983615b96565b7f6d61726b657420737570706c7920636170207265616368656400000000000000815260200192915050565b6000614e6d601483615b96565b731b585c9ad95d08185b1c9958591e48185919195960621b815260200192915050565b6000614e9d602883615b96565b7f63616e6e6f742070617573652061206d61726b65742074686174206973206e6f8152671d081b1a5cdd195960c21b602082015260400192915050565b6000614ee7600483615b96565b63135a5b9d60e21b815260200192915050565b6000614f07603583615b96565b7f6f6e6c792061646d696e206f7220737570706c792063617020677561726469618152746e2063616e2073657420737570706c79206361707360581b602082015260400192915050565b6000614f5e602083615b96565b7f63616e6e6f74207369657a652066726f6d20637265646974206163636f756e74815260200192915050565b6000614f97601683615b96565b756f6e6c792061646d696e2063616e20756e706175736560501b815260200192915050565b6000614fc9601f83615b96565b7f63616e6e6f74206c697175696461746520637265646974206163636f756e7400815260200192915050565b6000615002600583615b96565b645365697a6560d81b815260200192915050565b6000615023602783615b96565b7f6f6e6c7920706175736520677561726469616e20616e642061646d696e2063618152666e20706175736560c81b602082015260400192915050565b600061506c601583615b96565b741b585c9ad95d08185b1c9958591e481b1a5cdd1959605a1b815260200192915050565b600061509d602683615b96565b7f6f6e6c792061646d696e2063616e2073657420626f72726f772063617020677581526530b93234b0b760d11b602082015260400192915050565b60006150e5602383615b96565b7f63616e6e6f74207472616e7366657220746f206120637265646974206163636f8152621d5b9d60ea1b602082015260400192915050565b600061512a600683615b96565b65426f72726f7760d01b815260200192915050565b600061514c601c83615b96565b7f6f6e6c792061646d696e206d61792064656c697374206d61726b657400000000815260200192915050565b6000615185601483615b96565b731d1bdd185b14dd5c1c1b1a595cc819985a5b195960621b815260200192915050565b60006151b5601a83615b96565b7f637265646974206163636f756e742063616e6e6f74206d696e74000000000000815260200192915050565b60006151ee602683615b96565b7f6f6e6c792061646d696e2063616e2073657420737570706c792063617020677581526530b93234b0b760d11b602082015260400192915050565b6000615236601283615b96565b711d1c985b9cd9995c881a5cc81c185d5cd95960721b815260200192915050565b6000615264601183615b96565b7072656465656d546f6b656e73207a65726f60781b815260200192915050565b6000615291602483615b96565b7f6f6e6c79206a546f6b656e20636f756c6420757064617465206974732076657281526339b4b7b760e11b602082015260400192915050565b60006152d7602883615b96565b7f6f6e6c792061646d696e2063616e207365742070726f746f636f6c20637265648152671a5d081b1a5b5a5d60c21b602082015260400192915050565b6000615321603583615b96565b7f6f6e6c792061646d696e206f7220626f72726f772063617020677561726469618152746e2063616e2073657420626f72726f77206361707360581b602082015260400192915050565b6000615378601583615b96565b7418da185b99d9481b9bdd08185d5d1a1bdc9a5e9959605a1b815260200192915050565b60006153a9602583615b96565b7f657869744d61726b65743a206765744163636f756e74536e617073686f742066815264185a5b195960da1b602082015260400192915050565b60006153f0601983615b96565b7f6d61726b657420626f72726f7720636170207265616368656400000000000000815260200192915050565b6000615429600f83615b96565b6e1cd95a5e99481a5cc81c185d5cd959608a1b815260200192915050565b6000615454600d83615b96565b6c1a5b9d985b1a59081a5b9c1d5d609a1b815260200192915050565b600061547d601083615b96565b6f6d61726b6574206e6f7420656d70747960801b815260200192915050565b60006154a9601583615b96565b7439b2b73232b91036bab9ba10313290352a37b5b2b760591b815260200192915050565b60006154da600883615b96565b672a3930b739b332b960c11b815260200192915050565b60006154fe601183615b96565b701b585c9ad95d081b9bdd081b1a5cdd1959607a1b815260200192915050565b600061552b600e83615b96565b6d1b5a5b9d081a5cc81c185d5cd95960921b815260200192915050565b6000615555601d83615b96565b7f6f6e6c792061646d696e206d617920737570706f7274206d61726b6574000000815260200192915050565b600061558e602783615b96565b7f6f6e6c7920756e6974726f6c6c65722061646d696e2063616e206368616e676581526620627261696e7360c81b602082015260400192915050565b60006155d7600983615b96565b68233630b9b43637b0b760b91b815260200192915050565b60006155fc601083615b96565b6f189bdc9c9bddc81a5cc81c185d5cd95960821b815260200192915050565b805160208301906116cc84825b614c8f81612135565b614c8f81615bd0565b60006114998284614d9c565b60208101610f518284614c95565b60208101610f518284614c86565b604081016156708285614c95565b6114996020830184614c95565b6060810161568b8286614c95565b6156986020830185614c95565b6111b2604083018461561b565b604081016156b38285614c95565b6114996020830184615628565b602080825281016114998184614cf7565b602080825281016114998184614d45565b60208101610f518284614d93565b606081016156fe8286614d93565b61570b6020830185615628565b6111b26040830184614dd4565b60208101610f518284614dcb565b604081016156708285614dcb565b604081016157428285614dcb565b6114996020830184614c86565b6060810161575d8286614dcb565b61570b6020830185614dd4565b606081016157788285614dcb565b818103602083015261578981614eda565b90506114996040830184614d93565b606081016157a68285614dcb565b81810360208301526157898161511d565b606081016157c58285614dcb565b8181036020830152615789816155ca565b606081016157e48286614dcb565b6157f16020830185615628565b6111b26040830184615628565b6040810161580c8285614dcb565b6114996020830184614dcb565b60208101610f518284614de6565b602080825281016114998184614def565b60208082528101610f5181614e27565b60208082528101610f5181614e60565b60208082528101610f5181614e90565b60208082528101610f5181614efa565b60208082528101610f5181614f51565b60208082528101610f5181614f8a565b60208082528101610f5181614fbc565b604080825281016158b881614ff5565b9050610f516020830184614d93565b60208082528101610f5181615016565b60208082528101610f518161505f565b60208082528101610f5181615090565b60208082528101610f51816150d8565b60208082528101610f518161513f565b60208082528101610f5181615178565b60208082528101610f51816151a8565b60208082528101610f51816151e1565b60208082528101610f5181615229565b60208082528101610f5181615257565b60208082528101610f5181615284565b60208082528101610f51816152ca565b60208082528101610f5181615314565b60208082528101610f518161536b565b60208082528101610f518161539c565b60208082528101610f51816153e3565b60208082528101610f518161541c565b60208082528101610f5181615447565b60208082528101610f5181615470565b60208082528101610f518161549c565b604080825281016158b8816154cd565b60208082528101610f51816154f1565b60208082528101610f518161551e565b60208082528101610f5181615548565b60208082528101610f5181615581565b60208082528101610f51816155ef565b60208101610f518284615628565b604081016156b38285615628565b60608101615a918286615628565b615a9e6020830185615628565b6111b26040830184614ddd565b606081016157e48286615628565b604081016156708285615631565b60608101615ad58286615631565b615ae26020830185614c95565b81810360408301526119fc8184614cf7565b60a08101615b028288615631565b8181036020830152615b148187614c9e565b90508181036040830152615b288186614cf7565b9050615b376060830185614d93565b612bc96080830184614d93565b60405181810167ffffffffffffffff81118282101715615b6357600080fd5b604052919050565b600067ffffffffffffffff821115615b8257600080fd5b5060209081020190565b60200190565b5190565b90815260200190565b6000610f5182615bc4565b151590565b6000610f5182615b9f565b806112a381615c38565b6001600160a01b031690565b60ff1690565b6000610f5182615baf565b6000610f5182615bba565b6000610f5182612135565b6000610f5182615bd0565b60005b83811015615c1d578181015183820152602001615c05565b838111156116cc5750506000910152565b601f01601f191690565b6003811061108857fe5b615c4b81615b9f565b811461108857600080fd5b615c4b81615baa565b615c4b81615baf565b6003811061108857600080fd5b615c4b81612135565b615c4b81615bd056fea365627a7a723158202db4d12dc18b0cbb16a431b65801badf631a26b0a73e22909ba818774d993ddc6c6578706572696d656e74616cf564736f6c63430005100040",
  "devdoc": {
    "author": "Compound (modified by Cream)",
    "methods": {
      "_delistMarket(address)": {
        "params": {
          "jToken": "The address of the market (token) to delist"
        }
      },
      "_setBorrowCapGuardian(address)": {
        "params": {
          "newBorrowCapGuardian": "The address of the new Borrow Cap Guardian"
        }
      },
      "_setCloseFactor(uint256)": {
        "details": "Admin function to set closeFactor",
        "params": {
          "newCloseFactorMantissa": "New close factor, scaled by 1e18"
        },
        "return": "uint 0=success, otherwise a failure. (See ErrorReporter for details)"
      },
      "_setCollateralFactor(address,uint256)": {
        "details": "Admin function to set per-market collateralFactor",
        "params": {
          "jToken": "The market to set the factor on",
          "newCollateralFactorMantissa": "The new collateral factor, scaled by 1e18"
        },
        "return": "uint 0=success, otherwise a failure. (See ErrorReporter for details)"
      },
      "_setCreditLimit(address,uint256)": {
        "params": {
          "creditLimit": "The credit limit",
          "protocol": "The address of the protocol"
        }
      },
      "_setLiquidationIncentive(uint256)": {
        "details": "Admin function to set liquidationIncentive",
        "params": {
          "newLiquidationIncentiveMantissa": "New liquidationIncentive scaled by 1e18"
        },
        "return": "uint 0=success, otherwise a failure. (See ErrorReporter for details)"
      },
      "_setMarketBorrowCaps(address[],uint256[])": {
        "details": "Admin or borrowCapGuardian function to set the borrow caps. A borrow cap of 0 corresponds to unlimited borrowing. If the total supplies     already exceeded the cap, it will prevent anyone to mint.",
        "params": {
          "jTokens": "The addresses of the markets (tokens) to change the borrow caps for",
          "newBorrowCaps": "The new borrow cap values in underlying to be set. A value of 0 corresponds to unlimited borrowing."
        }
      },
      "_setMarketSupplyCaps(address[],uint256[])": {
        "details": "Admin or supplyCapGuardian function to set the supply caps. A supply cap of 0 corresponds to unlimited supplying. If the total borrows     already exceeded the cap, it will prevent anyone to borrow.",
        "params": {
          "jTokens": "The addresses of the markets (tokens) to change the supply caps for",
          "newSupplyCaps": "The new supply cap values in underlying to be set. A value of 0 corresponds to unlimited supplying."
        }
      },
      "_setPauseGuardian(address)": {
        "params": {
          "newPauseGuardian": "The address of the new Pause Guardian"
        },
        "return": "uint 0=success, otherwise a failure. (See enum Error for details)"
      },
      "_setPriceOracle(address)": {
        "details": "Admin function to set a new price oracle",
        "return": "uint 0=success, otherwise a failure (see ErrorReporter.sol for details)"
      },
      "_setSupplyCapGuardian(address)": {
        "params": {
          "newSupplyCapGuardian": "The address of the new Supply Cap Guardian"
        }
      },
      "_supportMarket(address,uint8)": {
        "details": "Admin function to set isListed and add support for the market",
        "params": {
          "jToken": "The address of the market (token) to list",
          "version": "The version of the market (token)"
        },
        "return": "uint 0=success, otherwise a failure. (See enum Error for details)"
      },
      "borrowAllowed(address,address,uint256)": {
        "params": {
          "borrowAmount": "The amount of underlying the account would borrow",
          "borrower": "The account which would borrow the asset",
          "jToken": "The market to verify the borrow against"
        },
        "return": "0 if the borrow is allowed, otherwise a semi-opaque error code (See ErrorReporter.sol)"
      },
      "borrowVerify(address,address,uint256)": {
        "params": {
          "borrowAmount": "The amount of the underlying asset requested to borrow",
          "borrower": "The address borrowing the underlying",
          "jToken": "Asset whose underlying is being borrowed"
        }
      },
      "checkMembership(address,address)": {
        "params": {
          "account": "The address of the account to check",
          "jToken": "The jToken to check"
        },
        "return": "True if the account is in the asset, otherwise false."
      },
      "claimReward(uint8,address)": {
        "params": {
          "holder": "The address to claim JOE/AVAX for"
        }
      },
      "claimReward(uint8,address,address[])": {
        "params": {
          "holder": "The address to claim JOE/AVAX for",
          "jTokens": "The list of markets to claim JOE/AVAX in"
        }
      },
      "claimReward(uint8,address[],address[],bool,bool)": {
        "params": {
          "borrowers": "Whether or not to claim JOE/AVAX earned by borrowing",
          "holders": "The addresses to claim JOE/AVAX for",
          "jTokens": "The list of markets to claim JOE/AVAX in",
          "rewardType": "0 = JOE, 1 = AVAX",
          "suppliers": "Whether or not to claim JOE/AVAX earned by supplying"
        }
      },
      "enterMarkets(address[])": {
        "params": {
          "jTokens": "The list of addresses of the jToken markets to be enabled"
        },
        "return": "Success indicator for whether each corresponding market was entered"
      },
      "exitMarket(address)": {
        "details": "Sender must not have an outstanding borrow balance in the asset, or be providing necessary collateral for an outstanding borrow.",
        "params": {
          "jTokenAddress": "The address of the asset to be removed"
        },
        "return": "Whether or not the account successfully exited the market"
      },
      "flashloanAllowed(address,address,uint256,bytes)": {
        "params": {
          "amount": "The amount of the tokens",
          "jToken": "The market to verify the transfer against",
          "params": "The other parameters",
          "receiver": "The account which receives the tokens"
        }
      },
      "getAccountLiquidity(address)": {
        "return": "(possible error code (semi-opaque), account liquidity in excess of collateral requirements,         account shortfall below collateral requirements)"
      },
      "getAllMarkets()": {
        "details": "The automatic getter may be used to access an individual market.",
        "return": "The list of market addresses"
      },
      "getAssetsIn(address)": {
        "params": {
          "account": "The address of the account to pull assets for"
        },
        "return": "A dynamic list with the assets the account has entered"
      },
      "getHypotheticalAccountLiquidity(address,address,uint256,uint256)": {
        "params": {
          "account": "The account to determine liquidity for",
          "borrowAmount": "The amount of underlying to hypothetically borrow",
          "jTokenModify": "The market to hypothetically redeem/borrow in",
          "redeemTokens": "The number of tokens to hypothetically redeem"
        },
        "return": "(possible error code (semi-opaque), hypothetical account liquidity in excess of collateral requirements,         hypothetical account shortfall below collateral requirements)"
      },
      "isCreditAccount(address)": {
        "params": {
          "account": "The account needs to be checked"
        },
        "return": "The account is a credit account or not"
      },
      "isMarketListed(address)": {
        "params": {
          "jTokenAddress": "The address of the asset to be checked"
        },
        "return": "Whether or not the market is listed"
      },
      "liquidateBorrowAllowed(address,address,address,address,uint256)": {
        "params": {
          "borrower": "The address of the borrower",
          "jTokenBorrowed": "Asset which was borrowed by the borrower",
          "jTokenCollateral": "Asset which was used as collateral and will be seized",
          "liquidator": "The address repaying the borrow and seizing the collateral",
          "repayAmount": "The amount of underlying being repaid"
        }
      },
      "liquidateBorrowVerify(address,address,address,address,uint256,uint256)": {
        "params": {
          "actualRepayAmount": "The amount of underlying being repaid",
          "borrower": "The address of the borrower",
          "jTokenBorrowed": "Asset which was borrowed by the borrower",
          "jTokenCollateral": "Asset which was used as collateral and will be seized",
          "liquidator": "The address repaying the borrow and seizing the collateral"
        }
      },
      "liquidateCalculateSeizeTokens(address,address,uint256)": {
        "details": "Used in liquidation (called in jToken.liquidateBorrowFresh)",
        "params": {
          "actualRepayAmount": "The amount of jTokenBorrowed underlying to convert into jTokenCollateral tokens",
          "jTokenBorrowed": "The address of the borrowed jToken",
          "jTokenCollateral": "The address of the collateral jToken"
        },
        "return": "(errorCode, number of jTokenCollateral tokens to be seized in a liquidation)"
      },
      "mintAllowed(address,address,uint256)": {
        "params": {
          "jToken": "The market to verify the mint against",
          "mintAmount": "The amount of underlying being supplied to the market in exchange for tokens",
          "minter": "The account which would get the minted tokens"
        },
        "return": "0 if the mint is allowed, otherwise a semi-opaque error code (See ErrorReporter.sol)"
      },
      "mintVerify(address,address,uint256,uint256)": {
        "params": {
          "actualMintAmount": "The amount of the underlying asset being minted",
          "jToken": "Asset being minted",
          "mintTokens": "The number of tokens being minted",
          "minter": "The address minting the tokens"
        }
      },
      "redeemAllowed(address,address,uint256)": {
        "params": {
          "jToken": "The market to verify the redeem against",
          "redeemTokens": "The number of jTokens to exchange for the underlying asset in the market",
          "redeemer": "The account which would redeem the tokens"
        },
        "return": "0 if the redeem is allowed, otherwise a semi-opaque error code (See ErrorReporter.sol)"
      },
      "redeemVerify(address,address,uint256,uint256)": {
        "params": {
          "jToken": "Asset being redeemed",
          "redeemAmount": "The amount of the underlying asset being redeemed",
          "redeemTokens": "The number of tokens being redeemed",
          "redeemer": "The address redeeming the tokens"
        }
      },
      "repayBorrowAllowed(address,address,address,uint256)": {
        "params": {
          "borrower": "The account which would borrowed the asset",
          "jToken": "The market to verify the repay against",
          "payer": "The account which would repay the asset",
          "repayAmount": "The amount of the underlying asset the account would repay"
        },
        "return": "0 if the repay is allowed, otherwise a semi-opaque error code (See ErrorReporter.sol)"
      },
      "repayBorrowVerify(address,address,address,uint256,uint256)": {
        "params": {
          "actualRepayAmount": "The amount of underlying being repaid",
          "borrower": "The address of the borrower",
          "jToken": "Asset being repaid",
          "payer": "The address repaying the borrow"
        }
      },
      "seizeAllowed(address,address,address,address,uint256)": {
        "params": {
          "borrower": "The address of the borrower",
          "jTokenBorrowed": "Asset which was borrowed by the borrower",
          "jTokenCollateral": "Asset which was used as collateral and will be seized",
          "liquidator": "The address repaying the borrow and seizing the collateral",
          "seizeTokens": "The number of collateral tokens to seize"
        }
      },
      "seizeVerify(address,address,address,address,uint256)": {
        "params": {
          "borrower": "The address of the borrower",
          "jTokenBorrowed": "Asset which was borrowed by the borrower",
          "jTokenCollateral": "Asset which was used as collateral and will be seized",
          "liquidator": "The address repaying the borrow and seizing the collateral",
          "seizeTokens": "The number of collateral tokens to seize"
        }
      },
      "transferAllowed(address,address,address,uint256)": {
        "params": {
          "dst": "The account which receives the tokens",
          "jToken": "The market to verify the transfer against",
          "src": "The account which sources the tokens",
          "transferTokens": "The number of jTokens to transfer"
        },
        "return": "0 if the transfer is allowed, otherwise a semi-opaque error code (See ErrorReporter.sol)"
      },
      "transferVerify(address,address,address,uint256)": {
        "params": {
          "dst": "The account which receives the tokens",
          "jToken": "Asset being transferred",
          "src": "The account which sources the tokens",
          "transferTokens": "The number of jTokens to transfer"
        }
      },
      "updateJTokenVersion(address,uint8)": {
        "params": {
          "jToken": "Version of the asset being updated",
          "newVersion": "The new version"
        }
      }
    },
    "title": "Compound's Joetroller Contract"
  },
  "userdoc": {
    "methods": {
      "_delistMarket(address)": {
        "notice": "Remove the market from the markets mapping"
      },
      "_setBorrowCapGuardian(address)": {
        "notice": "Admin function to change the Borrow Cap Guardian"
      },
      "_setCloseFactor(uint256)": {
        "notice": "Sets the closeFactor used when liquidating borrows"
      },
      "_setCollateralFactor(address,uint256)": {
        "notice": "Sets the collateralFactor for a market"
      },
      "_setCreditLimit(address,uint256)": {
        "notice": "Sets whitelisted protocol's credit limit"
      },
      "_setLiquidationIncentive(uint256)": {
        "notice": "Sets liquidationIncentive"
      },
      "_setMarketBorrowCaps(address[],uint256[])": {
        "notice": "Set the given borrow caps for the given jToken markets. Borrowing that brings total borrows to or above borrow cap will revert."
      },
      "_setMarketSupplyCaps(address[],uint256[])": {
        "notice": "Set the given supply caps for the given jToken markets. Supplying that brings total supplys to or above supply cap will revert."
      },
      "_setPauseGuardian(address)": {
        "notice": "Admin function to change the Pause Guardian"
      },
      "_setPriceOracle(address)": {
        "notice": "Sets a new price oracle for the joetroller"
      },
      "_setRewardDistributor(address)": {
        "notice": "* Admin Functions **"
      },
      "_setSupplyCapGuardian(address)": {
        "notice": "Admin function to change the Supply Cap Guardian"
      },
      "_supportMarket(address,uint8)": {
        "notice": "Add the market to the markets mapping and set it as listed"
      },
      "borrowAllowed(address,address,uint256)": {
        "notice": "Checks if the account should be allowed to borrow the underlying asset of the given market"
      },
      "borrowVerify(address,address,uint256)": {
        "notice": "Validates borrow and reverts on rejection. May emit logs."
      },
      "checkMembership(address,address)": {
        "notice": "Returns whether the given account is entered in the given asset"
      },
      "claimReward(uint8,address)": {
        "notice": "Claim all the JOE/AVAX accrued by holder in all markets"
      },
      "claimReward(uint8,address,address[])": {
        "notice": "Claim all the JOE/AVAX accrued by holder in the specified markets"
      },
      "claimReward(uint8,address[],address[],bool,bool)": {
        "notice": "Claim all JOE/AVAX  accrued by the holders"
      },
      "enterMarkets(address[])": {
        "notice": "Add assets to be included in account liquidity calculation"
      },
      "exitMarket(address)": {
        "notice": "Removes asset from sender's account liquidity calculation"
      },
      "flashloanAllowed(address,address,uint256,bytes)": {
        "notice": "Checks if the account should be allowed to transfer tokens in the given market"
      },
      "getAccountLiquidity(address)": {
        "notice": "Determine the current account liquidity wrt collateral requirements"
      },
      "getAllMarkets()": {
        "notice": "Return all of the markets"
      },
      "getAssetsIn(address)": {
        "notice": "Returns the assets an account has entered"
      },
      "getHypotheticalAccountLiquidity(address,address,uint256,uint256)": {
        "notice": "Determine what the account liquidity would be if the given amounts were redeemed/borrowed"
      },
      "isCreditAccount(address)": {
        "notice": "Check if the account is a credit account"
      },
      "isMarketListed(address)": {
        "notice": "Return a specific market is listed or not"
      },
      "liquidateBorrowAllowed(address,address,address,address,uint256)": {
        "notice": "Checks if the liquidation should be allowed to occur"
      },
      "liquidateBorrowVerify(address,address,address,address,uint256,uint256)": {
        "notice": "Validates liquidateBorrow and reverts on rejection. May emit logs."
      },
      "liquidateCalculateSeizeTokens(address,address,uint256)": {
        "notice": "Calculate number of tokens of collateral asset to seize given an underlying amount"
      },
      "mintAllowed(address,address,uint256)": {
        "notice": "Checks if the account should be allowed to mint tokens in the given market"
      },
      "mintVerify(address,address,uint256,uint256)": {
        "notice": "Validates mint and reverts on rejection. May emit logs."
      },
      "redeemAllowed(address,address,uint256)": {
        "notice": "Checks if the account should be allowed to redeem tokens in the given market"
      },
      "redeemVerify(address,address,uint256,uint256)": {
        "notice": "Validates redeem and reverts on rejection. May emit logs."
      },
      "repayBorrowAllowed(address,address,address,uint256)": {
        "notice": "Checks if the account should be allowed to repay a borrow in the given market"
      },
      "repayBorrowVerify(address,address,address,uint256,uint256)": {
        "notice": "Validates repayBorrow and reverts on rejection. May emit logs."
      },
      "seizeAllowed(address,address,address,address,uint256)": {
        "notice": "Checks if the seizing of assets should be allowed to occur"
      },
      "seizeVerify(address,address,address,address,uint256)": {
        "notice": "Validates seize and reverts on rejection. May emit logs."
      },
      "transferAllowed(address,address,address,uint256)": {
        "notice": "Checks if the account should be allowed to transfer tokens in the given market"
      },
      "transferVerify(address,address,address,uint256)": {
        "notice": "Validates transfer and reverts on rejection. May emit logs."
      },
      "updateJTokenVersion(address,uint8)": {
        "notice": "Update JToken's version."
      }
    }
  },
  "storageLayout": {
    "storage": [
      {
        "astId": 20825,
        "contract": "contracts/Joetroller.sol:Joetroller",
        "label": "admin",
        "offset": 0,
        "slot": "0",
        "type": "t_address"
      },
      {
        "astId": 20827,
        "contract": "contracts/Joetroller.sol:Joetroller",
        "label": "pendingAdmin",
        "offset": 0,
        "slot": "1",
        "type": "t_address"
      },
      {
        "astId": 20829,
        "contract": "contracts/Joetroller.sol:Joetroller",
        "label": "joetrollerImplementation",
        "offset": 0,
        "slot": "2",
        "type": "t_address"
      },
      {
        "astId": 20831,
        "contract": "contracts/Joetroller.sol:Joetroller",
        "label": "pendingJoetrollerImplementation",
        "offset": 0,
        "slot": "3",
        "type": "t_address"
      },
      {
        "astId": 20836,
        "contract": "contracts/Joetroller.sol:Joetroller",
        "label": "oracle",
        "offset": 0,
        "slot": "4",
        "type": "t_contract(PriceOracle)21961"
      },
      {
        "astId": 20838,
        "contract": "contracts/Joetroller.sol:Joetroller",
        "label": "closeFactorMantissa",
        "offset": 0,
        "slot": "5",
        "type": "t_uint256"
      },
      {
        "astId": 20840,
        "contract": "contracts/Joetroller.sol:Joetroller",
        "label": "liquidationIncentiveMantissa",
        "offset": 0,
        "slot": "6",
        "type": "t_uint256"
      },
      {
        "astId": 20845,
        "contract": "contracts/Joetroller.sol:Joetroller",
        "label": "accountAssets",
        "offset": 0,
        "slot": "7",
        "type": "t_mapping(t_address,t_array(t_contract(JToken)11391)dyn_storage)"
      },
      {
        "astId": 20864,
        "contract": "contracts/Joetroller.sol:Joetroller",
        "label": "markets",
        "offset": 0,
        "slot": "8",
        "type": "t_mapping(t_address,t_struct(Market)20860_storage)"
      },
      {
        "astId": 20866,
        "contract": "contracts/Joetroller.sol:Joetroller",
        "label": "pauseGuardian",
        "offset": 0,
        "slot": "9",
        "type": "t_address"
      },
      {
        "astId": 20868,
        "contract": "contracts/Joetroller.sol:Joetroller",
        "label": "_mintGuardianPaused",
        "offset": 20,
        "slot": "9",
        "type": "t_bool"
      },
      {
        "astId": 20870,
        "contract": "contracts/Joetroller.sol:Joetroller",
        "label": "_borrowGuardianPaused",
        "offset": 21,
        "slot": "9",
        "type": "t_bool"
      },
      {
        "astId": 20872,
        "contract": "contracts/Joetroller.sol:Joetroller",
        "label": "transferGuardianPaused",
        "offset": 22,
        "slot": "9",
        "type": "t_bool"
      },
      {
        "astId": 20874,
        "contract": "contracts/Joetroller.sol:Joetroller",
        "label": "seizeGuardianPaused",
        "offset": 23,
        "slot": "9",
        "type": "t_bool"
      },
      {
        "astId": 20878,
        "contract": "contracts/Joetroller.sol:Joetroller",
        "label": "mintGuardianPaused",
        "offset": 0,
        "slot": "10",
        "type": "t_mapping(t_address,t_bool)"
      },
      {
        "astId": 20882,
        "contract": "contracts/Joetroller.sol:Joetroller",
        "label": "borrowGuardianPaused",
        "offset": 0,
        "slot": "11",
        "type": "t_mapping(t_address,t_bool)"
      },
      {
        "astId": 20885,
        "contract": "contracts/Joetroller.sol:Joetroller",
        "label": "allMarkets",
        "offset": 0,
        "slot": "12",
        "type": "t_array(t_contract(JToken)11391)dyn_storage"
      },
      {
        "astId": 20887,
        "contract": "contracts/Joetroller.sol:Joetroller",
        "label": "borrowCapGuardian",
        "offset": 0,
        "slot": "13",
        "type": "t_address"
      },
      {
        "astId": 20891,
        "contract": "contracts/Joetroller.sol:Joetroller",
        "label": "borrowCaps",
        "offset": 0,
        "slot": "14",
        "type": "t_mapping(t_address,t_uint256)"
      },
      {
        "astId": 20893,
        "contract": "contracts/Joetroller.sol:Joetroller",
        "label": "supplyCapGuardian",
        "offset": 0,
        "slot": "15",
        "type": "t_address"
      },
      {
        "astId": 20897,
        "contract": "contracts/Joetroller.sol:Joetroller",
        "label": "supplyCaps",
        "offset": 0,
        "slot": "16",
        "type": "t_mapping(t_address,t_uint256)"
      },
      {
        "astId": 20901,
        "contract": "contracts/Joetroller.sol:Joetroller",
        "label": "creditLimits",
        "offset": 0,
        "slot": "17",
        "type": "t_mapping(t_address,t_uint256)"
      },
      {
        "astId": 20905,
        "contract": "contracts/Joetroller.sol:Joetroller",
        "label": "flashloanGuardianPaused",
        "offset": 0,
        "slot": "18",
        "type": "t_mapping(t_address,t_bool)"
      },
      {
        "astId": 20907,
        "contract": "contracts/Joetroller.sol:Joetroller",
        "label": "rewardDistributor",
        "offset": 0,
        "slot": "19",
        "type": "t_address_payable"
      }
    ],
    "types": {
      "t_address": {
        "encoding": "inplace",
        "label": "address",
        "numberOfBytes": "20"
      },
      "t_address_payable": {
        "encoding": "inplace",
        "label": "address payable",
        "numberOfBytes": "20"
      },
      "t_array(t_contract(JToken)11391)dyn_storage": {
        "base": "t_contract(JToken)11391",
        "encoding": "dynamic_array",
        "label": "contract JToken[]",
        "numberOfBytes": "32"
      },
      "t_bool": {
        "encoding": "inplace",
        "label": "bool",
        "numberOfBytes": "1"
      },
      "t_contract(JToken)11391": {
        "encoding": "inplace",
        "label": "contract JToken",
        "numberOfBytes": "20"
      },
      "t_contract(PriceOracle)21961": {
        "encoding": "inplace",
        "label": "contract PriceOracle",
        "numberOfBytes": "20"
      },
      "t_enum(Version)20849": {
        "encoding": "inplace",
        "label": "enum JoetrollerV1Storage.Version",
        "numberOfBytes": "1"
      },
      "t_mapping(t_address,t_array(t_contract(JToken)11391)dyn_storage)": {
        "encoding": "mapping",
        "key": "t_address",
        "label": "mapping(address => contract JToken[])",
        "numberOfBytes": "32",
        "value": "t_array(t_contract(JToken)11391)dyn_storage"
      },
      "t_mapping(t_address,t_bool)": {
        "encoding": "mapping",
        "key": "t_address",
        "label": "mapping(address => bool)",
        "numberOfBytes": "32",
        "value": "t_bool"
      },
      "t_mapping(t_address,t_struct(Market)20860_storage)": {
        "encoding": "mapping",
        "key": "t_address",
        "label": "mapping(address => struct JoetrollerV1Storage.Market)",
        "numberOfBytes": "32",
        "value": "t_struct(Market)20860_storage"
      },
      "t_mapping(t_address,t_uint256)": {
        "encoding": "mapping",
        "key": "t_address",
        "label": "mapping(address => uint256)",
        "numberOfBytes": "32",
        "value": "t_uint256"
      },
      "t_struct(Market)20860_storage": {
        "encoding": "inplace",
        "label": "struct JoetrollerV1Storage.Market",
        "members": [
          {
            "astId": 20851,
            "contract": "contracts/Joetroller.sol:Joetroller",
            "label": "isListed",
            "offset": 0,
            "slot": "0",
            "type": "t_bool"
          },
          {
            "astId": 20853,
            "contract": "contracts/Joetroller.sol:Joetroller",
            "label": "collateralFactorMantissa",
            "offset": 0,
            "slot": "1",
            "type": "t_uint256"
          },
          {
            "astId": 20857,
            "contract": "contracts/Joetroller.sol:Joetroller",
            "label": "accountMembership",
            "offset": 0,
            "slot": "2",
            "type": "t_mapping(t_address,t_bool)"
          },
          {
            "astId": 20859,
            "contract": "contracts/Joetroller.sol:Joetroller",
            "label": "version",
            "offset": 0,
            "slot": "3",
            "type": "t_enum(Version)20849"
          }
        ],
        "numberOfBytes": "128"
      },
      "t_uint256": {
        "encoding": "inplace",
        "label": "uint256",
        "numberOfBytes": "32"
      }
    }
  }
}