{
  "address": "0xF15837081413cd65FA451a616A49f6FA4CC234aE",
  "abi": [
    {
      "inputs": [],
      "payable": false,
      "stateMutability": "nonpayable",
      "type": "constructor"
    },
    {
      "anonymous": false,
      "inputs": [
        {
          "indexed": false,
          "internalType": "uint256",
          "name": "cashPrior",
          "type": "uint256"
        },
        {
          "indexed": false,
          "internalType": "uint256",
          "name": "interestAccumulated",
          "type": "uint256"
        },
        {
          "indexed": false,
          "internalType": "uint256",
          "name": "borrowIndex",
          "type": "uint256"
        },
        {
          "indexed": false,
          "internalType": "uint256",
          "name": "totalBorrows",
          "type": "uint256"
        }
      ],
      "name": "AccrueInterest",
      "type": "event"
    },
    {
      "anonymous": false,
      "inputs": [
        {
          "indexed": true,
          "internalType": "address",
          "name": "owner",
          "type": "address"
        },
        {
          "indexed": true,
          "internalType": "address",
          "name": "spender",
          "type": "address"
        },
        {
          "indexed": false,
          "internalType": "uint256",
          "name": "amount",
          "type": "uint256"
        }
      ],
      "name": "Approval",
      "type": "event"
    },
    {
      "anonymous": false,
      "inputs": [
        {
          "indexed": false,
          "internalType": "address",
          "name": "borrower",
          "type": "address"
        },
        {
          "indexed": false,
          "internalType": "uint256",
          "name": "borrowAmount",
          "type": "uint256"
        },
        {
          "indexed": false,
          "internalType": "uint256",
          "name": "accountBorrows",
          "type": "uint256"
        },
        {
          "indexed": false,
          "internalType": "uint256",
          "name": "totalBorrows",
          "type": "uint256"
        }
      ],
      "name": "Borrow",
      "type": "event"
    },
    {
      "anonymous": false,
      "inputs": [
        {
          "indexed": false,
          "internalType": "uint256",
          "name": "error",
          "type": "uint256"
        },
        {
          "indexed": false,
          "internalType": "uint256",
          "name": "info",
          "type": "uint256"
        },
        {
          "indexed": false,
          "internalType": "uint256",
          "name": "detail",
          "type": "uint256"
        }
      ],
      "name": "Failure",
      "type": "event"
    },
    {
      "anonymous": false,
      "inputs": [
        {
          "indexed": true,
          "internalType": "address",
          "name": "receiver",
          "type": "address"
        },
        {
          "indexed": false,
          "internalType": "uint256",
          "name": "amount",
          "type": "uint256"
        },
        {
          "indexed": false,
          "internalType": "uint256",
          "name": "totalFee",
          "type": "uint256"
        },
        {
          "indexed": false,
          "internalType": "uint256",
          "name": "reservesFee",
          "type": "uint256"
        }
      ],
      "name": "Flashloan",
      "type": "event"
    },
    {
      "anonymous": false,
      "inputs": [
        {
          "indexed": false,
          "internalType": "address",
          "name": "liquidator",
          "type": "address"
        },
        {
          "indexed": false,
          "internalType": "address",
          "name": "borrower",
          "type": "address"
        },
        {
          "indexed": false,
          "internalType": "uint256",
          "name": "repayAmount",
          "type": "uint256"
        },
        {
          "indexed": false,
          "internalType": "address",
          "name": "jTokenCollateral",
          "type": "address"
        },
        {
          "indexed": false,
          "internalType": "uint256",
          "name": "seizeTokens",
          "type": "uint256"
        }
      ],
      "name": "LiquidateBorrow",
      "type": "event"
    },
    {
      "anonymous": false,
      "inputs": [
        {
          "indexed": false,
          "internalType": "address",
          "name": "minter",
          "type": "address"
        },
        {
          "indexed": false,
          "internalType": "uint256",
          "name": "mintAmount",
          "type": "uint256"
        },
        {
          "indexed": false,
          "internalType": "uint256",
          "name": "mintTokens",
          "type": "uint256"
        }
      ],
      "name": "Mint",
      "type": "event"
    },
    {
      "anonymous": false,
      "inputs": [
        {
          "indexed": false,
          "internalType": "address",
          "name": "oldAdmin",
          "type": "address"
        },
        {
          "indexed": false,
          "internalType": "address",
          "name": "newAdmin",
          "type": "address"
        }
      ],
      "name": "NewAdmin",
      "type": "event"
    },
    {
      "anonymous": false,
      "inputs": [
        {
          "indexed": false,
          "internalType": "address",
          "name": "token",
          "type": "address"
        },
        {
          "indexed": false,
          "internalType": "uint256",
          "name": "newCap",
          "type": "uint256"
        }
      ],
      "name": "NewCollateralCap",
      "type": "event"
    },
    {
      "anonymous": false,
      "inputs": [
        {
          "indexed": false,
          "internalType": "contract JoetrollerInterface",
          "name": "oldJoetroller",
          "type": "address"
        },
        {
          "indexed": false,
          "internalType": "contract JoetrollerInterface",
          "name": "newJoetroller",
          "type": "address"
        }
      ],
      "name": "NewJoetroller",
      "type": "event"
    },
    {
      "anonymous": false,
      "inputs": [
        {
          "indexed": false,
          "internalType": "contract InterestRateModel",
          "name": "oldInterestRateModel",
          "type": "address"
        },
        {
          "indexed": false,
          "internalType": "contract InterestRateModel",
          "name": "newInterestRateModel",
          "type": "address"
        }
      ],
      "name": "NewMarketInterestRateModel",
      "type": "event"
    },
    {
      "anonymous": false,
      "inputs": [
        {
          "indexed": false,
          "internalType": "address",
          "name": "oldPendingAdmin",
          "type": "address"
        },
        {
          "indexed": false,
          "internalType": "address",
          "name": "newPendingAdmin",
          "type": "address"
        }
      ],
      "name": "NewPendingAdmin",
      "type": "event"
    },
    {
      "anonymous": false,
      "inputs": [
        {
          "indexed": false,
          "internalType": "uint256",
          "name": "oldReserveFactorMantissa",
          "type": "uint256"
        },
        {
          "indexed": false,
          "internalType": "uint256",
          "name": "newReserveFactorMantissa",
          "type": "uint256"
        }
      ],
      "name": "NewReserveFactor",
      "type": "event"
    },
    {
      "anonymous": false,
      "inputs": [
        {
          "indexed": false,
          "internalType": "address",
          "name": "redeemer",
          "type": "address"
        },
        {
          "indexed": false,
          "internalType": "uint256",
          "name": "redeemAmount",
          "type": "uint256"
        },
        {
          "indexed": false,
          "internalType": "uint256",
          "name": "redeemTokens",
          "type": "uint256"
        }
      ],
      "name": "Redeem",
      "type": "event"
    },
    {
      "anonymous": false,
      "inputs": [
        {
          "indexed": false,
          "internalType": "address",
          "name": "payer",
          "type": "address"
        },
        {
          "indexed": false,
          "internalType": "address",
          "name": "borrower",
          "type": "address"
        },
        {
          "indexed": false,
          "internalType": "uint256",
          "name": "repayAmount",
          "type": "uint256"
        },
        {
          "indexed": false,
          "internalType": "uint256",
          "name": "accountBorrows",
          "type": "uint256"
        },
        {
          "indexed": false,
          "internalType": "uint256",
          "name": "totalBorrows",
          "type": "uint256"
        }
      ],
      "name": "RepayBorrow",
      "type": "event"
    },
    {
      "anonymous": false,
      "inputs": [
        {
          "indexed": false,
          "internalType": "address",
          "name": "benefactor",
          "type": "address"
        },
        {
          "indexed": false,
          "internalType": "uint256",
          "name": "addAmount",
          "type": "uint256"
        },
        {
          "indexed": false,
          "internalType": "uint256",
          "name": "newTotalReserves",
          "type": "uint256"
        }
      ],
      "name": "ReservesAdded",
      "type": "event"
    },
    {
      "anonymous": false,
      "inputs": [
        {
          "indexed": false,
          "internalType": "address",
          "name": "admin",
          "type": "address"
        },
        {
          "indexed": false,
          "internalType": "uint256",
          "name": "reduceAmount",
          "type": "uint256"
        },
        {
          "indexed": false,
          "internalType": "uint256",
          "name": "newTotalReserves",
          "type": "uint256"
        }
      ],
      "name": "ReservesReduced",
      "type": "event"
    },
    {
      "anonymous": false,
      "inputs": [
        {
          "indexed": true,
          "internalType": "address",
          "name": "from",
          "type": "address"
        },
        {
          "indexed": true,
          "internalType": "address",
          "name": "to",
          "type": "address"
        },
        {
          "indexed": false,
          "internalType": "uint256",
          "name": "amount",
          "type": "uint256"
        }
      ],
      "name": "Transfer",
      "type": "event"
    },
    {
      "anonymous": false,
      "inputs": [
        {
          "indexed": false,
          "internalType": "address",
          "name": "account",
          "type": "address"
        },
        {
          "indexed": false,
          "internalType": "uint256",
          "name": "newCollateralTokens",
          "type": "uint256"
        }
      ],
      "name": "UserCollateralChanged",
      "type": "event"
    },
    {
      "constant": false,
      "inputs": [],
      "name": "_acceptAdmin",
      "outputs": [
        {
          "internalType": "uint256",
          "name": "",
          "type": "uint256"
        }
      ],
      "payable": false,
      "stateMutability": "nonpayable",
      "type": "function"
    },
    {
      "constant": false,
      "inputs": [
        {
          "internalType": "uint256",
          "name": "addAmount",
          "type": "uint256"
        }
      ],
      "name": "_addReserves",
      "outputs": [
        {
          "internalType": "uint256",
          "name": "",
          "type": "uint256"
        }
      ],
      "payable": false,
      "stateMutability": "nonpayable",
      "type": "function"
    },
    {
      "constant": false,
      "inputs": [
        {
          "internalType": "bytes",
          "name": "data",
          "type": "bytes"
        }
      ],
      "name": "_becomeImplementation",
      "outputs": [],
      "payable": false,
      "stateMutability": "nonpayable",
      "type": "function"
    },
    {
      "constant": false,
      "inputs": [
        {
          "internalType": "uint256",
          "name": "reduceAmount",
          "type": "uint256"
        }
      ],
      "name": "_reduceReserves",
      "outputs": [
        {
          "internalType": "uint256",
          "name": "",
          "type": "uint256"
        }
      ],
      "payable": false,
      "stateMutability": "nonpayable",
      "type": "function"
    },
    {
      "constant": false,
      "inputs": [],
      "name": "_resignImplementation",
      "outputs": [],
      "payable": false,
      "stateMutability": "nonpayable",
      "type": "function"
    },
    {
      "constant": false,
      "inputs": [
        {
          "internalType": "uint256",
          "name": "newCollateralCap",
          "type": "uint256"
        }
      ],
      "name": "_setCollateralCap",
      "outputs": [],
      "payable": false,
      "stateMutability": "nonpayable",
      "type": "function"
    },
    {
      "constant": false,
      "inputs": [
        {
          "internalType": "contract InterestRateModel",
          "name": "newInterestRateModel",
          "type": "address"
        }
      ],
      "name": "_setInterestRateModel",
      "outputs": [
        {
          "internalType": "uint256",
          "name": "",
          "type": "uint256"
        }
      ],
      "payable": false,
      "stateMutability": "nonpayable",
      "type": "function"
    },
    {
      "constant": false,
      "inputs": [
        {
          "internalType": "contract JoetrollerInterface",
          "name": "newJoetroller",
          "type": "address"
        }
      ],
      "name": "_setJoetroller",
      "outputs": [
        {
          "internalType": "uint256",
          "name": "",
          "type": "uint256"
        }
      ],
      "payable": false,
      "stateMutability": "nonpayable",
      "type": "function"
    },
    {
      "constant": false,
      "inputs": [
        {
          "internalType": "address payable",
          "name": "newPendingAdmin",
          "type": "address"
        }
      ],
      "name": "_setPendingAdmin",
      "outputs": [
        {
          "internalType": "uint256",
          "name": "",
          "type": "uint256"
        }
      ],
      "payable": false,
      "stateMutability": "nonpayable",
      "type": "function"
    },
    {
      "constant": false,
      "inputs": [
        {
          "internalType": "uint256",
          "name": "newReserveFactorMantissa",
          "type": "uint256"
        }
      ],
      "name": "_setReserveFactor",
      "outputs": [
        {
          "internalType": "uint256",
          "name": "",
          "type": "uint256"
        }
      ],
      "payable": false,
      "stateMutability": "nonpayable",
      "type": "function"
    },
    {
      "constant": true,
      "inputs": [
        {
          "internalType": "address",
          "name": "",
          "type": "address"
        }
      ],
      "name": "accountCollateralTokens",
      "outputs": [
        {
          "internalType": "uint256",
          "name": "",
          "type": "uint256"
        }
      ],
      "payable": false,
      "stateMutability": "view",
      "type": "function"
    },
    {
      "constant": true,
      "inputs": [],
      "name": "accrualBlockTimestamp",
      "outputs": [
        {
          "internalType": "uint256",
          "name": "",
          "type": "uint256"
        }
      ],
      "payable": false,
      "stateMutability": "view",
      "type": "function"
    },
    {
      "constant": false,
      "inputs": [],
      "name": "accrueInterest",
      "outputs": [
        {
          "internalType": "uint256",
          "name": "",
          "type": "uint256"
        }
      ],
      "payable": false,
      "stateMutability": "nonpayable",
      "type": "function"
    },
    {
      "constant": true,
      "inputs": [],
      "name": "admin",
      "outputs": [
        {
          "internalType": "address payable",
          "name": "",
          "type": "address"
        }
      ],
      "payable": false,
      "stateMutability": "view",
      "type": "function"
    },
    {
      "constant": true,
      "inputs": [
        {
          "internalType": "address",
          "name": "owner",
          "type": "address"
        },
        {
          "internalType": "address",
          "name": "spender",
          "type": "address"
        }
      ],
      "name": "allowance",
      "outputs": [
        {
          "internalType": "uint256",
          "name": "",
          "type": "uint256"
        }
      ],
      "payable": false,
      "stateMutability": "view",
      "type": "function"
    },
    {
      "constant": false,
      "inputs": [
        {
          "internalType": "address",
          "name": "spender",
          "type": "address"
        },
        {
          "internalType": "uint256",
          "name": "amount",
          "type": "uint256"
        }
      ],
      "name": "approve",
      "outputs": [
        {
          "internalType": "bool",
          "name": "",
          "type": "bool"
        }
      ],
      "payable": false,
      "stateMutability": "nonpayable",
      "type": "function"
    },
    {
      "constant": true,
      "inputs": [
        {
          "internalType": "address",
          "name": "owner",
          "type": "address"
        }
      ],
      "name": "balanceOf",
      "outputs": [
        {
          "internalType": "uint256",
          "name": "",
          "type": "uint256"
        }
      ],
      "payable": false,
      "stateMutability": "view",
      "type": "function"
    },
    {
      "constant": false,
      "inputs": [
        {
          "internalType": "address",
          "name": "owner",
          "type": "address"
        }
      ],
      "name": "balanceOfUnderlying",
      "outputs": [
        {
          "internalType": "uint256",
          "name": "",
          "type": "uint256"
        }
      ],
      "payable": false,
      "stateMutability": "nonpayable",
      "type": "function"
    },
    {
      "constant": false,
      "inputs": [
        {
          "internalType": "uint256",
          "name": "borrowAmount",
          "type": "uint256"
        }
      ],
      "name": "borrow",
      "outputs": [
        {
          "internalType": "uint256",
          "name": "",
          "type": "uint256"
        }
      ],
      "payable": false,
      "stateMutability": "nonpayable",
      "type": "function"
    },
    {
      "constant": false,
      "inputs": [
        {
          "internalType": "address",
          "name": "account",
          "type": "address"
        }
      ],
      "name": "borrowBalanceCurrent",
      "outputs": [
        {
          "internalType": "uint256",
          "name": "",
          "type": "uint256"
        }
      ],
      "payable": false,
      "stateMutability": "nonpayable",
      "type": "function"
    },
    {
      "constant": true,
      "inputs": [
        {
          "internalType": "address",
          "name": "account",
          "type": "address"
        }
      ],
      "name": "borrowBalanceStored",
      "outputs": [
        {
          "internalType": "uint256",
          "name": "",
          "type": "uint256"
        }
      ],
      "payable": false,
      "stateMutability": "view",
      "type": "function"
    },
    {
      "constant": true,
      "inputs": [],
      "name": "borrowIndex",
      "outputs": [
        {
          "internalType": "uint256",
          "name": "",
          "type": "uint256"
        }
      ],
      "payable": false,
      "stateMutability": "view",
      "type": "function"
    },
    {
      "constant": true,
      "inputs": [],
      "name": "borrowRatePerSecond",
      "outputs": [
        {
          "internalType": "uint256",
          "name": "",
          "type": "uint256"
        }
      ],
      "payable": false,
      "stateMutability": "view",
      "type": "function"
    },
    {
      "constant": true,
      "inputs": [],
      "name": "collateralCap",
      "outputs": [
        {
          "internalType": "uint256",
          "name": "",
          "type": "uint256"
        }
      ],
      "payable": false,
      "stateMutability": "view",
      "type": "function"
    },
    {
      "constant": true,
      "inputs": [],
      "name": "decimals",
      "outputs": [
        {
          "internalType": "uint8",
          "name": "",
          "type": "uint8"
        }
      ],
      "payable": false,
      "stateMutability": "view",
      "type": "function"
    },
    {
      "constant": true,
      "inputs": [
        {
          "internalType": "uint256",
          "name": "change",
          "type": "uint256"
        },
        {
          "internalType": "bool",
          "name": "repay",
          "type": "bool"
        }
      ],
      "name": "estimateBorrowRatePerSecondAfterChange",
      "outputs": [
        {
          "internalType": "uint256",
          "name": "",
          "type": "uint256"
        }
      ],
      "payable": false,
      "stateMutability": "view",
      "type": "function"
    },
    {
      "constant": true,
      "inputs": [
        {
          "internalType": "uint256",
          "name": "change",
          "type": "uint256"
        },
        {
          "internalType": "bool",
          "name": "repay",
          "type": "bool"
        }
      ],
      "name": "estimateSupplyRatePerSecondAfterChange",
      "outputs": [
        {
          "internalType": "uint256",
          "name": "",
          "type": "uint256"
        }
      ],
      "payable": false,
      "stateMutability": "view",
      "type": "function"
    },
    {
      "constant": false,
      "inputs": [],
      "name": "exchangeRateCurrent",
      "outputs": [
        {
          "internalType": "uint256",
          "name": "",
          "type": "uint256"
        }
      ],
      "payable": false,
      "stateMutability": "nonpayable",
      "type": "function"
    },
    {
      "constant": true,
      "inputs": [],
      "name": "exchangeRateStored",
      "outputs": [
        {
          "internalType": "uint256",
          "name": "",
          "type": "uint256"
        }
      ],
      "payable": false,
      "stateMutability": "view",
      "type": "function"
    },
    {
      "constant": true,
      "inputs": [
        {
          "internalType": "uint256",
          "name": "amount",
          "type": "uint256"
        }
      ],
      "name": "flashFee",
      "outputs": [
        {
          "internalType": "uint256",
          "name": "",
          "type": "uint256"
        }
      ],
      "payable": false,
      "stateMutability": "view",
      "type": "function"
    },
    {
      "constant": true,
      "inputs": [],
      "name": "flashFeeBips",
      "outputs": [
        {
          "internalType": "uint256",
          "name": "",
          "type": "uint256"
        }
      ],
      "payable": false,
      "stateMutability": "view",
      "type": "function"
    },
    {
      "constant": false,
      "inputs": [
        {
          "internalType": "contract ERC3156FlashBorrowerInterface",
          "name": "receiver",
          "type": "address"
        },
        {
          "internalType": "address",
          "name": "initiator",
          "type": "address"
        },
        {
          "internalType": "uint256",
          "name": "amount",
          "type": "uint256"
        },
        {
          "internalType": "bytes",
          "name": "data",
          "type": "bytes"
        }
      ],
      "name": "flashLoan",
      "outputs": [
        {
          "internalType": "bool",
          "name": "",
          "type": "bool"
        }
      ],
      "payable": false,
      "stateMutability": "nonpayable",
      "type": "function"
    },
    {
      "constant": true,
      "inputs": [
        {
          "internalType": "address",
          "name": "account",
          "type": "address"
        }
      ],
      "name": "getAccountSnapshot",
      "outputs": [
        {
          "internalType": "uint256",
          "name": "",
          "type": "uint256"
        },
        {
          "internalType": "uint256",
          "name": "",
          "type": "uint256"
        },
        {
          "internalType": "uint256",
          "name": "",
          "type": "uint256"
        },
        {
          "internalType": "uint256",
          "name": "",
          "type": "uint256"
        }
      ],
      "payable": false,
      "stateMutability": "view",
      "type": "function"
    },
    {
      "constant": true,
      "inputs": [],
      "name": "getCash",
      "outputs": [
        {
          "internalType": "uint256",
          "name": "",
          "type": "uint256"
        }
      ],
      "payable": false,
      "stateMutability": "view",
      "type": "function"
    },
    {
      "constant": false,
      "inputs": [],
      "name": "gulp",
      "outputs": [],
      "payable": false,
      "stateMutability": "nonpayable",
      "type": "function"
    },
    {
      "constant": true,
      "inputs": [],
      "name": "implementation",
      "outputs": [
        {
          "internalType": "address",
          "name": "",
          "type": "address"
        }
      ],
      "payable": false,
      "stateMutability": "view",
      "type": "function"
    },
    {
      "constant": false,
      "inputs": [
        {
          "internalType": "address",
          "name": "underlying_",
          "type": "address"
        },
        {
          "internalType": "contract JoetrollerInterface",
          "name": "joetroller_",
          "type": "address"
        },
        {
          "internalType": "contract InterestRateModel",
          "name": "interestRateModel_",
          "type": "address"
        },
        {
          "internalType": "uint256",
          "name": "initialExchangeRateMantissa_",
          "type": "uint256"
        },
        {
          "internalType": "string",
          "name": "name_",
          "type": "string"
        },
        {
          "internalType": "string",
          "name": "symbol_",
          "type": "string"
        },
        {
          "internalType": "uint8",
          "name": "decimals_",
          "type": "uint8"
        }
      ],
      "name": "initialize",
      "outputs": [],
      "payable": false,
      "stateMutability": "nonpayable",
      "type": "function"
    },
    {
      "constant": false,
      "inputs": [
        {
          "internalType": "contract JoetrollerInterface",
          "name": "joetroller_",
          "type": "address"
        },
        {
          "internalType": "contract InterestRateModel",
          "name": "interestRateModel_",
          "type": "address"
        },
        {
          "internalType": "uint256",
          "name": "initialExchangeRateMantissa_",
          "type": "uint256"
        },
        {
          "internalType": "string",
          "name": "name_",
          "type": "string"
        },
        {
          "internalType": "string",
          "name": "symbol_",
          "type": "string"
        },
        {
          "internalType": "uint8",
          "name": "decimals_",
          "type": "uint8"
        }
      ],
      "name": "initialize",
      "outputs": [],
      "payable": false,
      "stateMutability": "nonpayable",
      "type": "function"
    },
    {
      "constant": true,
      "inputs": [],
      "name": "interestRateModel",
      "outputs": [
        {
          "internalType": "contract InterestRateModel",
          "name": "",
          "type": "address"
        }
      ],
      "payable": false,
      "stateMutability": "view",
      "type": "function"
    },
    {
      "constant": true,
      "inputs": [],
      "name": "internalCash",
      "outputs": [
        {
          "internalType": "uint256",
          "name": "",
          "type": "uint256"
        }
      ],
      "payable": false,
      "stateMutability": "view",
      "type": "function"
    },
    {
      "constant": true,
      "inputs": [
        {
          "internalType": "address",
          "name": "",
          "type": "address"
        }
      ],
      "name": "isCollateralTokenInit",
      "outputs": [
        {
          "internalType": "bool",
          "name": "",
          "type": "bool"
        }
      ],
      "payable": false,
      "stateMutability": "view",
      "type": "function"
    },
    {
      "constant": true,
      "inputs": [],
      "name": "isJToken",
      "outputs": [
        {
          "internalType": "bool",
          "name": "",
          "type": "bool"
        }
      ],
      "payable": false,
      "stateMutability": "view",
      "type": "function"
    },
    {
      "constant": true,
      "inputs": [],
      "name": "joetroller",
      "outputs": [
        {
          "internalType": "contract JoetrollerInterface",
          "name": "",
          "type": "address"
        }
      ],
      "payable": false,
      "stateMutability": "view",
      "type": "function"
    },
    {
      "constant": false,
      "inputs": [
        {
          "internalType": "address",
          "name": "borrower",
          "type": "address"
        },
        {
          "internalType": "uint256",
          "name": "repayAmount",
          "type": "uint256"
        },
        {
          "internalType": "contract JTokenInterface",
          "name": "jTokenCollateral",
          "type": "address"
        }
      ],
      "name": "liquidateBorrow",
      "outputs": [
        {
          "internalType": "uint256",
          "name": "",
          "type": "uint256"
        }
      ],
      "payable": false,
      "stateMutability": "nonpayable",
      "type": "function"
    },
    {
      "constant": true,
      "inputs": [],
      "name": "maxFlashLoan",
      "outputs": [
        {
          "internalType": "uint256",
          "name": "",
          "type": "uint256"
        }
      ],
      "payable": false,
      "stateMutability": "view",
      "type": "function"
    },
    {
      "constant": false,
      "inputs": [
        {
          "internalType": "uint256",
          "name": "mintAmount",
          "type": "uint256"
        }
      ],
      "name": "mint",
      "outputs": [
        {
          "internalType": "uint256",
          "name": "",
          "type": "uint256"
        }
      ],
      "payable": false,
      "stateMutability": "nonpayable",
      "type": "function"
    },
    {
      "constant": true,
      "inputs": [],
      "name": "name",
      "outputs": [
        {
          "internalType": "string",
          "name": "",
          "type": "string"
        }
      ],
      "payable": false,
      "stateMutability": "view",
      "type": "function"
    },
    {
      "constant": true,
      "inputs": [],
      "name": "pendingAdmin",
      "outputs": [
        {
          "internalType": "address payable",
          "name": "",
          "type": "address"
        }
      ],
      "payable": false,
      "stateMutability": "view",
      "type": "function"
    },
    {
      "constant": false,
      "inputs": [
        {
          "internalType": "uint256",
          "name": "redeemTokens",
          "type": "uint256"
        }
      ],
      "name": "redeem",
      "outputs": [
        {
          "internalType": "uint256",
          "name": "",
          "type": "uint256"
        }
      ],
      "payable": false,
      "stateMutability": "nonpayable",
      "type": "function"
    },
    {
      "constant": false,
      "inputs": [
        {
          "internalType": "uint256",
          "name": "redeemAmount",
          "type": "uint256"
        }
      ],
      "name": "redeemUnderlying",
      "outputs": [
        {
          "internalType": "uint256",
          "name": "",
          "type": "uint256"
        }
      ],
      "payable": false,
      "stateMutability": "nonpayable",
      "type": "function"
    },
    {
      "constant": false,
      "inputs": [
        {
          "internalType": "address",
          "name": "account",
          "type": "address"
        }
      ],
      "name": "registerCollateral",
      "outputs": [
        {
          "internalType": "uint256",
          "name": "",
          "type": "uint256"
        }
      ],
      "payable": false,
      "stateMutability": "nonpayable",
      "type": "function"
    },
    {
      "constant": false,
      "inputs": [
        {
          "internalType": "uint256",
          "name": "repayAmount",
          "type": "uint256"
        }
      ],
      "name": "repayBorrow",
      "outputs": [
        {
          "internalType": "uint256",
          "name": "",
          "type": "uint256"
        }
      ],
      "payable": false,
      "stateMutability": "nonpayable",
      "type": "function"
    },
    {
      "constant": true,
      "inputs": [],
      "name": "reserveFactorMantissa",
      "outputs": [
        {
          "internalType": "uint256",
          "name": "",
          "type": "uint256"
        }
      ],
      "payable": false,
      "stateMutability": "view",
      "type": "function"
    },
    {
      "constant": false,
      "inputs": [
        {
          "internalType": "address",
          "name": "liquidator",
          "type": "address"
        },
        {
          "internalType": "address",
          "name": "borrower",
          "type": "address"
        },
        {
          "internalType": "uint256",
          "name": "seizeTokens",
          "type": "uint256"
        }
      ],
      "name": "seize",
      "outputs": [
        {
          "internalType": "uint256",
          "name": "",
          "type": "uint256"
        }
      ],
      "payable": false,
      "stateMutability": "nonpayable",
      "type": "function"
    },
    {
      "constant": true,
      "inputs": [],
      "name": "supplyRatePerSecond",
      "outputs": [
        {
          "internalType": "uint256",
          "name": "",
          "type": "uint256"
        }
      ],
      "payable": false,
      "stateMutability": "view",
      "type": "function"
    },
    {
      "constant": true,
      "inputs": [],
      "name": "symbol",
      "outputs": [
        {
          "internalType": "string",
          "name": "",
          "type": "string"
        }
      ],
      "payable": false,
      "stateMutability": "view",
      "type": "function"
    },
    {
      "constant": true,
      "inputs": [],
      "name": "totalBorrows",
      "outputs": [
        {
          "internalType": "uint256",
          "name": "",
          "type": "uint256"
        }
      ],
      "payable": false,
      "stateMutability": "view",
      "type": "function"
    },
    {
      "constant": false,
      "inputs": [],
      "name": "totalBorrowsCurrent",
      "outputs": [
        {
          "internalType": "uint256",
          "name": "",
          "type": "uint256"
        }
      ],
      "payable": false,
      "stateMutability": "nonpayable",
      "type": "function"
    },
    {
      "constant": true,
      "inputs": [],
      "name": "totalCollateralTokens",
      "outputs": [
        {
          "internalType": "uint256",
          "name": "",
          "type": "uint256"
        }
      ],
      "payable": false,
      "stateMutability": "view",
      "type": "function"
    },
    {
      "constant": true,
      "inputs": [],
      "name": "totalReserves",
      "outputs": [
        {
          "internalType": "uint256",
          "name": "",
          "type": "uint256"
        }
      ],
      "payable": false,
      "stateMutability": "view",
      "type": "function"
    },
    {
      "constant": true,
      "inputs": [],
      "name": "totalSupply",
      "outputs": [
        {
          "internalType": "uint256",
          "name": "",
          "type": "uint256"
        }
      ],
      "payable": false,
      "stateMutability": "view",
      "type": "function"
    },
    {
      "constant": false,
      "inputs": [
        {
          "internalType": "address",
          "name": "dst",
          "type": "address"
        },
        {
          "internalType": "uint256",
          "name": "amount",
          "type": "uint256"
        }
      ],
      "name": "transfer",
      "outputs": [
        {
          "internalType": "bool",
          "name": "",
          "type": "bool"
        }
      ],
      "payable": false,
      "stateMutability": "nonpayable",
      "type": "function"
    },
    {
      "constant": false,
      "inputs": [
        {
          "internalType": "address",
          "name": "src",
          "type": "address"
        },
        {
          "internalType": "address",
          "name": "dst",
          "type": "address"
        },
        {
          "internalType": "uint256",
          "name": "amount",
          "type": "uint256"
        }
      ],
      "name": "transferFrom",
      "outputs": [
        {
          "internalType": "bool",
          "name": "",
          "type": "bool"
        }
      ],
      "payable": false,
      "stateMutability": "nonpayable",
      "type": "function"
    },
    {
      "constant": true,
      "inputs": [],
      "name": "underlying",
      "outputs": [
        {
          "internalType": "address",
          "name": "",
          "type": "address"
        }
      ],
      "payable": false,
      "stateMutability": "view",
      "type": "function"
    },
    {
      "constant": false,
      "inputs": [
        {
          "internalType": "address",
          "name": "account",
          "type": "address"
        }
      ],
      "name": "unregisterCollateral",
      "outputs": [],
      "payable": false,
      "stateMutability": "nonpayable",
      "type": "function"
    }
  ],
  "transactionHash": "0x5cf1a21bf4ed11291aafec430fd494583595c80a42222dfeff929d6c2cb8e91a",
  "args": [],
  "solcInputHash": "a74965c5892b1a1c1a9653be779374a6",
  "bytecode": "0x608060405234801561001057600080fd5b506158bf80620000216000396000f3fe608060405234801561001057600080fd5b50600436106103db5760003560e01c806381cf00eb1161020a578063b2a02ff111610125578063db006a75116100b8578063f2b3abbd11610087578063f2b3abbd14610d76578063f3fdb15a14610d9c578063f5e3c46214610da4578063f851a44014610dda578063fca7820b14610de2576103db565b8063db006a7514610d1b578063dd62ed3e14610d38578063e9c714f214610d66578063ea11eea414610d6e576103db565b8063c5ebeaec116100f4578063c5ebeaec14610cc8578063cfa9920114610ce5578063d240d64a14610ced578063d2bb18e914610d13576103db565b8063b2a02ff114610c18578063b71d1a0c14610c4e578063bd6d894d14610c74578063c37f68e214610c7c576103db565b806395dd91931161019d578063a7af467a1161016c578063a7af467a14610bbf578063a9059cbb14610bdc578063aa5af0fd14610c08578063b1d3897414610c10576103db565b806395dd919314610a2657806399d8c1b414610a4c578063a0712d6814610b9a578063a6afed9514610bb7576103db565b80638b35776b116101d95780638b35776b146109e85780638f840ddd14610a0e57806394909e6214610a1657806395d89b4114610a1e576103db565b806381cf00eb14610962578063852a12e31461097f57806385d8a2e61461099c5780638897bd85146109c2576103db565b80633af9e669116102fa57806356e677281161028d5780636330533c1161025c5780636330533c146109245780636f307dc31461092c57806370a082311461093457806373acee981461095a576103db565b806356e67728146107cd5780635c60da1b146108715780635cffe9de14610879578063601a0bf114610907576103db565b8063432f4b2d116102c9578063432f4b2d1461077257806347bd37181461079857806350f6e082146107a057806352609750146107c5576103db565b80633af9e6691461071f5780633b1d21a2146107455780633e9410101461074d578063406de0b61461076a576103db565b8063182df0f51161037257806323b872dd1161034157806323b872dd1461069f578063242c127c146106d557806326782247146106dd578063313ce56714610701576103db565b8063182df0f51461053157806319a4dd3c146105395780631a31d4651461054157806322abdbf514610697576103db565b8063153ab505116103ae578063153ab505146104f1578063173b9904146104fb57806317bfdfbc1461050357806318160ddd14610529576103db565b806306fdde03146103e0578063095ea7b31461045d5780630e7527021461049d5780630f3e4e11146104cc575b600080fd5b6103e8610dff565b6040805160208082528351818301528351919283929083019185019080838360005b8381101561042257818101518382015260200161040a565b50505050905090810190601f16801561044f5780820380516001836020036101000a031916815260200191505b509250505060405180910390f35b6104896004803603604081101561047357600080fd5b506001600160a01b038135169060200135610e8c565b604080519115158252519081900360200190f35b6104ba600480360360208110156104b357600080fd5b5035610ef9565b60408051918252519081900360200190f35b6104ba600480360360408110156104e257600080fd5b50803590602001351515610f11565b6104f9610ff6565b005b6104ba611046565b6104ba6004803603602081101561051957600080fd5b50356001600160a01b031661104c565b6104ba61110c565b6104ba611112565b6104ba611122565b6104f9600480360360e081101561055757600080fd5b6001600160a01b03823581169260208101358216926040820135909216916060820135919081019060a081016080820135600160201b81111561059957600080fd5b8201836020820111156105ab57600080fd5b803590602001918460018302840111600160201b831117156105cc57600080fd5b91908080601f0160208091040260200160405190810160405280939291908181526020018383808284376000920191909152509295949360208101935035915050600160201b81111561061e57600080fd5b82018360208201111561063057600080fd5b803590602001918460018302840111600160201b8311171561065157600080fd5b91908080601f0160208091040260200160405190810160405280939291908181526020018383808284376000920191909152509295505050903560ff1691506111289050565b6104ba6111c7565b610489600480360360608110156106b557600080fd5b506001600160a01b038135811691602081013590911690604001356111cd565b6104ba61123f565b6106e56112e4565b604080516001600160a01b039092168252519081900360200190f35b6107096112f3565b6040805160ff9092168252519081900360200190f35b6104ba6004803603602081101561073557600080fd5b50356001600160a01b03166112fc565b6104ba611349565b6104ba6004803603602081101561076357600080fd5b5035611353565b610489611360565b6104ba6004803603602081101561078857600080fd5b50356001600160a01b0316611365565b6104ba6114b9565b6104ba600480360360408110156107b657600080fd5b508035906020013515156114bf565b6104ba61156e565b6104f9600480360360208110156107e357600080fd5b810190602081018135600160201b8111156107fd57600080fd5b82018360208201111561080f57600080fd5b803590602001918460018302840111600160201b8311171561083057600080fd5b91908080601f016020809104026020016040519081016040528093929190818152602001838380828437600092019190915250929550611603945050505050565b6106e56116ca565b6104896004803603608081101561088f57600080fd5b6001600160a01b03823581169260208101359091169160408201359190810190608081016060820135600160201b8111156108c957600080fd5b8201836020820111156108db57600080fd5b803590602001918460018302840111600160201b831117156108fc57600080fd5b5090925090506116d9565b6104ba6004803603602081101561091d57600080fd5b5035611c1d565b6106e5611cb8565b6106e5611cc7565b6104ba6004803603602081101561094a57600080fd5b50356001600160a01b0316611cd6565b6104ba611cf1565b6104f96004803603602081101561097857600080fd5b5035611da7565b6104ba6004803603602081101561099557600080fd5b5035611e38565b610489600480360360208110156109b257600080fd5b50356001600160a01b0316611e45565b6104ba600480360360208110156109d857600080fd5b50356001600160a01b0316611e5a565b6104f9600480360360208110156109fe57600080fd5b50356001600160a01b0316611ee8565b6104ba611f61565b6104f9611f67565b6103e8611ffc565b6104ba60048036036020811015610a3c57600080fd5b50356001600160a01b0316612054565b6104f9600480360360c0811015610a6257600080fd5b6001600160a01b03823581169260208101359091169160408201359190810190608081016060820135600160201b811115610a9c57600080fd5b820183602082011115610aae57600080fd5b803590602001918460018302840111600160201b83111715610acf57600080fd5b91908080601f0160208091040260200160405190810160405280939291908181526020018383808284376000920191909152509295949360208101935035915050600160201b811115610b2157600080fd5b820183602082011115610b3357600080fd5b803590602001918460018302840111600160201b83111715610b5457600080fd5b91908080601f0160208091040260200160405190810160405280939291908181526020018383808284376000920191909152509295505050903560ff16915061205f9050565b6104ba60048036036020811015610bb057600080fd5b5035612246565b6104ba612254565b6104ba60048036036020811015610bd557600080fd5b5035612464565b61048960048036036040811015610bf257600080fd5b506001600160a01b038135169060200135612556565b6104ba6125c8565b6104ba6125ce565b6104ba60048036036060811015610c2e57600080fd5b506001600160a01b0381358116916020810135909116906040013561263c565b6104ba60048036036020811015610c6457600080fd5b50356001600160a01b03166126ad565b6104ba612739565b610ca260048036036020811015610c9257600080fd5b50356001600160a01b03166127f5565b604080519485526020850193909352838301919091526060830152519081900360800190f35b6104ba60048036036020811015610cde57600080fd5b5035612831565b6104ba61283e565b6104ba60048036036020811015610d0357600080fd5b50356001600160a01b0316612844565b6104ba612856565b6104ba60048036036020811015610d3157600080fd5b503561285c565b6104ba60048036036040811015610d4e57600080fd5b506001600160a01b0381358116916020013516612869565b6104ba612894565b6104ba612997565b6104ba60048036036020811015610d8c57600080fd5b50356001600160a01b031661299c565b6106e56129d6565b6104ba60048036036060811015610dba57600080fd5b506001600160a01b038135811691602081013591604090910135166129e5565b6106e56129ff565b6104ba60048036036020811015610df857600080fd5b5035612a13565b60018054604080516020600284861615610100026000190190941693909304601f81018490048402820184019092528181529291830182828015610e845780601f10610e5957610100808354040283529160200191610e84565b820191906000526020600020905b815481529060010190602001808311610e6757829003601f168201915b505050505081565b336000818152600f602090815260408083206001600160a01b03871680855290835281842086905581518681529151939493909284927f8c5be1e5ebec7d5bd14f71427d1e84f3dd0314c0f7b2291e5b200ac8c7c3b925929081900390910190a360019150505b92915050565b600080610f07836000612a91565b509150505b919050565b60008060008315610f4257610f2d610f27612b3d565b86612b43565b9150610f3b600b5486612b79565b9050610f64565b610f53610f4d612b3d565b86612b79565b9150610f61600b5486612b43565b90505b600654600c54604080516315f2405360e01b815260048101869052602481018590526044810192909252516001600160a01b03909216916315f2405391606480820192602092909190829003018186803b158015610fc157600080fd5b505afa158015610fd5573d6000803e3d6000fd5b505050506040513d6020811015610feb57600080fd5b505195945050505050565b60035461010090046001600160a01b031633146110445760405162461bcd60e51b815260040180806020018281038252602d815260200180615736602d913960400191505060405180910390fd5b565b60085481565b6000805460ff16611091576040805162461bcd60e51b815260206004820152600a6024820152691c994b595b9d195c995960b21b604482015290519081900360640190fd5b6000805460ff191681556110a3612254565b146110ee576040805162461bcd60e51b81526020600482015260166024820152751858d8dc9d59481a5b9d195c995cdd0819985a5b195960521b604482015290519081900360640190fd5b6110f782612054565b90505b6000805460ff19166001179055919050565b600d5481565b600061111c612bb3565b90505b90565b60145481565b61113686868686868661205f565b601180546001600160a01b0319166001600160a01b038981169190911791829055604080516318160ddd60e01b8152905192909116916318160ddd91600480820192602092909190829003018186803b15801561119257600080fd5b505afa1580156111a6573d6000803e3d6000fd5b505050506040513d60208110156111bc57600080fd5b505050505050505050565b60135481565b6000805460ff16611212576040805162461bcd60e51b815260206004820152600a6024820152691c994b595b9d195c995960b21b604482015290519081900360640190fd5b6000805460ff1916815561122833868686612c19565b1490506000805460ff191660011790559392505050565b600554604080516358d5bc7360e11b81523060048201526000602482018190526044820181905260806064830152608482018190529151919283926001600160a01b039091169163b1ab78e69160c4808301926020929190829003018186803b1580156112ab57600080fd5b505afa1580156112bf573d6000803e3d6000fd5b505050506040513d60208110156112d557600080fd5b50511561111c57610ef3612b3d565b6004546001600160a01b031681565b60035460ff1681565b60006113066154e2565b6040518060200160405280611319612739565b90526001600160a01b0384166000908152600e6020526040902054909150611342908290612f65565b9392505050565b600061111c612b3d565b6000610ef3826000612f84565b600181565b60035460009061010090046001600160a01b031633146113925761138b60016028613022565b9050610f0c565b600554604080516340e6dcc560e01b815290516001600160a01b03928316928516916340e6dcc5916004808301926020929190829003018186803b1580156113d957600080fd5b505afa1580156113ed573d6000803e3d6000fd5b505050506040513d602081101561140357600080fd5b5051611456576040805162461bcd60e51b815260206004820152601c60248201527f6d61726b6572206d6574686f642072657475726e65642066616c736500000000604482015290519081900360640190fd5b600580546001600160a01b0319166001600160a01b03858116918217909255604080519284168352602083019190915280517f17d6db5ffe5a3d1c3d7a98194dca4f7d808d621e6ff9077ed574513d553a2a859281900390910190a16000611342565b600b5481565b600080600083156114ea576114d5610f27612b3d565b91506114e3600b5486612b79565b9050611506565b6114f5610f4d612b3d565b9150611503600b5486612b43565b90505b600654600c5460085460408051635c0b440b60e11b8152600481018790526024810186905260448101939093526064830191909152516001600160a01b039092169163b816881691608480820192602092909190829003018186803b158015610fc157600080fd5b6006546000906001600160a01b03166315f2405361158a612b3d565b600b54600c546040518463ffffffff1660e01b815260040180848152602001838152602001828152602001935050505060206040518083038186803b1580156115d257600080fd5b505afa1580156115e6573d6000803e3d6000fd5b505050506040513d60208110156115fc57600080fd5b5051905090565b60035461010090046001600160a01b031633146116515760405162461bcd60e51b815260040180806020018281038252602d815260200180615812602d913960400191505060405180910390fd5b611659613088565b601355600554604080516303c03f0f60e01b81523060048201526001602482015290516001600160a01b03909216916303c03f0f9160448082019260009290919082900301818387803b1580156116af57600080fd5b505af11580156116c3573d6000803e3d6000fd5b5050505050565b6012546001600160a01b031681565b6000805460ff1661171e576040805162461bcd60e51b815260206004820152600a6024820152691c994b595b9d195c995960b21b604482015290519081900360640190fd5b6000805460ff19169055836117645760405162461bcd60e51b815260040180806020018281038252602c81526020018061585f602c913960400191505060405180910390fd5b600061176e612254565b146117b9576040805162461bcd60e51b81526020600482015260166024820152751858d8dc9d59481a5b9d195c995cdd0819985a5b195960521b604482015290519081900360640190fd5b6005546040516358d5bc7360e11b815230600482018181526001600160a01b038a81166024850152604484018990526080606485019081526084850188905294169363b1ab78e6938b928a928a928a92919060a401848480828437600081840152601f19601f820116905080830192505050965050505050505060206040518083038186803b15801561184b57600080fd5b505afa15801561185f573d6000803e3d6000fd5b505050506040513d602081101561187557600080fd5b50516118be576040805162461bcd60e51b8152602060048201526013602482015272199b185cda1b1bd85b881a5cc81c185d5cd959606a1b604482015290519081900360640190fd5b60006118c8613088565b905060006118d4612b3d565b905085811015611924576040805162461bcd60e51b8152602060048201526016602482015275494e53554646494349454e545f4c495155494449545960501b604482015290519081900360640190fd5b6000306001600160a01b031663a7af467a886040518263ffffffff1660e01b81526004018082815260200191505060206040518083038186803b15801561196a57600080fd5b505afa15801561197e573d6000803e3d6000fd5b505050506040513d602081101561199457600080fd5b505190506119a489886000613108565b6119b0600b5488612b43565b600b5560405180602961576382396040519081900360290181206011546323e30c8b60e01b83526001600160a01b038c81166004850190815291811660248501819052604485018d90526064850187905260a06084860190815260a486018c9052939550908e16936323e30c8b938e938e9289928f928f9290919060c401848480828437600081840152601f19601f820116905080830192505050975050505050505050602060405180830381600087803b158015611a6e57600080fd5b505af1158015611a82573d6000803e3d6000fd5b505050506040513d6020811015611a9857600080fd5b505114611aec576040805162461bcd60e51b815260206004820152601960248201527f49455243333135363a2043616c6c6261636b206661696c656400000000000000604482015290519081900360640190fd5b6000611af88883612b43565b9050611b068a82600061320f565b506000611b11613088565b9050611b1d8584612b43565b8114611b67576040805162461bcd60e51b8152602060048201526014602482015273109053105390d157d25390d3d394d254d511539560621b604482015290519081900360640190fd5b6000611b83604051806020016040528060085481525085612f65565b9050611b91600c5482612b43565b600c55611b9e8585612b43565b601355600b54611bae908b612b79565b600b55604080518b81526020810186905280820183905290516001600160a01b038e16917f33c8e097c526683cbdb29adf782fac95e9d0fbe0ed635c13d8c75fdf726557d9919081900360600190a2600196505050505050506000805460ff1916600117905595945050505050565b6000805460ff16611c62576040805162461bcd60e51b815260206004820152600a6024820152691c994b595b9d195c995960b21b604482015290519081900360640190fd5b6000805460ff19168155611c74612254565b90508015611c9a57611c92816010811115611c8b57fe5b601d613022565b9150506110fa565b611ca383613420565b9150506000805460ff19166001179055919050565b6005546001600160a01b031681565b6011546001600160a01b031681565b6001600160a01b03166000908152600e602052604090205490565b6000805460ff16611d36576040805162461bcd60e51b815260206004820152600a6024820152691c994b595b9d195c995960b21b604482015290519081900360640190fd5b6000805460ff19168155611d48612254565b14611d93576040805162461bcd60e51b81526020600482015260166024820152751858d8dc9d59481a5b9d195c995cdd0819985a5b195960521b604482015290519081900360640190fd5b50600b546000805460ff1916600117905590565b60035461010090046001600160a01b03163314611df55760405162461bcd60e51b81526004018080602001828103825260218152602001806156c36021913960400191505060405180910390fd5b6017819055604080513081526020810183905281517f01b7c780e0f385803fe80cbe0efc086d13b8eb443a2ce43e2061fd92bc0e34f1929181900390910190a150565b6000610ef382600061351e565b60166020526000908152604090205460ff1681565b6000611e65826135b6565b6005546001600160a01b03163314611eae5760405162461bcd60e51b81526004018080602001828103825260308152602001806157066030913960400191505060405180910390fd5b6001600160a01b0382166000908152600e60209081526040808320546015909252822054611edc9190612b79565b905061134283826136f8565b611ef1816135b6565b6005546001600160a01b03163314611f3a5760405162461bcd60e51b81526004018080602001828103825260328152602001806157ac6032913960400191505060405180910390fd5b6001600160a01b038116600090815260156020526040902054611f5e908290613843565b50565b600c5481565b60005460ff16611fab576040805162461bcd60e51b815260206004820152600a6024820152691c994b595b9d195c995960b21b604482015290519081900360640190fd5b6000805460ff19168155611fbd613088565b90506000611fc9612b3d565b90506000611fd78383612b79565b9050611fe5600c5482612b43565b600c5550506013556000805460ff19166001179055565b6002805460408051602060018416156101000260001901909316849004601f81018490048402820184019092528181529291830182828015610e845780601f10610e5957610100808354040283529160200191610e84565b6000610ef38261399a565b60035461010090046001600160a01b031633146120ad5760405162461bcd60e51b815260040180806020018281038252602481526020018061561a6024913960400191505060405180910390fd5b6009541580156120bd5750600a54155b6120f85760405162461bcd60e51b81526004018080602001828103825260238152602001806156706023913960400191505060405180910390fd5b6007849055836121395760405162461bcd60e51b81526004018080602001828103825260308152602001806156936030913960400191505060405180910390fd5b600061214487611365565b90508015612199576040805162461bcd60e51b815260206004820152601960248201527f73657474696e67206a6f6574726f6c6c6572206661696c656400000000000000604482015290519081900360640190fd5b6121a16139ef565b600955670de0b6b3a7640000600a556121b9866139f3565b905080156121f85760405162461bcd60e51b81526004018080602001828103825260228152602001806156e46022913960400191505060405180910390fd5b835161220b9060019060208701906154f5565b50825161221f9060029060208601906154f5565b50506003805460ff90921660ff199283161790556000805490911660011790555050505050565b600080610f07836000613b68565b60008061225f6139ef565b600954909150808214156122785760009250505061111f565b6000612282612b3d565b600b54600c54600a54600654604080516315f2405360e01b815260048101879052602481018690526044810185905290519596509394929391926000926001600160a01b03909216916315f24053916064808301926020929190829003018186803b1580156122f057600080fd5b505afa158015612304573d6000803e3d6000fd5b505050506040513d602081101561231a57600080fd5b5051905065048c27395000811115612379576040805162461bcd60e51b815260206004820152601c60248201527f626f72726f772072617465206973206162737572646c79206869676800000000604482015290519081900360640190fd5b60006123858888612b79565b905061238f6154e2565b6123a760405180602001604052808581525083613bea565b905060006123b58288612f65565b905060006123c38289612b43565b905060006123e26040518060200160405280600854815250848a613c14565b905060006123f185898a613c14565b60098e9055600a819055600b849055600c839055604080518d8152602081018790528082018390526060810186905290519192507f4dec04e750ca11537cabcd8a9eab06494de08da3735bc8871cd41250e190bc04919081900360800190a160009d505050505050505050505050505090565b600554604080516358d5bc7360e11b8152306004820152600060248201819052604482018590526080606483015260848201819052915191926001600160a01b03169163b1ab78e69160c480820192602092909190829003018186803b1580156124cd57600080fd5b505afa1580156124e1573d6000803e3d6000fd5b505050506040513d60208110156124f757600080fd5b5051612540576040805162461bcd60e51b8152602060048201526013602482015272199b185cda1b1bd85b881a5cc81c185d5cd959606a1b604482015290519081900360640190fd5b610ef361254e836003613c3c565b612710613c7e565b6000805460ff1661259b576040805162461bcd60e51b815260206004820152600a6024820152691c994b595b9d195c995960b21b604482015290519081900360640190fd5b6000805460ff191681556125b133338686612c19565b1490505b6000805460ff1916600117905592915050565b600a5481565b6006546000906001600160a01b031663b81688166125ea612b3d565b600b54600c546008546040518563ffffffff1660e01b81526004018085815260200184815260200183815260200182815260200194505050505060206040518083038186803b1580156115d257600080fd5b6000805460ff16612681576040805162461bcd60e51b815260206004820152600a6024820152691c994b595b9d195c995960b21b604482015290519081900360640190fd5b6000805460ff1916905561269733858585613cb1565b90506000805460ff191660011790559392505050565b60035460009061010090046001600160a01b031633146126d35761138b6001602e613022565b600480546001600160a01b038481166001600160a01b0319831681179093556040805191909216808252602082019390935281517fca4f2f25d0898edd99413412fb94012f9e54ec8142f9b093e7720646a95b16a9929181900390910190a16000611342565b6000805460ff1661277e576040805162461bcd60e51b815260206004820152600a6024820152691c994b595b9d195c995960b21b604482015290519081900360640190fd5b6000805460ff19168155612790612254565b146127db576040805162461bcd60e51b81526020600482015260166024820152751858d8dc9d59481a5b9d195c995cdd0819985a5b195960521b604482015290519081900360640190fd5b6127e3611112565b90506000805460ff1916600117905590565b600080600080600061280686613f37565b905060006128138761399a565b9050600061281f612bb3565b90506000989297509095509350915050565b6000610ef3826000613f96565b60095481565b60156020526000908152604090205481565b60175481565b6000610ef3826000614016565b6001600160a01b039182166000908152600f6020908152604080832093909416825291909152205490565b6004546000906001600160a01b0316331415806128af575033155b156128c7576128c060016000613022565b905061111f565b60038054600480546001600160a01b03818116610100818102610100600160a81b0319871617968790556001600160a01b031990931690935560408051948390048216808652929095041660208401528351909391927ff9ffabca9c8276e99321725bcb43fb076a6c66a54b7f21c4e8146d8519b417dc92908290030190a1600454604080516001600160a01b038085168252909216602083015280517fca4f2f25d0898edd99413412fb94012f9e54ec8142f9b093e7720646a95b16a99281900390910190a160009250505090565b600381565b6000806129a7612254565b905080156129cd576129c58160108111156129be57fe5b6029613022565b915050610f0c565b611342836139f3565b6006546001600160a01b031681565b6000806129f58585856000614091565b5095945050505050565b60035461010090046001600160a01b031681565b6000805460ff16612a58576040805162461bcd60e51b815260206004820152600a6024820152691c994b595b9d195c995960b21b604482015290519081900360640190fd5b6000805460ff19168155612a6a612254565b90508015612a8857611c92816010811115612a8157fe5b602f613022565b611ca3836141c5565b60008054819060ff16612ad8576040805162461bcd60e51b815260206004820152600a6024820152691c994b595b9d195c995960b21b604482015290519081900360640190fd5b6000805460ff19168155612aea612254565b90508015612b1557612b08816010811115612b0157fe5b6022613022565b925060009150612b279050565b612b213333878761426d565b92509250505b6000805460ff1916600117905590939092509050565b60135490565b60006113428383604051806040016040528060118152602001706164646974696f6e206f766572666c6f7760781b81525061450f565b60006113428383604051806040016040528060158152602001747375627472616374696f6e20756e646572666c6f7760581b8152506145aa565b600d5460009080612bc857505060075461111f565b6000612bd2612b3d565b90506000612bed612be583600b54612b43565b600c54612b79565b90506000612c0982604051806020016040528087815250614604565b945061111f9350505050565b5090565b6000612c24846135b6565b612c2d836135b6565b6001600160a01b0384166000908152600e60209081526040808320546015909252822054612c5b9190612b79565b9050600081841115612c6c57508083035b600554604080516317b9b84b60e31b81523060048201526001600160a01b0389811660248301528881166044830152606482018590529151600093929092169163bdcdc2589160848082019260209290919082900301818787803b158015612cd357600080fd5b505af1158015612ce7573d6000803e3d6000fd5b505050506040513d6020811015612cfd57600080fd5b505190508015612d1e57612d146003603383614622565b9350505050612f5d565b856001600160a01b0316876001600160a01b03161415612d4457612d1460026034613022565b60006001600160a01b038981169089161415612d635750600019612d8b565b506001600160a01b038088166000908152600f60209081526040808320938c16835292905220545b6001600160a01b0388166000908152600e6020526040902054612dae9087612b79565b6001600160a01b03808a166000908152600e60205260408082209390935590891681522054612ddd9087612b43565b6001600160a01b0388166000908152600e60205260409020558215612ee1576001600160a01b038816600090815260156020526040902054612e1f9084612b79565b6001600160a01b03808a166000908152601560205260408082209390935590891681522054612e4e9084612b43565b6001600160a01b03808916600090815260156020908152604080832094909455918b168082529083902054835191825291810191909152815160008051602061583f833981519152929181900390910190a16001600160a01b03871660008181526015602090815260409182902054825193845290830152805160008051602061583f8339815191529281900390910190a15b6000198114612f1b57612ef48187612b79565b6001600160a01b03808a166000908152600f60209081526040808320938e16835292905220555b866001600160a01b0316886001600160a01b031660008051602061578c833981519152886040518082815260200191505060405180910390a360009450505050505b949350505050565b6000612f6f6154e2565b612f798484613bea565b9050612f5d81614688565b6000805460ff16612fc9576040805162461bcd60e51b815260206004820152600a6024820152691c994b595b9d195c995960b21b604482015290519081900360640190fd5b6000805460ff19168155612fdb612254565b9050801561300157612ff9816010811115612ff257fe5b6035613022565b9150506125b5565b61300b8484614697565b509150506000805460ff1916600117905592915050565b60007f45b96fe442630264581b197e84bbada861235052c5a1aadfff9ea4e40a969aa083601081111561305157fe5b83603781111561305d57fe5b604080519283526020830191909152600082820152519081900360600190a182601081111561134257fe5b601154604080516370a0823160e01b815230600482015290516000926001600160a01b03169182916370a0823191602480820192602092909190829003018186803b1580156130d657600080fd5b505afa1580156130ea573d6000803e3d6000fd5b505050506040513d602081101561310057600080fd5b505191505090565b6011546040805163a9059cbb60e01b81526001600160a01b0386811660048301526024820186905291519190921691829163a9059cbb9160448082019260009290919082900301818387803b15801561316057600080fd5b505af1158015613174573d6000803e3d6000fd5b5050505060003d60008114613190576020811461319a57600080fd5b60001991506131a6565b60206000803e60005191505b50806131f9576040805162461bcd60e51b815260206004820152601960248201527f544f4b454e5f5452414e534645525f4f55545f4641494c454400000000000000604482015290519081900360640190fd5b61320560135485612b79565b6013555050505050565b601154604080516370a0823160e01b815230600482015290516000926001600160a01b031691839183916370a08231916024808301926020929190829003018186803b15801561325e57600080fd5b505afa158015613272573d6000803e3d6000fd5b505050506040513d602081101561328857600080fd5b5051604080516323b872dd60e01b81526001600160a01b038981166004830152306024830152604482018990529151929350908416916323b872dd9160648082019260009290919082900301818387803b1580156132e557600080fd5b505af11580156132f9573d6000803e3d6000fd5b5050505060003d60008114613315576020811461331f57600080fd5b600019915061332b565b60206000803e60005191505b508061337e576040805162461bcd60e51b815260206004820152601860248201527f544f4b454e5f5452414e534645525f494e5f4641494c45440000000000000000604482015290519081900360640190fd5b601154604080516370a0823160e01b815230600482015290516000926001600160a01b0316916370a08231916024808301926020929190829003018186803b1580156133c957600080fd5b505afa1580156133dd573d6000803e3d6000fd5b505050506040513d60208110156133f357600080fd5b5051905060006134038285612b79565b905061341160135482612b43565b60135598975050505050505050565b600354600090819061010090046001600160a01b03163314613448576129c56001601e613022565b6134506139ef565b60095414613464576129c5600a6020613022565b8261346d612b3d565b101561347f576129c5600e601f613022565b600c54831115613495576129c560026021613022565b6134a1600c5484612b79565b600c8190556003549091506134c69061010090046001600160a01b0316846001613108565b600354604080516101009092046001600160a01b0316825260208201859052818101839052517f3bad0c59cf2f06e7314077049f48a93578cd16f5ef92329f1dab1420a99c177e916060908290030190a16000611342565b6000805460ff16613563576040805162461bcd60e51b815260206004820152600a6024820152691c994b595b9d195c995960b21b604482015290519081900360640190fd5b6000805460ff19168155613575612254565b9050801561359357612ff981601081111561358c57fe5b6019613022565b6135a03360008686614735565b9150506000805460ff1916600117905592915050565b6001600160a01b03811660009081526016602052604090205460ff16611f5e576005546040805163929fe9a160e01b81526001600160a01b0384811660048301523060248301529151919092169163929fe9a1916044808301926020929190829003018186803b15801561362957600080fd5b505afa15801561363d573d6000803e3d6000fd5b505050506040513d602081101561365357600080fd5b5051156136d2576001600160a01b0381166000908152600e602081815260408084205460158352932083905560145491905261368e91612b43565b6014556001600160a01b03811660008181526015602090815260409182902054825193845290830152805160008051602061583f8339815191529281900390910190a15b6001600160a01b0381166000908152601660205260409020805460ff1916600117905550565b60008061370760145484612b43565b90506017546000148061372857506017541580159061372857506017548111155b156137a35760148190556001600160a01b0384166000908152601560205260409020546137559084612b43565b6001600160a01b0385166000818152601560209081526040918290208490558151928352820192909252815160008051602061583f833981519152929181900390910190a182915050610ef3565b60145460175411156138395760006137bf601754601454612b79565b6017546014556001600160a01b0386166000908152601560205260409020549091506137eb9082612b43565b6001600160a01b0386166000818152601560209081526040918290208490558151928352820192909252815160008051602061583f833981519152929181900390910190a19150610ef39050565b5060009392505050565b6005546040805163eabe7d9160e01b81523060048201526001600160a01b038581166024830152604482018590529151919092169163eabe7d919160648083019260209291908290030181600087803b15801561389f57600080fd5b505af11580156138b3573d6000803e3d6000fd5b505050506040513d60208110156138c957600080fd5b505115613914576040805162461bcd60e51b81526020600482015260146024820152733537b2ba3937b63632b9103932b532b1ba34b7b760611b604482015290519081900360640190fd5b8061391e57613996565b61392a60145482612b79565b6014556001600160a01b0382166000908152601560205260409020546139509082612b79565b6001600160a01b0383166000818152601560209081526040918290208490558151928352820192909252815160008051602061583f833981519152929181900390910190a15b5050565b6001600160a01b038116600090815260106020526040812080546139c2576000915050610f0c565b60006139d48260000154600a54613c3c565b905060006139e6828460010154613c7e565b95945050505050565b4290565b600354600090819061010090046001600160a01b03163314613a1b576129c56001602b613022565b613a236139ef565b60095414613a37576129c5600a602a613022565b600660009054906101000a90046001600160a01b03169050826001600160a01b0316632191f92a6040518163ffffffff1660e01b815260040160206040518083038186803b158015613a8857600080fd5b505afa158015613a9c573d6000803e3d6000fd5b505050506040513d6020811015613ab257600080fd5b5051613b05576040805162461bcd60e51b815260206004820152601c60248201527f6d61726b6572206d6574686f642072657475726e65642066616c736500000000604482015290519081900360640190fd5b600680546001600160a01b0319166001600160a01b03858116918217909255604080519284168352602083019190915280517fedffc32e068c7c95dfd4bdfd5c4d939a084d6b11c4199eac8436ed234d72f9269281900390910190a16000611342565b60008054819060ff16613baf576040805162461bcd60e51b815260206004820152600a6024820152691c994b595b9d195c995960b21b604482015290519081900360640190fd5b6000805460ff19168155613bc1612254565b90508015613bdf57612b08816010811115613bd857fe5b6014613022565b612b21338686614a15565b613bf26154e2565b6040518060200160405280613c0b856000015185613c3c565b90529392505050565b6000613c1e6154e2565b613c288585613bea565b90506139e6613c3682614688565b84612b43565b600061134283836040518060400160405280601781526020017f6d756c7469706c69636174696f6e206f766572666c6f77000000000000000000815250614cbb565b600061134283836040518060400160405280600e81526020016d646976696465206279207a65726f60901b815250614d31565b6000613cbc846135b6565b613cc5836135b6565b6005546040805163d02f735160e01b81523060048201526001600160a01b03888116602483015287811660448301528681166064830152608482018690529151600093929092169163d02f73519160a48082019260209290919082900301818787803b158015613d3457600080fd5b505af1158015613d48573d6000803e3d6000fd5b505050506040513d6020811015613d5e57600080fd5b505190508015613d7d57613d756003601183614622565b915050612f5d565b82613d89576000613d75565b846001600160a01b0316846001600160a01b03161415613daf57613d7560066012613022565b6001600160a01b0384166000908152600e6020526040902054613dd29084612b79565b6001600160a01b038086166000908152600e60205260408082209390935590871681522054613e019084612b43565b6001600160a01b038087166000908152600e6020908152604080832094909455918716815260159091522054613e379084612b79565b6001600160a01b038086166000908152601560205260408082209390935590871681522054613e669084612b43565b6001600160a01b03808716600081815260156020908152604091829020949094558051878152905191939288169260008051602061578c83398151915292918290030190a36001600160a01b03841660008181526015602090815260409182902054825193845290830152805160008051602061583f8339815191529281900390910190a16001600160a01b03851660008181526015602090815260409182902054825193845290830152805160008051602061583f8339815191529281900390910190a160009695505050505050565b6001600160a01b03811660009081526016602052604081205460ff1615613f7757506001600160a01b038116600090815260156020526040902054610f0c565b506001600160a01b0381166000908152600e6020526040902054610f0c565b6000805460ff16613fdb576040805162461bcd60e51b815260206004820152600a6024820152691c994b595b9d195c995960b21b604482015290519081900360640190fd5b6000805460ff19168155613fed612254565b9050801561400b57612ff981601081111561400457fe5b6002613022565b6135a0338585614d93565b6000805460ff1661405b576040805162461bcd60e51b815260206004820152600a6024820152691c994b595b9d195c995960b21b604482015290519081900360640190fd5b6000805460ff1916815561406d612254565b9050801561408457612ff981601081111561358c57fe5b6135a03385600086614735565b60008054819060ff166140d8576040805162461bcd60e51b815260206004820152600a6024820152691c994b595b9d195c995960b21b604482015290519081900360640190fd5b6000805460ff191681556140ea612254565b905080156141155761410881601081111561410157fe5b6007613022565b9250600091506141ad9050565b846001600160a01b031663a6afed956040518163ffffffff1660e01b8152600401602060405180830381600087803b15801561415057600080fd5b505af1158015614164573d6000803e3d6000fd5b505050506040513d602081101561417a57600080fd5b50519050801561419a5761410881601081111561419357fe5b6008613022565b6141a73388888888614f6e565b92509250505b6000805460ff19166001179055909590945092505050565b60035460009061010090046001600160a01b031633146141eb5761138b60016030613022565b6141f36139ef565b600954146142075761138b600a6031613022565b670de0b6b3a76400008211156142235761138b60026032613022565b6008805490839055604080518281526020810185905281517faaa68312e2ea9d50e16af5068410ab56e1a1fd06037b1a35664812c30f821460929181900390910190a16000611342565b60055460408051631200453160e11b81523060048201526001600160a01b0387811660248301528681166044830152606482018690529151600093849384939116916324008a629160848082019260209290919082900301818787803b1580156142d657600080fd5b505af11580156142ea573d6000803e3d6000fd5b505050506040513d602081101561430057600080fd5b505190508015614324576143176003602383614622565b9250600091506145069050565b8461435057600a546001600160a01b038716600090815260106020526040812060010191909155614317565b6143586139ef565b6009541461436c57614317600a6024613022565b61437461556f565b6001600160a01b038716600090815260106020526040902060010154606082015261439e8761399a565b60808201526000198614156143bc57608081015160408201526143c4565b604081018690525b6143d38882604001518761320f565b60e0820181905260808201516143e891612b79565b60a0820152600b5460e08201516143ff9190612b79565b8160c00181815250508060a0015160106000896001600160a01b03166001600160a01b0316815260200190815260200160002060000181905550600a5460106000896001600160a01b03166001600160a01b03168152602001908152602001600020600101819055508060c00151600b819055507f1a2a22cb034d26d1854bdc6666a5b91fe25efbbb5dcad3b0355478d6f5c362a188888360e001518460a001518560c0015160405180866001600160a01b03166001600160a01b03168152602001856001600160a01b03166001600160a01b031681526020018481526020018381526020018281526020019550505050505060405180910390a160e00151600093509150505b94509492505050565b600083830182858210156145a15760405162461bcd60e51b81526004018080602001828103825283818151815260200191508051906020019080838360005b8381101561456657818101518382015260200161454e565b50505050905090810190601f1680156145935780820380516001836020036101000a031916815260200191505b509250505060405180910390fd5b50949350505050565b600081848411156145fc5760405162461bcd60e51b815260206004820181815283516024840152835190928392604490910191908501908083836000831561456657818101518382015260200161454e565b505050900390565b600061134261461b84670de0b6b3a7640000613c3c565b8351613c7e565b60007f45b96fe442630264581b197e84bbada861235052c5a1aadfff9ea4e40a969aa084601081111561465157fe5b84603781111561465d57fe5b604080519283526020830191909152818101859052519081900360600190a1836010811115612f5d57fe5b51670de0b6b3a7640000900490565b6000806000806146a56139ef565b600954146146c4576146b9600a6036613022565b9350915061472e9050565b6146cf33878761320f565b90506146dd600c5482612b43565b600c819055604080513381526020810184905280820183905290519193507fa91e67c5ea634cd43a12c5a482724b03de01e85ca68702a53d0c2f45cb7c1dc5919081900360600190a1600093509150505b9250929050565b6000614740856135b6565b83158061474b575082155b6147865760405162461bcd60e51b81526004018080602001828103825260348152602001806157de6034913960400191505060405180910390fd5b61478e6155b5565b614796612bb3565b815284156147c7576020808201869052604080519182019052815181526147bd9086612f65565b60408201526147f0565b6147e38460405180602001604052808460000151815250615496565b6020820152604081018490525b6001600160a01b0386166000908152600e6020908152604080832054601590925282205461481e9190612b79565b90506000809050818360200151111561483b578183602001510390505b6148436139ef565b6009541461485757612d14600a601b613022565b8260400151614864612b3d565b101561487657612d14600e601c613022565b61488588846040015187613108565b614895600d548460200151612b79565b600d556001600160a01b0388166000908152600e6020908152604090912054908401516148c29190612b79565b6001600160a01b0389166000908152600e602052604090205580156148eb576148eb8882613843565b306001600160a01b0316886001600160a01b031660008051602061578c83398151915285602001516040518082815260200191505060405180910390a360408084015160208086015183516001600160a01b038d168152918201929092528083019190915290517fe5b754fb1abb7f01b499791d0b820ae3b6af3424ac1c59768edb53f4ec31a9299181900360600190a1600554604080850151602086015182516351dff98960e01b81523060048201526001600160a01b038d811660248301526044820193909352606481019190915291519216916351dff9899160848082019260009290919082900301818387803b1580156149e857600080fd5b505af11580156149fc573d6000803e3d6000fd5b5060009250614a09915050565b98975050505050505050565b600080614a21856135b6565b60055460408051634ef4c3e160e01b81523060048201526001600160a01b0388811660248301526044820188905291516000939290921691634ef4c3e19160648082019260209290919082900301818787803b158015614a8057600080fd5b505af1158015614a94573d6000803e3d6000fd5b505050506040513d6020811015614aaa57600080fd5b505190508015614ace57614ac16003601583614622565b925060009150614cb39050565b84614ada576000614ac1565b614ae26139ef565b60095414614af657614ac1600a6016613022565b614afe6155b5565b614b06612bb3565b8152614b1387878761320f565b604080830182905280516020810190915282518152614b329190615496565b60208201819052600d54614b4591612b43565b600d556001600160a01b0387166000908152600e602090815260409091205490820151614b729190612b43565b6001600160a01b038089166000818152600e602090815260409182902094909455600554815163929fe9a160e01b81526004810193909352306024840152905192169263929fe9a192604480840193829003018186803b158015614bd557600080fd5b505afa158015614be9573d6000803e3d6000fd5b505050506040513d6020811015614bff57600080fd5b505115614c1657614c148782602001516136f8565b505b60408082015160208084015183516001600160a01b038c168152918201929092528083019190915290517f4c209b5fc8ad50758f13e2e1088ba56a560dff690a1c6fef26394f4c03821c4f9181900360600190a1866001600160a01b0316306001600160a01b031660008051602061578c83398151915283602001516040518082815260200191505060405180910390a360400151600093509150505b935093915050565b6000831580614cc8575082155b15614cd557506000611342565b83830283858281614ce257fe5b041483906145a15760405162461bcd60e51b815260206004820181815283516024840152835190928392604490910191908501908083836000831561456657818101518382015260200161454e565b60008183614d805760405162461bcd60e51b815260206004820181815283516024840152835190928392604490910191908501908083836000831561456657818101518382015260200161454e565b50828481614d8a57fe5b04949350505050565b6005546040805163368f515360e21b81523060048201526001600160a01b0386811660248301526044820186905291516000938493169163da3d454c91606480830192602092919082900301818787803b158015614df057600080fd5b505af1158015614e04573d6000803e3d6000fd5b505050506040513d6020811015614e1a57600080fd5b505190508015614e3957614e316003600683614622565b915050611342565b83614e6557600a546001600160a01b038616600090815260106020526040812060010191909155614e31565b614e6d6139ef565b60095414614e8157614e31600a6004613022565b83614e8a612b3d565b1015614e9c57614e31600e6003613022565b614ea46155d6565b614ead8661399a565b60208201819052614ebe9086612b43565b6040820152600b54614ed09086612b43565b6060820152614ee0868686613108565b604080820180516001600160a01b03891660008181526010602090815290859020928355600a54600190930192909255606080860151600b819055935185519283529282018a9052818501929092529081019190915290517f13ed6866d4e1ee6da46f845c46d7e54120883d75c5ea9a2dacc1c4ca8984ab809181900360800190a160009695505050505050565b60055460408051632fe3f38f60e11b81523060048201526001600160a01b0385811660248301528881166044830152878116606483015260848201879052915160009384938493911691635fc7e71e9160a48082019260209290919082900301818787803b158015614fdf57600080fd5b505af1158015614ff3573d6000803e3d6000fd5b505050506040513d602081101561500957600080fd5b50519050801561502d576150206003600a83614622565b92506000915061548c9050565b6150356139ef565b6009541461504957615020600a600e613022565b6150516139ef565b856001600160a01b031663cfa992016040518163ffffffff1660e01b815260040160206040518083038186803b15801561508a57600080fd5b505afa15801561509e573d6000803e3d6000fd5b505050506040513d60208110156150b457600080fd5b5051146150c757615020600a6009613022565b876001600160a01b0316876001600160a01b031614156150ed576150206006600f613022565b856150fe576150206007600d613022565b600019861415615114576150206007600c613022565b6000806151238a8a8a8961426d565b909250905081156151535761514482601081111561513d57fe5b6010613022565b94506000935061548c92505050565b6005546040805163c488847b60e01b81523060048201526001600160a01b038a81166024830152604482018590528251600094859492169263c488847b926064808301939192829003018186803b1580156151ad57600080fd5b505afa1580156151c1573d6000803e3d6000fd5b505050506040513d60408110156151d757600080fd5b508051602090910151909250905081156152225760405162461bcd60e51b815260040180806020018281038252603281526020018061563e6032913960400191505060405180910390fd5b80896001600160a01b03166370a082318d6040518263ffffffff1660e01b815260040180826001600160a01b03166001600160a01b0316815260200191505060206040518083038186803b15801561527957600080fd5b505afa15801561528d573d6000803e3d6000fd5b505050506040513d60208110156152a357600080fd5b505110156152f8576040805162461bcd60e51b815260206004820152601860248201527f4c49515549444154455f5345495a455f544f4f5f4d5543480000000000000000604482015290519081900360640190fd5b60006001600160a01b038a1630141561531e57615317308e8e85613cb1565b90506153a8565b6040805163b2a02ff160e01b81526001600160a01b038f811660048301528e81166024830152604482018590529151918c169163b2a02ff1916064808201926020929091908290030181600087803b15801561537957600080fd5b505af115801561538d573d6000803e3d6000fd5b505050506040513d60208110156153a357600080fd5b505190505b80156153f2576040805162461bcd60e51b81526020600482015260146024820152731d1bdad95b881cd95a5e9d5c994819985a5b195960621b604482015290519081900360640190fd5b7f298637f684da70674f26509b10f07ec2fbc77a335ab1e7d6215a4b2484d8bb528d8d868d8660405180866001600160a01b03166001600160a01b03168152602001856001600160a01b03166001600160a01b03168152602001848152602001836001600160a01b03166001600160a01b031681526020018281526020019550505050505060405180910390a16000975092955050505050505b9550959350505050565b60006154a06154e2565b612f7984846154ad6154e2565b60006154c1670de0b6b3a764000085613c3c565b905060405180602001604052806154d88386614604565b9052949350505050565b6040518060200160405280600081525090565b828054600181600116156101000203166002900490600052602060002090601f016020900481019282601f1061553657805160ff1916838001178555615563565b82800160010185558215615563579182015b82811115615563578251825591602001919060010190615548565b50612c159291506155ff565b6040805161010081019091528060008152602001600081526020016000815260200160008152602001600081526020016000815260200160008152602001600081525090565b60405180606001604052806000815260200160008152602001600081525090565b604080516080810190915280600081526020016000815260200160008152602001600081525090565b61111f91905b80821115612c15576000815560010161560556fe6f6e6c792061646d696e206d617920696e697469616c697a6520746865206d61726b65744c49515549444154455f4a4f4554524f4c4c45525f43414c43554c4154455f414d4f554e545f5345495a455f4641494c45446d61726b6574206d6179206f6e6c7920626520696e697469616c697a6564206f6e6365696e697469616c2065786368616e67652072617465206d7573742062652067726561746572207468616e207a65726f2e6f6e6c792061646d696e2063616e2073657420636f6c6c61746572616c2063617073657474696e6720696e7465726573742072617465206d6f64656c206661696c65646f6e6c79206a6f6574726f6c6c6572206d617920726567697374657220636f6c6c61746572616c20666f7220757365726f6e6c79207468652061646d696e206d61792063616c6c205f72657369676e496d706c656d656e746174696f6e45524333313536466c617368426f72726f776572496e746572666163652e6f6e466c6173684c6f616eddf252ad1be2c89b69c2b068fc378daa952ba7f163c4a11628f55a4df523b3ef6f6e6c79206a6f6574726f6c6c6572206d617920756e726567697374657220636f6c6c61746572616c20666f7220757365726f6e65206f662072656465656d546f6b656e73496e206f722072656465656d416d6f756e74496e206d757374206265207a65726f6f6e6c79207468652061646d696e206d61792063616c6c205f6265636f6d65496d706c656d656e746174696f6e1d22042d9eb89f2620572acbf8d85b66fba5a2ca19d166d8659574440175c964666c6173684c6f616e20616d6f756e742073686f756c642062652067726561746572207468616e207a65726fa265627a7a72315820411a0c66bc396fc319d1c2a32a2763fead6fc7b7467d70456d1e6c39266868e064736f6c63430005100032",
  "devdoc": {
    "author": "Cream",
    "methods": {
      "_acceptAdmin()": {
        "details": "Admin function for pending admin to accept role and update admin",
        "return": "uint 0=success, otherwise a failure (see ErrorReporter.sol for details)"
      },
      "_addReserves(uint256)": {
        "params": {
          "addAmount": "The amount fo underlying token to add as reserves"
        },
        "return": "uint 0=success, otherwise a failure (see ErrorReporter.sol for details)"
      },
      "_becomeImplementation(bytes)": {
        "params": {
          "data": "The encoded bytes data for any initialization"
        }
      },
      "_reduceReserves(uint256)": {
        "params": {
          "reduceAmount": "Amount of reduction to reserves"
        },
        "return": "uint 0=success, otherwise a failure (see ErrorReporter.sol for details)"
      },
      "_setCollateralCap(uint256)": {
        "params": {
          "newCollateralCap": "New collateral cap for this market. A value of 0 corresponds to no cap."
        }
      },
      "_setInterestRateModel(address)": {
        "details": "Admin function to accrue interest and update the interest rate model",
        "params": {
          "newInterestRateModel": "the new interest rate model to use"
        },
        "return": "uint 0=success, otherwise a failure (see ErrorReporter.sol for details)"
      },
      "_setJoetroller(address)": {
        "details": "Admin function to set a new joetroller",
        "return": "uint 0=success, otherwise a failure (see ErrorReporter.sol for details)"
      },
      "_setPendingAdmin(address)": {
        "details": "Admin function to begin change of admin. The newPendingAdmin must call `_acceptAdmin` to finalize the transfer.",
        "params": {
          "newPendingAdmin": "New pending admin."
        },
        "return": "uint 0=success, otherwise a failure (see ErrorReporter.sol for details)"
      },
      "_setReserveFactor(uint256)": {
        "details": "Admin function to accrue interest and set a new reserve factor",
        "return": "uint 0=success, otherwise a failure (see ErrorReporter.sol for details)"
      },
      "accrueInterest()": {
        "details": "This calculates interest accrued from the last checkpointed timestamp   up to the current timestamp and writes new checkpoint to storage."
      },
      "allowance(address,address)": {
        "params": {
          "owner": "The address of the account which owns the tokens to be spent",
          "spender": "The address of the account which may transfer tokens"
        },
        "return": "The number of tokens allowed to be spent (-1 means infinite)"
      },
      "approve(address,uint256)": {
        "details": "This will overwrite the approval amount for `spender` and is subject to issues noted [here](https://eips.ethereum.org/EIPS/eip-20#approve)",
        "params": {
          "amount": "The number of tokens that are approved (-1 means infinite)",
          "spender": "The address of the account which may transfer tokens"
        },
        "return": "Whether or not the approval succeeded"
      },
      "balanceOf(address)": {
        "params": {
          "owner": "The address of the account to query"
        },
        "return": "The number of tokens owned by `owner`"
      },
      "balanceOfUnderlying(address)": {
        "details": "This also accrues interest in a transaction",
        "params": {
          "owner": "The address of the account to query"
        },
        "return": "The amount of underlying owned by `owner`"
      },
      "borrow(uint256)": {
        "params": {
          "borrowAmount": "The amount of the underlying asset to borrow"
        },
        "return": "uint 0=success, otherwise a failure (see ErrorReporter.sol for details)"
      },
      "borrowBalanceCurrent(address)": {
        "params": {
          "account": "The address whose balance should be calculated after updating borrowIndex"
        },
        "return": "The calculated balance"
      },
      "borrowBalanceStored(address)": {
        "params": {
          "account": "The address whose balance should be calculated"
        },
        "return": "The calculated balance"
      },
      "borrowRatePerSecond()": {
        "return": "The borrow interest rate per sec, scaled by 1e18"
      },
      "estimateBorrowRatePerSecondAfterChange(uint256,bool)": {
        "return": "The borrow interest rate per sec, scaled by 1e18"
      },
      "estimateSupplyRatePerSecondAfterChange(uint256,bool)": {
        "return": "The supply interest rate per sec, scaled by 1e18"
      },
      "exchangeRateCurrent()": {
        "return": "Calculated exchange rate scaled by 1e18"
      },
      "exchangeRateStored()": {
        "details": "This function does not accrue interest before calculating the exchange rate",
        "return": "Calculated exchange rate scaled by 1e18"
      },
      "flashFee(uint256)": {
        "params": {
          "amount": "amount of token to borrow"
        }
      },
      "flashLoan(address,address,uint256,bytes)": {
        "params": {
          "amount": "The amount of the funds to be loaned",
          "data": "The other data",
          "initiator": "flash loan initiator",
          "receiver": "The receiver address for the funds"
        },
        "return": "uint 0=success, otherwise a failure (see ErrorReporter.sol for details)"
      },
      "getAccountSnapshot(address)": {
        "details": "This is used by joetroller to more efficiently perform liquidity checks.",
        "params": {
          "account": "Address of the account to snapshot"
        },
        "return": "(possible error, token balance, borrow balance, exchange rate mantissa)"
      },
      "getCash()": {
        "return": "The quantity of underlying asset owned by this contract"
      },
      "initialize(address,address,address,uint256,string,string,uint8)": {
        "params": {
          "decimals_": "ERC-20 decimal precision of this token",
          "initialExchangeRateMantissa_": "The initial exchange rate, scaled by 1e18",
          "interestRateModel_": "The address of the interest rate model",
          "joetroller_": "The address of the Joetroller",
          "name_": "ERC-20 name of this token",
          "symbol_": "ERC-20 symbol of this token",
          "underlying_": "The address of the underlying asset"
        }
      },
      "initialize(address,address,uint256,string,string,uint8)": {
        "params": {
          "decimals_": "EIP-20 decimal precision of this token",
          "initialExchangeRateMantissa_": "The initial exchange rate, scaled by 1e18",
          "interestRateModel_": "The address of the interest rate model",
          "joetroller_": "The address of the Joetroller",
          "name_": "EIP-20 name of this token",
          "symbol_": "EIP-20 symbol of this token"
        }
      },
      "liquidateBorrow(address,uint256,address)": {
        "params": {
          "borrower": "The borrower of this jToken to be liquidated",
          "jTokenCollateral": "The market in which to seize collateral from the borrower",
          "repayAmount": "The amount of the underlying borrowed asset to repay"
        },
        "return": "uint 0=success, otherwise a failure (see ErrorReporter.sol for details)"
      },
      "mint(uint256)": {
        "details": "Accrues interest whether or not the operation succeeds, unless reverted",
        "params": {
          "mintAmount": "The amount of the underlying asset to supply"
        },
        "return": "uint 0=success, otherwise a failure (see ErrorReporter.sol for details)"
      },
      "redeem(uint256)": {
        "details": "Accrues interest whether or not the operation succeeds, unless reverted",
        "params": {
          "redeemTokens": "The number of jTokens to redeem into underlying"
        },
        "return": "uint 0=success, otherwise a failure (see ErrorReporter.sol for details)"
      },
      "redeemUnderlying(uint256)": {
        "details": "Accrues interest whether or not the operation succeeds, unless reverted",
        "params": {
          "redeemAmount": "The amount of underlying to redeem"
        },
        "return": "uint 0=success, otherwise a failure (see ErrorReporter.sol for details)"
      },
      "registerCollateral(address)": {
        "details": "This function could only be called by joetroller.",
        "params": {
          "account": "The account to register"
        },
        "return": "The actual registered amount of collateral"
      },
      "repayBorrow(uint256)": {
        "params": {
          "repayAmount": "The amount to repay"
        },
        "return": "uint 0=success, otherwise a failure (see ErrorReporter.sol for details)"
      },
      "seize(address,address,uint256)": {
        "details": "Will fail unless called by another jToken during the process of liquidation. Its absolutely critical to use msg.sender as the borrowed jToken and not a parameter.",
        "params": {
          "borrower": "The account having collateral seized",
          "liquidator": "The account receiving seized collateral",
          "seizeTokens": "The number of jTokens to seize"
        },
        "return": "uint 0=success, otherwise a failure (see ErrorReporter.sol for details)"
      },
      "supplyRatePerSecond()": {
        "return": "The supply interest rate per sec, scaled by 1e18"
      },
      "totalBorrowsCurrent()": {
        "return": "The total borrows with interest"
      },
      "transfer(address,uint256)": {
        "params": {
          "amount": "The number of tokens to transfer",
          "dst": "The address of the destination account"
        },
        "return": "Whether or not the transfer succeeded"
      },
      "transferFrom(address,address,uint256)": {
        "params": {
          "amount": "The number of tokens to transfer",
          "dst": "The address of the destination account",
          "src": "The address of the source account"
        },
        "return": "Whether or not the transfer succeeded"
      },
      "unregisterCollateral(address)": {
        "details": "This function could only be called by joetroller.",
        "params": {
          "account": "The account to unregister"
        }
      }
    },
    "title": "Cream's JCollateralCapErc20Delegate Contract"
  },
  "userdoc": {
    "methods": {
      "_acceptAdmin()": {
        "notice": "Accepts transfer of admin rights. msg.sender must be pendingAdmin"
      },
      "_addReserves(uint256)": {
        "notice": "The sender adds to reserves."
      },
      "_becomeImplementation(bytes)": {
        "notice": "Called by the delegator on a delegate to initialize it for duty"
      },
      "_reduceReserves(uint256)": {
        "notice": "Accrues interest and reduces reserves by transferring to admin"
      },
      "_resignImplementation()": {
        "notice": "Called by the delegator on a delegate to forfeit its responsibility"
      },
      "_setCollateralCap(uint256)": {
        "notice": "Set the given collateral cap for the market."
      },
      "_setInterestRateModel(address)": {
        "notice": "accrues interest and updates the interest rate model using _setInterestRateModelFresh"
      },
      "_setJoetroller(address)": {
        "notice": "Sets a new joetroller for the market"
      },
      "_setPendingAdmin(address)": {
        "notice": "Begins transfer of admin rights. The newPendingAdmin must call `_acceptAdmin` to finalize the transfer."
      },
      "_setReserveFactor(uint256)": {
        "notice": "accrues interest and sets a new reserve factor for the protocol using _setReserveFactorFresh"
      },
      "accrueInterest()": {
        "notice": "Applies accrued interest to total borrows and reserves"
      },
      "allowance(address,address)": {
        "notice": "Get the current allowance from `owner` for `spender`"
      },
      "approve(address,uint256)": {
        "notice": "Approve `spender` to transfer up to `amount` from `src`"
      },
      "balanceOf(address)": {
        "notice": "Get the token balance of the `owner`"
      },
      "balanceOfUnderlying(address)": {
        "notice": "Get the underlying balance of the `owner`"
      },
      "borrow(uint256)": {
        "notice": "Sender borrows assets from the protocol to their own address"
      },
      "borrowBalanceCurrent(address)": {
        "notice": "Accrue interest to updated borrowIndex and then calculate account's borrow balance using the updated borrowIndex"
      },
      "borrowBalanceStored(address)": {
        "notice": "Return the borrow balance of account based on stored data"
      },
      "borrowRatePerSecond()": {
        "notice": "Returns the current per-sec borrow interest rate for this jToken"
      },
      "constructor": "Construct an empty delegate",
      "estimateBorrowRatePerSecondAfterChange(uint256,bool)": {
        "notice": "Returns the estimated per-sec borrow interest rate for this jToken after some change"
      },
      "estimateSupplyRatePerSecondAfterChange(uint256,bool)": {
        "notice": "Returns the estimated per-sec supply interest rate for this jToken after some change"
      },
      "exchangeRateCurrent()": {
        "notice": "Accrue interest then return the up-to-date exchange rate"
      },
      "exchangeRateStored()": {
        "notice": "Calculates the exchange rate from the underlying to the JToken"
      },
      "flashFee(uint256)": {
        "notice": "Get the flash loan fees"
      },
      "flashLoan(address,address,uint256,bytes)": {
        "notice": "Flash loan funds to a given account."
      },
      "getAccountSnapshot(address)": {
        "notice": "Get a snapshot of the account's balances, and the cached exchange rate"
      },
      "getCash()": {
        "notice": "Get cash balance of this jToken in the underlying asset"
      },
      "gulp()": {
        "notice": "Absorb excess cash into reserves."
      },
      "initialize(address,address,address,uint256,string,string,uint8)": {
        "notice": "Initialize the new money market"
      },
      "initialize(address,address,uint256,string,string,uint8)": {
        "notice": "Initialize the money market"
      },
      "liquidateBorrow(address,uint256,address)": {
        "notice": "The sender liquidates the borrowers collateral. The collateral seized is transferred to the liquidator."
      },
      "maxFlashLoan()": {
        "notice": "Get the max flash loan amount"
      },
      "mint(uint256)": {
        "notice": "Sender supplies assets into the market and receives jTokens in exchange"
      },
      "redeem(uint256)": {
        "notice": "Sender redeems jTokens in exchange for the underlying asset"
      },
      "redeemUnderlying(uint256)": {
        "notice": "Sender redeems jTokens in exchange for a specified amount of underlying asset"
      },
      "registerCollateral(address)": {
        "notice": "Register account collateral tokens if there is space."
      },
      "repayBorrow(uint256)": {
        "notice": "Sender repays their own borrow"
      },
      "seize(address,address,uint256)": {
        "notice": "Transfers collateral tokens (this market) to the liquidator."
      },
      "supplyRatePerSecond()": {
        "notice": "Returns the current per-sec supply interest rate for this jToken"
      },
      "totalBorrowsCurrent()": {
        "notice": "Returns the current total borrows plus accrued interest"
      },
      "transfer(address,uint256)": {
        "notice": "Transfer `amount` tokens from `msg.sender` to `dst`"
      },
      "transferFrom(address,address,uint256)": {
        "notice": "Transfer `amount` tokens from `src` to `dst`"
      },
      "unregisterCollateral(address)": {
        "notice": "Unregister account collateral tokens if the account still has enough collateral."
      }
    },
    "notice": "JTokens which wrap an EIP-20 underlying and are delegated to"
  },
  "storageLayout": {
    "storage": [
      {
        "astId": 14604,
        "contract": "contracts/JCollateralCapErc20Delegate.sol:JCollateralCapErc20Delegate",
        "label": "_notEntered",
        "offset": 0,
        "slot": "0",
        "type": "t_bool"
      },
      {
        "astId": 14606,
        "contract": "contracts/JCollateralCapErc20Delegate.sol:JCollateralCapErc20Delegate",
        "label": "name",
        "offset": 0,
        "slot": "1",
        "type": "t_string_storage"
      },
      {
        "astId": 14608,
        "contract": "contracts/JCollateralCapErc20Delegate.sol:JCollateralCapErc20Delegate",
        "label": "symbol",
        "offset": 0,
        "slot": "2",
        "type": "t_string_storage"
      },
      {
        "astId": 14610,
        "contract": "contracts/JCollateralCapErc20Delegate.sol:JCollateralCapErc20Delegate",
        "label": "decimals",
        "offset": 0,
        "slot": "3",
        "type": "t_uint8"
      },
      {
        "astId": 14618,
        "contract": "contracts/JCollateralCapErc20Delegate.sol:JCollateralCapErc20Delegate",
        "label": "admin",
        "offset": 1,
        "slot": "3",
        "type": "t_address_payable"
      },
      {
        "astId": 14620,
        "contract": "contracts/JCollateralCapErc20Delegate.sol:JCollateralCapErc20Delegate",
        "label": "pendingAdmin",
        "offset": 0,
        "slot": "4",
        "type": "t_address_payable"
      },
      {
        "astId": 14622,
        "contract": "contracts/JCollateralCapErc20Delegate.sol:JCollateralCapErc20Delegate",
        "label": "joetroller",
        "offset": 0,
        "slot": "5",
        "type": "t_contract(JoetrollerInterface)20786"
      },
      {
        "astId": 14624,
        "contract": "contracts/JCollateralCapErc20Delegate.sol:JCollateralCapErc20Delegate",
        "label": "interestRateModel",
        "offset": 0,
        "slot": "6",
        "type": "t_contract(InterestRateModel)2448"
      },
      {
        "astId": 14626,
        "contract": "contracts/JCollateralCapErc20Delegate.sol:JCollateralCapErc20Delegate",
        "label": "initialExchangeRateMantissa",
        "offset": 0,
        "slot": "7",
        "type": "t_uint256"
      },
      {
        "astId": 14628,
        "contract": "contracts/JCollateralCapErc20Delegate.sol:JCollateralCapErc20Delegate",
        "label": "reserveFactorMantissa",
        "offset": 0,
        "slot": "8",
        "type": "t_uint256"
      },
      {
        "astId": 14630,
        "contract": "contracts/JCollateralCapErc20Delegate.sol:JCollateralCapErc20Delegate",
        "label": "accrualBlockTimestamp",
        "offset": 0,
        "slot": "9",
        "type": "t_uint256"
      },
      {
        "astId": 14632,
        "contract": "contracts/JCollateralCapErc20Delegate.sol:JCollateralCapErc20Delegate",
        "label": "borrowIndex",
        "offset": 0,
        "slot": "10",
        "type": "t_uint256"
      },
      {
        "astId": 14634,
        "contract": "contracts/JCollateralCapErc20Delegate.sol:JCollateralCapErc20Delegate",
        "label": "totalBorrows",
        "offset": 0,
        "slot": "11",
        "type": "t_uint256"
      },
      {
        "astId": 14636,
        "contract": "contracts/JCollateralCapErc20Delegate.sol:JCollateralCapErc20Delegate",
        "label": "totalReserves",
        "offset": 0,
        "slot": "12",
        "type": "t_uint256"
      },
      {
        "astId": 14638,
        "contract": "contracts/JCollateralCapErc20Delegate.sol:JCollateralCapErc20Delegate",
        "label": "totalSupply",
        "offset": 0,
        "slot": "13",
        "type": "t_uint256"
      },
      {
        "astId": 14642,
        "contract": "contracts/JCollateralCapErc20Delegate.sol:JCollateralCapErc20Delegate",
        "label": "accountTokens",
        "offset": 0,
        "slot": "14",
        "type": "t_mapping(t_address,t_uint256)"
      },
      {
        "astId": 14648,
        "contract": "contracts/JCollateralCapErc20Delegate.sol:JCollateralCapErc20Delegate",
        "label": "transferAllowances",
        "offset": 0,
        "slot": "15",
        "type": "t_mapping(t_address,t_mapping(t_address,t_uint256))"
      },
      {
        "astId": 14657,
        "contract": "contracts/JCollateralCapErc20Delegate.sol:JCollateralCapErc20Delegate",
        "label": "accountBorrows",
        "offset": 0,
        "slot": "16",
        "type": "t_mapping(t_address,t_struct(BorrowSnapshot)14653_storage)"
      },
      {
        "astId": 14660,
        "contract": "contracts/JCollateralCapErc20Delegate.sol:JCollateralCapErc20Delegate",
        "label": "underlying",
        "offset": 0,
        "slot": "17",
        "type": "t_address"
      },
      {
        "astId": 14662,
        "contract": "contracts/JCollateralCapErc20Delegate.sol:JCollateralCapErc20Delegate",
        "label": "implementation",
        "offset": 0,
        "slot": "18",
        "type": "t_address"
      },
      {
        "astId": 14665,
        "contract": "contracts/JCollateralCapErc20Delegate.sol:JCollateralCapErc20Delegate",
        "label": "internalCash",
        "offset": 0,
        "slot": "19",
        "type": "t_uint256"
      },
      {
        "astId": 14668,
        "contract": "contracts/JCollateralCapErc20Delegate.sol:JCollateralCapErc20Delegate",
        "label": "totalCollateralTokens",
        "offset": 0,
        "slot": "20",
        "type": "t_uint256"
      },
      {
        "astId": 14672,
        "contract": "contracts/JCollateralCapErc20Delegate.sol:JCollateralCapErc20Delegate",
        "label": "accountCollateralTokens",
        "offset": 0,
        "slot": "21",
        "type": "t_mapping(t_address,t_uint256)"
      },
      {
        "astId": 14676,
        "contract": "contracts/JCollateralCapErc20Delegate.sol:JCollateralCapErc20Delegate",
        "label": "isCollateralTokenInit",
        "offset": 0,
        "slot": "22",
        "type": "t_mapping(t_address,t_bool)"
      },
      {
        "astId": 14678,
        "contract": "contracts/JCollateralCapErc20Delegate.sol:JCollateralCapErc20Delegate",
        "label": "collateralCap",
        "offset": 0,
        "slot": "23",
        "type": "t_uint256"
      }
    ],
    "types": {
      "t_address": {
        "encoding": "inplace",
        "label": "address",
        "numberOfBytes": "20"
      },
      "t_address_payable": {
        "encoding": "inplace",
        "label": "address payable",
        "numberOfBytes": "20"
      },
      "t_bool": {
        "encoding": "inplace",
        "label": "bool",
        "numberOfBytes": "1"
      },
      "t_contract(InterestRateModel)2448": {
        "encoding": "inplace",
        "label": "contract InterestRateModel",
        "numberOfBytes": "20"
      },
      "t_contract(JoetrollerInterface)20786": {
        "encoding": "inplace",
        "label": "contract JoetrollerInterface",
        "numberOfBytes": "20"
      },
      "t_mapping(t_address,t_bool)": {
        "encoding": "mapping",
        "key": "t_address",
        "label": "mapping(address => bool)",
        "numberOfBytes": "32",
        "value": "t_bool"
      },
      "t_mapping(t_address,t_mapping(t_address,t_uint256))": {
        "encoding": "mapping",
        "key": "t_address",
        "label": "mapping(address => mapping(address => uint256))",
        "numberOfBytes": "32",
        "value": "t_mapping(t_address,t_uint256)"
      },
      "t_mapping(t_address,t_struct(BorrowSnapshot)14653_storage)": {
        "encoding": "mapping",
        "key": "t_address",
        "label": "mapping(address => struct JTokenStorage.BorrowSnapshot)",
        "numberOfBytes": "32",
        "value": "t_struct(BorrowSnapshot)14653_storage"
      },
      "t_mapping(t_address,t_uint256)": {
        "encoding": "mapping",
        "key": "t_address",
        "label": "mapping(address => uint256)",
        "numberOfBytes": "32",
        "value": "t_uint256"
      },
      "t_string_storage": {
        "encoding": "bytes",
        "label": "string",
        "numberOfBytes": "32"
      },
      "t_struct(BorrowSnapshot)14653_storage": {
        "encoding": "inplace",
        "label": "struct JTokenStorage.BorrowSnapshot",
        "members": [
          {
            "astId": 14650,
            "contract": "contracts/JCollateralCapErc20Delegate.sol:JCollateralCapErc20Delegate",
            "label": "principal",
            "offset": 0,
            "slot": "0",
            "type": "t_uint256"
          },
          {
            "astId": 14652,
            "contract": "contracts/JCollateralCapErc20Delegate.sol:JCollateralCapErc20Delegate",
            "label": "interestIndex",
            "offset": 0,
            "slot": "1",
            "type": "t_uint256"
          }
        ],
        "numberOfBytes": "64"
      },
      "t_uint256": {
        "encoding": "inplace",
        "label": "uint256",
        "numberOfBytes": "32"
      },
      "t_uint8": {
        "encoding": "inplace",
        "label": "uint8",
        "numberOfBytes": "1"
      }
    }
  }
}