{
  "address": "0x338700BfCe92d34444caC2AE194a1f5a7883F820",
  "abi": [
    {
      "inputs": [],
      "payable": false,
      "stateMutability": "nonpayable",
      "type": "constructor"
    },
    {
      "anonymous": false,
      "inputs": [
        {
          "indexed": false,
          "internalType": "uint256",
          "name": "cashPrior",
          "type": "uint256"
        },
        {
          "indexed": false,
          "internalType": "uint256",
          "name": "interestAccumulated",
          "type": "uint256"
        },
        {
          "indexed": false,
          "internalType": "uint256",
          "name": "borrowIndex",
          "type": "uint256"
        },
        {
          "indexed": false,
          "internalType": "uint256",
          "name": "totalBorrows",
          "type": "uint256"
        }
      ],
      "name": "AccrueInterest",
      "type": "event"
    },
    {
      "anonymous": false,
      "inputs": [
        {
          "indexed": true,
          "internalType": "address",
          "name": "owner",
          "type": "address"
        },
        {
          "indexed": true,
          "internalType": "address",
          "name": "spender",
          "type": "address"
        },
        {
          "indexed": false,
          "internalType": "uint256",
          "name": "amount",
          "type": "uint256"
        }
      ],
      "name": "Approval",
      "type": "event"
    },
    {
      "anonymous": false,
      "inputs": [
        {
          "indexed": false,
          "internalType": "address",
          "name": "borrower",
          "type": "address"
        },
        {
          "indexed": false,
          "internalType": "uint256",
          "name": "borrowAmount",
          "type": "uint256"
        },
        {
          "indexed": false,
          "internalType": "uint256",
          "name": "accountBorrows",
          "type": "uint256"
        },
        {
          "indexed": false,
          "internalType": "uint256",
          "name": "totalBorrows",
          "type": "uint256"
        }
      ],
      "name": "Borrow",
      "type": "event"
    },
    {
      "anonymous": false,
      "inputs": [
        {
          "indexed": false,
          "internalType": "uint256",
          "name": "error",
          "type": "uint256"
        },
        {
          "indexed": false,
          "internalType": "uint256",
          "name": "info",
          "type": "uint256"
        },
        {
          "indexed": false,
          "internalType": "uint256",
          "name": "detail",
          "type": "uint256"
        }
      ],
      "name": "Failure",
      "type": "event"
    },
    {
      "anonymous": false,
      "inputs": [
        {
          "indexed": true,
          "internalType": "address",
          "name": "receiver",
          "type": "address"
        },
        {
          "indexed": false,
          "internalType": "uint256",
          "name": "amount",
          "type": "uint256"
        },
        {
          "indexed": false,
          "internalType": "uint256",
          "name": "totalFee",
          "type": "uint256"
        },
        {
          "indexed": false,
          "internalType": "uint256",
          "name": "reservesFee",
          "type": "uint256"
        }
      ],
      "name": "Flashloan",
      "type": "event"
    },
    {
      "anonymous": false,
      "inputs": [
        {
          "indexed": false,
          "internalType": "address",
          "name": "liquidator",
          "type": "address"
        },
        {
          "indexed": false,
          "internalType": "address",
          "name": "borrower",
          "type": "address"
        },
        {
          "indexed": false,
          "internalType": "uint256",
          "name": "repayAmount",
          "type": "uint256"
        },
        {
          "indexed": false,
          "internalType": "address",
          "name": "jTokenCollateral",
          "type": "address"
        },
        {
          "indexed": false,
          "internalType": "uint256",
          "name": "seizeTokens",
          "type": "uint256"
        }
      ],
      "name": "LiquidateBorrow",
      "type": "event"
    },
    {
      "anonymous": false,
      "inputs": [
        {
          "indexed": false,
          "internalType": "address",
          "name": "minter",
          "type": "address"
        },
        {
          "indexed": false,
          "internalType": "uint256",
          "name": "mintAmount",
          "type": "uint256"
        },
        {
          "indexed": false,
          "internalType": "uint256",
          "name": "mintTokens",
          "type": "uint256"
        }
      ],
      "name": "Mint",
      "type": "event"
    },
    {
      "anonymous": false,
      "inputs": [
        {
          "indexed": false,
          "internalType": "address",
          "name": "oldAdmin",
          "type": "address"
        },
        {
          "indexed": false,
          "internalType": "address",
          "name": "newAdmin",
          "type": "address"
        }
      ],
      "name": "NewAdmin",
      "type": "event"
    },
    {
      "anonymous": false,
      "inputs": [
        {
          "indexed": false,
          "internalType": "contract JoetrollerInterface",
          "name": "oldJoetroller",
          "type": "address"
        },
        {
          "indexed": false,
          "internalType": "contract JoetrollerInterface",
          "name": "newJoetroller",
          "type": "address"
        }
      ],
      "name": "NewJoetroller",
      "type": "event"
    },
    {
      "anonymous": false,
      "inputs": [
        {
          "indexed": false,
          "internalType": "contract InterestRateModel",
          "name": "oldInterestRateModel",
          "type": "address"
        },
        {
          "indexed": false,
          "internalType": "contract InterestRateModel",
          "name": "newInterestRateModel",
          "type": "address"
        }
      ],
      "name": "NewMarketInterestRateModel",
      "type": "event"
    },
    {
      "anonymous": false,
      "inputs": [
        {
          "indexed": false,
          "internalType": "address",
          "name": "oldPendingAdmin",
          "type": "address"
        },
        {
          "indexed": false,
          "internalType": "address",
          "name": "newPendingAdmin",
          "type": "address"
        }
      ],
      "name": "NewPendingAdmin",
      "type": "event"
    },
    {
      "anonymous": false,
      "inputs": [
        {
          "indexed": false,
          "internalType": "uint256",
          "name": "oldReserveFactorMantissa",
          "type": "uint256"
        },
        {
          "indexed": false,
          "internalType": "uint256",
          "name": "newReserveFactorMantissa",
          "type": "uint256"
        }
      ],
      "name": "NewReserveFactor",
      "type": "event"
    },
    {
      "anonymous": false,
      "inputs": [
        {
          "indexed": false,
          "internalType": "address",
          "name": "redeemer",
          "type": "address"
        },
        {
          "indexed": false,
          "internalType": "uint256",
          "name": "redeemAmount",
          "type": "uint256"
        },
        {
          "indexed": false,
          "internalType": "uint256",
          "name": "redeemTokens",
          "type": "uint256"
        }
      ],
      "name": "Redeem",
      "type": "event"
    },
    {
      "anonymous": false,
      "inputs": [
        {
          "indexed": false,
          "internalType": "address",
          "name": "payer",
          "type": "address"
        },
        {
          "indexed": false,
          "internalType": "address",
          "name": "borrower",
          "type": "address"
        },
        {
          "indexed": false,
          "internalType": "uint256",
          "name": "repayAmount",
          "type": "uint256"
        },
        {
          "indexed": false,
          "internalType": "uint256",
          "name": "accountBorrows",
          "type": "uint256"
        },
        {
          "indexed": false,
          "internalType": "uint256",
          "name": "totalBorrows",
          "type": "uint256"
        }
      ],
      "name": "RepayBorrow",
      "type": "event"
    },
    {
      "anonymous": false,
      "inputs": [
        {
          "indexed": false,
          "internalType": "address",
          "name": "benefactor",
          "type": "address"
        },
        {
          "indexed": false,
          "internalType": "uint256",
          "name": "addAmount",
          "type": "uint256"
        },
        {
          "indexed": false,
          "internalType": "uint256",
          "name": "newTotalReserves",
          "type": "uint256"
        }
      ],
      "name": "ReservesAdded",
      "type": "event"
    },
    {
      "anonymous": false,
      "inputs": [
        {
          "indexed": false,
          "internalType": "address",
          "name": "admin",
          "type": "address"
        },
        {
          "indexed": false,
          "internalType": "uint256",
          "name": "reduceAmount",
          "type": "uint256"
        },
        {
          "indexed": false,
          "internalType": "uint256",
          "name": "newTotalReserves",
          "type": "uint256"
        }
      ],
      "name": "ReservesReduced",
      "type": "event"
    },
    {
      "anonymous": false,
      "inputs": [
        {
          "indexed": true,
          "internalType": "address",
          "name": "from",
          "type": "address"
        },
        {
          "indexed": true,
          "internalType": "address",
          "name": "to",
          "type": "address"
        },
        {
          "indexed": false,
          "internalType": "uint256",
          "name": "amount",
          "type": "uint256"
        }
      ],
      "name": "Transfer",
      "type": "event"
    },
    {
      "payable": true,
      "stateMutability": "payable",
      "type": "fallback"
    },
    {
      "constant": false,
      "inputs": [],
      "name": "_acceptAdmin",
      "outputs": [
        {
          "internalType": "uint256",
          "name": "",
          "type": "uint256"
        }
      ],
      "payable": false,
      "stateMutability": "nonpayable",
      "type": "function"
    },
    {
      "constant": false,
      "inputs": [
        {
          "internalType": "uint256",
          "name": "addAmount",
          "type": "uint256"
        }
      ],
      "name": "_addReserves",
      "outputs": [
        {
          "internalType": "uint256",
          "name": "",
          "type": "uint256"
        }
      ],
      "payable": false,
      "stateMutability": "nonpayable",
      "type": "function"
    },
    {
      "constant": false,
      "inputs": [],
      "name": "_addReservesNative",
      "outputs": [
        {
          "internalType": "uint256",
          "name": "",
          "type": "uint256"
        }
      ],
      "payable": true,
      "stateMutability": "payable",
      "type": "function"
    },
    {
      "constant": false,
      "inputs": [
        {
          "internalType": "bytes",
          "name": "data",
          "type": "bytes"
        }
      ],
      "name": "_becomeImplementation",
      "outputs": [],
      "payable": false,
      "stateMutability": "nonpayable",
      "type": "function"
    },
    {
      "constant": false,
      "inputs": [
        {
          "internalType": "uint256",
          "name": "reduceAmount",
          "type": "uint256"
        }
      ],
      "name": "_reduceReserves",
      "outputs": [
        {
          "internalType": "uint256",
          "name": "",
          "type": "uint256"
        }
      ],
      "payable": false,
      "stateMutability": "nonpayable",
      "type": "function"
    },
    {
      "constant": false,
      "inputs": [],
      "name": "_resignImplementation",
      "outputs": [],
      "payable": false,
      "stateMutability": "nonpayable",
      "type": "function"
    },
    {
      "constant": false,
      "inputs": [
        {
          "internalType": "contract InterestRateModel",
          "name": "newInterestRateModel",
          "type": "address"
        }
      ],
      "name": "_setInterestRateModel",
      "outputs": [
        {
          "internalType": "uint256",
          "name": "",
          "type": "uint256"
        }
      ],
      "payable": false,
      "stateMutability": "nonpayable",
      "type": "function"
    },
    {
      "constant": false,
      "inputs": [
        {
          "internalType": "contract JoetrollerInterface",
          "name": "newJoetroller",
          "type": "address"
        }
      ],
      "name": "_setJoetroller",
      "outputs": [
        {
          "internalType": "uint256",
          "name": "",
          "type": "uint256"
        }
      ],
      "payable": false,
      "stateMutability": "nonpayable",
      "type": "function"
    },
    {
      "constant": false,
      "inputs": [
        {
          "internalType": "address payable",
          "name": "newPendingAdmin",
          "type": "address"
        }
      ],
      "name": "_setPendingAdmin",
      "outputs": [
        {
          "internalType": "uint256",
          "name": "",
          "type": "uint256"
        }
      ],
      "payable": false,
      "stateMutability": "nonpayable",
      "type": "function"
    },
    {
      "constant": false,
      "inputs": [
        {
          "internalType": "uint256",
          "name": "newReserveFactorMantissa",
          "type": "uint256"
        }
      ],
      "name": "_setReserveFactor",
      "outputs": [
        {
          "internalType": "uint256",
          "name": "",
          "type": "uint256"
        }
      ],
      "payable": false,
      "stateMutability": "nonpayable",
      "type": "function"
    },
    {
      "constant": true,
      "inputs": [],
      "name": "accrualBlockTimestamp",
      "outputs": [
        {
          "internalType": "uint256",
          "name": "",
          "type": "uint256"
        }
      ],
      "payable": false,
      "stateMutability": "view",
      "type": "function"
    },
    {
      "constant": false,
      "inputs": [],
      "name": "accrueInterest",
      "outputs": [
        {
          "internalType": "uint256",
          "name": "",
          "type": "uint256"
        }
      ],
      "payable": false,
      "stateMutability": "nonpayable",
      "type": "function"
    },
    {
      "constant": true,
      "inputs": [],
      "name": "admin",
      "outputs": [
        {
          "internalType": "address payable",
          "name": "",
          "type": "address"
        }
      ],
      "payable": false,
      "stateMutability": "view",
      "type": "function"
    },
    {
      "constant": true,
      "inputs": [
        {
          "internalType": "address",
          "name": "owner",
          "type": "address"
        },
        {
          "internalType": "address",
          "name": "spender",
          "type": "address"
        }
      ],
      "name": "allowance",
      "outputs": [
        {
          "internalType": "uint256",
          "name": "",
          "type": "uint256"
        }
      ],
      "payable": false,
      "stateMutability": "view",
      "type": "function"
    },
    {
      "constant": false,
      "inputs": [
        {
          "internalType": "address",
          "name": "spender",
          "type": "address"
        },
        {
          "internalType": "uint256",
          "name": "amount",
          "type": "uint256"
        }
      ],
      "name": "approve",
      "outputs": [
        {
          "internalType": "bool",
          "name": "",
          "type": "bool"
        }
      ],
      "payable": false,
      "stateMutability": "nonpayable",
      "type": "function"
    },
    {
      "constant": true,
      "inputs": [
        {
          "internalType": "address",
          "name": "owner",
          "type": "address"
        }
      ],
      "name": "balanceOf",
      "outputs": [
        {
          "internalType": "uint256",
          "name": "",
          "type": "uint256"
        }
      ],
      "payable": false,
      "stateMutability": "view",
      "type": "function"
    },
    {
      "constant": false,
      "inputs": [
        {
          "internalType": "address",
          "name": "owner",
          "type": "address"
        }
      ],
      "name": "balanceOfUnderlying",
      "outputs": [
        {
          "internalType": "uint256",
          "name": "",
          "type": "uint256"
        }
      ],
      "payable": false,
      "stateMutability": "nonpayable",
      "type": "function"
    },
    {
      "constant": false,
      "inputs": [
        {
          "internalType": "uint256",
          "name": "borrowAmount",
          "type": "uint256"
        }
      ],
      "name": "borrow",
      "outputs": [
        {
          "internalType": "uint256",
          "name": "",
          "type": "uint256"
        }
      ],
      "payable": false,
      "stateMutability": "nonpayable",
      "type": "function"
    },
    {
      "constant": false,
      "inputs": [
        {
          "internalType": "address",
          "name": "account",
          "type": "address"
        }
      ],
      "name": "borrowBalanceCurrent",
      "outputs": [
        {
          "internalType": "uint256",
          "name": "",
          "type": "uint256"
        }
      ],
      "payable": false,
      "stateMutability": "nonpayable",
      "type": "function"
    },
    {
      "constant": true,
      "inputs": [
        {
          "internalType": "address",
          "name": "account",
          "type": "address"
        }
      ],
      "name": "borrowBalanceStored",
      "outputs": [
        {
          "internalType": "uint256",
          "name": "",
          "type": "uint256"
        }
      ],
      "payable": false,
      "stateMutability": "view",
      "type": "function"
    },
    {
      "constant": true,
      "inputs": [],
      "name": "borrowIndex",
      "outputs": [
        {
          "internalType": "uint256",
          "name": "",
          "type": "uint256"
        }
      ],
      "payable": false,
      "stateMutability": "view",
      "type": "function"
    },
    {
      "constant": false,
      "inputs": [
        {
          "internalType": "uint256",
          "name": "borrowAmount",
          "type": "uint256"
        }
      ],
      "name": "borrowNative",
      "outputs": [
        {
          "internalType": "uint256",
          "name": "",
          "type": "uint256"
        }
      ],
      "payable": false,
      "stateMutability": "nonpayable",
      "type": "function"
    },
    {
      "constant": true,
      "inputs": [],
      "name": "borrowRatePerSecond",
      "outputs": [
        {
          "internalType": "uint256",
          "name": "",
          "type": "uint256"
        }
      ],
      "payable": false,
      "stateMutability": "view",
      "type": "function"
    },
    {
      "constant": true,
      "inputs": [],
      "name": "decimals",
      "outputs": [
        {
          "internalType": "uint8",
          "name": "",
          "type": "uint8"
        }
      ],
      "payable": false,
      "stateMutability": "view",
      "type": "function"
    },
    {
      "constant": true,
      "inputs": [
        {
          "internalType": "uint256",
          "name": "change",
          "type": "uint256"
        },
        {
          "internalType": "bool",
          "name": "repay",
          "type": "bool"
        }
      ],
      "name": "estimateBorrowRatePerSecondAfterChange",
      "outputs": [
        {
          "internalType": "uint256",
          "name": "",
          "type": "uint256"
        }
      ],
      "payable": false,
      "stateMutability": "view",
      "type": "function"
    },
    {
      "constant": true,
      "inputs": [
        {
          "internalType": "uint256",
          "name": "change",
          "type": "uint256"
        },
        {
          "internalType": "bool",
          "name": "repay",
          "type": "bool"
        }
      ],
      "name": "estimateSupplyRatePerSecondAfterChange",
      "outputs": [
        {
          "internalType": "uint256",
          "name": "",
          "type": "uint256"
        }
      ],
      "payable": false,
      "stateMutability": "view",
      "type": "function"
    },
    {
      "constant": false,
      "inputs": [],
      "name": "exchangeRateCurrent",
      "outputs": [
        {
          "internalType": "uint256",
          "name": "",
          "type": "uint256"
        }
      ],
      "payable": false,
      "stateMutability": "nonpayable",
      "type": "function"
    },
    {
      "constant": true,
      "inputs": [],
      "name": "exchangeRateStored",
      "outputs": [
        {
          "internalType": "uint256",
          "name": "",
          "type": "uint256"
        }
      ],
      "payable": false,
      "stateMutability": "view",
      "type": "function"
    },
    {
      "constant": true,
      "inputs": [
        {
          "internalType": "uint256",
          "name": "amount",
          "type": "uint256"
        }
      ],
      "name": "flashFee",
      "outputs": [
        {
          "internalType": "uint256",
          "name": "",
          "type": "uint256"
        }
      ],
      "payable": false,
      "stateMutability": "view",
      "type": "function"
    },
    {
      "constant": true,
      "inputs": [],
      "name": "flashFeeBips",
      "outputs": [
        {
          "internalType": "uint256",
          "name": "",
          "type": "uint256"
        }
      ],
      "payable": false,
      "stateMutability": "view",
      "type": "function"
    },
    {
      "constant": false,
      "inputs": [
        {
          "internalType": "contract ERC3156FlashBorrowerInterface",
          "name": "receiver",
          "type": "address"
        },
        {
          "internalType": "address",
          "name": "initiator",
          "type": "address"
        },
        {
          "internalType": "uint256",
          "name": "amount",
          "type": "uint256"
        },
        {
          "internalType": "bytes",
          "name": "data",
          "type": "bytes"
        }
      ],
      "name": "flashLoan",
      "outputs": [
        {
          "internalType": "bool",
          "name": "",
          "type": "bool"
        }
      ],
      "payable": false,
      "stateMutability": "nonpayable",
      "type": "function"
    },
    {
      "constant": true,
      "inputs": [
        {
          "internalType": "address",
          "name": "account",
          "type": "address"
        }
      ],
      "name": "getAccountSnapshot",
      "outputs": [
        {
          "internalType": "uint256",
          "name": "",
          "type": "uint256"
        },
        {
          "internalType": "uint256",
          "name": "",
          "type": "uint256"
        },
        {
          "internalType": "uint256",
          "name": "",
          "type": "uint256"
        },
        {
          "internalType": "uint256",
          "name": "",
          "type": "uint256"
        }
      ],
      "payable": false,
      "stateMutability": "view",
      "type": "function"
    },
    {
      "constant": true,
      "inputs": [],
      "name": "getCash",
      "outputs": [
        {
          "internalType": "uint256",
          "name": "",
          "type": "uint256"
        }
      ],
      "payable": false,
      "stateMutability": "view",
      "type": "function"
    },
    {
      "constant": true,
      "inputs": [],
      "name": "implementation",
      "outputs": [
        {
          "internalType": "address",
          "name": "",
          "type": "address"
        }
      ],
      "payable": false,
      "stateMutability": "view",
      "type": "function"
    },
    {
      "constant": false,
      "inputs": [
        {
          "internalType": "address",
          "name": "underlying_",
          "type": "address"
        },
        {
          "internalType": "contract JoetrollerInterface",
          "name": "joetroller_",
          "type": "address"
        },
        {
          "internalType": "contract InterestRateModel",
          "name": "interestRateModel_",
          "type": "address"
        },
        {
          "internalType": "uint256",
          "name": "initialExchangeRateMantissa_",
          "type": "uint256"
        },
        {
          "internalType": "string",
          "name": "name_",
          "type": "string"
        },
        {
          "internalType": "string",
          "name": "symbol_",
          "type": "string"
        },
        {
          "internalType": "uint8",
          "name": "decimals_",
          "type": "uint8"
        }
      ],
      "name": "initialize",
      "outputs": [],
      "payable": false,
      "stateMutability": "nonpayable",
      "type": "function"
    },
    {
      "constant": false,
      "inputs": [
        {
          "internalType": "contract JoetrollerInterface",
          "name": "joetroller_",
          "type": "address"
        },
        {
          "internalType": "contract InterestRateModel",
          "name": "interestRateModel_",
          "type": "address"
        },
        {
          "internalType": "uint256",
          "name": "initialExchangeRateMantissa_",
          "type": "uint256"
        },
        {
          "internalType": "string",
          "name": "name_",
          "type": "string"
        },
        {
          "internalType": "string",
          "name": "symbol_",
          "type": "string"
        },
        {
          "internalType": "uint8",
          "name": "decimals_",
          "type": "uint8"
        }
      ],
      "name": "initialize",
      "outputs": [],
      "payable": false,
      "stateMutability": "nonpayable",
      "type": "function"
    },
    {
      "constant": true,
      "inputs": [],
      "name": "interestRateModel",
      "outputs": [
        {
          "internalType": "contract InterestRateModel",
          "name": "",
          "type": "address"
        }
      ],
      "payable": false,
      "stateMutability": "view",
      "type": "function"
    },
    {
      "constant": true,
      "inputs": [],
      "name": "isJToken",
      "outputs": [
        {
          "internalType": "bool",
          "name": "",
          "type": "bool"
        }
      ],
      "payable": false,
      "stateMutability": "view",
      "type": "function"
    },
    {
      "constant": true,
      "inputs": [],
      "name": "joetroller",
      "outputs": [
        {
          "internalType": "contract JoetrollerInterface",
          "name": "",
          "type": "address"
        }
      ],
      "payable": false,
      "stateMutability": "view",
      "type": "function"
    },
    {
      "constant": false,
      "inputs": [
        {
          "internalType": "address",
          "name": "borrower",
          "type": "address"
        },
        {
          "internalType": "uint256",
          "name": "repayAmount",
          "type": "uint256"
        },
        {
          "internalType": "contract JTokenInterface",
          "name": "jTokenCollateral",
          "type": "address"
        }
      ],
      "name": "liquidateBorrow",
      "outputs": [
        {
          "internalType": "uint256",
          "name": "",
          "type": "uint256"
        }
      ],
      "payable": false,
      "stateMutability": "nonpayable",
      "type": "function"
    },
    {
      "constant": false,
      "inputs": [
        {
          "internalType": "address",
          "name": "borrower",
          "type": "address"
        },
        {
          "internalType": "contract JTokenInterface",
          "name": "jTokenCollateral",
          "type": "address"
        }
      ],
      "name": "liquidateBorrowNative",
      "outputs": [
        {
          "internalType": "uint256",
          "name": "",
          "type": "uint256"
        }
      ],
      "payable": true,
      "stateMutability": "payable",
      "type": "function"
    },
    {
      "constant": true,
      "inputs": [],
      "name": "maxFlashLoan",
      "outputs": [
        {
          "internalType": "uint256",
          "name": "",
          "type": "uint256"
        }
      ],
      "payable": false,
      "stateMutability": "view",
      "type": "function"
    },
    {
      "constant": false,
      "inputs": [
        {
          "internalType": "uint256",
          "name": "mintAmount",
          "type": "uint256"
        }
      ],
      "name": "mint",
      "outputs": [
        {
          "internalType": "uint256",
          "name": "",
          "type": "uint256"
        }
      ],
      "payable": false,
      "stateMutability": "nonpayable",
      "type": "function"
    },
    {
      "constant": false,
      "inputs": [],
      "name": "mintNative",
      "outputs": [
        {
          "internalType": "uint256",
          "name": "",
          "type": "uint256"
        }
      ],
      "payable": true,
      "stateMutability": "payable",
      "type": "function"
    },
    {
      "constant": true,
      "inputs": [],
      "name": "name",
      "outputs": [
        {
          "internalType": "string",
          "name": "",
          "type": "string"
        }
      ],
      "payable": false,
      "stateMutability": "view",
      "type": "function"
    },
    {
      "constant": true,
      "inputs": [],
      "name": "pendingAdmin",
      "outputs": [
        {
          "internalType": "address payable",
          "name": "",
          "type": "address"
        }
      ],
      "payable": false,
      "stateMutability": "view",
      "type": "function"
    },
    {
      "constant": false,
      "inputs": [
        {
          "internalType": "uint256",
          "name": "redeemTokens",
          "type": "uint256"
        }
      ],
      "name": "redeem",
      "outputs": [
        {
          "internalType": "uint256",
          "name": "",
          "type": "uint256"
        }
      ],
      "payable": false,
      "stateMutability": "nonpayable",
      "type": "function"
    },
    {
      "constant": false,
      "inputs": [
        {
          "internalType": "uint256",
          "name": "redeemTokens",
          "type": "uint256"
        }
      ],
      "name": "redeemNative",
      "outputs": [
        {
          "internalType": "uint256",
          "name": "",
          "type": "uint256"
        }
      ],
      "payable": false,
      "stateMutability": "nonpayable",
      "type": "function"
    },
    {
      "constant": false,
      "inputs": [
        {
          "internalType": "uint256",
          "name": "redeemAmount",
          "type": "uint256"
        }
      ],
      "name": "redeemUnderlying",
      "outputs": [
        {
          "internalType": "uint256",
          "name": "",
          "type": "uint256"
        }
      ],
      "payable": false,
      "stateMutability": "nonpayable",
      "type": "function"
    },
    {
      "constant": false,
      "inputs": [
        {
          "internalType": "uint256",
          "name": "redeemAmount",
          "type": "uint256"
        }
      ],
      "name": "redeemUnderlyingNative",
      "outputs": [
        {
          "internalType": "uint256",
          "name": "",
          "type": "uint256"
        }
      ],
      "payable": false,
      "stateMutability": "nonpayable",
      "type": "function"
    },
    {
      "constant": false,
      "inputs": [
        {
          "internalType": "uint256",
          "name": "repayAmount",
          "type": "uint256"
        }
      ],
      "name": "repayBorrow",
      "outputs": [
        {
          "internalType": "uint256",
          "name": "",
          "type": "uint256"
        }
      ],
      "payable": false,
      "stateMutability": "nonpayable",
      "type": "function"
    },
    {
      "constant": false,
      "inputs": [],
      "name": "repayBorrowNative",
      "outputs": [
        {
          "internalType": "uint256",
          "name": "",
          "type": "uint256"
        }
      ],
      "payable": true,
      "stateMutability": "payable",
      "type": "function"
    },
    {
      "constant": true,
      "inputs": [],
      "name": "reserveFactorMantissa",
      "outputs": [
        {
          "internalType": "uint256",
          "name": "",
          "type": "uint256"
        }
      ],
      "payable": false,
      "stateMutability": "view",
      "type": "function"
    },
    {
      "constant": false,
      "inputs": [
        {
          "internalType": "address",
          "name": "liquidator",
          "type": "address"
        },
        {
          "internalType": "address",
          "name": "borrower",
          "type": "address"
        },
        {
          "internalType": "uint256",
          "name": "seizeTokens",
          "type": "uint256"
        }
      ],
      "name": "seize",
      "outputs": [
        {
          "internalType": "uint256",
          "name": "",
          "type": "uint256"
        }
      ],
      "payable": false,
      "stateMutability": "nonpayable",
      "type": "function"
    },
    {
      "constant": true,
      "inputs": [],
      "name": "supplyRatePerSecond",
      "outputs": [
        {
          "internalType": "uint256",
          "name": "",
          "type": "uint256"
        }
      ],
      "payable": false,
      "stateMutability": "view",
      "type": "function"
    },
    {
      "constant": true,
      "inputs": [],
      "name": "symbol",
      "outputs": [
        {
          "internalType": "string",
          "name": "",
          "type": "string"
        }
      ],
      "payable": false,
      "stateMutability": "view",
      "type": "function"
    },
    {
      "constant": true,
      "inputs": [],
      "name": "totalBorrows",
      "outputs": [
        {
          "internalType": "uint256",
          "name": "",
          "type": "uint256"
        }
      ],
      "payable": false,
      "stateMutability": "view",
      "type": "function"
    },
    {
      "constant": false,
      "inputs": [],
      "name": "totalBorrowsCurrent",
      "outputs": [
        {
          "internalType": "uint256",
          "name": "",
          "type": "uint256"
        }
      ],
      "payable": false,
      "stateMutability": "nonpayable",
      "type": "function"
    },
    {
      "constant": true,
      "inputs": [],
      "name": "totalReserves",
      "outputs": [
        {
          "internalType": "uint256",
          "name": "",
          "type": "uint256"
        }
      ],
      "payable": false,
      "stateMutability": "view",
      "type": "function"
    },
    {
      "constant": true,
      "inputs": [],
      "name": "totalSupply",
      "outputs": [
        {
          "internalType": "uint256",
          "name": "",
          "type": "uint256"
        }
      ],
      "payable": false,
      "stateMutability": "view",
      "type": "function"
    },
    {
      "constant": false,
      "inputs": [
        {
          "internalType": "address",
          "name": "dst",
          "type": "address"
        },
        {
          "internalType": "uint256",
          "name": "amount",
          "type": "uint256"
        }
      ],
      "name": "transfer",
      "outputs": [
        {
          "internalType": "bool",
          "name": "",
          "type": "bool"
        }
      ],
      "payable": false,
      "stateMutability": "nonpayable",
      "type": "function"
    },
    {
      "constant": false,
      "inputs": [
        {
          "internalType": "address",
          "name": "src",
          "type": "address"
        },
        {
          "internalType": "address",
          "name": "dst",
          "type": "address"
        },
        {
          "internalType": "uint256",
          "name": "amount",
          "type": "uint256"
        }
      ],
      "name": "transferFrom",
      "outputs": [
        {
          "internalType": "bool",
          "name": "",
          "type": "bool"
        }
      ],
      "payable": false,
      "stateMutability": "nonpayable",
      "type": "function"
    },
    {
      "constant": true,
      "inputs": [],
      "name": "underlying",
      "outputs": [
        {
          "internalType": "address",
          "name": "",
          "type": "address"
        }
      ],
      "payable": false,
      "stateMutability": "view",
      "type": "function"
    }
  ],
  "transactionHash": "0x9a21fbc91dfc0867d3a4d94cea7e8cec9ad8536bf3ebcff0f5befb042e738188",
  "args": [],
  "solcInputHash": "0829ec71fc29e09a32a8488ca35d3333",
  "bytecode": "0x608060405234801561001057600080fd5b5061588e80620000216000396000f3fe6080604052600436106103b85760003560e01c806370a08231116101f2578063b71d1a0c1161010d578063dff76484116100a0578063f3fdb15a1161006f578063f3fdb15a14611050578063f5e3c46214611065578063f851a440146110a8578063fca7820b146110bd576103b8565b8063dff7648414610fc9578063e9c714f214610ff3578063ea11eea414611008578063f2b3abbd1461101d576103b8565b8063cfa99201116100dc578063cfa9920114610f47578063d3c5715114610f5c578063db006a7514610f64578063dd62ed3e14610f8e576103b8565b8063b71d1a0c14610e7c578063bd6d894d14610eaf578063c37f68e214610ec4578063c5ebeaec14610f1d576103b8565b806399d8c1b411610185578063a9059cbb11610154578063a9059cbb14610dd6578063aa5af0fd14610e0f578063b1d3897414610e24578063b2a02ff114610e39576103b8565b806399d8c1b414610c12578063a0712d6814610d6d578063a6afed9514610d97578063a7af467a14610dac576103b8565b80638d3f9c62116101c15780638d3f9c6214610bad5780638f840ddd14610bb557806395d89b4114610bca57806395dd919314610bdf576103b8565b806370a0823114610b1157806373acee9814610b44578063852a12e314610b59578063884b934314610b83576103b8565b8063313ce567116102e257806350f6e082116102755780635cffe9de116102445780635cffe9de14610a22578063601a0bf114610abd5780636330533c14610ae75780636f307dc314610afc576103b8565b806350f6e08214610915578063526097501461094757806356e677281461095c5780635c60da1b14610a0d576103b8565b8063406de0b6116102b1578063406de0b61461088e578063432f4b2d146108a357806347bd3718146108d65780634bf03edf146108eb576103b8565b8063313ce567146107f15780633af9e6691461081c5780633b1d21a21461084f5780633e94101014610864576103b8565b806318160ddd1161035a57806323b872dd1161032957806323b872dd1461073a578063242c127c1461077d5780632678224714610792578063291727a4146107c3576103b8565b806318160ddd146105a5578063182df0f5146105ba5780631a31d465146105cf578063219f2fe714610732576103b8565b80630f3e4e11116103965780630f3e4e1114610516578063153ab50514610548578063173b99041461055d57806317bfdfbc14610572576103b8565b806306fdde0314610403578063095ea7b31461048d5780630e752702146104da575b6011546001600160a01b031633146104015760405162461bcd60e51b81526004018080602001828103825260348152602001806157506034913960400191505060405180910390fd5b005b34801561040f57600080fd5b506104186110e7565b6040805160208082528351818301528351919283929083019185019080838360005b8381101561045257818101518382015260200161043a565b50505050905090810190601f16801561047f5780820380516001836020036101000a031916815260200191505b509250505060405180910390f35b34801561049957600080fd5b506104c6600480360360408110156104b057600080fd5b506001600160a01b038135169060200135611174565b604080519115158252519081900360200190f35b3480156104e657600080fd5b50610504600480360360208110156104fd57600080fd5b50356111df565b60408051918252519081900360200190f35b34801561052257600080fd5b506105046004803603604081101561053957600080fd5b50803590602001351515611238565b34801561055457600080fd5b5061040161131d565b34801561056957600080fd5b5061050461136d565b34801561057e57600080fd5b506105046004803603602081101561059557600080fd5b50356001600160a01b0316611373565b3480156105b157600080fd5b50610504611433565b3480156105c657600080fd5b50610504611439565b3480156105db57600080fd5b50610401600480360360e08110156105f257600080fd5b6001600160a01b03823581169260208101358216926040820135909216916060820135919081019060a081016080820135600160201b81111561063457600080fd5b82018360208201111561064657600080fd5b803590602001918460018302840111600160201b8311171561066757600080fd5b91908080601f0160208091040260200160405190810160405280939291908181526020018383808284376000920191909152509295949360208101935035915050600160201b8111156106b957600080fd5b8201836020820111156106cb57600080fd5b803590602001918460018302840111600160201b831117156106ec57600080fd5b91908080601f0160208091040260200160405190810160405280939291908181526020018383808284376000920191909152509295505050903560ff1691506114499050565b6105046114e8565b34801561074657600080fd5b506104c66004803603606081101561075d57600080fd5b506001600160a01b03813581169160208101359091169060400135611545565b34801561078957600080fd5b506105046115b7565b34801561079e57600080fd5b506107a7611662565b604080516001600160a01b039092168252519081900360200190f35b610504600480360360408110156107d957600080fd5b506001600160a01b0381358116916020013516611671565b3480156107fd57600080fd5b506108066116de565b6040805160ff9092168252519081900360200190f35b34801561082857600080fd5b506105046004803603602081101561083f57600080fd5b50356001600160a01b03166116e7565b34801561085b57600080fd5b50610504611736565b34801561087057600080fd5b506105046004803603602081101561088757600080fd5b5035611740565b34801561089a57600080fd5b506104c6611795565b3480156108af57600080fd5b50610504600480360360208110156108c657600080fd5b50356001600160a01b031661179a565b3480156108e257600080fd5b506105046118ee565b3480156108f757600080fd5b506105046004803603602081101561090e57600080fd5b50356118f4565b34801561092157600080fd5b506105046004803603604081101561093857600080fd5b5080359060200135151561194a565b34801561095357600080fd5b506105046119f9565b34801561096857600080fd5b506104016004803603602081101561097f57600080fd5b810190602081018135600160201b81111561099957600080fd5b8201836020820111156109ab57600080fd5b803590602001918460018302840111600160201b831117156109cc57600080fd5b91908080601f016020809104026020016040519081016040528093929190818152602001838380828437600092019190915250929550611a8e945050505050565b348015610a1957600080fd5b506107a7611bbe565b348015610a2e57600080fd5b506104c660048036036080811015610a4557600080fd5b6001600160a01b03823581169260208101359091169160408201359190810190608081016060820135600160201b811115610a7f57600080fd5b820183602082011115610a9157600080fd5b803590602001918460018302840111600160201b83111715610ab257600080fd5b509092509050611bcd565b348015610ac957600080fd5b5061050460048036036020811015610ae057600080fd5b50356120f7565b348015610af357600080fd5b506107a7612192565b348015610b0857600080fd5b506107a76121a1565b348015610b1d57600080fd5b5061050460048036036020811015610b3457600080fd5b50356001600160a01b03166121b0565b348015610b5057600080fd5b506105046121cb565b348015610b6557600080fd5b5061050460048036036020811015610b7c57600080fd5b5035612281565b348015610b8f57600080fd5b5061050460048036036020811015610ba657600080fd5b50356122e0565b610504612336565b348015610bc157600080fd5b50610504612390565b348015610bd657600080fd5b50610418612396565b348015610beb57600080fd5b5061050460048036036020811015610c0257600080fd5b50356001600160a01b03166123ee565b348015610c1e57600080fd5b50610401600480360360c0811015610c3557600080fd5b6001600160a01b03823581169260208101359091169160408201359190810190608081016060820135600160201b811115610c6f57600080fd5b820183602082011115610c8157600080fd5b803590602001918460018302840111600160201b83111715610ca257600080fd5b91908080601f0160208091040260200160405190810160405280939291908181526020018383808284376000920191909152509295949360208101935035915050600160201b811115610cf457600080fd5b820183602082011115610d0657600080fd5b803590602001918460018302840111600160201b83111715610d2757600080fd5b91908080601f0160208091040260200160405190810160405280939291908181526020018383808284376000920191909152509295505050903560ff1691506123f99050565b348015610d7957600080fd5b5061050460048036036020811015610d9057600080fd5b50356125e0565b348015610da357600080fd5b50610504612632565b348015610db857600080fd5b5061050460048036036020811015610dcf57600080fd5b5035612842565b348015610de257600080fd5b506104c660048036036040811015610df957600080fd5b506001600160a01b038135169060200135612934565b348015610e1b57600080fd5b506105046129a6565b348015610e3057600080fd5b506105046129ac565b348015610e4557600080fd5b5061050460048036036060811015610e5c57600080fd5b506001600160a01b03813581169160208101359091169060400135612a1a565b348015610e8857600080fd5b5061050460048036036020811015610e9f57600080fd5b50356001600160a01b0316612a8b565b348015610ebb57600080fd5b50610504612b17565b348015610ed057600080fd5b50610ef760048036036020811015610ee757600080fd5b50356001600160a01b0316612bd3565b604080519485526020850193909352838301919091526060830152519081900360800190f35b348015610f2957600080fd5b5061050460048036036020811015610f4057600080fd5b5035612c0f565b348015610f5357600080fd5b50610504612c5e565b610504612c64565b348015610f7057600080fd5b5061050460048036036020811015610f8757600080fd5b5035612cb9565b348015610f9a57600080fd5b5061050460048036036040811015610fb157600080fd5b506001600160a01b0381358116916020013516612d08565b348015610fd557600080fd5b5061050460048036036020811015610fec57600080fd5b5035612d33565b348015610fff57600080fd5b50610504612d92565b34801561101457600080fd5b50610504612e95565b34801561102957600080fd5b506105046004803603602081101561104057600080fd5b50356001600160a01b0316612e9a565b34801561105c57600080fd5b506107a7612ed4565b34801561107157600080fd5b506105046004803603606081101561108857600080fd5b506001600160a01b03813581169160208101359160409091013516612ee3565b3480156110b457600080fd5b506107a7612f51565b3480156110c957600080fd5b50610504600480360360208110156110e057600080fd5b5035612f65565b60018054604080516020600284861615610100026000190190941693909304601f8101849004840282018401909252818152929183018282801561116c5780601f106111415761010080835404028352916020019161116c565b820191906000526020600020905b81548152906001019060200180831161114f57829003601f168201915b505050505081565b336000818152600f602090815260408083206001600160a01b03871680855290835281842086905581518681529151939493909284927f8c5be1e5ebec7d5bd14f71427d1e84f3dd0314c0f7b2291e5b200ac8c7c3b925929081900390910190a35060019392505050565b6000806111ed836000612fe3565b5090508015611232576040805162461bcd60e51b815260206004820152600c60248201526b1c995c185e4819985a5b195960a21b604482015290519081900360640190fd5b50919050565b600080600083156112695761125461124e61308f565b8661310f565b9150611262600b548661314c565b905061128b565b61127a61127461308f565b8661314c565b9150611288600b548661310f565b90505b600654600c54604080516315f2405360e01b815260048101869052602481018590526044810192909252516001600160a01b03909216916315f2405391606480820192602092909190829003018186803b1580156112e857600080fd5b505afa1580156112fc573d6000803e3d6000fd5b505050506040513d602081101561131257600080fd5b505195945050505050565b60035461010090046001600160a01b0316331461136b5760405162461bcd60e51b815260040180806020018281038252602d815260200180615723602d913960400191505060405180910390fd5b565b60085481565b6000805460ff166113b8576040805162461bcd60e51b815260206004820152600a6024820152691c994b595b9d195c995960b21b604482015290519081900360640190fd5b6000805460ff191681556113ca612632565b14611415576040805162461bcd60e51b81526020600482015260166024820152751858d8dc9d59481a5b9d195c995cdd0819985a5b195960521b604482015290519081900360640190fd5b61141e826123ee565b90505b6000805460ff19166001179055919050565b600d5481565b6000611443613186565b90505b90565b6114578686868686866123f9565b601180546001600160a01b0319166001600160a01b038981169190911791829055604080516318160ddd60e01b8152905192909116916318160ddd91600480820192602092909190829003018186803b1580156114b357600080fd5b505afa1580156114c7573d6000803e3d6000fd5b505050506040513d60208110156114dd57600080fd5b505050505050505050565b6000806114f63460016131e8565b5090508015611541576040805162461bcd60e51b81526020600482015260126024820152711b5a5b9d081b985d1a5d994819985a5b195960721b604482015290519081900360640190fd5b5090565b6000805460ff1661158a576040805162461bcd60e51b815260206004820152600a6024820152691c994b595b9d195c995960b21b604482015290519081900360640190fd5b6000805460ff191681556115a03386868661326a565b1490506000805460ff191660011790559392505050565b600554604080516358d5bc7360e11b81523060048201526000602482018190526044820181905260806064830152608482018190529151919283926001600160a01b039091169163b1ab78e69160c4808301926020929190829003018186803b15801561162357600080fd5b505afa158015611637573d6000803e3d6000fd5b505050506040513d602081101561164d57600080fd5b5051156114435761165c61308f565b92915050565b6004546001600160a01b031681565b6000806116818434856001613473565b50905080156116d7576040805162461bcd60e51b815260206004820152601e60248201527f6c697175696461746520626f72726f77206e6174697665206661696c65640000604482015290519081900360640190fd5b5092915050565b60035460ff1681565b60006116f16154f1565b6040518060200160405280611704612b17565b90526001600160a01b0384166000908152600e602052604090205490915061172d9082906135a7565b9150505b919050565b600061144361308f565b600061174d8260006135c6565b15611731576040805162461bcd60e51b8152602060048201526013602482015272185919081c995cd95c9d995cc819985a5b1959606a1b604482015290519081900360640190fd5b600181565b60035460009061010090046001600160a01b031633146117c7576117c060016028613664565b9050611731565b600554604080516340e6dcc560e01b815290516001600160a01b03928316928516916340e6dcc5916004808301926020929190829003018186803b15801561180e57600080fd5b505afa158015611822573d6000803e3d6000fd5b505050506040513d602081101561183857600080fd5b505161188b576040805162461bcd60e51b815260206004820152601c60248201527f6d61726b6572206d6574686f642072657475726e65642066616c736500000000604482015290519081900360640190fd5b600580546001600160a01b0319166001600160a01b03858116918217909255604080519284168352602083019190915280517f17d6db5ffe5a3d1c3d7a98194dca4f7d808d621e6ff9077ed574513d553a2a859281900390910190a1600061172d565b600b5481565b60006119018260016136ca565b15611731576040805162461bcd60e51b81526020600482015260146024820152731c995919595b481b985d1a5d994819985a5b195960621b604482015290519081900360640190fd5b600080600083156119755761196061124e61308f565b915061196e600b548661314c565b9050611991565b61198061127461308f565b915061198e600b548661310f565b90505b600654600c5460085460408051635c0b440b60e11b8152600481018790526024810186905260448101939093526064830191909152516001600160a01b039092169163b816881691608480820192602092909190829003018186803b1580156112e857600080fd5b6006546000906001600160a01b03166315f24053611a1561308f565b600b54600c546040518463ffffffff1660e01b815260040180848152602001838152602001828152602001935050505060206040518083038186803b158015611a5d57600080fd5b505afa158015611a71573d6000803e3d6000fd5b505050506040513d6020811015611a8757600080fd5b5051905090565b60035461010090046001600160a01b03163314611adc5760405162461bcd60e51b815260040180806020018281038252602d815260200180615801602d913960400191505060405180910390fd5b600554604080516303c03f0f60e01b81523060048201526002602482015290516001600160a01b03909216916303c03f0f9160448082019260009290919082900301818387803b158015611b2f57600080fd5b505af1158015611b43573d6000803e3d6000fd5b504792505081159050611bba57601160009054906101000a90046001600160a01b03166001600160a01b031663d0e30db0826040518263ffffffff1660e01b81526004016000604051808303818588803b158015611ba057600080fd5b505af1158015611bb4573d6000803e3d6000fd5b50505050505b5050565b6012546001600160a01b031681565b6000805460ff16611c12576040805162461bcd60e51b815260206004820152600a6024820152691c994b595b9d195c995960b21b604482015290519081900360640190fd5b6000805460ff1916905583611c585760405162461bcd60e51b815260040180806020018281038252602c81526020018061582e602c913960400191505060405180910390fd5b6000611c62612632565b14611cad576040805162461bcd60e51b81526020600482015260166024820152751858d8dc9d59481a5b9d195c995cdd0819985a5b195960521b604482015290519081900360640190fd5b6005546040516358d5bc7360e11b815230600482018181526001600160a01b038a81166024850152604484018990526080606485019081526084850188905294169363b1ab78e6938b928a928a928a92919060a401848480828437600081840152601f19601f820116905080830192505050965050505050505060206040518083038186803b158015611d3f57600080fd5b505afa158015611d53573d6000803e3d6000fd5b505050506040513d6020811015611d6957600080fd5b5051611db2576040805162461bcd60e51b8152602060048201526013602482015272199b185cda1b1bd85b881a5cc81c185d5cd959606a1b604482015290519081900360640190fd5b6000611dbc61308f565b905084811015611e0c576040805162461bcd60e51b8152602060048201526016602482015275494e53554646494349454e545f4c495155494449545960501b604482015290519081900360640190fd5b6000306001600160a01b031663a7af467a876040518263ffffffff1660e01b81526004018082815260200191505060206040518083038186803b158015611e5257600080fd5b505afa158015611e66573d6000803e3d6000fd5b505050506040513d6020811015611e7c57600080fd5b50519050611e8c88876000613762565b611e98600b548761310f565b600b5560405180602961578482396040519081900360290181206011546323e30c8b60e01b83526001600160a01b038b81166004850190815291811660248501819052604485018c90526064850187905260a06084860190815260a486018b9052939550908d16936323e30c8b938d938d9289928e928e9290919060c401848480828437600081840152601f19601f820116905080830192505050975050505050505050602060405180830381600087803b158015611f5657600080fd5b505af1158015611f6a573d6000803e3d6000fd5b505050506040513d6020811015611f8057600080fd5b505114611fd4576040805162461bcd60e51b815260206004820152601960248201527f49455243333135363a2043616c6c6261636b206661696c656400000000000000604482015290519081900360640190fd5b6000611fe0878361310f565b9050611fee89826000613902565b506000611ff961308f565b9050612005848461310f565b811461204f576040805162461bcd60e51b8152602060048201526014602482015273109053105390d157d25390d3d394d254d511539560621b604482015290519081900360640190fd5b600061206b6040518060200160405280600854815250856135a7565b9050612079600c548261310f565b600c55600b54612089908a61314c565b600b55604080518a81526020810186905280820183905290516001600160a01b038d16917f33c8e097c526683cbdb29adf782fac95e9d0fbe0ed635c13d8c75fdf726557d9919081900360600190a26001955050505050506000805460ff1916600117905595945050505050565b6000805460ff1661213c576040805162461bcd60e51b815260206004820152600a6024820152691c994b595b9d195c995960b21b604482015290519081900360640190fd5b6000805460ff1916815561214e612632565b905080156121745761216c81601081111561216557fe5b601d613664565b915050611421565b61217d83613c0e565b9150506000805460ff19166001179055919050565b6005546001600160a01b031681565b6011546001600160a01b031681565b6001600160a01b03166000908152600e602052604090205490565b6000805460ff16612210576040805162461bcd60e51b815260206004820152600a6024820152691c994b595b9d195c995960b21b604482015290519081900360640190fd5b6000805460ff19168155612222612632565b1461226d576040805162461bcd60e51b81526020600482015260166024820152751858d8dc9d59481a5b9d195c995cdd0819985a5b195960521b604482015290519081900360640190fd5b50600b546000805460ff1916600117905590565b600061228e826000613d0c565b15611731576040805162461bcd60e51b815260206004820152601860248201527f72656465656d20756e6465726c79696e67206661696c65640000000000000000604482015290519081900360640190fd5b60006122ed826001613d87565b15611731576040805162461bcd60e51b8152602060048201526014602482015273189bdc9c9bddc81b985d1a5d994819985a5b195960621b604482015290519081900360640190fd5b600080612344346001612fe3565b5090508015611541576040805162461bcd60e51b81526020600482015260136024820152721c995c185e481b985d1a5d994819985a5b1959606a1b604482015290519081900360640190fd5b600c5481565b6002805460408051602060018416156101000260001901909316849004601f8101849004840282018401909252818152929183018282801561116c5780601f106111415761010080835404028352916020019161116c565b600061165c82613e07565b60035461010090046001600160a01b031633146124475760405162461bcd60e51b81526004018080602001828103825260248152602001806156586024913960400191505060405180910390fd5b6009541580156124575750600a54155b6124925760405162461bcd60e51b81526004018080602001828103825260238152602001806156ae6023913960400191505060405180910390fd5b6007849055836124d35760405162461bcd60e51b81526004018080602001828103825260308152602001806156d16030913960400191505060405180910390fd5b60006124de8761179a565b90508015612533576040805162461bcd60e51b815260206004820152601960248201527f73657474696e67206a6f6574726f6c6c6572206661696c656400000000000000604482015290519081900360640190fd5b61253b613e5c565b600955670de0b6b3a7640000600a5561255386613e60565b905080156125925760405162461bcd60e51b81526004018080602001828103825260228152602001806157016022913960400191505060405180910390fd5b83516125a5906001906020870190615504565b5082516125b9906002906020860190615504565b50506003805460ff90921660ff199283161790556000805490911660011790555050505050565b6000806125ee8360006131e8565b5090508015611232576040805162461bcd60e51b815260206004820152600b60248201526a1b5a5b9d0819985a5b195960aa1b604482015290519081900360640190fd5b60008061263d613e5c565b6009549091508082141561265657600092505050611446565b600061266061308f565b600b54600c54600a54600654604080516315f2405360e01b815260048101879052602481018690526044810185905290519596509394929391926000926001600160a01b03909216916315f24053916064808301926020929190829003018186803b1580156126ce57600080fd5b505afa1580156126e2573d6000803e3d6000fd5b505050506040513d60208110156126f857600080fd5b5051905065048c27395000811115612757576040805162461bcd60e51b815260206004820152601c60248201527f626f72726f772072617465206973206162737572646c79206869676800000000604482015290519081900360640190fd5b6000612763888861314c565b905061276d6154f1565b61278560405180602001604052808581525083613fd5565b9050600061279382886135a7565b905060006127a1828961310f565b905060006127c06040518060200160405280600854815250848a613fff565b905060006127cf85898a613fff565b60098e9055600a819055600b849055600c839055604080518d8152602081018790528082018390526060810186905290519192507f4dec04e750ca11537cabcd8a9eab06494de08da3735bc8871cd41250e190bc04919081900360800190a160009d505050505050505050505050505090565b600554604080516358d5bc7360e11b8152306004820152600060248201819052604482018590526080606483015260848201819052915191926001600160a01b03169163b1ab78e69160c480820192602092909190829003018186803b1580156128ab57600080fd5b505afa1580156128bf573d6000803e3d6000fd5b505050506040513d60208110156128d557600080fd5b505161291e576040805162461bcd60e51b8152602060048201526013602482015272199b185cda1b1bd85b881a5cc81c185d5cd959606a1b604482015290519081900360640190fd5b61165c61292c836003614027565b612710614069565b6000805460ff16612979576040805162461bcd60e51b815260206004820152600a6024820152691c994b595b9d195c995960b21b604482015290519081900360640190fd5b6000805460ff1916815561298f3333868661326a565b1490505b6000805460ff1916600117905592915050565b600a5481565b6006546000906001600160a01b031663b81688166129c861308f565b600b54600c546008546040518563ffffffff1660e01b81526004018085815260200184815260200183815260200182815260200194505050505060206040518083038186803b158015611a5d57600080fd5b6000805460ff16612a5f576040805162461bcd60e51b815260206004820152600a6024820152691c994b595b9d195c995960b21b604482015290519081900360640190fd5b6000805460ff19169055612a753385858561409c565b90506000805460ff191660011790559392505050565b60035460009061010090046001600160a01b03163314612ab1576117c06001602e613664565b600480546001600160a01b038481166001600160a01b0319831681179093556040805191909216808252602082019390935281517fca4f2f25d0898edd99413412fb94012f9e54ec8142f9b093e7720646a95b16a9929181900390910190a1600061172d565b6000805460ff16612b5c576040805162461bcd60e51b815260206004820152600a6024820152691c994b595b9d195c995960b21b604482015290519081900360640190fd5b6000805460ff19168155612b6e612632565b14612bb9576040805162461bcd60e51b81526020600482015260166024820152751858d8dc9d59481a5b9d195c995cdd0819985a5b195960521b604482015290519081900360640190fd5b612bc1611439565b90506000805460ff1916600117905590565b6000806000806000612be4866121b0565b90506000612bf187613e07565b90506000612bfd613186565b90506000989297509095509350915050565b6000612c1c826000613d87565b15611731576040805162461bcd60e51b815260206004820152600d60248201526c189bdc9c9bddc819985a5b1959609a1b604482015290519081900360640190fd5b60095481565b6000612c713460016135c6565b15611446576040805162461bcd60e51b8152602060048201526013602482015272185919081c995cd95c9d995cc819985a5b1959606a1b604482015290519081900360640190fd5b6000612cc68260006136ca565b15611731576040805162461bcd60e51b815260206004820152600d60248201526c1c995919595b4819985a5b1959609a1b604482015290519081900360640190fd5b6001600160a01b039182166000908152600f6020908152604080832093909416825291909152205490565b6000612d40826001613d0c565b15611731576040805162461bcd60e51b815260206004820152601f60248201527f72656465656d20756e6465726c79696e67206e6174697665206661696c656400604482015290519081900360640190fd5b6004546000906001600160a01b031633141580612dad575033155b15612dc557612dbe60016000613664565b9050611446565b60038054600480546001600160a01b03818116610100818102610100600160a81b0319871617968790556001600160a01b031990931690935560408051948390048216808652929095041660208401528351909391927ff9ffabca9c8276e99321725bcb43fb076a6c66a54b7f21c4e8146d8519b417dc92908290030190a1600454604080516001600160a01b038085168252909216602083015280517fca4f2f25d0898edd99413412fb94012f9e54ec8142f9b093e7720646a95b16a99281900390910190a160009250505090565b600381565b600080612ea5612632565b90508015612ecb57612ec3816010811115612ebc57fe5b6029613664565b915050611731565b61172d83613e60565b6006546001600160a01b031681565b600080612ef38585856000613473565b5090508015612f49576040805162461bcd60e51b815260206004820152601760248201527f6c697175696461746520626f72726f77206661696c6564000000000000000000604482015290519081900360640190fd5b509392505050565b60035461010090046001600160a01b031681565b6000805460ff16612faa576040805162461bcd60e51b815260206004820152600a6024820152691c994b595b9d195c995960b21b604482015290519081900360640190fd5b6000805460ff19168155612fbc612632565b90508015612fda5761216c816010811115612fd357fe5b602f613664565b61217d8361421f565b60008054819060ff1661302a576040805162461bcd60e51b815260206004820152600a6024820152691c994b595b9d195c995960b21b604482015290519081900360640190fd5b6000805460ff1916815561303c612632565b905080156130675761305a81601081111561305357fe5b6022613664565b9250600091506130799050565b613073333387876142c7565b92509250505b6000805460ff1916600117905590939092509050565b601154604080516370a0823160e01b815230600482015290516000926001600160a01b03169182916370a0823191602480820192602092909190829003018186803b1580156130dd57600080fd5b505afa1580156130f1573d6000803e3d6000fd5b505050506040513d602081101561310757600080fd5b505191505090565b60006131458383604051806040016040528060118152602001706164646974696f6e206f766572666c6f7760781b815250614569565b9392505050565b60006131458383604051806040016040528060158152602001747375627472616374696f6e20756e646572666c6f7760581b815250614604565b600d546000908061319b575050600754611446565b60006131a561308f565b905060006131c06131b883600b5461310f565b600c5461314c565b905060006131dc8260405180602001604052808781525061465e565b94506114469350505050565b60008054819060ff1661322f576040805162461bcd60e51b815260206004820152600a6024820152691c994b595b9d195c995960b21b604482015290519081900360640190fd5b6000805460ff19168155613241612632565b9050801561325f5761305a81601081111561325857fe5b6014613664565b61307333868661467c565b600554604080516317b9b84b60e31b81523060048201526001600160a01b03868116602483015285811660448301526064820185905291516000938493169163bdcdc25891608480830192602092919082900301818787803b1580156132cf57600080fd5b505af11580156132e3573d6000803e3d6000fd5b505050506040513d60208110156132f957600080fd5b505190508015613318576133106003603383614884565b91505061346b565b836001600160a01b0316856001600160a01b0316141561333e5761331060026034613664565b60006001600160a01b03878116908716141561335d5750600019613385565b506001600160a01b038086166000908152600f60209081526040808320938a16835292905220545b6001600160a01b0386166000908152600e60205260409020546133a8908561314c565b6001600160a01b038088166000908152600e602052604080822093909355908716815220546133d7908561310f565b6001600160a01b0386166000908152600e6020526040902055600019811461342a57613403818561314c565b6001600160a01b038088166000908152600f60209081526040808320938c16835292905220555b846001600160a01b0316866001600160a01b03166000805160206157ad833981519152866040518082815260200191505060405180910390a360005b925050505b949350505050565b60008054819060ff166134ba576040805162461bcd60e51b815260206004820152600a6024820152691c994b595b9d195c995960b21b604482015290519081900360640190fd5b6000805460ff191681556134cc612632565b905080156134f7576134ea8160108111156134e357fe5b6007613664565b92506000915061358f9050565b846001600160a01b031663a6afed956040518163ffffffff1660e01b8152600401602060405180830381600087803b15801561353257600080fd5b505af1158015613546573d6000803e3d6000fd5b505050506040513d602081101561355c57600080fd5b50519050801561357c576134ea81601081111561357557fe5b6008613664565b61358933888888886148ea565b92509250505b6000805460ff19166001179055909590945092505050565b60006135b16154f1565b6135bb8484613fd5565b905061346b81614e12565b6000805460ff1661360b576040805162461bcd60e51b815260206004820152600a6024820152691c994b595b9d195c995960b21b604482015290519081900360640190fd5b6000805460ff1916815561361d612632565b905080156136435761363b81601081111561363457fe5b6035613664565b915050612993565b61364d8484614e21565b509150506000805460ff1916600117905592915050565b60007f45b96fe442630264581b197e84bbada861235052c5a1aadfff9ea4e40a969aa083601081111561369357fe5b83603781111561369f57fe5b604080519283526020830191909152600082820152519081900360600190a182601081111561314557fe5b6000805460ff1661370f576040805162461bcd60e51b815260206004820152600a6024820152691c994b595b9d195c995960b21b604482015290519081900360640190fd5b6000805460ff19168155613721612632565b9050801561373f5761363b81601081111561373857fe5b6019613664565b61374c3385600086614ebf565b9150506000805460ff1916600117905592915050565b80156138095760115460408051632e1a7d4d60e01b81526004810185905290516001600160a01b0390921691632e1a7d4d9160248082019260009290919082900301818387803b1580156137b557600080fd5b505af11580156137c9573d6000803e3d6000fd5b50506040516001600160a01b038616925084156108fc02915084906000818181858888f19350505050158015613803573d6000803e3d6000fd5b506138fd565b6011546040805163a9059cbb60e01b81526001600160a01b0386811660048301526024820186905291519190921691829163a9059cbb9160448082019260009290919082900301818387803b15801561386157600080fd5b505af1158015613875573d6000803e3d6000fd5b5050505060003d60008114613891576020811461389b57600080fd5b60001991506138a7565b60206000803e60005191505b50806138fa576040805162461bcd60e51b815260206004820152601960248201527f544f4b454e5f5452414e534645525f4f55545f4641494c454400000000000000604482015290519081900360640190fd5b50505b505050565b60008115613a0f57336001600160a01b03851614613959576040805162461bcd60e51b815260206004820152600f60248201526e0e6cadcc8cae440dad2e6dac2e8c6d608b1b604482015290519081900360640190fd5b82341461399e576040805162461bcd60e51b815260206004820152600e60248201526d0ecc2d8eaca40dad2e6dac2e8c6d60931b604482015290519081900360640190fd5b601160009054906101000a90046001600160a01b03166001600160a01b031663d0e30db0846040518263ffffffff1660e01b81526004016000604051808303818588803b1580156139ee57600080fd5b505af1158015613a02573d6000803e3d6000fd5b5050505050829050613145565b601154604080516370a0823160e01b815230600482015290516001600160a01b039092169160009183916370a0823191602480820192602092909190829003018186803b158015613a5f57600080fd5b505afa158015613a73573d6000803e3d6000fd5b505050506040513d6020811015613a8957600080fd5b5051604080516323b872dd60e01b81526001600160a01b038981166004830152306024830152604482018990529151929350908416916323b872dd9160648082019260009290919082900301818387803b158015613ae657600080fd5b505af1158015613afa573d6000803e3d6000fd5b5050505060003d60008114613b165760208114613b2057600080fd5b6000199150613b2c565b60206000803e60005191505b5080613b7f576040805162461bcd60e51b815260206004820152601860248201527f544f4b454e5f5452414e534645525f494e5f4641494c45440000000000000000604482015290519081900360640190fd5b601154604080516370a0823160e01b815230600482015290516000926001600160a01b0316916370a08231916024808301926020929190829003018186803b158015613bca57600080fd5b505afa158015613bde573d6000803e3d6000fd5b505050506040513d6020811015613bf457600080fd5b50519050613c02818461314c565b98975050505050505050565b600354600090819061010090046001600160a01b03163314613c3657612ec36001601e613664565b613c3e613e5c565b60095414613c5257612ec3600a6020613664565b82613c5b61308f565b1015613c6d57612ec3600e601f613664565b600c54831115613c8357612ec360026021613664565b613c8f600c548461314c565b600c819055600354909150613cb49061010090046001600160a01b0316846001613762565b600354604080516101009092046001600160a01b0316825260208201859052818101839052517f3bad0c59cf2f06e7314077049f48a93578cd16f5ef92329f1dab1420a99c177e916060908290030190a1600061172d565b6000805460ff16613d51576040805162461bcd60e51b815260206004820152600a6024820152691c994b595b9d195c995960b21b604482015290519081900360640190fd5b6000805460ff19168155613d63612632565b90508015613d7a5761363b81601081111561373857fe5b61374c3360008686614ebf565b6000805460ff16613dcc576040805162461bcd60e51b815260206004820152600a6024820152691c994b595b9d195c995960b21b604482015290519081900360640190fd5b6000805460ff19168155613dde612632565b90508015613dfc5761363b816010811115613df557fe5b6002613664565b61374c3385856151f2565b6001600160a01b03811660009081526010602052604081208054613e2f576000915050611731565b6000613e418260000154600a54614027565b90506000613e53828460010154614069565b95945050505050565b4290565b600354600090819061010090046001600160a01b03163314613e8857612ec36001602b613664565b613e90613e5c565b60095414613ea457612ec3600a602a613664565b600660009054906101000a90046001600160a01b03169050826001600160a01b0316632191f92a6040518163ffffffff1660e01b815260040160206040518083038186803b158015613ef557600080fd5b505afa158015613f09573d6000803e3d6000fd5b505050506040513d6020811015613f1f57600080fd5b5051613f72576040805162461bcd60e51b815260206004820152601c60248201527f6d61726b6572206d6574686f642072657475726e65642066616c736500000000604482015290519081900360640190fd5b600680546001600160a01b0319166001600160a01b03858116918217909255604080519284168352602083019190915280517fedffc32e068c7c95dfd4bdfd5c4d939a084d6b11c4199eac8436ed234d72f9269281900390910190a1600061172d565b613fdd6154f1565b6040518060200160405280613ff6856000015185614027565b90529392505050565b60006140096154f1565b6140138585613fd5565b9050613e5361402182614e12565b8461310f565b600061314583836040518060400160405280601781526020017f6d756c7469706c69636174696f6e206f766572666c6f770000000000000000008152506153cd565b600061314583836040518060400160405280600e81526020016d646976696465206279207a65726f60901b815250615443565b6005546040805163d02f735160e01b81523060048201526001600160a01b038781166024830152868116604483015285811660648301526084820185905291516000938493169163d02f73519160a480830192602092919082900301818787803b15801561410957600080fd5b505af115801561411d573d6000803e3d6000fd5b505050506040513d602081101561413357600080fd5b50519050801561414a576133106003601183614884565b82614156576000613310565b846001600160a01b0316846001600160a01b0316141561417c5761331060066012613664565b6001600160a01b0384166000908152600e602052604090205461419f908461314c565b6001600160a01b038086166000908152600e602052604080822093909355908716815220546141ce908461310f565b6001600160a01b038087166000818152600e602090815260409182902094909455805187815290519193928816926000805160206157ad83398151915292918290030190a360009695505050505050565b60035460009061010090046001600160a01b03163314614245576117c060016030613664565b61424d613e5c565b60095414614261576117c0600a6031613664565b670de0b6b3a764000082111561427d576117c060026032613664565b6008805490839055604080518281526020810185905281517faaa68312e2ea9d50e16af5068410ab56e1a1fd06037b1a35664812c30f821460929181900390910190a1600061172d565b60055460408051631200453160e11b81523060048201526001600160a01b0387811660248301528681166044830152606482018690529151600093849384939116916324008a629160848082019260209290919082900301818787803b15801561433057600080fd5b505af1158015614344573d6000803e3d6000fd5b505050506040513d602081101561435a57600080fd5b50519050801561437e576143716003602383614884565b9250600091506145609050565b846143aa57600a546001600160a01b038716600090815260106020526040812060010191909155614371565b6143b2613e5c565b600954146143c657614371600a6024613664565b6143ce61557e565b6001600160a01b03871660009081526010602052604090206001015460608201526143f887613e07565b6080820152600019861415614416576080810151604082015261441e565b604081018690525b61442d88826040015187613902565b60e0820181905260808201516144429161314c565b60a0820152600b5460e0820151614459919061314c565b8160c00181815250508060a0015160106000896001600160a01b03166001600160a01b0316815260200190815260200160002060000181905550600a5460106000896001600160a01b03166001600160a01b03168152602001908152602001600020600101819055508060c00151600b819055507f1a2a22cb034d26d1854bdc6666a5b91fe25efbbb5dcad3b0355478d6f5c362a188888360e001518460a001518560c0015160405180866001600160a01b03166001600160a01b03168152602001856001600160a01b03166001600160a01b031681526020018481526020018381526020018281526020019550505050505060405180910390a160e00151600093509150505b94509492505050565b600083830182858210156145fb5760405162461bcd60e51b81526004018080602001828103825283818151815260200191508051906020019080838360005b838110156145c05781810151838201526020016145a8565b50505050905090810190601f1680156145ed5780820380516001836020036101000a031916815260200191505b509250505060405180910390fd5b50949350505050565b600081848411156146565760405162461bcd60e51b81526020600482018181528351602484015283519092839260449091019190850190808383600083156145c05781810151838201526020016145a8565b505050900390565b600061314561467584670de0b6b3a7640000614027565b8351614069565b60055460408051634ef4c3e160e01b81523060048201526001600160a01b03868116602483015260448201869052915160009384938493911691634ef4c3e19160648082019260209290919082900301818787803b1580156146dd57600080fd5b505af11580156146f1573d6000803e3d6000fd5b505050506040513d602081101561470757600080fd5b50519050801561472b5761471e6003601583614884565b92506000915061487c9050565b8461473757600061471e565b61473f613e5c565b600954146147535761471e600a6016613664565b61475b6155c4565b614763613186565b8152614770878787613902565b60408083018290528051602081019091528251815261478f91906154a5565b60208201819052600d546147a29161310f565b600d556001600160a01b0387166000908152600e6020908152604090912054908201516147cf919061310f565b6001600160a01b0388166000818152600e60209081526040918290209390935583810151848401518251938452938301528181019290925290517f4c209b5fc8ad50758f13e2e1088ba56a560dff690a1c6fef26394f4c03821c4f9181900360600190a1866001600160a01b0316306001600160a01b03166000805160206157ad83398151915283602001516040518082815260200191505060405180910390a360400151600093509150505b935093915050565b60007f45b96fe442630264581b197e84bbada861235052c5a1aadfff9ea4e40a969aa08460108111156148b357fe5b8460378111156148bf57fe5b604080519283526020830191909152818101859052519081900360600190a183601081111561346b57fe5b60055460408051632fe3f38f60e11b81523060048201526001600160a01b0385811660248301528881166044830152878116606483015260848201879052915160009384938493911691635fc7e71e9160a48082019260209290919082900301818787803b15801561495b57600080fd5b505af115801561496f573d6000803e3d6000fd5b505050506040513d602081101561498557600080fd5b5051905080156149a95761499c6003600a83614884565b925060009150614e089050565b6149b1613e5c565b600954146149c55761499c600a600e613664565b6149cd613e5c565b856001600160a01b031663cfa992016040518163ffffffff1660e01b815260040160206040518083038186803b158015614a0657600080fd5b505afa158015614a1a573d6000803e3d6000fd5b505050506040513d6020811015614a3057600080fd5b505114614a435761499c600a6009613664565b876001600160a01b0316876001600160a01b03161415614a695761499c6006600f613664565b85614a7a5761499c6007600d613664565b600019861415614a905761499c6007600c613664565b600080614a9f8a8a8a896142c7565b90925090508115614acf57614ac0826010811115614ab957fe5b6010613664565b945060009350614e0892505050565b6005546040805163c488847b60e01b81523060048201526001600160a01b038a81166024830152604482018590528251600094859492169263c488847b926064808301939192829003018186803b158015614b2957600080fd5b505afa158015614b3d573d6000803e3d6000fd5b505050506040513d6040811015614b5357600080fd5b50805160209091015190925090508115614b9e5760405162461bcd60e51b815260040180806020018281038252603281526020018061567c6032913960400191505060405180910390fd5b80896001600160a01b03166370a082318d6040518263ffffffff1660e01b815260040180826001600160a01b03166001600160a01b0316815260200191505060206040518083038186803b158015614bf557600080fd5b505afa158015614c09573d6000803e3d6000fd5b505050506040513d6020811015614c1f57600080fd5b50511015614c74576040805162461bcd60e51b815260206004820152601860248201527f4c49515549444154455f5345495a455f544f4f5f4d5543480000000000000000604482015290519081900360640190fd5b60006001600160a01b038a16301415614c9a57614c93308e8e8561409c565b9050614d24565b6040805163b2a02ff160e01b81526001600160a01b038f811660048301528e81166024830152604482018590529151918c169163b2a02ff1916064808201926020929091908290030181600087803b158015614cf557600080fd5b505af1158015614d09573d6000803e3d6000fd5b505050506040513d6020811015614d1f57600080fd5b505190505b8015614d6e576040805162461bcd60e51b81526020600482015260146024820152731d1bdad95b881cd95a5e9d5c994819985a5b195960621b604482015290519081900360640190fd5b7f298637f684da70674f26509b10f07ec2fbc77a335ab1e7d6215a4b2484d8bb528d8d868d8660405180866001600160a01b03166001600160a01b03168152602001856001600160a01b03166001600160a01b03168152602001848152602001836001600160a01b03166001600160a01b031681526020018281526020019550505050505060405180910390a16000975092955050505050505b9550959350505050565b51670de0b6b3a7640000900490565b600080600080614e2f613e5c565b60095414614e4e57614e43600a6036613664565b93509150614eb89050565b614e59338787613902565b9050614e67600c548261310f565b600c819055604080513381526020810184905280820183905290519193507fa91e67c5ea634cd43a12c5a482724b03de01e85ca68702a53d0c2f45cb7c1dc5919081900360600190a1600093509150505b9250929050565b6000831580614ecc575082155b614f075760405162461bcd60e51b81526004018080602001828103825260348152602001806157cd6034913960400191505060405180910390fd5b614f0f6155e5565b614f17613186565b81528415614f4857602080820186905260408051918201905281518152614f3e90866135a7565b6040820152614f71565b614f6484604051806020016040528084600001518152506154a5565b6020820152604081018490525b6005546020808301516040805163eabe7d9160e01b81523060048201526001600160a01b038b8116602483015260448201939093529051600094929092169263eabe7d919260648084019382900301818787803b158015614fd157600080fd5b505af1158015614fe5573d6000803e3d6000fd5b505050506040513d6020811015614ffb57600080fd5b50519050801561501b576150126003601a83614884565b9250505061346b565b85158015615027575084155b15615033576000615012565b61503b613e5c565b6009541461504f57615012600a601b613664565b61505f600d54836020015161314c565b60608301526001600160a01b0387166000908152600e60209081526040909120549083015161508e919061314c565b608083015260408201516150a061308f565b10156150b257615012600e601c613664565b6150c187836040015186613762565b6060820151600d5560808201516001600160a01b0388166000818152600e602090815260409182902093909355828501518151908152905130936000805160206157ad833981519152928290030190a360408083015160208085015183516001600160a01b038c168152918201929092528083019190915290517fe5b754fb1abb7f01b499791d0b820ae3b6af3424ac1c59768edb53f4ec31a9299181900360600190a1600554604080840151602085015182516351dff98960e01b81523060048201526001600160a01b038c811660248301526044820193909352606481019190915291519216916351dff9899160848082019260009290919082900301818387803b1580156151d157600080fd5b505af11580156151e5573d6000803e3d6000fd5b5060009250613466915050565b6005546040805163368f515360e21b81523060048201526001600160a01b0386811660248301526044820186905291516000938493169163da3d454c91606480830192602092919082900301818787803b15801561524f57600080fd5b505af1158015615263573d6000803e3d6000fd5b505050506040513d602081101561527957600080fd5b505190508015615298576152906003600683614884565b915050613145565b836152c457600a546001600160a01b038616600090815260106020526040812060010191909155615290565b6152cc613e5c565b600954146152e057615290600a6004613664565b836152e961308f565b10156152fb57615290600e6003613664565b615303615614565b61530c86613e07565b6020820181905261531d908661310f565b6040820152600b5461532f908661310f565b606082015261533f868686613762565b604080820180516001600160a01b03891660008181526010602090815290859020928355600a54600190930192909255606080860151600b819055935185519283529282018a9052818501929092529081019190915290517f13ed6866d4e1ee6da46f845c46d7e54120883d75c5ea9a2dacc1c4ca8984ab809181900360800190a160009695505050505050565b60008315806153da575082155b156153e757506000613145565b838302838582816153f457fe5b041483906145fb5760405162461bcd60e51b81526020600482018181528351602484015283519092839260449091019190850190808383600083156145c05781810151838201526020016145a8565b600081836154925760405162461bcd60e51b81526020600482018181528351602484015283519092839260449091019190850190808383600083156145c05781810151838201526020016145a8565b5082848161549c57fe5b04949350505050565b60006154af6154f1565b6135bb84846154bc6154f1565b60006154d0670de0b6b3a764000085614027565b905060405180602001604052806154e7838661465e565b9052949350505050565b6040518060200160405280600081525090565b828054600181600116156101000203166002900490600052602060002090601f016020900481019282601f1061554557805160ff1916838001178555615572565b82800160010185558215615572579182015b82811115615572578251825591602001919060010190615557565b5061154192915061563d565b6040805161010081019091528060008152602001600081526020016000815260200160008152602001600081526020016000815260200160008152602001600081525090565b60405180606001604052806000815260200160008152602001600081525090565b6040518060a0016040528060008152602001600081526020016000815260200160008152602001600081525090565b604080516080810190915280600081526020016000815260200160008152602001600081525090565b61144691905b80821115611541576000815560010161564356fe6f6e6c792061646d696e206d617920696e697469616c697a6520746865206d61726b65744c49515549444154455f4a4f4554524f4c4c45525f43414c43554c4154455f414d4f554e545f5345495a455f4641494c45446d61726b6574206d6179206f6e6c7920626520696e697469616c697a6564206f6e6365696e697469616c2065786368616e67652072617465206d7573742062652067726561746572207468616e207a65726f2e73657474696e6720696e7465726573742072617465206d6f64656c206661696c65646f6e6c79207468652061646d696e206d61792063616c6c205f72657369676e496d706c656d656e746174696f6e6f6e6c792077726170706564206e617469766520636f6e747261637420636f756c642073656e64206e617469766520746f6b656e45524333313536466c617368426f72726f776572496e746572666163652e6f6e466c6173684c6f616eddf252ad1be2c89b69c2b068fc378daa952ba7f163c4a11628f55a4df523b3ef6f6e65206f662072656465656d546f6b656e73496e206f722072656465656d416d6f756e74496e206d757374206265207a65726f6f6e6c79207468652061646d696e206d61792063616c6c205f6265636f6d65496d706c656d656e746174696f6e666c6173684c6f616e20616d6f756e742073686f756c642062652067726561746572207468616e207a65726fa265627a7a72315820021d50496c5231c0173fb48240653781036a7eaac1363de6dba81b6e556f051464736f6c63430005100032",
  "devdoc": {
    "author": "Cream",
    "methods": {
      "_acceptAdmin()": {
        "details": "Admin function for pending admin to accept role and update admin",
        "return": "uint 0=success, otherwise a failure (see ErrorReporter.sol for details)"
      },
      "_addReserves(uint256)": {
        "details": "Accrues interest whether or not the operation succeeds, unless reverted Keep return in the function signature for backward joeatibility",
        "params": {
          "addAmount": "The amount fo underlying token to add as reserves"
        },
        "return": "uint 0=success, otherwise a failure (see ErrorReporter.sol for details)"
      },
      "_addReservesNative()": {
        "details": "Accrues interest whether or not the operation succeeds, unless reverted Keep return in the function signature for consistency",
        "return": "uint 0=success, otherwise a failure (see ErrorReporter.sol for details)"
      },
      "_becomeImplementation(bytes)": {
        "params": {
          "data": "The encoded bytes data for any initialization"
        }
      },
      "_reduceReserves(uint256)": {
        "params": {
          "reduceAmount": "Amount of reduction to reserves"
        },
        "return": "uint 0=success, otherwise a failure (see ErrorReporter.sol for details)"
      },
      "_setInterestRateModel(address)": {
        "details": "Admin function to accrue interest and update the interest rate model",
        "params": {
          "newInterestRateModel": "the new interest rate model to use"
        },
        "return": "uint 0=success, otherwise a failure (see ErrorReporter.sol for details)"
      },
      "_setJoetroller(address)": {
        "details": "Admin function to set a new joetroller",
        "return": "uint 0=success, otherwise a failure (see ErrorReporter.sol for details)"
      },
      "_setPendingAdmin(address)": {
        "details": "Admin function to begin change of admin. The newPendingAdmin must call `_acceptAdmin` to finalize the transfer.",
        "params": {
          "newPendingAdmin": "New pending admin."
        },
        "return": "uint 0=success, otherwise a failure (see ErrorReporter.sol for details)"
      },
      "_setReserveFactor(uint256)": {
        "details": "Admin function to accrue interest and set a new reserve factor",
        "return": "uint 0=success, otherwise a failure (see ErrorReporter.sol for details)"
      },
      "accrueInterest()": {
        "details": "This calculates interest accrued from the last checkpointed timestamp   up to the current timestamp and writes new checkpoint to storage."
      },
      "allowance(address,address)": {
        "params": {
          "owner": "The address of the account which owns the tokens to be spent",
          "spender": "The address of the account which may transfer tokens"
        },
        "return": "The number of tokens allowed to be spent (-1 means infinite)"
      },
      "approve(address,uint256)": {
        "details": "This will overwrite the approval amount for `spender` and is subject to issues noted [here](https://eips.ethereum.org/EIPS/eip-20#approve)",
        "params": {
          "amount": "The number of tokens that are approved (-1 means infinite)",
          "spender": "The address of the account which may transfer tokens"
        },
        "return": "Whether or not the approval succeeded"
      },
      "balanceOf(address)": {
        "params": {
          "owner": "The address of the account to query"
        },
        "return": "The number of tokens owned by `owner`"
      },
      "balanceOfUnderlying(address)": {
        "details": "This also accrues interest in a transaction",
        "params": {
          "owner": "The address of the account to query"
        },
        "return": "The amount of underlying owned by `owner`"
      },
      "borrow(uint256)": {
        "details": "Accrues interest whether or not the operation succeeds, unless reverted Keep return in the function signature for backward joeatibility",
        "params": {
          "borrowAmount": "The amount of the underlying asset to borrow"
        },
        "return": "uint 0=success, otherwise a failure (see ErrorReporter.sol for details)"
      },
      "borrowBalanceCurrent(address)": {
        "params": {
          "account": "The address whose balance should be calculated after updating borrowIndex"
        },
        "return": "The calculated balance"
      },
      "borrowBalanceStored(address)": {
        "params": {
          "account": "The address whose balance should be calculated"
        },
        "return": "The calculated balance"
      },
      "borrowNative(uint256)": {
        "details": "Accrues interest whether or not the operation succeeds, unless reverted Keep return in the function signature for consistency",
        "params": {
          "borrowAmount": "The amount of the underlying asset to borrow"
        },
        "return": "uint 0=success, otherwise a failure (see ErrorReporter.sol for details)"
      },
      "borrowRatePerSecond()": {
        "return": "The borrow interest rate per sec, scaled by 1e18"
      },
      "estimateBorrowRatePerSecondAfterChange(uint256,bool)": {
        "return": "The borrow interest rate per sec, scaled by 1e18"
      },
      "estimateSupplyRatePerSecondAfterChange(uint256,bool)": {
        "return": "The supply interest rate per sec, scaled by 1e18"
      },
      "exchangeRateCurrent()": {
        "return": "Calculated exchange rate scaled by 1e18"
      },
      "exchangeRateStored()": {
        "details": "This function does not accrue interest before calculating the exchange rate",
        "return": "Calculated exchange rate scaled by 1e18"
      },
      "flashFee(uint256)": {
        "params": {
          "amount": "amount of token to borrow"
        }
      },
      "flashLoan(address,address,uint256,bytes)": {
        "params": {
          "amount": "The amount of the funds to be loaned",
          "data": "The other data",
          "initiator": "flash loan initiator",
          "receiver": "The receiver address for the funds"
        },
        "return": "uint 0=success, otherwise a failure (see ErrorReporter.sol for details)"
      },
      "getAccountSnapshot(address)": {
        "details": "This is used by joetroller to more efficiently perform liquidity checks.",
        "params": {
          "account": "Address of the account to snapshot"
        },
        "return": "(possible error, token balance, borrow balance, exchange rate mantissa)"
      },
      "getCash()": {
        "return": "The quantity of underlying asset owned by this contract"
      },
      "initialize(address,address,address,uint256,string,string,uint8)": {
        "params": {
          "decimals_": "ERC-20 decimal precision of this token",
          "initialExchangeRateMantissa_": "The initial exchange rate, scaled by 1e18",
          "interestRateModel_": "The address of the interest rate model",
          "joetroller_": "The address of the Joetroller",
          "name_": "ERC-20 name of this token",
          "symbol_": "ERC-20 symbol of this token",
          "underlying_": "The address of the underlying asset"
        }
      },
      "initialize(address,address,uint256,string,string,uint8)": {
        "params": {
          "decimals_": "EIP-20 decimal precision of this token",
          "initialExchangeRateMantissa_": "The initial exchange rate, scaled by 1e18",
          "interestRateModel_": "The address of the interest rate model",
          "joetroller_": "The address of the Joetroller",
          "name_": "EIP-20 name of this token",
          "symbol_": "EIP-20 symbol of this token"
        }
      },
      "liquidateBorrow(address,uint256,address)": {
        "details": "Accrues interest whether or not the operation succeeds, unless reverted Keep return in the function signature for backward joeatibility",
        "params": {
          "borrower": "The borrower of this jToken to be liquidated",
          "jTokenCollateral": "The market in which to seize collateral from the borrower",
          "repayAmount": "The amount of the underlying borrowed asset to repay"
        },
        "return": "uint 0=success, otherwise a failure (see ErrorReporter.sol for details)"
      },
      "liquidateBorrowNative(address,address)": {
        "details": "Accrues interest whether or not the operation succeeds, unless reverted Keep return in the function signature for consistency",
        "params": {
          "borrower": "The borrower of this jToken to be liquidated",
          "jTokenCollateral": "The market in which to seize collateral from the borrower"
        },
        "return": "uint 0=success, otherwise a failure (see ErrorReporter.sol for details)"
      },
      "mint(uint256)": {
        "details": "Accrues interest whether or not the operation succeeds, unless reverted Keep return in the function signature for backward joeatibility",
        "params": {
          "mintAmount": "The amount of the underlying asset to supply"
        },
        "return": "uint 0=success, otherwise a failure (see ErrorReporter.sol for details)"
      },
      "mintNative()": {
        "details": "Accrues interest whether or not the operation succeeds, unless reverted Keep return in the function signature for consistency",
        "return": "uint 0=success, otherwise a failure (see ErrorReporter.sol for details)"
      },
      "redeem(uint256)": {
        "details": "Accrues interest whether or not the operation succeeds, unless reverted Keep return in the function signature for backward joeatibility",
        "params": {
          "redeemTokens": "The number of jTokens to redeem into underlying"
        },
        "return": "uint 0=success, otherwise a failure (see ErrorReporter.sol for details)"
      },
      "redeemNative(uint256)": {
        "details": "Accrues interest whether or not the operation succeeds, unless reverted Keep return in the function signature for consistency",
        "params": {
          "redeemTokens": "The number of jTokens to redeem into underlying"
        },
        "return": "uint 0=success, otherwise a failure (see ErrorReporter.sol for details)"
      },
      "redeemUnderlying(uint256)": {
        "details": "Accrues interest whether or not the operation succeeds, unless reverted Keep return in the function signature for backward joeatibility",
        "params": {
          "redeemAmount": "The amount of underlying to redeem"
        },
        "return": "uint 0=success, otherwise a failure (see ErrorReporter.sol for details)"
      },
      "redeemUnderlyingNative(uint256)": {
        "details": "Accrues interest whether or not the operation succeeds, unless reverted Keep return in the function signature for consistency",
        "params": {
          "redeemAmount": "The amount of underlying to redeem"
        },
        "return": "uint 0=success, otherwise a failure (see ErrorReporter.sol for details)"
      },
      "repayBorrow(uint256)": {
        "details": "Accrues interest whether or not the operation succeeds, unless reverted Keep return in the function signature for backward joeatibility",
        "params": {
          "repayAmount": "The amount to repay"
        },
        "return": "uint 0=success, otherwise a failure (see ErrorReporter.sol for details)"
      },
      "repayBorrowNative()": {
        "details": "Accrues interest whether or not the operation succeeds, unless reverted Keep return in the function signature for consistency",
        "return": "uint 0=success, otherwise a failure (see ErrorReporter.sol for details)"
      },
      "seize(address,address,uint256)": {
        "details": "Will fail unless called by another jToken during the process of liquidation. Its absolutely critical to use msg.sender as the borrowed jToken and not a parameter.",
        "params": {
          "borrower": "The account having collateral seized",
          "liquidator": "The account receiving seized collateral",
          "seizeTokens": "The number of jTokens to seize"
        },
        "return": "uint 0=success, otherwise a failure (see ErrorReporter.sol for details)"
      },
      "supplyRatePerSecond()": {
        "return": "The supply interest rate per sec, scaled by 1e18"
      },
      "totalBorrowsCurrent()": {
        "return": "The total borrows with interest"
      },
      "transfer(address,uint256)": {
        "params": {
          "amount": "The number of tokens to transfer",
          "dst": "The address of the destination account"
        },
        "return": "Whether or not the transfer succeeded"
      },
      "transferFrom(address,address,uint256)": {
        "params": {
          "amount": "The number of tokens to transfer",
          "dst": "The address of the destination account",
          "src": "The address of the source account"
        },
        "return": "Whether or not the transfer succeeded"
      }
    },
    "title": "Cream's JWrappedNativeDelegate Contract"
  },
  "userdoc": {
    "methods": {
      "_acceptAdmin()": {
        "notice": "Accepts transfer of admin rights. msg.sender must be pendingAdmin"
      },
      "_addReserves(uint256)": {
        "notice": "The sender adds to reserves."
      },
      "_addReservesNative()": {
        "notice": "The sender adds to reserves."
      },
      "_becomeImplementation(bytes)": {
        "notice": "Called by the delegator on a delegate to initialize it for duty"
      },
      "_reduceReserves(uint256)": {
        "notice": "Accrues interest and reduces reserves by transferring to admin"
      },
      "_resignImplementation()": {
        "notice": "Called by the delegator on a delegate to forfeit its responsibility"
      },
      "_setInterestRateModel(address)": {
        "notice": "accrues interest and updates the interest rate model using _setInterestRateModelFresh"
      },
      "_setJoetroller(address)": {
        "notice": "Sets a new joetroller for the market"
      },
      "_setPendingAdmin(address)": {
        "notice": "Begins transfer of admin rights. The newPendingAdmin must call `_acceptAdmin` to finalize the transfer."
      },
      "_setReserveFactor(uint256)": {
        "notice": "accrues interest and sets a new reserve factor for the protocol using _setReserveFactorFresh"
      },
      "accrueInterest()": {
        "notice": "Applies accrued interest to total borrows and reserves"
      },
      "allowance(address,address)": {
        "notice": "Get the current allowance from `owner` for `spender`"
      },
      "approve(address,uint256)": {
        "notice": "Approve `spender` to transfer up to `amount` from `src`"
      },
      "balanceOf(address)": {
        "notice": "Get the token balance of the `owner`"
      },
      "balanceOfUnderlying(address)": {
        "notice": "Get the underlying balance of the `owner`"
      },
      "borrow(uint256)": {
        "notice": "Sender borrows assets from the protocol to their own address"
      },
      "borrowBalanceCurrent(address)": {
        "notice": "Accrue interest to updated borrowIndex and then calculate account's borrow balance using the updated borrowIndex"
      },
      "borrowBalanceStored(address)": {
        "notice": "Return the borrow balance of account based on stored data"
      },
      "borrowNative(uint256)": {
        "notice": "Sender borrows assets from the protocol to their own address"
      },
      "borrowRatePerSecond()": {
        "notice": "Returns the current per-sec borrow interest rate for this jToken"
      },
      "constructor": "Construct an empty delegate",
      "estimateBorrowRatePerSecondAfterChange(uint256,bool)": {
        "notice": "Returns the estimated per-sec borrow interest rate for this jToken after some change"
      },
      "estimateSupplyRatePerSecondAfterChange(uint256,bool)": {
        "notice": "Returns the estimated per-sec supply interest rate for this jToken after some change"
      },
      "exchangeRateCurrent()": {
        "notice": "Accrue interest then return the up-to-date exchange rate"
      },
      "exchangeRateStored()": {
        "notice": "Calculates the exchange rate from the underlying to the JToken"
      },
      "flashFee(uint256)": {
        "notice": "Get the flash loan fees"
      },
      "flashLoan(address,address,uint256,bytes)": {
        "notice": "Flash loan funds to a given account."
      },
      "getAccountSnapshot(address)": {
        "notice": "Get a snapshot of the account's balances, and the cached exchange rate"
      },
      "getCash()": {
        "notice": "Get cash balance of this jToken in the underlying asset"
      },
      "initialize(address,address,address,uint256,string,string,uint8)": {
        "notice": "Initialize the new money market"
      },
      "initialize(address,address,uint256,string,string,uint8)": {
        "notice": "Initialize the money market"
      },
      "liquidateBorrow(address,uint256,address)": {
        "notice": "The sender liquidates the borrowers collateral. The collateral seized is transferred to the liquidator."
      },
      "liquidateBorrowNative(address,address)": {
        "notice": "The sender liquidates the borrowers collateral. The collateral seized is transferred to the liquidator."
      },
      "maxFlashLoan()": {
        "notice": "Get the max flash loan amount"
      },
      "mint(uint256)": {
        "notice": "Sender supplies assets into the market and receives jTokens in exchange"
      },
      "mintNative()": {
        "notice": "Sender supplies assets into the market and receives jTokens in exchange"
      },
      "redeem(uint256)": {
        "notice": "Sender redeems jTokens in exchange for the underlying asset"
      },
      "redeemNative(uint256)": {
        "notice": "Sender redeems jTokens in exchange for the underlying asset"
      },
      "redeemUnderlying(uint256)": {
        "notice": "Sender redeems jTokens in exchange for a specified amount of underlying asset"
      },
      "redeemUnderlyingNative(uint256)": {
        "notice": "Sender redeems jTokens in exchange for a specified amount of underlying asset"
      },
      "repayBorrow(uint256)": {
        "notice": "Sender repays their own borrow"
      },
      "repayBorrowNative()": {
        "notice": "Sender repays their own borrow"
      },
      "seize(address,address,uint256)": {
        "notice": "Transfers collateral tokens (this market) to the liquidator."
      },
      "supplyRatePerSecond()": {
        "notice": "Returns the current per-sec supply interest rate for this jToken"
      },
      "totalBorrowsCurrent()": {
        "notice": "Returns the current total borrows plus accrued interest"
      },
      "transfer(address,uint256)": {
        "notice": "Transfer `amount` tokens from `msg.sender` to `dst`"
      },
      "transferFrom(address,address,uint256)": {
        "notice": "Transfer `amount` tokens from `src` to `dst`"
      }
    },
    "notice": "JTokens which wrap an EIP-20 underlying and are delegated to"
  },
  "storageLayout": {
    "storage": [
      {
        "astId": 14607,
        "contract": "contracts/JWrappedNativeDelegate.sol:JWrappedNativeDelegate",
        "label": "_notEntered",
        "offset": 0,
        "slot": "0",
        "type": "t_bool"
      },
      {
        "astId": 14609,
        "contract": "contracts/JWrappedNativeDelegate.sol:JWrappedNativeDelegate",
        "label": "name",
        "offset": 0,
        "slot": "1",
        "type": "t_string_storage"
      },
      {
        "astId": 14611,
        "contract": "contracts/JWrappedNativeDelegate.sol:JWrappedNativeDelegate",
        "label": "symbol",
        "offset": 0,
        "slot": "2",
        "type": "t_string_storage"
      },
      {
        "astId": 14613,
        "contract": "contracts/JWrappedNativeDelegate.sol:JWrappedNativeDelegate",
        "label": "decimals",
        "offset": 0,
        "slot": "3",
        "type": "t_uint8"
      },
      {
        "astId": 14621,
        "contract": "contracts/JWrappedNativeDelegate.sol:JWrappedNativeDelegate",
        "label": "admin",
        "offset": 1,
        "slot": "3",
        "type": "t_address_payable"
      },
      {
        "astId": 14623,
        "contract": "contracts/JWrappedNativeDelegate.sol:JWrappedNativeDelegate",
        "label": "pendingAdmin",
        "offset": 0,
        "slot": "4",
        "type": "t_address_payable"
      },
      {
        "astId": 14625,
        "contract": "contracts/JWrappedNativeDelegate.sol:JWrappedNativeDelegate",
        "label": "joetroller",
        "offset": 0,
        "slot": "5",
        "type": "t_contract(JoetrollerInterface)20789"
      },
      {
        "astId": 14627,
        "contract": "contracts/JWrappedNativeDelegate.sol:JWrappedNativeDelegate",
        "label": "interestRateModel",
        "offset": 0,
        "slot": "6",
        "type": "t_contract(InterestRateModel)2448"
      },
      {
        "astId": 14629,
        "contract": "contracts/JWrappedNativeDelegate.sol:JWrappedNativeDelegate",
        "label": "initialExchangeRateMantissa",
        "offset": 0,
        "slot": "7",
        "type": "t_uint256"
      },
      {
        "astId": 14631,
        "contract": "contracts/JWrappedNativeDelegate.sol:JWrappedNativeDelegate",
        "label": "reserveFactorMantissa",
        "offset": 0,
        "slot": "8",
        "type": "t_uint256"
      },
      {
        "astId": 14633,
        "contract": "contracts/JWrappedNativeDelegate.sol:JWrappedNativeDelegate",
        "label": "accrualBlockTimestamp",
        "offset": 0,
        "slot": "9",
        "type": "t_uint256"
      },
      {
        "astId": 14635,
        "contract": "contracts/JWrappedNativeDelegate.sol:JWrappedNativeDelegate",
        "label": "borrowIndex",
        "offset": 0,
        "slot": "10",
        "type": "t_uint256"
      },
      {
        "astId": 14637,
        "contract": "contracts/JWrappedNativeDelegate.sol:JWrappedNativeDelegate",
        "label": "totalBorrows",
        "offset": 0,
        "slot": "11",
        "type": "t_uint256"
      },
      {
        "astId": 14639,
        "contract": "contracts/JWrappedNativeDelegate.sol:JWrappedNativeDelegate",
        "label": "totalReserves",
        "offset": 0,
        "slot": "12",
        "type": "t_uint256"
      },
      {
        "astId": 14641,
        "contract": "contracts/JWrappedNativeDelegate.sol:JWrappedNativeDelegate",
        "label": "totalSupply",
        "offset": 0,
        "slot": "13",
        "type": "t_uint256"
      },
      {
        "astId": 14645,
        "contract": "contracts/JWrappedNativeDelegate.sol:JWrappedNativeDelegate",
        "label": "accountTokens",
        "offset": 0,
        "slot": "14",
        "type": "t_mapping(t_address,t_uint256)"
      },
      {
        "astId": 14651,
        "contract": "contracts/JWrappedNativeDelegate.sol:JWrappedNativeDelegate",
        "label": "transferAllowances",
        "offset": 0,
        "slot": "15",
        "type": "t_mapping(t_address,t_mapping(t_address,t_uint256))"
      },
      {
        "astId": 14660,
        "contract": "contracts/JWrappedNativeDelegate.sol:JWrappedNativeDelegate",
        "label": "accountBorrows",
        "offset": 0,
        "slot": "16",
        "type": "t_mapping(t_address,t_struct(BorrowSnapshot)14656_storage)"
      },
      {
        "astId": 14663,
        "contract": "contracts/JWrappedNativeDelegate.sol:JWrappedNativeDelegate",
        "label": "underlying",
        "offset": 0,
        "slot": "17",
        "type": "t_address"
      },
      {
        "astId": 14665,
        "contract": "contracts/JWrappedNativeDelegate.sol:JWrappedNativeDelegate",
        "label": "implementation",
        "offset": 0,
        "slot": "18",
        "type": "t_address"
      }
    ],
    "types": {
      "t_address": {
        "encoding": "inplace",
        "label": "address",
        "numberOfBytes": "20"
      },
      "t_address_payable": {
        "encoding": "inplace",
        "label": "address payable",
        "numberOfBytes": "20"
      },
      "t_bool": {
        "encoding": "inplace",
        "label": "bool",
        "numberOfBytes": "1"
      },
      "t_contract(InterestRateModel)2448": {
        "encoding": "inplace",
        "label": "contract InterestRateModel",
        "numberOfBytes": "20"
      },
      "t_contract(JoetrollerInterface)20789": {
        "encoding": "inplace",
        "label": "contract JoetrollerInterface",
        "numberOfBytes": "20"
      },
      "t_mapping(t_address,t_mapping(t_address,t_uint256))": {
        "encoding": "mapping",
        "key": "t_address",
        "label": "mapping(address => mapping(address => uint256))",
        "numberOfBytes": "32",
        "value": "t_mapping(t_address,t_uint256)"
      },
      "t_mapping(t_address,t_struct(BorrowSnapshot)14656_storage)": {
        "encoding": "mapping",
        "key": "t_address",
        "label": "mapping(address => struct JTokenStorage.BorrowSnapshot)",
        "numberOfBytes": "32",
        "value": "t_struct(BorrowSnapshot)14656_storage"
      },
      "t_mapping(t_address,t_uint256)": {
        "encoding": "mapping",
        "key": "t_address",
        "label": "mapping(address => uint256)",
        "numberOfBytes": "32",
        "value": "t_uint256"
      },
      "t_string_storage": {
        "encoding": "bytes",
        "label": "string",
        "numberOfBytes": "32"
      },
      "t_struct(BorrowSnapshot)14656_storage": {
        "encoding": "inplace",
        "label": "struct JTokenStorage.BorrowSnapshot",
        "members": [
          {
            "astId": 14653,
            "contract": "contracts/JWrappedNativeDelegate.sol:JWrappedNativeDelegate",
            "label": "principal",
            "offset": 0,
            "slot": "0",
            "type": "t_uint256"
          },
          {
            "astId": 14655,
            "contract": "contracts/JWrappedNativeDelegate.sol:JWrappedNativeDelegate",
            "label": "interestIndex",
            "offset": 0,
            "slot": "1",
            "type": "t_uint256"
          }
        ],
        "numberOfBytes": "64"
      },
      "t_uint256": {
        "encoding": "inplace",
        "label": "uint256",
        "numberOfBytes": "32"
      },
      "t_uint8": {
        "encoding": "inplace",
        "label": "uint8",
        "numberOfBytes": "1"
      }
    }
  }
}