{
  "address": "0x5744F337a7597DD6a2CBDB24C0ECe416b53D8a81",
  "abi": [
    {
      "inputs": [
        {
          "internalType": "address",
          "name": "admin_",
          "type": "address"
        },
        {
          "internalType": "address",
          "name": "v1PriceOracle_",
          "type": "address"
        },
        {
          "internalType": "address",
          "name": "ethUsdAggregator_",
          "type": "address"
        }
      ],
      "payable": false,
      "stateMutability": "nonpayable",
      "type": "constructor"
    },
    {
      "anonymous": false,
      "inputs": [
        {
          "indexed": false,
          "internalType": "address",
          "name": "cTokenAddress",
          "type": "address"
        },
        {
          "indexed": false,
          "internalType": "address",
          "name": "source",
          "type": "address"
        },
        {
          "indexed": false,
          "internalType": "enum PriceOracleProxyUSD.AggregatorBase",
          "name": "base",
          "type": "uint8"
        }
      ],
      "name": "AggregatorUpdated",
      "type": "event"
    },
    {
      "anonymous": false,
      "inputs": [
        {
          "indexed": false,
          "internalType": "address",
          "name": "admin",
          "type": "address"
        }
      ],
      "name": "SetAdmin",
      "type": "event"
    },
    {
      "anonymous": false,
      "inputs": [
        {
          "indexed": false,
          "internalType": "address",
          "name": "guardian",
          "type": "address"
        }
      ],
      "name": "SetGuardian",
      "type": "event"
    },
    {
      "constant": false,
      "inputs": [
        {
          "internalType": "address",
          "name": "_admin",
          "type": "address"
        }
      ],
      "name": "_setAdmin",
      "outputs": [],
      "payable": false,
      "stateMutability": "nonpayable",
      "type": "function"
    },
    {
      "constant": false,
      "inputs": [
        {
          "internalType": "address[]",
          "name": "cTokenAddresses",
          "type": "address[]"
        },
        {
          "internalType": "address[]",
          "name": "sources",
          "type": "address[]"
        },
        {
          "internalType": "enum PriceOracleProxyUSD.AggregatorBase[]",
          "name": "bases",
          "type": "uint8[]"
        }
      ],
      "name": "_setAggregators",
      "outputs": [],
      "payable": false,
      "stateMutability": "nonpayable",
      "type": "function"
    },
    {
      "constant": false,
      "inputs": [
        {
          "internalType": "address",
          "name": "_guardian",
          "type": "address"
        }
      ],
      "name": "_setGuardian",
      "outputs": [],
      "payable": false,
      "stateMutability": "nonpayable",
      "type": "function"
    },
    {
      "constant": true,
      "inputs": [],
      "name": "admin",
      "outputs": [
        {
          "internalType": "address",
          "name": "",
          "type": "address"
        }
      ],
      "payable": false,
      "stateMutability": "view",
      "type": "function"
    },
    {
      "constant": true,
      "inputs": [
        {
          "internalType": "address",
          "name": "",
          "type": "address"
        }
      ],
      "name": "aggregators",
      "outputs": [
        {
          "internalType": "contract AggregatorV3Interface",
          "name": "source",
          "type": "address"
        },
        {
          "internalType": "enum PriceOracleProxyUSD.AggregatorBase",
          "name": "base",
          "type": "uint8"
        }
      ],
      "payable": false,
      "stateMutability": "view",
      "type": "function"
    },
    {
      "constant": true,
      "inputs": [
        {
          "internalType": "address",
          "name": "",
          "type": "address"
        }
      ],
      "name": "curveSwap",
      "outputs": [
        {
          "internalType": "address",
          "name": "",
          "type": "address"
        }
      ],
      "payable": false,
      "stateMutability": "view",
      "type": "function"
    },
    {
      "constant": true,
      "inputs": [],
      "name": "ethUsdAggregator",
      "outputs": [
        {
          "internalType": "contract AggregatorV3Interface",
          "name": "",
          "type": "address"
        }
      ],
      "payable": false,
      "stateMutability": "view",
      "type": "function"
    },
    {
      "constant": true,
      "inputs": [
        {
          "internalType": "contract CToken",
          "name": "cToken",
          "type": "address"
        }
      ],
      "name": "getUnderlyingPrice",
      "outputs": [
        {
          "internalType": "uint256",
          "name": "",
          "type": "uint256"
        }
      ],
      "payable": false,
      "stateMutability": "view",
      "type": "function"
    },
    {
      "constant": true,
      "inputs": [],
      "name": "guardian",
      "outputs": [
        {
          "internalType": "address",
          "name": "",
          "type": "address"
        }
      ],
      "payable": false,
      "stateMutability": "view",
      "type": "function"
    },
    {
      "constant": true,
      "inputs": [],
      "name": "v1PriceOracle",
      "outputs": [
        {
          "internalType": "contract V1PriceOracleInterface",
          "name": "",
          "type": "address"
        }
      ],
      "payable": false,
      "stateMutability": "view",
      "type": "function"
    },
    {
      "constant": true,
      "inputs": [
        {
          "internalType": "address",
          "name": "",
          "type": "address"
        }
      ],
      "name": "yVaults",
      "outputs": [
        {
          "internalType": "address",
          "name": "",
          "type": "address"
        }
      ],
      "payable": false,
      "stateMutability": "view",
      "type": "function"
    }
  ],
  "transactionHash": "0xf062e690599682cf9e464e95f284979f4bbb233275e52aaef566c3cb48a78684",
  "args": [
    "0x5D3e4C0FE11e0aE4c32F0FF74B4544C49538AC61",
    "0x8aE07Ea4E63c9419d49760De8163A92d2D574432",
    "0x8A753747A1Fa494EC906cE90E9f37563A8AF630e"
  ],
  "solcInputHash": "af94273bfeb935476334f847f3412514",
  "bytecode": "0x608060405234801561001057600080fd5b50604051610e5e380380610e5e8339818101604052606081101561003357600080fd5b5080516020820151604090920151600080546001600160a01b039384166001600160a01b0319918216179091556005805494841694821694909417909355600680549290911691909216179055610dcf8061008f6000396000f3fe608060405234801561001057600080fd5b50600436106100a95760003560e01c8063452a932011610071578063452a93201461028e57806395ed7da314610296578063e38e8c0f146102bc578063f851a440146102e2578063fc57d4df146102ea578063fe10c98d14610322576100a9565b806305631658146100ae57806310236026146101c4578063112cdab9146101e85780631b1c4f23146102425780633a74a76714610268575b600080fd5b6101c2600480360360608110156100c457600080fd5b8101906020810181356401000000008111156100df57600080fd5b8201836020820111156100f157600080fd5b8035906020019184602083028401116401000000008311171561011357600080fd5b91939092909160208101903564010000000081111561013157600080fd5b82018360208201111561014357600080fd5b8035906020019184602083028401116401000000008311171561016557600080fd5b91939092909160208101903564010000000081111561018357600080fd5b82018360208201111561019557600080fd5b803590602001918460208302840111640100000000831117156101b757600080fd5b50909250905061032a565b005b6101cc6105fc565b604080516001600160a01b039092168252519081900360200190f35b61020e600480360360208110156101fe57600080fd5b50356001600160a01b031661060b565b6040516001600160a01b03831681526020810182600181111561022d57fe5b60ff1681526020019250505060405180910390f35b6101cc6004803603602081101561025857600080fd5b50356001600160a01b0316610632565b6101c26004803603602081101561027e57600080fd5b50356001600160a01b031661064d565b6101cc610706565b6101cc600480360360208110156102ac57600080fd5b50356001600160a01b0316610715565b6101c2600480360360208110156102d257600080fd5b50356001600160a01b0316610730565b6101cc6107d3565b6103106004803603602081101561030057600080fd5b50356001600160a01b03166107e2565b60408051918252519081900360200190f35b6101cc6109b9565b6000546001600160a01b031633148061034d57506001546001600160a01b031633145b6103885760405162461bcd60e51b8152600401808060200182810382526032815260200180610d206032913960400191505060405180910390fd5b848314801561039657508481145b6103d9576040805162461bcd60e51b815260206004820152600f60248201526e6d69736d617463686564206461746160881b604482015290519081900360640190fd5b60005b858110156105f35760008585838181106103f257fe5b905060200201356001600160a01b03166001600160a01b031614610459576000546001600160a01b031633146104595760405162461bcd60e51b8152600401808060200182810382526026815260200180610d756026913960400191505060405180910390fd5b604051806040016040528086868481811061047057fe5b905060200201356001600160a01b03166001600160a01b0316815260200184848481811061049a57fe5b905060200201356001811180156104b057600080fd5b5060018111156104bc57fe5b9052600260008989858181106104ce57fe5b602090810292909201356001600160a01b03908116845283830194909452506040909101600020835181546001600160a01b0319169316929092178083559083015190829060ff60a01b1916600160a01b83600181111561052b57fe5b02179055509050507f59a3f269886d3e5164a5f1e2c292c20122d475aa7a1d0f79c0e46d10ff3eae3887878381811061056057fe5b905060200201356001600160a01b031686868481811061057c57fe5b905060200201356001600160a01b031685858581811061059857fe5b905060200201356001811180156105ae57600080fd5b50604080516001600160a01b038086168252841660208201529081018260018111156105d657fe5b60ff168152602001935050505060405180910390a16001016103dc565b50505050505050565b6006546001600160a01b031681565b6002602052600090815260409020546001600160a01b03811690600160a01b900460ff1682565b6004602052600090815260409020546001600160a01b031681565b6000546001600160a01b031633146106ac576040805162461bcd60e51b815260206004820181905260248201527f6f6e6c79207468652061646d696e206d617920736574206e65772061646d696e604482015290519081900360640190fd5b600080546001600160a01b0319166001600160a01b03838116919091179182905560408051929091168252517f5a272403b402d892977df56625f4164ccaf70ca3863991c43ecfe76a6905b0a1916020908290030190a150565b6001546001600160a01b031681565b6003602052600090815260409020546001600160a01b031681565b6000546001600160a01b031633146107795760405162461bcd60e51b8152600401808060200182810382526023815260200180610d526023913960400191505060405180910390fd5b600180546001600160a01b0319166001600160a01b03838116919091179182905560408051929091168252517f31845eceb9cde510c7e8b37f76301c688feb70bc9653aa4c28a3734999840fd8916020908290030190a150565b6000546001600160a01b031681565b6000816107ed610d08565b6001600160a01b03828116600090815260026020908152604091829020825180840190935280549384168352919290830190600160a01b900460ff16600181111561083457fe5b600181111561083f57fe5b90525080519091506001600160a01b0316156109a657600061086482600001516109c8565b905060018260200151600181111561087857fe5b14156108b05760408051602081019091526006546108ad91839181906108a6906001600160a01b03166109c8565b9052610af8565b90505b6000836001600160a01b0316636f307dc36040518163ffffffff1660e01b815260040160206040518083038186803b1580156108eb57600080fd5b505afa1580156108ff573d6000803e3d6000fd5b505050506040513d602081101561091557600080fd5b50516040805163313ce56760e01b815290516001600160a01b039092169163313ce56791600480820192602092909190829003018186803b15801561095957600080fd5b505afa15801561096d573d6000803e3d6000fd5b505050506040513d602081101561098357600080fd5b505160ff16905061099b826012839003600a0a610b20565b9450505050506109b4565b6109af82610b62565b925050505b919050565b6005546001600160a01b031681565b600080826001600160a01b031663feaf968c6040518163ffffffff1660e01b815260040160a06040518083038186803b158015610a0457600080fd5b505afa158015610a18573d6000803e3d6000fd5b505050506040513d60a0811015610a2e57600080fd5b5060200151905060008113610a7a576040805162461bcd60e51b815260206004820152600d60248201526c696e76616c696420707269636560981b604482015290519081900360640190fd5b610af181846001600160a01b031663313ce5676040518163ffffffff1660e01b815260040160206040518083038186803b158015610ab757600080fd5b505afa158015610acb573d6000803e3d6000fd5b505050506040513d6020811015610ae157600080fd5b505160ff16601203600a0a610b20565b9392505050565b6000670de0b6b3a7640000610b11848460000151610b20565b81610b1857fe5b049392505050565b6000610af183836040518060400160405280601781526020017f6d756c7469706c69636174696f6e206f766572666c6f77000000000000000000815250610c4c565b600080826001600160a01b0316636f307dc36040518163ffffffff1660e01b815260040160206040518083038186803b158015610b9e57600080fd5b505afa158015610bb2573d6000803e3d6000fd5b505050506040513d6020811015610bc857600080fd5b5051600554604080516317a6948f60e21b81526001600160a01b0380851660048301529151939450911691635e9a523c91602480820192602092909190829003018186803b158015610c1957600080fd5b505afa158015610c2d573d6000803e3d6000fd5b505050506040513d6020811015610c4357600080fd5b50519392505050565b6000831580610c59575082155b15610c6657506000610af1565b83830283858281610c7357fe5b04148390610cff5760405162461bcd60e51b81526004018080602001828103825283818151815260200191508051906020019080838360005b83811015610cc4578181015183820152602001610cac565b50505050905090810190601f168015610cf15780820380516001836020036101000a031916815260200191505b509250505060405180910390fd5b50949350505050565b60408051808201909152600080825260208201529056fe6f6e6c79207468652061646d696e206f7220677561726469616e206d617920736574207468652061676772656761746f72736f6e6c79207468652061646d696e206d617920736574206e657720677561726469616e677561726469616e206d6179206f6e6c7920636c656172207468652061676772656761746f72a265627a7a72315820aecd978eb28c0f9355e0391dde53e45994bab8f52359bdde70f9132b0e92fb7964736f6c63430005100032",
  "devdoc": {
    "methods": {
      "_setAdmin(address)": {
        "params": {
          "_admin": "The new admin"
        }
      },
      "_setAggregators(address[],address[],uint8[])": {
        "params": {
          "bases": "The list of ChainLink aggregator bases",
          "cTokenAddresses": "The list of cTokens",
          "sources": "The list of ChainLink aggregator sources"
        }
      },
      "_setGuardian(address)": {
        "params": {
          "_guardian": "The new guardian"
        }
      },
      "constructor": {
        "params": {
          "admin_": "The address of admin to set aggregators",
          "v1PriceOracle_": "The v1 price oracle"
        }
      },
      "getUnderlyingPrice(address)": {
        "params": {
          "cToken": "The cToken to get the underlying price of"
        },
        "return": "The underlying asset price mantissa (scaled by 1e18)"
      }
    }
  },
  "userdoc": {
    "methods": {
      "_setAdmin(address)": {
        "notice": "Set admin for price oracle proxy"
      },
      "_setAggregators(address[],address[],uint8[])": {
        "notice": "Set ChainLink aggregators for multiple cTokens"
      },
      "_setGuardian(address)": {
        "notice": "Set guardian for price oracle proxy"
      },
      "getUnderlyingPrice(address)": {
        "notice": "Get the underlying price of a listed cToken asset"
      }
    }
  },
  "storageLayout": {
    "storage": [
      {
        "astId": 28372,
        "contract": "contracts/PriceOracle/PriceOracleProxyUSD.sol:PriceOracleProxyUSD",
        "label": "admin",
        "offset": 0,
        "slot": "0",
        "type": "t_address"
      },
      {
        "astId": 28374,
        "contract": "contracts/PriceOracle/PriceOracleProxyUSD.sol:PriceOracleProxyUSD",
        "label": "guardian",
        "offset": 0,
        "slot": "1",
        "type": "t_address"
      },
      {
        "astId": 28383,
        "contract": "contracts/PriceOracle/PriceOracleProxyUSD.sol:PriceOracleProxyUSD",
        "label": "aggregators",
        "offset": 0,
        "slot": "2",
        "type": "t_mapping(t_address,t_struct(AggregatorInfo)28379_storage)"
      },
      {
        "astId": 28387,
        "contract": "contracts/PriceOracle/PriceOracleProxyUSD.sol:PriceOracleProxyUSD",
        "label": "yVaults",
        "offset": 0,
        "slot": "3",
        "type": "t_mapping(t_address,t_address)"
      },
      {
        "astId": 28391,
        "contract": "contracts/PriceOracle/PriceOracleProxyUSD.sol:PriceOracleProxyUSD",
        "label": "curveSwap",
        "offset": 0,
        "slot": "4",
        "type": "t_mapping(t_address,t_address)"
      },
      {
        "astId": 28393,
        "contract": "contracts/PriceOracle/PriceOracleProxyUSD.sol:PriceOracleProxyUSD",
        "label": "v1PriceOracle",
        "offset": 0,
        "slot": "5",
        "type": "t_contract(V1PriceOracleInterface)28307"
      },
      {
        "astId": 28395,
        "contract": "contracts/PriceOracle/PriceOracleProxyUSD.sol:PriceOracleProxyUSD",
        "label": "ethUsdAggregator",
        "offset": 0,
        "slot": "6",
        "type": "t_contract(AggregatorV3Interface)28363"
      }
    ],
    "types": {
      "t_address": {
        "encoding": "inplace",
        "label": "address",
        "numberOfBytes": "20"
      },
      "t_contract(AggregatorV3Interface)28363": {
        "encoding": "inplace",
        "label": "contract AggregatorV3Interface",
        "numberOfBytes": "20"
      },
      "t_contract(V1PriceOracleInterface)28307": {
        "encoding": "inplace",
        "label": "contract V1PriceOracleInterface",
        "numberOfBytes": "20"
      },
      "t_enum(AggregatorBase)28370": {
        "encoding": "inplace",
        "label": "enum PriceOracleProxyUSD.AggregatorBase",
        "numberOfBytes": "1"
      },
      "t_mapping(t_address,t_address)": {
        "encoding": "mapping",
        "key": "t_address",
        "label": "mapping(address => address)",
        "numberOfBytes": "32",
        "value": "t_address"
      },
      "t_mapping(t_address,t_struct(AggregatorInfo)28379_storage)": {
        "encoding": "mapping",
        "key": "t_address",
        "label": "mapping(address => struct PriceOracleProxyUSD.AggregatorInfo)",
        "numberOfBytes": "32",
        "value": "t_struct(AggregatorInfo)28379_storage"
      },
      "t_struct(AggregatorInfo)28379_storage": {
        "encoding": "inplace",
        "label": "struct PriceOracleProxyUSD.AggregatorInfo",
        "members": [
          {
            "astId": 28376,
            "contract": "contracts/PriceOracle/PriceOracleProxyUSD.sol:PriceOracleProxyUSD",
            "label": "source",
            "offset": 0,
            "slot": "0",
            "type": "t_contract(AggregatorV3Interface)28363"
          },
          {
            "astId": 28378,
            "contract": "contracts/PriceOracle/PriceOracleProxyUSD.sol:PriceOracleProxyUSD",
            "label": "base",
            "offset": 20,
            "slot": "0",
            "type": "t_enum(AggregatorBase)28370"
          }
        ],
        "numberOfBytes": "32"
      }
    }
  }
}