{
  "address": "0x6ffda7DcF628a3f95B68f17Fc9f16117e0C0327d",
  "abi": [
    {
      "inputs": [],
      "payable": false,
      "stateMutability": "nonpayable",
      "type": "constructor"
    },
    {
      "anonymous": false,
      "inputs": [
        {
          "indexed": false,
          "internalType": "uint8",
          "name": "rewardType",
          "type": "uint8"
        },
        {
          "indexed": true,
          "internalType": "contract JToken",
          "name": "jToken",
          "type": "address"
        },
        {
          "indexed": true,
          "internalType": "address",
          "name": "borrower",
          "type": "address"
        },
        {
          "indexed": false,
          "internalType": "uint256",
          "name": "rewardDelta",
          "type": "uint256"
        },
        {
          "indexed": false,
          "internalType": "uint256",
          "name": "rewardBorrowIndex",
          "type": "uint256"
        }
      ],
      "name": "DistributedBorrowerReward",
      "type": "event"
    },
    {
      "anonymous": false,
      "inputs": [
        {
          "indexed": false,
          "internalType": "uint8",
          "name": "rewardType",
          "type": "uint8"
        },
        {
          "indexed": true,
          "internalType": "contract JToken",
          "name": "jToken",
          "type": "address"
        },
        {
          "indexed": true,
          "internalType": "address",
          "name": "supplier",
          "type": "address"
        },
        {
          "indexed": false,
          "internalType": "uint256",
          "name": "rewardDelta",
          "type": "uint256"
        },
        {
          "indexed": false,
          "internalType": "uint256",
          "name": "rewardSupplyIndex",
          "type": "uint256"
        }
      ],
      "name": "DistributedSupplierReward",
      "type": "event"
    },
    {
      "anonymous": false,
      "inputs": [
        {
          "indexed": false,
          "internalType": "uint8",
          "name": "rewardType",
          "type": "uint8"
        },
        {
          "indexed": false,
          "internalType": "address",
          "name": "recipient",
          "type": "address"
        },
        {
          "indexed": false,
          "internalType": "uint256",
          "name": "amount",
          "type": "uint256"
        }
      ],
      "name": "RewardGranted",
      "type": "event"
    },
    {
      "anonymous": false,
      "inputs": [
        {
          "indexed": false,
          "internalType": "uint8",
          "name": "rewardType",
          "type": "uint8"
        },
        {
          "indexed": true,
          "internalType": "contract JToken",
          "name": "jToken",
          "type": "address"
        },
        {
          "indexed": false,
          "internalType": "uint256",
          "name": "newSpeed",
          "type": "uint256"
        }
      ],
      "name": "RewardSpeedUpdated",
      "type": "event"
    },
    {
      "payable": true,
      "stateMutability": "payable",
      "type": "fallback"
    },
    {
      "constant": false,
      "inputs": [
        {
          "internalType": "uint8",
          "name": "rewardType",
          "type": "uint8"
        },
        {
          "internalType": "address payable",
          "name": "recipient",
          "type": "address"
        },
        {
          "internalType": "uint256",
          "name": "amount",
          "type": "uint256"
        }
      ],
      "name": "_grantReward",
      "outputs": [],
      "payable": false,
      "stateMutability": "nonpayable",
      "type": "function"
    },
    {
      "constant": false,
      "inputs": [
        {
          "internalType": "uint8",
          "name": "rewardType",
          "type": "uint8"
        },
        {
          "internalType": "contract JToken",
          "name": "jToken",
          "type": "address"
        },
        {
          "internalType": "uint256",
          "name": "rewardSpeed",
          "type": "uint256"
        }
      ],
      "name": "_setRewardSpeed",
      "outputs": [],
      "payable": false,
      "stateMutability": "nonpayable",
      "type": "function"
    },
    {
      "constant": true,
      "inputs": [],
      "name": "admin",
      "outputs": [
        {
          "internalType": "address",
          "name": "",
          "type": "address"
        }
      ],
      "payable": false,
      "stateMutability": "view",
      "type": "function"
    },
    {
      "constant": false,
      "inputs": [
        {
          "internalType": "uint8",
          "name": "rewardType",
          "type": "uint8"
        },
        {
          "internalType": "address payable",
          "name": "holder",
          "type": "address"
        }
      ],
      "name": "claimReward",
      "outputs": [],
      "payable": false,
      "stateMutability": "nonpayable",
      "type": "function"
    },
    {
      "constant": false,
      "inputs": [
        {
          "internalType": "uint8",
          "name": "rewardType",
          "type": "uint8"
        },
        {
          "internalType": "address payable",
          "name": "holder",
          "type": "address"
        },
        {
          "internalType": "contract JToken[]",
          "name": "jTokens",
          "type": "address[]"
        }
      ],
      "name": "claimReward",
      "outputs": [],
      "payable": false,
      "stateMutability": "nonpayable",
      "type": "function"
    },
    {
      "constant": false,
      "inputs": [
        {
          "internalType": "uint8",
          "name": "rewardType",
          "type": "uint8"
        },
        {
          "internalType": "address payable[]",
          "name": "holders",
          "type": "address[]"
        },
        {
          "internalType": "contract JToken[]",
          "name": "jTokens",
          "type": "address[]"
        },
        {
          "internalType": "bool",
          "name": "borrowers",
          "type": "bool"
        },
        {
          "internalType": "bool",
          "name": "suppliers",
          "type": "bool"
        }
      ],
      "name": "claimReward",
      "outputs": [],
      "payable": true,
      "stateMutability": "payable",
      "type": "function"
    },
    {
      "constant": true,
      "inputs": [],
      "name": "getBlockTimestamp",
      "outputs": [
        {
          "internalType": "uint256",
          "name": "",
          "type": "uint256"
        }
      ],
      "payable": false,
      "stateMutability": "view",
      "type": "function"
    },
    {
      "constant": false,
      "inputs": [],
      "name": "initialize",
      "outputs": [],
      "payable": false,
      "stateMutability": "nonpayable",
      "type": "function"
    },
    {
      "constant": true,
      "inputs": [],
      "name": "joeAddress",
      "outputs": [
        {
          "internalType": "address",
          "name": "",
          "type": "address"
        }
      ],
      "payable": false,
      "stateMutability": "view",
      "type": "function"
    },
    {
      "constant": true,
      "inputs": [],
      "name": "joetroller",
      "outputs": [
        {
          "internalType": "contract Joetroller",
          "name": "",
          "type": "address"
        }
      ],
      "payable": false,
      "stateMutability": "view",
      "type": "function"
    },
    {
      "constant": true,
      "inputs": [
        {
          "internalType": "uint8",
          "name": "rewardType",
          "type": "uint8"
        },
        {
          "internalType": "address",
          "name": "account",
          "type": "address"
        }
      ],
      "name": "pendingReward",
      "outputs": [
        {
          "internalType": "uint256",
          "name": "",
          "type": "uint256"
        }
      ],
      "payable": false,
      "stateMutability": "view",
      "type": "function"
    },
    {
      "constant": true,
      "inputs": [
        {
          "internalType": "uint8",
          "name": "",
          "type": "uint8"
        },
        {
          "internalType": "address",
          "name": "",
          "type": "address"
        }
      ],
      "name": "rewardAccrued",
      "outputs": [
        {
          "internalType": "uint256",
          "name": "",
          "type": "uint256"
        }
      ],
      "payable": false,
      "stateMutability": "view",
      "type": "function"
    },
    {
      "constant": true,
      "inputs": [
        {
          "internalType": "uint8",
          "name": "",
          "type": "uint8"
        },
        {
          "internalType": "address",
          "name": "",
          "type": "address"
        }
      ],
      "name": "rewardBorrowState",
      "outputs": [
        {
          "internalType": "uint224",
          "name": "index",
          "type": "uint224"
        },
        {
          "internalType": "uint32",
          "name": "timestamp",
          "type": "uint32"
        }
      ],
      "payable": false,
      "stateMutability": "view",
      "type": "function"
    },
    {
      "constant": true,
      "inputs": [
        {
          "internalType": "uint8",
          "name": "",
          "type": "uint8"
        },
        {
          "internalType": "address",
          "name": "",
          "type": "address"
        },
        {
          "internalType": "address",
          "name": "",
          "type": "address"
        }
      ],
      "name": "rewardBorrowerIndex",
      "outputs": [
        {
          "internalType": "uint256",
          "name": "",
          "type": "uint256"
        }
      ],
      "payable": false,
      "stateMutability": "view",
      "type": "function"
    },
    {
      "constant": true,
      "inputs": [],
      "name": "rewardInitialIndex",
      "outputs": [
        {
          "internalType": "uint224",
          "name": "",
          "type": "uint224"
        }
      ],
      "payable": false,
      "stateMutability": "view",
      "type": "function"
    },
    {
      "constant": true,
      "inputs": [
        {
          "internalType": "uint8",
          "name": "",
          "type": "uint8"
        },
        {
          "internalType": "address",
          "name": "",
          "type": "address"
        }
      ],
      "name": "rewardSpeeds",
      "outputs": [
        {
          "internalType": "uint256",
          "name": "",
          "type": "uint256"
        }
      ],
      "payable": false,
      "stateMutability": "view",
      "type": "function"
    },
    {
      "constant": true,
      "inputs": [
        {
          "internalType": "uint8",
          "name": "",
          "type": "uint8"
        },
        {
          "internalType": "address",
          "name": "",
          "type": "address"
        },
        {
          "internalType": "address",
          "name": "",
          "type": "address"
        }
      ],
      "name": "rewardSupplierIndex",
      "outputs": [
        {
          "internalType": "uint256",
          "name": "",
          "type": "uint256"
        }
      ],
      "payable": false,
      "stateMutability": "view",
      "type": "function"
    },
    {
      "constant": true,
      "inputs": [
        {
          "internalType": "uint8",
          "name": "",
          "type": "uint8"
        },
        {
          "internalType": "address",
          "name": "",
          "type": "address"
        }
      ],
      "name": "rewardSupplyState",
      "outputs": [
        {
          "internalType": "uint224",
          "name": "index",
          "type": "uint224"
        },
        {
          "internalType": "uint32",
          "name": "timestamp",
          "type": "uint32"
        }
      ],
      "payable": false,
      "stateMutability": "view",
      "type": "function"
    },
    {
      "constant": false,
      "inputs": [
        {
          "internalType": "address",
          "name": "_newAdmin",
          "type": "address"
        }
      ],
      "name": "setAdmin",
      "outputs": [],
      "payable": false,
      "stateMutability": "nonpayable",
      "type": "function"
    },
    {
      "constant": false,
      "inputs": [
        {
          "internalType": "address",
          "name": "newJoeAddress",
          "type": "address"
        }
      ],
      "name": "setJoeAddress",
      "outputs": [],
      "payable": false,
      "stateMutability": "nonpayable",
      "type": "function"
    },
    {
      "constant": false,
      "inputs": [
        {
          "internalType": "address",
          "name": "_joetroller",
          "type": "address"
        }
      ],
      "name": "setJoetroller",
      "outputs": [],
      "payable": false,
      "stateMutability": "nonpayable",
      "type": "function"
    },
    {
      "constant": false,
      "inputs": [
        {
          "internalType": "address",
          "name": "jToken",
          "type": "address"
        },
        {
          "internalType": "address",
          "name": "borrower",
          "type": "address"
        },
        {
          "components": [
            {
              "internalType": "uint256",
              "name": "mantissa",
              "type": "uint256"
            }
          ],
          "internalType": "struct Exponential.Exp",
          "name": "marketBorrowIndex",
          "type": "tuple"
        }
      ],
      "name": "updateAndDistributeBorrowerRewardsForToken",
      "outputs": [],
      "payable": false,
      "stateMutability": "nonpayable",
      "type": "function"
    },
    {
      "constant": false,
      "inputs": [
        {
          "internalType": "address",
          "name": "jToken",
          "type": "address"
        },
        {
          "internalType": "address",
          "name": "supplier",
          "type": "address"
        }
      ],
      "name": "updateAndDistributeSupplierRewardsForToken",
      "outputs": [],
      "payable": false,
      "stateMutability": "nonpayable",
      "type": "function"
    }
  ],
  "transactionHash": "0x967a667bba07833ce1da61a5ea3c4dc7de7746f93f9939feefa75baa5665cc70",
  "args": [],
  "solcInputHash": "a74965c5892b1a1c1a9653be779374a6",
  "bytecode": "0x608060405234801561001057600080fd5b50600080546001600160a01b03191633179055613355806100326000396000f3fe6080604052600436106101405760003560e01c80637937969d116100b6578063be6153351161006f578063be61533514610367578063cb15d8e214610387578063d81c5e45146103a9578063f0663983146103c9578063f851a440146103e9578063fcc4cfd1146103fe57610140565b80637937969d146102ca578063796b89b9146102ea5780638129fc1c146102ff5780638805714b1461031457806388e972b8146103275780639c39e2931461034757610140565b80634b3a0a74116101085780634b3a0a74146101f85780636330533c1461022657806366f91a2414610248578063670e8afd1461026a578063704b6c021461028a578063744532ae146102aa57610140565b806305b9783d146101425780630952c563146101785780631f9f3511146101985780632b7e3434146101b85780632f32b11f146101d8575b005b34801561014e57600080fd5b5061016261015d366004612b0b565b61041e565b60405161016f919061317d565b60405180910390f35b34801561018457600080fd5b50610140610193366004612b0b565b61043b565b3480156101a457600080fd5b506101406101b33660046129cf565b6104ce565b3480156101c457600080fd5b506101626101d3366004612b0b565b610523565b3480156101e457600080fd5b506101406101f3366004612b85565b610540565b34801561020457600080fd5b50610218610213366004612b0b565b6105d5565b60405161016f929190613162565b34801561023257600080fd5b5061023b61060a565b60405161016f9190613075565b34801561025457600080fd5b5061025d610619565b60405161016f9190613154565b34801561027657600080fd5b506101406102853660046129f5565b61062b565b34801561029657600080fd5b506101406102a53660046129cf565b61067f565b3480156102b657600080fd5b506101406102c5366004612b2a565b6106cb565b3480156102d657600080fd5b506101626102e5366004612bc8565b61072f565b3480156102f657600080fd5b50610162610752565b34801561030b57600080fd5b50610140610756565b610140610322366004612c0b565b6107a7565b34801561033357600080fd5b50610162610342366004612bc8565b610afb565b34801561035357600080fd5b50610140610362366004612a2f565b610b1e565b34801561037357600080fd5b50610162610382366004612b0b565b610b8b565b34801561039357600080fd5b5061039c610d54565b60405161016f919061303e565b3480156103b557600080fd5b506102186103c4366004612b0b565b610d63565b3480156103d557600080fd5b506101406103e4366004612cb0565b610d98565b3480156103f557600080fd5b5061039c610deb565b34801561040a57600080fd5b506101406104193660046129cf565b610dfa565b600760209081526000928352604080842090915290825290205481565b6104ca8282600160009054906101000a90046001600160a01b03166001600160a01b031663b0772d0b6040518163ffffffff1660e01b815260040160006040518083038186803b15801561048e57600080fd5b505afa1580156104a2573d6000803e3d6000fd5b505050506040513d6000823e601f3d908101601f191682016040526102c59190810190612a7c565b5050565b6000546001600160a01b031633146105015760405162461bcd60e51b81526004016104f890613094565b60405180910390fd5b600180546001600160a01b0319166001600160a01b0392909216919091179055565b600260209081526000928352604080842090915290825290205481565b610548610e46565b6105645760405162461bcd60e51b81526004016104f8906130e4565b60006105748460ff168484610e6f565b905080156105945760405162461bcd60e51b81526004016104f890613114565b7fc6d3bad890aa15362e90611f8643bfafcf5b09a9d4781295bd7ba8adffa037118484846040516105c79392919061318b565b60405180910390a150505050565b60046020908152600092835260408084209091529082529020546001600160e01b03811690600160e01b900463ffffffff1682565b6001546001600160a01b031681565b6a0c097ce7bc90715b34b9f160241b81565b610633610e46565b61064f5760405162461bcd60e51b81526004016104f8906130f4565b60005b60018160ff161161067a576106678184611010565b6106728184846112e1565b600101610652565b505050565b6000546001600160a01b031633146106a95760405162461bcd60e51b81526004016104f890613134565b600080546001600160a01b0319166001600160a01b0392909216919091179055565b6040805160018082528183019092526060916020808301908038833901905050905082816000815181106106fb57fe5b60200260200101906001600160a01b031690816001600160a01b0316815250506107298482846001806107a7565b50505050565b600660209081526000938452604080852082529284528284209052825290205481565b4290565b600854600160a01b900460ff16156107805760405162461bcd60e51b81526004016104f890613124565b600180546001600160a01b031916331790556008805460ff60a01b1916600160a01b179055565b60018560ff1611156107cb5760405162461bcd60e51b81526004016104f890613104565b60005b8351811015610af35760008482815181106107e557fe5b6020908102919091010151600154604051633d98a1e560e01b81529192506001600160a01b031690633d98a1e59061082190849060040161303e565b60206040518083038186803b15801561083957600080fd5b505afa15801561084d573d6000803e3d6000fd5b505050506040513d601f19601f820116820180604052506108719190810190612ab1565b61088d5760405162461bcd60e51b81526004016104f8906130d4565b60018415151415610a18576108a06127ba565b6040518060200160405280836001600160a01b031663aa5af0fd6040518163ffffffff1660e01b815260040160206040518083038186803b1580156108e457600080fd5b505afa1580156108f8573d6000803e3d6000fd5b505050506040513d601f19601f8201168201806040525061091c9190810190612aed565b9052905061092b88838361151a565b60005b8751811015610a155761095689848a848151811061094857fe5b60200260200101518561182c565b6109c68960ff1689838151811061096957fe5b6020026020010151600760008d60ff1660ff16815260200190815260200160002060008c868151811061099857fe5b60200260200101516001600160a01b03166001600160a01b0316815260200190815260200160002054610e6f565b60ff8a1660009081526007602052604081208a519091908b90859081106109e957fe5b6020908102919091018101516001600160a01b031682528101919091526040016000205560010161092e565b50505b60018315151415610aea57610a2d8782611010565b60005b8651811015610ae857610a578883898481518110610a4a57fe5b60200260200101516112e1565b610a998860ff16888381518110610a6a57fe5b6020026020010151600760008c60ff1660ff16815260200190815260200160002060008b868151811061099857fe5b60ff8916600090815260076020526040812089519091908a9085908110610abc57fe5b6020908102919091018101516001600160a01b0316825281019190915260400160002055600101610a30565b505b506001016107ce565b505050505050565b600560209081526000938452604080852082529284528284209052825290205481565b610b26610e46565b610b425760405162461bcd60e51b81526004016104f8906130b4565b60005b60018160ff161161072957610b698185610b6436869003860186612acf565b61151a565b610b83818585610b7e36879003870187612acf565b61182c565b600101610b45565b600060018360ff161115610bb15760405162461bcd60e51b81526004016104f890613104565b60006060600160009054906101000a90046001600160a01b03166001600160a01b031663b0772d0b6040518163ffffffff1660e01b815260040160006040518083038186803b158015610c0357600080fd5b505afa158015610c17573d6000803e3d6000fd5b505050506040513d6000823e601f3d908101601f19168201604052610c3f9190810190612a7c565b905060005b8151811015610d48576000828281518110610c5b57fe5b6020908102919091010151600154604051633d98a1e560e01b81529192506001600160a01b031690633d98a1e590610c9790849060040161303e565b60206040518083038186803b158015610caf57600080fd5b505afa158015610cc3573d6000803e3d6000fd5b505050506040513d601f19601f82011682018060405250610ce79190810190612ab1565b610d035760405162461bcd60e51b81526004016104f8906130d4565b6000610d10888389611a35565b9050610d1c8582611b99565b94506000610d2b89848a611bcf565b9050610d378682611b99565b95505060019092019150610c449050565b50909150505b92915050565b6008546001600160a01b031681565b60036020908152600092835260408084209091529082529020546001600160e01b03811690600160e01b900463ffffffff1682565b60018360ff161115610dbc5760405162461bcd60e51b81526004016104f890613104565b610dc4610e46565b610de05760405162461bcd60e51b81526004016104f890613144565b61067a838383611db2565b6000546001600160a01b031681565b6000546001600160a01b03163314610e245760405162461bcd60e51b81526004016104f8906130a4565b600880546001600160a01b0319166001600160a01b0392909216919091179055565b600080546001600160a01b0316331480610e6a57506001546001600160a01b031633145b905090565b600083610fa5576008546040516370a0823160e01b81526001600160a01b039091169060009082906370a0823190610eab90309060040161304c565b60206040518083038186803b158015610ec357600080fd5b505afa158015610ed7573d6000803e3d6000fd5b505050506040513d601f19601f82011682018060405250610efb9190810190612aed565b9050600084118015610f0d5750808411155b15610f9e5760405163a9059cbb60e01b81526001600160a01b0383169063a9059cbb90610f40908890889060040161305a565b602060405180830381600087803b158015610f5a57600080fd5b505af1158015610f6e573d6000803e3d6000fd5b505050506040513d601f19601f82011682018060405250610f929190810190612ab1565b50600092505050611009565b5050611006565b836001141561100657478215801590610fbe5750808311155b15611004576040516001600160a01b0385169084156108fc029085906000818181858888f19350505050158015610ff9573d6000803e3d6000fd5b506000915050611009565b505b50805b9392505050565b60018260ff1611156110345760405162461bcd60e51b81526004016104f890613104565b60ff821660008181526003602090815260408083206001600160a01b0386168085529083528184209484526002835281842090845290915281205490611078610752565b8354909150600090611098908390600160e01b900463ffffffff166121d6565b90506000811180156110aa5750600083115b15611287576000856001600160a01b03166318160ddd6040518163ffffffff1660e01b815260040160206040518083038186803b1580156110ea57600080fd5b505afa1580156110fe573d6000803e3d6000fd5b505050506040513d601f19601f820116820180604052506111229190810190612aed565b905060006111308386612210565b905061113a6127ba565b600083116111575760405180602001604052806000815250611161565b6111618284612252565b905061116b6127ba565b604080516020810190915288546001600160e01b0316815261118d908361228f565b905060405180604001604052806111dd83600001516040518060400160405280601a81526020017f6e657720696e64657820657863656564732032323420626974730000000000008152506122b4565b6001600160e01b03168152602001611218886040518060400160405280601f81526020016000805160206132f38339815191528152506122e3565b63ffffffff90811690915260ff8c1660009081526003602090815260408083206001600160a01b038f1684528252909120835181549490920151909216600160e01b026001600160e01b039182166001600160e01b0319909416939093171691909117905550610af392505050565b8015610af3576112ba826040518060400160405280601f81526020016000805160206132f38339815191528152506122e3565b845463ffffffff91909116600160e01b026001600160e01b03909116178455505050505050565b60018360ff1611156113055760405162461bcd60e51b81526004016104f890613104565b60ff831660009081526003602090815260408083206001600160a01b038616845290915290206113336127ba565b50604080516020810190915281546001600160e01b031681526113546127ba565b50604080516020808201835260ff88166000908152600582528381206001600160a01b03808a168352908352848220908816808352818452948220805485528651959092529091529190915580511580156113af5750815115155b156113c6576a0c097ce7bc90715b34b9f160241b81525b6113ce6127ba565b6113d8838361230b565b90506000866001600160a01b03166370a08231876040518263ffffffff1660e01b8152600401611408919061303e565b60206040518083038186803b15801561142057600080fd5b505afa158015611434573d6000803e3d6000fd5b505050506040513d601f19601f820116820180604052506114589190810190612aed565b905060006114668284612330565b60ff8a1660009081526007602090815260408083206001600160a01b038c1684529091528120549192509061149b9083611b99565b60ff8b1660009081526007602090815260408083206001600160a01b03808e168086529190935292819020849055895190519394509192908c16917faccd035d02c456be35306aecd5a5fe62320713dde09ccd68b0a5e8ed9303999991611506918f918891906131c1565b60405180910390a350505050505050505050565b60018360ff16111561153e5760405162461bcd60e51b81526004016104f890613104565b60ff831660008181526004602090815260408083206001600160a01b0387168085529083528184209484526002835281842090845290915281205490611582610752565b83549091506000906115a2908390600160e01b900463ffffffff166121d6565b90506000811180156115b45750600083115b156117d0576000611635876001600160a01b03166347bd37186040518163ffffffff1660e01b815260040160206040518083038186803b1580156115f757600080fd5b505afa15801561160b573d6000803e3d6000fd5b505050506040513d601f19601f8201168201806040525061162f9190810190612aed565b8761235e565b905060006116438386612210565b905061164d6127ba565b6000831161166a5760405180602001604052806000815250611674565b6116748284612252565b905061167e6127ba565b604080516020810190915288546001600160e01b031681526116a0908361228f565b905060405180604001604052806116f083600001516040518060400160405280601a81526020017f6e657720696e64657820657863656564732032323420626974730000000000008152506122b4565b6001600160e01b0316815260200161172b886040518060400160405280601f81526020016000805160206132f38339815191528152506122e3565b63ffffffff16815250600460008d60ff1660ff16815260200190815260200160002060008c6001600160a01b03166001600160a01b0316815260200190815260200160002060008201518160000160006101000a8154816001600160e01b0302191690836001600160e01b03160217905550602082015181600001601c6101000a81548163ffffffff021916908363ffffffff16021790555090505050505050611823565b801561182357611803826040518060400160405280601f81526020016000805160206132f38339815191528152506122e3565b845463ffffffff91909116600160e01b026001600160e01b039091161784555b50505050505050565b60018460ff1611156118505760405162461bcd60e51b81526004016104f890613104565b60ff841660009081526004602090815260408083206001600160a01b0387168452909152902061187e6127ba565b50604080516020810190915281546001600160e01b0316815261189f6127ba565b50604080516020808201835260ff89166000908152600682528381206001600160a01b03808b1683529083528482209089168083528184529482208054855286519590925290915291909155805115611823576118fa6127ba565b611904838361230b565b9050600061194f886001600160a01b03166395dd9193896040518263ffffffff1660e01b8152600401611937919061303e565b60206040518083038186803b1580156115f757600080fd5b9050600061195d8284612330565b60ff8b1660009081526007602090815260408083206001600160a01b038d168452909152812054919250906119929083611b99565b905080600760008d60ff1660ff16815260200190815260200160002060008b6001600160a01b03166001600160a01b0316815260200190815260200160002081905550886001600160a01b03168a6001600160a01b03167fa1b6a046664a0ecf068059f26de56878f8d0e799907ca2e42d9148ccbdc717a78d858a60000151604051611a20939291906131c1565b60405180910390a35050505050505050505050565b6000611a3f6127ba565b611a49858561237c565b9050611a536127ba565b50604080516020808201835260ff88166000908152600582528381206001600160a01b03808a16835290835284822090881682529091529190912054808252158015611a9f5750815115155b15611ab6576a0c097ce7bc90715b34b9f160241b81525b611abe6127ba565b611ac8838361230b565b90506000866001600160a01b03166370a08231876040518263ffffffff1660e01b8152600401611af8919061303e565b60206040518083038186803b158015611b1057600080fd5b505afa158015611b24573d6000803e3d6000fd5b505050506040513d601f19601f82011682018060405250611b489190810190612aed565b90506000611b568284612330565b60ff8a1660009081526007602090815260408083206001600160a01b038c16845290915281205491925090611b8b9083611b99565b9a9950505050505050505050565b60006110098383604051806040016040528060118152602001706164646974696f6e206f766572666c6f7760781b8152506124ee565b6000611bd96127ba565b611be3858561251e565b9050611bed6127ba565b50604080516020808201835260ff88166000908152600682528381206001600160a01b03808a168352908352848220908816825290915291909120548152611c336127ba565b6040518060200160405280876001600160a01b031663aa5af0fd6040518163ffffffff1660e01b815260040160206040518083038186803b158015611c7757600080fd5b505afa158015611c8b573d6000803e3d6000fd5b505050506040513d601f19601f82011682018060405250611caf9190810190612aed565b9052825190915015611da857611cc36127ba565b611ccd848461230b565b90506000611d56886001600160a01b03166395dd9193896040518263ffffffff1660e01b8152600401611d00919061303e565b60206040518083038186803b158015611d1857600080fd5b505afa158015611d2c573d6000803e3d6000fd5b505050506040513d601f19601f82011682018060405250611d509190810190612aed565b8461235e565b90506000611d648284612330565b60ff8b1660009081526007602090815260408083206001600160a01b038d16845290915281205491925090611d999083611b99565b97506110099650505050505050565b5050509392505050565b60ff831660009081526002602090815260408083206001600160a01b03861684529091529020548015611e8257611de76127ba565b6040518060200160405280856001600160a01b031663aa5af0fd6040518163ffffffff1660e01b815260040160206040518083038186803b158015611e2b57600080fd5b505afa158015611e3f573d6000803e3d6000fd5b505050506040513d601f19601f82011682018060405250611e639190810190612aed565b90529050611e718585611010565b611e7c85858361151a565b50612165565b811561216557600154604051633d98a1e560e01b81526001600160a01b0390911690633d98a1e590611eb890869060040161303e565b60206040518083038186803b158015611ed057600080fd5b505afa158015611ee4573d6000803e3d6000fd5b505050506040513d601f19601f82011682018060405250611f089190810190612ab1565b611f245760405162461bcd60e51b81526004016104f8906130c4565b60ff841660009081526003602090815260408083206001600160a01b03871684529091529020546001600160e01b0316158015611f92575060ff841660009081526003602090815260408083206001600160a01b0387168452909152902054600160e01b900463ffffffff16155b156120595760405180604001604052806a0c097ce7bc90715b34b9f160241b6001600160e01b03168152602001611ff3611fca610752565b6040518060400160405280601f81526020016000805160206132f38339815191528152506122e3565b63ffffffff90811690915260ff861660009081526003602090815260408083206001600160a01b03891684528252909120835181549490920151909216600160e01b026001600160e01b039182166001600160e01b031990941693909317169190911790555b60ff841660009081526004602090815260408083206001600160a01b03871684529091529020546001600160e01b03161580156120c7575060ff841660009081526004602090815260408083206001600160a01b0387168452909152902054600160e01b900463ffffffff16155b156121655760405180604001604052806a0c097ce7bc90715b34b9f160241b6001600160e01b031681526020016120ff611fca610752565b63ffffffff90811690915260ff861660009081526004602090815260408083206001600160a01b03891684528252909120835181549490920151909216600160e01b026001600160e01b039182166001600160e01b031990941693909317169190911790555b8181146107295760ff841660009081526002602090815260408083206001600160a01b03871680855292529182902084905590517fbcd6f688f6b32a7abece90e35e19187f0d25af4d6661fe99791a3b69a2defded906121c890879086906131b3565b60405180910390a250505050565b60006110098383604051806040016040528060158152602001747375627472616374696f6e20756e646572666c6f7760581b8152506126e4565b600061100983836040518060400160405280601781526020017f6d756c7469706c69636174696f6e206f766572666c6f77000000000000000000815250612710565b61225a6127ba565b6040518060200160405280612286612280866a0c097ce7bc90715b34b9f160241b612210565b85612758565b90529392505050565b6122976127ba565b604051806020016040528061228685600001518560000151611b99565b600081600160e01b84106122db5760405162461bcd60e51b81526004016104f89190613083565b509192915050565b60008164010000000084106122db5760405162461bcd60e51b81526004016104f89190613083565b6123136127ba565b6040518060200160405280612286856000015185600001516121d6565b60006a0c097ce7bc90715b34b9f160241b61234f848460000151612210565b8161235657fe5b049392505050565b600061100961237584670de0b6b3a7640000612210565b8351612758565b6123846127ba565b60ff831660008181526003602090815260408083206001600160a01b03871680855290835281842094845260028352818420908452909152812054906123c8610752565b83549091506000906123e8908390600160e01b900463ffffffff166121d6565b90506123f26127ba565b50604080516020810190915284546001600160e01b03168152811580159061241a5750600084115b156124e3576000876001600160a01b03166318160ddd6040518163ffffffff1660e01b815260040160206040518083038186803b15801561245a57600080fd5b505afa15801561246e573d6000803e3d6000fd5b505050506040513d601f19601f820116820180604052506124929190810190612aed565b905060006124a08487612210565b90506124aa6127ba565b600083116124c757604051806020016040528060008152506124d1565b6124d18284612252565b90506124dd848261228f565b93505050505b979650505050505050565b600083830182858210156125155760405162461bcd60e51b81526004016104f89190613083565b50949350505050565b6125266127ba565b60ff831660008181526004602090815260408083206001600160a01b038716808552908352818420948452600283528184209084529091528120549061256a610752565b835490915060009061258a908390600160e01b900463ffffffff166121d6565b90506125946127ba565b6040518060200160405280886001600160a01b031663aa5af0fd6040518163ffffffff1660e01b815260040160206040518083038186803b1580156125d857600080fd5b505afa1580156125ec573d6000803e3d6000fd5b505050506040513d601f19601f820116820180604052506126109190810190612aed565b9052905061261c6127ba565b50604080516020810190915285546001600160e01b0316815282158015906126445750600085115b156126d8576000612687896001600160a01b03166347bd37186040518163ffffffff1660e01b815260040160206040518083038186803b158015611d1857600080fd5b905060006126958588612210565b905061269f6127ba565b600083116126bc57604051806020016040528060008152506126c6565b6126c68284612252565b90506126d2848261228f565b93505050505b98975050505050505050565b600081848411156127085760405162461bcd60e51b81526004016104f89190613083565b505050900390565b600083158061271d575082155b1561272a57506000611009565b8383028385828161273757fe5b041483906125155760405162461bcd60e51b81526004016104f89190613083565b600061100983836040518060400160405280600e81526020016d646976696465206279207a65726f60901b815250600081836127a75760405162461bcd60e51b81526004016104f89190613083565b508284816127b157fe5b04949350505050565b6040518060200160405280600081525090565b8035610d4e816132b7565b600082601f8301126127e957600080fd5b81356127fc6127f782613203565b6131dc565b9150818183526020840193506020810190508385602084028201111561282157600080fd5b60005b8381101561284d578161283788826127cd565b8452506020928301929190910190600101612824565b5050505092915050565b600082601f83011261286857600080fd5b81356128766127f782613203565b9150818183526020840193506020810190508385602084028201111561289b57600080fd5b60005b8381101561284d57816128b1888261294d565b845250602092830192919091019060010161289e565b600082601f8301126128d857600080fd5b81516128e66127f782613203565b9150818183526020840193506020810190508385602084028201111561290b57600080fd5b60005b8381101561284d57816129218882612958565b845250602092830192919091019060010161290e565b8035610d4e816132ce565b8051610d4e816132ce565b8035610d4e816132d7565b8051610d4e816132d7565b60006020828403121561297557600080fd5b50919050565b60006020828403121561298d57600080fd5b61299760206131dc565b905060006129a584846129ae565b82525092915050565b8035610d4e816132e0565b8051610d4e816132e0565b8035610d4e816132e9565b6000602082840312156129e157600080fd5b60006129ed84846127cd565b949350505050565b60008060408385031215612a0857600080fd5b6000612a1485856127cd565b9250506020612a25858286016127cd565b9150509250929050565b600080600060608486031215612a4457600080fd5b6000612a5086866127cd565b9350506020612a61868287016127cd565b9250506040612a7286828701612963565b9150509250925092565b600060208284031215612a8e57600080fd5b815167ffffffffffffffff811115612aa557600080fd5b6129ed848285016128c7565b600060208284031215612ac357600080fd5b60006129ed8484612942565b600060208284031215612ae157600080fd5b60006129ed848461297b565b600060208284031215612aff57600080fd5b60006129ed84846129b9565b60008060408385031215612b1e57600080fd5b6000612a1485856129c4565b600080600060608486031215612b3f57600080fd5b6000612b4b86866129c4565b9350506020612b5c868287016127cd565b925050604084013567ffffffffffffffff811115612b7957600080fd5b612a7286828701612857565b600080600060608486031215612b9a57600080fd5b6000612ba686866129c4565b9350506020612bb7868287016127cd565b9250506040612a72868287016129ae565b600080600060608486031215612bdd57600080fd5b6000612be986866129c4565b9350506020612bfa868287016127cd565b9250506040612a72868287016127cd565b600080600080600060a08688031215612c2357600080fd5b6000612c2f88886129c4565b955050602086013567ffffffffffffffff811115612c4c57600080fd5b612c58888289016127d8565b945050604086013567ffffffffffffffff811115612c7557600080fd5b612c8188828901612857565b9350506060612c9288828901612937565b9250506080612ca388828901612937565b9150509295509295909350565b600080600060608486031215612cc557600080fd5b6000612cd186866129c4565b9350506020612bb78682870161294d565b612ceb81613276565b82525050565b612ceb81613231565b612ceb81613241565b6000612d0e82613224565b612d188185613228565b9350612d28818560208601613281565b612d31816132ad565b9093019392505050565b6000612d48601d83613228565b7f6f6e6c792061646d696e2063616e20736574204a6f6574726f6c6c6572000000815260200192915050565b6000612d81601683613228565b756f6e6c792061646d696e2063616e20736574204a4f4560501b815260200192915050565b6000612db3603583613228565b7f6f6e6c792061646d696e2063616e2075706461746520616e64206469737472698152746275746520626f72726f776572207265776172647360581b602082015260400192915050565b6000612e0a601b83613228565b7f726577617264206d61726b6574206973206e6f74206c69737465640000000000815260200192915050565b6000612e43601583613228565b741b585c9ad95d081b5d5cdd081899481b1a5cdd1959605a1b815260200192915050565b6000612e74601883613228565b7f6f6e6c792061646d696e2063616e206772616e74206a6f650000000000000000815260200192915050565b6000612ead603583613228565b7f6f6e6c792061646d696e2063616e2075706461746520616e64206469737472698152746275746520737570706c696572207265776172647360581b602082015260400192915050565b6000612f04601583613228565b741c995dd85c99151e5c19481a5cc81a5b9d985b1a59605a1b815260200192915050565b6000612f35601a83613228565b7f696e73756666696369656e74206a6f6520666f72206772616e74000000000000815260200192915050565b6000612f6e602583613228565b7f5265776172644469737472696275746f7220616c726561647920696e697469618152641b1a5e995960da1b602082015260400192915050565b6000612fb5601883613228565b7f6f6e6c792061646d696e2063616e207365742061646d696e0000000000000000815260200192915050565b6000612fee601f83613228565b7f6f6e6c792061646d696e2063616e207365742072657761726420737065656400815260200192915050565b612ceb81613258565b612ceb81613264565b612ceb81613267565b612ceb81613270565b60208101610d4e8284612cf1565b60208101610d4e8284612ce2565b604081016130688285612ce2565b6110096020830184613023565b60208101610d4e8284612cfa565b602080825281016110098184612d03565b60208082528101610d4e81612d3b565b60208082528101610d4e81612d74565b60208082528101610d4e81612da6565b60208082528101610d4e81612dfd565b60208082528101610d4e81612e36565b60208082528101610d4e81612e67565b60208082528101610d4e81612ea0565b60208082528101610d4e81612ef7565b60208082528101610d4e81612f28565b60208082528101610d4e81612f61565b60208082528101610d4e81612fa8565b60208082528101610d4e81612fe1565b60208101610d4e828461301a565b60408101613170828561301a565b611009602083018461302c565b60208101610d4e8284613023565b606081016131998286613035565b6131a66020830185612ce2565b6129ed6040830184613023565b604081016130688285613035565b606081016131cf8286613035565b6131a66020830185613023565b60405181810167ffffffffffffffff811182821017156131fb57600080fd5b604052919050565b600067ffffffffffffffff82111561321a57600080fd5b5060209081020190565b5190565b90815260200190565b6000610d4e8261324c565b151590565b6000610d4e82613231565b6001600160a01b031690565b6001600160e01b031690565b90565b63ffffffff1690565b60ff1690565b6000610d4e82613241565b60005b8381101561329c578181015183820152602001613284565b838111156107295750506000910152565b601f01601f191690565b6132c081613231565b81146132cb57600080fd5b50565b6132c08161323c565b6132c081613241565b6132c081613264565b6132c08161327056fe626c6f636b2074696d657374616d702065786365656473203332206269747300a365627a7a723158206eb8f22562f3d87e1c5a4a6a81e006955875d7735176bb15e3f2962477ad2bdf6c6578706572696d656e74616cf564736f6c63430005100040",
  "devdoc": {
    "methods": {
      "_grantReward(uint8,address,uint256)": {
        "details": "Note: If there is not enough JOE, we do not perform the transfer all.",
        "params": {
          "amount": "The amount of JOE to (possibly) transfer",
          "recipient": "The address of the recipient to transfer JOE to"
        }
      },
      "_setRewardSpeed(uint8,address,uint256)": {
        "params": {
          "jToken": "The market whose reward speed to update",
          "rewardSpeed": "New reward speed for market",
          "rewardType": "0 = QI, 1 = AVAX"
        }
      },
      "claimReward(uint8,address)": {
        "params": {
          "holder": "The address to claim JOE/AVAX for"
        }
      },
      "claimReward(uint8,address,address[])": {
        "params": {
          "holder": "The address to claim JOE/AVAX for",
          "jTokens": "The list of markets to claim JOE/AVAX in"
        }
      },
      "claimReward(uint8,address[],address[],bool,bool)": {
        "params": {
          "borrowers": "Whether or not to claim JOE/AVAX earned by borrowing",
          "holders": "The addresses to claim JOE/AVAX for",
          "jTokens": "The list of markets to claim JOE/AVAX in",
          "rewardType": "0 = JOE, 1 = AVAX",
          "suppliers": "Whether or not to claim JOE/AVAX earned by supplying"
        }
      },
      "updateAndDistributeBorrowerRewardsForToken(address,address,(uint256))": {
        "params": {
          "borrower": "Borrower to be rewarded",
          "jToken": "The market to verify the mint against"
        }
      },
      "updateAndDistributeSupplierRewardsForToken(address,address)": {
        "params": {
          "jToken": "The market to verify the mint against",
          "supplier": "The supplier to be rewarded"
        }
      }
    }
  },
  "userdoc": {
    "methods": {
      "_grantReward(uint8,address,uint256)": {
        "notice": "Transfer JOE to the recipient"
      },
      "_setRewardSpeed(uint8,address,uint256)": {
        "notice": "Set JOE/AVAX speed for a single market"
      },
      "claimReward(uint8,address)": {
        "notice": "Claim all the JOE/AVAX accrued by holder in all markets"
      },
      "claimReward(uint8,address,address[])": {
        "notice": "Claim all the JOE/AVAX accrued by holder in the specified markets"
      },
      "claimReward(uint8,address[],address[],bool,bool)": {
        "notice": "Claim all JOE/AVAX  accrued by the holders"
      },
      "pendingReward(uint8,address)": {
        "notice": "* User functions **"
      },
      "setAdmin(address)": {
        "notice": "Set the admin"
      },
      "setJoeAddress(address)": {
        "notice": "Set the JOE token address"
      },
      "setJoetroller(address)": {
        "notice": "Set the Joetroller address"
      },
      "updateAndDistributeBorrowerRewardsForToken(address,address,(uint256))": {
        "notice": "Refactored function to calc and rewards accounts supplier rewards"
      },
      "updateAndDistributeSupplierRewardsForToken(address,address)": {
        "notice": "Refactored function to calc and rewards accounts supplier rewards"
      }
    }
  },
  "storageLayout": {
    "storage": [
      {
        "astId": 23197,
        "contract": "contracts/RewardDistributor.sol:RewardDistributor",
        "label": "admin",
        "offset": 0,
        "slot": "0",
        "type": "t_address"
      },
      {
        "astId": 23199,
        "contract": "contracts/RewardDistributor.sol:RewardDistributor",
        "label": "joetroller",
        "offset": 0,
        "slot": "1",
        "type": "t_contract(Joetroller)20577"
      },
      {
        "astId": 23210,
        "contract": "contracts/RewardDistributor.sol:RewardDistributor",
        "label": "rewardSpeeds",
        "offset": 0,
        "slot": "2",
        "type": "t_mapping(t_uint8,t_mapping(t_address,t_uint256))"
      },
      {
        "astId": 23216,
        "contract": "contracts/RewardDistributor.sol:RewardDistributor",
        "label": "rewardSupplyState",
        "offset": 0,
        "slot": "3",
        "type": "t_mapping(t_uint8,t_mapping(t_address,t_struct(RewardMarketState)23204_storage))"
      },
      {
        "astId": 23222,
        "contract": "contracts/RewardDistributor.sol:RewardDistributor",
        "label": "rewardBorrowState",
        "offset": 0,
        "slot": "4",
        "type": "t_mapping(t_uint8,t_mapping(t_address,t_struct(RewardMarketState)23204_storage))"
      },
      {
        "astId": 23230,
        "contract": "contracts/RewardDistributor.sol:RewardDistributor",
        "label": "rewardSupplierIndex",
        "offset": 0,
        "slot": "5",
        "type": "t_mapping(t_uint8,t_mapping(t_address,t_mapping(t_address,t_uint256)))"
      },
      {
        "astId": 23238,
        "contract": "contracts/RewardDistributor.sol:RewardDistributor",
        "label": "rewardBorrowerIndex",
        "offset": 0,
        "slot": "6",
        "type": "t_mapping(t_uint8,t_mapping(t_address,t_mapping(t_address,t_uint256)))"
      },
      {
        "astId": 23244,
        "contract": "contracts/RewardDistributor.sol:RewardDistributor",
        "label": "rewardAccrued",
        "offset": 0,
        "slot": "7",
        "type": "t_mapping(t_uint8,t_mapping(t_address,t_uint256))"
      },
      {
        "astId": 23249,
        "contract": "contracts/RewardDistributor.sol:RewardDistributor",
        "label": "joeAddress",
        "offset": 0,
        "slot": "8",
        "type": "t_address"
      },
      {
        "astId": 23296,
        "contract": "contracts/RewardDistributor.sol:RewardDistributor",
        "label": "initialized",
        "offset": 20,
        "slot": "8",
        "type": "t_bool"
      }
    ],
    "types": {
      "t_address": {
        "encoding": "inplace",
        "label": "address",
        "numberOfBytes": "20"
      },
      "t_bool": {
        "encoding": "inplace",
        "label": "bool",
        "numberOfBytes": "1"
      },
      "t_contract(Joetroller)20577": {
        "encoding": "inplace",
        "label": "contract Joetroller",
        "numberOfBytes": "20"
      },
      "t_mapping(t_address,t_mapping(t_address,t_uint256))": {
        "encoding": "mapping",
        "key": "t_address",
        "label": "mapping(address => mapping(address => uint256))",
        "numberOfBytes": "32",
        "value": "t_mapping(t_address,t_uint256)"
      },
      "t_mapping(t_address,t_struct(RewardMarketState)23204_storage)": {
        "encoding": "mapping",
        "key": "t_address",
        "label": "mapping(address => struct RewardDistributorStorage.RewardMarketState)",
        "numberOfBytes": "32",
        "value": "t_struct(RewardMarketState)23204_storage"
      },
      "t_mapping(t_address,t_uint256)": {
        "encoding": "mapping",
        "key": "t_address",
        "label": "mapping(address => uint256)",
        "numberOfBytes": "32",
        "value": "t_uint256"
      },
      "t_mapping(t_uint8,t_mapping(t_address,t_mapping(t_address,t_uint256)))": {
        "encoding": "mapping",
        "key": "t_uint8",
        "label": "mapping(uint8 => mapping(address => mapping(address => uint256)))",
        "numberOfBytes": "32",
        "value": "t_mapping(t_address,t_mapping(t_address,t_uint256))"
      },
      "t_mapping(t_uint8,t_mapping(t_address,t_struct(RewardMarketState)23204_storage))": {
        "encoding": "mapping",
        "key": "t_uint8",
        "label": "mapping(uint8 => mapping(address => struct RewardDistributorStorage.RewardMarketState))",
        "numberOfBytes": "32",
        "value": "t_mapping(t_address,t_struct(RewardMarketState)23204_storage)"
      },
      "t_mapping(t_uint8,t_mapping(t_address,t_uint256))": {
        "encoding": "mapping",
        "key": "t_uint8",
        "label": "mapping(uint8 => mapping(address => uint256))",
        "numberOfBytes": "32",
        "value": "t_mapping(t_address,t_uint256)"
      },
      "t_struct(RewardMarketState)23204_storage": {
        "encoding": "inplace",
        "label": "struct RewardDistributorStorage.RewardMarketState",
        "members": [
          {
            "astId": 23201,
            "contract": "contracts/RewardDistributor.sol:RewardDistributor",
            "label": "index",
            "offset": 0,
            "slot": "0",
            "type": "t_uint224"
          },
          {
            "astId": 23203,
            "contract": "contracts/RewardDistributor.sol:RewardDistributor",
            "label": "timestamp",
            "offset": 28,
            "slot": "0",
            "type": "t_uint32"
          }
        ],
        "numberOfBytes": "32"
      },
      "t_uint224": {
        "encoding": "inplace",
        "label": "uint224",
        "numberOfBytes": "28"
      },
      "t_uint256": {
        "encoding": "inplace",
        "label": "uint256",
        "numberOfBytes": "32"
      },
      "t_uint32": {
        "encoding": "inplace",
        "label": "uint32",
        "numberOfBytes": "4"
      },
      "t_uint8": {
        "encoding": "inplace",
        "label": "uint8",
        "numberOfBytes": "1"
      }
    }
  }
}