{
  "address": "0x8aE07Ea4E63c9419d49760De8163A92d2D574432",
  "abi": [
    {
      "inputs": [
        {
          "internalType": "address",
          "name": "_poster",
          "type": "address"
        }
      ],
      "payable": false,
      "stateMutability": "nonpayable",
      "type": "constructor"
    },
    {
      "anonymous": false,
      "inputs": [
        {
          "indexed": false,
          "internalType": "address",
          "name": "asset",
          "type": "address"
        },
        {
          "indexed": false,
          "internalType": "uint256",
          "name": "requestedPriceMantissa",
          "type": "uint256"
        },
        {
          "indexed": false,
          "internalType": "uint256",
          "name": "anchorPriceMantissa",
          "type": "uint256"
        },
        {
          "indexed": false,
          "internalType": "uint256",
          "name": "cappedPriceMantissa",
          "type": "uint256"
        }
      ],
      "name": "CappedPricePosted",
      "type": "event"
    },
    {
      "anonymous": false,
      "inputs": [
        {
          "indexed": false,
          "internalType": "uint256",
          "name": "error",
          "type": "uint256"
        },
        {
          "indexed": false,
          "internalType": "uint256",
          "name": "info",
          "type": "uint256"
        },
        {
          "indexed": false,
          "internalType": "uint256",
          "name": "detail",
          "type": "uint256"
        }
      ],
      "name": "Failure",
      "type": "event"
    },
    {
      "anonymous": false,
      "inputs": [
        {
          "indexed": false,
          "internalType": "address",
          "name": "oldAnchorAdmin",
          "type": "address"
        },
        {
          "indexed": false,
          "internalType": "address",
          "name": "newAnchorAdmin",
          "type": "address"
        }
      ],
      "name": "NewAnchorAdmin",
      "type": "event"
    },
    {
      "anonymous": false,
      "inputs": [
        {
          "indexed": false,
          "internalType": "address",
          "name": "anchorAdmin",
          "type": "address"
        },
        {
          "indexed": false,
          "internalType": "address",
          "name": "asset",
          "type": "address"
        },
        {
          "indexed": false,
          "internalType": "uint256",
          "name": "oldScaledPrice",
          "type": "uint256"
        },
        {
          "indexed": false,
          "internalType": "uint256",
          "name": "newScaledPrice",
          "type": "uint256"
        }
      ],
      "name": "NewPendingAnchor",
      "type": "event"
    },
    {
      "anonymous": false,
      "inputs": [
        {
          "indexed": false,
          "internalType": "address",
          "name": "oldPendingAnchorAdmin",
          "type": "address"
        },
        {
          "indexed": false,
          "internalType": "address",
          "name": "newPendingAnchorAdmin",
          "type": "address"
        }
      ],
      "name": "NewPendingAnchorAdmin",
      "type": "event"
    },
    {
      "anonymous": false,
      "inputs": [
        {
          "indexed": false,
          "internalType": "address",
          "name": "msgSender",
          "type": "address"
        },
        {
          "indexed": false,
          "internalType": "address",
          "name": "asset",
          "type": "address"
        },
        {
          "indexed": false,
          "internalType": "uint256",
          "name": "error",
          "type": "uint256"
        },
        {
          "indexed": false,
          "internalType": "uint256",
          "name": "info",
          "type": "uint256"
        },
        {
          "indexed": false,
          "internalType": "uint256",
          "name": "detail",
          "type": "uint256"
        }
      ],
      "name": "OracleFailure",
      "type": "event"
    },
    {
      "anonymous": false,
      "inputs": [
        {
          "indexed": false,
          "internalType": "address",
          "name": "asset",
          "type": "address"
        },
        {
          "indexed": false,
          "internalType": "uint256",
          "name": "previousPriceMantissa",
          "type": "uint256"
        },
        {
          "indexed": false,
          "internalType": "uint256",
          "name": "requestedPriceMantissa",
          "type": "uint256"
        },
        {
          "indexed": false,
          "internalType": "uint256",
          "name": "newPriceMantissa",
          "type": "uint256"
        }
      ],
      "name": "PricePosted",
      "type": "event"
    },
    {
      "anonymous": false,
      "inputs": [
        {
          "indexed": false,
          "internalType": "bool",
          "name": "newState",
          "type": "bool"
        }
      ],
      "name": "SetPaused",
      "type": "event"
    },
    {
      "payable": true,
      "stateMutability": "payable",
      "type": "fallback"
    },
    {
      "constant": false,
      "inputs": [],
      "name": "_acceptAnchorAdmin",
      "outputs": [
        {
          "internalType": "uint256",
          "name": "",
          "type": "uint256"
        }
      ],
      "payable": false,
      "stateMutability": "nonpayable",
      "type": "function"
    },
    {
      "constant": true,
      "inputs": [
        {
          "internalType": "address",
          "name": "",
          "type": "address"
        }
      ],
      "name": "_assetPrices",
      "outputs": [
        {
          "internalType": "uint256",
          "name": "mantissa",
          "type": "uint256"
        }
      ],
      "payable": false,
      "stateMutability": "view",
      "type": "function"
    },
    {
      "constant": false,
      "inputs": [
        {
          "internalType": "bool",
          "name": "requestedState",
          "type": "bool"
        }
      ],
      "name": "_setPaused",
      "outputs": [
        {
          "internalType": "uint256",
          "name": "",
          "type": "uint256"
        }
      ],
      "payable": false,
      "stateMutability": "nonpayable",
      "type": "function"
    },
    {
      "constant": false,
      "inputs": [
        {
          "internalType": "address",
          "name": "asset",
          "type": "address"
        },
        {
          "internalType": "uint256",
          "name": "newScaledPrice",
          "type": "uint256"
        }
      ],
      "name": "_setPendingAnchor",
      "outputs": [
        {
          "internalType": "uint256",
          "name": "",
          "type": "uint256"
        }
      ],
      "payable": false,
      "stateMutability": "nonpayable",
      "type": "function"
    },
    {
      "constant": false,
      "inputs": [
        {
          "internalType": "address",
          "name": "newPendingAnchorAdmin",
          "type": "address"
        }
      ],
      "name": "_setPendingAnchorAdmin",
      "outputs": [
        {
          "internalType": "uint256",
          "name": "",
          "type": "uint256"
        }
      ],
      "payable": false,
      "stateMutability": "nonpayable",
      "type": "function"
    },
    {
      "constant": true,
      "inputs": [],
      "name": "anchorAdmin",
      "outputs": [
        {
          "internalType": "address",
          "name": "",
          "type": "address"
        }
      ],
      "payable": false,
      "stateMutability": "view",
      "type": "function"
    },
    {
      "constant": true,
      "inputs": [
        {
          "internalType": "address",
          "name": "",
          "type": "address"
        }
      ],
      "name": "anchors",
      "outputs": [
        {
          "internalType": "uint256",
          "name": "period",
          "type": "uint256"
        },
        {
          "internalType": "uint256",
          "name": "priceMantissa",
          "type": "uint256"
        }
      ],
      "payable": false,
      "stateMutability": "view",
      "type": "function"
    },
    {
      "constant": true,
      "inputs": [
        {
          "internalType": "address",
          "name": "asset",
          "type": "address"
        }
      ],
      "name": "assetPrices",
      "outputs": [
        {
          "internalType": "uint256",
          "name": "",
          "type": "uint256"
        }
      ],
      "payable": false,
      "stateMutability": "view",
      "type": "function"
    },
    {
      "constant": true,
      "inputs": [
        {
          "internalType": "address",
          "name": "asset",
          "type": "address"
        }
      ],
      "name": "getPrice",
      "outputs": [
        {
          "internalType": "uint256",
          "name": "",
          "type": "uint256"
        }
      ],
      "payable": false,
      "stateMutability": "view",
      "type": "function"
    },
    {
      "constant": true,
      "inputs": [],
      "name": "maxSwing",
      "outputs": [
        {
          "internalType": "uint256",
          "name": "mantissa",
          "type": "uint256"
        }
      ],
      "payable": false,
      "stateMutability": "view",
      "type": "function"
    },
    {
      "constant": true,
      "inputs": [],
      "name": "maxSwingMantissa",
      "outputs": [
        {
          "internalType": "uint256",
          "name": "",
          "type": "uint256"
        }
      ],
      "payable": false,
      "stateMutability": "view",
      "type": "function"
    },
    {
      "constant": true,
      "inputs": [],
      "name": "numBlocksPerPeriod",
      "outputs": [
        {
          "internalType": "uint256",
          "name": "",
          "type": "uint256"
        }
      ],
      "payable": false,
      "stateMutability": "view",
      "type": "function"
    },
    {
      "constant": true,
      "inputs": [],
      "name": "paused",
      "outputs": [
        {
          "internalType": "bool",
          "name": "",
          "type": "bool"
        }
      ],
      "payable": false,
      "stateMutability": "view",
      "type": "function"
    },
    {
      "constant": true,
      "inputs": [],
      "name": "pendingAnchorAdmin",
      "outputs": [
        {
          "internalType": "address",
          "name": "",
          "type": "address"
        }
      ],
      "payable": false,
      "stateMutability": "view",
      "type": "function"
    },
    {
      "constant": true,
      "inputs": [
        {
          "internalType": "address",
          "name": "",
          "type": "address"
        }
      ],
      "name": "pendingAnchors",
      "outputs": [
        {
          "internalType": "uint256",
          "name": "",
          "type": "uint256"
        }
      ],
      "payable": false,
      "stateMutability": "view",
      "type": "function"
    },
    {
      "constant": true,
      "inputs": [],
      "name": "poster",
      "outputs": [
        {
          "internalType": "address",
          "name": "",
          "type": "address"
        }
      ],
      "payable": false,
      "stateMutability": "view",
      "type": "function"
    },
    {
      "constant": false,
      "inputs": [
        {
          "internalType": "address",
          "name": "asset",
          "type": "address"
        },
        {
          "internalType": "uint256",
          "name": "requestedPriceMantissa",
          "type": "uint256"
        }
      ],
      "name": "setPrice",
      "outputs": [
        {
          "internalType": "uint256",
          "name": "",
          "type": "uint256"
        }
      ],
      "payable": false,
      "stateMutability": "nonpayable",
      "type": "function"
    },
    {
      "constant": false,
      "inputs": [
        {
          "internalType": "address[]",
          "name": "assets",
          "type": "address[]"
        },
        {
          "internalType": "uint256[]",
          "name": "requestedPriceMantissas",
          "type": "uint256[]"
        }
      ],
      "name": "setPrices",
      "outputs": [
        {
          "internalType": "uint256[]",
          "name": "",
          "type": "uint256[]"
        }
      ],
      "payable": false,
      "stateMutability": "nonpayable",
      "type": "function"
    }
  ],
  "transactionHash": "0x22ce921e5cf30e7ae29670838a92fa97dfc2568d442a5cae39c6c1f7be748e1c",
  "args": [
    "0x5D3e4C0FE11e0aE4c32F0FF74B4544C49538AC61"
  ],
  "solcInputHash": "c9ccfe5fdb5639c87724d99eb44537d0",
  "bytecode": "0x608060405234801561001057600080fd5b506040516114b43803806114b48339818101604052602081101561003357600080fd5b505160028054336001600160a01b031991821617909155600480549091166001600160a01b03909216919091179055604080516020810190915267016345785d8a0000908190526005556114288061008c6000396000f3fe6080604052600436106101085760003560e01c80635c975abb116100955780639964622c116100645780639964622c1461049b5780639e8c4d95146104ce578063c5faf1d514610501578063ccb13cbd14610516578063de9d0e851461052b57610108565b80635c975abb146103de5780635e9a523c14610407578063692374e31461043a578063809597211461048657610108565b806326617c28116100dc57806326617c28146101d157806341976e09146101fd5780634352fa9f14610230578063451b1e3a146103b4578063485feabe146103c957610108565b8062e4768b1461010d57806308f31857146101585780630c9c630114610189578063183f34441461019e575b600080fd5b34801561011957600080fd5b506101466004803603604081101561013057600080fd5b506001600160a01b038135169060200135610564565b60408051918252519081900360200190f35b34801561016457600080fd5b5061016d6105a0565b604080516001600160a01b039092168252519081900360200190f35b34801561019557600080fd5b506101466105af565b3480156101aa57600080fd5b50610146600480360360208110156101c157600080fd5b50356001600160a01b03166105bb565b3480156101dd57600080fd5b50610146600480360360208110156101f457600080fd5b503515156105cd565b34801561020957600080fd5b506101466004803603602081101561022057600080fd5b50356001600160a01b0316610645565b34801561023c57600080fd5b506103646004803603604081101561025357600080fd5b81019060208101813564010000000081111561026e57600080fd5b82018360208201111561028057600080fd5b803590602001918460208302840111640100000000831117156102a257600080fd5b91908080602002602001604051908101604052809392919081815260200183836020028082843760009201919091525092959493602081019350359150506401000000008111156102f257600080fd5b82018360208201111561030457600080fd5b8035906020019184602083028401116401000000008311171561032657600080fd5b919080806020026020016040519081016040528093929190818152602001838360200280828437600092019190915250929550610650945050505050565b60408051602080825283518183015283519192839290830191858101910280838360005b838110156103a0578181015183820152602001610388565b505050509050019250505060405180910390f35b3480156103c057600080fd5b5061016d61078e565b3480156103d557600080fd5b5061014661079d565b3480156103ea57600080fd5b506103f36107a2565b604080519115158252519081900360200190f35b34801561041357600080fd5b506101466004803603602081101561042a57600080fd5b50356001600160a01b03166107ab565b34801561044657600080fd5b5061046d6004803603602081101561045d57600080fd5b50356001600160a01b03166107db565b6040805192835260208301919091528051918290030190f35b34801561049257600080fd5b5061016d6107f4565b3480156104a757600080fd5b50610146600480360360208110156104be57600080fd5b50356001600160a01b0316610803565b3480156104da57600080fd5b50610146600480360360208110156104f157600080fd5b50356001600160a01b031661088e565b34801561050d57600080fd5b506101466108a0565b34801561052257600080fd5b506101466108a6565b34801561053757600080fd5b506101466004803603604081101561054e57600080fd5b506001600160a01b038135169060200135610940565b6004546000906001600160a01b0316331461058d5761058683600160086109d3565b905061059a565b6105978383610a5c565b90505b92915050565b6002546001600160a01b031681565b67016345785d8a000081565b60016020526000908152604090205481565b6002546000906001600160a01b031633146105f6576105ef60006001806109d3565b9050610640565b6000805483151560ff19909116811790915560408051918252517f3c70af01296aef045b2f5c9d3c30b05d4428fd257145b9c7fcd76418e65b59809181900360200190a160005b90505b919050565b600061063d826107ab565b81518151600454606092919083906001600160a01b031633146106bd57604080516001808252818301909252906020808301908038833901905050905061069b6000600160086109d3565b816000815181106106a857fe5b6020908102919091010152925061059a915050565b8215806106ca5750828214155b156106fd57604080516001808252818301909252906020808301908038833901905050905061069b60006002600a6109d3565b82604051908082528060200260200182016040528015610727578160200160208202803883390190505b50905060005b838110156107845761076587828151811061074457fe5b602002602001015187838151811061075857fe5b6020026020010151610a5c565b82828151811061077157fe5b602090810291909101015260010161072d565b5095945050505050565b6003546001600160a01b031681565b60f081565b60005460ff1681565b6000805460ff16156107bf57506000610640565b506001600160a01b031660009081526001602052604090205490565b6006602052600090815260409020805460019091015482565b6004546001600160a01b031681565b6002546000906001600160a01b03163314610826576105ef6000600160026109d3565b600380546001600160a01b038481166001600160a01b0319831681179093556040805191909216808252602082019390935281517f6c773973d5bcf264b509f4194ceb99e891251f6aabb325523a863c282958b13e929181900390910190a160009392505050565b60076020526000908152604090205481565b60055481565b6003546000906001600160a01b031633146108d0576108c96000600160006109d3565b905061093d565b60028054600380546001600160a01b03198084166001600160a01b03838116919091179095551690556040805192909116808352336020840152815190927fbef9248fe57ae972dd47833f68c43f0b3b2d14217612dfbc804a520a23730d4692908290030190a160009150505b90565b6002546000906001600160a01b031633146109625761058683600160036109d3565b6001600160a01b0383166000818152600760209081526040918290208054908690558251338152918201939093528082018390526060810185905290517ff0aa20c29c1f8e751bfe0a78bc49a520ed14f2dab274087d90d1341d8b76af5c9181900360800190a16000949350505050565b60007f96f29b65cebbd6816352fb242b6af7180b49e8a09e19e589225d35bc8444f0b73385856002811115610a0457fe5b85600a811115610a1057fe5b604080516001600160a01b0395861681529390941660208401528284019190915260608201526000608082015290519081900360a00190a1826002811115610a5457fe5b949350505050565b600080610a67611387565b60f0430460010160808201526001600160a01b0385166000908152600760209081526040918290205460e08401908152825191820190925285815282525115610b4d57600060608201526040805160208101825260e083015181529082018190528151610ad49190610db2565b602083015291506000826017811115610ae957fe5b14610b1057610b078560026004856017811115610b0257fe5b610e38565b9250505061059a565b6020808201516040805192830190526005548252610b2d91610ec2565b15610b4857610b078560026006846020015160000151610e38565b610c04565b6001600160a01b038516600081815260066020818152604080842080546060880190815282518085018452969095529290915260019091015483528301919091525115610bf257610ba681604001518260000151610ec9565b8352151560a083015291506000826017811115610bbf57fe5b14610bd857610b078560026005856017811115610b0257fe5b8060a0015115610b485760408101515160c0820152610c04565b60408051602081018252858152908201525b610c118160400151611088565b15610c2357610b0785600260076109d3565b8051610c2e90611088565b15610c4057610b0785600260096109d3565b6001600160a01b03851660009081526007602052604090205415610c78576001600160a01b0385166000908152600760205260408120555b806060015181608001511115610cc8576040805180820182526080830151815282515160208083019182526001600160a01b03891660009081526006909152929092209051815590516001909101555b6001600160a01b038516600090815260016020526040902054815151610cef90879061108d565b815151604080516001600160a01b0389168152602081018490528082018890526060810192909252517fdd71a1d19fcba687442a1d5c58578f1e409af71a79d10fd95a4d66efd8fa9ae79181900360800190a18160a0015115610da65760c0820151825151604080516001600160a01b038a16815260208101899052808201939093526060830191909152517f7221f7a2708437039cc63319145b6b873a40594b9782a3bee45b975e2f3b0f689181900360800190a15b60009695505050505050565b6000610dbc6113e0565b610dc46113e0565b6000610dd08686610ec2565b15610dfd57610ddf86866110b8565b925090506000816017811115610df157fe5b14610df857fe5b610e20565b610e0785876110b8565b925090506000816017811115610e1957fe5b14610e2057fe5b610e2a82876110f2565b9350935050505b9250929050565b60007f96f29b65cebbd6816352fb242b6af7180b49e8a09e19e589225d35bc8444f0b73386866002811115610e6957fe5b86600a811115610e7557fe5b604080516001600160a01b0395861681529390941660208401528284019190915260608201526080810185905290519081900360a00190a1836002811115610eb957fe5b95945050505050565b5190511190565b600080610ed46113e0565b610edc6113e0565b506040805160208101909152670de0b6b3a76400008152610efb6113e0565b610f036113e0565b610f0b6113e0565b610f136113e0565b60408051602081019091526005548152600090610f31908790611115565b955090506000816017811115610f4357fe5b14610f6b57604080516020810190915260008082529199509097509550611081945050505050565b610f758b86611134565b935090506000816017811115610f8757fe5b14610faf57604080516020810190915260008082529199509097509550611081945050505050565b610fb98a84610ec2565b15610fd4576000600184985098509850505050505050611081565b60408051602081019091526005548152610fef9087906110b8565b94509050600081601781111561100157fe5b1461102957604080516020810190915260008082529199509097509550611081945050505050565b6110338b85611134565b92509050600081601781111561104557fe5b1461104c57fe5b6110568a8361121d565b156110705750600097506001965094506110819350505050565b6000808b9850985098505050505050505b9250925092565b511590565b60408051602080820183529281526001600160a01b0390931660009081526001909252902090519055565b60006110c26113e0565b6000806110d786600001518660000151611224565b60408051602081019091529081529097909650945050505050565b60006110fc6113e0565b8351835161110a9190611247565b915091509250929050565b600061111f6113e0565b6000806110d7866000015186600001516112f7565b600061113e6113e0565b6000806111538660000151866000015161131d565b9092509050600082601781111561116657fe5b1461118557506040805160208101909152600081529092509050610e31565b60008061119a6706f05b59d3b20000846112f7565b909250905060008260178111156111ad57fe5b146111cf57506040805160208101909152600081529094509250610e31915050565b6000806111e483670de0b6b3a764000061135c565b909250905060008260178111156111f757fe5b146111fe57fe5b604080516020810190915290815260009a909950975050505050505050565b5190511090565b60008083831161123b575060009050818303610e31565b50600490506000610e31565b60006112516113e0565b60008061126686670de0b6b3a764000061131d565b9092509050600082601781111561127957fe5b1461129857506040805160208101909152600081529092509050610e31565b6000806112a5838861135c565b909250905060008260178111156112b857fe5b146112da57506040805160208101909152600081529094509250610e31915050565b604080516020810190915290815260009890975095505050505050565b60008083830184811061130f57600092509050610e31565b506003915060009050610e31565b6000808361133057506000905080610e31565b8383028385828161133d57fe5b041461135157506003915060009050610e31565b600092509050610e31565b600080826113705750600590506000610e31565b600083858161137b57fe5b04915091509250929050565b60405180610100016040528061139b6113e0565b81526020016113a86113e0565b81526020016113b56113e0565b8152602001600081526020016000815260200160001515815260200160008152602001600081525090565b604051806020016040528060008152509056fea265627a7a72315820eb185f2cc0f328e203e70d13a4360df7269ac597c17e599d01b2ced0970e724d64736f6c63430005100032",
  "devdoc": {
    "methods": {
      "_acceptAnchorAdmin()": {
        "details": "Admin function for pending anchor admin to accept role and update anchor admin",
        "return": "uint 0=success, otherwise a failure"
      },
      "_setPaused(bool)": {
        "details": "Admin function to pause or resume the market",
        "params": {
          "requestedState": "value to assign to `paused`"
        },
        "return": "uint 0=success, otherwise a failure"
      },
      "_setPendingAnchor(address,uint256)": {
        "details": "Admin function to set the anchor price for an asset",
        "params": {
          "asset": "Asset for which to override the anchor price",
          "newScaledPrice": "New anchor price"
        },
        "return": "uint 0=success, otherwise a failure (see enum OracleError for details)"
      },
      "_setPendingAnchorAdmin(address)": {
        "details": "Admin function to begin change of anchor admin. The newPendingAnchorAdmin must call `_acceptAnchorAdmin` to finalize the transfer.",
        "params": {
          "newPendingAnchorAdmin": "New pending anchor admin."
        },
        "return": "uint 0=success, otherwise a failure     * TODO: Should we add a second arg to verify, like a checksum of `newAnchorAdmin` address?"
      },
      "assetPrices(address)": {
        "details": "function to get price for an asset",
        "params": {
          "asset": "Asset for which to get the price"
        },
        "return": "uint mantissa of asset price (scaled by 1e18) or zero if unset or contract paused"
      },
      "getPrice(address)": {
        "details": "function to get price for an asset",
        "params": {
          "asset": "Asset for which to get the price"
        },
        "return": "uint mantissa of asset price (scaled by 1e18) or zero if unset or contract paused"
      },
      "setPrice(address,uint256)": {
        "details": "function to set price for an asset",
        "params": {
          "asset": "Asset for which to set the price",
          "requestedPriceMantissa": "requested new price, scaled by 10**18"
        },
        "return": "uint 0=success, otherwise a failure (see enum OracleError for details)"
      },
      "setPrices(address[],uint256[])": {
        "details": "function to set prices for a variable number of assets.",
        "params": {
          "assets": "a list of up to assets for which to set a price. required: 0 < assets.length == requestedPriceMantissas.length",
          "requestedPriceMantissas": "requested new prices for the assets, scaled by 10**18. required: 0 < assets.length == requestedPriceMantissas.length"
        },
        "return": "uint values in same order as inputs. For each: 0=success, otherwise a failure (see enum OracleError for details)"
      }
    }
  },
  "userdoc": {
    "methods": {
      "_acceptAnchorAdmin()": {
        "notice": "Accepts transfer of anchor admin rights. msg.sender must be pendingAnchorAdmin"
      },
      "_setPaused(bool)": {
        "notice": "set `paused` to the specified state"
      },
      "_setPendingAnchor(address,uint256)": {
        "notice": "provides ability to override the anchor price for an asset"
      },
      "_setPendingAnchorAdmin(address)": {
        "notice": "Begins transfer of anchor admin rights. The newPendingAnchorAdmin must call `_acceptAnchorAdmin` to finalize the transfer."
      },
      "assetPrices(address)": {
        "notice": "retrieves price of an asset"
      },
      "getPrice(address)": {
        "notice": "retrieves price of an asset"
      },
      "setPrice(address,uint256)": {
        "notice": "entry point for updating prices"
      },
      "setPrices(address[],uint256[])": {
        "notice": "entry point for updating multiple prices"
      }
    }
  },
  "storageLayout": {
    "storage": [
      {
        "astId": 791,
        "contract": "contracts/PriceOracle/v1PriceOracle.sol:V1PriceOracle",
        "label": "paused",
        "offset": 0,
        "slot": "0",
        "type": "t_bool"
      },
      {
        "astId": 804,
        "contract": "contracts/PriceOracle/v1PriceOracle.sol:V1PriceOracle",
        "label": "_assetPrices",
        "offset": 0,
        "slot": "1",
        "type": "t_mapping(t_address,t_struct(Exp)362_storage)"
      },
      {
        "astId": 922,
        "contract": "contracts/PriceOracle/v1PriceOracle.sol:V1PriceOracle",
        "label": "anchorAdmin",
        "offset": 0,
        "slot": "2",
        "type": "t_address"
      },
      {
        "astId": 924,
        "contract": "contracts/PriceOracle/v1PriceOracle.sol:V1PriceOracle",
        "label": "pendingAnchorAdmin",
        "offset": 0,
        "slot": "3",
        "type": "t_address"
      },
      {
        "astId": 926,
        "contract": "contracts/PriceOracle/v1PriceOracle.sol:V1PriceOracle",
        "label": "poster",
        "offset": 0,
        "slot": "4",
        "type": "t_address"
      },
      {
        "astId": 928,
        "contract": "contracts/PriceOracle/v1PriceOracle.sol:V1PriceOracle",
        "label": "maxSwing",
        "offset": 0,
        "slot": "5",
        "type": "t_struct(Exp)362_storage"
      },
      {
        "astId": 937,
        "contract": "contracts/PriceOracle/v1PriceOracle.sol:V1PriceOracle",
        "label": "anchors",
        "offset": 0,
        "slot": "6",
        "type": "t_mapping(t_address,t_struct(Anchor)933_storage)"
      },
      {
        "astId": 941,
        "contract": "contracts/PriceOracle/v1PriceOracle.sol:V1PriceOracle",
        "label": "pendingAnchors",
        "offset": 0,
        "slot": "7",
        "type": "t_mapping(t_address,t_uint256)"
      }
    ],
    "types": {
      "t_address": {
        "encoding": "inplace",
        "label": "address",
        "numberOfBytes": "20"
      },
      "t_bool": {
        "encoding": "inplace",
        "label": "bool",
        "numberOfBytes": "1"
      },
      "t_mapping(t_address,t_struct(Anchor)933_storage)": {
        "encoding": "mapping",
        "key": "t_address",
        "label": "mapping(address => struct V1PriceOracle.Anchor)",
        "numberOfBytes": "32",
        "value": "t_struct(Anchor)933_storage"
      },
      "t_mapping(t_address,t_struct(Exp)362_storage)": {
        "encoding": "mapping",
        "key": "t_address",
        "label": "mapping(address => struct Exponential.Exp)",
        "numberOfBytes": "32",
        "value": "t_struct(Exp)362_storage"
      },
      "t_mapping(t_address,t_uint256)": {
        "encoding": "mapping",
        "key": "t_address",
        "label": "mapping(address => uint256)",
        "numberOfBytes": "32",
        "value": "t_uint256"
      },
      "t_struct(Anchor)933_storage": {
        "encoding": "inplace",
        "label": "struct V1PriceOracle.Anchor",
        "members": [
          {
            "astId": 930,
            "contract": "contracts/PriceOracle/v1PriceOracle.sol:V1PriceOracle",
            "label": "period",
            "offset": 0,
            "slot": "0",
            "type": "t_uint256"
          },
          {
            "astId": 932,
            "contract": "contracts/PriceOracle/v1PriceOracle.sol:V1PriceOracle",
            "label": "priceMantissa",
            "offset": 0,
            "slot": "1",
            "type": "t_uint256"
          }
        ],
        "numberOfBytes": "64"
      },
      "t_struct(Exp)362_storage": {
        "encoding": "inplace",
        "label": "struct Exponential.Exp",
        "members": [
          {
            "astId": 361,
            "contract": "contracts/PriceOracle/v1PriceOracle.sol:V1PriceOracle",
            "label": "mantissa",
            "offset": 0,
            "slot": "0",
            "type": "t_uint256"
          }
        ],
        "numberOfBytes": "32"
      },
      "t_uint256": {
        "encoding": "inplace",
        "label": "uint256",
        "numberOfBytes": "32"
      }
    }
  }
}